{
	"contracts/StakeXFI.sol": {
		"StakeXFI": {
			"abi": [
				{
					"inputs": [
						{
							"internalType": "address",
							"name": "_xfiAddress",
							"type": "address"
						},
						{
							"internalType": "address",
							"name": "_mpxAddress",
							"type": "address"
						}
					],
					"stateMutability": "nonpayable",
					"type": "constructor"
				},
				{
					"anonymous": false,
					"inputs": [
						{
							"indexed": true,
							"internalType": "address",
							"name": "staker",
							"type": "address"
						},
						{
							"indexed": false,
							"internalType": "uint256",
							"name": "amount",
							"type": "uint256"
						},
						{
							"indexed": true,
							"internalType": "uint256",
							"name": "startTime",
							"type": "uint256"
						}
					],
					"name": "DepositSuccessful",
					"type": "event"
				},
				{
					"anonymous": false,
					"inputs": [
						{
							"indexed": true,
							"internalType": "address",
							"name": "previousOwner",
							"type": "address"
						},
						{
							"indexed": false,
							"internalType": "address",
							"name": "newOwner",
							"type": "address"
						}
					],
					"name": "OwnershipTransfered",
					"type": "event"
				},
				{
					"anonymous": false,
					"inputs": [
						{
							"indexed": true,
							"internalType": "address",
							"name": "staker",
							"type": "address"
						},
						{
							"indexed": false,
							"internalType": "uint256",
							"name": "amount",
							"type": "uint256"
						},
						{
							"indexed": true,
							"internalType": "uint256",
							"name": "reward",
							"type": "uint256"
						}
					],
					"name": "WithdrawalSuccessful",
					"type": "event"
				},
				{
					"inputs": [],
					"name": "MPXContract",
					"outputs": [
						{
							"internalType": "contract IERC20",
							"name": "",
							"type": "address"
						}
					],
					"stateMutability": "view",
					"type": "function"
				},
				{
					"inputs": [
						{
							"internalType": "address",
							"name": "_newOwner",
							"type": "address"
						}
					],
					"name": "TransferOwnership",
					"outputs": [],
					"stateMutability": "nonpayable",
					"type": "function"
				},
				{
					"inputs": [],
					"name": "XFIContract",
					"outputs": [
						{
							"internalType": "contract IERC20",
							"name": "",
							"type": "address"
						}
					],
					"stateMutability": "view",
					"type": "function"
				},
				{
					"inputs": [],
					"name": "claimOwnership",
					"outputs": [],
					"stateMutability": "nonpayable",
					"type": "function"
				},
				{
					"inputs": [],
					"name": "getContractMPXBalance",
					"outputs": [
						{
							"internalType": "uint256",
							"name": "",
							"type": "uint256"
						}
					],
					"stateMutability": "view",
					"type": "function"
				},
				{
					"inputs": [],
					"name": "getContractXFIBalance",
					"outputs": [
						{
							"internalType": "uint256",
							"name": "",
							"type": "uint256"
						}
					],
					"stateMutability": "view",
					"type": "function"
				},
				{
					"inputs": [
						{
							"internalType": "uint8",
							"name": "_index",
							"type": "uint8"
						}
					],
					"name": "getStakerInfo",
					"outputs": [
						{
							"components": [
								{
									"internalType": "uint256",
									"name": "amount",
									"type": "uint256"
								},
								{
									"internalType": "uint256",
									"name": "startTime",
									"type": "uint256"
								},
								{
									"internalType": "uint256",
									"name": "duration",
									"type": "uint256"
								},
								{
									"internalType": "bool",
									"name": "hasWithdrawn",
									"type": "bool"
								}
							],
							"internalType": "struct StakeXFI.Staking",
							"name": "",
							"type": "tuple"
						}
					],
					"stateMutability": "view",
					"type": "function"
				},
				{
					"inputs": [
						{
							"internalType": "uint256",
							"name": "_amount",
							"type": "uint256"
						},
						{
							"internalType": "uint256",
							"name": "_duration",
							"type": "uint256"
						}
					],
					"name": "stake",
					"outputs": [],
					"stateMutability": "nonpayable",
					"type": "function"
				},
				{
					"inputs": [
						{
							"internalType": "uint256",
							"name": "_index",
							"type": "uint256"
						}
					],
					"name": "withdrawStake",
					"outputs": [
						{
							"internalType": "bool",
							"name": "",
							"type": "bool"
						}
					],
					"stateMutability": "nonpayable",
					"type": "function"
				}
			],
			"devdoc": {
				"kind": "dev",
				"methods": {},
				"version": 1
			},
			"evm": {
				"assembly": "    /* \"contracts/StakeXFI.sol\":87:4521  contract StakeXFI {... */\n  mstore(0x40, 0xc0)\n    /* \"contracts/StakeXFI.sol\":302:318  1_000 * (10**18) */\n  0x3635c9adc5dea00000\n    /* \"contracts/StakeXFI.sol\":261:318  uint256 immutable MINIMUM_STAKE_AMOUNT = 1_000 * (10**18) */\n  0x80\n  swap1\n  dup2\n  mstore\n  pop\n    /* \"contracts/StakeXFI.sol\":366:384  100_000 * (10**18) */\n  0x152d02c7e14af6800000\n    /* \"contracts/StakeXFI.sol\":325:384  uint256 immutable MAXIMUM_STAKE_AMOUNT = 100_000 * (10**18) */\n  0xa0\n  swap1\n  dup2\n  mstore\n  pop\n    /* \"contracts/StakeXFI.sol\":587:770  constructor(address _xfiAddress, address _mpxAddress) {... */\n  callvalue\n  dup1\n  iszero\n  tag_1\n  jumpi\n  revert(0x00, 0x00)\ntag_1:\n  pop\n  mload(0x40)\n  sub(codesize, bytecodeSize)\n  dup1\n  bytecodeSize\n  dup4\n  codecopy\n  dup2\n  dup2\n  add\n  0x40\n  mstore\n  dup2\n  add\n  swap1\n  tag_2\n  swap2\n  swap1\n  tag_3\n  jump\t// in\ntag_2:\n    /* \"contracts/StakeXFI.sol\":673:684  _xfiAddress */\n  dup2\n    /* \"contracts/StakeXFI.sol\":652:663  XFIContract */\n  0x00\n  0x00\n    /* \"contracts/StakeXFI.sol\":652:685  XFIContract = IERC20(_xfiAddress) */\n  0x0100\n  exp\n  dup2\n  sload\n  dup2\n  0xffffffffffffffffffffffffffffffffffffffff\n  mul\n  not\n  and\n  swap1\n  dup4\n  0xffffffffffffffffffffffffffffffffffffffff\n  and\n  mul\n  or\n  swap1\n  sstore\n  pop\n    /* \"contracts/StakeXFI.sol\":717:728  _mpxAddress */\n  dup1\n    /* \"contracts/StakeXFI.sol\":696:707  MPXContract */\n  0x01\n  0x00\n    /* \"contracts/StakeXFI.sol\":696:729  MPXContract = IERC20(_mpxAddress) */\n  0x0100\n  exp\n  dup2\n  sload\n  dup2\n  0xffffffffffffffffffffffffffffffffffffffff\n  mul\n  not\n  and\n  swap1\n  dup4\n  0xffffffffffffffffffffffffffffffffffffffff\n  and\n  mul\n  or\n  swap1\n  sstore\n  pop\n    /* \"contracts/StakeXFI.sol\":750:760  msg.sender */\n  caller\n    /* \"contracts/StakeXFI.sol\":742:747  owner */\n  0x02\n  0x00\n    /* \"contracts/StakeXFI.sol\":742:760  owner = msg.sender */\n  0x0100\n  exp\n  dup2\n  sload\n  dup2\n  0xffffffffffffffffffffffffffffffffffffffff\n  mul\n  not\n  and\n  swap1\n  dup4\n  0xffffffffffffffffffffffffffffffffffffffff\n  and\n  mul\n  or\n  swap1\n  sstore\n  pop\n    /* \"contracts/StakeXFI.sol\":587:770  constructor(address _xfiAddress, address _mpxAddress) {... */\n  pop\n  pop\n    /* \"contracts/StakeXFI.sol\":87:4521  contract StakeXFI {... */\n  jump(tag_6)\n    /* \"#utility.yul\":88:205   */\ntag_8:\n    /* \"#utility.yul\":197:198   */\n  0x00\n    /* \"#utility.yul\":194:195   */\n  0x00\n    /* \"#utility.yul\":187:199   */\n  revert\n    /* \"#utility.yul\":334:460   */\ntag_10:\n    /* \"#utility.yul\":371:378   */\n  0x00\n    /* \"#utility.yul\":411:453   */\n  0xffffffffffffffffffffffffffffffffffffffff\n    /* \"#utility.yul\":404:409   */\n  dup3\n    /* \"#utility.yul\":400:454   */\n  and\n    /* \"#utility.yul\":389:454   */\n  swap1\n  pop\n    /* \"#utility.yul\":334:460   */\n  swap2\n  swap1\n  pop\n  jump\t// out\n    /* \"#utility.yul\":466:562   */\ntag_11:\n    /* \"#utility.yul\":503:510   */\n  0x00\n    /* \"#utility.yul\":532:556   */\n  tag_20\n    /* \"#utility.yul\":550:555   */\n  dup3\n    /* \"#utility.yul\":532:556   */\n  tag_10\n  jump\t// in\ntag_20:\n    /* \"#utility.yul\":521:556   */\n  swap1\n  pop\n    /* \"#utility.yul\":466:562   */\n  swap2\n  swap1\n  pop\n  jump\t// out\n    /* \"#utility.yul\":568:690   */\ntag_12:\n    /* \"#utility.yul\":641:665   */\n  tag_22\n    /* \"#utility.yul\":659:664   */\n  dup2\n    /* \"#utility.yul\":641:665   */\n  tag_11\n  jump\t// in\ntag_22:\n    /* \"#utility.yul\":634:639   */\n  dup2\n    /* \"#utility.yul\":631:666   */\n  eq\n    /* \"#utility.yul\":621:684   */\n  tag_23\n  jumpi\n    /* \"#utility.yul\":680:681   */\n  0x00\n    /* \"#utility.yul\":677:678   */\n  0x00\n    /* \"#utility.yul\":670:682   */\n  revert\n    /* \"#utility.yul\":621:684   */\ntag_23:\n    /* \"#utility.yul\":568:690   */\n  pop\n  jump\t// out\n    /* \"#utility.yul\":696:839   */\ntag_13:\n    /* \"#utility.yul\":753:758   */\n  0x00\n    /* \"#utility.yul\":784:790   */\n  dup2\n    /* \"#utility.yul\":778:791   */\n  mload\n    /* \"#utility.yul\":769:791   */\n  swap1\n  pop\n    /* \"#utility.yul\":800:833   */\n  tag_25\n    /* \"#utility.yul\":827:832   */\n  dup2\n    /* \"#utility.yul\":800:833   */\n  tag_12\n  jump\t// in\ntag_25:\n    /* \"#utility.yul\":696:839   */\n  swap3\n  swap2\n  pop\n  pop\n  jump\t// out\n    /* \"#utility.yul\":845:1352   */\ntag_3:\n    /* \"#utility.yul\":924:930   */\n  0x00\n    /* \"#utility.yul\":932:938   */\n  0x00\n    /* \"#utility.yul\":981:983   */\n  0x40\n    /* \"#utility.yul\":969:978   */\n  dup4\n    /* \"#utility.yul\":960:967   */\n  dup6\n    /* \"#utility.yul\":956:979   */\n  sub\n    /* \"#utility.yul\":952:984   */\n  slt\n    /* \"#utility.yul\":949:1068   */\n  iszero\n  tag_27\n  jumpi\n    /* \"#utility.yul\":987:1066   */\n  tag_28\n  tag_8\n  jump\t// in\ntag_28:\n    /* \"#utility.yul\":949:1068   */\ntag_27:\n    /* \"#utility.yul\":1107:1108   */\n  0x00\n    /* \"#utility.yul\":1132:1196   */\n  tag_29\n    /* \"#utility.yul\":1188:1195   */\n  dup6\n    /* \"#utility.yul\":1179:1185   */\n  dup3\n    /* \"#utility.yul\":1168:1177   */\n  dup7\n    /* \"#utility.yul\":1164:1186   */\n  add\n    /* \"#utility.yul\":1132:1196   */\n  tag_13\n  jump\t// in\ntag_29:\n    /* \"#utility.yul\":1122:1196   */\n  swap3\n  pop\n    /* \"#utility.yul\":1078:1206   */\n  pop\n    /* \"#utility.yul\":1245:1247   */\n  0x20\n    /* \"#utility.yul\":1271:1335   */\n  tag_30\n    /* \"#utility.yul\":1327:1334   */\n  dup6\n    /* \"#utility.yul\":1318:1324   */\n  dup3\n    /* \"#utility.yul\":1307:1316   */\n  dup7\n    /* \"#utility.yul\":1303:1325   */\n  add\n    /* \"#utility.yul\":1271:1335   */\n  tag_13\n  jump\t// in\ntag_30:\n    /* \"#utility.yul\":1261:1335   */\n  swap2\n  pop\n    /* \"#utility.yul\":1216:1345   */\n  pop\n    /* \"#utility.yul\":845:1352   */\n  swap3\n  pop\n  swap3\n  swap1\n  pop\n  jump\t// out\n    /* \"contracts/StakeXFI.sol\":87:4521  contract StakeXFI {... */\ntag_6:\n  mload(0x80)\n  mload(0xa0)\n  codecopy(0x00, dataOffset(sub_0), dataSize(sub_0))\n  0x00\n  assignImmutable(\"0xc41c8390c0da0418b7667ee0df6c246c26c4be6c0618368dce5a916e8008b0db\")\n  0x00\n  assignImmutable(\"0x4393e7114eb674248a1480712950c28cb06e118e040859a2eafa3ca8a6dfbd69\")\n  return(0x00, dataSize(sub_0))\nstop\n\nsub_0: assembly {\n        /* \"contracts/StakeXFI.sol\":87:4521  contract StakeXFI {... */\n      mstore(0x40, 0x80)\n      callvalue\n      dup1\n      iszero\n      tag_1\n      jumpi\n      revert(0x00, 0x00)\n    tag_1:\n      pop\n      jumpi(tag_2, lt(calldatasize, 0x04))\n      shr(0xe0, calldataload(0x00))\n      dup1\n      0x7b0472f0\n      gt\n      tag_12\n      jumpi\n      dup1\n      0x7b0472f0\n      eq\n      tag_7\n      jumpi\n      dup1\n      0x9be2f4ed\n      eq\n      tag_8\n      jumpi\n      dup1\n      0xcfaaa266\n      eq\n      tag_9\n      jumpi\n      dup1\n      0xdede8ef6\n      eq\n      tag_10\n      jumpi\n      dup1\n      0xefbabd91\n      eq\n      tag_11\n      jumpi\n      jump(tag_2)\n    tag_12:\n      dup1\n      0x25d5971f\n      eq\n      tag_3\n      jumpi\n      dup1\n      0x4e71e0c8\n      eq\n      tag_4\n      jumpi\n      dup1\n      0x6d6e31f7\n      eq\n      tag_5\n      jumpi\n      dup1\n      0x74b28101\n      eq\n      tag_6\n      jumpi\n    tag_2:\n      revert(0x00, 0x00)\n        /* \"contracts/StakeXFI.sol\":2198:3071  function withdrawStake (uint256 _index) external  reentrancyGuard returns(bool) {... */\n    tag_3:\n      tag_13\n      0x04\n      dup1\n      calldatasize\n      sub\n      dup2\n      add\n      swap1\n      tag_14\n      swap2\n      swap1\n      tag_15\n      jump\t// in\n    tag_14:\n      tag_16\n      jump\t// in\n    tag_13:\n      mload(0x40)\n      tag_17\n      swap2\n      swap1\n      tag_18\n      jump\t// in\n    tag_17:\n      mload(0x40)\n      dup1\n      swap2\n      sub\n      swap1\n      return\n        /* \"contracts/StakeXFI.sol\":3931:4224  function claimOwnership() external onlyOwner {... */\n    tag_4:\n      tag_19\n      tag_20\n      jump\t// in\n    tag_19:\n      stop\n        /* \"contracts/StakeXFI.sol\":3081:3397  function getStakerInfo (uint8 _index) external view returns (Staking memory) {... */\n    tag_5:\n      tag_21\n      0x04\n      dup1\n      calldatasize\n      sub\n      dup2\n      add\n      swap1\n      tag_22\n      swap2\n      swap1\n      tag_23\n      jump\t// in\n    tag_22:\n      tag_24\n      jump\t// in\n    tag_21:\n      mload(0x40)\n      tag_25\n      swap2\n      swap1\n      tag_26\n      jump\t// in\n    tag_25:\n      mload(0x40)\n      dup1\n      swap2\n      sub\n      swap1\n      return\n        /* \"contracts/StakeXFI.sol\":112:137  IERC20 public XFIContract */\n    tag_6:\n      tag_27\n      tag_28\n      jump\t// in\n    tag_27:\n      mload(0x40)\n      tag_29\n      swap2\n      swap1\n      tag_30\n      jump\t// in\n    tag_29:\n      mload(0x40)\n      dup1\n      swap2\n      sub\n      swap1\n      return\n        /* \"contracts/StakeXFI.sol\":1350:2188  function stake (uint256 _amount, uint256 _duration) external  reentrancyGuard {... */\n    tag_7:\n      tag_31\n      0x04\n      dup1\n      calldatasize\n      sub\n      dup2\n      add\n      swap1\n      tag_32\n      swap2\n      swap1\n      tag_33\n      jump\t// in\n    tag_32:\n      tag_34\n      jump\t// in\n    tag_31:\n      stop\n        /* \"contracts/StakeXFI.sol\":144:169  IERC20 public MPXContract */\n    tag_8:\n      tag_35\n      tag_36\n      jump\t// in\n    tag_35:\n      mload(0x40)\n      tag_37\n      swap2\n      swap1\n      tag_30\n      jump\t// in\n    tag_37:\n      mload(0x40)\n      dup1\n      swap2\n      sub\n      swap1\n      return\n        /* \"contracts/StakeXFI.sol\":3757:3925  function TransferOwnership(address _newOwner) external onlyOwner {... */\n    tag_9:\n      tag_38\n      0x04\n      dup1\n      calldatasize\n      sub\n      dup2\n      add\n      swap1\n      tag_39\n      swap2\n      swap1\n      tag_40\n      jump\t// in\n    tag_39:\n      tag_41\n      jump\t// in\n    tag_38:\n      stop\n        /* \"contracts/StakeXFI.sol\":3405:3573  function getContractXFIBalance () external onlyOwner view returns (uint256) {... */\n    tag_10:\n      tag_42\n      tag_43\n      jump\t// in\n    tag_42:\n      mload(0x40)\n      tag_44\n      swap2\n      swap1\n      tag_45\n      jump\t// in\n    tag_44:\n      mload(0x40)\n      dup1\n      swap2\n      sub\n      swap1\n      return\n        /* \"contracts/StakeXFI.sol\":3581:3749  function getContractMPXBalance () external onlyOwner view returns (uint256) {... */\n    tag_11:\n      tag_46\n      tag_47\n      jump\t// in\n    tag_46:\n      mload(0x40)\n      tag_48\n      swap2\n      swap1\n      tag_45\n      jump\t// in\n    tag_48:\n      mload(0x40)\n      dup1\n      swap2\n      sub\n      swap1\n      return\n        /* \"contracts/StakeXFI.sol\":2198:3071  function withdrawStake (uint256 _index) external  reentrancyGuard returns(bool) {... */\n    tag_16:\n        /* \"contracts/StakeXFI.sol\":2272:2276  bool */\n      0x00\n        /* \"contracts/StakeXFI.sol\":1125:1131  locked */\n      0x03\n      0x14\n      swap1\n      sload\n      swap1\n      0x0100\n      exp\n      swap1\n      div\n      0xff\n      and\n        /* \"contracts/StakeXFI.sol\":1124:1131  !locked */\n      iszero\n        /* \"contracts/StakeXFI.sol\":1116:1159  require(!locked, \"Not allowed to re-enter\") */\n      tag_50\n      jumpi\n      mload(0x40)\n      0x08c379a000000000000000000000000000000000000000000000000000000000\n      dup2\n      mstore\n      0x04\n      add\n      tag_51\n      swap1\n      tag_52\n      jump\t// in\n    tag_51:\n      mload(0x40)\n      dup1\n      swap2\n      sub\n      swap1\n      revert\n    tag_50:\n        /* \"contracts/StakeXFI.sol\":1181:1185  true */\n      0x01\n        /* \"contracts/StakeXFI.sol\":1172:1178  locked */\n      0x03\n      0x14\n        /* \"contracts/StakeXFI.sol\":1172:1185  locked = true */\n      0x0100\n      exp\n      dup2\n      sload\n      dup2\n      0xff\n      mul\n      not\n      and\n      swap1\n      dup4\n      iszero\n      iszero\n      mul\n      or\n      swap1\n      sstore\n      pop\n        /* \"contracts/StakeXFI.sol\":2319:2320  0 */\n      0x00\n        /* \"contracts/StakeXFI.sol\":2297:2321  msg.sender != address(0) */\n      0xffffffffffffffffffffffffffffffffffffffff\n      and\n        /* \"contracts/StakeXFI.sol\":2297:2307  msg.sender */\n      caller\n        /* \"contracts/StakeXFI.sol\":2297:2321  msg.sender != address(0) */\n      0xffffffffffffffffffffffffffffffffffffffff\n      and\n      sub\n        /* \"contracts/StakeXFI.sol\":2289:2342  require(msg.sender != address(0), \"Zero not allowed\") */\n      tag_54\n      jumpi\n      mload(0x40)\n      0x08c379a000000000000000000000000000000000000000000000000000000000\n      dup2\n      mstore\n      0x04\n      add\n      tag_55\n      swap1\n      tag_56\n      jump\t// in\n    tag_55:\n      mload(0x40)\n      dup1\n      swap2\n      sub\n      swap1\n      revert\n    tag_54:\n        /* \"contracts/StakeXFI.sol\":2372:2379  stakers */\n      0x04\n        /* \"contracts/StakeXFI.sol\":2372:2391  stakers[msg.sender] */\n      0x00\n        /* \"contracts/StakeXFI.sol\":2380:2390  msg.sender */\n      caller\n        /* \"contracts/StakeXFI.sol\":2372:2391  stakers[msg.sender] */\n      0xffffffffffffffffffffffffffffffffffffffff\n      and\n      0xffffffffffffffffffffffffffffffffffffffff\n      and\n      dup2\n      mstore\n      0x20\n      add\n      swap1\n      dup2\n      mstore\n      0x20\n      add\n      0x00\n      keccak256\n        /* \"contracts/StakeXFI.sol\":2372:2398  stakers[msg.sender].length */\n      dup1\n      sload\n      swap1\n      pop\n        /* \"contracts/StakeXFI.sol\":2363:2369  _index */\n      dup3\n        /* \"contracts/StakeXFI.sol\":2363:2398  _index < stakers[msg.sender].length */\n      lt\n        /* \"contracts/StakeXFI.sol\":2355:2415  require(_index < stakers[msg.sender].length, \"Out of range\") */\n      tag_57\n      jumpi\n      mload(0x40)\n      0x08c379a000000000000000000000000000000000000000000000000000000000\n      dup2\n      mstore\n      0x04\n      add\n      tag_58\n      swap1\n      tag_59\n      jump\t// in\n    tag_58:\n      mload(0x40)\n      dup1\n      swap2\n      sub\n      swap1\n      revert\n    tag_57:\n        /* \"contracts/StakeXFI.sol\":2428:2451  Staking storage staking */\n      0x00\n        /* \"contracts/StakeXFI.sol\":2454:2461  stakers */\n      0x04\n        /* \"contracts/StakeXFI.sol\":2454:2473  stakers[msg.sender] */\n      0x00\n        /* \"contracts/StakeXFI.sol\":2462:2472  msg.sender */\n      caller\n        /* \"contracts/StakeXFI.sol\":2454:2473  stakers[msg.sender] */\n      0xffffffffffffffffffffffffffffffffffffffff\n      and\n      0xffffffffffffffffffffffffffffffffffffffff\n      and\n      dup2\n      mstore\n      0x20\n      add\n      swap1\n      dup2\n      mstore\n      0x20\n      add\n      0x00\n      keccak256\n        /* \"contracts/StakeXFI.sol\":2474:2480  _index */\n      dup4\n        /* \"contracts/StakeXFI.sol\":2454:2481  stakers[msg.sender][_index] */\n      dup2\n      sload\n      dup2\n      lt\n      tag_60\n      jumpi\n      tag_61\n      tag_62\n      jump\t// in\n    tag_61:\n    tag_60:\n      swap1\n      0x00\n      mstore\n      keccak256(0x00, 0x20)\n      swap1\n      0x04\n      mul\n      add\n        /* \"contracts/StakeXFI.sol\":2428:2481  Staking storage staking = stakers[msg.sender][_index] */\n      swap1\n      pop\n        /* \"contracts/StakeXFI.sol\":2520:2527  staking */\n      dup1\n        /* \"contracts/StakeXFI.sol\":2520:2536  staking.duration */\n      0x02\n      add\n      sload\n        /* \"contracts/StakeXFI.sol\":2502:2517  block.timestamp */\n      timestamp\n        /* \"contracts/StakeXFI.sol\":2502:2536  block.timestamp > staking.duration */\n      gt\n        /* \"contracts/StakeXFI.sol\":2494:2553  require(block.timestamp > staking.duration, \"Not yet time\") */\n      tag_64\n      jumpi\n      mload(0x40)\n      0x08c379a000000000000000000000000000000000000000000000000000000000\n      dup2\n      mstore\n      0x04\n      add\n      tag_65\n      swap1\n      tag_66\n      jump\t// in\n    tag_65:\n      mload(0x40)\n      dup1\n      swap2\n      sub\n      swap1\n      revert\n    tag_64:\n        /* \"contracts/StakeXFI.sol\":2566:2587  uint256 amountStaked_ */\n      0x00\n        /* \"contracts/StakeXFI.sol\":2590:2597  staking */\n      dup2\n        /* \"contracts/StakeXFI.sol\":2590:2604  staking.amount */\n      0x00\n      add\n      sload\n        /* \"contracts/StakeXFI.sol\":2566:2604  uint256 amountStaked_ = staking.amount */\n      swap1\n      pop\n        /* \"contracts/StakeXFI.sol\":2615:2636  uint256 rewardAmount_ */\n      0x00\n        /* \"contracts/StakeXFI.sol\":2639:2705  calculateReward(block.timestamp, staking.duration, staking.amount) */\n      tag_67\n        /* \"contracts/StakeXFI.sol\":2655:2670  block.timestamp */\n      timestamp\n        /* \"contracts/StakeXFI.sol\":2672:2679  staking */\n      dup5\n        /* \"contracts/StakeXFI.sol\":2672:2688  staking.duration */\n      0x02\n      add\n      sload\n        /* \"contracts/StakeXFI.sol\":2690:2697  staking */\n      dup6\n        /* \"contracts/StakeXFI.sol\":2690:2704  staking.amount */\n      0x00\n      add\n      sload\n        /* \"contracts/StakeXFI.sol\":2639:2654  calculateReward */\n      tag_68\n        /* \"contracts/StakeXFI.sol\":2639:2705  calculateReward(block.timestamp, staking.duration, staking.amount) */\n      jump\t// in\n    tag_67:\n        /* \"contracts/StakeXFI.sol\":2615:2705  uint256 rewardAmount_ = calculateReward(block.timestamp, staking.duration, staking.amount) */\n      swap1\n      pop\n        /* \"contracts/StakeXFI.sol\":2743:2747  true */\n      0x01\n        /* \"contracts/StakeXFI.sol\":2720:2727  staking */\n      dup4\n        /* \"contracts/StakeXFI.sol\":2720:2740  staking.hasWithdrawn */\n      0x03\n      add\n      0x00\n        /* \"contracts/StakeXFI.sol\":2720:2747  staking.hasWithdrawn = true */\n      0x0100\n      exp\n      dup2\n      sload\n      dup2\n      0xff\n      mul\n      not\n      and\n      swap1\n      dup4\n      iszero\n      iszero\n      mul\n      or\n      swap1\n      sstore\n      pop\n        /* \"contracts/StakeXFI.sol\":2775:2776  0 */\n      0x00\n        /* \"contracts/StakeXFI.sol\":2758:2765  staking */\n      dup4\n        /* \"contracts/StakeXFI.sol\":2758:2772  staking.amount */\n      0x00\n      add\n        /* \"contracts/StakeXFI.sol\":2758:2776  staking.amount = 0 */\n      dup2\n      swap1\n      sstore\n      pop\n        /* \"contracts/StakeXFI.sol\":2807:2808  0 */\n      0x00\n        /* \"contracts/StakeXFI.sol\":2787:2794  staking */\n      dup4\n        /* \"contracts/StakeXFI.sol\":2787:2804  staking.startTime */\n      0x01\n      add\n        /* \"contracts/StakeXFI.sol\":2787:2808  staking.startTime = 0 */\n      dup2\n      swap1\n      sstore\n      pop\n        /* \"contracts/StakeXFI.sol\":2838:2839  0 */\n      0x00\n        /* \"contracts/StakeXFI.sol\":2819:2826  staking */\n      dup4\n        /* \"contracts/StakeXFI.sol\":2819:2835  staking.duration */\n      0x02\n      add\n        /* \"contracts/StakeXFI.sol\":2819:2839  staking.duration = 0 */\n      dup2\n      swap1\n      sstore\n      pop\n        /* \"contracts/StakeXFI.sol\":2854:2865  XFIContract */\n      0x00\n      0x00\n      swap1\n      sload\n      swap1\n      0x0100\n      exp\n      swap1\n      div\n      0xffffffffffffffffffffffffffffffffffffffff\n      and\n        /* \"contracts/StakeXFI.sol\":2854:2874  XFIContract.transfer */\n      0xffffffffffffffffffffffffffffffffffffffff\n      and\n      0xa9059cbb\n        /* \"contracts/StakeXFI.sol\":2875:2885  msg.sender */\n      caller\n        /* \"contracts/StakeXFI.sol\":2887:2900  amountStaked_ */\n      dup5\n        /* \"contracts/StakeXFI.sol\":2854:2901  XFIContract.transfer(msg.sender, amountStaked_) */\n      mload(0x40)\n      dup4\n      0xffffffff\n      and\n      0xe0\n      shl\n      dup2\n      mstore\n      0x04\n      add\n      tag_69\n      swap3\n      swap2\n      swap1\n      tag_70\n      jump\t// in\n    tag_69:\n      0x20\n      mload(0x40)\n      dup1\n      dup4\n      sub\n      dup2\n      0x00\n      dup8\n      gas\n      call\n      iszero\n      dup1\n      iszero\n      tag_72\n      jumpi\n      returndatacopy(0x00, 0x00, returndatasize)\n      revert(0x00, returndatasize)\n    tag_72:\n      pop\n      pop\n      pop\n      pop\n      mload(0x40)\n      returndatasize\n      not(0x1f)\n      0x1f\n      dup3\n      add\n      and\n      dup3\n      add\n      dup1\n      0x40\n      mstore\n      pop\n      dup2\n      add\n      swap1\n      tag_73\n      swap2\n      swap1\n      tag_74\n      jump\t// in\n    tag_73:\n      pop\n        /* \"contracts/StakeXFI.sol\":2912:2923  MPXContract */\n      0x01\n      0x00\n      swap1\n      sload\n      swap1\n      0x0100\n      exp\n      swap1\n      div\n      0xffffffffffffffffffffffffffffffffffffffff\n      and\n        /* \"contracts/StakeXFI.sol\":2912:2932  MPXContract.transfer */\n      0xffffffffffffffffffffffffffffffffffffffff\n      and\n      0xa9059cbb\n        /* \"contracts/StakeXFI.sol\":2933:2943  msg.sender */\n      caller\n        /* \"contracts/StakeXFI.sol\":2945:2958  rewardAmount_ */\n      dup4\n        /* \"contracts/StakeXFI.sol\":2912:2959  MPXContract.transfer(msg.sender, rewardAmount_) */\n      mload(0x40)\n      dup4\n      0xffffffff\n      and\n      0xe0\n      shl\n      dup2\n      mstore\n      0x04\n      add\n      tag_75\n      swap3\n      swap2\n      swap1\n      tag_70\n      jump\t// in\n    tag_75:\n      0x20\n      mload(0x40)\n      dup1\n      dup4\n      sub\n      dup2\n      0x00\n      dup8\n      gas\n      call\n      iszero\n      dup1\n      iszero\n      tag_77\n      jumpi\n      returndatacopy(0x00, 0x00, returndatasize)\n      revert(0x00, returndatasize)\n    tag_77:\n      pop\n      pop\n      pop\n      pop\n      mload(0x40)\n      returndatasize\n      not(0x1f)\n      0x1f\n      dup3\n      add\n      and\n      dup3\n      add\n      dup1\n      0x40\n      mstore\n      pop\n      dup2\n      add\n      swap1\n      tag_78\n      swap2\n      swap1\n      tag_74\n      jump\t// in\n    tag_78:\n      pop\n        /* \"contracts/StakeXFI.sol\":3025:3038  rewardAmount_ */\n      dup1\n        /* \"contracts/StakeXFI.sol\":2998:3008  msg.sender */\n      caller\n        /* \"contracts/StakeXFI.sol\":2977:3039  WithdrawalSuccessful(msg.sender, amountStaked_, rewardAmount_) */\n      0xffffffffffffffffffffffffffffffffffffffff\n      and\n      0xfb59733a8f0bd43414922fb86c6ffdd090e44935074086318980ca89221acc56\n        /* \"contracts/StakeXFI.sol\":3010:3023  amountStaked_ */\n      dup5\n        /* \"contracts/StakeXFI.sol\":2977:3039  WithdrawalSuccessful(msg.sender, amountStaked_, rewardAmount_) */\n      mload(0x40)\n      tag_79\n      swap2\n      swap1\n      tag_45\n      jump\t// in\n    tag_79:\n      mload(0x40)\n      dup1\n      swap2\n      sub\n      swap1\n      log3\n        /* \"contracts/StakeXFI.sol\":3059:3063  true */\n      0x01\n        /* \"contracts/StakeXFI.sol\":3052:3063  return true */\n      swap4\n      pop\n      pop\n      pop\n      pop\n        /* \"contracts/StakeXFI.sol\":1217:1222  false */\n      0x00\n        /* \"contracts/StakeXFI.sol\":1208:1214  locked */\n      0x03\n      0x14\n        /* \"contracts/StakeXFI.sol\":1208:1222  locked = false */\n      0x0100\n      exp\n      dup2\n      sload\n      dup2\n      0xff\n      mul\n      not\n      and\n      swap1\n      dup4\n      iszero\n      iszero\n      mul\n      or\n      swap1\n      sstore\n      pop\n        /* \"contracts/StakeXFI.sol\":2198:3071  function withdrawStake (uint256 _index) external  reentrancyGuard returns(bool) {... */\n      swap2\n      swap1\n      pop\n      jump\t// out\n        /* \"contracts/StakeXFI.sol\":3931:4224  function claimOwnership() external onlyOwner {... */\n    tag_20:\n        /* \"contracts/StakeXFI.sol\":1289:1294  owner */\n      0x02\n      0x00\n      swap1\n      sload\n      swap1\n      0x0100\n      exp\n      swap1\n      div\n      0xffffffffffffffffffffffffffffffffffffffff\n      and\n        /* \"contracts/StakeXFI.sol\":1275:1294  msg.sender == owner */\n      0xffffffffffffffffffffffffffffffffffffffff\n      and\n        /* \"contracts/StakeXFI.sol\":1275:1285  msg.sender */\n      caller\n        /* \"contracts/StakeXFI.sol\":1275:1294  msg.sender == owner */\n      0xffffffffffffffffffffffffffffffffffffffff\n      and\n      eq\n        /* \"contracts/StakeXFI.sol\":1267:1320  require(msg.sender == owner, \"Only owner can access\") */\n      tag_81\n      jumpi\n      mload(0x40)\n      0x08c379a000000000000000000000000000000000000000000000000000000000\n      dup2\n      mstore\n      0x04\n      add\n      tag_82\n      swap1\n      tag_83\n      jump\t// in\n    tag_82:\n      mload(0x40)\n      dup1\n      swap2\n      sub\n      swap1\n      revert\n    tag_81:\n        /* \"contracts/StakeXFI.sol\":4017:4018  0 */\n      0x00\n        /* \"contracts/StakeXFI.sol\":3995:4019  msg.sender != address(0) */\n      0xffffffffffffffffffffffffffffffffffffffff\n      and\n        /* \"contracts/StakeXFI.sol\":3995:4005  msg.sender */\n      caller\n        /* \"contracts/StakeXFI.sol\":3995:4019  msg.sender != address(0) */\n      0xffffffffffffffffffffffffffffffffffffffff\n      and\n      sub\n        /* \"contracts/StakeXFI.sol\":3987:4041  require(msg.sender != address(0), \"Zero not allowed\" ) */\n      tag_85\n      jumpi\n      mload(0x40)\n      0x08c379a000000000000000000000000000000000000000000000000000000000\n      dup2\n      mstore\n      0x04\n      add\n      tag_86\n      swap1\n      tag_56\n      jump\t// in\n    tag_86:\n      mload(0x40)\n      dup1\n      swap2\n      sub\n      swap1\n      revert\n    tag_85:\n        /* \"contracts/StakeXFI.sol\":4075:4083  newOwner */\n      0x03\n      0x00\n      swap1\n      sload\n      swap1\n      0x0100\n      exp\n      swap1\n      div\n      0xffffffffffffffffffffffffffffffffffffffff\n      and\n        /* \"contracts/StakeXFI.sol\":4061:4083  msg.sender == newOwner */\n      0xffffffffffffffffffffffffffffffffffffffff\n      and\n        /* \"contracts/StakeXFI.sol\":4061:4071  msg.sender */\n      caller\n        /* \"contracts/StakeXFI.sol\":4061:4083  msg.sender == newOwner */\n      0xffffffffffffffffffffffffffffffffffffffff\n      and\n      eq\n        /* \"contracts/StakeXFI.sol\":4052:4101  require (msg.sender == newOwner, \"Not your turn\") */\n      tag_87\n      jumpi\n      mload(0x40)\n      0x08c379a000000000000000000000000000000000000000000000000000000000\n      dup2\n      mstore\n      0x04\n      add\n      tag_88\n      swap1\n      tag_89\n      jump\t// in\n    tag_88:\n      mload(0x40)\n      dup1\n      swap2\n      sub\n      swap1\n      revert\n    tag_87:\n        /* \"contracts/StakeXFI.sol\":4139:4144  owner */\n      0x02\n      0x00\n      swap1\n      sload\n      swap1\n      0x0100\n      exp\n      swap1\n      div\n      0xffffffffffffffffffffffffffffffffffffffff\n      and\n        /* \"contracts/StakeXFI.sol\":4119:4155  OwnershipTransfered(owner, newOwner) */\n      0xffffffffffffffffffffffffffffffffffffffff\n      and\n      0x0d18b5fd22306e373229b9439188228edca81207d1667f604daf6cef8aa3ee67\n        /* \"contracts/StakeXFI.sol\":4146:4154  newOwner */\n      0x03\n      0x00\n      swap1\n      sload\n      swap1\n      0x0100\n      exp\n      swap1\n      div\n      0xffffffffffffffffffffffffffffffffffffffff\n      and\n        /* \"contracts/StakeXFI.sol\":4119:4155  OwnershipTransfered(owner, newOwner) */\n      mload(0x40)\n      tag_90\n      swap2\n      swap1\n      tag_91\n      jump\t// in\n    tag_90:\n      mload(0x40)\n      dup1\n      swap2\n      sub\n      swap1\n      log2\n        /* \"contracts/StakeXFI.sol\":4176:4184  newOwner */\n      0x03\n      0x00\n      swap1\n      sload\n      swap1\n      0x0100\n      exp\n      swap1\n      div\n      0xffffffffffffffffffffffffffffffffffffffff\n      and\n        /* \"contracts/StakeXFI.sol\":4168:4173  owner */\n      0x02\n      0x00\n        /* \"contracts/StakeXFI.sol\":4168:4184  owner = newOwner */\n      0x0100\n      exp\n      dup2\n      sload\n      dup2\n      0xffffffffffffffffffffffffffffffffffffffff\n      mul\n      not\n      and\n      swap1\n      dup4\n      0xffffffffffffffffffffffffffffffffffffffff\n      and\n      mul\n      or\n      swap1\n      sstore\n      pop\n        /* \"contracts/StakeXFI.sol\":4214:4215  0 */\n      0x00\n        /* \"contracts/StakeXFI.sol\":4195:4203  newOwner */\n      0x03\n      0x00\n        /* \"contracts/StakeXFI.sol\":4195:4216  newOwner = address(0) */\n      0x0100\n      exp\n      dup2\n      sload\n      dup2\n      0xffffffffffffffffffffffffffffffffffffffff\n      mul\n      not\n      and\n      swap1\n      dup4\n      0xffffffffffffffffffffffffffffffffffffffff\n      and\n      mul\n      or\n      swap1\n      sstore\n      pop\n        /* \"contracts/StakeXFI.sol\":3931:4224  function claimOwnership() external onlyOwner {... */\n      jump\t// out\n        /* \"contracts/StakeXFI.sol\":3081:3397  function getStakerInfo (uint8 _index) external view returns (Staking memory) {... */\n    tag_24:\n        /* \"contracts/StakeXFI.sol\":3142:3156  Staking memory */\n      tag_92\n      tag_93\n      jump\t// in\n    tag_92:\n        /* \"contracts/StakeXFI.sol\":3200:3201  0 */\n      0x00\n        /* \"contracts/StakeXFI.sol\":3178:3202  msg.sender != address(0) */\n      0xffffffffffffffffffffffffffffffffffffffff\n      and\n        /* \"contracts/StakeXFI.sol\":3178:3188  msg.sender */\n      caller\n        /* \"contracts/StakeXFI.sol\":3178:3202  msg.sender != address(0) */\n      0xffffffffffffffffffffffffffffffffffffffff\n      and\n      sub\n        /* \"contracts/StakeXFI.sol\":3170:3223  require(msg.sender != address(0), \"Zero not allowed\") */\n      tag_95\n      jumpi\n      mload(0x40)\n      0x08c379a000000000000000000000000000000000000000000000000000000000\n      dup2\n      mstore\n      0x04\n      add\n      tag_96\n      swap1\n      tag_56\n      jump\t// in\n    tag_96:\n      mload(0x40)\n      dup1\n      swap2\n      sub\n      swap1\n      revert\n    tag_95:\n        /* \"contracts/StakeXFI.sol\":3253:3260  stakers */\n      0x04\n        /* \"contracts/StakeXFI.sol\":3253:3272  stakers[msg.sender] */\n      0x00\n        /* \"contracts/StakeXFI.sol\":3261:3271  msg.sender */\n      caller\n        /* \"contracts/StakeXFI.sol\":3253:3272  stakers[msg.sender] */\n      0xffffffffffffffffffffffffffffffffffffffff\n      and\n      0xffffffffffffffffffffffffffffffffffffffff\n      and\n      dup2\n      mstore\n      0x20\n      add\n      swap1\n      dup2\n      mstore\n      0x20\n      add\n      0x00\n      keccak256\n        /* \"contracts/StakeXFI.sol\":3253:3279  stakers[msg.sender].length */\n      dup1\n      sload\n      swap1\n      pop\n        /* \"contracts/StakeXFI.sol\":3244:3250  _index */\n      dup3\n        /* \"contracts/StakeXFI.sol\":3244:3279  _index < stakers[msg.sender].length */\n      0xff\n      and\n      lt\n        /* \"contracts/StakeXFI.sol\":3236:3296  require(_index < stakers[msg.sender].length, \"Out of range\") */\n      tag_97\n      jumpi\n      mload(0x40)\n      0x08c379a000000000000000000000000000000000000000000000000000000000\n      dup2\n      mstore\n      0x04\n      add\n      tag_98\n      swap1\n      tag_59\n      jump\t// in\n    tag_98:\n      mload(0x40)\n      dup1\n      swap2\n      sub\n      swap1\n      revert\n    tag_97:\n        /* \"contracts/StakeXFI.sol\":3309:3332  Staking storage staking */\n      0x00\n        /* \"contracts/StakeXFI.sol\":3335:3342  stakers */\n      0x04\n        /* \"contracts/StakeXFI.sol\":3335:3354  stakers[msg.sender] */\n      0x00\n        /* \"contracts/StakeXFI.sol\":3343:3353  msg.sender */\n      caller\n        /* \"contracts/StakeXFI.sol\":3335:3354  stakers[msg.sender] */\n      0xffffffffffffffffffffffffffffffffffffffff\n      and\n      0xffffffffffffffffffffffffffffffffffffffff\n      and\n      dup2\n      mstore\n      0x20\n      add\n      swap1\n      dup2\n      mstore\n      0x20\n      add\n      0x00\n      keccak256\n        /* \"contracts/StakeXFI.sol\":3355:3361  _index */\n      dup4\n        /* \"contracts/StakeXFI.sol\":3335:3362  stakers[msg.sender][_index] */\n      0xff\n      and\n      dup2\n      sload\n      dup2\n      lt\n      tag_99\n      jumpi\n      tag_100\n      tag_62\n      jump\t// in\n    tag_100:\n    tag_99:\n      swap1\n      0x00\n      mstore\n      keccak256(0x00, 0x20)\n      swap1\n      0x04\n      mul\n      add\n        /* \"contracts/StakeXFI.sol\":3309:3362  Staking storage staking = stakers[msg.sender][_index] */\n      swap1\n      pop\n        /* \"contracts/StakeXFI.sol\":3382:3389  staking */\n      dup1\n        /* \"contracts/StakeXFI.sol\":3375:3389  return staking */\n      mload(0x40)\n      dup1\n      0x80\n      add\n      0x40\n      mstore\n      swap1\n      dup2\n      0x00\n      dup3\n      add\n      sload\n      dup2\n      mstore\n      0x20\n      add\n      0x01\n      dup3\n      add\n      sload\n      dup2\n      mstore\n      0x20\n      add\n      0x02\n      dup3\n      add\n      sload\n      dup2\n      mstore\n      0x20\n      add\n      0x03\n      dup3\n      add\n      0x00\n      swap1\n      sload\n      swap1\n      0x0100\n      exp\n      swap1\n      div\n      0xff\n      and\n      iszero\n      iszero\n      iszero\n      iszero\n      dup2\n      mstore\n      pop\n      pop\n      swap2\n      pop\n      pop\n        /* \"contracts/StakeXFI.sol\":3081:3397  function getStakerInfo (uint8 _index) external view returns (Staking memory) {... */\n      swap2\n      swap1\n      pop\n      jump\t// out\n        /* \"contracts/StakeXFI.sol\":112:137  IERC20 public XFIContract */\n    tag_28:\n      0x00\n      0x00\n      swap1\n      sload\n      swap1\n      0x0100\n      exp\n      swap1\n      div\n      0xffffffffffffffffffffffffffffffffffffffff\n      and\n      dup2\n      jump\t// out\n        /* \"contracts/StakeXFI.sol\":1350:2188  function stake (uint256 _amount, uint256 _duration) external  reentrancyGuard {... */\n    tag_34:\n        /* \"contracts/StakeXFI.sol\":1125:1131  locked */\n      0x03\n      0x14\n      swap1\n      sload\n      swap1\n      0x0100\n      exp\n      swap1\n      div\n      0xff\n      and\n        /* \"contracts/StakeXFI.sol\":1124:1131  !locked */\n      iszero\n        /* \"contracts/StakeXFI.sol\":1116:1159  require(!locked, \"Not allowed to re-enter\") */\n      tag_103\n      jumpi\n      mload(0x40)\n      0x08c379a000000000000000000000000000000000000000000000000000000000\n      dup2\n      mstore\n      0x04\n      add\n      tag_104\n      swap1\n      tag_52\n      jump\t// in\n    tag_104:\n      mload(0x40)\n      dup1\n      swap2\n      sub\n      swap1\n      revert\n    tag_103:\n        /* \"contracts/StakeXFI.sol\":1181:1185  true */\n      0x01\n        /* \"contracts/StakeXFI.sol\":1172:1178  locked */\n      0x03\n      0x14\n        /* \"contracts/StakeXFI.sol\":1172:1185  locked = true */\n      0x0100\n      exp\n      dup2\n      sload\n      dup2\n      0xff\n      mul\n      not\n      and\n      swap1\n      dup4\n      iszero\n      iszero\n      mul\n      or\n      swap1\n      sstore\n      pop\n        /* \"contracts/StakeXFI.sol\":1469:1470  0 */\n      0x00\n        /* \"contracts/StakeXFI.sol\":1447:1471  msg.sender != address(0) */\n      0xffffffffffffffffffffffffffffffffffffffff\n      and\n        /* \"contracts/StakeXFI.sol\":1447:1457  msg.sender */\n      caller\n        /* \"contracts/StakeXFI.sol\":1447:1471  msg.sender != address(0) */\n      0xffffffffffffffffffffffffffffffffffffffff\n      and\n      sub\n        /* \"contracts/StakeXFI.sol\":1439:1500  require(msg.sender != address(0), \"Zero address not allowed\") */\n      tag_106\n      jumpi\n      mload(0x40)\n      0x08c379a000000000000000000000000000000000000000000000000000000000\n      dup2\n      mstore\n      0x04\n      add\n      tag_107\n      swap1\n      tag_108\n      jump\t// in\n    tag_107:\n      mload(0x40)\n      dup1\n      swap2\n      sub\n      swap1\n      revert\n    tag_106:\n        /* \"contracts/StakeXFI.sol\":1532:1552  MINIMUM_STAKE_AMOUNT */\n      immutable(\"0x4393e7114eb674248a1480712950c28cb06e118e040859a2eafa3ca8a6dfbd69\")\n        /* \"contracts/StakeXFI.sol\":1521:1528  _amount */\n      dup3\n        /* \"contracts/StakeXFI.sol\":1521:1552  _amount >= MINIMUM_STAKE_AMOUNT */\n      lt\n      iszero\n        /* \"contracts/StakeXFI.sol\":1521:1587  _amount >= MINIMUM_STAKE_AMOUNT && _amount <= MAXIMUM_STAKE_AMOUNT */\n      dup1\n      iszero\n      tag_109\n      jumpi\n      pop\n        /* \"contracts/StakeXFI.sol\":1567:1587  MAXIMUM_STAKE_AMOUNT */\n      immutable(\"0xc41c8390c0da0418b7667ee0df6c246c26c4be6c0618368dce5a916e8008b0db\")\n        /* \"contracts/StakeXFI.sol\":1556:1563  _amount */\n      dup3\n        /* \"contracts/StakeXFI.sol\":1556:1587  _amount <= MAXIMUM_STAKE_AMOUNT */\n      gt\n      iszero\n        /* \"contracts/StakeXFI.sol\":1521:1587  _amount >= MINIMUM_STAKE_AMOUNT && _amount <= MAXIMUM_STAKE_AMOUNT */\n    tag_109:\n        /* \"contracts/StakeXFI.sol\":1513:1614  require(_amount >= MINIMUM_STAKE_AMOUNT && _amount <= MAXIMUM_STAKE_AMOUNT, \"Amount is out of range\") */\n      tag_110\n      jumpi\n      mload(0x40)\n      0x08c379a000000000000000000000000000000000000000000000000000000000\n      dup2\n      mstore\n      0x04\n      add\n      tag_111\n      swap1\n      tag_112\n      jump\t// in\n    tag_111:\n      mload(0x40)\n      dup1\n      swap2\n      sub\n      swap1\n      revert\n    tag_110:\n        /* \"contracts/StakeXFI.sol\":1655:1656  0 */\n      0x00\n        /* \"contracts/StakeXFI.sol\":1643:1652  _duration */\n      dup2\n        /* \"contracts/StakeXFI.sol\":1643:1656  _duration > 0 */\n      gt\n        /* \"contracts/StakeXFI.sol\":1635:1682  require(_duration > 0, \"Duration is too short\") */\n      tag_113\n      jumpi\n      mload(0x40)\n      0x08c379a000000000000000000000000000000000000000000000000000000000\n      dup2\n      mstore\n      0x04\n      add\n      tag_114\n      swap1\n      tag_115\n      jump\t// in\n    tag_114:\n      mload(0x40)\n      dup1\n      swap2\n      sub\n      swap1\n      revert\n    tag_113:\n        /* \"contracts/StakeXFI.sol\":1740:1747  _amount */\n      dup2\n        /* \"contracts/StakeXFI.sol\":1703:1714  XFIContract */\n      0x00\n      0x00\n      swap1\n      sload\n      swap1\n      0x0100\n      exp\n      swap1\n      div\n      0xffffffffffffffffffffffffffffffffffffffff\n      and\n        /* \"contracts/StakeXFI.sol\":1703:1724  XFIContract.balanceOf */\n      0xffffffffffffffffffffffffffffffffffffffff\n      and\n      0x70a08231\n        /* \"contracts/StakeXFI.sol\":1725:1735  msg.sender */\n      caller\n        /* \"contracts/StakeXFI.sol\":1703:1736  XFIContract.balanceOf(msg.sender) */\n      mload(0x40)\n      dup3\n      0xffffffff\n      and\n      0xe0\n      shl\n      dup2\n      mstore\n      0x04\n      add\n      tag_116\n      swap2\n      swap1\n      tag_91\n      jump\t// in\n    tag_116:\n      0x20\n      mload(0x40)\n      dup1\n      dup4\n      sub\n      dup2\n      dup7\n      gas\n      staticcall\n      iszero\n      dup1\n      iszero\n      tag_118\n      jumpi\n      returndatacopy(0x00, 0x00, returndatasize)\n      revert(0x00, returndatasize)\n    tag_118:\n      pop\n      pop\n      pop\n      pop\n      mload(0x40)\n      returndatasize\n      not(0x1f)\n      0x1f\n      dup3\n      add\n      and\n      dup3\n      add\n      dup1\n      0x40\n      mstore\n      pop\n      dup2\n      add\n      swap1\n      tag_119\n      swap2\n      swap1\n      tag_120\n      jump\t// in\n    tag_119:\n        /* \"contracts/StakeXFI.sol\":1703:1747  XFIContract.balanceOf(msg.sender) >= _amount */\n      lt\n      iszero\n        /* \"contracts/StakeXFI.sol\":1695:1773  require(XFIContract.balanceOf(msg.sender) >= _amount, \"You don't have enough\") */\n      tag_121\n      jumpi\n      mload(0x40)\n      0x08c379a000000000000000000000000000000000000000000000000000000000\n      dup2\n      mstore\n      0x04\n      add\n      tag_122\n      swap1\n      tag_123\n      jump\t// in\n    tag_122:\n      mload(0x40)\n      dup1\n      swap2\n      sub\n      swap1\n      revert\n    tag_121:\n        /* \"contracts/StakeXFI.sol\":1846:1853  _amount */\n      dup2\n        /* \"contracts/StakeXFI.sol\":1794:1805  XFIContract */\n      0x00\n      0x00\n      swap1\n      sload\n      swap1\n      0x0100\n      exp\n      swap1\n      div\n      0xffffffffffffffffffffffffffffffffffffffff\n      and\n        /* \"contracts/StakeXFI.sol\":1794:1815  XFIContract.allowance */\n      0xffffffffffffffffffffffffffffffffffffffff\n      and\n      0xdd62ed3e\n        /* \"contracts/StakeXFI.sol\":1816:1826  msg.sender */\n      caller\n        /* \"contracts/StakeXFI.sol\":1836:1840  this */\n      address\n        /* \"contracts/StakeXFI.sol\":1794:1842  XFIContract.allowance(msg.sender, address(this)) */\n      mload(0x40)\n      dup4\n      0xffffffff\n      and\n      0xe0\n      shl\n      dup2\n      mstore\n      0x04\n      add\n      tag_124\n      swap3\n      swap2\n      swap1\n      tag_125\n      jump\t// in\n    tag_124:\n      0x20\n      mload(0x40)\n      dup1\n      dup4\n      sub\n      dup2\n      dup7\n      gas\n      staticcall\n      iszero\n      dup1\n      iszero\n      tag_127\n      jumpi\n      returndatacopy(0x00, 0x00, returndatasize)\n      revert(0x00, returndatasize)\n    tag_127:\n      pop\n      pop\n      pop\n      pop\n      mload(0x40)\n      returndatasize\n      not(0x1f)\n      0x1f\n      dup3\n      add\n      and\n      dup3\n      add\n      dup1\n      0x40\n      mstore\n      pop\n      dup2\n      add\n      swap1\n      tag_128\n      swap2\n      swap1\n      tag_120\n      jump\t// in\n    tag_128:\n        /* \"contracts/StakeXFI.sol\":1794:1853  XFIContract.allowance(msg.sender, address(this)) >= _amount */\n      lt\n      iszero\n        /* \"contracts/StakeXFI.sol\":1786:1886  require(XFIContract.allowance(msg.sender, address(this)) >= _amount, \"Amount allowed is not enough\") */\n      tag_129\n      jumpi\n      mload(0x40)\n      0x08c379a000000000000000000000000000000000000000000000000000000000\n      dup2\n      mstore\n      0x04\n      add\n      tag_130\n      swap1\n      tag_131\n      jump\t// in\n    tag_130:\n      mload(0x40)\n      dup1\n      swap2\n      sub\n      swap1\n      revert\n    tag_129:\n        /* \"contracts/StakeXFI.sol\":1899:1910  XFIContract */\n      0x00\n      0x00\n      swap1\n      sload\n      swap1\n      0x0100\n      exp\n      swap1\n      div\n      0xffffffffffffffffffffffffffffffffffffffff\n      and\n        /* \"contracts/StakeXFI.sol\":1899:1923  XFIContract.transferFrom */\n      0xffffffffffffffffffffffffffffffffffffffff\n      and\n      0x23b872dd\n        /* \"contracts/StakeXFI.sol\":1924:1934  msg.sender */\n      caller\n        /* \"contracts/StakeXFI.sol\":1944:1948  this */\n      address\n        /* \"contracts/StakeXFI.sol\":1951:1958  _amount */\n      dup6\n        /* \"contracts/StakeXFI.sol\":1899:1959  XFIContract.transferFrom(msg.sender, address(this), _amount) */\n      mload(0x40)\n      dup5\n      0xffffffff\n      and\n      0xe0\n      shl\n      dup2\n      mstore\n      0x04\n      add\n      tag_132\n      swap4\n      swap3\n      swap2\n      swap1\n      tag_133\n      jump\t// in\n    tag_132:\n      0x20\n      mload(0x40)\n      dup1\n      dup4\n      sub\n      dup2\n      0x00\n      dup8\n      gas\n      call\n      iszero\n      dup1\n      iszero\n      tag_135\n      jumpi\n      returndatacopy(0x00, 0x00, returndatasize)\n      revert(0x00, returndatasize)\n    tag_135:\n      pop\n      pop\n      pop\n      pop\n      mload(0x40)\n      returndatasize\n      not(0x1f)\n      0x1f\n      dup3\n      add\n      and\n      dup3\n      add\n      dup1\n      0x40\n      mstore\n      pop\n      dup2\n      add\n      swap1\n      tag_136\n      swap2\n      swap1\n      tag_74\n      jump\t// in\n    tag_136:\n      pop\n        /* \"contracts/StakeXFI.sol\":1972:1994  Staking memory staking */\n      tag_137\n      tag_93\n      jump\t// in\n    tag_137:\n        /* \"contracts/StakeXFI.sol\":2024:2031  _amount */\n      dup3\n        /* \"contracts/StakeXFI.sol\":2007:2014  staking */\n      dup2\n        /* \"contracts/StakeXFI.sol\":2007:2021  staking.amount */\n      0x00\n      add\n        /* \"contracts/StakeXFI.sol\":2007:2031  staking.amount = _amount */\n      dup2\n      dup2\n      mstore\n      pop\n      pop\n        /* \"contracts/StakeXFI.sol\":2079:2088  _duration */\n      dup2\n        /* \"contracts/StakeXFI.sol\":2061:2076  block.timestamp */\n      timestamp\n        /* \"contracts/StakeXFI.sol\":2061:2088  block.timestamp + _duration */\n      tag_138\n      swap2\n      swap1\n      tag_139\n      jump\t// in\n    tag_138:\n        /* \"contracts/StakeXFI.sol\":2042:2049  staking */\n      dup2\n        /* \"contracts/StakeXFI.sol\":2042:2058  staking.duration */\n      0x40\n      add\n        /* \"contracts/StakeXFI.sol\":2042:2088  staking.duration = block.timestamp + _duration */\n      dup2\n      dup2\n      mstore\n      pop\n      pop\n        /* \"contracts/StakeXFI.sol\":2119:2134  block.timestamp */\n      timestamp\n        /* \"contracts/StakeXFI.sol\":2099:2106  staking */\n      dup2\n        /* \"contracts/StakeXFI.sol\":2099:2116  staking.startTime */\n      0x20\n      add\n        /* \"contracts/StakeXFI.sol\":2099:2134  staking.startTime = block.timestamp */\n      dup2\n      dup2\n      mstore\n      pop\n      pop\n        /* \"contracts/StakeXFI.sol\":2147:2154  stakers */\n      0x04\n        /* \"contracts/StakeXFI.sol\":2147:2166  stakers[msg.sender] */\n      0x00\n        /* \"contracts/StakeXFI.sol\":2155:2165  msg.sender */\n      caller\n        /* \"contracts/StakeXFI.sol\":2147:2166  stakers[msg.sender] */\n      0xffffffffffffffffffffffffffffffffffffffff\n      and\n      0xffffffffffffffffffffffffffffffffffffffff\n      and\n      dup2\n      mstore\n      0x20\n      add\n      swap1\n      dup2\n      mstore\n      0x20\n      add\n      0x00\n      keccak256\n        /* \"contracts/StakeXFI.sol\":2172:2179  staking */\n      dup2\n        /* \"contracts/StakeXFI.sol\":2147:2180  stakers[msg.sender].push(staking) */\n      swap1\n      dup1\n      0x01\n      dup2\n      sload\n      add\n      dup1\n      dup3\n      sstore\n      dup1\n      swap2\n      pop\n      pop\n      0x01\n      swap1\n      sub\n      swap1\n      0x00\n      mstore\n      keccak256(0x00, 0x20)\n      swap1\n      0x04\n      mul\n      add\n      0x00\n      swap1\n      swap2\n      swap1\n      swap2\n      swap1\n      swap2\n      pop\n      0x00\n      dup3\n      add\n      mload\n      dup2\n      0x00\n      add\n      sstore\n      0x20\n      dup3\n      add\n      mload\n      dup2\n      0x01\n      add\n      sstore\n      0x40\n      dup3\n      add\n      mload\n      dup2\n      0x02\n      add\n      sstore\n      0x60\n      dup3\n      add\n      mload\n      dup2\n      0x03\n      add\n      exp(0x0100, 0x00)\n      dup2\n      sload\n      dup2\n      0xff\n      mul\n      not\n      and\n      swap1\n      dup4\n      iszero\n      iszero\n      mul\n      or\n      swap1\n      sstore\n      pop\n      pop\n      pop\n        /* \"contracts/StakeXFI.sol\":1428:2188  {... */\n      pop\n        /* \"contracts/StakeXFI.sol\":1217:1222  false */\n      0x00\n        /* \"contracts/StakeXFI.sol\":1208:1214  locked */\n      0x03\n      0x14\n        /* \"contracts/StakeXFI.sol\":1208:1222  locked = false */\n      0x0100\n      exp\n      dup2\n      sload\n      dup2\n      0xff\n      mul\n      not\n      and\n      swap1\n      dup4\n      iszero\n      iszero\n      mul\n      or\n      swap1\n      sstore\n      pop\n        /* \"contracts/StakeXFI.sol\":1350:2188  function stake (uint256 _amount, uint256 _duration) external  reentrancyGuard {... */\n      pop\n      pop\n      jump\t// out\n        /* \"contracts/StakeXFI.sol\":144:169  IERC20 public MPXContract */\n    tag_36:\n      0x01\n      0x00\n      swap1\n      sload\n      swap1\n      0x0100\n      exp\n      swap1\n      div\n      0xffffffffffffffffffffffffffffffffffffffff\n      and\n      dup2\n      jump\t// out\n        /* \"contracts/StakeXFI.sol\":3757:3925  function TransferOwnership(address _newOwner) external onlyOwner {... */\n    tag_41:\n        /* \"contracts/StakeXFI.sol\":1289:1294  owner */\n      0x02\n      0x00\n      swap1\n      sload\n      swap1\n      0x0100\n      exp\n      swap1\n      div\n      0xffffffffffffffffffffffffffffffffffffffff\n      and\n        /* \"contracts/StakeXFI.sol\":1275:1294  msg.sender == owner */\n      0xffffffffffffffffffffffffffffffffffffffff\n      and\n        /* \"contracts/StakeXFI.sol\":1275:1285  msg.sender */\n      caller\n        /* \"contracts/StakeXFI.sol\":1275:1294  msg.sender == owner */\n      0xffffffffffffffffffffffffffffffffffffffff\n      and\n      eq\n        /* \"contracts/StakeXFI.sol\":1267:1320  require(msg.sender == owner, \"Only owner can access\") */\n      tag_142\n      jumpi\n      mload(0x40)\n      0x08c379a000000000000000000000000000000000000000000000000000000000\n      dup2\n      mstore\n      0x04\n      add\n      tag_143\n      swap1\n      tag_83\n      jump\t// in\n    tag_143:\n      mload(0x40)\n      dup1\n      swap2\n      sub\n      swap1\n      revert\n    tag_142:\n        /* \"contracts/StakeXFI.sol\":3862:3863  0 */\n      0x00\n        /* \"contracts/StakeXFI.sol\":3841:3864  _newOwner != address(0) */\n      0xffffffffffffffffffffffffffffffffffffffff\n      and\n        /* \"contracts/StakeXFI.sol\":3841:3850  _newOwner */\n      dup2\n        /* \"contracts/StakeXFI.sol\":3841:3864  _newOwner != address(0) */\n      0xffffffffffffffffffffffffffffffffffffffff\n      and\n      sub\n        /* \"contracts/StakeXFI.sol\":3833:3886  require(_newOwner != address(0), \"Zero not allowed\" ) */\n      tag_145\n      jumpi\n      mload(0x40)\n      0x08c379a000000000000000000000000000000000000000000000000000000000\n      dup2\n      mstore\n      0x04\n      add\n      tag_146\n      swap1\n      tag_56\n      jump\t// in\n    tag_146:\n      mload(0x40)\n      dup1\n      swap2\n      sub\n      swap1\n      revert\n    tag_145:\n        /* \"contracts/StakeXFI.sol\":3908:3917  _newOwner */\n      dup1\n        /* \"contracts/StakeXFI.sol\":3897:3905  newOwner */\n      0x03\n      0x00\n        /* \"contracts/StakeXFI.sol\":3897:3917  newOwner = _newOwner */\n      0x0100\n      exp\n      dup2\n      sload\n      dup2\n      0xffffffffffffffffffffffffffffffffffffffff\n      mul\n      not\n      and\n      swap1\n      dup4\n      0xffffffffffffffffffffffffffffffffffffffff\n      and\n      mul\n      or\n      swap1\n      sstore\n      pop\n        /* \"contracts/StakeXFI.sol\":3757:3925  function TransferOwnership(address _newOwner) external onlyOwner {... */\n      pop\n      jump\t// out\n        /* \"contracts/StakeXFI.sol\":3405:3573  function getContractXFIBalance () external onlyOwner view returns (uint256) {... */\n    tag_43:\n        /* \"contracts/StakeXFI.sol\":3472:3479  uint256 */\n      0x00\n        /* \"contracts/StakeXFI.sol\":1289:1294  owner */\n      0x02\n      0x00\n      swap1\n      sload\n      swap1\n      0x0100\n      exp\n      swap1\n      div\n      0xffffffffffffffffffffffffffffffffffffffff\n      and\n        /* \"contracts/StakeXFI.sol\":1275:1294  msg.sender == owner */\n      0xffffffffffffffffffffffffffffffffffffffff\n      and\n        /* \"contracts/StakeXFI.sol\":1275:1285  msg.sender */\n      caller\n        /* \"contracts/StakeXFI.sol\":1275:1294  msg.sender == owner */\n      0xffffffffffffffffffffffffffffffffffffffff\n      and\n      eq\n        /* \"contracts/StakeXFI.sol\":1267:1320  require(msg.sender == owner, \"Only owner can access\") */\n      tag_148\n      jumpi\n      mload(0x40)\n      0x08c379a000000000000000000000000000000000000000000000000000000000\n      dup2\n      mstore\n      0x04\n      add\n      tag_149\n      swap1\n      tag_83\n      jump\t// in\n    tag_149:\n      mload(0x40)\n      dup1\n      swap2\n      sub\n      swap1\n      revert\n    tag_148:\n        /* \"contracts/StakeXFI.sol\":3492:3503  uint256 bal */\n      0x00\n        /* \"contracts/StakeXFI.sol\":3506:3517  XFIContract */\n      0x00\n      0x00\n      swap1\n      sload\n      swap1\n      0x0100\n      exp\n      swap1\n      div\n      0xffffffffffffffffffffffffffffffffffffffff\n      and\n        /* \"contracts/StakeXFI.sol\":3506:3527  XFIContract.balanceOf */\n      0xffffffffffffffffffffffffffffffffffffffff\n      and\n      0x70a08231\n        /* \"contracts/StakeXFI.sol\":3536:3540  this */\n      address\n        /* \"contracts/StakeXFI.sol\":3506:3542  XFIContract.balanceOf(address(this)) */\n      mload(0x40)\n      dup3\n      0xffffffff\n      and\n      0xe0\n      shl\n      dup2\n      mstore\n      0x04\n      add\n      tag_151\n      swap2\n      swap1\n      tag_91\n      jump\t// in\n    tag_151:\n      0x20\n      mload(0x40)\n      dup1\n      dup4\n      sub\n      dup2\n      dup7\n      gas\n      staticcall\n      iszero\n      dup1\n      iszero\n      tag_153\n      jumpi\n      returndatacopy(0x00, 0x00, returndatasize)\n      revert(0x00, returndatasize)\n    tag_153:\n      pop\n      pop\n      pop\n      pop\n      mload(0x40)\n      returndatasize\n      not(0x1f)\n      0x1f\n      dup3\n      add\n      and\n      dup3\n      add\n      dup1\n      0x40\n      mstore\n      pop\n      dup2\n      add\n      swap1\n      tag_154\n      swap2\n      swap1\n      tag_120\n      jump\t// in\n    tag_154:\n        /* \"contracts/StakeXFI.sol\":3492:3542  uint256 bal = XFIContract.balanceOf(address(this)) */\n      swap1\n      pop\n        /* \"contracts/StakeXFI.sol\":3562:3565  bal */\n      dup1\n        /* \"contracts/StakeXFI.sol\":3555:3565  return bal */\n      swap2\n      pop\n      pop\n        /* \"contracts/StakeXFI.sol\":3405:3573  function getContractXFIBalance () external onlyOwner view returns (uint256) {... */\n      swap1\n      jump\t// out\n        /* \"contracts/StakeXFI.sol\":3581:3749  function getContractMPXBalance () external onlyOwner view returns (uint256) {... */\n    tag_47:\n        /* \"contracts/StakeXFI.sol\":3648:3655  uint256 */\n      0x00\n        /* \"contracts/StakeXFI.sol\":1289:1294  owner */\n      0x02\n      0x00\n      swap1\n      sload\n      swap1\n      0x0100\n      exp\n      swap1\n      div\n      0xffffffffffffffffffffffffffffffffffffffff\n      and\n        /* \"contracts/StakeXFI.sol\":1275:1294  msg.sender == owner */\n      0xffffffffffffffffffffffffffffffffffffffff\n      and\n        /* \"contracts/StakeXFI.sol\":1275:1285  msg.sender */\n      caller\n        /* \"contracts/StakeXFI.sol\":1275:1294  msg.sender == owner */\n      0xffffffffffffffffffffffffffffffffffffffff\n      and\n      eq\n        /* \"contracts/StakeXFI.sol\":1267:1320  require(msg.sender == owner, \"Only owner can access\") */\n      tag_156\n      jumpi\n      mload(0x40)\n      0x08c379a000000000000000000000000000000000000000000000000000000000\n      dup2\n      mstore\n      0x04\n      add\n      tag_157\n      swap1\n      tag_83\n      jump\t// in\n    tag_157:\n      mload(0x40)\n      dup1\n      swap2\n      sub\n      swap1\n      revert\n    tag_156:\n        /* \"contracts/StakeXFI.sol\":3668:3679  uint256 bal */\n      0x00\n        /* \"contracts/StakeXFI.sol\":3682:3693  MPXContract */\n      0x01\n      0x00\n      swap1\n      sload\n      swap1\n      0x0100\n      exp\n      swap1\n      div\n      0xffffffffffffffffffffffffffffffffffffffff\n      and\n        /* \"contracts/StakeXFI.sol\":3682:3703  MPXContract.balanceOf */\n      0xffffffffffffffffffffffffffffffffffffffff\n      and\n      0x70a08231\n        /* \"contracts/StakeXFI.sol\":3712:3716  this */\n      address\n        /* \"contracts/StakeXFI.sol\":3682:3718  MPXContract.balanceOf(address(this)) */\n      mload(0x40)\n      dup3\n      0xffffffff\n      and\n      0xe0\n      shl\n      dup2\n      mstore\n      0x04\n      add\n      tag_159\n      swap2\n      swap1\n      tag_91\n      jump\t// in\n    tag_159:\n      0x20\n      mload(0x40)\n      dup1\n      dup4\n      sub\n      dup2\n      dup7\n      gas\n      staticcall\n      iszero\n      dup1\n      iszero\n      tag_161\n      jumpi\n      returndatacopy(0x00, 0x00, returndatasize)\n      revert(0x00, returndatasize)\n    tag_161:\n      pop\n      pop\n      pop\n      pop\n      mload(0x40)\n      returndatasize\n      not(0x1f)\n      0x1f\n      dup3\n      add\n      and\n      dup3\n      add\n      dup1\n      0x40\n      mstore\n      pop\n      dup2\n      add\n      swap1\n      tag_162\n      swap2\n      swap1\n      tag_120\n      jump\t// in\n    tag_162:\n        /* \"contracts/StakeXFI.sol\":3668:3718  uint256 bal = MPXContract.balanceOf(address(this)) */\n      swap1\n      pop\n        /* \"contracts/StakeXFI.sol\":3738:3741  bal */\n      dup1\n        /* \"contracts/StakeXFI.sol\":3731:3741  return bal */\n      swap2\n      pop\n      pop\n        /* \"contracts/StakeXFI.sol\":3581:3749  function getContractMPXBalance () external onlyOwner view returns (uint256) {... */\n      swap1\n      jump\t// out\n        /* \"contracts/StakeXFI.sol\":4232:4514  function calculateReward(uint256 _startTime, uint256 _endTime, uint256 _amount ) private pure returns(uint256) {... */\n    tag_68:\n        /* \"contracts/StakeXFI.sol\":4334:4341  uint256 */\n      0x00\n        /* \"contracts/StakeXFI.sol\":4354:4375  uint256 stakeDuration */\n      0x00\n        /* \"contracts/StakeXFI.sol\":4389:4399  _startTime */\n      dup5\n        /* \"contracts/StakeXFI.sol\":4378:4386  _endTime */\n      dup5\n        /* \"contracts/StakeXFI.sol\":4378:4399  _endTime - _startTime */\n      tag_164\n      swap2\n      swap1\n      tag_165\n      jump\t// in\n    tag_164:\n        /* \"contracts/StakeXFI.sol\":4354:4399  uint256 stakeDuration = _endTime - _startTime */\n      swap1\n      pop\n        /* \"contracts/StakeXFI.sol\":4412:4431  uint256 totalReward */\n      0x00\n        /* \"contracts/StakeXFI.sol\":4472:4475  1e7 */\n      0x989680\n        /* \"contracts/StakeXFI.sol\":4455:4468  stakeDuration */\n      dup3\n        /* \"contracts/StakeXFI.sol\":4445:4452  _amount */\n      dup6\n        /* \"contracts/StakeXFI.sol\":4435:4442  1000000 */\n      0x0f4240\n        /* \"contracts/StakeXFI.sol\":4435:4452  1000000 * _amount */\n      tag_166\n      swap2\n      swap1\n      tag_167\n      jump\t// in\n    tag_166:\n        /* \"contracts/StakeXFI.sol\":4435:4468  1000000 * _amount * stakeDuration */\n      tag_168\n      swap2\n      swap1\n      tag_167\n      jump\t// in\n    tag_168:\n        /* \"contracts/StakeXFI.sol\":4434:4475  (1000000 * _amount * stakeDuration) * 1e7 */\n      tag_169\n      swap2\n      swap1\n      tag_167\n      jump\t// in\n    tag_169:\n        /* \"contracts/StakeXFI.sol\":4412:4475  uint256 totalReward = (1000000 * _amount * stakeDuration) * 1e7 */\n      swap1\n      pop\n        /* \"contracts/StakeXFI.sol\":4493:4504  totalReward */\n      dup1\n        /* \"contracts/StakeXFI.sol\":4486:4504  return totalReward */\n      swap3\n      pop\n      pop\n      pop\n        /* \"contracts/StakeXFI.sol\":4232:4514  function calculateReward(uint256 _startTime, uint256 _endTime, uint256 _amount ) private pure returns(uint256) {... */\n      swap4\n      swap3\n      pop\n      pop\n      pop\n      jump\t// out\n    tag_93:\n      mload(0x40)\n      dup1\n      0x80\n      add\n      0x40\n      mstore\n      dup1\n      0x00\n      dup2\n      mstore\n      0x20\n      add\n      0x00\n      dup2\n      mstore\n      0x20\n      add\n      0x00\n      dup2\n      mstore\n      0x20\n      add\n      iszero(iszero(0x00))\n      dup2\n      mstore\n      pop\n      swap1\n      jump\t// out\n        /* \"#utility.yul\":88:205   */\n    tag_171:\n        /* \"#utility.yul\":197:198   */\n      0x00\n        /* \"#utility.yul\":194:195   */\n      0x00\n        /* \"#utility.yul\":187:199   */\n      revert\n        /* \"#utility.yul\":334:411   */\n    tag_173:\n        /* \"#utility.yul\":371:378   */\n      0x00\n        /* \"#utility.yul\":400:405   */\n      dup2\n        /* \"#utility.yul\":389:405   */\n      swap1\n      pop\n        /* \"#utility.yul\":334:411   */\n      swap2\n      swap1\n      pop\n      jump\t// out\n        /* \"#utility.yul\":417:539   */\n    tag_174:\n        /* \"#utility.yul\":490:514   */\n      tag_228\n        /* \"#utility.yul\":508:513   */\n      dup2\n        /* \"#utility.yul\":490:514   */\n      tag_173\n      jump\t// in\n    tag_228:\n        /* \"#utility.yul\":483:488   */\n      dup2\n        /* \"#utility.yul\":480:515   */\n      eq\n        /* \"#utility.yul\":470:533   */\n      tag_229\n      jumpi\n        /* \"#utility.yul\":529:530   */\n      0x00\n        /* \"#utility.yul\":526:527   */\n      0x00\n        /* \"#utility.yul\":519:531   */\n      revert\n        /* \"#utility.yul\":470:533   */\n    tag_229:\n        /* \"#utility.yul\":417:539   */\n      pop\n      jump\t// out\n        /* \"#utility.yul\":545:684   */\n    tag_175:\n        /* \"#utility.yul\":591:596   */\n      0x00\n        /* \"#utility.yul\":629:635   */\n      dup2\n        /* \"#utility.yul\":616:636   */\n      calldataload\n        /* \"#utility.yul\":607:636   */\n      swap1\n      pop\n        /* \"#utility.yul\":645:678   */\n      tag_231\n        /* \"#utility.yul\":672:677   */\n      dup2\n        /* \"#utility.yul\":645:678   */\n      tag_174\n      jump\t// in\n    tag_231:\n        /* \"#utility.yul\":545:684   */\n      swap3\n      swap2\n      pop\n      pop\n      jump\t// out\n        /* \"#utility.yul\":690:1019   */\n    tag_15:\n        /* \"#utility.yul\":749:755   */\n      0x00\n        /* \"#utility.yul\":798:800   */\n      0x20\n        /* \"#utility.yul\":786:795   */\n      dup3\n        /* \"#utility.yul\":777:784   */\n      dup5\n        /* \"#utility.yul\":773:796   */\n      sub\n        /* \"#utility.yul\":769:801   */\n      slt\n        /* \"#utility.yul\":766:885   */\n      iszero\n      tag_233\n      jumpi\n        /* \"#utility.yul\":804:883   */\n      tag_234\n      tag_171\n      jump\t// in\n    tag_234:\n        /* \"#utility.yul\":766:885   */\n    tag_233:\n        /* \"#utility.yul\":924:925   */\n      0x00\n        /* \"#utility.yul\":949:1002   */\n      tag_235\n        /* \"#utility.yul\":994:1001   */\n      dup5\n        /* \"#utility.yul\":985:991   */\n      dup3\n        /* \"#utility.yul\":974:983   */\n      dup6\n        /* \"#utility.yul\":970:992   */\n      add\n        /* \"#utility.yul\":949:1002   */\n      tag_175\n      jump\t// in\n    tag_235:\n        /* \"#utility.yul\":939:1002   */\n      swap2\n      pop\n        /* \"#utility.yul\":895:1012   */\n      pop\n        /* \"#utility.yul\":690:1019   */\n      swap3\n      swap2\n      pop\n      pop\n      jump\t// out\n        /* \"#utility.yul\":1025:1115   */\n    tag_176:\n        /* \"#utility.yul\":1059:1066   */\n      0x00\n        /* \"#utility.yul\":1102:1107   */\n      dup2\n        /* \"#utility.yul\":1095:1108   */\n      iszero\n        /* \"#utility.yul\":1088:1109   */\n      iszero\n        /* \"#utility.yul\":1077:1109   */\n      swap1\n      pop\n        /* \"#utility.yul\":1025:1115   */\n      swap2\n      swap1\n      pop\n      jump\t// out\n        /* \"#utility.yul\":1121:1230   */\n    tag_177:\n        /* \"#utility.yul\":1202:1223   */\n      tag_238\n        /* \"#utility.yul\":1217:1222   */\n      dup2\n        /* \"#utility.yul\":1202:1223   */\n      tag_176\n      jump\t// in\n    tag_238:\n        /* \"#utility.yul\":1197:1200   */\n      dup3\n        /* \"#utility.yul\":1190:1224   */\n      mstore\n        /* \"#utility.yul\":1121:1230   */\n      pop\n      pop\n      jump\t// out\n        /* \"#utility.yul\":1236:1446   */\n    tag_18:\n        /* \"#utility.yul\":1323:1327   */\n      0x00\n        /* \"#utility.yul\":1361:1363   */\n      0x20\n        /* \"#utility.yul\":1350:1359   */\n      dup3\n        /* \"#utility.yul\":1346:1364   */\n      add\n        /* \"#utility.yul\":1338:1364   */\n      swap1\n      pop\n        /* \"#utility.yul\":1374:1439   */\n      tag_240\n        /* \"#utility.yul\":1436:1437   */\n      0x00\n        /* \"#utility.yul\":1425:1434   */\n      dup4\n        /* \"#utility.yul\":1421:1438   */\n      add\n        /* \"#utility.yul\":1412:1418   */\n      dup5\n        /* \"#utility.yul\":1374:1439   */\n      tag_177\n      jump\t// in\n    tag_240:\n        /* \"#utility.yul\":1236:1446   */\n      swap3\n      swap2\n      pop\n      pop\n      jump\t// out\n        /* \"#utility.yul\":1452:1538   */\n    tag_178:\n        /* \"#utility.yul\":1487:1494   */\n      0x00\n        /* \"#utility.yul\":1527:1531   */\n      0xff\n        /* \"#utility.yul\":1520:1525   */\n      dup3\n        /* \"#utility.yul\":1516:1532   */\n      and\n        /* \"#utility.yul\":1505:1532   */\n      swap1\n      pop\n        /* \"#utility.yul\":1452:1538   */\n      swap2\n      swap1\n      pop\n      jump\t// out\n        /* \"#utility.yul\":1544:1662   */\n    tag_179:\n        /* \"#utility.yul\":1615:1637   */\n      tag_243\n        /* \"#utility.yul\":1631:1636   */\n      dup2\n        /* \"#utility.yul\":1615:1637   */\n      tag_178\n      jump\t// in\n    tag_243:\n        /* \"#utility.yul\":1608:1613   */\n      dup2\n        /* \"#utility.yul\":1605:1638   */\n      eq\n        /* \"#utility.yul\":1595:1656   */\n      tag_244\n      jumpi\n        /* \"#utility.yul\":1652:1653   */\n      0x00\n        /* \"#utility.yul\":1649:1650   */\n      0x00\n        /* \"#utility.yul\":1642:1654   */\n      revert\n        /* \"#utility.yul\":1595:1656   */\n    tag_244:\n        /* \"#utility.yul\":1544:1662   */\n      pop\n      jump\t// out\n        /* \"#utility.yul\":1668:1803   */\n    tag_180:\n        /* \"#utility.yul\":1712:1717   */\n      0x00\n        /* \"#utility.yul\":1750:1756   */\n      dup2\n        /* \"#utility.yul\":1737:1757   */\n      calldataload\n        /* \"#utility.yul\":1728:1757   */\n      swap1\n      pop\n        /* \"#utility.yul\":1766:1797   */\n      tag_246\n        /* \"#utility.yul\":1791:1796   */\n      dup2\n        /* \"#utility.yul\":1766:1797   */\n      tag_179\n      jump\t// in\n    tag_246:\n        /* \"#utility.yul\":1668:1803   */\n      swap3\n      swap2\n      pop\n      pop\n      jump\t// out\n        /* \"#utility.yul\":1809:2134   */\n    tag_23:\n        /* \"#utility.yul\":1866:1872   */\n      0x00\n        /* \"#utility.yul\":1915:1917   */\n      0x20\n        /* \"#utility.yul\":1903:1912   */\n      dup3\n        /* \"#utility.yul\":1894:1901   */\n      dup5\n        /* \"#utility.yul\":1890:1913   */\n      sub\n        /* \"#utility.yul\":1886:1918   */\n      slt\n        /* \"#utility.yul\":1883:2002   */\n      iszero\n      tag_248\n      jumpi\n        /* \"#utility.yul\":1921:2000   */\n      tag_249\n      tag_171\n      jump\t// in\n    tag_249:\n        /* \"#utility.yul\":1883:2002   */\n    tag_248:\n        /* \"#utility.yul\":2041:2042   */\n      0x00\n        /* \"#utility.yul\":2066:2117   */\n      tag_250\n        /* \"#utility.yul\":2109:2116   */\n      dup5\n        /* \"#utility.yul\":2100:2106   */\n      dup3\n        /* \"#utility.yul\":2089:2098   */\n      dup6\n        /* \"#utility.yul\":2085:2107   */\n      add\n        /* \"#utility.yul\":2066:2117   */\n      tag_180\n      jump\t// in\n    tag_250:\n        /* \"#utility.yul\":2056:2117   */\n      swap2\n      pop\n        /* \"#utility.yul\":2012:2127   */\n      pop\n        /* \"#utility.yul\":1809:2134   */\n      swap3\n      swap2\n      pop\n      pop\n      jump\t// out\n        /* \"#utility.yul\":2140:2248   */\n    tag_181:\n        /* \"#utility.yul\":2217:2241   */\n      tag_252\n        /* \"#utility.yul\":2235:2240   */\n      dup2\n        /* \"#utility.yul\":2217:2241   */\n      tag_173\n      jump\t// in\n    tag_252:\n        /* \"#utility.yul\":2212:2215   */\n      dup3\n        /* \"#utility.yul\":2205:2242   */\n      mstore\n        /* \"#utility.yul\":2140:2248   */\n      pop\n      pop\n      jump\t// out\n        /* \"#utility.yul\":2254:2353   */\n    tag_182:\n        /* \"#utility.yul\":2325:2346   */\n      tag_254\n        /* \"#utility.yul\":2340:2345   */\n      dup2\n        /* \"#utility.yul\":2325:2346   */\n      tag_176\n      jump\t// in\n    tag_254:\n        /* \"#utility.yul\":2320:2323   */\n      dup3\n        /* \"#utility.yul\":2313:2347   */\n      mstore\n        /* \"#utility.yul\":2254:2353   */\n      pop\n      pop\n      jump\t// out\n        /* \"#utility.yul\":2417:3283   */\n    tag_183:\n        /* \"#utility.yul\":2562:2566   */\n      0x80\n        /* \"#utility.yul\":2557:2560   */\n      dup3\n        /* \"#utility.yul\":2553:2567   */\n      add\n        /* \"#utility.yul\":2651:2655   */\n      0x00\n        /* \"#utility.yul\":2644:2649   */\n      dup3\n        /* \"#utility.yul\":2640:2656   */\n      add\n        /* \"#utility.yul\":2634:2657   */\n      mload\n        /* \"#utility.yul\":2670:2733   */\n      tag_256\n        /* \"#utility.yul\":2727:2731   */\n      0x00\n        /* \"#utility.yul\":2722:2725   */\n      dup6\n        /* \"#utility.yul\":2718:2732   */\n      add\n        /* \"#utility.yul\":2704:2716   */\n      dup3\n        /* \"#utility.yul\":2670:2733   */\n      tag_181\n      jump\t// in\n    tag_256:\n        /* \"#utility.yul\":2577:2743   */\n      pop\n        /* \"#utility.yul\":2830:2834   */\n      0x20\n        /* \"#utility.yul\":2823:2828   */\n      dup3\n        /* \"#utility.yul\":2819:2835   */\n      add\n        /* \"#utility.yul\":2813:2836   */\n      mload\n        /* \"#utility.yul\":2849:2912   */\n      tag_257\n        /* \"#utility.yul\":2906:2910   */\n      0x20\n        /* \"#utility.yul\":2901:2904   */\n      dup6\n        /* \"#utility.yul\":2897:2911   */\n      add\n        /* \"#utility.yul\":2883:2895   */\n      dup3\n        /* \"#utility.yul\":2849:2912   */\n      tag_181\n      jump\t// in\n    tag_257:\n        /* \"#utility.yul\":2753:2922   */\n      pop\n        /* \"#utility.yul\":3008:3012   */\n      0x40\n        /* \"#utility.yul\":3001:3006   */\n      dup3\n        /* \"#utility.yul\":2997:3013   */\n      add\n        /* \"#utility.yul\":2991:3014   */\n      mload\n        /* \"#utility.yul\":3027:3090   */\n      tag_258\n        /* \"#utility.yul\":3084:3088   */\n      0x40\n        /* \"#utility.yul\":3079:3082   */\n      dup6\n        /* \"#utility.yul\":3075:3089   */\n      add\n        /* \"#utility.yul\":3061:3073   */\n      dup3\n        /* \"#utility.yul\":3027:3090   */\n      tag_181\n      jump\t// in\n    tag_258:\n        /* \"#utility.yul\":2932:3100   */\n      pop\n        /* \"#utility.yul\":3190:3194   */\n      0x60\n        /* \"#utility.yul\":3183:3188   */\n      dup3\n        /* \"#utility.yul\":3179:3195   */\n      add\n        /* \"#utility.yul\":3173:3196   */\n      mload\n        /* \"#utility.yul\":3209:3266   */\n      tag_259\n        /* \"#utility.yul\":3260:3264   */\n      0x60\n        /* \"#utility.yul\":3255:3258   */\n      dup6\n        /* \"#utility.yul\":3251:3265   */\n      add\n        /* \"#utility.yul\":3237:3249   */\n      dup3\n        /* \"#utility.yul\":3209:3266   */\n      tag_182\n      jump\t// in\n    tag_259:\n        /* \"#utility.yul\":3110:3276   */\n      pop\n        /* \"#utility.yul\":2531:3283   */\n      pop\n        /* \"#utility.yul\":2417:3283   */\n      pop\n      pop\n      jump\t// out\n        /* \"#utility.yul\":3289:3608   */\n    tag_26:\n        /* \"#utility.yul\":3430:3434   */\n      0x00\n        /* \"#utility.yul\":3468:3471   */\n      0x80\n        /* \"#utility.yul\":3457:3466   */\n      dup3\n        /* \"#utility.yul\":3453:3472   */\n      add\n        /* \"#utility.yul\":3445:3472   */\n      swap1\n      pop\n        /* \"#utility.yul\":3482:3601   */\n      tag_261\n        /* \"#utility.yul\":3598:3599   */\n      0x00\n        /* \"#utility.yul\":3587:3596   */\n      dup4\n        /* \"#utility.yul\":3583:3600   */\n      add\n        /* \"#utility.yul\":3574:3580   */\n      dup5\n        /* \"#utility.yul\":3482:3601   */\n      tag_183\n      jump\t// in\n    tag_261:\n        /* \"#utility.yul\":3289:3608   */\n      swap3\n      swap2\n      pop\n      pop\n      jump\t// out\n        /* \"#utility.yul\":3614:3740   */\n    tag_184:\n        /* \"#utility.yul\":3651:3658   */\n      0x00\n        /* \"#utility.yul\":3691:3733   */\n      0xffffffffffffffffffffffffffffffffffffffff\n        /* \"#utility.yul\":3684:3689   */\n      dup3\n        /* \"#utility.yul\":3680:3734   */\n      and\n        /* \"#utility.yul\":3669:3734   */\n      swap1\n      pop\n        /* \"#utility.yul\":3614:3740   */\n      swap2\n      swap1\n      pop\n      jump\t// out\n        /* \"#utility.yul\":3746:3806   */\n    tag_185:\n        /* \"#utility.yul\":3774:3777   */\n      0x00\n        /* \"#utility.yul\":3795:3800   */\n      dup2\n        /* \"#utility.yul\":3788:3800   */\n      swap1\n      pop\n        /* \"#utility.yul\":3746:3806   */\n      swap2\n      swap1\n      pop\n      jump\t// out\n        /* \"#utility.yul\":3812:3954   */\n    tag_186:\n        /* \"#utility.yul\":3862:3871   */\n      0x00\n        /* \"#utility.yul\":3895:3948   */\n      tag_265\n        /* \"#utility.yul\":3913:3947   */\n      tag_266\n        /* \"#utility.yul\":3922:3946   */\n      tag_267\n        /* \"#utility.yul\":3940:3945   */\n      dup5\n        /* \"#utility.yul\":3922:3946   */\n      tag_184\n      jump\t// in\n    tag_267:\n        /* \"#utility.yul\":3913:3947   */\n      tag_185\n      jump\t// in\n    tag_266:\n        /* \"#utility.yul\":3895:3948   */\n      tag_184\n      jump\t// in\n    tag_265:\n        /* \"#utility.yul\":3882:3948   */\n      swap1\n      pop\n        /* \"#utility.yul\":3812:3954   */\n      swap2\n      swap1\n      pop\n      jump\t// out\n        /* \"#utility.yul\":3960:4086   */\n    tag_187:\n        /* \"#utility.yul\":4010:4019   */\n      0x00\n        /* \"#utility.yul\":4043:4080   */\n      tag_269\n        /* \"#utility.yul\":4074:4079   */\n      dup3\n        /* \"#utility.yul\":4043:4080   */\n      tag_186\n      jump\t// in\n    tag_269:\n        /* \"#utility.yul\":4030:4080   */\n      swap1\n      pop\n        /* \"#utility.yul\":3960:4086   */\n      swap2\n      swap1\n      pop\n      jump\t// out\n        /* \"#utility.yul\":4092:4231   */\n    tag_188:\n        /* \"#utility.yul\":4155:4164   */\n      0x00\n        /* \"#utility.yul\":4188:4225   */\n      tag_271\n        /* \"#utility.yul\":4219:4224   */\n      dup3\n        /* \"#utility.yul\":4188:4225   */\n      tag_187\n      jump\t// in\n    tag_271:\n        /* \"#utility.yul\":4175:4225   */\n      swap1\n      pop\n        /* \"#utility.yul\":4092:4231   */\n      swap2\n      swap1\n      pop\n      jump\t// out\n        /* \"#utility.yul\":4237:4394   */\n    tag_189:\n        /* \"#utility.yul\":4337:4387   */\n      tag_273\n        /* \"#utility.yul\":4381:4386   */\n      dup2\n        /* \"#utility.yul\":4337:4387   */\n      tag_188\n      jump\t// in\n    tag_273:\n        /* \"#utility.yul\":4332:4335   */\n      dup3\n        /* \"#utility.yul\":4325:4388   */\n      mstore\n        /* \"#utility.yul\":4237:4394   */\n      pop\n      pop\n      jump\t// out\n        /* \"#utility.yul\":4400:4648   */\n    tag_30:\n        /* \"#utility.yul\":4506:4510   */\n      0x00\n        /* \"#utility.yul\":4544:4546   */\n      0x20\n        /* \"#utility.yul\":4533:4542   */\n      dup3\n        /* \"#utility.yul\":4529:4547   */\n      add\n        /* \"#utility.yul\":4521:4547   */\n      swap1\n      pop\n        /* \"#utility.yul\":4557:4641   */\n      tag_275\n        /* \"#utility.yul\":4638:4639   */\n      0x00\n        /* \"#utility.yul\":4627:4636   */\n      dup4\n        /* \"#utility.yul\":4623:4640   */\n      add\n        /* \"#utility.yul\":4614:4620   */\n      dup5\n        /* \"#utility.yul\":4557:4641   */\n      tag_189\n      jump\t// in\n    tag_275:\n        /* \"#utility.yul\":4400:4648   */\n      swap3\n      swap2\n      pop\n      pop\n      jump\t// out\n        /* \"#utility.yul\":4654:5128   */\n    tag_33:\n        /* \"#utility.yul\":4722:4728   */\n      0x00\n        /* \"#utility.yul\":4730:4736   */\n      0x00\n        /* \"#utility.yul\":4779:4781   */\n      0x40\n        /* \"#utility.yul\":4767:4776   */\n      dup4\n        /* \"#utility.yul\":4758:4765   */\n      dup6\n        /* \"#utility.yul\":4754:4777   */\n      sub\n        /* \"#utility.yul\":4750:4782   */\n      slt\n        /* \"#utility.yul\":4747:4866   */\n      iszero\n      tag_277\n      jumpi\n        /* \"#utility.yul\":4785:4864   */\n      tag_278\n      tag_171\n      jump\t// in\n    tag_278:\n        /* \"#utility.yul\":4747:4866   */\n    tag_277:\n        /* \"#utility.yul\":4905:4906   */\n      0x00\n        /* \"#utility.yul\":4930:4983   */\n      tag_279\n        /* \"#utility.yul\":4975:4982   */\n      dup6\n        /* \"#utility.yul\":4966:4972   */\n      dup3\n        /* \"#utility.yul\":4955:4964   */\n      dup7\n        /* \"#utility.yul\":4951:4973   */\n      add\n        /* \"#utility.yul\":4930:4983   */\n      tag_175\n      jump\t// in\n    tag_279:\n        /* \"#utility.yul\":4920:4983   */\n      swap3\n      pop\n        /* \"#utility.yul\":4876:4993   */\n      pop\n        /* \"#utility.yul\":5032:5034   */\n      0x20\n        /* \"#utility.yul\":5058:5111   */\n      tag_280\n        /* \"#utility.yul\":5103:5110   */\n      dup6\n        /* \"#utility.yul\":5094:5100   */\n      dup3\n        /* \"#utility.yul\":5083:5092   */\n      dup7\n        /* \"#utility.yul\":5079:5101   */\n      add\n        /* \"#utility.yul\":5058:5111   */\n      tag_175\n      jump\t// in\n    tag_280:\n        /* \"#utility.yul\":5048:5111   */\n      swap2\n      pop\n        /* \"#utility.yul\":5003:5121   */\n      pop\n        /* \"#utility.yul\":4654:5128   */\n      swap3\n      pop\n      swap3\n      swap1\n      pop\n      jump\t// out\n        /* \"#utility.yul\":5134:5230   */\n    tag_190:\n        /* \"#utility.yul\":5171:5178   */\n      0x00\n        /* \"#utility.yul\":5200:5224   */\n      tag_282\n        /* \"#utility.yul\":5218:5223   */\n      dup3\n        /* \"#utility.yul\":5200:5224   */\n      tag_184\n      jump\t// in\n    tag_282:\n        /* \"#utility.yul\":5189:5224   */\n      swap1\n      pop\n        /* \"#utility.yul\":5134:5230   */\n      swap2\n      swap1\n      pop\n      jump\t// out\n        /* \"#utility.yul\":5236:5358   */\n    tag_191:\n        /* \"#utility.yul\":5309:5333   */\n      tag_284\n        /* \"#utility.yul\":5327:5332   */\n      dup2\n        /* \"#utility.yul\":5309:5333   */\n      tag_190\n      jump\t// in\n    tag_284:\n        /* \"#utility.yul\":5302:5307   */\n      dup2\n        /* \"#utility.yul\":5299:5334   */\n      eq\n        /* \"#utility.yul\":5289:5352   */\n      tag_285\n      jumpi\n        /* \"#utility.yul\":5348:5349   */\n      0x00\n        /* \"#utility.yul\":5345:5346   */\n      0x00\n        /* \"#utility.yul\":5338:5350   */\n      revert\n        /* \"#utility.yul\":5289:5352   */\n    tag_285:\n        /* \"#utility.yul\":5236:5358   */\n      pop\n      jump\t// out\n        /* \"#utility.yul\":5364:5503   */\n    tag_192:\n        /* \"#utility.yul\":5410:5415   */\n      0x00\n        /* \"#utility.yul\":5448:5454   */\n      dup2\n        /* \"#utility.yul\":5435:5455   */\n      calldataload\n        /* \"#utility.yul\":5426:5455   */\n      swap1\n      pop\n        /* \"#utility.yul\":5464:5497   */\n      tag_287\n        /* \"#utility.yul\":5491:5496   */\n      dup2\n        /* \"#utility.yul\":5464:5497   */\n      tag_191\n      jump\t// in\n    tag_287:\n        /* \"#utility.yul\":5364:5503   */\n      swap3\n      swap2\n      pop\n      pop\n      jump\t// out\n        /* \"#utility.yul\":5509:5838   */\n    tag_40:\n        /* \"#utility.yul\":5568:5574   */\n      0x00\n        /* \"#utility.yul\":5617:5619   */\n      0x20\n        /* \"#utility.yul\":5605:5614   */\n      dup3\n        /* \"#utility.yul\":5596:5603   */\n      dup5\n        /* \"#utility.yul\":5592:5615   */\n      sub\n        /* \"#utility.yul\":5588:5620   */\n      slt\n        /* \"#utility.yul\":5585:5704   */\n      iszero\n      tag_289\n      jumpi\n        /* \"#utility.yul\":5623:5702   */\n      tag_290\n      tag_171\n      jump\t// in\n    tag_290:\n        /* \"#utility.yul\":5585:5704   */\n    tag_289:\n        /* \"#utility.yul\":5743:5744   */\n      0x00\n        /* \"#utility.yul\":5768:5821   */\n      tag_291\n        /* \"#utility.yul\":5813:5820   */\n      dup5\n        /* \"#utility.yul\":5804:5810   */\n      dup3\n        /* \"#utility.yul\":5793:5802   */\n      dup6\n        /* \"#utility.yul\":5789:5811   */\n      add\n        /* \"#utility.yul\":5768:5821   */\n      tag_192\n      jump\t// in\n    tag_291:\n        /* \"#utility.yul\":5758:5821   */\n      swap2\n      pop\n        /* \"#utility.yul\":5714:5831   */\n      pop\n        /* \"#utility.yul\":5509:5838   */\n      swap3\n      swap2\n      pop\n      pop\n      jump\t// out\n        /* \"#utility.yul\":5844:5962   */\n    tag_193:\n        /* \"#utility.yul\":5931:5955   */\n      tag_293\n        /* \"#utility.yul\":5949:5954   */\n      dup2\n        /* \"#utility.yul\":5931:5955   */\n      tag_173\n      jump\t// in\n    tag_293:\n        /* \"#utility.yul\":5926:5929   */\n      dup3\n        /* \"#utility.yul\":5919:5956   */\n      mstore\n        /* \"#utility.yul\":5844:5962   */\n      pop\n      pop\n      jump\t// out\n        /* \"#utility.yul\":5968:6190   */\n    tag_45:\n        /* \"#utility.yul\":6061:6065   */\n      0x00\n        /* \"#utility.yul\":6099:6101   */\n      0x20\n        /* \"#utility.yul\":6088:6097   */\n      dup3\n        /* \"#utility.yul\":6084:6102   */\n      add\n        /* \"#utility.yul\":6076:6102   */\n      swap1\n      pop\n        /* \"#utility.yul\":6112:6183   */\n      tag_295\n        /* \"#utility.yul\":6180:6181   */\n      0x00\n        /* \"#utility.yul\":6169:6178   */\n      dup4\n        /* \"#utility.yul\":6165:6182   */\n      add\n        /* \"#utility.yul\":6156:6162   */\n      dup5\n        /* \"#utility.yul\":6112:6183   */\n      tag_193\n      jump\t// in\n    tag_295:\n        /* \"#utility.yul\":5968:6190   */\n      swap3\n      swap2\n      pop\n      pop\n      jump\t// out\n        /* \"#utility.yul\":6196:6365   */\n    tag_194:\n        /* \"#utility.yul\":6280:6291   */\n      0x00\n        /* \"#utility.yul\":6314:6320   */\n      dup3\n        /* \"#utility.yul\":6309:6312   */\n      dup3\n        /* \"#utility.yul\":6302:6321   */\n      mstore\n        /* \"#utility.yul\":6354:6358   */\n      0x20\n        /* \"#utility.yul\":6349:6352   */\n      dup3\n        /* \"#utility.yul\":6345:6359   */\n      add\n        /* \"#utility.yul\":6330:6359   */\n      swap1\n      pop\n        /* \"#utility.yul\":6196:6365   */\n      swap3\n      swap2\n      pop\n      pop\n      jump\t// out\n        /* \"#utility.yul\":6371:6544   */\n    tag_195:\n        /* \"#utility.yul\":6511:6536   */\n      0x4e6f7420616c6c6f77656420746f2072652d656e746572000000000000000000\n        /* \"#utility.yul\":6507:6508   */\n      0x00\n        /* \"#utility.yul\":6499:6505   */\n      dup3\n        /* \"#utility.yul\":6495:6509   */\n      add\n        /* \"#utility.yul\":6488:6537   */\n      mstore\n        /* \"#utility.yul\":6371:6544   */\n      pop\n      jump\t// out\n        /* \"#utility.yul\":6550:6916   */\n    tag_196:\n        /* \"#utility.yul\":6692:6695   */\n      0x00\n        /* \"#utility.yul\":6713:6780   */\n      tag_299\n        /* \"#utility.yul\":6777:6779   */\n      0x17\n        /* \"#utility.yul\":6772:6775   */\n      dup4\n        /* \"#utility.yul\":6713:6780   */\n      tag_194\n      jump\t// in\n    tag_299:\n        /* \"#utility.yul\":6706:6780   */\n      swap2\n      pop\n        /* \"#utility.yul\":6789:6882   */\n      tag_300\n        /* \"#utility.yul\":6878:6881   */\n      dup3\n        /* \"#utility.yul\":6789:6882   */\n      tag_195\n      jump\t// in\n    tag_300:\n        /* \"#utility.yul\":6907:6909   */\n      0x20\n        /* \"#utility.yul\":6902:6905   */\n      dup3\n        /* \"#utility.yul\":6898:6910   */\n      add\n        /* \"#utility.yul\":6891:6910   */\n      swap1\n      pop\n        /* \"#utility.yul\":6550:6916   */\n      swap2\n      swap1\n      pop\n      jump\t// out\n        /* \"#utility.yul\":6922:7341   */\n    tag_52:\n        /* \"#utility.yul\":7088:7092   */\n      0x00\n        /* \"#utility.yul\":7126:7128   */\n      0x20\n        /* \"#utility.yul\":7115:7124   */\n      dup3\n        /* \"#utility.yul\":7111:7129   */\n      add\n        /* \"#utility.yul\":7103:7129   */\n      swap1\n      pop\n        /* \"#utility.yul\":7175:7184   */\n      dup2\n        /* \"#utility.yul\":7169:7173   */\n      dup2\n        /* \"#utility.yul\":7165:7185   */\n      sub\n        /* \"#utility.yul\":7161:7162   */\n      0x00\n        /* \"#utility.yul\":7150:7159   */\n      dup4\n        /* \"#utility.yul\":7146:7163   */\n      add\n        /* \"#utility.yul\":7139:7186   */\n      mstore\n        /* \"#utility.yul\":7203:7334   */\n      tag_302\n        /* \"#utility.yul\":7329:7333   */\n      dup2\n        /* \"#utility.yul\":7203:7334   */\n      tag_196\n      jump\t// in\n    tag_302:\n        /* \"#utility.yul\":7195:7334   */\n      swap1\n      pop\n        /* \"#utility.yul\":6922:7341   */\n      swap2\n      swap1\n      pop\n      jump\t// out\n        /* \"#utility.yul\":7347:7513   */\n    tag_197:\n        /* \"#utility.yul\":7487:7505   */\n      0x5a65726f206e6f7420616c6c6f77656400000000000000000000000000000000\n        /* \"#utility.yul\":7483:7484   */\n      0x00\n        /* \"#utility.yul\":7475:7481   */\n      dup3\n        /* \"#utility.yul\":7471:7485   */\n      add\n        /* \"#utility.yul\":7464:7506   */\n      mstore\n        /* \"#utility.yul\":7347:7513   */\n      pop\n      jump\t// out\n        /* \"#utility.yul\":7519:7885   */\n    tag_198:\n        /* \"#utility.yul\":7661:7664   */\n      0x00\n        /* \"#utility.yul\":7682:7749   */\n      tag_305\n        /* \"#utility.yul\":7746:7748   */\n      0x10\n        /* \"#utility.yul\":7741:7744   */\n      dup4\n        /* \"#utility.yul\":7682:7749   */\n      tag_194\n      jump\t// in\n    tag_305:\n        /* \"#utility.yul\":7675:7749   */\n      swap2\n      pop\n        /* \"#utility.yul\":7758:7851   */\n      tag_306\n        /* \"#utility.yul\":7847:7850   */\n      dup3\n        /* \"#utility.yul\":7758:7851   */\n      tag_197\n      jump\t// in\n    tag_306:\n        /* \"#utility.yul\":7876:7878   */\n      0x20\n        /* \"#utility.yul\":7871:7874   */\n      dup3\n        /* \"#utility.yul\":7867:7879   */\n      add\n        /* \"#utility.yul\":7860:7879   */\n      swap1\n      pop\n        /* \"#utility.yul\":7519:7885   */\n      swap2\n      swap1\n      pop\n      jump\t// out\n        /* \"#utility.yul\":7891:8310   */\n    tag_56:\n        /* \"#utility.yul\":8057:8061   */\n      0x00\n        /* \"#utility.yul\":8095:8097   */\n      0x20\n        /* \"#utility.yul\":8084:8093   */\n      dup3\n        /* \"#utility.yul\":8080:8098   */\n      add\n        /* \"#utility.yul\":8072:8098   */\n      swap1\n      pop\n        /* \"#utility.yul\":8144:8153   */\n      dup2\n        /* \"#utility.yul\":8138:8142   */\n      dup2\n        /* \"#utility.yul\":8134:8154   */\n      sub\n        /* \"#utility.yul\":8130:8131   */\n      0x00\n        /* \"#utility.yul\":8119:8128   */\n      dup4\n        /* \"#utility.yul\":8115:8132   */\n      add\n        /* \"#utility.yul\":8108:8155   */\n      mstore\n        /* \"#utility.yul\":8172:8303   */\n      tag_308\n        /* \"#utility.yul\":8298:8302   */\n      dup2\n        /* \"#utility.yul\":8172:8303   */\n      tag_198\n      jump\t// in\n    tag_308:\n        /* \"#utility.yul\":8164:8303   */\n      swap1\n      pop\n        /* \"#utility.yul\":7891:8310   */\n      swap2\n      swap1\n      pop\n      jump\t// out\n        /* \"#utility.yul\":8316:8478   */\n    tag_199:\n        /* \"#utility.yul\":8456:8470   */\n      0x4f7574206f662072616e67650000000000000000000000000000000000000000\n        /* \"#utility.yul\":8452:8453   */\n      0x00\n        /* \"#utility.yul\":8444:8450   */\n      dup3\n        /* \"#utility.yul\":8440:8454   */\n      add\n        /* \"#utility.yul\":8433:8471   */\n      mstore\n        /* \"#utility.yul\":8316:8478   */\n      pop\n      jump\t// out\n        /* \"#utility.yul\":8484:8850   */\n    tag_200:\n        /* \"#utility.yul\":8626:8629   */\n      0x00\n        /* \"#utility.yul\":8647:8714   */\n      tag_311\n        /* \"#utility.yul\":8711:8713   */\n      0x0c\n        /* \"#utility.yul\":8706:8709   */\n      dup4\n        /* \"#utility.yul\":8647:8714   */\n      tag_194\n      jump\t// in\n    tag_311:\n        /* \"#utility.yul\":8640:8714   */\n      swap2\n      pop\n        /* \"#utility.yul\":8723:8816   */\n      tag_312\n        /* \"#utility.yul\":8812:8815   */\n      dup3\n        /* \"#utility.yul\":8723:8816   */\n      tag_199\n      jump\t// in\n    tag_312:\n        /* \"#utility.yul\":8841:8843   */\n      0x20\n        /* \"#utility.yul\":8836:8839   */\n      dup3\n        /* \"#utility.yul\":8832:8844   */\n      add\n        /* \"#utility.yul\":8825:8844   */\n      swap1\n      pop\n        /* \"#utility.yul\":8484:8850   */\n      swap2\n      swap1\n      pop\n      jump\t// out\n        /* \"#utility.yul\":8856:9275   */\n    tag_59:\n        /* \"#utility.yul\":9022:9026   */\n      0x00\n        /* \"#utility.yul\":9060:9062   */\n      0x20\n        /* \"#utility.yul\":9049:9058   */\n      dup3\n        /* \"#utility.yul\":9045:9063   */\n      add\n        /* \"#utility.yul\":9037:9063   */\n      swap1\n      pop\n        /* \"#utility.yul\":9109:9118   */\n      dup2\n        /* \"#utility.yul\":9103:9107   */\n      dup2\n        /* \"#utility.yul\":9099:9119   */\n      sub\n        /* \"#utility.yul\":9095:9096   */\n      0x00\n        /* \"#utility.yul\":9084:9093   */\n      dup4\n        /* \"#utility.yul\":9080:9097   */\n      add\n        /* \"#utility.yul\":9073:9120   */\n      mstore\n        /* \"#utility.yul\":9137:9268   */\n      tag_314\n        /* \"#utility.yul\":9263:9267   */\n      dup2\n        /* \"#utility.yul\":9137:9268   */\n      tag_200\n      jump\t// in\n    tag_314:\n        /* \"#utility.yul\":9129:9268   */\n      swap1\n      pop\n        /* \"#utility.yul\":8856:9275   */\n      swap2\n      swap1\n      pop\n      jump\t// out\n        /* \"#utility.yul\":9281:9461   */\n    tag_62:\n        /* \"#utility.yul\":9329:9406   */\n      0x4e487b7100000000000000000000000000000000000000000000000000000000\n        /* \"#utility.yul\":9326:9327   */\n      0x00\n        /* \"#utility.yul\":9319:9407   */\n      mstore\n        /* \"#utility.yul\":9426:9430   */\n      0x32\n        /* \"#utility.yul\":9423:9424   */\n      0x04\n        /* \"#utility.yul\":9416:9431   */\n      mstore\n        /* \"#utility.yul\":9450:9454   */\n      0x24\n        /* \"#utility.yul\":9447:9448   */\n      0x00\n        /* \"#utility.yul\":9440:9455   */\n      revert\n        /* \"#utility.yul\":9467:9629   */\n    tag_201:\n        /* \"#utility.yul\":9607:9621   */\n      0x4e6f74207965742074696d650000000000000000000000000000000000000000\n        /* \"#utility.yul\":9603:9604   */\n      0x00\n        /* \"#utility.yul\":9595:9601   */\n      dup3\n        /* \"#utility.yul\":9591:9605   */\n      add\n        /* \"#utility.yul\":9584:9622   */\n      mstore\n        /* \"#utility.yul\":9467:9629   */\n      pop\n      jump\t// out\n        /* \"#utility.yul\":9635:10001   */\n    tag_202:\n        /* \"#utility.yul\":9777:9780   */\n      0x00\n        /* \"#utility.yul\":9798:9865   */\n      tag_318\n        /* \"#utility.yul\":9862:9864   */\n      0x0c\n        /* \"#utility.yul\":9857:9860   */\n      dup4\n        /* \"#utility.yul\":9798:9865   */\n      tag_194\n      jump\t// in\n    tag_318:\n        /* \"#utility.yul\":9791:9865   */\n      swap2\n      pop\n        /* \"#utility.yul\":9874:9967   */\n      tag_319\n        /* \"#utility.yul\":9963:9966   */\n      dup3\n        /* \"#utility.yul\":9874:9967   */\n      tag_201\n      jump\t// in\n    tag_319:\n        /* \"#utility.yul\":9992:9994   */\n      0x20\n        /* \"#utility.yul\":9987:9990   */\n      dup3\n        /* \"#utility.yul\":9983:9995   */\n      add\n        /* \"#utility.yul\":9976:9995   */\n      swap1\n      pop\n        /* \"#utility.yul\":9635:10001   */\n      swap2\n      swap1\n      pop\n      jump\t// out\n        /* \"#utility.yul\":10007:10426   */\n    tag_66:\n        /* \"#utility.yul\":10173:10177   */\n      0x00\n        /* \"#utility.yul\":10211:10213   */\n      0x20\n        /* \"#utility.yul\":10200:10209   */\n      dup3\n        /* \"#utility.yul\":10196:10214   */\n      add\n        /* \"#utility.yul\":10188:10214   */\n      swap1\n      pop\n        /* \"#utility.yul\":10260:10269   */\n      dup2\n        /* \"#utility.yul\":10254:10258   */\n      dup2\n        /* \"#utility.yul\":10250:10270   */\n      sub\n        /* \"#utility.yul\":10246:10247   */\n      0x00\n        /* \"#utility.yul\":10235:10244   */\n      dup4\n        /* \"#utility.yul\":10231:10248   */\n      add\n        /* \"#utility.yul\":10224:10271   */\n      mstore\n        /* \"#utility.yul\":10288:10419   */\n      tag_321\n        /* \"#utility.yul\":10414:10418   */\n      dup2\n        /* \"#utility.yul\":10288:10419   */\n      tag_202\n      jump\t// in\n    tag_321:\n        /* \"#utility.yul\":10280:10419   */\n      swap1\n      pop\n        /* \"#utility.yul\":10007:10426   */\n      swap2\n      swap1\n      pop\n      jump\t// out\n        /* \"#utility.yul\":10432:10550   */\n    tag_203:\n        /* \"#utility.yul\":10519:10543   */\n      tag_323\n        /* \"#utility.yul\":10537:10542   */\n      dup2\n        /* \"#utility.yul\":10519:10543   */\n      tag_190\n      jump\t// in\n    tag_323:\n        /* \"#utility.yul\":10514:10517   */\n      dup3\n        /* \"#utility.yul\":10507:10544   */\n      mstore\n        /* \"#utility.yul\":10432:10550   */\n      pop\n      pop\n      jump\t// out\n        /* \"#utility.yul\":10556:10888   */\n    tag_70:\n        /* \"#utility.yul\":10677:10681   */\n      0x00\n        /* \"#utility.yul\":10715:10717   */\n      0x40\n        /* \"#utility.yul\":10704:10713   */\n      dup3\n        /* \"#utility.yul\":10700:10718   */\n      add\n        /* \"#utility.yul\":10692:10718   */\n      swap1\n      pop\n        /* \"#utility.yul\":10728:10799   */\n      tag_325\n        /* \"#utility.yul\":10796:10797   */\n      0x00\n        /* \"#utility.yul\":10785:10794   */\n      dup4\n        /* \"#utility.yul\":10781:10798   */\n      add\n        /* \"#utility.yul\":10772:10778   */\n      dup6\n        /* \"#utility.yul\":10728:10799   */\n      tag_203\n      jump\t// in\n    tag_325:\n        /* \"#utility.yul\":10809:10881   */\n      tag_326\n        /* \"#utility.yul\":10877:10879   */\n      0x20\n        /* \"#utility.yul\":10866:10875   */\n      dup4\n        /* \"#utility.yul\":10862:10880   */\n      add\n        /* \"#utility.yul\":10853:10859   */\n      dup5\n        /* \"#utility.yul\":10809:10881   */\n      tag_193\n      jump\t// in\n    tag_326:\n        /* \"#utility.yul\":10556:10888   */\n      swap4\n      swap3\n      pop\n      pop\n      pop\n      jump\t// out\n        /* \"#utility.yul\":10894:11010   */\n    tag_204:\n        /* \"#utility.yul\":10964:10985   */\n      tag_328\n        /* \"#utility.yul\":10979:10984   */\n      dup2\n        /* \"#utility.yul\":10964:10985   */\n      tag_176\n      jump\t// in\n    tag_328:\n        /* \"#utility.yul\":10957:10962   */\n      dup2\n        /* \"#utility.yul\":10954:10986   */\n      eq\n        /* \"#utility.yul\":10944:11004   */\n      tag_329\n      jumpi\n        /* \"#utility.yul\":11000:11001   */\n      0x00\n        /* \"#utility.yul\":10997:10998   */\n      0x00\n        /* \"#utility.yul\":10990:11002   */\n      revert\n        /* \"#utility.yul\":10944:11004   */\n    tag_329:\n        /* \"#utility.yul\":10894:11010   */\n      pop\n      jump\t// out\n        /* \"#utility.yul\":11016:11153   */\n    tag_205:\n        /* \"#utility.yul\":11070:11075   */\n      0x00\n        /* \"#utility.yul\":11101:11107   */\n      dup2\n        /* \"#utility.yul\":11095:11108   */\n      mload\n        /* \"#utility.yul\":11086:11108   */\n      swap1\n      pop\n        /* \"#utility.yul\":11117:11147   */\n      tag_331\n        /* \"#utility.yul\":11141:11146   */\n      dup2\n        /* \"#utility.yul\":11117:11147   */\n      tag_204\n      jump\t// in\n    tag_331:\n        /* \"#utility.yul\":11016:11153   */\n      swap3\n      swap2\n      pop\n      pop\n      jump\t// out\n        /* \"#utility.yul\":11159:11504   */\n    tag_74:\n        /* \"#utility.yul\":11226:11232   */\n      0x00\n        /* \"#utility.yul\":11275:11277   */\n      0x20\n        /* \"#utility.yul\":11263:11272   */\n      dup3\n        /* \"#utility.yul\":11254:11261   */\n      dup5\n        /* \"#utility.yul\":11250:11273   */\n      sub\n        /* \"#utility.yul\":11246:11278   */\n      slt\n        /* \"#utility.yul\":11243:11362   */\n      iszero\n      tag_333\n      jumpi\n        /* \"#utility.yul\":11281:11360   */\n      tag_334\n      tag_171\n      jump\t// in\n    tag_334:\n        /* \"#utility.yul\":11243:11362   */\n    tag_333:\n        /* \"#utility.yul\":11401:11402   */\n      0x00\n        /* \"#utility.yul\":11426:11487   */\n      tag_335\n        /* \"#utility.yul\":11479:11486   */\n      dup5\n        /* \"#utility.yul\":11470:11476   */\n      dup3\n        /* \"#utility.yul\":11459:11468   */\n      dup6\n        /* \"#utility.yul\":11455:11477   */\n      add\n        /* \"#utility.yul\":11426:11487   */\n      tag_205\n      jump\t// in\n    tag_335:\n        /* \"#utility.yul\":11416:11487   */\n      swap2\n      pop\n        /* \"#utility.yul\":11372:11497   */\n      pop\n        /* \"#utility.yul\":11159:11504   */\n      swap3\n      swap2\n      pop\n      pop\n      jump\t// out\n        /* \"#utility.yul\":11510:11681   */\n    tag_206:\n        /* \"#utility.yul\":11650:11673   */\n      0x4f6e6c79206f776e65722063616e206163636573730000000000000000000000\n        /* \"#utility.yul\":11646:11647   */\n      0x00\n        /* \"#utility.yul\":11638:11644   */\n      dup3\n        /* \"#utility.yul\":11634:11648   */\n      add\n        /* \"#utility.yul\":11627:11674   */\n      mstore\n        /* \"#utility.yul\":11510:11681   */\n      pop\n      jump\t// out\n        /* \"#utility.yul\":11687:12053   */\n    tag_207:\n        /* \"#utility.yul\":11829:11832   */\n      0x00\n        /* \"#utility.yul\":11850:11917   */\n      tag_338\n        /* \"#utility.yul\":11914:11916   */\n      0x15\n        /* \"#utility.yul\":11909:11912   */\n      dup4\n        /* \"#utility.yul\":11850:11917   */\n      tag_194\n      jump\t// in\n    tag_338:\n        /* \"#utility.yul\":11843:11917   */\n      swap2\n      pop\n        /* \"#utility.yul\":11926:12019   */\n      tag_339\n        /* \"#utility.yul\":12015:12018   */\n      dup3\n        /* \"#utility.yul\":11926:12019   */\n      tag_206\n      jump\t// in\n    tag_339:\n        /* \"#utility.yul\":12044:12046   */\n      0x20\n        /* \"#utility.yul\":12039:12042   */\n      dup3\n        /* \"#utility.yul\":12035:12047   */\n      add\n        /* \"#utility.yul\":12028:12047   */\n      swap1\n      pop\n        /* \"#utility.yul\":11687:12053   */\n      swap2\n      swap1\n      pop\n      jump\t// out\n        /* \"#utility.yul\":12059:12478   */\n    tag_83:\n        /* \"#utility.yul\":12225:12229   */\n      0x00\n        /* \"#utility.yul\":12263:12265   */\n      0x20\n        /* \"#utility.yul\":12252:12261   */\n      dup3\n        /* \"#utility.yul\":12248:12266   */\n      add\n        /* \"#utility.yul\":12240:12266   */\n      swap1\n      pop\n        /* \"#utility.yul\":12312:12321   */\n      dup2\n        /* \"#utility.yul\":12306:12310   */\n      dup2\n        /* \"#utility.yul\":12302:12322   */\n      sub\n        /* \"#utility.yul\":12298:12299   */\n      0x00\n        /* \"#utility.yul\":12287:12296   */\n      dup4\n        /* \"#utility.yul\":12283:12300   */\n      add\n        /* \"#utility.yul\":12276:12323   */\n      mstore\n        /* \"#utility.yul\":12340:12471   */\n      tag_341\n        /* \"#utility.yul\":12466:12470   */\n      dup2\n        /* \"#utility.yul\":12340:12471   */\n      tag_207\n      jump\t// in\n    tag_341:\n        /* \"#utility.yul\":12332:12471   */\n      swap1\n      pop\n        /* \"#utility.yul\":12059:12478   */\n      swap2\n      swap1\n      pop\n      jump\t// out\n        /* \"#utility.yul\":12484:12647   */\n    tag_208:\n        /* \"#utility.yul\":12624:12639   */\n      0x4e6f7420796f7572207475726e00000000000000000000000000000000000000\n        /* \"#utility.yul\":12620:12621   */\n      0x00\n        /* \"#utility.yul\":12612:12618   */\n      dup3\n        /* \"#utility.yul\":12608:12622   */\n      add\n        /* \"#utility.yul\":12601:12640   */\n      mstore\n        /* \"#utility.yul\":12484:12647   */\n      pop\n      jump\t// out\n        /* \"#utility.yul\":12653:13019   */\n    tag_209:\n        /* \"#utility.yul\":12795:12798   */\n      0x00\n        /* \"#utility.yul\":12816:12883   */\n      tag_344\n        /* \"#utility.yul\":12880:12882   */\n      0x0d\n        /* \"#utility.yul\":12875:12878   */\n      dup4\n        /* \"#utility.yul\":12816:12883   */\n      tag_194\n      jump\t// in\n    tag_344:\n        /* \"#utility.yul\":12809:12883   */\n      swap2\n      pop\n        /* \"#utility.yul\":12892:12985   */\n      tag_345\n        /* \"#utility.yul\":12981:12984   */\n      dup3\n        /* \"#utility.yul\":12892:12985   */\n      tag_208\n      jump\t// in\n    tag_345:\n        /* \"#utility.yul\":13010:13012   */\n      0x20\n        /* \"#utility.yul\":13005:13008   */\n      dup3\n        /* \"#utility.yul\":13001:13013   */\n      add\n        /* \"#utility.yul\":12994:13013   */\n      swap1\n      pop\n        /* \"#utility.yul\":12653:13019   */\n      swap2\n      swap1\n      pop\n      jump\t// out\n        /* \"#utility.yul\":13025:13444   */\n    tag_89:\n        /* \"#utility.yul\":13191:13195   */\n      0x00\n        /* \"#utility.yul\":13229:13231   */\n      0x20\n        /* \"#utility.yul\":13218:13227   */\n      dup3\n        /* \"#utility.yul\":13214:13232   */\n      add\n        /* \"#utility.yul\":13206:13232   */\n      swap1\n      pop\n        /* \"#utility.yul\":13278:13287   */\n      dup2\n        /* \"#utility.yul\":13272:13276   */\n      dup2\n        /* \"#utility.yul\":13268:13288   */\n      sub\n        /* \"#utility.yul\":13264:13265   */\n      0x00\n        /* \"#utility.yul\":13253:13262   */\n      dup4\n        /* \"#utility.yul\":13249:13266   */\n      add\n        /* \"#utility.yul\":13242:13289   */\n      mstore\n        /* \"#utility.yul\":13306:13437   */\n      tag_347\n        /* \"#utility.yul\":13432:13436   */\n      dup2\n        /* \"#utility.yul\":13306:13437   */\n      tag_209\n      jump\t// in\n    tag_347:\n        /* \"#utility.yul\":13298:13437   */\n      swap1\n      pop\n        /* \"#utility.yul\":13025:13444   */\n      swap2\n      swap1\n      pop\n      jump\t// out\n        /* \"#utility.yul\":13450:13672   */\n    tag_91:\n        /* \"#utility.yul\":13543:13547   */\n      0x00\n        /* \"#utility.yul\":13581:13583   */\n      0x20\n        /* \"#utility.yul\":13570:13579   */\n      dup3\n        /* \"#utility.yul\":13566:13584   */\n      add\n        /* \"#utility.yul\":13558:13584   */\n      swap1\n      pop\n        /* \"#utility.yul\":13594:13665   */\n      tag_349\n        /* \"#utility.yul\":13662:13663   */\n      0x00\n        /* \"#utility.yul\":13651:13660   */\n      dup4\n        /* \"#utility.yul\":13647:13664   */\n      add\n        /* \"#utility.yul\":13638:13644   */\n      dup5\n        /* \"#utility.yul\":13594:13665   */\n      tag_203\n      jump\t// in\n    tag_349:\n        /* \"#utility.yul\":13450:13672   */\n      swap3\n      swap2\n      pop\n      pop\n      jump\t// out\n        /* \"#utility.yul\":13678:13852   */\n    tag_210:\n        /* \"#utility.yul\":13818:13844   */\n      0x5a65726f2061646472657373206e6f7420616c6c6f7765640000000000000000\n        /* \"#utility.yul\":13814:13815   */\n      0x00\n        /* \"#utility.yul\":13806:13812   */\n      dup3\n        /* \"#utility.yul\":13802:13816   */\n      add\n        /* \"#utility.yul\":13795:13845   */\n      mstore\n        /* \"#utility.yul\":13678:13852   */\n      pop\n      jump\t// out\n        /* \"#utility.yul\":13858:14224   */\n    tag_211:\n        /* \"#utility.yul\":14000:14003   */\n      0x00\n        /* \"#utility.yul\":14021:14088   */\n      tag_352\n        /* \"#utility.yul\":14085:14087   */\n      0x18\n        /* \"#utility.yul\":14080:14083   */\n      dup4\n        /* \"#utility.yul\":14021:14088   */\n      tag_194\n      jump\t// in\n    tag_352:\n        /* \"#utility.yul\":14014:14088   */\n      swap2\n      pop\n        /* \"#utility.yul\":14097:14190   */\n      tag_353\n        /* \"#utility.yul\":14186:14189   */\n      dup3\n        /* \"#utility.yul\":14097:14190   */\n      tag_210\n      jump\t// in\n    tag_353:\n        /* \"#utility.yul\":14215:14217   */\n      0x20\n        /* \"#utility.yul\":14210:14213   */\n      dup3\n        /* \"#utility.yul\":14206:14218   */\n      add\n        /* \"#utility.yul\":14199:14218   */\n      swap1\n      pop\n        /* \"#utility.yul\":13858:14224   */\n      swap2\n      swap1\n      pop\n      jump\t// out\n        /* \"#utility.yul\":14230:14649   */\n    tag_108:\n        /* \"#utility.yul\":14396:14400   */\n      0x00\n        /* \"#utility.yul\":14434:14436   */\n      0x20\n        /* \"#utility.yul\":14423:14432   */\n      dup3\n        /* \"#utility.yul\":14419:14437   */\n      add\n        /* \"#utility.yul\":14411:14437   */\n      swap1\n      pop\n        /* \"#utility.yul\":14483:14492   */\n      dup2\n        /* \"#utility.yul\":14477:14481   */\n      dup2\n        /* \"#utility.yul\":14473:14493   */\n      sub\n        /* \"#utility.yul\":14469:14470   */\n      0x00\n        /* \"#utility.yul\":14458:14467   */\n      dup4\n        /* \"#utility.yul\":14454:14471   */\n      add\n        /* \"#utility.yul\":14447:14494   */\n      mstore\n        /* \"#utility.yul\":14511:14642   */\n      tag_355\n        /* \"#utility.yul\":14637:14641   */\n      dup2\n        /* \"#utility.yul\":14511:14642   */\n      tag_211\n      jump\t// in\n    tag_355:\n        /* \"#utility.yul\":14503:14642   */\n      swap1\n      pop\n        /* \"#utility.yul\":14230:14649   */\n      swap2\n      swap1\n      pop\n      jump\t// out\n        /* \"#utility.yul\":14655:14827   */\n    tag_212:\n        /* \"#utility.yul\":14795:14819   */\n      0x416d6f756e74206973206f7574206f662072616e676500000000000000000000\n        /* \"#utility.yul\":14791:14792   */\n      0x00\n        /* \"#utility.yul\":14783:14789   */\n      dup3\n        /* \"#utility.yul\":14779:14793   */\n      add\n        /* \"#utility.yul\":14772:14820   */\n      mstore\n        /* \"#utility.yul\":14655:14827   */\n      pop\n      jump\t// out\n        /* \"#utility.yul\":14833:15199   */\n    tag_213:\n        /* \"#utility.yul\":14975:14978   */\n      0x00\n        /* \"#utility.yul\":14996:15063   */\n      tag_358\n        /* \"#utility.yul\":15060:15062   */\n      0x16\n        /* \"#utility.yul\":15055:15058   */\n      dup4\n        /* \"#utility.yul\":14996:15063   */\n      tag_194\n      jump\t// in\n    tag_358:\n        /* \"#utility.yul\":14989:15063   */\n      swap2\n      pop\n        /* \"#utility.yul\":15072:15165   */\n      tag_359\n        /* \"#utility.yul\":15161:15164   */\n      dup3\n        /* \"#utility.yul\":15072:15165   */\n      tag_212\n      jump\t// in\n    tag_359:\n        /* \"#utility.yul\":15190:15192   */\n      0x20\n        /* \"#utility.yul\":15185:15188   */\n      dup3\n        /* \"#utility.yul\":15181:15193   */\n      add\n        /* \"#utility.yul\":15174:15193   */\n      swap1\n      pop\n        /* \"#utility.yul\":14833:15199   */\n      swap2\n      swap1\n      pop\n      jump\t// out\n        /* \"#utility.yul\":15205:15624   */\n    tag_112:\n        /* \"#utility.yul\":15371:15375   */\n      0x00\n        /* \"#utility.yul\":15409:15411   */\n      0x20\n        /* \"#utility.yul\":15398:15407   */\n      dup3\n        /* \"#utility.yul\":15394:15412   */\n      add\n        /* \"#utility.yul\":15386:15412   */\n      swap1\n      pop\n        /* \"#utility.yul\":15458:15467   */\n      dup2\n        /* \"#utility.yul\":15452:15456   */\n      dup2\n        /* \"#utility.yul\":15448:15468   */\n      sub\n        /* \"#utility.yul\":15444:15445   */\n      0x00\n        /* \"#utility.yul\":15433:15442   */\n      dup4\n        /* \"#utility.yul\":15429:15446   */\n      add\n        /* \"#utility.yul\":15422:15469   */\n      mstore\n        /* \"#utility.yul\":15486:15617   */\n      tag_361\n        /* \"#utility.yul\":15612:15616   */\n      dup2\n        /* \"#utility.yul\":15486:15617   */\n      tag_213\n      jump\t// in\n    tag_361:\n        /* \"#utility.yul\":15478:15617   */\n      swap1\n      pop\n        /* \"#utility.yul\":15205:15624   */\n      swap2\n      swap1\n      pop\n      jump\t// out\n        /* \"#utility.yul\":15630:15801   */\n    tag_214:\n        /* \"#utility.yul\":15770:15793   */\n      0x4475726174696f6e20697320746f6f2073686f72740000000000000000000000\n        /* \"#utility.yul\":15766:15767   */\n      0x00\n        /* \"#utility.yul\":15758:15764   */\n      dup3\n        /* \"#utility.yul\":15754:15768   */\n      add\n        /* \"#utility.yul\":15747:15794   */\n      mstore\n        /* \"#utility.yul\":15630:15801   */\n      pop\n      jump\t// out\n        /* \"#utility.yul\":15807:16173   */\n    tag_215:\n        /* \"#utility.yul\":15949:15952   */\n      0x00\n        /* \"#utility.yul\":15970:16037   */\n      tag_364\n        /* \"#utility.yul\":16034:16036   */\n      0x15\n        /* \"#utility.yul\":16029:16032   */\n      dup4\n        /* \"#utility.yul\":15970:16037   */\n      tag_194\n      jump\t// in\n    tag_364:\n        /* \"#utility.yul\":15963:16037   */\n      swap2\n      pop\n        /* \"#utility.yul\":16046:16139   */\n      tag_365\n        /* \"#utility.yul\":16135:16138   */\n      dup3\n        /* \"#utility.yul\":16046:16139   */\n      tag_214\n      jump\t// in\n    tag_365:\n        /* \"#utility.yul\":16164:16166   */\n      0x20\n        /* \"#utility.yul\":16159:16162   */\n      dup3\n        /* \"#utility.yul\":16155:16167   */\n      add\n        /* \"#utility.yul\":16148:16167   */\n      swap1\n      pop\n        /* \"#utility.yul\":15807:16173   */\n      swap2\n      swap1\n      pop\n      jump\t// out\n        /* \"#utility.yul\":16179:16598   */\n    tag_115:\n        /* \"#utility.yul\":16345:16349   */\n      0x00\n        /* \"#utility.yul\":16383:16385   */\n      0x20\n        /* \"#utility.yul\":16372:16381   */\n      dup3\n        /* \"#utility.yul\":16368:16386   */\n      add\n        /* \"#utility.yul\":16360:16386   */\n      swap1\n      pop\n        /* \"#utility.yul\":16432:16441   */\n      dup2\n        /* \"#utility.yul\":16426:16430   */\n      dup2\n        /* \"#utility.yul\":16422:16442   */\n      sub\n        /* \"#utility.yul\":16418:16419   */\n      0x00\n        /* \"#utility.yul\":16407:16416   */\n      dup4\n        /* \"#utility.yul\":16403:16420   */\n      add\n        /* \"#utility.yul\":16396:16443   */\n      mstore\n        /* \"#utility.yul\":16460:16591   */\n      tag_367\n        /* \"#utility.yul\":16586:16590   */\n      dup2\n        /* \"#utility.yul\":16460:16591   */\n      tag_215\n      jump\t// in\n    tag_367:\n        /* \"#utility.yul\":16452:16591   */\n      swap1\n      pop\n        /* \"#utility.yul\":16179:16598   */\n      swap2\n      swap1\n      pop\n      jump\t// out\n        /* \"#utility.yul\":16604:16747   */\n    tag_216:\n        /* \"#utility.yul\":16661:16666   */\n      0x00\n        /* \"#utility.yul\":16692:16698   */\n      dup2\n        /* \"#utility.yul\":16686:16699   */\n      mload\n        /* \"#utility.yul\":16677:16699   */\n      swap1\n      pop\n        /* \"#utility.yul\":16708:16741   */\n      tag_369\n        /* \"#utility.yul\":16735:16740   */\n      dup2\n        /* \"#utility.yul\":16708:16741   */\n      tag_174\n      jump\t// in\n    tag_369:\n        /* \"#utility.yul\":16604:16747   */\n      swap3\n      swap2\n      pop\n      pop\n      jump\t// out\n        /* \"#utility.yul\":16753:17104   */\n    tag_120:\n        /* \"#utility.yul\":16823:16829   */\n      0x00\n        /* \"#utility.yul\":16872:16874   */\n      0x20\n        /* \"#utility.yul\":16860:16869   */\n      dup3\n        /* \"#utility.yul\":16851:16858   */\n      dup5\n        /* \"#utility.yul\":16847:16870   */\n      sub\n        /* \"#utility.yul\":16843:16875   */\n      slt\n        /* \"#utility.yul\":16840:16959   */\n      iszero\n      tag_371\n      jumpi\n        /* \"#utility.yul\":16878:16957   */\n      tag_372\n      tag_171\n      jump\t// in\n    tag_372:\n        /* \"#utility.yul\":16840:16959   */\n    tag_371:\n        /* \"#utility.yul\":16998:16999   */\n      0x00\n        /* \"#utility.yul\":17023:17087   */\n      tag_373\n        /* \"#utility.yul\":17079:17086   */\n      dup5\n        /* \"#utility.yul\":17070:17076   */\n      dup3\n        /* \"#utility.yul\":17059:17068   */\n      dup6\n        /* \"#utility.yul\":17055:17077   */\n      add\n        /* \"#utility.yul\":17023:17087   */\n      tag_216\n      jump\t// in\n    tag_373:\n        /* \"#utility.yul\":17013:17087   */\n      swap2\n      pop\n        /* \"#utility.yul\":16969:17097   */\n      pop\n        /* \"#utility.yul\":16753:17104   */\n      swap3\n      swap2\n      pop\n      pop\n      jump\t// out\n        /* \"#utility.yul\":17110:17281   */\n    tag_217:\n        /* \"#utility.yul\":17250:17273   */\n      0x596f7520646f6e2774206861766520656e6f7567680000000000000000000000\n        /* \"#utility.yul\":17246:17247   */\n      0x00\n        /* \"#utility.yul\":17238:17244   */\n      dup3\n        /* \"#utility.yul\":17234:17248   */\n      add\n        /* \"#utility.yul\":17227:17274   */\n      mstore\n        /* \"#utility.yul\":17110:17281   */\n      pop\n      jump\t// out\n        /* \"#utility.yul\":17287:17653   */\n    tag_218:\n        /* \"#utility.yul\":17429:17432   */\n      0x00\n        /* \"#utility.yul\":17450:17517   */\n      tag_376\n        /* \"#utility.yul\":17514:17516   */\n      0x15\n        /* \"#utility.yul\":17509:17512   */\n      dup4\n        /* \"#utility.yul\":17450:17517   */\n      tag_194\n      jump\t// in\n    tag_376:\n        /* \"#utility.yul\":17443:17517   */\n      swap2\n      pop\n        /* \"#utility.yul\":17526:17619   */\n      tag_377\n        /* \"#utility.yul\":17615:17618   */\n      dup3\n        /* \"#utility.yul\":17526:17619   */\n      tag_217\n      jump\t// in\n    tag_377:\n        /* \"#utility.yul\":17644:17646   */\n      0x20\n        /* \"#utility.yul\":17639:17642   */\n      dup3\n        /* \"#utility.yul\":17635:17647   */\n      add\n        /* \"#utility.yul\":17628:17647   */\n      swap1\n      pop\n        /* \"#utility.yul\":17287:17653   */\n      swap2\n      swap1\n      pop\n      jump\t// out\n        /* \"#utility.yul\":17659:18078   */\n    tag_123:\n        /* \"#utility.yul\":17825:17829   */\n      0x00\n        /* \"#utility.yul\":17863:17865   */\n      0x20\n        /* \"#utility.yul\":17852:17861   */\n      dup3\n        /* \"#utility.yul\":17848:17866   */\n      add\n        /* \"#utility.yul\":17840:17866   */\n      swap1\n      pop\n        /* \"#utility.yul\":17912:17921   */\n      dup2\n        /* \"#utility.yul\":17906:17910   */\n      dup2\n        /* \"#utility.yul\":17902:17922   */\n      sub\n        /* \"#utility.yul\":17898:17899   */\n      0x00\n        /* \"#utility.yul\":17887:17896   */\n      dup4\n        /* \"#utility.yul\":17883:17900   */\n      add\n        /* \"#utility.yul\":17876:17923   */\n      mstore\n        /* \"#utility.yul\":17940:18071   */\n      tag_379\n        /* \"#utility.yul\":18066:18070   */\n      dup2\n        /* \"#utility.yul\":17940:18071   */\n      tag_218\n      jump\t// in\n    tag_379:\n        /* \"#utility.yul\":17932:18071   */\n      swap1\n      pop\n        /* \"#utility.yul\":17659:18078   */\n      swap2\n      swap1\n      pop\n      jump\t// out\n        /* \"#utility.yul\":18084:18416   */\n    tag_125:\n        /* \"#utility.yul\":18205:18209   */\n      0x00\n        /* \"#utility.yul\":18243:18245   */\n      0x40\n        /* \"#utility.yul\":18232:18241   */\n      dup3\n        /* \"#utility.yul\":18228:18246   */\n      add\n        /* \"#utility.yul\":18220:18246   */\n      swap1\n      pop\n        /* \"#utility.yul\":18256:18327   */\n      tag_381\n        /* \"#utility.yul\":18324:18325   */\n      0x00\n        /* \"#utility.yul\":18313:18322   */\n      dup4\n        /* \"#utility.yul\":18309:18326   */\n      add\n        /* \"#utility.yul\":18300:18306   */\n      dup6\n        /* \"#utility.yul\":18256:18327   */\n      tag_203\n      jump\t// in\n    tag_381:\n        /* \"#utility.yul\":18337:18409   */\n      tag_382\n        /* \"#utility.yul\":18405:18407   */\n      0x20\n        /* \"#utility.yul\":18394:18403   */\n      dup4\n        /* \"#utility.yul\":18390:18408   */\n      add\n        /* \"#utility.yul\":18381:18387   */\n      dup5\n        /* \"#utility.yul\":18337:18409   */\n      tag_203\n      jump\t// in\n    tag_382:\n        /* \"#utility.yul\":18084:18416   */\n      swap4\n      swap3\n      pop\n      pop\n      pop\n      jump\t// out\n        /* \"#utility.yul\":18422:18600   */\n    tag_219:\n        /* \"#utility.yul\":18562:18592   */\n      0x416d6f756e7420616c6c6f776564206973206e6f7420656e6f75676800000000\n        /* \"#utility.yul\":18558:18559   */\n      0x00\n        /* \"#utility.yul\":18550:18556   */\n      dup3\n        /* \"#utility.yul\":18546:18560   */\n      add\n        /* \"#utility.yul\":18539:18593   */\n      mstore\n        /* \"#utility.yul\":18422:18600   */\n      pop\n      jump\t// out\n        /* \"#utility.yul\":18606:18972   */\n    tag_220:\n        /* \"#utility.yul\":18748:18751   */\n      0x00\n        /* \"#utility.yul\":18769:18836   */\n      tag_385\n        /* \"#utility.yul\":18833:18835   */\n      0x1c\n        /* \"#utility.yul\":18828:18831   */\n      dup4\n        /* \"#utility.yul\":18769:18836   */\n      tag_194\n      jump\t// in\n    tag_385:\n        /* \"#utility.yul\":18762:18836   */\n      swap2\n      pop\n        /* \"#utility.yul\":18845:18938   */\n      tag_386\n        /* \"#utility.yul\":18934:18937   */\n      dup3\n        /* \"#utility.yul\":18845:18938   */\n      tag_219\n      jump\t// in\n    tag_386:\n        /* \"#utility.yul\":18963:18965   */\n      0x20\n        /* \"#utility.yul\":18958:18961   */\n      dup3\n        /* \"#utility.yul\":18954:18966   */\n      add\n        /* \"#utility.yul\":18947:18966   */\n      swap1\n      pop\n        /* \"#utility.yul\":18606:18972   */\n      swap2\n      swap1\n      pop\n      jump\t// out\n        /* \"#utility.yul\":18978:19397   */\n    tag_131:\n        /* \"#utility.yul\":19144:19148   */\n      0x00\n        /* \"#utility.yul\":19182:19184   */\n      0x20\n        /* \"#utility.yul\":19171:19180   */\n      dup3\n        /* \"#utility.yul\":19167:19185   */\n      add\n        /* \"#utility.yul\":19159:19185   */\n      swap1\n      pop\n        /* \"#utility.yul\":19231:19240   */\n      dup2\n        /* \"#utility.yul\":19225:19229   */\n      dup2\n        /* \"#utility.yul\":19221:19241   */\n      sub\n        /* \"#utility.yul\":19217:19218   */\n      0x00\n        /* \"#utility.yul\":19206:19215   */\n      dup4\n        /* \"#utility.yul\":19202:19219   */\n      add\n        /* \"#utility.yul\":19195:19242   */\n      mstore\n        /* \"#utility.yul\":19259:19390   */\n      tag_388\n        /* \"#utility.yul\":19385:19389   */\n      dup2\n        /* \"#utility.yul\":19259:19390   */\n      tag_220\n      jump\t// in\n    tag_388:\n        /* \"#utility.yul\":19251:19390   */\n      swap1\n      pop\n        /* \"#utility.yul\":18978:19397   */\n      swap2\n      swap1\n      pop\n      jump\t// out\n        /* \"#utility.yul\":19403:19845   */\n    tag_133:\n        /* \"#utility.yul\":19552:19556   */\n      0x00\n        /* \"#utility.yul\":19590:19592   */\n      0x60\n        /* \"#utility.yul\":19579:19588   */\n      dup3\n        /* \"#utility.yul\":19575:19593   */\n      add\n        /* \"#utility.yul\":19567:19593   */\n      swap1\n      pop\n        /* \"#utility.yul\":19603:19674   */\n      tag_390\n        /* \"#utility.yul\":19671:19672   */\n      0x00\n        /* \"#utility.yul\":19660:19669   */\n      dup4\n        /* \"#utility.yul\":19656:19673   */\n      add\n        /* \"#utility.yul\":19647:19653   */\n      dup7\n        /* \"#utility.yul\":19603:19674   */\n      tag_203\n      jump\t// in\n    tag_390:\n        /* \"#utility.yul\":19684:19756   */\n      tag_391\n        /* \"#utility.yul\":19752:19754   */\n      0x20\n        /* \"#utility.yul\":19741:19750   */\n      dup4\n        /* \"#utility.yul\":19737:19755   */\n      add\n        /* \"#utility.yul\":19728:19734   */\n      dup6\n        /* \"#utility.yul\":19684:19756   */\n      tag_203\n      jump\t// in\n    tag_391:\n        /* \"#utility.yul\":19766:19838   */\n      tag_392\n        /* \"#utility.yul\":19834:19836   */\n      0x40\n        /* \"#utility.yul\":19823:19832   */\n      dup4\n        /* \"#utility.yul\":19819:19837   */\n      add\n        /* \"#utility.yul\":19810:19816   */\n      dup5\n        /* \"#utility.yul\":19766:19838   */\n      tag_193\n      jump\t// in\n    tag_392:\n        /* \"#utility.yul\":19403:19845   */\n      swap5\n      swap4\n      pop\n      pop\n      pop\n      pop\n      jump\t// out\n        /* \"#utility.yul\":19851:20031   */\n    tag_221:\n        /* \"#utility.yul\":19899:19976   */\n      0x4e487b7100000000000000000000000000000000000000000000000000000000\n        /* \"#utility.yul\":19896:19897   */\n      0x00\n        /* \"#utility.yul\":19889:19977   */\n      mstore\n        /* \"#utility.yul\":19996:20000   */\n      0x11\n        /* \"#utility.yul\":19993:19994   */\n      0x04\n        /* \"#utility.yul\":19986:20001   */\n      mstore\n        /* \"#utility.yul\":20020:20024   */\n      0x24\n        /* \"#utility.yul\":20017:20018   */\n      0x00\n        /* \"#utility.yul\":20010:20025   */\n      revert\n        /* \"#utility.yul\":20037:20228   */\n    tag_139:\n        /* \"#utility.yul\":20077:20080   */\n      0x00\n        /* \"#utility.yul\":20096:20116   */\n      tag_395\n        /* \"#utility.yul\":20114:20115   */\n      dup3\n        /* \"#utility.yul\":20096:20116   */\n      tag_173\n      jump\t// in\n    tag_395:\n        /* \"#utility.yul\":20091:20116   */\n      swap2\n      pop\n        /* \"#utility.yul\":20130:20150   */\n      tag_396\n        /* \"#utility.yul\":20148:20149   */\n      dup4\n        /* \"#utility.yul\":20130:20150   */\n      tag_173\n      jump\t// in\n    tag_396:\n        /* \"#utility.yul\":20125:20150   */\n      swap3\n      pop\n        /* \"#utility.yul\":20173:20174   */\n      dup3\n        /* \"#utility.yul\":20170:20171   */\n      dup3\n        /* \"#utility.yul\":20166:20175   */\n      add\n        /* \"#utility.yul\":20159:20175   */\n      swap1\n      pop\n        /* \"#utility.yul\":20194:20197   */\n      dup1\n        /* \"#utility.yul\":20191:20192   */\n      dup3\n        /* \"#utility.yul\":20188:20198   */\n      gt\n        /* \"#utility.yul\":20185:20221   */\n      iszero\n      tag_397\n      jumpi\n        /* \"#utility.yul\":20201:20219   */\n      tag_398\n      tag_221\n      jump\t// in\n    tag_398:\n        /* \"#utility.yul\":20185:20221   */\n    tag_397:\n        /* \"#utility.yul\":20037:20228   */\n      swap3\n      swap2\n      pop\n      pop\n      jump\t// out\n        /* \"#utility.yul\":20234:20428   */\n    tag_165:\n        /* \"#utility.yul\":20274:20278   */\n      0x00\n        /* \"#utility.yul\":20294:20314   */\n      tag_400\n        /* \"#utility.yul\":20312:20313   */\n      dup3\n        /* \"#utility.yul\":20294:20314   */\n      tag_173\n      jump\t// in\n    tag_400:\n        /* \"#utility.yul\":20289:20314   */\n      swap2\n      pop\n        /* \"#utility.yul\":20328:20348   */\n      tag_401\n        /* \"#utility.yul\":20346:20347   */\n      dup4\n        /* \"#utility.yul\":20328:20348   */\n      tag_173\n      jump\t// in\n    tag_401:\n        /* \"#utility.yul\":20323:20348   */\n      swap3\n      pop\n        /* \"#utility.yul\":20372:20373   */\n      dup3\n        /* \"#utility.yul\":20369:20370   */\n      dup3\n        /* \"#utility.yul\":20365:20374   */\n      sub\n        /* \"#utility.yul\":20357:20374   */\n      swap1\n      pop\n        /* \"#utility.yul\":20396:20397   */\n      dup2\n        /* \"#utility.yul\":20390:20394   */\n      dup2\n        /* \"#utility.yul\":20387:20398   */\n      gt\n        /* \"#utility.yul\":20384:20421   */\n      iszero\n      tag_402\n      jumpi\n        /* \"#utility.yul\":20401:20419   */\n      tag_403\n      tag_221\n      jump\t// in\n    tag_403:\n        /* \"#utility.yul\":20384:20421   */\n    tag_402:\n        /* \"#utility.yul\":20234:20428   */\n      swap3\n      swap2\n      pop\n      pop\n      jump\t// out\n        /* \"#utility.yul\":20434:20844   */\n    tag_167:\n        /* \"#utility.yul\":20474:20481   */\n      0x00\n        /* \"#utility.yul\":20497:20517   */\n      tag_405\n        /* \"#utility.yul\":20515:20516   */\n      dup3\n        /* \"#utility.yul\":20497:20517   */\n      tag_173\n      jump\t// in\n    tag_405:\n        /* \"#utility.yul\":20492:20517   */\n      swap2\n      pop\n        /* \"#utility.yul\":20531:20551   */\n      tag_406\n        /* \"#utility.yul\":20549:20550   */\n      dup4\n        /* \"#utility.yul\":20531:20551   */\n      tag_173\n      jump\t// in\n    tag_406:\n        /* \"#utility.yul\":20526:20551   */\n      swap3\n      pop\n        /* \"#utility.yul\":20586:20587   */\n      dup3\n        /* \"#utility.yul\":20583:20584   */\n      dup3\n        /* \"#utility.yul\":20579:20588   */\n      mul\n        /* \"#utility.yul\":20608:20638   */\n      tag_407\n        /* \"#utility.yul\":20626:20637   */\n      dup2\n        /* \"#utility.yul\":20608:20638   */\n      tag_173\n      jump\t// in\n    tag_407:\n        /* \"#utility.yul\":20597:20638   */\n      swap2\n      pop\n        /* \"#utility.yul\":20787:20788   */\n      dup3\n        /* \"#utility.yul\":20778:20785   */\n      dup3\n        /* \"#utility.yul\":20774:20789   */\n      div\n        /* \"#utility.yul\":20771:20772   */\n      dup5\n        /* \"#utility.yul\":20768:20790   */\n      eq\n        /* \"#utility.yul\":20748:20749   */\n      dup4\n        /* \"#utility.yul\":20741:20750   */\n      iszero\n        /* \"#utility.yul\":20721:20804   */\n      or\n        /* \"#utility.yul\":20698:20837   */\n      tag_408\n      jumpi\n        /* \"#utility.yul\":20817:20835   */\n      tag_409\n      tag_221\n      jump\t// in\n    tag_409:\n        /* \"#utility.yul\":20698:20837   */\n    tag_408:\n        /* \"#utility.yul\":20482:20844   */\n      pop\n        /* \"#utility.yul\":20434:20844   */\n      swap3\n      swap2\n      pop\n      pop\n      jump\t// out\n\n    auxdata: 0xa264697066735822122061df30b315f13ed6181b2b6001c62fd0b403422a6b138cf311dd42f79228510164736f6c634300081c0033\n}\n",
				"bytecode": {
					"linkReferences": {},
					"object": "60c0604052683635c9adc5dea0000060809081525069152d02c7e14af680000060a090815250348015610030575f5ffd5b50604051611f10380380611f1083398181016040528101906100529190610176565b815f5f6101000a81548173ffffffffffffffffffffffffffffffffffffffff021916908373ffffffffffffffffffffffffffffffffffffffff1602179055508060015f6101000a81548173ffffffffffffffffffffffffffffffffffffffff021916908373ffffffffffffffffffffffffffffffffffffffff1602179055503360025f6101000a81548173ffffffffffffffffffffffffffffffffffffffff021916908373ffffffffffffffffffffffffffffffffffffffff16021790555050506101b4565b5f5ffd5b5f73ffffffffffffffffffffffffffffffffffffffff82169050919050565b5f6101458261011c565b9050919050565b6101558161013b565b811461015f575f5ffd5b50565b5f815190506101708161014c565b92915050565b5f5f6040838503121561018c5761018b610118565b5b5f61019985828601610162565b92505060206101aa85828601610162565b9150509250929050565b60805160a051611d3b6101d55f395f610b3f01525f610b140152611d3b5ff3fe608060405234801561000f575f5ffd5b5060043610610091575f3560e01c80637b0472f0116100645780637b0472f01461011d5780639be2f4ed14610139578063cfaaa26614610157578063dede8ef614610173578063efbabd911461019157610091565b806325d5971f146100955780634e71e0c8146100c55780636d6e31f7146100cf57806374b28101146100ff575b5f5ffd5b6100af60048036038101906100aa9190611395565b6101af565b6040516100bc91906113da565b60405180910390f35b6100cd6105af565b005b6100e960048036038101906100e49190611429565b61086e565b6040516100f691906114c5565b60405180910390f35b610107610a15565b6040516101149190611558565b60405180910390f35b61013760048036038101906101329190611571565b610a39565b005b610141610f27565b60405161014e9190611558565b60405180910390f35b610171600480360381019061016c91906115ea565b610f4c565b005b61017b61108c565b6040516101889190611624565b60405180910390f35b6101996111be565b6040516101a69190611624565b60405180910390f35b5f600360149054906101000a900460ff1615610200576040517f08c379a00000000000000000000000000000000000000000000000000000000081526004016101f790611697565b60405180910390fd5b6001600360146101000a81548160ff0219169083151502179055505f73ffffffffffffffffffffffffffffffffffffffff163373ffffffffffffffffffffffffffffffffffffffff1603610289576040517f08c379a0000000000000000000000000000000000000000000000000000000008152600401610280906116ff565b60405180910390fd5b60045f3373ffffffffffffffffffffffffffffffffffffffff1673ffffffffffffffffffffffffffffffffffffffff1681526020019081526020015f2080549050821061030b576040517f08c379a000000000000000000000000000000000000000000000000000000000815260040161030290611767565b60405180910390fd5b5f60045f3373ffffffffffffffffffffffffffffffffffffffff1673ffffffffffffffffffffffffffffffffffffffff1681526020019081526020015f20838154811061035b5761035a611785565b5b905f5260205f2090600402019050806002015442116103af576040517f08c379a00000000000000000000000000000000000000000000000000000000081526004016103a6906117fc565b60405180910390fd5b5f815f015490505f6103c9428460020154855f01546112f1565b90506001836003015f6101000a81548160ff0219169083151502179055505f835f01819055505f83600101819055505f83600201819055505f5f9054906101000a900473ffffffffffffffffffffffffffffffffffffffff1673ffffffffffffffffffffffffffffffffffffffff1663a9059cbb33846040518363ffffffff1660e01b815260040161045c929190611829565b6020604051808303815f875af1158015610478573d5f5f3e3d5ffd5b505050506040513d601f19601f8201168201806040525081019061049c919061187a565b5060015f9054906101000a900473ffffffffffffffffffffffffffffffffffffffff1673ffffffffffffffffffffffffffffffffffffffff1663a9059cbb33836040518363ffffffff1660e01b81526004016104f9929190611829565b6020604051808303815f875af1158015610515573d5f5f3e3d5ffd5b505050506040513d601f19601f82011682018060405250810190610539919061187a565b50803373ffffffffffffffffffffffffffffffffffffffff167ffb59733a8f0bd43414922fb86c6ffdd090e44935074086318980ca89221acc56846040516105819190611624565b60405180910390a3600193505050505f600360146101000a81548160ff021916908315150217905550919050565b60025f9054906101000a900473ffffffffffffffffffffffffffffffffffffffff1673ffffffffffffffffffffffffffffffffffffffff163373ffffffffffffffffffffffffffffffffffffffff161461063e576040517f08c379a0000000000000000000000000000000000000000000000000000000008152600401610635906118ef565b60405180910390fd5b5f73ffffffffffffffffffffffffffffffffffffffff163373ffffffffffffffffffffffffffffffffffffffff16036106ac576040517f08c379a00000000000000000000000000000000000000000000000000000000081526004016106a3906116ff565b60405180910390fd5b60035f9054906101000a900473ffffffffffffffffffffffffffffffffffffffff1673ffffffffffffffffffffffffffffffffffffffff163373ffffffffffffffffffffffffffffffffffffffff161461073b576040517f08c379a000000000000000000000000000000000000000000000000000000000815260040161073290611957565b60405180910390fd5b60025f9054906101000a900473ffffffffffffffffffffffffffffffffffffffff1673ffffffffffffffffffffffffffffffffffffffff167f0d18b5fd22306e373229b9439188228edca81207d1667f604daf6cef8aa3ee6760035f9054906101000a900473ffffffffffffffffffffffffffffffffffffffff166040516107c39190611975565b60405180910390a260035f9054906101000a900473ffffffffffffffffffffffffffffffffffffffff1660025f6101000a81548173ffffffffffffffffffffffffffffffffffffffff021916908373ffffffffffffffffffffffffffffffffffffffff1602179055505f60035f6101000a81548173ffffffffffffffffffffffffffffffffffffffff021916908373ffffffffffffffffffffffffffffffffffffffff160217905550565b610876611338565b5f73ffffffffffffffffffffffffffffffffffffffff163373ffffffffffffffffffffffffffffffffffffffff16036108e4576040517f08c379a00000000000000000000000000000000000000000000000000000000081526004016108db906116ff565b60405180910390fd5b60045f3373ffffffffffffffffffffffffffffffffffffffff1673ffffffffffffffffffffffffffffffffffffffff1681526020019081526020015f20805490508260ff1610610969576040517f08c379a000000000000000000000000000000000000000000000000000000000815260040161096090611767565b60405180910390fd5b5f60045f3373ffffffffffffffffffffffffffffffffffffffff1673ffffffffffffffffffffffffffffffffffffffff1681526020019081526020015f208360ff16815481106109bc576109bb611785565b5b905f5260205f2090600402019050806040518060800160405290815f82015481526020016001820154815260200160028201548152602001600382015f9054906101000a900460ff161515151581525050915050919050565b5f5f9054906101000a900473ffffffffffffffffffffffffffffffffffffffff1681565b600360149054906101000a900460ff1615610a89576040517f08c379a0000000000000000000000000000000000000000000000000000000008152600401610a8090611697565b60405180910390fd5b6001600360146101000a81548160ff0219169083151502179055505f73ffffffffffffffffffffffffffffffffffffffff163373ffffffffffffffffffffffffffffffffffffffff1603610b12576040517f08c379a0000000000000000000000000000000000000000000000000000000008152600401610b09906119d8565b60405180910390fd5b7f00000000000000000000000000000000000000000000000000000000000000008210158015610b6257507f00000000000000000000000000000000000000000000000000000000000000008211155b610ba1576040517f08c379a0000000000000000000000000000000000000000000000000000000008152600401610b9890611a40565b60405180910390fd5b5f8111610be3576040517f08c379a0000000000000000000000000000000000000000000000000000000008152600401610bda90611aa8565b60405180910390fd5b815f5f9054906101000a900473ffffffffffffffffffffffffffffffffffffffff1673ffffffffffffffffffffffffffffffffffffffff166370a08231336040518263ffffffff1660e01b8152600401610c3d9190611975565b602060405180830381865afa158015610c58573d5f5f3e3d5ffd5b505050506040513d601f19601f82011682018060405250810190610c7c9190611ada565b1015610cbd576040517f08c379a0000000000000000000000000000000000000000000000000000000008152600401610cb490611b4f565b60405180910390fd5b815f5f9054906101000a900473ffffffffffffffffffffffffffffffffffffffff1673ffffffffffffffffffffffffffffffffffffffff1663dd62ed3e33306040518363ffffffff1660e01b8152600401610d19929190611b6d565b602060405180830381865afa158015610d34573d5f5f3e3d5ffd5b505050506040513d601f19601f82011682018060405250810190610d589190611ada565b1015610d99576040517f08c379a0000000000000000000000000000000000000000000000000000000008152600401610d9090611bde565b60405180910390fd5b5f5f9054906101000a900473ffffffffffffffffffffffffffffffffffffffff1673ffffffffffffffffffffffffffffffffffffffff166323b872dd3330856040518463ffffffff1660e01b8152600401610df693929190611bfc565b6020604051808303815f875af1158015610e12573d5f5f3e3d5ffd5b505050506040513d601f19601f82011682018060405250810190610e36919061187a565b50610e3f611338565b82815f0181815250508142610e549190611c5e565b8160400181815250504281602001818152505060045f3373ffffffffffffffffffffffffffffffffffffffff1673ffffffffffffffffffffffffffffffffffffffff1681526020019081526020015f2081908060018154018082558091505060019003905f5260205f2090600402015f909190919091505f820151815f015560208201518160010155604082015181600201556060820151816003015f6101000a81548160ff0219169083151502179055505050505f600360146101000a81548160ff0219169083151502179055505050565b60015f9054906101000a900473ffffffffffffffffffffffffffffffffffffffff1681565b60025f9054906101000a900473ffffffffffffffffffffffffffffffffffffffff1673ffffffffffffffffffffffffffffffffffffffff163373ffffffffffffffffffffffffffffffffffffffff1614610fdb576040517f08c379a0000000000000000000000000000000000000000000000000000000008152600401610fd2906118ef565b60405180910390fd5b5f73ffffffffffffffffffffffffffffffffffffffff168173ffffffffffffffffffffffffffffffffffffffff1603611049576040517f08c379a0000000000000000000000000000000000000000000000000000000008152600401611040906116ff565b60405180910390fd5b8060035f6101000a81548173ffffffffffffffffffffffffffffffffffffffff021916908373ffffffffffffffffffffffffffffffffffffffff16021790555050565b5f60025f9054906101000a900473ffffffffffffffffffffffffffffffffffffffff1673ffffffffffffffffffffffffffffffffffffffff163373ffffffffffffffffffffffffffffffffffffffff161461111c576040517f08c379a0000000000000000000000000000000000000000000000000000000008152600401611113906118ef565b60405180910390fd5b5f5f5f9054906101000a900473ffffffffffffffffffffffffffffffffffffffff1673ffffffffffffffffffffffffffffffffffffffff166370a08231306040518263ffffffff1660e01b81526004016111769190611975565b602060405180830381865afa158015611191573d5f5f3e3d5ffd5b505050506040513d601f19601f820116820180604052508101906111b59190611ada565b90508091505090565b5f60025f9054906101000a900473ffffffffffffffffffffffffffffffffffffffff1673ffffffffffffffffffffffffffffffffffffffff163373ffffffffffffffffffffffffffffffffffffffff161461124e576040517f08c379a0000000000000000000000000000000000000000000000000000000008152600401611245906118ef565b60405180910390fd5b5f60015f9054906101000a900473ffffffffffffffffffffffffffffffffffffffff1673ffffffffffffffffffffffffffffffffffffffff166370a08231306040518263ffffffff1660e01b81526004016112a99190611975565b602060405180830381865afa1580156112c4573d5f5f3e3d5ffd5b505050506040513d601f19601f820116820180604052508101906112e89190611ada565b90508091505090565b5f5f84846112ff9190611c91565b90505f629896808285620f42406113169190611cc4565b6113209190611cc4565b61132a9190611cc4565b905080925050509392505050565b60405180608001604052805f81526020015f81526020015f81526020015f151581525090565b5f5ffd5b5f819050919050565b61137481611362565b811461137e575f5ffd5b50565b5f8135905061138f8161136b565b92915050565b5f602082840312156113aa576113a961135e565b5b5f6113b784828501611381565b91505092915050565b5f8115159050919050565b6113d4816113c0565b82525050565b5f6020820190506113ed5f8301846113cb565b92915050565b5f60ff82169050919050565b611408816113f3565b8114611412575f5ffd5b50565b5f81359050611423816113ff565b92915050565b5f6020828403121561143e5761143d61135e565b5b5f61144b84828501611415565b91505092915050565b61145d81611362565b82525050565b61146c816113c0565b82525050565b608082015f8201516114865f850182611454565b5060208201516114996020850182611454565b5060408201516114ac6040850182611454565b5060608201516114bf6060850182611463565b50505050565b5f6080820190506114d85f830184611472565b92915050565b5f73ffffffffffffffffffffffffffffffffffffffff82169050919050565b5f819050919050565b5f61152061151b611516846114de565b6114fd565b6114de565b9050919050565b5f61153182611506565b9050919050565b5f61154282611527565b9050919050565b61155281611538565b82525050565b5f60208201905061156b5f830184611549565b92915050565b5f5f604083850312156115875761158661135e565b5b5f61159485828601611381565b92505060206115a585828601611381565b9150509250929050565b5f6115b9826114de565b9050919050565b6115c9816115af565b81146115d3575f5ffd5b50565b5f813590506115e4816115c0565b92915050565b5f602082840312156115ff576115fe61135e565b5b5f61160c848285016115d6565b91505092915050565b61161e81611362565b82525050565b5f6020820190506116375f830184611615565b92915050565b5f82825260208201905092915050565b7f4e6f7420616c6c6f77656420746f2072652d656e7465720000000000000000005f82015250565b5f61168160178361163d565b915061168c8261164d565b602082019050919050565b5f6020820190508181035f8301526116ae81611675565b9050919050565b7f5a65726f206e6f7420616c6c6f776564000000000000000000000000000000005f82015250565b5f6116e960108361163d565b91506116f4826116b5565b602082019050919050565b5f6020820190508181035f830152611716816116dd565b9050919050565b7f4f7574206f662072616e676500000000000000000000000000000000000000005f82015250565b5f611751600c8361163d565b915061175c8261171d565b602082019050919050565b5f6020820190508181035f83015261177e81611745565b9050919050565b7f4e487b71000000000000000000000000000000000000000000000000000000005f52603260045260245ffd5b7f4e6f74207965742074696d6500000000000000000000000000000000000000005f82015250565b5f6117e6600c8361163d565b91506117f1826117b2565b602082019050919050565b5f6020820190508181035f830152611813816117da565b9050919050565b611823816115af565b82525050565b5f60408201905061183c5f83018561181a565b6118496020830184611615565b9392505050565b611859816113c0565b8114611863575f5ffd5b50565b5f8151905061187481611850565b92915050565b5f6020828403121561188f5761188e61135e565b5b5f61189c84828501611866565b91505092915050565b7f4f6e6c79206f776e65722063616e2061636365737300000000000000000000005f82015250565b5f6118d960158361163d565b91506118e4826118a5565b602082019050919050565b5f6020820190508181035f830152611906816118cd565b9050919050565b7f4e6f7420796f7572207475726e000000000000000000000000000000000000005f82015250565b5f611941600d8361163d565b915061194c8261190d565b602082019050919050565b5f6020820190508181035f83015261196e81611935565b9050919050565b5f6020820190506119885f83018461181a565b92915050565b7f5a65726f2061646472657373206e6f7420616c6c6f77656400000000000000005f82015250565b5f6119c260188361163d565b91506119cd8261198e565b602082019050919050565b5f6020820190508181035f8301526119ef816119b6565b9050919050565b7f416d6f756e74206973206f7574206f662072616e6765000000000000000000005f82015250565b5f611a2a60168361163d565b9150611a35826119f6565b602082019050919050565b5f6020820190508181035f830152611a5781611a1e565b9050919050565b7f4475726174696f6e20697320746f6f2073686f727400000000000000000000005f82015250565b5f611a9260158361163d565b9150611a9d82611a5e565b602082019050919050565b5f6020820190508181035f830152611abf81611a86565b9050919050565b5f81519050611ad48161136b565b92915050565b5f60208284031215611aef57611aee61135e565b5b5f611afc84828501611ac6565b91505092915050565b7f596f7520646f6e2774206861766520656e6f75676800000000000000000000005f82015250565b5f611b3960158361163d565b9150611b4482611b05565b602082019050919050565b5f6020820190508181035f830152611b6681611b2d565b9050919050565b5f604082019050611b805f83018561181a565b611b8d602083018461181a565b9392505050565b7f416d6f756e7420616c6c6f776564206973206e6f7420656e6f756768000000005f82015250565b5f611bc8601c8361163d565b9150611bd382611b94565b602082019050919050565b5f6020820190508181035f830152611bf581611bbc565b9050919050565b5f606082019050611c0f5f83018661181a565b611c1c602083018561181a565b611c296040830184611615565b949350505050565b7f4e487b71000000000000000000000000000000000000000000000000000000005f52601160045260245ffd5b5f611c6882611362565b9150611c7383611362565b9250828201905080821115611c8b57611c8a611c31565b5b92915050565b5f611c9b82611362565b9150611ca683611362565b9250828203905081811115611cbe57611cbd611c31565b5b92915050565b5f611cce82611362565b9150611cd983611362565b9250828202611ce781611362565b91508282048414831517611cfe57611cfd611c31565b5b509291505056fea264697066735822122061df30b315f13ed6181b2b6001c62fd0b403422a6b138cf311dd42f79228510164736f6c634300081c0033",
					"opcodes": "PUSH1 0xC0 PUSH1 0x40 MSTORE PUSH9 0x3635C9ADC5DEA00000 PUSH1 0x80 SWAP1 DUP2 MSTORE POP PUSH10 0x152D02C7E14AF6800000 PUSH1 0xA0 SWAP1 DUP2 MSTORE POP CALLVALUE DUP1 ISZERO PUSH2 0x30 JUMPI PUSH0 PUSH0 REVERT JUMPDEST POP PUSH1 0x40 MLOAD PUSH2 0x1F10 CODESIZE SUB DUP1 PUSH2 0x1F10 DUP4 CODECOPY DUP2 DUP2 ADD PUSH1 0x40 MSTORE DUP2 ADD SWAP1 PUSH2 0x52 SWAP2 SWAP1 PUSH2 0x176 JUMP JUMPDEST DUP2 PUSH0 PUSH0 PUSH2 0x100 EXP DUP2 SLOAD DUP2 PUSH20 0xFFFFFFFFFFFFFFFFFFFFFFFFFFFFFFFFFFFFFFFF MUL NOT AND SWAP1 DUP4 PUSH20 0xFFFFFFFFFFFFFFFFFFFFFFFFFFFFFFFFFFFFFFFF AND MUL OR SWAP1 SSTORE POP DUP1 PUSH1 0x1 PUSH0 PUSH2 0x100 EXP DUP2 SLOAD DUP2 PUSH20 0xFFFFFFFFFFFFFFFFFFFFFFFFFFFFFFFFFFFFFFFF MUL NOT AND SWAP1 DUP4 PUSH20 0xFFFFFFFFFFFFFFFFFFFFFFFFFFFFFFFFFFFFFFFF AND MUL OR SWAP1 SSTORE POP CALLER PUSH1 0x2 PUSH0 PUSH2 0x100 EXP DUP2 SLOAD DUP2 PUSH20 0xFFFFFFFFFFFFFFFFFFFFFFFFFFFFFFFFFFFFFFFF MUL NOT AND SWAP1 DUP4 PUSH20 0xFFFFFFFFFFFFFFFFFFFFFFFFFFFFFFFFFFFFFFFF AND MUL OR SWAP1 SSTORE POP POP POP PUSH2 0x1B4 JUMP JUMPDEST PUSH0 PUSH0 REVERT JUMPDEST PUSH0 PUSH20 0xFFFFFFFFFFFFFFFFFFFFFFFFFFFFFFFFFFFFFFFF DUP3 AND SWAP1 POP SWAP2 SWAP1 POP JUMP JUMPDEST PUSH0 PUSH2 0x145 DUP3 PUSH2 0x11C JUMP JUMPDEST SWAP1 POP SWAP2 SWAP1 POP JUMP JUMPDEST PUSH2 0x155 DUP2 PUSH2 0x13B JUMP JUMPDEST DUP2 EQ PUSH2 0x15F JUMPI PUSH0 PUSH0 REVERT JUMPDEST POP JUMP JUMPDEST PUSH0 DUP2 MLOAD SWAP1 POP PUSH2 0x170 DUP2 PUSH2 0x14C JUMP JUMPDEST SWAP3 SWAP2 POP POP JUMP JUMPDEST PUSH0 PUSH0 PUSH1 0x40 DUP4 DUP6 SUB SLT ISZERO PUSH2 0x18C JUMPI PUSH2 0x18B PUSH2 0x118 JUMP JUMPDEST JUMPDEST PUSH0 PUSH2 0x199 DUP6 DUP3 DUP7 ADD PUSH2 0x162 JUMP JUMPDEST SWAP3 POP POP PUSH1 0x20 PUSH2 0x1AA DUP6 DUP3 DUP7 ADD PUSH2 0x162 JUMP JUMPDEST SWAP2 POP POP SWAP3 POP SWAP3 SWAP1 POP JUMP JUMPDEST PUSH1 0x80 MLOAD PUSH1 0xA0 MLOAD PUSH2 0x1D3B PUSH2 0x1D5 PUSH0 CODECOPY PUSH0 PUSH2 0xB3F ADD MSTORE PUSH0 PUSH2 0xB14 ADD MSTORE PUSH2 0x1D3B PUSH0 RETURN INVALID PUSH1 0x80 PUSH1 0x40 MSTORE CALLVALUE DUP1 ISZERO PUSH2 0xF JUMPI PUSH0 PUSH0 REVERT JUMPDEST POP PUSH1 0x4 CALLDATASIZE LT PUSH2 0x91 JUMPI PUSH0 CALLDATALOAD PUSH1 0xE0 SHR DUP1 PUSH4 0x7B0472F0 GT PUSH2 0x64 JUMPI DUP1 PUSH4 0x7B0472F0 EQ PUSH2 0x11D JUMPI DUP1 PUSH4 0x9BE2F4ED EQ PUSH2 0x139 JUMPI DUP1 PUSH4 0xCFAAA266 EQ PUSH2 0x157 JUMPI DUP1 PUSH4 0xDEDE8EF6 EQ PUSH2 0x173 JUMPI DUP1 PUSH4 0xEFBABD91 EQ PUSH2 0x191 JUMPI PUSH2 0x91 JUMP JUMPDEST DUP1 PUSH4 0x25D5971F EQ PUSH2 0x95 JUMPI DUP1 PUSH4 0x4E71E0C8 EQ PUSH2 0xC5 JUMPI DUP1 PUSH4 0x6D6E31F7 EQ PUSH2 0xCF JUMPI DUP1 PUSH4 0x74B28101 EQ PUSH2 0xFF JUMPI JUMPDEST PUSH0 PUSH0 REVERT JUMPDEST PUSH2 0xAF PUSH1 0x4 DUP1 CALLDATASIZE SUB DUP2 ADD SWAP1 PUSH2 0xAA SWAP2 SWAP1 PUSH2 0x1395 JUMP JUMPDEST PUSH2 0x1AF JUMP JUMPDEST PUSH1 0x40 MLOAD PUSH2 0xBC SWAP2 SWAP1 PUSH2 0x13DA JUMP JUMPDEST PUSH1 0x40 MLOAD DUP1 SWAP2 SUB SWAP1 RETURN JUMPDEST PUSH2 0xCD PUSH2 0x5AF JUMP JUMPDEST STOP JUMPDEST PUSH2 0xE9 PUSH1 0x4 DUP1 CALLDATASIZE SUB DUP2 ADD SWAP1 PUSH2 0xE4 SWAP2 SWAP1 PUSH2 0x1429 JUMP JUMPDEST PUSH2 0x86E JUMP JUMPDEST PUSH1 0x40 MLOAD PUSH2 0xF6 SWAP2 SWAP1 PUSH2 0x14C5 JUMP JUMPDEST PUSH1 0x40 MLOAD DUP1 SWAP2 SUB SWAP1 RETURN JUMPDEST PUSH2 0x107 PUSH2 0xA15 JUMP JUMPDEST PUSH1 0x40 MLOAD PUSH2 0x114 SWAP2 SWAP1 PUSH2 0x1558 JUMP JUMPDEST PUSH1 0x40 MLOAD DUP1 SWAP2 SUB SWAP1 RETURN JUMPDEST PUSH2 0x137 PUSH1 0x4 DUP1 CALLDATASIZE SUB DUP2 ADD SWAP1 PUSH2 0x132 SWAP2 SWAP1 PUSH2 0x1571 JUMP JUMPDEST PUSH2 0xA39 JUMP JUMPDEST STOP JUMPDEST PUSH2 0x141 PUSH2 0xF27 JUMP JUMPDEST PUSH1 0x40 MLOAD PUSH2 0x14E SWAP2 SWAP1 PUSH2 0x1558 JUMP JUMPDEST PUSH1 0x40 MLOAD DUP1 SWAP2 SUB SWAP1 RETURN JUMPDEST PUSH2 0x171 PUSH1 0x4 DUP1 CALLDATASIZE SUB DUP2 ADD SWAP1 PUSH2 0x16C SWAP2 SWAP1 PUSH2 0x15EA JUMP JUMPDEST PUSH2 0xF4C JUMP JUMPDEST STOP JUMPDEST PUSH2 0x17B PUSH2 0x108C JUMP JUMPDEST PUSH1 0x40 MLOAD PUSH2 0x188 SWAP2 SWAP1 PUSH2 0x1624 JUMP JUMPDEST PUSH1 0x40 MLOAD DUP1 SWAP2 SUB SWAP1 RETURN JUMPDEST PUSH2 0x199 PUSH2 0x11BE JUMP JUMPDEST PUSH1 0x40 MLOAD PUSH2 0x1A6 SWAP2 SWAP1 PUSH2 0x1624 JUMP JUMPDEST PUSH1 0x40 MLOAD DUP1 SWAP2 SUB SWAP1 RETURN JUMPDEST PUSH0 PUSH1 0x3 PUSH1 0x14 SWAP1 SLOAD SWAP1 PUSH2 0x100 EXP SWAP1 DIV PUSH1 0xFF AND ISZERO PUSH2 0x200 JUMPI PUSH1 0x40 MLOAD PUSH32 0x8C379A000000000000000000000000000000000000000000000000000000000 DUP2 MSTORE PUSH1 0x4 ADD PUSH2 0x1F7 SWAP1 PUSH2 0x1697 JUMP JUMPDEST PUSH1 0x40 MLOAD DUP1 SWAP2 SUB SWAP1 REVERT JUMPDEST PUSH1 0x1 PUSH1 0x3 PUSH1 0x14 PUSH2 0x100 EXP DUP2 SLOAD DUP2 PUSH1 0xFF MUL NOT AND SWAP1 DUP4 ISZERO ISZERO MUL OR SWAP1 SSTORE POP PUSH0 PUSH20 0xFFFFFFFFFFFFFFFFFFFFFFFFFFFFFFFFFFFFFFFF AND CALLER PUSH20 0xFFFFFFFFFFFFFFFFFFFFFFFFFFFFFFFFFFFFFFFF AND SUB PUSH2 0x289 JUMPI PUSH1 0x40 MLOAD PUSH32 0x8C379A000000000000000000000000000000000000000000000000000000000 DUP2 MSTORE PUSH1 0x4 ADD PUSH2 0x280 SWAP1 PUSH2 0x16FF JUMP JUMPDEST PUSH1 0x40 MLOAD DUP1 SWAP2 SUB SWAP1 REVERT JUMPDEST PUSH1 0x4 PUSH0 CALLER PUSH20 0xFFFFFFFFFFFFFFFFFFFFFFFFFFFFFFFFFFFFFFFF AND PUSH20 0xFFFFFFFFFFFFFFFFFFFFFFFFFFFFFFFFFFFFFFFF AND DUP2 MSTORE PUSH1 0x20 ADD SWAP1 DUP2 MSTORE PUSH1 0x20 ADD PUSH0 KECCAK256 DUP1 SLOAD SWAP1 POP DUP3 LT PUSH2 0x30B JUMPI PUSH1 0x40 MLOAD PUSH32 0x8C379A000000000000000000000000000000000000000000000000000000000 DUP2 MSTORE PUSH1 0x4 ADD PUSH2 0x302 SWAP1 PUSH2 0x1767 JUMP JUMPDEST PUSH1 0x40 MLOAD DUP1 SWAP2 SUB SWAP1 REVERT JUMPDEST PUSH0 PUSH1 0x4 PUSH0 CALLER PUSH20 0xFFFFFFFFFFFFFFFFFFFFFFFFFFFFFFFFFFFFFFFF AND PUSH20 0xFFFFFFFFFFFFFFFFFFFFFFFFFFFFFFFFFFFFFFFF AND DUP2 MSTORE PUSH1 0x20 ADD SWAP1 DUP2 MSTORE PUSH1 0x20 ADD PUSH0 KECCAK256 DUP4 DUP2 SLOAD DUP2 LT PUSH2 0x35B JUMPI PUSH2 0x35A PUSH2 0x1785 JUMP JUMPDEST JUMPDEST SWAP1 PUSH0 MSTORE PUSH1 0x20 PUSH0 KECCAK256 SWAP1 PUSH1 0x4 MUL ADD SWAP1 POP DUP1 PUSH1 0x2 ADD SLOAD TIMESTAMP GT PUSH2 0x3AF JUMPI PUSH1 0x40 MLOAD PUSH32 0x8C379A000000000000000000000000000000000000000000000000000000000 DUP2 MSTORE PUSH1 0x4 ADD PUSH2 0x3A6 SWAP1 PUSH2 0x17FC JUMP JUMPDEST PUSH1 0x40 MLOAD DUP1 SWAP2 SUB SWAP1 REVERT JUMPDEST PUSH0 DUP2 PUSH0 ADD SLOAD SWAP1 POP PUSH0 PUSH2 0x3C9 TIMESTAMP DUP5 PUSH1 0x2 ADD SLOAD DUP6 PUSH0 ADD SLOAD PUSH2 0x12F1 JUMP JUMPDEST SWAP1 POP PUSH1 0x1 DUP4 PUSH1 0x3 ADD PUSH0 PUSH2 0x100 EXP DUP2 SLOAD DUP2 PUSH1 0xFF MUL NOT AND SWAP1 DUP4 ISZERO ISZERO MUL OR SWAP1 SSTORE POP PUSH0 DUP4 PUSH0 ADD DUP2 SWAP1 SSTORE POP PUSH0 DUP4 PUSH1 0x1 ADD DUP2 SWAP1 SSTORE POP PUSH0 DUP4 PUSH1 0x2 ADD DUP2 SWAP1 SSTORE POP PUSH0 PUSH0 SWAP1 SLOAD SWAP1 PUSH2 0x100 EXP SWAP1 DIV PUSH20 0xFFFFFFFFFFFFFFFFFFFFFFFFFFFFFFFFFFFFFFFF AND PUSH20 0xFFFFFFFFFFFFFFFFFFFFFFFFFFFFFFFFFFFFFFFF AND PUSH4 0xA9059CBB CALLER DUP5 PUSH1 0x40 MLOAD DUP4 PUSH4 0xFFFFFFFF AND PUSH1 0xE0 SHL DUP2 MSTORE PUSH1 0x4 ADD PUSH2 0x45C SWAP3 SWAP2 SWAP1 PUSH2 0x1829 JUMP JUMPDEST PUSH1 0x20 PUSH1 0x40 MLOAD DUP1 DUP4 SUB DUP2 PUSH0 DUP8 GAS CALL ISZERO DUP1 ISZERO PUSH2 0x478 JUMPI RETURNDATASIZE PUSH0 PUSH0 RETURNDATACOPY RETURNDATASIZE PUSH0 REVERT JUMPDEST POP POP POP POP PUSH1 0x40 MLOAD RETURNDATASIZE PUSH1 0x1F NOT PUSH1 0x1F DUP3 ADD AND DUP3 ADD DUP1 PUSH1 0x40 MSTORE POP DUP2 ADD SWAP1 PUSH2 0x49C SWAP2 SWAP1 PUSH2 0x187A JUMP JUMPDEST POP PUSH1 0x1 PUSH0 SWAP1 SLOAD SWAP1 PUSH2 0x100 EXP SWAP1 DIV PUSH20 0xFFFFFFFFFFFFFFFFFFFFFFFFFFFFFFFFFFFFFFFF AND PUSH20 0xFFFFFFFFFFFFFFFFFFFFFFFFFFFFFFFFFFFFFFFF AND PUSH4 0xA9059CBB CALLER DUP4 PUSH1 0x40 MLOAD DUP4 PUSH4 0xFFFFFFFF AND PUSH1 0xE0 SHL DUP2 MSTORE PUSH1 0x4 ADD PUSH2 0x4F9 SWAP3 SWAP2 SWAP1 PUSH2 0x1829 JUMP JUMPDEST PUSH1 0x20 PUSH1 0x40 MLOAD DUP1 DUP4 SUB DUP2 PUSH0 DUP8 GAS CALL ISZERO DUP1 ISZERO PUSH2 0x515 JUMPI RETURNDATASIZE PUSH0 PUSH0 RETURNDATACOPY RETURNDATASIZE PUSH0 REVERT JUMPDEST POP POP POP POP PUSH1 0x40 MLOAD RETURNDATASIZE PUSH1 0x1F NOT PUSH1 0x1F DUP3 ADD AND DUP3 ADD DUP1 PUSH1 0x40 MSTORE POP DUP2 ADD SWAP1 PUSH2 0x539 SWAP2 SWAP1 PUSH2 0x187A JUMP JUMPDEST POP DUP1 CALLER PUSH20 0xFFFFFFFFFFFFFFFFFFFFFFFFFFFFFFFFFFFFFFFF AND PUSH32 0xFB59733A8F0BD43414922FB86C6FFDD090E44935074086318980CA89221ACC56 DUP5 PUSH1 0x40 MLOAD PUSH2 0x581 SWAP2 SWAP1 PUSH2 0x1624 JUMP JUMPDEST PUSH1 0x40 MLOAD DUP1 SWAP2 SUB SWAP1 LOG3 PUSH1 0x1 SWAP4 POP POP POP POP PUSH0 PUSH1 0x3 PUSH1 0x14 PUSH2 0x100 EXP DUP2 SLOAD DUP2 PUSH1 0xFF MUL NOT AND SWAP1 DUP4 ISZERO ISZERO MUL OR SWAP1 SSTORE POP SWAP2 SWAP1 POP JUMP JUMPDEST PUSH1 0x2 PUSH0 SWAP1 SLOAD SWAP1 PUSH2 0x100 EXP SWAP1 DIV PUSH20 0xFFFFFFFFFFFFFFFFFFFFFFFFFFFFFFFFFFFFFFFF AND PUSH20 0xFFFFFFFFFFFFFFFFFFFFFFFFFFFFFFFFFFFFFFFF AND CALLER PUSH20 0xFFFFFFFFFFFFFFFFFFFFFFFFFFFFFFFFFFFFFFFF AND EQ PUSH2 0x63E JUMPI PUSH1 0x40 MLOAD PUSH32 0x8C379A000000000000000000000000000000000000000000000000000000000 DUP2 MSTORE PUSH1 0x4 ADD PUSH2 0x635 SWAP1 PUSH2 0x18EF JUMP JUMPDEST PUSH1 0x40 MLOAD DUP1 SWAP2 SUB SWAP1 REVERT JUMPDEST PUSH0 PUSH20 0xFFFFFFFFFFFFFFFFFFFFFFFFFFFFFFFFFFFFFFFF AND CALLER PUSH20 0xFFFFFFFFFFFFFFFFFFFFFFFFFFFFFFFFFFFFFFFF AND SUB PUSH2 0x6AC JUMPI PUSH1 0x40 MLOAD PUSH32 0x8C379A000000000000000000000000000000000000000000000000000000000 DUP2 MSTORE PUSH1 0x4 ADD PUSH2 0x6A3 SWAP1 PUSH2 0x16FF JUMP JUMPDEST PUSH1 0x40 MLOAD DUP1 SWAP2 SUB SWAP1 REVERT JUMPDEST PUSH1 0x3 PUSH0 SWAP1 SLOAD SWAP1 PUSH2 0x100 EXP SWAP1 DIV PUSH20 0xFFFFFFFFFFFFFFFFFFFFFFFFFFFFFFFFFFFFFFFF AND PUSH20 0xFFFFFFFFFFFFFFFFFFFFFFFFFFFFFFFFFFFFFFFF AND CALLER PUSH20 0xFFFFFFFFFFFFFFFFFFFFFFFFFFFFFFFFFFFFFFFF AND EQ PUSH2 0x73B JUMPI PUSH1 0x40 MLOAD PUSH32 0x8C379A000000000000000000000000000000000000000000000000000000000 DUP2 MSTORE PUSH1 0x4 ADD PUSH2 0x732 SWAP1 PUSH2 0x1957 JUMP JUMPDEST PUSH1 0x40 MLOAD DUP1 SWAP2 SUB SWAP1 REVERT JUMPDEST PUSH1 0x2 PUSH0 SWAP1 SLOAD SWAP1 PUSH2 0x100 EXP SWAP1 DIV PUSH20 0xFFFFFFFFFFFFFFFFFFFFFFFFFFFFFFFFFFFFFFFF AND PUSH20 0xFFFFFFFFFFFFFFFFFFFFFFFFFFFFFFFFFFFFFFFF AND PUSH32 0xD18B5FD22306E373229B9439188228EDCA81207D1667F604DAF6CEF8AA3EE67 PUSH1 0x3 PUSH0 SWAP1 SLOAD SWAP1 PUSH2 0x100 EXP SWAP1 DIV PUSH20 0xFFFFFFFFFFFFFFFFFFFFFFFFFFFFFFFFFFFFFFFF AND PUSH1 0x40 MLOAD PUSH2 0x7C3 SWAP2 SWAP1 PUSH2 0x1975 JUMP JUMPDEST PUSH1 0x40 MLOAD DUP1 SWAP2 SUB SWAP1 LOG2 PUSH1 0x3 PUSH0 SWAP1 SLOAD SWAP1 PUSH2 0x100 EXP SWAP1 DIV PUSH20 0xFFFFFFFFFFFFFFFFFFFFFFFFFFFFFFFFFFFFFFFF AND PUSH1 0x2 PUSH0 PUSH2 0x100 EXP DUP2 SLOAD DUP2 PUSH20 0xFFFFFFFFFFFFFFFFFFFFFFFFFFFFFFFFFFFFFFFF MUL NOT AND SWAP1 DUP4 PUSH20 0xFFFFFFFFFFFFFFFFFFFFFFFFFFFFFFFFFFFFFFFF AND MUL OR SWAP1 SSTORE POP PUSH0 PUSH1 0x3 PUSH0 PUSH2 0x100 EXP DUP2 SLOAD DUP2 PUSH20 0xFFFFFFFFFFFFFFFFFFFFFFFFFFFFFFFFFFFFFFFF MUL NOT AND SWAP1 DUP4 PUSH20 0xFFFFFFFFFFFFFFFFFFFFFFFFFFFFFFFFFFFFFFFF AND MUL OR SWAP1 SSTORE POP JUMP JUMPDEST PUSH2 0x876 PUSH2 0x1338 JUMP JUMPDEST PUSH0 PUSH20 0xFFFFFFFFFFFFFFFFFFFFFFFFFFFFFFFFFFFFFFFF AND CALLER PUSH20 0xFFFFFFFFFFFFFFFFFFFFFFFFFFFFFFFFFFFFFFFF AND SUB PUSH2 0x8E4 JUMPI PUSH1 0x40 MLOAD PUSH32 0x8C379A000000000000000000000000000000000000000000000000000000000 DUP2 MSTORE PUSH1 0x4 ADD PUSH2 0x8DB SWAP1 PUSH2 0x16FF JUMP JUMPDEST PUSH1 0x40 MLOAD DUP1 SWAP2 SUB SWAP1 REVERT JUMPDEST PUSH1 0x4 PUSH0 CALLER PUSH20 0xFFFFFFFFFFFFFFFFFFFFFFFFFFFFFFFFFFFFFFFF AND PUSH20 0xFFFFFFFFFFFFFFFFFFFFFFFFFFFFFFFFFFFFFFFF AND DUP2 MSTORE PUSH1 0x20 ADD SWAP1 DUP2 MSTORE PUSH1 0x20 ADD PUSH0 KECCAK256 DUP1 SLOAD SWAP1 POP DUP3 PUSH1 0xFF AND LT PUSH2 0x969 JUMPI PUSH1 0x40 MLOAD PUSH32 0x8C379A000000000000000000000000000000000000000000000000000000000 DUP2 MSTORE PUSH1 0x4 ADD PUSH2 0x960 SWAP1 PUSH2 0x1767 JUMP JUMPDEST PUSH1 0x40 MLOAD DUP1 SWAP2 SUB SWAP1 REVERT JUMPDEST PUSH0 PUSH1 0x4 PUSH0 CALLER PUSH20 0xFFFFFFFFFFFFFFFFFFFFFFFFFFFFFFFFFFFFFFFF AND PUSH20 0xFFFFFFFFFFFFFFFFFFFFFFFFFFFFFFFFFFFFFFFF AND DUP2 MSTORE PUSH1 0x20 ADD SWAP1 DUP2 MSTORE PUSH1 0x20 ADD PUSH0 KECCAK256 DUP4 PUSH1 0xFF AND DUP2 SLOAD DUP2 LT PUSH2 0x9BC JUMPI PUSH2 0x9BB PUSH2 0x1785 JUMP JUMPDEST JUMPDEST SWAP1 PUSH0 MSTORE PUSH1 0x20 PUSH0 KECCAK256 SWAP1 PUSH1 0x4 MUL ADD SWAP1 POP DUP1 PUSH1 0x40 MLOAD DUP1 PUSH1 0x80 ADD PUSH1 0x40 MSTORE SWAP1 DUP2 PUSH0 DUP3 ADD SLOAD DUP2 MSTORE PUSH1 0x20 ADD PUSH1 0x1 DUP3 ADD SLOAD DUP2 MSTORE PUSH1 0x20 ADD PUSH1 0x2 DUP3 ADD SLOAD DUP2 MSTORE PUSH1 0x20 ADD PUSH1 0x3 DUP3 ADD PUSH0 SWAP1 SLOAD SWAP1 PUSH2 0x100 EXP SWAP1 DIV PUSH1 0xFF AND ISZERO ISZERO ISZERO ISZERO DUP2 MSTORE POP POP SWAP2 POP POP SWAP2 SWAP1 POP JUMP JUMPDEST PUSH0 PUSH0 SWAP1 SLOAD SWAP1 PUSH2 0x100 EXP SWAP1 DIV PUSH20 0xFFFFFFFFFFFFFFFFFFFFFFFFFFFFFFFFFFFFFFFF AND DUP2 JUMP JUMPDEST PUSH1 0x3 PUSH1 0x14 SWAP1 SLOAD SWAP1 PUSH2 0x100 EXP SWAP1 DIV PUSH1 0xFF AND ISZERO PUSH2 0xA89 JUMPI PUSH1 0x40 MLOAD PUSH32 0x8C379A000000000000000000000000000000000000000000000000000000000 DUP2 MSTORE PUSH1 0x4 ADD PUSH2 0xA80 SWAP1 PUSH2 0x1697 JUMP JUMPDEST PUSH1 0x40 MLOAD DUP1 SWAP2 SUB SWAP1 REVERT JUMPDEST PUSH1 0x1 PUSH1 0x3 PUSH1 0x14 PUSH2 0x100 EXP DUP2 SLOAD DUP2 PUSH1 0xFF MUL NOT AND SWAP1 DUP4 ISZERO ISZERO MUL OR SWAP1 SSTORE POP PUSH0 PUSH20 0xFFFFFFFFFFFFFFFFFFFFFFFFFFFFFFFFFFFFFFFF AND CALLER PUSH20 0xFFFFFFFFFFFFFFFFFFFFFFFFFFFFFFFFFFFFFFFF AND SUB PUSH2 0xB12 JUMPI PUSH1 0x40 MLOAD PUSH32 0x8C379A000000000000000000000000000000000000000000000000000000000 DUP2 MSTORE PUSH1 0x4 ADD PUSH2 0xB09 SWAP1 PUSH2 0x19D8 JUMP JUMPDEST PUSH1 0x40 MLOAD DUP1 SWAP2 SUB SWAP1 REVERT JUMPDEST PUSH32 0x0 DUP3 LT ISZERO DUP1 ISZERO PUSH2 0xB62 JUMPI POP PUSH32 0x0 DUP3 GT ISZERO JUMPDEST PUSH2 0xBA1 JUMPI PUSH1 0x40 MLOAD PUSH32 0x8C379A000000000000000000000000000000000000000000000000000000000 DUP2 MSTORE PUSH1 0x4 ADD PUSH2 0xB98 SWAP1 PUSH2 0x1A40 JUMP JUMPDEST PUSH1 0x40 MLOAD DUP1 SWAP2 SUB SWAP1 REVERT JUMPDEST PUSH0 DUP2 GT PUSH2 0xBE3 JUMPI PUSH1 0x40 MLOAD PUSH32 0x8C379A000000000000000000000000000000000000000000000000000000000 DUP2 MSTORE PUSH1 0x4 ADD PUSH2 0xBDA SWAP1 PUSH2 0x1AA8 JUMP JUMPDEST PUSH1 0x40 MLOAD DUP1 SWAP2 SUB SWAP1 REVERT JUMPDEST DUP2 PUSH0 PUSH0 SWAP1 SLOAD SWAP1 PUSH2 0x100 EXP SWAP1 DIV PUSH20 0xFFFFFFFFFFFFFFFFFFFFFFFFFFFFFFFFFFFFFFFF AND PUSH20 0xFFFFFFFFFFFFFFFFFFFFFFFFFFFFFFFFFFFFFFFF AND PUSH4 0x70A08231 CALLER PUSH1 0x40 MLOAD DUP3 PUSH4 0xFFFFFFFF AND PUSH1 0xE0 SHL DUP2 MSTORE PUSH1 0x4 ADD PUSH2 0xC3D SWAP2 SWAP1 PUSH2 0x1975 JUMP JUMPDEST PUSH1 0x20 PUSH1 0x40 MLOAD DUP1 DUP4 SUB DUP2 DUP7 GAS STATICCALL ISZERO DUP1 ISZERO PUSH2 0xC58 JUMPI RETURNDATASIZE PUSH0 PUSH0 RETURNDATACOPY RETURNDATASIZE PUSH0 REVERT JUMPDEST POP POP POP POP PUSH1 0x40 MLOAD RETURNDATASIZE PUSH1 0x1F NOT PUSH1 0x1F DUP3 ADD AND DUP3 ADD DUP1 PUSH1 0x40 MSTORE POP DUP2 ADD SWAP1 PUSH2 0xC7C SWAP2 SWAP1 PUSH2 0x1ADA JUMP JUMPDEST LT ISZERO PUSH2 0xCBD JUMPI PUSH1 0x40 MLOAD PUSH32 0x8C379A000000000000000000000000000000000000000000000000000000000 DUP2 MSTORE PUSH1 0x4 ADD PUSH2 0xCB4 SWAP1 PUSH2 0x1B4F JUMP JUMPDEST PUSH1 0x40 MLOAD DUP1 SWAP2 SUB SWAP1 REVERT JUMPDEST DUP2 PUSH0 PUSH0 SWAP1 SLOAD SWAP1 PUSH2 0x100 EXP SWAP1 DIV PUSH20 0xFFFFFFFFFFFFFFFFFFFFFFFFFFFFFFFFFFFFFFFF AND PUSH20 0xFFFFFFFFFFFFFFFFFFFFFFFFFFFFFFFFFFFFFFFF AND PUSH4 0xDD62ED3E CALLER ADDRESS PUSH1 0x40 MLOAD DUP4 PUSH4 0xFFFFFFFF AND PUSH1 0xE0 SHL DUP2 MSTORE PUSH1 0x4 ADD PUSH2 0xD19 SWAP3 SWAP2 SWAP1 PUSH2 0x1B6D JUMP JUMPDEST PUSH1 0x20 PUSH1 0x40 MLOAD DUP1 DUP4 SUB DUP2 DUP7 GAS STATICCALL ISZERO DUP1 ISZERO PUSH2 0xD34 JUMPI RETURNDATASIZE PUSH0 PUSH0 RETURNDATACOPY RETURNDATASIZE PUSH0 REVERT JUMPDEST POP POP POP POP PUSH1 0x40 MLOAD RETURNDATASIZE PUSH1 0x1F NOT PUSH1 0x1F DUP3 ADD AND DUP3 ADD DUP1 PUSH1 0x40 MSTORE POP DUP2 ADD SWAP1 PUSH2 0xD58 SWAP2 SWAP1 PUSH2 0x1ADA JUMP JUMPDEST LT ISZERO PUSH2 0xD99 JUMPI PUSH1 0x40 MLOAD PUSH32 0x8C379A000000000000000000000000000000000000000000000000000000000 DUP2 MSTORE PUSH1 0x4 ADD PUSH2 0xD90 SWAP1 PUSH2 0x1BDE JUMP JUMPDEST PUSH1 0x40 MLOAD DUP1 SWAP2 SUB SWAP1 REVERT JUMPDEST PUSH0 PUSH0 SWAP1 SLOAD SWAP1 PUSH2 0x100 EXP SWAP1 DIV PUSH20 0xFFFFFFFFFFFFFFFFFFFFFFFFFFFFFFFFFFFFFFFF AND PUSH20 0xFFFFFFFFFFFFFFFFFFFFFFFFFFFFFFFFFFFFFFFF AND PUSH4 0x23B872DD CALLER ADDRESS DUP6 PUSH1 0x40 MLOAD DUP5 PUSH4 0xFFFFFFFF AND PUSH1 0xE0 SHL DUP2 MSTORE PUSH1 0x4 ADD PUSH2 0xDF6 SWAP4 SWAP3 SWAP2 SWAP1 PUSH2 0x1BFC JUMP JUMPDEST PUSH1 0x20 PUSH1 0x40 MLOAD DUP1 DUP4 SUB DUP2 PUSH0 DUP8 GAS CALL ISZERO DUP1 ISZERO PUSH2 0xE12 JUMPI RETURNDATASIZE PUSH0 PUSH0 RETURNDATACOPY RETURNDATASIZE PUSH0 REVERT JUMPDEST POP POP POP POP PUSH1 0x40 MLOAD RETURNDATASIZE PUSH1 0x1F NOT PUSH1 0x1F DUP3 ADD AND DUP3 ADD DUP1 PUSH1 0x40 MSTORE POP DUP2 ADD SWAP1 PUSH2 0xE36 SWAP2 SWAP1 PUSH2 0x187A JUMP JUMPDEST POP PUSH2 0xE3F PUSH2 0x1338 JUMP JUMPDEST DUP3 DUP2 PUSH0 ADD DUP2 DUP2 MSTORE POP POP DUP2 TIMESTAMP PUSH2 0xE54 SWAP2 SWAP1 PUSH2 0x1C5E JUMP JUMPDEST DUP2 PUSH1 0x40 ADD DUP2 DUP2 MSTORE POP POP TIMESTAMP DUP2 PUSH1 0x20 ADD DUP2 DUP2 MSTORE POP POP PUSH1 0x4 PUSH0 CALLER PUSH20 0xFFFFFFFFFFFFFFFFFFFFFFFFFFFFFFFFFFFFFFFF AND PUSH20 0xFFFFFFFFFFFFFFFFFFFFFFFFFFFFFFFFFFFFFFFF AND DUP2 MSTORE PUSH1 0x20 ADD SWAP1 DUP2 MSTORE PUSH1 0x20 ADD PUSH0 KECCAK256 DUP2 SWAP1 DUP1 PUSH1 0x1 DUP2 SLOAD ADD DUP1 DUP3 SSTORE DUP1 SWAP2 POP POP PUSH1 0x1 SWAP1 SUB SWAP1 PUSH0 MSTORE PUSH1 0x20 PUSH0 KECCAK256 SWAP1 PUSH1 0x4 MUL ADD PUSH0 SWAP1 SWAP2 SWAP1 SWAP2 SWAP1 SWAP2 POP PUSH0 DUP3 ADD MLOAD DUP2 PUSH0 ADD SSTORE PUSH1 0x20 DUP3 ADD MLOAD DUP2 PUSH1 0x1 ADD SSTORE PUSH1 0x40 DUP3 ADD MLOAD DUP2 PUSH1 0x2 ADD SSTORE PUSH1 0x60 DUP3 ADD MLOAD DUP2 PUSH1 0x3 ADD PUSH0 PUSH2 0x100 EXP DUP2 SLOAD DUP2 PUSH1 0xFF MUL NOT AND SWAP1 DUP4 ISZERO ISZERO MUL OR SWAP1 SSTORE POP POP POP POP PUSH0 PUSH1 0x3 PUSH1 0x14 PUSH2 0x100 EXP DUP2 SLOAD DUP2 PUSH1 0xFF MUL NOT AND SWAP1 DUP4 ISZERO ISZERO MUL OR SWAP1 SSTORE POP POP POP JUMP JUMPDEST PUSH1 0x1 PUSH0 SWAP1 SLOAD SWAP1 PUSH2 0x100 EXP SWAP1 DIV PUSH20 0xFFFFFFFFFFFFFFFFFFFFFFFFFFFFFFFFFFFFFFFF AND DUP2 JUMP JUMPDEST PUSH1 0x2 PUSH0 SWAP1 SLOAD SWAP1 PUSH2 0x100 EXP SWAP1 DIV PUSH20 0xFFFFFFFFFFFFFFFFFFFFFFFFFFFFFFFFFFFFFFFF AND PUSH20 0xFFFFFFFFFFFFFFFFFFFFFFFFFFFFFFFFFFFFFFFF AND CALLER PUSH20 0xFFFFFFFFFFFFFFFFFFFFFFFFFFFFFFFFFFFFFFFF AND EQ PUSH2 0xFDB JUMPI PUSH1 0x40 MLOAD PUSH32 0x8C379A000000000000000000000000000000000000000000000000000000000 DUP2 MSTORE PUSH1 0x4 ADD PUSH2 0xFD2 SWAP1 PUSH2 0x18EF JUMP JUMPDEST PUSH1 0x40 MLOAD DUP1 SWAP2 SUB SWAP1 REVERT JUMPDEST PUSH0 PUSH20 0xFFFFFFFFFFFFFFFFFFFFFFFFFFFFFFFFFFFFFFFF AND DUP2 PUSH20 0xFFFFFFFFFFFFFFFFFFFFFFFFFFFFFFFFFFFFFFFF AND SUB PUSH2 0x1049 JUMPI PUSH1 0x40 MLOAD PUSH32 0x8C379A000000000000000000000000000000000000000000000000000000000 DUP2 MSTORE PUSH1 0x4 ADD PUSH2 0x1040 SWAP1 PUSH2 0x16FF JUMP JUMPDEST PUSH1 0x40 MLOAD DUP1 SWAP2 SUB SWAP1 REVERT JUMPDEST DUP1 PUSH1 0x3 PUSH0 PUSH2 0x100 EXP DUP2 SLOAD DUP2 PUSH20 0xFFFFFFFFFFFFFFFFFFFFFFFFFFFFFFFFFFFFFFFF MUL NOT AND SWAP1 DUP4 PUSH20 0xFFFFFFFFFFFFFFFFFFFFFFFFFFFFFFFFFFFFFFFF AND MUL OR SWAP1 SSTORE POP POP JUMP JUMPDEST PUSH0 PUSH1 0x2 PUSH0 SWAP1 SLOAD SWAP1 PUSH2 0x100 EXP SWAP1 DIV PUSH20 0xFFFFFFFFFFFFFFFFFFFFFFFFFFFFFFFFFFFFFFFF AND PUSH20 0xFFFFFFFFFFFFFFFFFFFFFFFFFFFFFFFFFFFFFFFF AND CALLER PUSH20 0xFFFFFFFFFFFFFFFFFFFFFFFFFFFFFFFFFFFFFFFF AND EQ PUSH2 0x111C JUMPI PUSH1 0x40 MLOAD PUSH32 0x8C379A000000000000000000000000000000000000000000000000000000000 DUP2 MSTORE PUSH1 0x4 ADD PUSH2 0x1113 SWAP1 PUSH2 0x18EF JUMP JUMPDEST PUSH1 0x40 MLOAD DUP1 SWAP2 SUB SWAP1 REVERT JUMPDEST PUSH0 PUSH0 PUSH0 SWAP1 SLOAD SWAP1 PUSH2 0x100 EXP SWAP1 DIV PUSH20 0xFFFFFFFFFFFFFFFFFFFFFFFFFFFFFFFFFFFFFFFF AND PUSH20 0xFFFFFFFFFFFFFFFFFFFFFFFFFFFFFFFFFFFFFFFF AND PUSH4 0x70A08231 ADDRESS PUSH1 0x40 MLOAD DUP3 PUSH4 0xFFFFFFFF AND PUSH1 0xE0 SHL DUP2 MSTORE PUSH1 0x4 ADD PUSH2 0x1176 SWAP2 SWAP1 PUSH2 0x1975 JUMP JUMPDEST PUSH1 0x20 PUSH1 0x40 MLOAD DUP1 DUP4 SUB DUP2 DUP7 GAS STATICCALL ISZERO DUP1 ISZERO PUSH2 0x1191 JUMPI RETURNDATASIZE PUSH0 PUSH0 RETURNDATACOPY RETURNDATASIZE PUSH0 REVERT JUMPDEST POP POP POP POP PUSH1 0x40 MLOAD RETURNDATASIZE PUSH1 0x1F NOT PUSH1 0x1F DUP3 ADD AND DUP3 ADD DUP1 PUSH1 0x40 MSTORE POP DUP2 ADD SWAP1 PUSH2 0x11B5 SWAP2 SWAP1 PUSH2 0x1ADA JUMP JUMPDEST SWAP1 POP DUP1 SWAP2 POP POP SWAP1 JUMP JUMPDEST PUSH0 PUSH1 0x2 PUSH0 SWAP1 SLOAD SWAP1 PUSH2 0x100 EXP SWAP1 DIV PUSH20 0xFFFFFFFFFFFFFFFFFFFFFFFFFFFFFFFFFFFFFFFF AND PUSH20 0xFFFFFFFFFFFFFFFFFFFFFFFFFFFFFFFFFFFFFFFF AND CALLER PUSH20 0xFFFFFFFFFFFFFFFFFFFFFFFFFFFFFFFFFFFFFFFF AND EQ PUSH2 0x124E JUMPI PUSH1 0x40 MLOAD PUSH32 0x8C379A000000000000000000000000000000000000000000000000000000000 DUP2 MSTORE PUSH1 0x4 ADD PUSH2 0x1245 SWAP1 PUSH2 0x18EF JUMP JUMPDEST PUSH1 0x40 MLOAD DUP1 SWAP2 SUB SWAP1 REVERT JUMPDEST PUSH0 PUSH1 0x1 PUSH0 SWAP1 SLOAD SWAP1 PUSH2 0x100 EXP SWAP1 DIV PUSH20 0xFFFFFFFFFFFFFFFFFFFFFFFFFFFFFFFFFFFFFFFF AND PUSH20 0xFFFFFFFFFFFFFFFFFFFFFFFFFFFFFFFFFFFFFFFF AND PUSH4 0x70A08231 ADDRESS PUSH1 0x40 MLOAD DUP3 PUSH4 0xFFFFFFFF AND PUSH1 0xE0 SHL DUP2 MSTORE PUSH1 0x4 ADD PUSH2 0x12A9 SWAP2 SWAP1 PUSH2 0x1975 JUMP JUMPDEST PUSH1 0x20 PUSH1 0x40 MLOAD DUP1 DUP4 SUB DUP2 DUP7 GAS STATICCALL ISZERO DUP1 ISZERO PUSH2 0x12C4 JUMPI RETURNDATASIZE PUSH0 PUSH0 RETURNDATACOPY RETURNDATASIZE PUSH0 REVERT JUMPDEST POP POP POP POP PUSH1 0x40 MLOAD RETURNDATASIZE PUSH1 0x1F NOT PUSH1 0x1F DUP3 ADD AND DUP3 ADD DUP1 PUSH1 0x40 MSTORE POP DUP2 ADD SWAP1 PUSH2 0x12E8 SWAP2 SWAP1 PUSH2 0x1ADA JUMP JUMPDEST SWAP1 POP DUP1 SWAP2 POP POP SWAP1 JUMP JUMPDEST PUSH0 PUSH0 DUP5 DUP5 PUSH2 0x12FF SWAP2 SWAP1 PUSH2 0x1C91 JUMP JUMPDEST SWAP1 POP PUSH0 PUSH3 0x989680 DUP3 DUP6 PUSH3 0xF4240 PUSH2 0x1316 SWAP2 SWAP1 PUSH2 0x1CC4 JUMP JUMPDEST PUSH2 0x1320 SWAP2 SWAP1 PUSH2 0x1CC4 JUMP JUMPDEST PUSH2 0x132A SWAP2 SWAP1 PUSH2 0x1CC4 JUMP JUMPDEST SWAP1 POP DUP1 SWAP3 POP POP POP SWAP4 SWAP3 POP POP POP JUMP JUMPDEST PUSH1 0x40 MLOAD DUP1 PUSH1 0x80 ADD PUSH1 0x40 MSTORE DUP1 PUSH0 DUP2 MSTORE PUSH1 0x20 ADD PUSH0 DUP2 MSTORE PUSH1 0x20 ADD PUSH0 DUP2 MSTORE PUSH1 0x20 ADD PUSH0 ISZERO ISZERO DUP2 MSTORE POP SWAP1 JUMP JUMPDEST PUSH0 PUSH0 REVERT JUMPDEST PUSH0 DUP2 SWAP1 POP SWAP2 SWAP1 POP JUMP JUMPDEST PUSH2 0x1374 DUP2 PUSH2 0x1362 JUMP JUMPDEST DUP2 EQ PUSH2 0x137E JUMPI PUSH0 PUSH0 REVERT JUMPDEST POP JUMP JUMPDEST PUSH0 DUP2 CALLDATALOAD SWAP1 POP PUSH2 0x138F DUP2 PUSH2 0x136B JUMP JUMPDEST SWAP3 SWAP2 POP POP JUMP JUMPDEST PUSH0 PUSH1 0x20 DUP3 DUP5 SUB SLT ISZERO PUSH2 0x13AA JUMPI PUSH2 0x13A9 PUSH2 0x135E JUMP JUMPDEST JUMPDEST PUSH0 PUSH2 0x13B7 DUP5 DUP3 DUP6 ADD PUSH2 0x1381 JUMP JUMPDEST SWAP2 POP POP SWAP3 SWAP2 POP POP JUMP JUMPDEST PUSH0 DUP2 ISZERO ISZERO SWAP1 POP SWAP2 SWAP1 POP JUMP JUMPDEST PUSH2 0x13D4 DUP2 PUSH2 0x13C0 JUMP JUMPDEST DUP3 MSTORE POP POP JUMP JUMPDEST PUSH0 PUSH1 0x20 DUP3 ADD SWAP1 POP PUSH2 0x13ED PUSH0 DUP4 ADD DUP5 PUSH2 0x13CB JUMP JUMPDEST SWAP3 SWAP2 POP POP JUMP JUMPDEST PUSH0 PUSH1 0xFF DUP3 AND SWAP1 POP SWAP2 SWAP1 POP JUMP JUMPDEST PUSH2 0x1408 DUP2 PUSH2 0x13F3 JUMP JUMPDEST DUP2 EQ PUSH2 0x1412 JUMPI PUSH0 PUSH0 REVERT JUMPDEST POP JUMP JUMPDEST PUSH0 DUP2 CALLDATALOAD SWAP1 POP PUSH2 0x1423 DUP2 PUSH2 0x13FF JUMP JUMPDEST SWAP3 SWAP2 POP POP JUMP JUMPDEST PUSH0 PUSH1 0x20 DUP3 DUP5 SUB SLT ISZERO PUSH2 0x143E JUMPI PUSH2 0x143D PUSH2 0x135E JUMP JUMPDEST JUMPDEST PUSH0 PUSH2 0x144B DUP5 DUP3 DUP6 ADD PUSH2 0x1415 JUMP JUMPDEST SWAP2 POP POP SWAP3 SWAP2 POP POP JUMP JUMPDEST PUSH2 0x145D DUP2 PUSH2 0x1362 JUMP JUMPDEST DUP3 MSTORE POP POP JUMP JUMPDEST PUSH2 0x146C DUP2 PUSH2 0x13C0 JUMP JUMPDEST DUP3 MSTORE POP POP JUMP JUMPDEST PUSH1 0x80 DUP3 ADD PUSH0 DUP3 ADD MLOAD PUSH2 0x1486 PUSH0 DUP6 ADD DUP3 PUSH2 0x1454 JUMP JUMPDEST POP PUSH1 0x20 DUP3 ADD MLOAD PUSH2 0x1499 PUSH1 0x20 DUP6 ADD DUP3 PUSH2 0x1454 JUMP JUMPDEST POP PUSH1 0x40 DUP3 ADD MLOAD PUSH2 0x14AC PUSH1 0x40 DUP6 ADD DUP3 PUSH2 0x1454 JUMP JUMPDEST POP PUSH1 0x60 DUP3 ADD MLOAD PUSH2 0x14BF PUSH1 0x60 DUP6 ADD DUP3 PUSH2 0x1463 JUMP JUMPDEST POP POP POP POP JUMP JUMPDEST PUSH0 PUSH1 0x80 DUP3 ADD SWAP1 POP PUSH2 0x14D8 PUSH0 DUP4 ADD DUP5 PUSH2 0x1472 JUMP JUMPDEST SWAP3 SWAP2 POP POP JUMP JUMPDEST PUSH0 PUSH20 0xFFFFFFFFFFFFFFFFFFFFFFFFFFFFFFFFFFFFFFFF DUP3 AND SWAP1 POP SWAP2 SWAP1 POP JUMP JUMPDEST PUSH0 DUP2 SWAP1 POP SWAP2 SWAP1 POP JUMP JUMPDEST PUSH0 PUSH2 0x1520 PUSH2 0x151B PUSH2 0x1516 DUP5 PUSH2 0x14DE JUMP JUMPDEST PUSH2 0x14FD JUMP JUMPDEST PUSH2 0x14DE JUMP JUMPDEST SWAP1 POP SWAP2 SWAP1 POP JUMP JUMPDEST PUSH0 PUSH2 0x1531 DUP3 PUSH2 0x1506 JUMP JUMPDEST SWAP1 POP SWAP2 SWAP1 POP JUMP JUMPDEST PUSH0 PUSH2 0x1542 DUP3 PUSH2 0x1527 JUMP JUMPDEST SWAP1 POP SWAP2 SWAP1 POP JUMP JUMPDEST PUSH2 0x1552 DUP2 PUSH2 0x1538 JUMP JUMPDEST DUP3 MSTORE POP POP JUMP JUMPDEST PUSH0 PUSH1 0x20 DUP3 ADD SWAP1 POP PUSH2 0x156B PUSH0 DUP4 ADD DUP5 PUSH2 0x1549 JUMP JUMPDEST SWAP3 SWAP2 POP POP JUMP JUMPDEST PUSH0 PUSH0 PUSH1 0x40 DUP4 DUP6 SUB SLT ISZERO PUSH2 0x1587 JUMPI PUSH2 0x1586 PUSH2 0x135E JUMP JUMPDEST JUMPDEST PUSH0 PUSH2 0x1594 DUP6 DUP3 DUP7 ADD PUSH2 0x1381 JUMP JUMPDEST SWAP3 POP POP PUSH1 0x20 PUSH2 0x15A5 DUP6 DUP3 DUP7 ADD PUSH2 0x1381 JUMP JUMPDEST SWAP2 POP POP SWAP3 POP SWAP3 SWAP1 POP JUMP JUMPDEST PUSH0 PUSH2 0x15B9 DUP3 PUSH2 0x14DE JUMP JUMPDEST SWAP1 POP SWAP2 SWAP1 POP JUMP JUMPDEST PUSH2 0x15C9 DUP2 PUSH2 0x15AF JUMP JUMPDEST DUP2 EQ PUSH2 0x15D3 JUMPI PUSH0 PUSH0 REVERT JUMPDEST POP JUMP JUMPDEST PUSH0 DUP2 CALLDATALOAD SWAP1 POP PUSH2 0x15E4 DUP2 PUSH2 0x15C0 JUMP JUMPDEST SWAP3 SWAP2 POP POP JUMP JUMPDEST PUSH0 PUSH1 0x20 DUP3 DUP5 SUB SLT ISZERO PUSH2 0x15FF JUMPI PUSH2 0x15FE PUSH2 0x135E JUMP JUMPDEST JUMPDEST PUSH0 PUSH2 0x160C DUP5 DUP3 DUP6 ADD PUSH2 0x15D6 JUMP JUMPDEST SWAP2 POP POP SWAP3 SWAP2 POP POP JUMP JUMPDEST PUSH2 0x161E DUP2 PUSH2 0x1362 JUMP JUMPDEST DUP3 MSTORE POP POP JUMP JUMPDEST PUSH0 PUSH1 0x20 DUP3 ADD SWAP1 POP PUSH2 0x1637 PUSH0 DUP4 ADD DUP5 PUSH2 0x1615 JUMP JUMPDEST SWAP3 SWAP2 POP POP JUMP JUMPDEST PUSH0 DUP3 DUP3 MSTORE PUSH1 0x20 DUP3 ADD SWAP1 POP SWAP3 SWAP2 POP POP JUMP JUMPDEST PUSH32 0x4E6F7420616C6C6F77656420746F2072652D656E746572000000000000000000 PUSH0 DUP3 ADD MSTORE POP JUMP JUMPDEST PUSH0 PUSH2 0x1681 PUSH1 0x17 DUP4 PUSH2 0x163D JUMP JUMPDEST SWAP2 POP PUSH2 0x168C DUP3 PUSH2 0x164D JUMP JUMPDEST PUSH1 0x20 DUP3 ADD SWAP1 POP SWAP2 SWAP1 POP JUMP JUMPDEST PUSH0 PUSH1 0x20 DUP3 ADD SWAP1 POP DUP2 DUP2 SUB PUSH0 DUP4 ADD MSTORE PUSH2 0x16AE DUP2 PUSH2 0x1675 JUMP JUMPDEST SWAP1 POP SWAP2 SWAP1 POP JUMP JUMPDEST PUSH32 0x5A65726F206E6F7420616C6C6F77656400000000000000000000000000000000 PUSH0 DUP3 ADD MSTORE POP JUMP JUMPDEST PUSH0 PUSH2 0x16E9 PUSH1 0x10 DUP4 PUSH2 0x163D JUMP JUMPDEST SWAP2 POP PUSH2 0x16F4 DUP3 PUSH2 0x16B5 JUMP JUMPDEST PUSH1 0x20 DUP3 ADD SWAP1 POP SWAP2 SWAP1 POP JUMP JUMPDEST PUSH0 PUSH1 0x20 DUP3 ADD SWAP1 POP DUP2 DUP2 SUB PUSH0 DUP4 ADD MSTORE PUSH2 0x1716 DUP2 PUSH2 0x16DD JUMP JUMPDEST SWAP1 POP SWAP2 SWAP1 POP JUMP JUMPDEST PUSH32 0x4F7574206F662072616E67650000000000000000000000000000000000000000 PUSH0 DUP3 ADD MSTORE POP JUMP JUMPDEST PUSH0 PUSH2 0x1751 PUSH1 0xC DUP4 PUSH2 0x163D JUMP JUMPDEST SWAP2 POP PUSH2 0x175C DUP3 PUSH2 0x171D JUMP JUMPDEST PUSH1 0x20 DUP3 ADD SWAP1 POP SWAP2 SWAP1 POP JUMP JUMPDEST PUSH0 PUSH1 0x20 DUP3 ADD SWAP1 POP DUP2 DUP2 SUB PUSH0 DUP4 ADD MSTORE PUSH2 0x177E DUP2 PUSH2 0x1745 JUMP JUMPDEST SWAP1 POP SWAP2 SWAP1 POP JUMP JUMPDEST PUSH32 0x4E487B7100000000000000000000000000000000000000000000000000000000 PUSH0 MSTORE PUSH1 0x32 PUSH1 0x4 MSTORE PUSH1 0x24 PUSH0 REVERT JUMPDEST PUSH32 0x4E6F74207965742074696D650000000000000000000000000000000000000000 PUSH0 DUP3 ADD MSTORE POP JUMP JUMPDEST PUSH0 PUSH2 0x17E6 PUSH1 0xC DUP4 PUSH2 0x163D JUMP JUMPDEST SWAP2 POP PUSH2 0x17F1 DUP3 PUSH2 0x17B2 JUMP JUMPDEST PUSH1 0x20 DUP3 ADD SWAP1 POP SWAP2 SWAP1 POP JUMP JUMPDEST PUSH0 PUSH1 0x20 DUP3 ADD SWAP1 POP DUP2 DUP2 SUB PUSH0 DUP4 ADD MSTORE PUSH2 0x1813 DUP2 PUSH2 0x17DA JUMP JUMPDEST SWAP1 POP SWAP2 SWAP1 POP JUMP JUMPDEST PUSH2 0x1823 DUP2 PUSH2 0x15AF JUMP JUMPDEST DUP3 MSTORE POP POP JUMP JUMPDEST PUSH0 PUSH1 0x40 DUP3 ADD SWAP1 POP PUSH2 0x183C PUSH0 DUP4 ADD DUP6 PUSH2 0x181A JUMP JUMPDEST PUSH2 0x1849 PUSH1 0x20 DUP4 ADD DUP5 PUSH2 0x1615 JUMP JUMPDEST SWAP4 SWAP3 POP POP POP JUMP JUMPDEST PUSH2 0x1859 DUP2 PUSH2 0x13C0 JUMP JUMPDEST DUP2 EQ PUSH2 0x1863 JUMPI PUSH0 PUSH0 REVERT JUMPDEST POP JUMP JUMPDEST PUSH0 DUP2 MLOAD SWAP1 POP PUSH2 0x1874 DUP2 PUSH2 0x1850 JUMP JUMPDEST SWAP3 SWAP2 POP POP JUMP JUMPDEST PUSH0 PUSH1 0x20 DUP3 DUP5 SUB SLT ISZERO PUSH2 0x188F JUMPI PUSH2 0x188E PUSH2 0x135E JUMP JUMPDEST JUMPDEST PUSH0 PUSH2 0x189C DUP5 DUP3 DUP6 ADD PUSH2 0x1866 JUMP JUMPDEST SWAP2 POP POP SWAP3 SWAP2 POP POP JUMP JUMPDEST PUSH32 0x4F6E6C79206F776E65722063616E206163636573730000000000000000000000 PUSH0 DUP3 ADD MSTORE POP JUMP JUMPDEST PUSH0 PUSH2 0x18D9 PUSH1 0x15 DUP4 PUSH2 0x163D JUMP JUMPDEST SWAP2 POP PUSH2 0x18E4 DUP3 PUSH2 0x18A5 JUMP JUMPDEST PUSH1 0x20 DUP3 ADD SWAP1 POP SWAP2 SWAP1 POP JUMP JUMPDEST PUSH0 PUSH1 0x20 DUP3 ADD SWAP1 POP DUP2 DUP2 SUB PUSH0 DUP4 ADD MSTORE PUSH2 0x1906 DUP2 PUSH2 0x18CD JUMP JUMPDEST SWAP1 POP SWAP2 SWAP1 POP JUMP JUMPDEST PUSH32 0x4E6F7420796F7572207475726E00000000000000000000000000000000000000 PUSH0 DUP3 ADD MSTORE POP JUMP JUMPDEST PUSH0 PUSH2 0x1941 PUSH1 0xD DUP4 PUSH2 0x163D JUMP JUMPDEST SWAP2 POP PUSH2 0x194C DUP3 PUSH2 0x190D JUMP JUMPDEST PUSH1 0x20 DUP3 ADD SWAP1 POP SWAP2 SWAP1 POP JUMP JUMPDEST PUSH0 PUSH1 0x20 DUP3 ADD SWAP1 POP DUP2 DUP2 SUB PUSH0 DUP4 ADD MSTORE PUSH2 0x196E DUP2 PUSH2 0x1935 JUMP JUMPDEST SWAP1 POP SWAP2 SWAP1 POP JUMP JUMPDEST PUSH0 PUSH1 0x20 DUP3 ADD SWAP1 POP PUSH2 0x1988 PUSH0 DUP4 ADD DUP5 PUSH2 0x181A JUMP JUMPDEST SWAP3 SWAP2 POP POP JUMP JUMPDEST PUSH32 0x5A65726F2061646472657373206E6F7420616C6C6F7765640000000000000000 PUSH0 DUP3 ADD MSTORE POP JUMP JUMPDEST PUSH0 PUSH2 0x19C2 PUSH1 0x18 DUP4 PUSH2 0x163D JUMP JUMPDEST SWAP2 POP PUSH2 0x19CD DUP3 PUSH2 0x198E JUMP JUMPDEST PUSH1 0x20 DUP3 ADD SWAP1 POP SWAP2 SWAP1 POP JUMP JUMPDEST PUSH0 PUSH1 0x20 DUP3 ADD SWAP1 POP DUP2 DUP2 SUB PUSH0 DUP4 ADD MSTORE PUSH2 0x19EF DUP2 PUSH2 0x19B6 JUMP JUMPDEST SWAP1 POP SWAP2 SWAP1 POP JUMP JUMPDEST PUSH32 0x416D6F756E74206973206F7574206F662072616E676500000000000000000000 PUSH0 DUP3 ADD MSTORE POP JUMP JUMPDEST PUSH0 PUSH2 0x1A2A PUSH1 0x16 DUP4 PUSH2 0x163D JUMP JUMPDEST SWAP2 POP PUSH2 0x1A35 DUP3 PUSH2 0x19F6 JUMP JUMPDEST PUSH1 0x20 DUP3 ADD SWAP1 POP SWAP2 SWAP1 POP JUMP JUMPDEST PUSH0 PUSH1 0x20 DUP3 ADD SWAP1 POP DUP2 DUP2 SUB PUSH0 DUP4 ADD MSTORE PUSH2 0x1A57 DUP2 PUSH2 0x1A1E JUMP JUMPDEST SWAP1 POP SWAP2 SWAP1 POP JUMP JUMPDEST PUSH32 0x4475726174696F6E20697320746F6F2073686F72740000000000000000000000 PUSH0 DUP3 ADD MSTORE POP JUMP JUMPDEST PUSH0 PUSH2 0x1A92 PUSH1 0x15 DUP4 PUSH2 0x163D JUMP JUMPDEST SWAP2 POP PUSH2 0x1A9D DUP3 PUSH2 0x1A5E JUMP JUMPDEST PUSH1 0x20 DUP3 ADD SWAP1 POP SWAP2 SWAP1 POP JUMP JUMPDEST PUSH0 PUSH1 0x20 DUP3 ADD SWAP1 POP DUP2 DUP2 SUB PUSH0 DUP4 ADD MSTORE PUSH2 0x1ABF DUP2 PUSH2 0x1A86 JUMP JUMPDEST SWAP1 POP SWAP2 SWAP1 POP JUMP JUMPDEST PUSH0 DUP2 MLOAD SWAP1 POP PUSH2 0x1AD4 DUP2 PUSH2 0x136B JUMP JUMPDEST SWAP3 SWAP2 POP POP JUMP JUMPDEST PUSH0 PUSH1 0x20 DUP3 DUP5 SUB SLT ISZERO PUSH2 0x1AEF JUMPI PUSH2 0x1AEE PUSH2 0x135E JUMP JUMPDEST JUMPDEST PUSH0 PUSH2 0x1AFC DUP5 DUP3 DUP6 ADD PUSH2 0x1AC6 JUMP JUMPDEST SWAP2 POP POP SWAP3 SWAP2 POP POP JUMP JUMPDEST PUSH32 0x596F7520646F6E2774206861766520656E6F7567680000000000000000000000 PUSH0 DUP3 ADD MSTORE POP JUMP JUMPDEST PUSH0 PUSH2 0x1B39 PUSH1 0x15 DUP4 PUSH2 0x163D JUMP JUMPDEST SWAP2 POP PUSH2 0x1B44 DUP3 PUSH2 0x1B05 JUMP JUMPDEST PUSH1 0x20 DUP3 ADD SWAP1 POP SWAP2 SWAP1 POP JUMP JUMPDEST PUSH0 PUSH1 0x20 DUP3 ADD SWAP1 POP DUP2 DUP2 SUB PUSH0 DUP4 ADD MSTORE PUSH2 0x1B66 DUP2 PUSH2 0x1B2D JUMP JUMPDEST SWAP1 POP SWAP2 SWAP1 POP JUMP JUMPDEST PUSH0 PUSH1 0x40 DUP3 ADD SWAP1 POP PUSH2 0x1B80 PUSH0 DUP4 ADD DUP6 PUSH2 0x181A JUMP JUMPDEST PUSH2 0x1B8D PUSH1 0x20 DUP4 ADD DUP5 PUSH2 0x181A JUMP JUMPDEST SWAP4 SWAP3 POP POP POP JUMP JUMPDEST PUSH32 0x416D6F756E7420616C6C6F776564206973206E6F7420656E6F75676800000000 PUSH0 DUP3 ADD MSTORE POP JUMP JUMPDEST PUSH0 PUSH2 0x1BC8 PUSH1 0x1C DUP4 PUSH2 0x163D JUMP JUMPDEST SWAP2 POP PUSH2 0x1BD3 DUP3 PUSH2 0x1B94 JUMP JUMPDEST PUSH1 0x20 DUP3 ADD SWAP1 POP SWAP2 SWAP1 POP JUMP JUMPDEST PUSH0 PUSH1 0x20 DUP3 ADD SWAP1 POP DUP2 DUP2 SUB PUSH0 DUP4 ADD MSTORE PUSH2 0x1BF5 DUP2 PUSH2 0x1BBC JUMP JUMPDEST SWAP1 POP SWAP2 SWAP1 POP JUMP JUMPDEST PUSH0 PUSH1 0x60 DUP3 ADD SWAP1 POP PUSH2 0x1C0F PUSH0 DUP4 ADD DUP7 PUSH2 0x181A JUMP JUMPDEST PUSH2 0x1C1C PUSH1 0x20 DUP4 ADD DUP6 PUSH2 0x181A JUMP JUMPDEST PUSH2 0x1C29 PUSH1 0x40 DUP4 ADD DUP5 PUSH2 0x1615 JUMP JUMPDEST SWAP5 SWAP4 POP POP POP POP JUMP JUMPDEST PUSH32 0x4E487B7100000000000000000000000000000000000000000000000000000000 PUSH0 MSTORE PUSH1 0x11 PUSH1 0x4 MSTORE PUSH1 0x24 PUSH0 REVERT JUMPDEST PUSH0 PUSH2 0x1C68 DUP3 PUSH2 0x1362 JUMP JUMPDEST SWAP2 POP PUSH2 0x1C73 DUP4 PUSH2 0x1362 JUMP JUMPDEST SWAP3 POP DUP3 DUP3 ADD SWAP1 POP DUP1 DUP3 GT ISZERO PUSH2 0x1C8B JUMPI PUSH2 0x1C8A PUSH2 0x1C31 JUMP JUMPDEST JUMPDEST SWAP3 SWAP2 POP POP JUMP JUMPDEST PUSH0 PUSH2 0x1C9B DUP3 PUSH2 0x1362 JUMP JUMPDEST SWAP2 POP PUSH2 0x1CA6 DUP4 PUSH2 0x1362 JUMP JUMPDEST SWAP3 POP DUP3 DUP3 SUB SWAP1 POP DUP2 DUP2 GT ISZERO PUSH2 0x1CBE JUMPI PUSH2 0x1CBD PUSH2 0x1C31 JUMP JUMPDEST JUMPDEST SWAP3 SWAP2 POP POP JUMP JUMPDEST PUSH0 PUSH2 0x1CCE DUP3 PUSH2 0x1362 JUMP JUMPDEST SWAP2 POP PUSH2 0x1CD9 DUP4 PUSH2 0x1362 JUMP JUMPDEST SWAP3 POP DUP3 DUP3 MUL PUSH2 0x1CE7 DUP2 PUSH2 0x1362 JUMP JUMPDEST SWAP2 POP DUP3 DUP3 DIV DUP5 EQ DUP4 ISZERO OR PUSH2 0x1CFE JUMPI PUSH2 0x1CFD PUSH2 0x1C31 JUMP JUMPDEST JUMPDEST POP SWAP3 SWAP2 POP POP JUMP INVALID LOG2 PUSH5 0x6970667358 0x22 SLT KECCAK256 PUSH2 0xDF30 0xB3 ISZERO CALL RETURNDATACOPY 0xD6 XOR SHL 0x2B PUSH1 0x1 0xC6 0x2F 0xD0 0xB4 SUB TIMESTAMP 0x2A PUSH12 0x138CF311DD42F79228510164 PUSH20 0x6F6C634300081C00330000000000000000000000 "
				},
				"gasEstimates": {
					"creation": {
						"codeDepositCost": "1496600",
						"executionCost": "infinite",
						"totalCost": "infinite"
					},
					"external": {
						"MPXContract()": "infinite",
						"TransferOwnership(address)": "26962",
						"XFIContract()": "infinite",
						"claimOwnership()": "61093",
						"getContractMPXBalance()": "infinite",
						"getContractXFIBalance()": "infinite",
						"getStakerInfo(uint8)": "infinite",
						"stake(uint256,uint256)": "infinite",
						"withdrawStake(uint256)": "infinite"
					},
					"internal": {
						"calculateReward(uint256,uint256,uint256)": "infinite"
					}
				},
				"methodIdentifiers": {
					"MPXContract()": "9be2f4ed",
					"TransferOwnership(address)": "cfaaa266",
					"XFIContract()": "74b28101",
					"claimOwnership()": "4e71e0c8",
					"getContractMPXBalance()": "efbabd91",
					"getContractXFIBalance()": "dede8ef6",
					"getStakerInfo(uint8)": "6d6e31f7",
					"stake(uint256,uint256)": "7b0472f0",
					"withdrawStake(uint256)": "25d5971f"
				}
			},
			"storageLayout": {
				"storage": [
					{
						"astId": 74,
						"contract": "contracts/StakeXFI.sol:StakeXFI",
						"label": "XFIContract",
						"offset": 0,
						"slot": "0",
						"type": "t_contract(IERC20)68"
					},
					{
						"astId": 77,
						"contract": "contracts/StakeXFI.sol:StakeXFI",
						"label": "MPXContract",
						"offset": 0,
						"slot": "1",
						"type": "t_contract(IERC20)68"
					},
					{
						"astId": 79,
						"contract": "contracts/StakeXFI.sol:StakeXFI",
						"label": "owner",
						"offset": 0,
						"slot": "2",
						"type": "t_address"
					},
					{
						"astId": 81,
						"contract": "contracts/StakeXFI.sol:StakeXFI",
						"label": "newOwner",
						"offset": 0,
						"slot": "3",
						"type": "t_address"
					},
					{
						"astId": 83,
						"contract": "contracts/StakeXFI.sol:StakeXFI",
						"label": "locked",
						"offset": 20,
						"slot": "3",
						"type": "t_bool"
					},
					{
						"astId": 114,
						"contract": "contracts/StakeXFI.sol:StakeXFI",
						"label": "stakers",
						"offset": 0,
						"slot": "4",
						"type": "t_mapping(t_address,t_array(t_struct(Staking)108_storage)dyn_storage)"
					}
				],
				"types": {
					"t_address": {
						"encoding": "inplace",
						"label": "address",
						"numberOfBytes": "20"
					},
					"t_array(t_struct(Staking)108_storage)dyn_storage": {
						"base": "t_struct(Staking)108_storage",
						"encoding": "dynamic_array",
						"label": "struct StakeXFI.Staking[]",
						"numberOfBytes": "32"
					},
					"t_bool": {
						"encoding": "inplace",
						"label": "bool",
						"numberOfBytes": "1"
					},
					"t_contract(IERC20)68": {
						"encoding": "inplace",
						"label": "contract IERC20",
						"numberOfBytes": "20"
					},
					"t_mapping(t_address,t_array(t_struct(Staking)108_storage)dyn_storage)": {
						"encoding": "mapping",
						"key": "t_address",
						"label": "mapping(address => struct StakeXFI.Staking[])",
						"numberOfBytes": "32",
						"value": "t_array(t_struct(Staking)108_storage)dyn_storage"
					},
					"t_struct(Staking)108_storage": {
						"encoding": "inplace",
						"label": "struct StakeXFI.Staking",
						"members": [
							{
								"astId": 101,
								"contract": "contracts/StakeXFI.sol:StakeXFI",
								"label": "amount",
								"offset": 0,
								"slot": "0",
								"type": "t_uint256"
							},
							{
								"astId": 103,
								"contract": "contracts/StakeXFI.sol:StakeXFI",
								"label": "startTime",
								"offset": 0,
								"slot": "1",
								"type": "t_uint256"
							},
							{
								"astId": 105,
								"contract": "contracts/StakeXFI.sol:StakeXFI",
								"label": "duration",
								"offset": 0,
								"slot": "2",
								"type": "t_uint256"
							},
							{
								"astId": 107,
								"contract": "contracts/StakeXFI.sol:StakeXFI",
								"label": "hasWithdrawn",
								"offset": 0,
								"slot": "3",
								"type": "t_bool"
							}
						],
						"numberOfBytes": "128"
					},
					"t_uint256": {
						"encoding": "inplace",
						"label": "uint256",
						"numberOfBytes": "32"
					}
				}
			},
			"userdoc": {
				"kind": "user",
				"methods": {},
				"version": 1
			}
		}
	}
}