{
	"contracts/SwapTokens.sol": {
		"SwapToken": {
			"abi": [
				{
					"inputs": [
						{
							"internalType": "contract IERC20",
							"name": "_nairaTokenCAddr",
							"type": "address"
						},
						{
							"internalType": "contract IERC20",
							"name": "_usdtTokenCAddr",
							"type": "address"
						}
					],
					"stateMutability": "nonpayable",
					"type": "constructor"
				},
				{
					"anonymous": false,
					"inputs": [
						{
							"indexed": true,
							"internalType": "address",
							"name": "from",
							"type": "address"
						},
						{
							"indexed": true,
							"internalType": "address",
							"name": "to",
							"type": "address"
						},
						{
							"indexed": false,
							"internalType": "uint256",
							"name": "amount",
							"type": "uint256"
						}
					],
					"name": "SwapSuccessful",
					"type": "event"
				},
				{
					"anonymous": false,
					"inputs": [
						{
							"indexed": true,
							"internalType": "address",
							"name": "owner",
							"type": "address"
						},
						{
							"indexed": true,
							"internalType": "enum SwapToken.Currency",
							"name": "_currencyName",
							"type": "uint8"
						},
						{
							"indexed": false,
							"internalType": "uint256",
							"name": "amount",
							"type": "uint256"
						}
					],
					"name": "WithdrawSuccessful",
					"type": "event"
				},
				{
					"inputs": [],
					"name": "getContractBalance",
					"outputs": [
						{
							"internalType": "uint256",
							"name": "contractUsdtbal_",
							"type": "uint256"
						},
						{
							"internalType": "uint256",
							"name": "contractNairabal_",
							"type": "uint256"
						}
					],
					"stateMutability": "view",
					"type": "function"
				},
				{
					"inputs": [],
					"name": "nairaToken",
					"outputs": [
						{
							"internalType": "contract IERC20",
							"name": "",
							"type": "address"
						}
					],
					"stateMutability": "view",
					"type": "function"
				},
				{
					"inputs": [
						{
							"internalType": "address",
							"name": "_from",
							"type": "address"
						},
						{
							"internalType": "uint256",
							"name": "_amount",
							"type": "uint256"
						}
					],
					"name": "swapNairaToUsdt",
					"outputs": [],
					"stateMutability": "nonpayable",
					"type": "function"
				},
				{
					"inputs": [
						{
							"internalType": "address",
							"name": "_from",
							"type": "address"
						},
						{
							"internalType": "uint256",
							"name": "_amount",
							"type": "uint256"
						}
					],
					"name": "swapUsdtToNaira",
					"outputs": [],
					"stateMutability": "nonpayable",
					"type": "function"
				},
				{
					"inputs": [],
					"name": "usdtToken",
					"outputs": [
						{
							"internalType": "contract IERC20",
							"name": "",
							"type": "address"
						}
					],
					"stateMutability": "view",
					"type": "function"
				},
				{
					"inputs": [
						{
							"internalType": "enum SwapToken.Currency",
							"name": "_currencyName",
							"type": "uint8"
						},
						{
							"internalType": "uint256",
							"name": "_amount",
							"type": "uint256"
						}
					],
					"name": "withdraw",
					"outputs": [],
					"stateMutability": "nonpayable",
					"type": "function"
				}
			],
			"devdoc": {
				"kind": "dev",
				"methods": {},
				"version": 1
			},
			"evm": {
				"assembly": "    /* \"contracts/SwapTokens.sol\":104:4628  contract SwapToken {... */\n  mstore(0x40, 0x80)\n    /* \"contracts/SwapTokens.sol\":403:578  constructor(IERC20 _nairaTokenCAddr, IERC20 _usdtTokenCAddr){... */\n  callvalue\n  dup1\n  iszero\n  tag_1\n  jumpi\n  revert(0x00, 0x00)\ntag_1:\n  pop\n  mload(0x40)\n  sub(codesize, bytecodeSize)\n  dup1\n  bytecodeSize\n  dup4\n  codecopy\n  dup2\n  dup2\n  add\n  0x40\n  mstore\n  dup2\n  add\n  swap1\n  tag_2\n  swap2\n  swap1\n  tag_3\n  jump\t// in\ntag_2:\n    /* \"contracts/SwapTokens.sol\":487:503  _nairaTokenCAddr */\n  dup2\n    /* \"contracts/SwapTokens.sol\":474:484  nairaToken */\n  0x00\n  0x00\n    /* \"contracts/SwapTokens.sol\":474:503  nairaToken = _nairaTokenCAddr */\n  0x0100\n  exp\n  dup2\n  sload\n  dup2\n  0xffffffffffffffffffffffffffffffffffffffff\n  mul\n  not\n  and\n  swap1\n  dup4\n  0xffffffffffffffffffffffffffffffffffffffff\n  and\n  mul\n  or\n  swap1\n  sstore\n  pop\n    /* \"contracts/SwapTokens.sol\":526:541  _usdtTokenCAddr */\n  dup1\n    /* \"contracts/SwapTokens.sol\":514:523  usdtToken */\n  0x01\n  0x00\n    /* \"contracts/SwapTokens.sol\":514:541  usdtToken = _usdtTokenCAddr */\n  0x0100\n  exp\n  dup2\n  sload\n  dup2\n  0xffffffffffffffffffffffffffffffffffffffff\n  mul\n  not\n  and\n  swap1\n  dup4\n  0xffffffffffffffffffffffffffffffffffffffff\n  and\n  mul\n  or\n  swap1\n  sstore\n  pop\n    /* \"contracts/SwapTokens.sol\":560:570  msg.sender */\n  caller\n    /* \"contracts/SwapTokens.sol\":552:557  owner */\n  0x02\n  0x00\n    /* \"contracts/SwapTokens.sol\":552:570  owner = msg.sender */\n  0x0100\n  exp\n  dup2\n  sload\n  dup2\n  0xffffffffffffffffffffffffffffffffffffffff\n  mul\n  not\n  and\n  swap1\n  dup4\n  0xffffffffffffffffffffffffffffffffffffffff\n  and\n  mul\n  or\n  swap1\n  sstore\n  pop\n    /* \"contracts/SwapTokens.sol\":403:578  constructor(IERC20 _nairaTokenCAddr, IERC20 _usdtTokenCAddr){... */\n  pop\n  pop\n    /* \"contracts/SwapTokens.sol\":104:4628  contract SwapToken {... */\n  jump(tag_6)\n    /* \"#utility.yul\":88:205   */\ntag_8:\n    /* \"#utility.yul\":197:198   */\n  0x00\n    /* \"#utility.yul\":194:195   */\n  0x00\n    /* \"#utility.yul\":187:199   */\n  revert\n    /* \"#utility.yul\":334:460   */\ntag_10:\n    /* \"#utility.yul\":371:378   */\n  0x00\n    /* \"#utility.yul\":411:453   */\n  0xffffffffffffffffffffffffffffffffffffffff\n    /* \"#utility.yul\":404:409   */\n  dup3\n    /* \"#utility.yul\":400:454   */\n  and\n    /* \"#utility.yul\":389:454   */\n  swap1\n  pop\n    /* \"#utility.yul\":334:460   */\n  swap2\n  swap1\n  pop\n  jump\t// out\n    /* \"#utility.yul\":466:562   */\ntag_11:\n    /* \"#utility.yul\":503:510   */\n  0x00\n    /* \"#utility.yul\":532:556   */\n  tag_21\n    /* \"#utility.yul\":550:555   */\n  dup3\n    /* \"#utility.yul\":532:556   */\n  tag_10\n  jump\t// in\ntag_21:\n    /* \"#utility.yul\":521:556   */\n  swap1\n  pop\n    /* \"#utility.yul\":466:562   */\n  swap2\n  swap1\n  pop\n  jump\t// out\n    /* \"#utility.yul\":568:677   */\ntag_12:\n    /* \"#utility.yul\":618:625   */\n  0x00\n    /* \"#utility.yul\":647:671   */\n  tag_23\n    /* \"#utility.yul\":665:670   */\n  dup3\n    /* \"#utility.yul\":647:671   */\n  tag_11\n  jump\t// in\ntag_23:\n    /* \"#utility.yul\":636:671   */\n  swap1\n  pop\n    /* \"#utility.yul\":568:677   */\n  swap2\n  swap1\n  pop\n  jump\t// out\n    /* \"#utility.yul\":683:831   */\ntag_13:\n    /* \"#utility.yul\":769:806   */\n  tag_25\n    /* \"#utility.yul\":800:805   */\n  dup2\n    /* \"#utility.yul\":769:806   */\n  tag_12\n  jump\t// in\ntag_25:\n    /* \"#utility.yul\":762:767   */\n  dup2\n    /* \"#utility.yul\":759:807   */\n  eq\n    /* \"#utility.yul\":749:825   */\n  tag_26\n  jumpi\n    /* \"#utility.yul\":821:822   */\n  0x00\n    /* \"#utility.yul\":818:819   */\n  0x00\n    /* \"#utility.yul\":811:823   */\n  revert\n    /* \"#utility.yul\":749:825   */\ntag_26:\n    /* \"#utility.yul\":683:831   */\n  pop\n  jump\t// out\n    /* \"#utility.yul\":837:1006   */\ntag_14:\n    /* \"#utility.yul\":907:912   */\n  0x00\n    /* \"#utility.yul\":938:944   */\n  dup2\n    /* \"#utility.yul\":932:945   */\n  mload\n    /* \"#utility.yul\":923:945   */\n  swap1\n  pop\n    /* \"#utility.yul\":954:1000   */\n  tag_28\n    /* \"#utility.yul\":994:999   */\n  dup2\n    /* \"#utility.yul\":954:1000   */\n  tag_13\n  jump\t// in\ntag_28:\n    /* \"#utility.yul\":837:1006   */\n  swap3\n  swap2\n  pop\n  pop\n  jump\t// out\n    /* \"#utility.yul\":1012:1571   */\ntag_3:\n    /* \"#utility.yul\":1117:1123   */\n  0x00\n    /* \"#utility.yul\":1125:1131   */\n  0x00\n    /* \"#utility.yul\":1174:1176   */\n  0x40\n    /* \"#utility.yul\":1162:1171   */\n  dup4\n    /* \"#utility.yul\":1153:1160   */\n  dup6\n    /* \"#utility.yul\":1149:1172   */\n  sub\n    /* \"#utility.yul\":1145:1177   */\n  slt\n    /* \"#utility.yul\":1142:1261   */\n  iszero\n  tag_30\n  jumpi\n    /* \"#utility.yul\":1180:1259   */\n  tag_31\n  tag_8\n  jump\t// in\ntag_31:\n    /* \"#utility.yul\":1142:1261   */\ntag_30:\n    /* \"#utility.yul\":1300:1301   */\n  0x00\n    /* \"#utility.yul\":1325:1402   */\n  tag_32\n    /* \"#utility.yul\":1394:1401   */\n  dup6\n    /* \"#utility.yul\":1385:1391   */\n  dup3\n    /* \"#utility.yul\":1374:1383   */\n  dup7\n    /* \"#utility.yul\":1370:1392   */\n  add\n    /* \"#utility.yul\":1325:1402   */\n  tag_14\n  jump\t// in\ntag_32:\n    /* \"#utility.yul\":1315:1402   */\n  swap3\n  pop\n    /* \"#utility.yul\":1271:1412   */\n  pop\n    /* \"#utility.yul\":1451:1453   */\n  0x20\n    /* \"#utility.yul\":1477:1554   */\n  tag_33\n    /* \"#utility.yul\":1546:1553   */\n  dup6\n    /* \"#utility.yul\":1537:1543   */\n  dup3\n    /* \"#utility.yul\":1526:1535   */\n  dup7\n    /* \"#utility.yul\":1522:1544   */\n  add\n    /* \"#utility.yul\":1477:1554   */\n  tag_14\n  jump\t// in\ntag_33:\n    /* \"#utility.yul\":1467:1554   */\n  swap2\n  pop\n    /* \"#utility.yul\":1422:1564   */\n  pop\n    /* \"#utility.yul\":1012:1571   */\n  swap3\n  pop\n  swap3\n  swap1\n  pop\n  jump\t// out\n    /* \"contracts/SwapTokens.sol\":104:4628  contract SwapToken {... */\ntag_6:\n  dataSize(sub_0)\n  dup1\n  dataOffset(sub_0)\n  0x00\n  codecopy\n  0x00\n  return\nstop\n\nsub_0: assembly {\n        /* \"contracts/SwapTokens.sol\":104:4628  contract SwapToken {... */\n      mstore(0x40, 0x80)\n      callvalue\n      dup1\n      iszero\n      tag_1\n      jumpi\n      revert(0x00, 0x00)\n    tag_1:\n      pop\n      jumpi(tag_2, lt(calldatasize, 0x04))\n      shr(0xe0, calldataload(0x00))\n      dup1\n      0x3e2b4bf8\n      eq\n      tag_3\n      jumpi\n      dup1\n      0x3f489914\n      eq\n      tag_4\n      jumpi\n      dup1\n      0x5e8f4826\n      eq\n      tag_5\n      jumpi\n      dup1\n      0x6f9fb98a\n      eq\n      tag_6\n      jumpi\n      dup1\n      0xa98ad46c\n      eq\n      tag_7\n      jumpi\n      dup1\n      0xfe2371cb\n      eq\n      tag_8\n      jumpi\n    tag_2:\n      revert(0x00, 0x00)\n        /* \"contracts/SwapTokens.sol\":2168:3194  function swapUsdtToNaira(address _from, uint256 _amount) external reentrancyGuard {... */\n    tag_3:\n      tag_9\n      0x04\n      dup1\n      calldatasize\n      sub\n      dup2\n      add\n      swap1\n      tag_10\n      swap2\n      swap1\n      tag_11\n      jump\t// in\n    tag_10:\n      tag_12\n      jump\t// in\n    tag_9:\n      stop\n        /* \"contracts/SwapTokens.sol\":3476:4174  function withdraw(Currency _currencyName, uint256 _amount) external onlyOwner  {... */\n    tag_4:\n      tag_13\n      0x04\n      dup1\n      calldatasize\n      sub\n      dup2\n      add\n      swap1\n      tag_14\n      swap2\n      swap1\n      tag_15\n      jump\t// in\n    tag_14:\n      tag_16\n      jump\t// in\n    tag_13:\n      stop\n        /* \"contracts/SwapTokens.sol\":1048:2154  function swapNairaToUsdt(address _from, uint256 _amount) external reentrancyGuard  {... */\n    tag_5:\n      tag_17\n      0x04\n      dup1\n      calldatasize\n      sub\n      dup2\n      add\n      swap1\n      tag_18\n      swap2\n      swap1\n      tag_11\n      jump\t// in\n    tag_18:\n      tag_19\n      jump\t// in\n    tag_17:\n      stop\n        /* \"contracts/SwapTokens.sol\":3210:3464  function getContractBalance() external view onlyOwner returns (uint256 contractUsdtbal_, uint256 contractNairabal_) {... */\n    tag_6:\n      tag_20\n      tag_21\n      jump\t// in\n    tag_20:\n      mload(0x40)\n      tag_22\n      swap3\n      swap2\n      swap1\n      tag_23\n      jump\t// in\n    tag_22:\n      mload(0x40)\n      dup1\n      swap2\n      sub\n      swap1\n      return\n        /* \"contracts/SwapTokens.sol\":169:192  IERC20 public usdtToken */\n    tag_7:\n      tag_24\n      tag_25\n      jump\t// in\n    tag_24:\n      mload(0x40)\n      tag_26\n      swap2\n      swap1\n      tag_27\n      jump\t// in\n    tag_26:\n      mload(0x40)\n      dup1\n      swap2\n      sub\n      swap1\n      return\n        /* \"contracts/SwapTokens.sol\":138:162  IERC20 public nairaToken */\n    tag_8:\n      tag_28\n      tag_29\n      jump\t// in\n    tag_28:\n      mload(0x40)\n      tag_30\n      swap2\n      swap1\n      tag_27\n      jump\t// in\n    tag_30:\n      mload(0x40)\n      dup1\n      swap2\n      sub\n      swap1\n      return\n        /* \"contracts/SwapTokens.sol\":2168:3194  function swapUsdtToNaira(address _from, uint256 _amount) external reentrancyGuard {... */\n    tag_12:\n        /* \"contracts/SwapTokens.sol\":824:830  locked */\n      0x02\n      0x14\n      swap1\n      sload\n      swap1\n      0x0100\n      exp\n      swap1\n      div\n      0xff\n      and\n        /* \"contracts/SwapTokens.sol\":823:830  !locked */\n      iszero\n        /* \"contracts/SwapTokens.sol\":815:857  require(!locked, \"Reentrancy not allowed\") */\n      tag_32\n      jumpi\n      mload(0x40)\n      0x08c379a000000000000000000000000000000000000000000000000000000000\n      dup2\n      mstore\n      0x04\n      add\n      tag_33\n      swap1\n      tag_34\n      jump\t// in\n    tag_33:\n      mload(0x40)\n      dup1\n      swap2\n      sub\n      swap1\n      revert\n    tag_32:\n        /* \"contracts/SwapTokens.sol\":877:881  true */\n      0x01\n        /* \"contracts/SwapTokens.sol\":868:874  locked */\n      0x02\n      0x14\n        /* \"contracts/SwapTokens.sol\":868:881  locked = true */\n      0x0100\n      exp\n      dup2\n      sload\n      dup2\n      0xff\n      mul\n      not\n      and\n      swap1\n      dup4\n      iszero\n      iszero\n      mul\n      or\n      swap1\n      sstore\n      pop\n        /* \"contracts/SwapTokens.sol\":2287:2288  0 */\n      0x00\n        /* \"contracts/SwapTokens.sol\":2265:2289  msg.sender != address(0) */\n      0xffffffffffffffffffffffffffffffffffffffff\n      and\n        /* \"contracts/SwapTokens.sol\":2265:2275  msg.sender */\n      caller\n        /* \"contracts/SwapTokens.sol\":2265:2289  msg.sender != address(0) */\n      0xffffffffffffffffffffffffffffffffffffffff\n      and\n      sub\n        /* \"contracts/SwapTokens.sol\":2257:2310  require(msg.sender != address(0), \"Zero not allowed\") */\n      tag_36\n      jumpi\n      mload(0x40)\n      0x08c379a000000000000000000000000000000000000000000000000000000000\n      dup2\n      mstore\n      0x04\n      add\n      tag_37\n      swap1\n      tag_38\n      jump\t// in\n    tag_37:\n      mload(0x40)\n      dup1\n      swap2\n      sub\n      swap1\n      revert\n    tag_36:\n        /* \"contracts/SwapTokens.sol\":2335:2336  0 */\n      0x00\n        /* \"contracts/SwapTokens.sol\":2325:2332  _amount */\n      dup2\n        /* \"contracts/SwapTokens.sol\":2325:2336  _amount > 0 */\n      gt\n        /* \"contracts/SwapTokens.sol\":2317:2364  require(_amount > 0, \"Cannot swap zero amount\") */\n      tag_39\n      jumpi\n      mload(0x40)\n      0x08c379a000000000000000000000000000000000000000000000000000000000\n      dup2\n      mstore\n      0x04\n      add\n      tag_40\n      swap1\n      tag_41\n      jump\t// in\n    tag_40:\n      mload(0x40)\n      dup1\n      swap2\n      sub\n      swap1\n      revert\n    tag_39:\n        /* \"contracts/SwapTokens.sol\":2379:2401  uint256 standardAmount */\n      0x00\n        /* \"contracts/SwapTokens.sol\":2414:2419  10**6 */\n      0x0f4240\n        /* \"contracts/SwapTokens.sol\":2404:2411  _amount */\n      dup3\n        /* \"contracts/SwapTokens.sol\":2404:2419  _amount * 10**6 */\n      tag_42\n      swap2\n      swap1\n      tag_43\n      jump\t// in\n    tag_42:\n        /* \"contracts/SwapTokens.sol\":2379:2419  uint256 standardAmount = _amount * 10**6 */\n      swap1\n      pop\n        /* \"contracts/SwapTokens.sol\":2428:2443  uint256 userBal */\n      0x00\n        /* \"contracts/SwapTokens.sol\":2446:2455  usdtToken */\n      0x01\n      0x00\n      swap1\n      sload\n      swap1\n      0x0100\n      exp\n      swap1\n      div\n      0xffffffffffffffffffffffffffffffffffffffff\n      and\n        /* \"contracts/SwapTokens.sol\":2446:2465  usdtToken.balanceOf */\n      0xffffffffffffffffffffffffffffffffffffffff\n      and\n      0x70a08231\n        /* \"contracts/SwapTokens.sol\":2466:2476  msg.sender */\n      caller\n        /* \"contracts/SwapTokens.sol\":2446:2477  usdtToken.balanceOf(msg.sender) */\n      mload(0x40)\n      dup3\n      0xffffffff\n      and\n      0xe0\n      shl\n      dup2\n      mstore\n      0x04\n      add\n      tag_44\n      swap2\n      swap1\n      tag_45\n      jump\t// in\n    tag_44:\n      0x20\n      mload(0x40)\n      dup1\n      dup4\n      sub\n      dup2\n      dup7\n      gas\n      staticcall\n      iszero\n      dup1\n      iszero\n      tag_47\n      jumpi\n      returndatacopy(0x00, 0x00, returndatasize)\n      revert(0x00, returndatasize)\n    tag_47:\n      pop\n      pop\n      pop\n      pop\n      mload(0x40)\n      returndatasize\n      not(0x1f)\n      0x1f\n      dup3\n      add\n      and\n      dup3\n      add\n      dup1\n      0x40\n      mstore\n      pop\n      dup2\n      add\n      swap1\n      tag_48\n      swap2\n      swap1\n      tag_49\n      jump\t// in\n    tag_48:\n        /* \"contracts/SwapTokens.sol\":2428:2477  uint256 userBal = usdtToken.balanceOf(msg.sender) */\n      swap1\n      pop\n        /* \"contracts/SwapTokens.sol\":2503:2517  standardAmount */\n      dup2\n        /* \"contracts/SwapTokens.sol\":2492:2499  userBal */\n      dup2\n        /* \"contracts/SwapTokens.sol\":2492:2517  userBal >= standardAmount */\n      lt\n      iszero\n        /* \"contracts/SwapTokens.sol\":2484:2548  require(userBal >= standardAmount, \"Your balance is not enough\") */\n      tag_50\n      jumpi\n      mload(0x40)\n      0x08c379a000000000000000000000000000000000000000000000000000000000\n      dup2\n      mstore\n      0x04\n      add\n      tag_51\n      swap1\n      tag_52\n      jump\t// in\n    tag_51:\n      mload(0x40)\n      dup1\n      swap2\n      sub\n      swap1\n      revert\n    tag_50:\n        /* \"contracts/SwapTokens.sol\":2557:2574  uint256 allowance */\n      0x00\n        /* \"contracts/SwapTokens.sol\":2577:2586  usdtToken */\n      0x01\n      0x00\n      swap1\n      sload\n      swap1\n      0x0100\n      exp\n      swap1\n      div\n      0xffffffffffffffffffffffffffffffffffffffff\n      and\n        /* \"contracts/SwapTokens.sol\":2577:2596  usdtToken.allowance */\n      0xffffffffffffffffffffffffffffffffffffffff\n      and\n      0xdd62ed3e\n        /* \"contracts/SwapTokens.sol\":2597:2607  msg.sender */\n      caller\n        /* \"contracts/SwapTokens.sol\":2617:2621  this */\n      address\n        /* \"contracts/SwapTokens.sol\":2577:2623  usdtToken.allowance(msg.sender, address(this)) */\n      mload(0x40)\n      dup4\n      0xffffffff\n      and\n      0xe0\n      shl\n      dup2\n      mstore\n      0x04\n      add\n      tag_53\n      swap3\n      swap2\n      swap1\n      tag_54\n      jump\t// in\n    tag_53:\n      0x20\n      mload(0x40)\n      dup1\n      dup4\n      sub\n      dup2\n      dup7\n      gas\n      staticcall\n      iszero\n      dup1\n      iszero\n      tag_56\n      jumpi\n      returndatacopy(0x00, 0x00, returndatasize)\n      revert(0x00, returndatasize)\n    tag_56:\n      pop\n      pop\n      pop\n      pop\n      mload(0x40)\n      returndatasize\n      not(0x1f)\n      0x1f\n      dup3\n      add\n      and\n      dup3\n      add\n      dup1\n      0x40\n      mstore\n      pop\n      dup2\n      add\n      swap1\n      tag_57\n      swap2\n      swap1\n      tag_49\n      jump\t// in\n    tag_57:\n        /* \"contracts/SwapTokens.sol\":2557:2623  uint256 allowance = usdtToken.allowance(msg.sender, address(this)) */\n      swap1\n      pop\n        /* \"contracts/SwapTokens.sol\":2651:2665  standardAmount */\n      dup3\n        /* \"contracts/SwapTokens.sol\":2638:2647  allowance */\n      dup2\n        /* \"contracts/SwapTokens.sol\":2638:2665  allowance >= standardAmount */\n      lt\n      iszero\n        /* \"contracts/SwapTokens.sol\":2630:2693  require(allowance >= standardAmount, \"Token allowance too low\") */\n      tag_58\n      jumpi\n      mload(0x40)\n      0x08c379a000000000000000000000000000000000000000000000000000000000\n      dup2\n      mstore\n      0x04\n      add\n      tag_59\n      swap1\n      tag_60\n      jump\t// in\n    tag_59:\n      mload(0x40)\n      dup1\n      swap2\n      sub\n      swap1\n      revert\n    tag_58:\n        /* \"contracts/SwapTokens.sol\":2702:2715  bool deducted */\n      0x00\n        /* \"contracts/SwapTokens.sol\":2718:2727  usdtToken */\n      0x01\n      0x00\n      swap1\n      sload\n      swap1\n      0x0100\n      exp\n      swap1\n      div\n      0xffffffffffffffffffffffffffffffffffffffff\n      and\n        /* \"contracts/SwapTokens.sol\":2718:2740  usdtToken.transferFrom */\n      0xffffffffffffffffffffffffffffffffffffffff\n      and\n      0x23b872dd\n        /* \"contracts/SwapTokens.sol\":2741:2746  _from */\n      dup8\n        /* \"contracts/SwapTokens.sol\":2756:2760  this */\n      address\n        /* \"contracts/SwapTokens.sol\":2763:2777  standardAmount */\n      dup8\n        /* \"contracts/SwapTokens.sol\":2718:2778  usdtToken.transferFrom(_from, address(this), standardAmount) */\n      mload(0x40)\n      dup5\n      0xffffffff\n      and\n      0xe0\n      shl\n      dup2\n      mstore\n      0x04\n      add\n      tag_61\n      swap4\n      swap3\n      swap2\n      swap1\n      tag_62\n      jump\t// in\n    tag_61:\n      0x20\n      mload(0x40)\n      dup1\n      dup4\n      sub\n      dup2\n      0x00\n      dup8\n      gas\n      call\n      iszero\n      dup1\n      iszero\n      tag_64\n      jumpi\n      returndatacopy(0x00, 0x00, returndatasize)\n      revert(0x00, returndatasize)\n    tag_64:\n      pop\n      pop\n      pop\n      pop\n      mload(0x40)\n      returndatasize\n      not(0x1f)\n      0x1f\n      dup3\n      add\n      and\n      dup3\n      add\n      dup1\n      0x40\n      mstore\n      pop\n      dup2\n      add\n      swap1\n      tag_65\n      swap2\n      swap1\n      tag_66\n      jump\t// in\n    tag_65:\n        /* \"contracts/SwapTokens.sol\":2702:2778  bool deducted = usdtToken.transferFrom(_from, address(this), standardAmount) */\n      swap1\n      pop\n        /* \"contracts/SwapTokens.sol\":2793:2801  deducted */\n      dup1\n        /* \"contracts/SwapTokens.sol\":2785:2822  require(deducted, \"Execution failed\") */\n      tag_67\n      jumpi\n      mload(0x40)\n      0x08c379a000000000000000000000000000000000000000000000000000000000\n      dup2\n      mstore\n      0x04\n      add\n      tag_68\n      swap1\n      tag_69\n      jump\t// in\n    tag_68:\n      mload(0x40)\n      dup1\n      swap2\n      sub\n      swap1\n      revert\n    tag_67:\n        /* \"contracts/SwapTokens.sol\":2866:2880  standardAmount */\n      dup4\n        /* \"contracts/SwapTokens.sol\":2831:2847  contractBalances */\n      0x03\n        /* \"contracts/SwapTokens.sol\":2831:2862  contractBalances[Currency.USDT] */\n      0x00\n        /* \"contracts/SwapTokens.sol\":2848:2861  Currency.USDT */\n      0x02\n        /* \"contracts/SwapTokens.sol\":2831:2862  contractBalances[Currency.USDT] */\n      dup1\n      dup2\n      gt\n      iszero\n      tag_70\n      jumpi\n      tag_71\n      tag_72\n      jump\t// in\n    tag_71:\n    tag_70:\n      0x02\n      dup2\n      gt\n      iszero\n      tag_73\n      jumpi\n      tag_74\n      tag_72\n      jump\t// in\n    tag_74:\n    tag_73:\n      dup2\n      mstore\n      0x20\n      add\n      swap1\n      dup2\n      mstore\n      0x20\n      add\n      0x00\n      keccak256\n      0x00\n        /* \"contracts/SwapTokens.sol\":2831:2880  contractBalances[Currency.USDT] += standardAmount */\n      dup3\n      dup3\n      sload\n      tag_75\n      swap2\n      swap1\n      tag_76\n      jump\t// in\n    tag_75:\n      swap3\n      pop\n      pop\n      dup2\n      swap1\n      sstore\n      pop\n        /* \"contracts/SwapTokens.sol\":2889:2912  uint256 convertedValue_ */\n      0x00\n        /* \"contracts/SwapTokens.sol\":2915:2961  Naira_Usdt_Rate(standardAmount, Currency.USDT) */\n      tag_77\n        /* \"contracts/SwapTokens.sol\":2931:2945  standardAmount */\n      dup6\n        /* \"contracts/SwapTokens.sol\":2947:2960  Currency.USDT */\n      0x02\n        /* \"contracts/SwapTokens.sol\":2915:2930  Naira_Usdt_Rate */\n      tag_78\n        /* \"contracts/SwapTokens.sol\":2915:2961  Naira_Usdt_Rate(standardAmount, Currency.USDT) */\n      jump\t// in\n    tag_77:\n        /* \"contracts/SwapTokens.sol\":2889:2961  uint256 convertedValue_ = Naira_Usdt_Rate(standardAmount, Currency.USDT) */\n      swap1\n      pop\n        /* \"contracts/SwapTokens.sol\":2968:2980  bool swapped */\n      0x00\n        /* \"contracts/SwapTokens.sol\":2983:2993  nairaToken */\n      0x00\n      0x00\n      swap1\n      sload\n      swap1\n      0x0100\n      exp\n      swap1\n      div\n      0xffffffffffffffffffffffffffffffffffffffff\n      and\n        /* \"contracts/SwapTokens.sol\":2983:3002  nairaToken.transfer */\n      0xffffffffffffffffffffffffffffffffffffffff\n      and\n      0xa9059cbb\n        /* \"contracts/SwapTokens.sol\":3003:3013  msg.sender */\n      caller\n        /* \"contracts/SwapTokens.sol\":3015:3030  convertedValue_ */\n      dup5\n        /* \"contracts/SwapTokens.sol\":2983:3031  nairaToken.transfer(msg.sender, convertedValue_) */\n      mload(0x40)\n      dup4\n      0xffffffff\n      and\n      0xe0\n      shl\n      dup2\n      mstore\n      0x04\n      add\n      tag_79\n      swap3\n      swap2\n      swap1\n      tag_80\n      jump\t// in\n    tag_79:\n      0x20\n      mload(0x40)\n      dup1\n      dup4\n      sub\n      dup2\n      0x00\n      dup8\n      gas\n      call\n      iszero\n      dup1\n      iszero\n      tag_82\n      jumpi\n      returndatacopy(0x00, 0x00, returndatasize)\n      revert(0x00, returndatasize)\n    tag_82:\n      pop\n      pop\n      pop\n      pop\n      mload(0x40)\n      returndatasize\n      not(0x1f)\n      0x1f\n      dup3\n      add\n      and\n      dup3\n      add\n      dup1\n      0x40\n      mstore\n      pop\n      dup2\n      add\n      swap1\n      tag_83\n      swap2\n      swap1\n      tag_66\n      jump\t// in\n    tag_83:\n        /* \"contracts/SwapTokens.sol\":2968:3031  bool swapped = nairaToken.transfer(msg.sender, convertedValue_) */\n      swap1\n      pop\n        /* \"contracts/SwapTokens.sol\":3044:3051  swapped */\n      dup1\n        /* \"contracts/SwapTokens.sol\":3040:3191  if (swapped) {... */\n      iszero\n      tag_84\n      jumpi\n        /* \"contracts/SwapTokens.sol\":3100:3115  convertedValue_ */\n      dup2\n        /* \"contracts/SwapTokens.sol\":3064:3080  contractBalances */\n      0x03\n        /* \"contracts/SwapTokens.sol\":3064:3096  contractBalances[Currency.NAIRA] */\n      0x00\n        /* \"contracts/SwapTokens.sol\":3081:3095  Currency.NAIRA */\n      0x01\n        /* \"contracts/SwapTokens.sol\":3064:3096  contractBalances[Currency.NAIRA] */\n      0x02\n      dup2\n      gt\n      iszero\n      tag_85\n      jumpi\n      tag_86\n      tag_72\n      jump\t// in\n    tag_86:\n    tag_85:\n      0x02\n      dup2\n      gt\n      iszero\n      tag_87\n      jumpi\n      tag_88\n      tag_72\n      jump\t// in\n    tag_88:\n    tag_87:\n      dup2\n      mstore\n      0x20\n      add\n      swap1\n      dup2\n      mstore\n      0x20\n      add\n      0x00\n      keccak256\n      0x00\n        /* \"contracts/SwapTokens.sol\":3064:3115  contractBalances[Currency.NAIRA] += convertedValue_ */\n      dup3\n      dup3\n      sload\n      tag_89\n      swap2\n      swap1\n      tag_76\n      jump\t// in\n    tag_89:\n      swap3\n      pop\n      pop\n      dup2\n      swap1\n      sstore\n      pop\n        /* \"contracts/SwapTokens.sol\":3161:3165  this */\n      address\n        /* \"contracts/SwapTokens.sol\":3131:3183  SwapSuccessful(_from, address(this), standardAmount) */\n      0xffffffffffffffffffffffffffffffffffffffff\n      and\n        /* \"contracts/SwapTokens.sol\":3146:3151  _from */\n      dup9\n        /* \"contracts/SwapTokens.sol\":3131:3183  SwapSuccessful(_from, address(this), standardAmount) */\n      0xffffffffffffffffffffffffffffffffffffffff\n      and\n      0xf936e5e0223c6f3d59c5cad7723aaa9b2b2d68a54065aed03ad5e38675f1f306\n        /* \"contracts/SwapTokens.sol\":3168:3182  standardAmount */\n      dup9\n        /* \"contracts/SwapTokens.sol\":3131:3183  SwapSuccessful(_from, address(this), standardAmount) */\n      mload(0x40)\n      tag_90\n      swap2\n      swap1\n      tag_91\n      jump\t// in\n    tag_90:\n      mload(0x40)\n      dup1\n      swap2\n      sub\n      swap1\n      log3\n        /* \"contracts/SwapTokens.sol\":3040:3191  if (swapped) {... */\n    tag_84:\n        /* \"contracts/SwapTokens.sol\":2250:3194  {... */\n      pop\n      pop\n      pop\n      pop\n      pop\n      pop\n        /* \"contracts/SwapTokens.sol\":913:918  false */\n      0x00\n        /* \"contracts/SwapTokens.sol\":904:910  locked */\n      0x02\n      0x14\n        /* \"contracts/SwapTokens.sol\":904:918  locked = false */\n      0x0100\n      exp\n      dup2\n      sload\n      dup2\n      0xff\n      mul\n      not\n      and\n      swap1\n      dup4\n      iszero\n      iszero\n      mul\n      or\n      swap1\n      sstore\n      pop\n        /* \"contracts/SwapTokens.sol\":2168:3194  function swapUsdtToNaira(address _from, uint256 _amount) external reentrancyGuard {... */\n      pop\n      pop\n      jump\t// out\n        /* \"contracts/SwapTokens.sol\":3476:4174  function withdraw(Currency _currencyName, uint256 _amount) external onlyOwner  {... */\n    tag_16:\n        /* \"contracts/SwapTokens.sol\":987:992  owner */\n      0x02\n      0x00\n      swap1\n      sload\n      swap1\n      0x0100\n      exp\n      swap1\n      div\n      0xffffffffffffffffffffffffffffffffffffffff\n      and\n        /* \"contracts/SwapTokens.sol\":973:992  msg.sender == owner */\n      0xffffffffffffffffffffffffffffffffffffffff\n      and\n        /* \"contracts/SwapTokens.sol\":973:983  msg.sender */\n      caller\n        /* \"contracts/SwapTokens.sol\":973:992  msg.sender == owner */\n      0xffffffffffffffffffffffffffffffffffffffff\n      and\n      eq\n        /* \"contracts/SwapTokens.sol\":965:1018  require(msg.sender == owner, \"Only owner can access\") */\n      tag_93\n      jumpi\n      mload(0x40)\n      0x08c379a000000000000000000000000000000000000000000000000000000000\n      dup2\n      mstore\n      0x04\n      add\n      tag_94\n      swap1\n      tag_95\n      jump\t// in\n    tag_94:\n      mload(0x40)\n      dup1\n      swap2\n      sub\n      swap1\n      revert\n    tag_93:\n        /* \"contracts/SwapTokens.sol\":3584:3585  0 */\n      0x00\n        /* \"contracts/SwapTokens.sol\":3574:3581  _amount */\n      dup2\n        /* \"contracts/SwapTokens.sol\":3574:3585  _amount > 0 */\n      gt\n        /* \"contracts/SwapTokens.sol\":3566:3605  require(_amount > 0, \"balance is less\") */\n      tag_97\n      jumpi\n      mload(0x40)\n      0x08c379a000000000000000000000000000000000000000000000000000000000\n      dup2\n      mstore\n      0x04\n      add\n      tag_98\n      swap1\n      tag_99\n      jump\t// in\n    tag_98:\n      mload(0x40)\n      dup1\n      swap2\n      sub\n      swap1\n      revert\n    tag_97:\n        /* \"contracts/SwapTokens.sol\":3618:3629  uint256 bal */\n      0x00\n        /* \"contracts/SwapTokens.sol\":3632:3648  contractBalances */\n      0x03\n        /* \"contracts/SwapTokens.sol\":3632:3663  contractBalances[_currencyName] */\n      0x00\n        /* \"contracts/SwapTokens.sol\":3649:3662  _currencyName */\n      dup5\n        /* \"contracts/SwapTokens.sol\":3632:3663  contractBalances[_currencyName] */\n      0x02\n      dup2\n      gt\n      iszero\n      tag_100\n      jumpi\n      tag_101\n      tag_72\n      jump\t// in\n    tag_101:\n    tag_100:\n      0x02\n      dup2\n      gt\n      iszero\n      tag_102\n      jumpi\n      tag_103\n      tag_72\n      jump\t// in\n    tag_103:\n    tag_102:\n      dup2\n      mstore\n      0x20\n      add\n      swap1\n      dup2\n      mstore\n      0x20\n      add\n      0x00\n      keccak256\n      sload\n        /* \"contracts/SwapTokens.sol\":3618:3663  uint256 bal = contractBalances[_currencyName] */\n      swap1\n      pop\n        /* \"contracts/SwapTokens.sol\":3691:3698  _amount */\n      dup2\n        /* \"contracts/SwapTokens.sol\":3684:3687  bal */\n      dup2\n        /* \"contracts/SwapTokens.sol\":3684:3698  bal >= _amount */\n      lt\n      iszero\n        /* \"contracts/SwapTokens.sol\":3676:3732  require(bal >= _amount, \"Insufficient contract balance\") */\n      tag_104\n      jumpi\n      mload(0x40)\n      0x08c379a000000000000000000000000000000000000000000000000000000000\n      dup2\n      mstore\n      0x04\n      add\n      tag_105\n      swap1\n      tag_106\n      jump\t// in\n    tag_105:\n      mload(0x40)\n      dup1\n      swap2\n      sub\n      swap1\n      revert\n    tag_104:\n        /* \"contracts/SwapTokens.sol\":3768:3781  _currencyName */\n      dup3\n        /* \"contracts/SwapTokens.sol\":3750:3781  Currency.NAIRA == _currencyName */\n      0x02\n      dup2\n      gt\n      iszero\n      tag_107\n      jumpi\n      tag_108\n      tag_72\n      jump\t// in\n    tag_108:\n    tag_107:\n        /* \"contracts/SwapTokens.sol\":3750:3764  Currency.NAIRA */\n      0x01\n        /* \"contracts/SwapTokens.sol\":3750:3781  Currency.NAIRA == _currencyName */\n      0x02\n      dup2\n      gt\n      iszero\n      tag_109\n      jumpi\n      tag_110\n      tag_72\n      jump\t// in\n    tag_110:\n    tag_109:\n      sub\n        /* \"contracts/SwapTokens.sol\":3747:4127  if(Currency.NAIRA == _currencyName) {... */\n      tag_111\n      jumpi\n        /* \"contracts/SwapTokens.sol\":3797:3807  nairaToken */\n      0x00\n      0x00\n      swap1\n      sload\n      swap1\n      0x0100\n      exp\n      swap1\n      div\n      0xffffffffffffffffffffffffffffffffffffffff\n      and\n        /* \"contracts/SwapTokens.sol\":3797:3816  nairaToken.transfer */\n      0xffffffffffffffffffffffffffffffffffffffff\n      and\n      0xa9059cbb\n        /* \"contracts/SwapTokens.sol\":3817:3827  msg.sender */\n      caller\n        /* \"contracts/SwapTokens.sol\":3829:3836  _amount */\n      dup5\n        /* \"contracts/SwapTokens.sol\":3797:3837  nairaToken.transfer(msg.sender, _amount) */\n      mload(0x40)\n      dup4\n      0xffffffff\n      and\n      0xe0\n      shl\n      dup2\n      mstore\n      0x04\n      add\n      tag_112\n      swap3\n      swap2\n      swap1\n      tag_80\n      jump\t// in\n    tag_112:\n      0x20\n      mload(0x40)\n      dup1\n      dup4\n      sub\n      dup2\n      0x00\n      dup8\n      gas\n      call\n      iszero\n      dup1\n      iszero\n      tag_114\n      jumpi\n      returndatacopy(0x00, 0x00, returndatasize)\n      revert(0x00, returndatasize)\n    tag_114:\n      pop\n      pop\n      pop\n      pop\n      mload(0x40)\n      returndatasize\n      not(0x1f)\n      0x1f\n      dup3\n      add\n      and\n      dup3\n      add\n      dup1\n      0x40\n      mstore\n      pop\n      dup2\n      add\n      swap1\n      tag_115\n      swap2\n      swap1\n      tag_66\n      jump\t// in\n    tag_115:\n      pop\n        /* \"contracts/SwapTokens.sol\":3897:3910  _currencyName */\n      dup3\n        /* \"contracts/SwapTokens.sol\":3866:3920  WithdrawSuccessful(msg.sender, _currencyName, _amount) */\n      0x02\n      dup2\n      gt\n      iszero\n      tag_116\n      jumpi\n      tag_117\n      tag_72\n      jump\t// in\n    tag_117:\n    tag_116:\n        /* \"contracts/SwapTokens.sol\":3885:3895  msg.sender */\n      caller\n        /* \"contracts/SwapTokens.sol\":3866:3920  WithdrawSuccessful(msg.sender, _currencyName, _amount) */\n      0xffffffffffffffffffffffffffffffffffffffff\n      and\n      0x8953c98bf4b420f992a98f3bfa55d17f4e19076029765d02cb1f9a99276868\n        /* \"contracts/SwapTokens.sol\":3912:3919  _amount */\n      dup5\n        /* \"contracts/SwapTokens.sol\":3866:3920  WithdrawSuccessful(msg.sender, _currencyName, _amount) */\n      mload(0x40)\n      tag_118\n      swap2\n      swap1\n      tag_91\n      jump\t// in\n    tag_118:\n      mload(0x40)\n      dup1\n      swap2\n      sub\n      swap1\n      log3\n        /* \"contracts/SwapTokens.sol\":3747:4127  if(Currency.NAIRA == _currencyName) {... */\n      jump(tag_119)\n    tag_111:\n        /* \"contracts/SwapTokens.sol\":3962:3975  _currencyName */\n      dup3\n        /* \"contracts/SwapTokens.sol\":3945:3975  Currency.USDT == _currencyName */\n      0x02\n      dup2\n      gt\n      iszero\n      tag_120\n      jumpi\n      tag_121\n      tag_72\n      jump\t// in\n    tag_121:\n    tag_120:\n        /* \"contracts/SwapTokens.sol\":3945:3958  Currency.USDT */\n      0x02\n        /* \"contracts/SwapTokens.sol\":3945:3975  Currency.USDT == _currencyName */\n      dup1\n      dup2\n      gt\n      iszero\n      tag_122\n      jumpi\n      tag_123\n      tag_72\n      jump\t// in\n    tag_123:\n    tag_122:\n      sub\n        /* \"contracts/SwapTokens.sol\":3942:4127  if(Currency.USDT == _currencyName) {... */\n      tag_124\n      jumpi\n        /* \"contracts/SwapTokens.sol\":3989:3998  usdtToken */\n      0x01\n      0x00\n      swap1\n      sload\n      swap1\n      0x0100\n      exp\n      swap1\n      div\n      0xffffffffffffffffffffffffffffffffffffffff\n      and\n        /* \"contracts/SwapTokens.sol\":3989:4007  usdtToken.transfer */\n      0xffffffffffffffffffffffffffffffffffffffff\n      and\n      0xa9059cbb\n        /* \"contracts/SwapTokens.sol\":4008:4018  msg.sender */\n      caller\n        /* \"contracts/SwapTokens.sol\":4020:4027  _amount */\n      dup5\n        /* \"contracts/SwapTokens.sol\":3989:4028  usdtToken.transfer(msg.sender, _amount) */\n      mload(0x40)\n      dup4\n      0xffffffff\n      and\n      0xe0\n      shl\n      dup2\n      mstore\n      0x04\n      add\n      tag_125\n      swap3\n      swap2\n      swap1\n      tag_80\n      jump\t// in\n    tag_125:\n      0x20\n      mload(0x40)\n      dup1\n      dup4\n      sub\n      dup2\n      0x00\n      dup8\n      gas\n      call\n      iszero\n      dup1\n      iszero\n      tag_127\n      jumpi\n      returndatacopy(0x00, 0x00, returndatasize)\n      revert(0x00, returndatasize)\n    tag_127:\n      pop\n      pop\n      pop\n      pop\n      mload(0x40)\n      returndatasize\n      not(0x1f)\n      0x1f\n      dup3\n      add\n      and\n      dup3\n      add\n      dup1\n      0x40\n      mstore\n      pop\n      dup2\n      add\n      swap1\n      tag_128\n      swap2\n      swap1\n      tag_66\n      jump\t// in\n    tag_128:\n      pop\n        /* \"contracts/SwapTokens.sol\":4088:4101  _currencyName */\n      dup3\n        /* \"contracts/SwapTokens.sol\":4057:4111  WithdrawSuccessful(msg.sender, _currencyName, _amount) */\n      0x02\n      dup2\n      gt\n      iszero\n      tag_129\n      jumpi\n      tag_130\n      tag_72\n      jump\t// in\n    tag_130:\n    tag_129:\n        /* \"contracts/SwapTokens.sol\":4076:4086  msg.sender */\n      caller\n        /* \"contracts/SwapTokens.sol\":4057:4111  WithdrawSuccessful(msg.sender, _currencyName, _amount) */\n      0xffffffffffffffffffffffffffffffffffffffff\n      and\n      0x8953c98bf4b420f992a98f3bfa55d17f4e19076029765d02cb1f9a99276868\n        /* \"contracts/SwapTokens.sol\":4103:4110  _amount */\n      dup5\n        /* \"contracts/SwapTokens.sol\":4057:4111  WithdrawSuccessful(msg.sender, _currencyName, _amount) */\n      mload(0x40)\n      tag_131\n      swap2\n      swap1\n      tag_91\n      jump\t// in\n    tag_131:\n      mload(0x40)\n      dup1\n      swap2\n      sub\n      swap1\n      log3\n        /* \"contracts/SwapTokens.sol\":3942:4127  if(Currency.USDT == _currencyName) {... */\n    tag_124:\n        /* \"contracts/SwapTokens.sol\":3747:4127  if(Currency.NAIRA == _currencyName) {... */\n    tag_119:\n        /* \"contracts/SwapTokens.sol\":4139:4166  revert(\"Token not defined\") */\n      mload(0x40)\n      0x08c379a000000000000000000000000000000000000000000000000000000000\n      dup2\n      mstore\n      0x04\n      add\n      tag_132\n      swap1\n      tag_133\n      jump\t// in\n    tag_132:\n      mload(0x40)\n      dup1\n      swap2\n      sub\n      swap1\n      revert\n        /* \"contracts/SwapTokens.sol\":1048:2154  function swapNairaToUsdt(address _from, uint256 _amount) external reentrancyGuard  {... */\n    tag_19:\n        /* \"contracts/SwapTokens.sol\":824:830  locked */\n      0x02\n      0x14\n      swap1\n      sload\n      swap1\n      0x0100\n      exp\n      swap1\n      div\n      0xff\n      and\n        /* \"contracts/SwapTokens.sol\":823:830  !locked */\n      iszero\n        /* \"contracts/SwapTokens.sol\":815:857  require(!locked, \"Reentrancy not allowed\") */\n      tag_135\n      jumpi\n      mload(0x40)\n      0x08c379a000000000000000000000000000000000000000000000000000000000\n      dup2\n      mstore\n      0x04\n      add\n      tag_136\n      swap1\n      tag_34\n      jump\t// in\n    tag_136:\n      mload(0x40)\n      dup1\n      swap2\n      sub\n      swap1\n      revert\n    tag_135:\n        /* \"contracts/SwapTokens.sol\":877:881  true */\n      0x01\n        /* \"contracts/SwapTokens.sol\":868:874  locked */\n      0x02\n      0x14\n        /* \"contracts/SwapTokens.sol\":868:881  locked = true */\n      0x0100\n      exp\n      dup2\n      sload\n      dup2\n      0xff\n      mul\n      not\n      and\n      swap1\n      dup4\n      iszero\n      iszero\n      mul\n      or\n      swap1\n      sstore\n      pop\n        /* \"contracts/SwapTokens.sol\":1172:1173  0 */\n      0x00\n        /* \"contracts/SwapTokens.sol\":1150:1174  msg.sender != address(0) */\n      0xffffffffffffffffffffffffffffffffffffffff\n      and\n        /* \"contracts/SwapTokens.sol\":1150:1160  msg.sender */\n      caller\n        /* \"contracts/SwapTokens.sol\":1150:1174  msg.sender != address(0) */\n      0xffffffffffffffffffffffffffffffffffffffff\n      and\n      sub\n        /* \"contracts/SwapTokens.sol\":1142:1195  require(msg.sender != address(0), \"Zero not allowed\") */\n      tag_138\n      jumpi\n      mload(0x40)\n      0x08c379a000000000000000000000000000000000000000000000000000000000\n      dup2\n      mstore\n      0x04\n      add\n      tag_139\n      swap1\n      tag_38\n      jump\t// in\n    tag_139:\n      mload(0x40)\n      dup1\n      swap2\n      sub\n      swap1\n      revert\n    tag_138:\n        /* \"contracts/SwapTokens.sol\":1224:1225  0 */\n      0x00\n        /* \"contracts/SwapTokens.sol\":1214:1221  _amount */\n      dup2\n        /* \"contracts/SwapTokens.sol\":1214:1225  _amount > 0 */\n      gt\n        /* \"contracts/SwapTokens.sol\":1206:1254  require(_amount > 0 , \"Cannot swap zero amount\") */\n      tag_140\n      jumpi\n      mload(0x40)\n      0x08c379a000000000000000000000000000000000000000000000000000000000\n      dup2\n      mstore\n      0x04\n      add\n      tag_141\n      swap1\n      tag_41\n      jump\t// in\n    tag_141:\n      mload(0x40)\n      dup1\n      swap2\n      sub\n      swap1\n      revert\n    tag_140:\n        /* \"contracts/SwapTokens.sol\":1267:1289  uint256 standardAmount */\n      0x00\n        /* \"contracts/SwapTokens.sol\":1302:1308  10**18 */\n      0x0de0b6b3a7640000\n        /* \"contracts/SwapTokens.sol\":1292:1299  _amount */\n      dup3\n        /* \"contracts/SwapTokens.sol\":1292:1308  _amount * 10**18 */\n      tag_142\n      swap2\n      swap1\n      tag_43\n      jump\t// in\n    tag_142:\n        /* \"contracts/SwapTokens.sol\":1267:1308  uint256 standardAmount = _amount * 10**18 */\n      swap1\n      pop\n        /* \"contracts/SwapTokens.sol\":1321:1336  uint256 userBal */\n      0x00\n        /* \"contracts/SwapTokens.sol\":1339:1349  nairaToken */\n      0x00\n      0x00\n      swap1\n      sload\n      swap1\n      0x0100\n      exp\n      swap1\n      div\n      0xffffffffffffffffffffffffffffffffffffffff\n      and\n        /* \"contracts/SwapTokens.sol\":1339:1359  nairaToken.balanceOf */\n      0xffffffffffffffffffffffffffffffffffffffff\n      and\n      0x70a08231\n        /* \"contracts/SwapTokens.sol\":1360:1370  msg.sender */\n      caller\n        /* \"contracts/SwapTokens.sol\":1339:1371  nairaToken.balanceOf(msg.sender) */\n      mload(0x40)\n      dup3\n      0xffffffff\n      and\n      0xe0\n      shl\n      dup2\n      mstore\n      0x04\n      add\n      tag_143\n      swap2\n      swap1\n      tag_45\n      jump\t// in\n    tag_143:\n      0x20\n      mload(0x40)\n      dup1\n      dup4\n      sub\n      dup2\n      dup7\n      gas\n      staticcall\n      iszero\n      dup1\n      iszero\n      tag_145\n      jumpi\n      returndatacopy(0x00, 0x00, returndatasize)\n      revert(0x00, returndatasize)\n    tag_145:\n      pop\n      pop\n      pop\n      pop\n      mload(0x40)\n      returndatasize\n      not(0x1f)\n      0x1f\n      dup3\n      add\n      and\n      dup3\n      add\n      dup1\n      0x40\n      mstore\n      pop\n      dup2\n      add\n      swap1\n      tag_146\n      swap2\n      swap1\n      tag_49\n      jump\t// in\n    tag_146:\n        /* \"contracts/SwapTokens.sol\":1321:1371  uint256 userBal = nairaToken.balanceOf(msg.sender) */\n      swap1\n      pop\n        /* \"contracts/SwapTokens.sol\":1403:1410  _amount */\n      dup3\n        /* \"contracts/SwapTokens.sol\":1392:1399  userBal */\n      dup2\n        /* \"contracts/SwapTokens.sol\":1392:1410  userBal >= _amount */\n      lt\n      iszero\n        /* \"contracts/SwapTokens.sol\":1384:1441  require(userBal >= _amount, \"Your balance is not enough\") */\n      tag_147\n      jumpi\n      mload(0x40)\n      0x08c379a000000000000000000000000000000000000000000000000000000000\n      dup2\n      mstore\n      0x04\n      add\n      tag_148\n      swap1\n      tag_52\n      jump\t// in\n    tag_148:\n      mload(0x40)\n      dup1\n      swap2\n      sub\n      swap1\n      revert\n    tag_147:\n        /* \"contracts/SwapTokens.sol\":1454:1471  uint256 allowance */\n      0x00\n        /* \"contracts/SwapTokens.sol\":1474:1484  nairaToken */\n      0x00\n      0x00\n      swap1\n      sload\n      swap1\n      0x0100\n      exp\n      swap1\n      div\n      0xffffffffffffffffffffffffffffffffffffffff\n      and\n        /* \"contracts/SwapTokens.sol\":1474:1494  nairaToken.allowance */\n      0xffffffffffffffffffffffffffffffffffffffff\n      and\n      0xdd62ed3e\n        /* \"contracts/SwapTokens.sol\":1495:1505  msg.sender */\n      caller\n        /* \"contracts/SwapTokens.sol\":1515:1519  this */\n      address\n        /* \"contracts/SwapTokens.sol\":1474:1521  nairaToken.allowance(msg.sender, address(this)) */\n      mload(0x40)\n      dup4\n      0xffffffff\n      and\n      0xe0\n      shl\n      dup2\n      mstore\n      0x04\n      add\n      tag_149\n      swap3\n      swap2\n      swap1\n      tag_54\n      jump\t// in\n    tag_149:\n      0x20\n      mload(0x40)\n      dup1\n      dup4\n      sub\n      dup2\n      dup7\n      gas\n      staticcall\n      iszero\n      dup1\n      iszero\n      tag_151\n      jumpi\n      returndatacopy(0x00, 0x00, returndatasize)\n      revert(0x00, returndatasize)\n    tag_151:\n      pop\n      pop\n      pop\n      pop\n      mload(0x40)\n      returndatasize\n      not(0x1f)\n      0x1f\n      dup3\n      add\n      and\n      dup3\n      add\n      dup1\n      0x40\n      mstore\n      pop\n      dup2\n      add\n      swap1\n      tag_152\n      swap2\n      swap1\n      tag_49\n      jump\t// in\n    tag_152:\n        /* \"contracts/SwapTokens.sol\":1454:1521  uint256 allowance = nairaToken.allowance(msg.sender, address(this)) */\n      swap1\n      pop\n        /* \"contracts/SwapTokens.sol\":1553:1560  _amount */\n      dup4\n        /* \"contracts/SwapTokens.sol\":1540:1549  allowance */\n      dup2\n        /* \"contracts/SwapTokens.sol\":1540:1560  allowance >= _amount */\n      lt\n      iszero\n        /* \"contracts/SwapTokens.sol\":1532:1588  require(allowance >= _amount, \"Token allowance too low\") */\n      tag_153\n      jumpi\n      mload(0x40)\n      0x08c379a000000000000000000000000000000000000000000000000000000000\n      dup2\n      mstore\n      0x04\n      add\n      tag_154\n      swap1\n      tag_60\n      jump\t// in\n    tag_154:\n      mload(0x40)\n      dup1\n      swap2\n      sub\n      swap1\n      revert\n    tag_153:\n        /* \"contracts/SwapTokens.sol\":1603:1616  bool deducted */\n      0x00\n        /* \"contracts/SwapTokens.sol\":1619:1629  nairaToken */\n      0x00\n      0x00\n      swap1\n      sload\n      swap1\n      0x0100\n      exp\n      swap1\n      div\n      0xffffffffffffffffffffffffffffffffffffffff\n      and\n        /* \"contracts/SwapTokens.sol\":1619:1642  nairaToken.transferFrom */\n      0xffffffffffffffffffffffffffffffffffffffff\n      and\n      0x23b872dd\n        /* \"contracts/SwapTokens.sol\":1643:1648  _from */\n      dup8\n        /* \"contracts/SwapTokens.sol\":1658:1662  this */\n      address\n        /* \"contracts/SwapTokens.sol\":1665:1679  standardAmount */\n      dup8\n        /* \"contracts/SwapTokens.sol\":1619:1680  nairaToken.transferFrom(_from, address(this), standardAmount) */\n      mload(0x40)\n      dup5\n      0xffffffff\n      and\n      0xe0\n      shl\n      dup2\n      mstore\n      0x04\n      add\n      tag_155\n      swap4\n      swap3\n      swap2\n      swap1\n      tag_62\n      jump\t// in\n    tag_155:\n      0x20\n      mload(0x40)\n      dup1\n      dup4\n      sub\n      dup2\n      0x00\n      dup8\n      gas\n      call\n      iszero\n      dup1\n      iszero\n      tag_157\n      jumpi\n      returndatacopy(0x00, 0x00, returndatasize)\n      revert(0x00, returndatasize)\n    tag_157:\n      pop\n      pop\n      pop\n      pop\n      mload(0x40)\n      returndatasize\n      not(0x1f)\n      0x1f\n      dup3\n      add\n      and\n      dup3\n      add\n      dup1\n      0x40\n      mstore\n      pop\n      dup2\n      add\n      swap1\n      tag_158\n      swap2\n      swap1\n      tag_66\n      jump\t// in\n    tag_158:\n        /* \"contracts/SwapTokens.sol\":1603:1680  bool deducted = nairaToken.transferFrom(_from, address(this), standardAmount) */\n      swap1\n      pop\n        /* \"contracts/SwapTokens.sol\":1701:1709  deducted */\n      dup1\n        /* \"contracts/SwapTokens.sol\":1693:1729  require(deducted, \"Excution failed\") */\n      tag_159\n      jumpi\n      mload(0x40)\n      0x08c379a000000000000000000000000000000000000000000000000000000000\n      dup2\n      mstore\n      0x04\n      add\n      tag_160\n      swap1\n      tag_161\n      jump\t// in\n    tag_160:\n      mload(0x40)\n      dup1\n      swap2\n      sub\n      swap1\n      revert\n    tag_159:\n        /* \"contracts/SwapTokens.sol\":1779:1793  standardAmount */\n      dup4\n        /* \"contracts/SwapTokens.sol\":1742:1758  contractBalances */\n      0x03\n        /* \"contracts/SwapTokens.sol\":1742:1774  contractBalances[Currency.NAIRA] */\n      0x00\n        /* \"contracts/SwapTokens.sol\":1759:1773  Currency.NAIRA */\n      0x01\n        /* \"contracts/SwapTokens.sol\":1742:1774  contractBalances[Currency.NAIRA] */\n      0x02\n      dup2\n      gt\n      iszero\n      tag_162\n      jumpi\n      tag_163\n      tag_72\n      jump\t// in\n    tag_163:\n    tag_162:\n      0x02\n      dup2\n      gt\n      iszero\n      tag_164\n      jumpi\n      tag_165\n      tag_72\n      jump\t// in\n    tag_165:\n    tag_164:\n      dup2\n      mstore\n      0x20\n      add\n      swap1\n      dup2\n      mstore\n      0x20\n      add\n      0x00\n      keccak256\n      0x00\n        /* \"contracts/SwapTokens.sol\":1742:1793  contractBalances[Currency.NAIRA] +=  standardAmount */\n      dup3\n      dup3\n      sload\n      tag_166\n      swap2\n      swap1\n      tag_76\n      jump\t// in\n    tag_166:\n      swap3\n      pop\n      pop\n      dup2\n      swap1\n      sstore\n      pop\n        /* \"contracts/SwapTokens.sol\":1808:1831  uint256 convertedValue_ */\n      0x00\n        /* \"contracts/SwapTokens.sol\":1834:1881  Naira_Usdt_Rate(standardAmount, Currency.NAIRA) */\n      tag_167\n        /* \"contracts/SwapTokens.sol\":1850:1864  standardAmount */\n      dup6\n        /* \"contracts/SwapTokens.sol\":1866:1880  Currency.NAIRA */\n      0x01\n        /* \"contracts/SwapTokens.sol\":1834:1849  Naira_Usdt_Rate */\n      tag_78\n        /* \"contracts/SwapTokens.sol\":1834:1881  Naira_Usdt_Rate(standardAmount, Currency.NAIRA) */\n      jump\t// in\n    tag_167:\n        /* \"contracts/SwapTokens.sol\":1808:1881  uint256 convertedValue_ = Naira_Usdt_Rate(standardAmount, Currency.NAIRA) */\n      swap1\n      pop\n        /* \"contracts/SwapTokens.sol\":1894:1906  bool swapped */\n      0x00\n        /* \"contracts/SwapTokens.sol\":1909:1918  usdtToken */\n      0x01\n      0x00\n      swap1\n      sload\n      swap1\n      0x0100\n      exp\n      swap1\n      div\n      0xffffffffffffffffffffffffffffffffffffffff\n      and\n        /* \"contracts/SwapTokens.sol\":1909:1927  usdtToken.transfer */\n      0xffffffffffffffffffffffffffffffffffffffff\n      and\n      0xa9059cbb\n        /* \"contracts/SwapTokens.sol\":1928:1938  msg.sender */\n      caller\n        /* \"contracts/SwapTokens.sol\":1940:1955  convertedValue_ */\n      dup5\n        /* \"contracts/SwapTokens.sol\":1909:1956  usdtToken.transfer(msg.sender, convertedValue_) */\n      mload(0x40)\n      dup4\n      0xffffffff\n      and\n      0xe0\n      shl\n      dup2\n      mstore\n      0x04\n      add\n      tag_168\n      swap3\n      swap2\n      swap1\n      tag_80\n      jump\t// in\n    tag_168:\n      0x20\n      mload(0x40)\n      dup1\n      dup4\n      sub\n      dup2\n      0x00\n      dup8\n      gas\n      call\n      iszero\n      dup1\n      iszero\n      tag_170\n      jumpi\n      returndatacopy(0x00, 0x00, returndatasize)\n      revert(0x00, returndatasize)\n    tag_170:\n      pop\n      pop\n      pop\n      pop\n      mload(0x40)\n      returndatasize\n      not(0x1f)\n      0x1f\n      dup3\n      add\n      and\n      dup3\n      add\n      dup1\n      0x40\n      mstore\n      pop\n      dup2\n      add\n      swap1\n      tag_171\n      swap2\n      swap1\n      tag_66\n      jump\t// in\n    tag_171:\n        /* \"contracts/SwapTokens.sol\":1894:1956  bool swapped = usdtToken.transfer(msg.sender, convertedValue_) */\n      swap1\n      pop\n        /* \"contracts/SwapTokens.sol\":1977:1984  swapped */\n      dup1\n        /* \"contracts/SwapTokens.sol\":1973:2145  if (swapped) {... */\n      iszero\n      tag_172\n      jumpi\n        /* \"contracts/SwapTokens.sol\":2039:2054  convertedValue_ */\n      dup2\n        /* \"contracts/SwapTokens.sol\":2003:2019  contractBalances */\n      0x03\n        /* \"contracts/SwapTokens.sol\":2003:2034  contractBalances[Currency.USDT] */\n      0x00\n        /* \"contracts/SwapTokens.sol\":2020:2033  Currency.USDT */\n      0x02\n        /* \"contracts/SwapTokens.sol\":2003:2034  contractBalances[Currency.USDT] */\n      dup1\n      dup2\n      gt\n      iszero\n      tag_173\n      jumpi\n      tag_174\n      tag_72\n      jump\t// in\n    tag_174:\n    tag_173:\n      0x02\n      dup2\n      gt\n      iszero\n      tag_175\n      jumpi\n      tag_176\n      tag_72\n      jump\t// in\n    tag_176:\n    tag_175:\n      dup2\n      mstore\n      0x20\n      add\n      swap1\n      dup2\n      mstore\n      0x20\n      add\n      0x00\n      keccak256\n      0x00\n        /* \"contracts/SwapTokens.sol\":2003:2054  contractBalances[Currency.USDT] +=  convertedValue_ */\n      dup3\n      dup3\n      sload\n      tag_177\n      swap2\n      swap1\n      tag_76\n      jump\t// in\n    tag_177:\n      swap3\n      pop\n      pop\n      dup2\n      swap1\n      sstore\n      pop\n        /* \"contracts/SwapTokens.sol\":2110:2114  this */\n      address\n        /* \"contracts/SwapTokens.sol\":2080:2133  SwapSuccessful(_from, address(this), standardAmount ) */\n      0xffffffffffffffffffffffffffffffffffffffff\n      and\n        /* \"contracts/SwapTokens.sol\":2095:2100  _from */\n      dup9\n        /* \"contracts/SwapTokens.sol\":2080:2133  SwapSuccessful(_from, address(this), standardAmount ) */\n      0xffffffffffffffffffffffffffffffffffffffff\n      and\n      0xf936e5e0223c6f3d59c5cad7723aaa9b2b2d68a54065aed03ad5e38675f1f306\n        /* \"contracts/SwapTokens.sol\":2117:2131  standardAmount */\n      dup9\n        /* \"contracts/SwapTokens.sol\":2080:2133  SwapSuccessful(_from, address(this), standardAmount ) */\n      mload(0x40)\n      tag_178\n      swap2\n      swap1\n      tag_91\n      jump\t// in\n    tag_178:\n      mload(0x40)\n      dup1\n      swap2\n      sub\n      swap1\n      log3\n        /* \"contracts/SwapTokens.sol\":1973:2145  if (swapped) {... */\n    tag_172:\n        /* \"contracts/SwapTokens.sol\":1131:2154  {... */\n      pop\n      pop\n      pop\n      pop\n      pop\n      pop\n        /* \"contracts/SwapTokens.sol\":913:918  false */\n      0x00\n        /* \"contracts/SwapTokens.sol\":904:910  locked */\n      0x02\n      0x14\n        /* \"contracts/SwapTokens.sol\":904:918  locked = false */\n      0x0100\n      exp\n      dup2\n      sload\n      dup2\n      0xff\n      mul\n      not\n      and\n      swap1\n      dup4\n      iszero\n      iszero\n      mul\n      or\n      swap1\n      sstore\n      pop\n        /* \"contracts/SwapTokens.sol\":1048:2154  function swapNairaToUsdt(address _from, uint256 _amount) external reentrancyGuard  {... */\n      pop\n      pop\n      jump\t// out\n        /* \"contracts/SwapTokens.sol\":3210:3464  function getContractBalance() external view onlyOwner returns (uint256 contractUsdtbal_, uint256 contractNairabal_) {... */\n    tag_21:\n        /* \"contracts/SwapTokens.sol\":3273:3297  uint256 contractUsdtbal_ */\n      0x00\n        /* \"contracts/SwapTokens.sol\":3299:3324  uint256 contractNairabal_ */\n      0x00\n        /* \"contracts/SwapTokens.sol\":987:992  owner */\n      0x02\n      0x00\n      swap1\n      sload\n      swap1\n      0x0100\n      exp\n      swap1\n      div\n      0xffffffffffffffffffffffffffffffffffffffff\n      and\n        /* \"contracts/SwapTokens.sol\":973:992  msg.sender == owner */\n      0xffffffffffffffffffffffffffffffffffffffff\n      and\n        /* \"contracts/SwapTokens.sol\":973:983  msg.sender */\n      caller\n        /* \"contracts/SwapTokens.sol\":973:992  msg.sender == owner */\n      0xffffffffffffffffffffffffffffffffffffffff\n      and\n      eq\n        /* \"contracts/SwapTokens.sol\":965:1018  require(msg.sender == owner, \"Only owner can access\") */\n      tag_180\n      jumpi\n      mload(0x40)\n      0x08c379a000000000000000000000000000000000000000000000000000000000\n      dup2\n      mstore\n      0x04\n      add\n      tag_181\n      swap1\n      tag_95\n      jump\t// in\n    tag_181:\n      mload(0x40)\n      dup1\n      swap2\n      sub\n      swap1\n      revert\n    tag_180:\n        /* \"contracts/SwapTokens.sol\":3356:3365  usdtToken */\n      0x01\n      0x00\n      swap1\n      sload\n      swap1\n      0x0100\n      exp\n      swap1\n      div\n      0xffffffffffffffffffffffffffffffffffffffff\n      and\n        /* \"contracts/SwapTokens.sol\":3356:3375  usdtToken.balanceOf */\n      0xffffffffffffffffffffffffffffffffffffffff\n      and\n      0x70a08231\n        /* \"contracts/SwapTokens.sol\":3384:3388  this */\n      address\n        /* \"contracts/SwapTokens.sol\":3356:3390  usdtToken.balanceOf(address(this)) */\n      mload(0x40)\n      dup3\n      0xffffffff\n      and\n      0xe0\n      shl\n      dup2\n      mstore\n      0x04\n      add\n      tag_183\n      swap2\n      swap1\n      tag_45\n      jump\t// in\n    tag_183:\n      0x20\n      mload(0x40)\n      dup1\n      dup4\n      sub\n      dup2\n      dup7\n      gas\n      staticcall\n      iszero\n      dup1\n      iszero\n      tag_185\n      jumpi\n      returndatacopy(0x00, 0x00, returndatasize)\n      revert(0x00, returndatasize)\n    tag_185:\n      pop\n      pop\n      pop\n      pop\n      mload(0x40)\n      returndatasize\n      not(0x1f)\n      0x1f\n      dup3\n      add\n      and\n      dup3\n      add\n      dup1\n      0x40\n      mstore\n      pop\n      dup2\n      add\n      swap1\n      tag_186\n      swap2\n      swap1\n      tag_49\n      jump\t// in\n    tag_186:\n        /* \"contracts/SwapTokens.sol\":3337:3390  contractUsdtbal_ = usdtToken.balanceOf(address(this)) */\n      swap2\n      pop\n        /* \"contracts/SwapTokens.sol\":3421:3431  nairaToken */\n      0x00\n      0x00\n      swap1\n      sload\n      swap1\n      0x0100\n      exp\n      swap1\n      div\n      0xffffffffffffffffffffffffffffffffffffffff\n      and\n        /* \"contracts/SwapTokens.sol\":3421:3441  nairaToken.balanceOf */\n      0xffffffffffffffffffffffffffffffffffffffff\n      and\n      0x70a08231\n        /* \"contracts/SwapTokens.sol\":3450:3454  this */\n      address\n        /* \"contracts/SwapTokens.sol\":3421:3456  nairaToken.balanceOf(address(this)) */\n      mload(0x40)\n      dup3\n      0xffffffff\n      and\n      0xe0\n      shl\n      dup2\n      mstore\n      0x04\n      add\n      tag_187\n      swap2\n      swap1\n      tag_45\n      jump\t// in\n    tag_187:\n      0x20\n      mload(0x40)\n      dup1\n      dup4\n      sub\n      dup2\n      dup7\n      gas\n      staticcall\n      iszero\n      dup1\n      iszero\n      tag_189\n      jumpi\n      returndatacopy(0x00, 0x00, returndatasize)\n      revert(0x00, returndatasize)\n    tag_189:\n      pop\n      pop\n      pop\n      pop\n      mload(0x40)\n      returndatasize\n      not(0x1f)\n      0x1f\n      dup3\n      add\n      and\n      dup3\n      add\n      dup1\n      0x40\n      mstore\n      pop\n      dup2\n      add\n      swap1\n      tag_190\n      swap2\n      swap1\n      tag_49\n      jump\t// in\n    tag_190:\n        /* \"contracts/SwapTokens.sol\":3401:3456  contractNairabal_ = nairaToken.balanceOf(address(this)) */\n      swap1\n      pop\n        /* \"contracts/SwapTokens.sol\":3210:3464  function getContractBalance() external view onlyOwner returns (uint256 contractUsdtbal_, uint256 contractNairabal_) {... */\n      swap1\n      swap2\n      jump\t// out\n        /* \"contracts/SwapTokens.sol\":169:192  IERC20 public usdtToken */\n    tag_25:\n      0x01\n      0x00\n      swap1\n      sload\n      swap1\n      0x0100\n      exp\n      swap1\n      div\n      0xffffffffffffffffffffffffffffffffffffffff\n      and\n      dup2\n      jump\t// out\n        /* \"contracts/SwapTokens.sol\":138:162  IERC20 public nairaToken */\n    tag_29:\n      0x00\n      0x00\n      swap1\n      sload\n      swap1\n      0x0100\n      exp\n      swap1\n      div\n      0xffffffffffffffffffffffffffffffffffffffff\n      and\n      dup2\n      jump\t// out\n        /* \"contracts/SwapTokens.sol\":4183:4625  function Naira_Usdt_Rate (uint256 _amount, Currency _currency) internal pure returns (uint256 convertedValue_) {... */\n    tag_78:\n        /* \"contracts/SwapTokens.sol\":4269:4292  uint256 convertedValue_ */\n      0x00\n        /* \"contracts/SwapTokens.sol\":4321:4334  Currency.USDT */\n      0x02\n        /* \"contracts/SwapTokens.sol\":4308:4334  _currency == Currency.USDT */\n      dup1\n      dup2\n      gt\n      iszero\n      tag_192\n      jumpi\n      tag_193\n      tag_72\n      jump\t// in\n    tag_193:\n    tag_192:\n        /* \"contracts/SwapTokens.sol\":4308:4317  _currency */\n      dup3\n        /* \"contracts/SwapTokens.sol\":4308:4334  _currency == Currency.USDT */\n      0x02\n      dup2\n      gt\n      iszero\n      tag_194\n      jumpi\n      tag_195\n      tag_72\n      jump\t// in\n    tag_195:\n    tag_194:\n      sub\n        /* \"contracts/SwapTokens.sol\":4305:4585  if(_currency == Currency.USDT) {... */\n      tag_196\n      jumpi\n        /* \"contracts/SwapTokens.sol\":292:296  1600 */\n      0x0640\n        /* \"contracts/SwapTokens.sol\":4369:4376  _amount */\n      dup4\n        /* \"contracts/SwapTokens.sol\":4369:4396  _amount * ONE_USDT_TO_NAIRA */\n      tag_197\n      swap2\n      swap1\n      tag_43\n      jump\t// in\n    tag_197:\n        /* \"contracts/SwapTokens.sol\":4351:4396  convertedValue_ = _amount * ONE_USDT_TO_NAIRA */\n      swap1\n      pop\n        /* \"contracts/SwapTokens.sol\":4305:4585  if(_currency == Currency.USDT) {... */\n      jump(tag_198)\n    tag_196:\n        /* \"contracts/SwapTokens.sol\":4432:4446  Currency.NAIRA */\n      0x01\n        /* \"contracts/SwapTokens.sol\":4419:4446  _currency == Currency.NAIRA */\n      0x02\n      dup2\n      gt\n      iszero\n      tag_199\n      jumpi\n      tag_200\n      tag_72\n      jump\t// in\n    tag_200:\n    tag_199:\n        /* \"contracts/SwapTokens.sol\":4419:4428  _currency */\n      dup3\n        /* \"contracts/SwapTokens.sol\":4419:4446  _currency == Currency.NAIRA */\n      0x02\n      dup2\n      gt\n      iszero\n      tag_201\n      jumpi\n      tag_202\n      tag_72\n      jump\t// in\n    tag_202:\n    tag_201:\n      sub\n        /* \"contracts/SwapTokens.sol\":4416:4585  if(_currency == Currency.NAIRA) {... */\n      tag_203\n      jumpi\n        /* \"contracts/SwapTokens.sol\":292:296  1600 */\n      0x0640\n        /* \"contracts/SwapTokens.sol\":4481:4488  _amount */\n      dup4\n        /* \"contracts/SwapTokens.sol\":4481:4509  _amount  / ONE_USDT_TO_NAIRA */\n      tag_204\n      swap2\n      swap1\n      tag_205\n      jump\t// in\n    tag_204:\n        /* \"contracts/SwapTokens.sol\":4463:4509  convertedValue_ = _amount  / ONE_USDT_TO_NAIRA */\n      swap1\n      pop\n        /* \"contracts/SwapTokens.sol\":4416:4585  if(_currency == Currency.NAIRA) {... */\n      jump(tag_206)\n    tag_203:\n        /* \"contracts/SwapTokens.sol\":4543:4573  revert(\"Unsupported currency\") */\n      mload(0x40)\n      0x08c379a000000000000000000000000000000000000000000000000000000000\n      dup2\n      mstore\n      0x04\n      add\n      tag_207\n      swap1\n      tag_208\n      jump\t// in\n    tag_207:\n      mload(0x40)\n      dup1\n      swap2\n      sub\n      swap1\n      revert\n        /* \"contracts/SwapTokens.sol\":4416:4585  if(_currency == Currency.NAIRA) {... */\n    tag_206:\n        /* \"contracts/SwapTokens.sol\":4305:4585  if(_currency == Currency.USDT) {... */\n    tag_198:\n        /* \"contracts/SwapTokens.sol\":4183:4625  function Naira_Usdt_Rate (uint256 _amount, Currency _currency) internal pure returns (uint256 convertedValue_) {... */\n      swap3\n      swap2\n      pop\n      pop\n      jump\t// out\n        /* \"#utility.yul\":88:205   */\n    tag_210:\n        /* \"#utility.yul\":197:198   */\n      0x00\n        /* \"#utility.yul\":194:195   */\n      0x00\n        /* \"#utility.yul\":187:199   */\n      revert\n        /* \"#utility.yul\":334:460   */\n    tag_212:\n        /* \"#utility.yul\":371:378   */\n      0x00\n        /* \"#utility.yul\":411:453   */\n      0xffffffffffffffffffffffffffffffffffffffff\n        /* \"#utility.yul\":404:409   */\n      dup3\n        /* \"#utility.yul\":400:454   */\n      and\n        /* \"#utility.yul\":389:454   */\n      swap1\n      pop\n        /* \"#utility.yul\":334:460   */\n      swap2\n      swap1\n      pop\n      jump\t// out\n        /* \"#utility.yul\":466:562   */\n    tag_213:\n        /* \"#utility.yul\":503:510   */\n      0x00\n        /* \"#utility.yul\":532:556   */\n      tag_265\n        /* \"#utility.yul\":550:555   */\n      dup3\n        /* \"#utility.yul\":532:556   */\n      tag_212\n      jump\t// in\n    tag_265:\n        /* \"#utility.yul\":521:556   */\n      swap1\n      pop\n        /* \"#utility.yul\":466:562   */\n      swap2\n      swap1\n      pop\n      jump\t// out\n        /* \"#utility.yul\":568:690   */\n    tag_214:\n        /* \"#utility.yul\":641:665   */\n      tag_267\n        /* \"#utility.yul\":659:664   */\n      dup2\n        /* \"#utility.yul\":641:665   */\n      tag_213\n      jump\t// in\n    tag_267:\n        /* \"#utility.yul\":634:639   */\n      dup2\n        /* \"#utility.yul\":631:666   */\n      eq\n        /* \"#utility.yul\":621:684   */\n      tag_268\n      jumpi\n        /* \"#utility.yul\":680:681   */\n      0x00\n        /* \"#utility.yul\":677:678   */\n      0x00\n        /* \"#utility.yul\":670:682   */\n      revert\n        /* \"#utility.yul\":621:684   */\n    tag_268:\n        /* \"#utility.yul\":568:690   */\n      pop\n      jump\t// out\n        /* \"#utility.yul\":696:835   */\n    tag_215:\n        /* \"#utility.yul\":742:747   */\n      0x00\n        /* \"#utility.yul\":780:786   */\n      dup2\n        /* \"#utility.yul\":767:787   */\n      calldataload\n        /* \"#utility.yul\":758:787   */\n      swap1\n      pop\n        /* \"#utility.yul\":796:829   */\n      tag_270\n        /* \"#utility.yul\":823:828   */\n      dup2\n        /* \"#utility.yul\":796:829   */\n      tag_214\n      jump\t// in\n    tag_270:\n        /* \"#utility.yul\":696:835   */\n      swap3\n      swap2\n      pop\n      pop\n      jump\t// out\n        /* \"#utility.yul\":841:918   */\n    tag_216:\n        /* \"#utility.yul\":878:885   */\n      0x00\n        /* \"#utility.yul\":907:912   */\n      dup2\n        /* \"#utility.yul\":896:912   */\n      swap1\n      pop\n        /* \"#utility.yul\":841:918   */\n      swap2\n      swap1\n      pop\n      jump\t// out\n        /* \"#utility.yul\":924:1046   */\n    tag_217:\n        /* \"#utility.yul\":997:1021   */\n      tag_273\n        /* \"#utility.yul\":1015:1020   */\n      dup2\n        /* \"#utility.yul\":997:1021   */\n      tag_216\n      jump\t// in\n    tag_273:\n        /* \"#utility.yul\":990:995   */\n      dup2\n        /* \"#utility.yul\":987:1022   */\n      eq\n        /* \"#utility.yul\":977:1040   */\n      tag_274\n      jumpi\n        /* \"#utility.yul\":1036:1037   */\n      0x00\n        /* \"#utility.yul\":1033:1034   */\n      0x00\n        /* \"#utility.yul\":1026:1038   */\n      revert\n        /* \"#utility.yul\":977:1040   */\n    tag_274:\n        /* \"#utility.yul\":924:1046   */\n      pop\n      jump\t// out\n        /* \"#utility.yul\":1052:1191   */\n    tag_218:\n        /* \"#utility.yul\":1098:1103   */\n      0x00\n        /* \"#utility.yul\":1136:1142   */\n      dup2\n        /* \"#utility.yul\":1123:1143   */\n      calldataload\n        /* \"#utility.yul\":1114:1143   */\n      swap1\n      pop\n        /* \"#utility.yul\":1152:1185   */\n      tag_276\n        /* \"#utility.yul\":1179:1184   */\n      dup2\n        /* \"#utility.yul\":1152:1185   */\n      tag_217\n      jump\t// in\n    tag_276:\n        /* \"#utility.yul\":1052:1191   */\n      swap3\n      swap2\n      pop\n      pop\n      jump\t// out\n        /* \"#utility.yul\":1197:1671   */\n    tag_11:\n        /* \"#utility.yul\":1265:1271   */\n      0x00\n        /* \"#utility.yul\":1273:1279   */\n      0x00\n        /* \"#utility.yul\":1322:1324   */\n      0x40\n        /* \"#utility.yul\":1310:1319   */\n      dup4\n        /* \"#utility.yul\":1301:1308   */\n      dup6\n        /* \"#utility.yul\":1297:1320   */\n      sub\n        /* \"#utility.yul\":1293:1325   */\n      slt\n        /* \"#utility.yul\":1290:1409   */\n      iszero\n      tag_278\n      jumpi\n        /* \"#utility.yul\":1328:1407   */\n      tag_279\n      tag_210\n      jump\t// in\n    tag_279:\n        /* \"#utility.yul\":1290:1409   */\n    tag_278:\n        /* \"#utility.yul\":1448:1449   */\n      0x00\n        /* \"#utility.yul\":1473:1526   */\n      tag_280\n        /* \"#utility.yul\":1518:1525   */\n      dup6\n        /* \"#utility.yul\":1509:1515   */\n      dup3\n        /* \"#utility.yul\":1498:1507   */\n      dup7\n        /* \"#utility.yul\":1494:1516   */\n      add\n        /* \"#utility.yul\":1473:1526   */\n      tag_215\n      jump\t// in\n    tag_280:\n        /* \"#utility.yul\":1463:1526   */\n      swap3\n      pop\n        /* \"#utility.yul\":1419:1536   */\n      pop\n        /* \"#utility.yul\":1575:1577   */\n      0x20\n        /* \"#utility.yul\":1601:1654   */\n      tag_281\n        /* \"#utility.yul\":1646:1653   */\n      dup6\n        /* \"#utility.yul\":1637:1643   */\n      dup3\n        /* \"#utility.yul\":1626:1635   */\n      dup7\n        /* \"#utility.yul\":1622:1644   */\n      add\n        /* \"#utility.yul\":1601:1654   */\n      tag_218\n      jump\t// in\n    tag_281:\n        /* \"#utility.yul\":1591:1654   */\n      swap2\n      pop\n        /* \"#utility.yul\":1546:1664   */\n      pop\n        /* \"#utility.yul\":1197:1671   */\n      swap3\n      pop\n      swap3\n      swap1\n      pop\n      jump\t// out\n        /* \"#utility.yul\":1677:1787   */\n    tag_219:\n        /* \"#utility.yul\":1761:1762   */\n      0x03\n        /* \"#utility.yul\":1754:1759   */\n      dup2\n        /* \"#utility.yul\":1751:1763   */\n      lt\n        /* \"#utility.yul\":1741:1781   */\n      tag_283\n      jumpi\n        /* \"#utility.yul\":1777:1778   */\n      0x00\n        /* \"#utility.yul\":1774:1775   */\n      0x00\n        /* \"#utility.yul\":1767:1779   */\n      revert\n        /* \"#utility.yul\":1741:1781   */\n    tag_283:\n        /* \"#utility.yul\":1677:1787   */\n      pop\n      jump\t// out\n        /* \"#utility.yul\":1793:1954   */\n    tag_220:\n        /* \"#utility.yul\":1850:1855   */\n      0x00\n        /* \"#utility.yul\":1888:1894   */\n      dup2\n        /* \"#utility.yul\":1875:1895   */\n      calldataload\n        /* \"#utility.yul\":1866:1895   */\n      swap1\n      pop\n        /* \"#utility.yul\":1904:1948   */\n      tag_285\n        /* \"#utility.yul\":1942:1947   */\n      dup2\n        /* \"#utility.yul\":1904:1948   */\n      tag_219\n      jump\t// in\n    tag_285:\n        /* \"#utility.yul\":1793:1954   */\n      swap3\n      swap2\n      pop\n      pop\n      jump\t// out\n        /* \"#utility.yul\":1960:2456   */\n    tag_15:\n        /* \"#utility.yul\":2039:2045   */\n      0x00\n        /* \"#utility.yul\":2047:2053   */\n      0x00\n        /* \"#utility.yul\":2096:2098   */\n      0x40\n        /* \"#utility.yul\":2084:2093   */\n      dup4\n        /* \"#utility.yul\":2075:2082   */\n      dup6\n        /* \"#utility.yul\":2071:2094   */\n      sub\n        /* \"#utility.yul\":2067:2099   */\n      slt\n        /* \"#utility.yul\":2064:2183   */\n      iszero\n      tag_287\n      jumpi\n        /* \"#utility.yul\":2102:2181   */\n      tag_288\n      tag_210\n      jump\t// in\n    tag_288:\n        /* \"#utility.yul\":2064:2183   */\n    tag_287:\n        /* \"#utility.yul\":2222:2223   */\n      0x00\n        /* \"#utility.yul\":2247:2311   */\n      tag_289\n        /* \"#utility.yul\":2303:2310   */\n      dup6\n        /* \"#utility.yul\":2294:2300   */\n      dup3\n        /* \"#utility.yul\":2283:2292   */\n      dup7\n        /* \"#utility.yul\":2279:2301   */\n      add\n        /* \"#utility.yul\":2247:2311   */\n      tag_220\n      jump\t// in\n    tag_289:\n        /* \"#utility.yul\":2237:2311   */\n      swap3\n      pop\n        /* \"#utility.yul\":2193:2321   */\n      pop\n        /* \"#utility.yul\":2360:2362   */\n      0x20\n        /* \"#utility.yul\":2386:2439   */\n      tag_290\n        /* \"#utility.yul\":2431:2438   */\n      dup6\n        /* \"#utility.yul\":2422:2428   */\n      dup3\n        /* \"#utility.yul\":2411:2420   */\n      dup7\n        /* \"#utility.yul\":2407:2429   */\n      add\n        /* \"#utility.yul\":2386:2439   */\n      tag_218\n      jump\t// in\n    tag_290:\n        /* \"#utility.yul\":2376:2439   */\n      swap2\n      pop\n        /* \"#utility.yul\":2331:2449   */\n      pop\n        /* \"#utility.yul\":1960:2456   */\n      swap3\n      pop\n      swap3\n      swap1\n      pop\n      jump\t// out\n        /* \"#utility.yul\":2462:2580   */\n    tag_221:\n        /* \"#utility.yul\":2549:2573   */\n      tag_292\n        /* \"#utility.yul\":2567:2572   */\n      dup2\n        /* \"#utility.yul\":2549:2573   */\n      tag_216\n      jump\t// in\n    tag_292:\n        /* \"#utility.yul\":2544:2547   */\n      dup3\n        /* \"#utility.yul\":2537:2574   */\n      mstore\n        /* \"#utility.yul\":2462:2580   */\n      pop\n      pop\n      jump\t// out\n        /* \"#utility.yul\":2586:2918   */\n    tag_23:\n        /* \"#utility.yul\":2707:2711   */\n      0x00\n        /* \"#utility.yul\":2745:2747   */\n      0x40\n        /* \"#utility.yul\":2734:2743   */\n      dup3\n        /* \"#utility.yul\":2730:2748   */\n      add\n        /* \"#utility.yul\":2722:2748   */\n      swap1\n      pop\n        /* \"#utility.yul\":2758:2829   */\n      tag_294\n        /* \"#utility.yul\":2826:2827   */\n      0x00\n        /* \"#utility.yul\":2815:2824   */\n      dup4\n        /* \"#utility.yul\":2811:2828   */\n      add\n        /* \"#utility.yul\":2802:2808   */\n      dup6\n        /* \"#utility.yul\":2758:2829   */\n      tag_221\n      jump\t// in\n    tag_294:\n        /* \"#utility.yul\":2839:2911   */\n      tag_295\n        /* \"#utility.yul\":2907:2909   */\n      0x20\n        /* \"#utility.yul\":2896:2905   */\n      dup4\n        /* \"#utility.yul\":2892:2910   */\n      add\n        /* \"#utility.yul\":2883:2889   */\n      dup5\n        /* \"#utility.yul\":2839:2911   */\n      tag_221\n      jump\t// in\n    tag_295:\n        /* \"#utility.yul\":2586:2918   */\n      swap4\n      swap3\n      pop\n      pop\n      pop\n      jump\t// out\n        /* \"#utility.yul\":2924:2984   */\n    tag_222:\n        /* \"#utility.yul\":2952:2955   */\n      0x00\n        /* \"#utility.yul\":2973:2978   */\n      dup2\n        /* \"#utility.yul\":2966:2978   */\n      swap1\n      pop\n        /* \"#utility.yul\":2924:2984   */\n      swap2\n      swap1\n      pop\n      jump\t// out\n        /* \"#utility.yul\":2990:3132   */\n    tag_223:\n        /* \"#utility.yul\":3040:3049   */\n      0x00\n        /* \"#utility.yul\":3073:3126   */\n      tag_298\n        /* \"#utility.yul\":3091:3125   */\n      tag_299\n        /* \"#utility.yul\":3100:3124   */\n      tag_300\n        /* \"#utility.yul\":3118:3123   */\n      dup5\n        /* \"#utility.yul\":3100:3124   */\n      tag_212\n      jump\t// in\n    tag_300:\n        /* \"#utility.yul\":3091:3125   */\n      tag_222\n      jump\t// in\n    tag_299:\n        /* \"#utility.yul\":3073:3126   */\n      tag_212\n      jump\t// in\n    tag_298:\n        /* \"#utility.yul\":3060:3126   */\n      swap1\n      pop\n        /* \"#utility.yul\":2990:3132   */\n      swap2\n      swap1\n      pop\n      jump\t// out\n        /* \"#utility.yul\":3138:3264   */\n    tag_224:\n        /* \"#utility.yul\":3188:3197   */\n      0x00\n        /* \"#utility.yul\":3221:3258   */\n      tag_302\n        /* \"#utility.yul\":3252:3257   */\n      dup3\n        /* \"#utility.yul\":3221:3258   */\n      tag_223\n      jump\t// in\n    tag_302:\n        /* \"#utility.yul\":3208:3258   */\n      swap1\n      pop\n        /* \"#utility.yul\":3138:3264   */\n      swap2\n      swap1\n      pop\n      jump\t// out\n        /* \"#utility.yul\":3270:3409   */\n    tag_225:\n        /* \"#utility.yul\":3333:3342   */\n      0x00\n        /* \"#utility.yul\":3366:3403   */\n      tag_304\n        /* \"#utility.yul\":3397:3402   */\n      dup3\n        /* \"#utility.yul\":3366:3403   */\n      tag_224\n      jump\t// in\n    tag_304:\n        /* \"#utility.yul\":3353:3403   */\n      swap1\n      pop\n        /* \"#utility.yul\":3270:3409   */\n      swap2\n      swap1\n      pop\n      jump\t// out\n        /* \"#utility.yul\":3415:3572   */\n    tag_226:\n        /* \"#utility.yul\":3515:3565   */\n      tag_306\n        /* \"#utility.yul\":3559:3564   */\n      dup2\n        /* \"#utility.yul\":3515:3565   */\n      tag_225\n      jump\t// in\n    tag_306:\n        /* \"#utility.yul\":3510:3513   */\n      dup3\n        /* \"#utility.yul\":3503:3566   */\n      mstore\n        /* \"#utility.yul\":3415:3572   */\n      pop\n      pop\n      jump\t// out\n        /* \"#utility.yul\":3578:3826   */\n    tag_27:\n        /* \"#utility.yul\":3684:3688   */\n      0x00\n        /* \"#utility.yul\":3722:3724   */\n      0x20\n        /* \"#utility.yul\":3711:3720   */\n      dup3\n        /* \"#utility.yul\":3707:3725   */\n      add\n        /* \"#utility.yul\":3699:3725   */\n      swap1\n      pop\n        /* \"#utility.yul\":3735:3819   */\n      tag_308\n        /* \"#utility.yul\":3816:3817   */\n      0x00\n        /* \"#utility.yul\":3805:3814   */\n      dup4\n        /* \"#utility.yul\":3801:3818   */\n      add\n        /* \"#utility.yul\":3792:3798   */\n      dup5\n        /* \"#utility.yul\":3735:3819   */\n      tag_226\n      jump\t// in\n    tag_308:\n        /* \"#utility.yul\":3578:3826   */\n      swap3\n      swap2\n      pop\n      pop\n      jump\t// out\n        /* \"#utility.yul\":3832:4001   */\n    tag_227:\n        /* \"#utility.yul\":3916:3927   */\n      0x00\n        /* \"#utility.yul\":3950:3956   */\n      dup3\n        /* \"#utility.yul\":3945:3948   */\n      dup3\n        /* \"#utility.yul\":3938:3957   */\n      mstore\n        /* \"#utility.yul\":3990:3994   */\n      0x20\n        /* \"#utility.yul\":3985:3988   */\n      dup3\n        /* \"#utility.yul\":3981:3995   */\n      add\n        /* \"#utility.yul\":3966:3995   */\n      swap1\n      pop\n        /* \"#utility.yul\":3832:4001   */\n      swap3\n      swap2\n      pop\n      pop\n      jump\t// out\n        /* \"#utility.yul\":4007:4179   */\n    tag_228:\n        /* \"#utility.yul\":4147:4171   */\n      0x5265656e7472616e6379206e6f7420616c6c6f77656400000000000000000000\n        /* \"#utility.yul\":4143:4144   */\n      0x00\n        /* \"#utility.yul\":4135:4141   */\n      dup3\n        /* \"#utility.yul\":4131:4145   */\n      add\n        /* \"#utility.yul\":4124:4172   */\n      mstore\n        /* \"#utility.yul\":4007:4179   */\n      pop\n      jump\t// out\n        /* \"#utility.yul\":4185:4551   */\n    tag_229:\n        /* \"#utility.yul\":4327:4330   */\n      0x00\n        /* \"#utility.yul\":4348:4415   */\n      tag_312\n        /* \"#utility.yul\":4412:4414   */\n      0x16\n        /* \"#utility.yul\":4407:4410   */\n      dup4\n        /* \"#utility.yul\":4348:4415   */\n      tag_227\n      jump\t// in\n    tag_312:\n        /* \"#utility.yul\":4341:4415   */\n      swap2\n      pop\n        /* \"#utility.yul\":4424:4517   */\n      tag_313\n        /* \"#utility.yul\":4513:4516   */\n      dup3\n        /* \"#utility.yul\":4424:4517   */\n      tag_228\n      jump\t// in\n    tag_313:\n        /* \"#utility.yul\":4542:4544   */\n      0x20\n        /* \"#utility.yul\":4537:4540   */\n      dup3\n        /* \"#utility.yul\":4533:4545   */\n      add\n        /* \"#utility.yul\":4526:4545   */\n      swap1\n      pop\n        /* \"#utility.yul\":4185:4551   */\n      swap2\n      swap1\n      pop\n      jump\t// out\n        /* \"#utility.yul\":4557:4976   */\n    tag_34:\n        /* \"#utility.yul\":4723:4727   */\n      0x00\n        /* \"#utility.yul\":4761:4763   */\n      0x20\n        /* \"#utility.yul\":4750:4759   */\n      dup3\n        /* \"#utility.yul\":4746:4764   */\n      add\n        /* \"#utility.yul\":4738:4764   */\n      swap1\n      pop\n        /* \"#utility.yul\":4810:4819   */\n      dup2\n        /* \"#utility.yul\":4804:4808   */\n      dup2\n        /* \"#utility.yul\":4800:4820   */\n      sub\n        /* \"#utility.yul\":4796:4797   */\n      0x00\n        /* \"#utility.yul\":4785:4794   */\n      dup4\n        /* \"#utility.yul\":4781:4798   */\n      add\n        /* \"#utility.yul\":4774:4821   */\n      mstore\n        /* \"#utility.yul\":4838:4969   */\n      tag_315\n        /* \"#utility.yul\":4964:4968   */\n      dup2\n        /* \"#utility.yul\":4838:4969   */\n      tag_229\n      jump\t// in\n    tag_315:\n        /* \"#utility.yul\":4830:4969   */\n      swap1\n      pop\n        /* \"#utility.yul\":4557:4976   */\n      swap2\n      swap1\n      pop\n      jump\t// out\n        /* \"#utility.yul\":4982:5148   */\n    tag_230:\n        /* \"#utility.yul\":5122:5140   */\n      0x5a65726f206e6f7420616c6c6f77656400000000000000000000000000000000\n        /* \"#utility.yul\":5118:5119   */\n      0x00\n        /* \"#utility.yul\":5110:5116   */\n      dup3\n        /* \"#utility.yul\":5106:5120   */\n      add\n        /* \"#utility.yul\":5099:5141   */\n      mstore\n        /* \"#utility.yul\":4982:5148   */\n      pop\n      jump\t// out\n        /* \"#utility.yul\":5154:5520   */\n    tag_231:\n        /* \"#utility.yul\":5296:5299   */\n      0x00\n        /* \"#utility.yul\":5317:5384   */\n      tag_318\n        /* \"#utility.yul\":5381:5383   */\n      0x10\n        /* \"#utility.yul\":5376:5379   */\n      dup4\n        /* \"#utility.yul\":5317:5384   */\n      tag_227\n      jump\t// in\n    tag_318:\n        /* \"#utility.yul\":5310:5384   */\n      swap2\n      pop\n        /* \"#utility.yul\":5393:5486   */\n      tag_319\n        /* \"#utility.yul\":5482:5485   */\n      dup3\n        /* \"#utility.yul\":5393:5486   */\n      tag_230\n      jump\t// in\n    tag_319:\n        /* \"#utility.yul\":5511:5513   */\n      0x20\n        /* \"#utility.yul\":5506:5509   */\n      dup3\n        /* \"#utility.yul\":5502:5514   */\n      add\n        /* \"#utility.yul\":5495:5514   */\n      swap1\n      pop\n        /* \"#utility.yul\":5154:5520   */\n      swap2\n      swap1\n      pop\n      jump\t// out\n        /* \"#utility.yul\":5526:5945   */\n    tag_38:\n        /* \"#utility.yul\":5692:5696   */\n      0x00\n        /* \"#utility.yul\":5730:5732   */\n      0x20\n        /* \"#utility.yul\":5719:5728   */\n      dup3\n        /* \"#utility.yul\":5715:5733   */\n      add\n        /* \"#utility.yul\":5707:5733   */\n      swap1\n      pop\n        /* \"#utility.yul\":5779:5788   */\n      dup2\n        /* \"#utility.yul\":5773:5777   */\n      dup2\n        /* \"#utility.yul\":5769:5789   */\n      sub\n        /* \"#utility.yul\":5765:5766   */\n      0x00\n        /* \"#utility.yul\":5754:5763   */\n      dup4\n        /* \"#utility.yul\":5750:5767   */\n      add\n        /* \"#utility.yul\":5743:5790   */\n      mstore\n        /* \"#utility.yul\":5807:5938   */\n      tag_321\n        /* \"#utility.yul\":5933:5937   */\n      dup2\n        /* \"#utility.yul\":5807:5938   */\n      tag_231\n      jump\t// in\n    tag_321:\n        /* \"#utility.yul\":5799:5938   */\n      swap1\n      pop\n        /* \"#utility.yul\":5526:5945   */\n      swap2\n      swap1\n      pop\n      jump\t// out\n        /* \"#utility.yul\":5951:6124   */\n    tag_232:\n        /* \"#utility.yul\":6091:6116   */\n      0x43616e6e6f742073776170207a65726f20616d6f756e74000000000000000000\n        /* \"#utility.yul\":6087:6088   */\n      0x00\n        /* \"#utility.yul\":6079:6085   */\n      dup3\n        /* \"#utility.yul\":6075:6089   */\n      add\n        /* \"#utility.yul\":6068:6117   */\n      mstore\n        /* \"#utility.yul\":5951:6124   */\n      pop\n      jump\t// out\n        /* \"#utility.yul\":6130:6496   */\n    tag_233:\n        /* \"#utility.yul\":6272:6275   */\n      0x00\n        /* \"#utility.yul\":6293:6360   */\n      tag_324\n        /* \"#utility.yul\":6357:6359   */\n      0x17\n        /* \"#utility.yul\":6352:6355   */\n      dup4\n        /* \"#utility.yul\":6293:6360   */\n      tag_227\n      jump\t// in\n    tag_324:\n        /* \"#utility.yul\":6286:6360   */\n      swap2\n      pop\n        /* \"#utility.yul\":6369:6462   */\n      tag_325\n        /* \"#utility.yul\":6458:6461   */\n      dup3\n        /* \"#utility.yul\":6369:6462   */\n      tag_232\n      jump\t// in\n    tag_325:\n        /* \"#utility.yul\":6487:6489   */\n      0x20\n        /* \"#utility.yul\":6482:6485   */\n      dup3\n        /* \"#utility.yul\":6478:6490   */\n      add\n        /* \"#utility.yul\":6471:6490   */\n      swap1\n      pop\n        /* \"#utility.yul\":6130:6496   */\n      swap2\n      swap1\n      pop\n      jump\t// out\n        /* \"#utility.yul\":6502:6921   */\n    tag_41:\n        /* \"#utility.yul\":6668:6672   */\n      0x00\n        /* \"#utility.yul\":6706:6708   */\n      0x20\n        /* \"#utility.yul\":6695:6704   */\n      dup3\n        /* \"#utility.yul\":6691:6709   */\n      add\n        /* \"#utility.yul\":6683:6709   */\n      swap1\n      pop\n        /* \"#utility.yul\":6755:6764   */\n      dup2\n        /* \"#utility.yul\":6749:6753   */\n      dup2\n        /* \"#utility.yul\":6745:6765   */\n      sub\n        /* \"#utility.yul\":6741:6742   */\n      0x00\n        /* \"#utility.yul\":6730:6739   */\n      dup4\n        /* \"#utility.yul\":6726:6743   */\n      add\n        /* \"#utility.yul\":6719:6766   */\n      mstore\n        /* \"#utility.yul\":6783:6914   */\n      tag_327\n        /* \"#utility.yul\":6909:6913   */\n      dup2\n        /* \"#utility.yul\":6783:6914   */\n      tag_233\n      jump\t// in\n    tag_327:\n        /* \"#utility.yul\":6775:6914   */\n      swap1\n      pop\n        /* \"#utility.yul\":6502:6921   */\n      swap2\n      swap1\n      pop\n      jump\t// out\n        /* \"#utility.yul\":6927:7107   */\n    tag_234:\n        /* \"#utility.yul\":6975:7052   */\n      0x4e487b7100000000000000000000000000000000000000000000000000000000\n        /* \"#utility.yul\":6972:6973   */\n      0x00\n        /* \"#utility.yul\":6965:7053   */\n      mstore\n        /* \"#utility.yul\":7072:7076   */\n      0x11\n        /* \"#utility.yul\":7069:7070   */\n      0x04\n        /* \"#utility.yul\":7062:7077   */\n      mstore\n        /* \"#utility.yul\":7096:7100   */\n      0x24\n        /* \"#utility.yul\":7093:7094   */\n      0x00\n        /* \"#utility.yul\":7086:7101   */\n      revert\n        /* \"#utility.yul\":7113:7523   */\n    tag_43:\n        /* \"#utility.yul\":7153:7160   */\n      0x00\n        /* \"#utility.yul\":7176:7196   */\n      tag_330\n        /* \"#utility.yul\":7194:7195   */\n      dup3\n        /* \"#utility.yul\":7176:7196   */\n      tag_216\n      jump\t// in\n    tag_330:\n        /* \"#utility.yul\":7171:7196   */\n      swap2\n      pop\n        /* \"#utility.yul\":7210:7230   */\n      tag_331\n        /* \"#utility.yul\":7228:7229   */\n      dup4\n        /* \"#utility.yul\":7210:7230   */\n      tag_216\n      jump\t// in\n    tag_331:\n        /* \"#utility.yul\":7205:7230   */\n      swap3\n      pop\n        /* \"#utility.yul\":7265:7266   */\n      dup3\n        /* \"#utility.yul\":7262:7263   */\n      dup3\n        /* \"#utility.yul\":7258:7267   */\n      mul\n        /* \"#utility.yul\":7287:7317   */\n      tag_332\n        /* \"#utility.yul\":7305:7316   */\n      dup2\n        /* \"#utility.yul\":7287:7317   */\n      tag_216\n      jump\t// in\n    tag_332:\n        /* \"#utility.yul\":7276:7317   */\n      swap2\n      pop\n        /* \"#utility.yul\":7466:7467   */\n      dup3\n        /* \"#utility.yul\":7457:7464   */\n      dup3\n        /* \"#utility.yul\":7453:7468   */\n      div\n        /* \"#utility.yul\":7450:7451   */\n      dup5\n        /* \"#utility.yul\":7447:7469   */\n      eq\n        /* \"#utility.yul\":7427:7428   */\n      dup4\n        /* \"#utility.yul\":7420:7429   */\n      iszero\n        /* \"#utility.yul\":7400:7483   */\n      or\n        /* \"#utility.yul\":7377:7516   */\n      tag_333\n      jumpi\n        /* \"#utility.yul\":7496:7514   */\n      tag_334\n      tag_234\n      jump\t// in\n    tag_334:\n        /* \"#utility.yul\":7377:7516   */\n    tag_333:\n        /* \"#utility.yul\":7161:7523   */\n      pop\n        /* \"#utility.yul\":7113:7523   */\n      swap3\n      swap2\n      pop\n      pop\n      jump\t// out\n        /* \"#utility.yul\":7529:7647   */\n    tag_235:\n        /* \"#utility.yul\":7616:7640   */\n      tag_336\n        /* \"#utility.yul\":7634:7639   */\n      dup2\n        /* \"#utility.yul\":7616:7640   */\n      tag_213\n      jump\t// in\n    tag_336:\n        /* \"#utility.yul\":7611:7614   */\n      dup3\n        /* \"#utility.yul\":7604:7641   */\n      mstore\n        /* \"#utility.yul\":7529:7647   */\n      pop\n      pop\n      jump\t// out\n        /* \"#utility.yul\":7653:7875   */\n    tag_45:\n        /* \"#utility.yul\":7746:7750   */\n      0x00\n        /* \"#utility.yul\":7784:7786   */\n      0x20\n        /* \"#utility.yul\":7773:7782   */\n      dup3\n        /* \"#utility.yul\":7769:7787   */\n      add\n        /* \"#utility.yul\":7761:7787   */\n      swap1\n      pop\n        /* \"#utility.yul\":7797:7868   */\n      tag_338\n        /* \"#utility.yul\":7865:7866   */\n      0x00\n        /* \"#utility.yul\":7854:7863   */\n      dup4\n        /* \"#utility.yul\":7850:7867   */\n      add\n        /* \"#utility.yul\":7841:7847   */\n      dup5\n        /* \"#utility.yul\":7797:7868   */\n      tag_235\n      jump\t// in\n    tag_338:\n        /* \"#utility.yul\":7653:7875   */\n      swap3\n      swap2\n      pop\n      pop\n      jump\t// out\n        /* \"#utility.yul\":7881:8024   */\n    tag_236:\n        /* \"#utility.yul\":7938:7943   */\n      0x00\n        /* \"#utility.yul\":7969:7975   */\n      dup2\n        /* \"#utility.yul\":7963:7976   */\n      mload\n        /* \"#utility.yul\":7954:7976   */\n      swap1\n      pop\n        /* \"#utility.yul\":7985:8018   */\n      tag_340\n        /* \"#utility.yul\":8012:8017   */\n      dup2\n        /* \"#utility.yul\":7985:8018   */\n      tag_217\n      jump\t// in\n    tag_340:\n        /* \"#utility.yul\":7881:8024   */\n      swap3\n      swap2\n      pop\n      pop\n      jump\t// out\n        /* \"#utility.yul\":8030:8381   */\n    tag_49:\n        /* \"#utility.yul\":8100:8106   */\n      0x00\n        /* \"#utility.yul\":8149:8151   */\n      0x20\n        /* \"#utility.yul\":8137:8146   */\n      dup3\n        /* \"#utility.yul\":8128:8135   */\n      dup5\n        /* \"#utility.yul\":8124:8147   */\n      sub\n        /* \"#utility.yul\":8120:8152   */\n      slt\n        /* \"#utility.yul\":8117:8236   */\n      iszero\n      tag_342\n      jumpi\n        /* \"#utility.yul\":8155:8234   */\n      tag_343\n      tag_210\n      jump\t// in\n    tag_343:\n        /* \"#utility.yul\":8117:8236   */\n    tag_342:\n        /* \"#utility.yul\":8275:8276   */\n      0x00\n        /* \"#utility.yul\":8300:8364   */\n      tag_344\n        /* \"#utility.yul\":8356:8363   */\n      dup5\n        /* \"#utility.yul\":8347:8353   */\n      dup3\n        /* \"#utility.yul\":8336:8345   */\n      dup6\n        /* \"#utility.yul\":8332:8354   */\n      add\n        /* \"#utility.yul\":8300:8364   */\n      tag_236\n      jump\t// in\n    tag_344:\n        /* \"#utility.yul\":8290:8364   */\n      swap2\n      pop\n        /* \"#utility.yul\":8246:8374   */\n      pop\n        /* \"#utility.yul\":8030:8381   */\n      swap3\n      swap2\n      pop\n      pop\n      jump\t// out\n        /* \"#utility.yul\":8387:8563   */\n    tag_237:\n        /* \"#utility.yul\":8527:8555   */\n      0x596f75722062616c616e6365206973206e6f7420656e6f756768000000000000\n        /* \"#utility.yul\":8523:8524   */\n      0x00\n        /* \"#utility.yul\":8515:8521   */\n      dup3\n        /* \"#utility.yul\":8511:8525   */\n      add\n        /* \"#utility.yul\":8504:8556   */\n      mstore\n        /* \"#utility.yul\":8387:8563   */\n      pop\n      jump\t// out\n        /* \"#utility.yul\":8569:8935   */\n    tag_238:\n        /* \"#utility.yul\":8711:8714   */\n      0x00\n        /* \"#utility.yul\":8732:8799   */\n      tag_347\n        /* \"#utility.yul\":8796:8798   */\n      0x1a\n        /* \"#utility.yul\":8791:8794   */\n      dup4\n        /* \"#utility.yul\":8732:8799   */\n      tag_227\n      jump\t// in\n    tag_347:\n        /* \"#utility.yul\":8725:8799   */\n      swap2\n      pop\n        /* \"#utility.yul\":8808:8901   */\n      tag_348\n        /* \"#utility.yul\":8897:8900   */\n      dup3\n        /* \"#utility.yul\":8808:8901   */\n      tag_237\n      jump\t// in\n    tag_348:\n        /* \"#utility.yul\":8926:8928   */\n      0x20\n        /* \"#utility.yul\":8921:8924   */\n      dup3\n        /* \"#utility.yul\":8917:8929   */\n      add\n        /* \"#utility.yul\":8910:8929   */\n      swap1\n      pop\n        /* \"#utility.yul\":8569:8935   */\n      swap2\n      swap1\n      pop\n      jump\t// out\n        /* \"#utility.yul\":8941:9360   */\n    tag_52:\n        /* \"#utility.yul\":9107:9111   */\n      0x00\n        /* \"#utility.yul\":9145:9147   */\n      0x20\n        /* \"#utility.yul\":9134:9143   */\n      dup3\n        /* \"#utility.yul\":9130:9148   */\n      add\n        /* \"#utility.yul\":9122:9148   */\n      swap1\n      pop\n        /* \"#utility.yul\":9194:9203   */\n      dup2\n        /* \"#utility.yul\":9188:9192   */\n      dup2\n        /* \"#utility.yul\":9184:9204   */\n      sub\n        /* \"#utility.yul\":9180:9181   */\n      0x00\n        /* \"#utility.yul\":9169:9178   */\n      dup4\n        /* \"#utility.yul\":9165:9182   */\n      add\n        /* \"#utility.yul\":9158:9205   */\n      mstore\n        /* \"#utility.yul\":9222:9353   */\n      tag_350\n        /* \"#utility.yul\":9348:9352   */\n      dup2\n        /* \"#utility.yul\":9222:9353   */\n      tag_238\n      jump\t// in\n    tag_350:\n        /* \"#utility.yul\":9214:9353   */\n      swap1\n      pop\n        /* \"#utility.yul\":8941:9360   */\n      swap2\n      swap1\n      pop\n      jump\t// out\n        /* \"#utility.yul\":9366:9698   */\n    tag_54:\n        /* \"#utility.yul\":9487:9491   */\n      0x00\n        /* \"#utility.yul\":9525:9527   */\n      0x40\n        /* \"#utility.yul\":9514:9523   */\n      dup3\n        /* \"#utility.yul\":9510:9528   */\n      add\n        /* \"#utility.yul\":9502:9528   */\n      swap1\n      pop\n        /* \"#utility.yul\":9538:9609   */\n      tag_352\n        /* \"#utility.yul\":9606:9607   */\n      0x00\n        /* \"#utility.yul\":9595:9604   */\n      dup4\n        /* \"#utility.yul\":9591:9608   */\n      add\n        /* \"#utility.yul\":9582:9588   */\n      dup6\n        /* \"#utility.yul\":9538:9609   */\n      tag_235\n      jump\t// in\n    tag_352:\n        /* \"#utility.yul\":9619:9691   */\n      tag_353\n        /* \"#utility.yul\":9687:9689   */\n      0x20\n        /* \"#utility.yul\":9676:9685   */\n      dup4\n        /* \"#utility.yul\":9672:9690   */\n      add\n        /* \"#utility.yul\":9663:9669   */\n      dup5\n        /* \"#utility.yul\":9619:9691   */\n      tag_235\n      jump\t// in\n    tag_353:\n        /* \"#utility.yul\":9366:9698   */\n      swap4\n      swap3\n      pop\n      pop\n      pop\n      jump\t// out\n        /* \"#utility.yul\":9704:9877   */\n    tag_239:\n        /* \"#utility.yul\":9844:9869   */\n      0x546f6b656e20616c6c6f77616e636520746f6f206c6f77000000000000000000\n        /* \"#utility.yul\":9840:9841   */\n      0x00\n        /* \"#utility.yul\":9832:9838   */\n      dup3\n        /* \"#utility.yul\":9828:9842   */\n      add\n        /* \"#utility.yul\":9821:9870   */\n      mstore\n        /* \"#utility.yul\":9704:9877   */\n      pop\n      jump\t// out\n        /* \"#utility.yul\":9883:10249   */\n    tag_240:\n        /* \"#utility.yul\":10025:10028   */\n      0x00\n        /* \"#utility.yul\":10046:10113   */\n      tag_356\n        /* \"#utility.yul\":10110:10112   */\n      0x17\n        /* \"#utility.yul\":10105:10108   */\n      dup4\n        /* \"#utility.yul\":10046:10113   */\n      tag_227\n      jump\t// in\n    tag_356:\n        /* \"#utility.yul\":10039:10113   */\n      swap2\n      pop\n        /* \"#utility.yul\":10122:10215   */\n      tag_357\n        /* \"#utility.yul\":10211:10214   */\n      dup3\n        /* \"#utility.yul\":10122:10215   */\n      tag_239\n      jump\t// in\n    tag_357:\n        /* \"#utility.yul\":10240:10242   */\n      0x20\n        /* \"#utility.yul\":10235:10238   */\n      dup3\n        /* \"#utility.yul\":10231:10243   */\n      add\n        /* \"#utility.yul\":10224:10243   */\n      swap1\n      pop\n        /* \"#utility.yul\":9883:10249   */\n      swap2\n      swap1\n      pop\n      jump\t// out\n        /* \"#utility.yul\":10255:10674   */\n    tag_60:\n        /* \"#utility.yul\":10421:10425   */\n      0x00\n        /* \"#utility.yul\":10459:10461   */\n      0x20\n        /* \"#utility.yul\":10448:10457   */\n      dup3\n        /* \"#utility.yul\":10444:10462   */\n      add\n        /* \"#utility.yul\":10436:10462   */\n      swap1\n      pop\n        /* \"#utility.yul\":10508:10517   */\n      dup2\n        /* \"#utility.yul\":10502:10506   */\n      dup2\n        /* \"#utility.yul\":10498:10518   */\n      sub\n        /* \"#utility.yul\":10494:10495   */\n      0x00\n        /* \"#utility.yul\":10483:10492   */\n      dup4\n        /* \"#utility.yul\":10479:10496   */\n      add\n        /* \"#utility.yul\":10472:10519   */\n      mstore\n        /* \"#utility.yul\":10536:10667   */\n      tag_359\n        /* \"#utility.yul\":10662:10666   */\n      dup2\n        /* \"#utility.yul\":10536:10667   */\n      tag_240\n      jump\t// in\n    tag_359:\n        /* \"#utility.yul\":10528:10667   */\n      swap1\n      pop\n        /* \"#utility.yul\":10255:10674   */\n      swap2\n      swap1\n      pop\n      jump\t// out\n        /* \"#utility.yul\":10680:11122   */\n    tag_62:\n        /* \"#utility.yul\":10829:10833   */\n      0x00\n        /* \"#utility.yul\":10867:10869   */\n      0x60\n        /* \"#utility.yul\":10856:10865   */\n      dup3\n        /* \"#utility.yul\":10852:10870   */\n      add\n        /* \"#utility.yul\":10844:10870   */\n      swap1\n      pop\n        /* \"#utility.yul\":10880:10951   */\n      tag_361\n        /* \"#utility.yul\":10948:10949   */\n      0x00\n        /* \"#utility.yul\":10937:10946   */\n      dup4\n        /* \"#utility.yul\":10933:10950   */\n      add\n        /* \"#utility.yul\":10924:10930   */\n      dup7\n        /* \"#utility.yul\":10880:10951   */\n      tag_235\n      jump\t// in\n    tag_361:\n        /* \"#utility.yul\":10961:11033   */\n      tag_362\n        /* \"#utility.yul\":11029:11031   */\n      0x20\n        /* \"#utility.yul\":11018:11027   */\n      dup4\n        /* \"#utility.yul\":11014:11032   */\n      add\n        /* \"#utility.yul\":11005:11011   */\n      dup6\n        /* \"#utility.yul\":10961:11033   */\n      tag_235\n      jump\t// in\n    tag_362:\n        /* \"#utility.yul\":11043:11115   */\n      tag_363\n        /* \"#utility.yul\":11111:11113   */\n      0x40\n        /* \"#utility.yul\":11100:11109   */\n      dup4\n        /* \"#utility.yul\":11096:11114   */\n      add\n        /* \"#utility.yul\":11087:11093   */\n      dup5\n        /* \"#utility.yul\":11043:11115   */\n      tag_221\n      jump\t// in\n    tag_363:\n        /* \"#utility.yul\":10680:11122   */\n      swap5\n      swap4\n      pop\n      pop\n      pop\n      pop\n      jump\t// out\n        /* \"#utility.yul\":11128:11218   */\n    tag_241:\n        /* \"#utility.yul\":11162:11169   */\n      0x00\n        /* \"#utility.yul\":11205:11210   */\n      dup2\n        /* \"#utility.yul\":11198:11211   */\n      iszero\n        /* \"#utility.yul\":11191:11212   */\n      iszero\n        /* \"#utility.yul\":11180:11212   */\n      swap1\n      pop\n        /* \"#utility.yul\":11128:11218   */\n      swap2\n      swap1\n      pop\n      jump\t// out\n        /* \"#utility.yul\":11224:11340   */\n    tag_242:\n        /* \"#utility.yul\":11294:11315   */\n      tag_366\n        /* \"#utility.yul\":11309:11314   */\n      dup2\n        /* \"#utility.yul\":11294:11315   */\n      tag_241\n      jump\t// in\n    tag_366:\n        /* \"#utility.yul\":11287:11292   */\n      dup2\n        /* \"#utility.yul\":11284:11316   */\n      eq\n        /* \"#utility.yul\":11274:11334   */\n      tag_367\n      jumpi\n        /* \"#utility.yul\":11330:11331   */\n      0x00\n        /* \"#utility.yul\":11327:11328   */\n      0x00\n        /* \"#utility.yul\":11320:11332   */\n      revert\n        /* \"#utility.yul\":11274:11334   */\n    tag_367:\n        /* \"#utility.yul\":11224:11340   */\n      pop\n      jump\t// out\n        /* \"#utility.yul\":11346:11483   */\n    tag_243:\n        /* \"#utility.yul\":11400:11405   */\n      0x00\n        /* \"#utility.yul\":11431:11437   */\n      dup2\n        /* \"#utility.yul\":11425:11438   */\n      mload\n        /* \"#utility.yul\":11416:11438   */\n      swap1\n      pop\n        /* \"#utility.yul\":11447:11477   */\n      tag_369\n        /* \"#utility.yul\":11471:11476   */\n      dup2\n        /* \"#utility.yul\":11447:11477   */\n      tag_242\n      jump\t// in\n    tag_369:\n        /* \"#utility.yul\":11346:11483   */\n      swap3\n      swap2\n      pop\n      pop\n      jump\t// out\n        /* \"#utility.yul\":11489:11834   */\n    tag_66:\n        /* \"#utility.yul\":11556:11562   */\n      0x00\n        /* \"#utility.yul\":11605:11607   */\n      0x20\n        /* \"#utility.yul\":11593:11602   */\n      dup3\n        /* \"#utility.yul\":11584:11591   */\n      dup5\n        /* \"#utility.yul\":11580:11603   */\n      sub\n        /* \"#utility.yul\":11576:11608   */\n      slt\n        /* \"#utility.yul\":11573:11692   */\n      iszero\n      tag_371\n      jumpi\n        /* \"#utility.yul\":11611:11690   */\n      tag_372\n      tag_210\n      jump\t// in\n    tag_372:\n        /* \"#utility.yul\":11573:11692   */\n    tag_371:\n        /* \"#utility.yul\":11731:11732   */\n      0x00\n        /* \"#utility.yul\":11756:11817   */\n      tag_373\n        /* \"#utility.yul\":11809:11816   */\n      dup5\n        /* \"#utility.yul\":11800:11806   */\n      dup3\n        /* \"#utility.yul\":11789:11798   */\n      dup6\n        /* \"#utility.yul\":11785:11807   */\n      add\n        /* \"#utility.yul\":11756:11817   */\n      tag_243\n      jump\t// in\n    tag_373:\n        /* \"#utility.yul\":11746:11817   */\n      swap2\n      pop\n        /* \"#utility.yul\":11702:11827   */\n      pop\n        /* \"#utility.yul\":11489:11834   */\n      swap3\n      swap2\n      pop\n      pop\n      jump\t// out\n        /* \"#utility.yul\":11840:12006   */\n    tag_244:\n        /* \"#utility.yul\":11980:11998   */\n      0x457865637574696f6e206661696c656400000000000000000000000000000000\n        /* \"#utility.yul\":11976:11977   */\n      0x00\n        /* \"#utility.yul\":11968:11974   */\n      dup3\n        /* \"#utility.yul\":11964:11978   */\n      add\n        /* \"#utility.yul\":11957:11999   */\n      mstore\n        /* \"#utility.yul\":11840:12006   */\n      pop\n      jump\t// out\n        /* \"#utility.yul\":12012:12378   */\n    tag_245:\n        /* \"#utility.yul\":12154:12157   */\n      0x00\n        /* \"#utility.yul\":12175:12242   */\n      tag_376\n        /* \"#utility.yul\":12239:12241   */\n      0x10\n        /* \"#utility.yul\":12234:12237   */\n      dup4\n        /* \"#utility.yul\":12175:12242   */\n      tag_227\n      jump\t// in\n    tag_376:\n        /* \"#utility.yul\":12168:12242   */\n      swap2\n      pop\n        /* \"#utility.yul\":12251:12344   */\n      tag_377\n        /* \"#utility.yul\":12340:12343   */\n      dup3\n        /* \"#utility.yul\":12251:12344   */\n      tag_244\n      jump\t// in\n    tag_377:\n        /* \"#utility.yul\":12369:12371   */\n      0x20\n        /* \"#utility.yul\":12364:12367   */\n      dup3\n        /* \"#utility.yul\":12360:12372   */\n      add\n        /* \"#utility.yul\":12353:12372   */\n      swap1\n      pop\n        /* \"#utility.yul\":12012:12378   */\n      swap2\n      swap1\n      pop\n      jump\t// out\n        /* \"#utility.yul\":12384:12803   */\n    tag_69:\n        /* \"#utility.yul\":12550:12554   */\n      0x00\n        /* \"#utility.yul\":12588:12590   */\n      0x20\n        /* \"#utility.yul\":12577:12586   */\n      dup3\n        /* \"#utility.yul\":12573:12591   */\n      add\n        /* \"#utility.yul\":12565:12591   */\n      swap1\n      pop\n        /* \"#utility.yul\":12637:12646   */\n      dup2\n        /* \"#utility.yul\":12631:12635   */\n      dup2\n        /* \"#utility.yul\":12627:12647   */\n      sub\n        /* \"#utility.yul\":12623:12624   */\n      0x00\n        /* \"#utility.yul\":12612:12621   */\n      dup4\n        /* \"#utility.yul\":12608:12625   */\n      add\n        /* \"#utility.yul\":12601:12648   */\n      mstore\n        /* \"#utility.yul\":12665:12796   */\n      tag_379\n        /* \"#utility.yul\":12791:12795   */\n      dup2\n        /* \"#utility.yul\":12665:12796   */\n      tag_245\n      jump\t// in\n    tag_379:\n        /* \"#utility.yul\":12657:12796   */\n      swap1\n      pop\n        /* \"#utility.yul\":12384:12803   */\n      swap2\n      swap1\n      pop\n      jump\t// out\n        /* \"#utility.yul\":12809:12989   */\n    tag_72:\n        /* \"#utility.yul\":12857:12934   */\n      0x4e487b7100000000000000000000000000000000000000000000000000000000\n        /* \"#utility.yul\":12854:12855   */\n      0x00\n        /* \"#utility.yul\":12847:12935   */\n      mstore\n        /* \"#utility.yul\":12954:12958   */\n      0x21\n        /* \"#utility.yul\":12951:12952   */\n      0x04\n        /* \"#utility.yul\":12944:12959   */\n      mstore\n        /* \"#utility.yul\":12978:12982   */\n      0x24\n        /* \"#utility.yul\":12975:12976   */\n      0x00\n        /* \"#utility.yul\":12968:12983   */\n      revert\n        /* \"#utility.yul\":12995:13186   */\n    tag_76:\n        /* \"#utility.yul\":13035:13038   */\n      0x00\n        /* \"#utility.yul\":13054:13074   */\n      tag_382\n        /* \"#utility.yul\":13072:13073   */\n      dup3\n        /* \"#utility.yul\":13054:13074   */\n      tag_216\n      jump\t// in\n    tag_382:\n        /* \"#utility.yul\":13049:13074   */\n      swap2\n      pop\n        /* \"#utility.yul\":13088:13108   */\n      tag_383\n        /* \"#utility.yul\":13106:13107   */\n      dup4\n        /* \"#utility.yul\":13088:13108   */\n      tag_216\n      jump\t// in\n    tag_383:\n        /* \"#utility.yul\":13083:13108   */\n      swap3\n      pop\n        /* \"#utility.yul\":13131:13132   */\n      dup3\n        /* \"#utility.yul\":13128:13129   */\n      dup3\n        /* \"#utility.yul\":13124:13133   */\n      add\n        /* \"#utility.yul\":13117:13133   */\n      swap1\n      pop\n        /* \"#utility.yul\":13152:13155   */\n      dup1\n        /* \"#utility.yul\":13149:13150   */\n      dup3\n        /* \"#utility.yul\":13146:13156   */\n      gt\n        /* \"#utility.yul\":13143:13179   */\n      iszero\n      tag_384\n      jumpi\n        /* \"#utility.yul\":13159:13177   */\n      tag_385\n      tag_234\n      jump\t// in\n    tag_385:\n        /* \"#utility.yul\":13143:13179   */\n    tag_384:\n        /* \"#utility.yul\":12995:13186   */\n      swap3\n      swap2\n      pop\n      pop\n      jump\t// out\n        /* \"#utility.yul\":13192:13524   */\n    tag_80:\n        /* \"#utility.yul\":13313:13317   */\n      0x00\n        /* \"#utility.yul\":13351:13353   */\n      0x40\n        /* \"#utility.yul\":13340:13349   */\n      dup3\n        /* \"#utility.yul\":13336:13354   */\n      add\n        /* \"#utility.yul\":13328:13354   */\n      swap1\n      pop\n        /* \"#utility.yul\":13364:13435   */\n      tag_387\n        /* \"#utility.yul\":13432:13433   */\n      0x00\n        /* \"#utility.yul\":13421:13430   */\n      dup4\n        /* \"#utility.yul\":13417:13434   */\n      add\n        /* \"#utility.yul\":13408:13414   */\n      dup6\n        /* \"#utility.yul\":13364:13435   */\n      tag_235\n      jump\t// in\n    tag_387:\n        /* \"#utility.yul\":13445:13517   */\n      tag_388\n        /* \"#utility.yul\":13513:13515   */\n      0x20\n        /* \"#utility.yul\":13502:13511   */\n      dup4\n        /* \"#utility.yul\":13498:13516   */\n      add\n        /* \"#utility.yul\":13489:13495   */\n      dup5\n        /* \"#utility.yul\":13445:13517   */\n      tag_221\n      jump\t// in\n    tag_388:\n        /* \"#utility.yul\":13192:13524   */\n      swap4\n      swap3\n      pop\n      pop\n      pop\n      jump\t// out\n        /* \"#utility.yul\":13530:13752   */\n    tag_91:\n        /* \"#utility.yul\":13623:13627   */\n      0x00\n        /* \"#utility.yul\":13661:13663   */\n      0x20\n        /* \"#utility.yul\":13650:13659   */\n      dup3\n        /* \"#utility.yul\":13646:13664   */\n      add\n        /* \"#utility.yul\":13638:13664   */\n      swap1\n      pop\n        /* \"#utility.yul\":13674:13745   */\n      tag_390\n        /* \"#utility.yul\":13742:13743   */\n      0x00\n        /* \"#utility.yul\":13731:13740   */\n      dup4\n        /* \"#utility.yul\":13727:13744   */\n      add\n        /* \"#utility.yul\":13718:13724   */\n      dup5\n        /* \"#utility.yul\":13674:13745   */\n      tag_221\n      jump\t// in\n    tag_390:\n        /* \"#utility.yul\":13530:13752   */\n      swap3\n      swap2\n      pop\n      pop\n      jump\t// out\n        /* \"#utility.yul\":13758:13929   */\n    tag_246:\n        /* \"#utility.yul\":13898:13921   */\n      0x4f6e6c79206f776e65722063616e206163636573730000000000000000000000\n        /* \"#utility.yul\":13894:13895   */\n      0x00\n        /* \"#utility.yul\":13886:13892   */\n      dup3\n        /* \"#utility.yul\":13882:13896   */\n      add\n        /* \"#utility.yul\":13875:13922   */\n      mstore\n        /* \"#utility.yul\":13758:13929   */\n      pop\n      jump\t// out\n        /* \"#utility.yul\":13935:14301   */\n    tag_247:\n        /* \"#utility.yul\":14077:14080   */\n      0x00\n        /* \"#utility.yul\":14098:14165   */\n      tag_393\n        /* \"#utility.yul\":14162:14164   */\n      0x15\n        /* \"#utility.yul\":14157:14160   */\n      dup4\n        /* \"#utility.yul\":14098:14165   */\n      tag_227\n      jump\t// in\n    tag_393:\n        /* \"#utility.yul\":14091:14165   */\n      swap2\n      pop\n        /* \"#utility.yul\":14174:14267   */\n      tag_394\n        /* \"#utility.yul\":14263:14266   */\n      dup3\n        /* \"#utility.yul\":14174:14267   */\n      tag_246\n      jump\t// in\n    tag_394:\n        /* \"#utility.yul\":14292:14294   */\n      0x20\n        /* \"#utility.yul\":14287:14290   */\n      dup3\n        /* \"#utility.yul\":14283:14295   */\n      add\n        /* \"#utility.yul\":14276:14295   */\n      swap1\n      pop\n        /* \"#utility.yul\":13935:14301   */\n      swap2\n      swap1\n      pop\n      jump\t// out\n        /* \"#utility.yul\":14307:14726   */\n    tag_95:\n        /* \"#utility.yul\":14473:14477   */\n      0x00\n        /* \"#utility.yul\":14511:14513   */\n      0x20\n        /* \"#utility.yul\":14500:14509   */\n      dup3\n        /* \"#utility.yul\":14496:14514   */\n      add\n        /* \"#utility.yul\":14488:14514   */\n      swap1\n      pop\n        /* \"#utility.yul\":14560:14569   */\n      dup2\n        /* \"#utility.yul\":14554:14558   */\n      dup2\n        /* \"#utility.yul\":14550:14570   */\n      sub\n        /* \"#utility.yul\":14546:14547   */\n      0x00\n        /* \"#utility.yul\":14535:14544   */\n      dup4\n        /* \"#utility.yul\":14531:14548   */\n      add\n        /* \"#utility.yul\":14524:14571   */\n      mstore\n        /* \"#utility.yul\":14588:14719   */\n      tag_396\n        /* \"#utility.yul\":14714:14718   */\n      dup2\n        /* \"#utility.yul\":14588:14719   */\n      tag_247\n      jump\t// in\n    tag_396:\n        /* \"#utility.yul\":14580:14719   */\n      swap1\n      pop\n        /* \"#utility.yul\":14307:14726   */\n      swap2\n      swap1\n      pop\n      jump\t// out\n        /* \"#utility.yul\":14732:14897   */\n    tag_248:\n        /* \"#utility.yul\":14872:14889   */\n      0x62616c616e6365206973206c6573730000000000000000000000000000000000\n        /* \"#utility.yul\":14868:14869   */\n      0x00\n        /* \"#utility.yul\":14860:14866   */\n      dup3\n        /* \"#utility.yul\":14856:14870   */\n      add\n        /* \"#utility.yul\":14849:14890   */\n      mstore\n        /* \"#utility.yul\":14732:14897   */\n      pop\n      jump\t// out\n        /* \"#utility.yul\":14903:15269   */\n    tag_249:\n        /* \"#utility.yul\":15045:15048   */\n      0x00\n        /* \"#utility.yul\":15066:15133   */\n      tag_399\n        /* \"#utility.yul\":15130:15132   */\n      0x0f\n        /* \"#utility.yul\":15125:15128   */\n      dup4\n        /* \"#utility.yul\":15066:15133   */\n      tag_227\n      jump\t// in\n    tag_399:\n        /* \"#utility.yul\":15059:15133   */\n      swap2\n      pop\n        /* \"#utility.yul\":15142:15235   */\n      tag_400\n        /* \"#utility.yul\":15231:15234   */\n      dup3\n        /* \"#utility.yul\":15142:15235   */\n      tag_248\n      jump\t// in\n    tag_400:\n        /* \"#utility.yul\":15260:15262   */\n      0x20\n        /* \"#utility.yul\":15255:15258   */\n      dup3\n        /* \"#utility.yul\":15251:15263   */\n      add\n        /* \"#utility.yul\":15244:15263   */\n      swap1\n      pop\n        /* \"#utility.yul\":14903:15269   */\n      swap2\n      swap1\n      pop\n      jump\t// out\n        /* \"#utility.yul\":15275:15694   */\n    tag_99:\n        /* \"#utility.yul\":15441:15445   */\n      0x00\n        /* \"#utility.yul\":15479:15481   */\n      0x20\n        /* \"#utility.yul\":15468:15477   */\n      dup3\n        /* \"#utility.yul\":15464:15482   */\n      add\n        /* \"#utility.yul\":15456:15482   */\n      swap1\n      pop\n        /* \"#utility.yul\":15528:15537   */\n      dup2\n        /* \"#utility.yul\":15522:15526   */\n      dup2\n        /* \"#utility.yul\":15518:15538   */\n      sub\n        /* \"#utility.yul\":15514:15515   */\n      0x00\n        /* \"#utility.yul\":15503:15512   */\n      dup4\n        /* \"#utility.yul\":15499:15516   */\n      add\n        /* \"#utility.yul\":15492:15539   */\n      mstore\n        /* \"#utility.yul\":15556:15687   */\n      tag_402\n        /* \"#utility.yul\":15682:15686   */\n      dup2\n        /* \"#utility.yul\":15556:15687   */\n      tag_249\n      jump\t// in\n    tag_402:\n        /* \"#utility.yul\":15548:15687   */\n      swap1\n      pop\n        /* \"#utility.yul\":15275:15694   */\n      swap2\n      swap1\n      pop\n      jump\t// out\n        /* \"#utility.yul\":15700:15879   */\n    tag_250:\n        /* \"#utility.yul\":15840:15871   */\n      0x496e73756666696369656e7420636f6e74726163742062616c616e6365000000\n        /* \"#utility.yul\":15836:15837   */\n      0x00\n        /* \"#utility.yul\":15828:15834   */\n      dup3\n        /* \"#utility.yul\":15824:15838   */\n      add\n        /* \"#utility.yul\":15817:15872   */\n      mstore\n        /* \"#utility.yul\":15700:15879   */\n      pop\n      jump\t// out\n        /* \"#utility.yul\":15885:16251   */\n    tag_251:\n        /* \"#utility.yul\":16027:16030   */\n      0x00\n        /* \"#utility.yul\":16048:16115   */\n      tag_405\n        /* \"#utility.yul\":16112:16114   */\n      0x1d\n        /* \"#utility.yul\":16107:16110   */\n      dup4\n        /* \"#utility.yul\":16048:16115   */\n      tag_227\n      jump\t// in\n    tag_405:\n        /* \"#utility.yul\":16041:16115   */\n      swap2\n      pop\n        /* \"#utility.yul\":16124:16217   */\n      tag_406\n        /* \"#utility.yul\":16213:16216   */\n      dup3\n        /* \"#utility.yul\":16124:16217   */\n      tag_250\n      jump\t// in\n    tag_406:\n        /* \"#utility.yul\":16242:16244   */\n      0x20\n        /* \"#utility.yul\":16237:16240   */\n      dup3\n        /* \"#utility.yul\":16233:16245   */\n      add\n        /* \"#utility.yul\":16226:16245   */\n      swap1\n      pop\n        /* \"#utility.yul\":15885:16251   */\n      swap2\n      swap1\n      pop\n      jump\t// out\n        /* \"#utility.yul\":16257:16676   */\n    tag_106:\n        /* \"#utility.yul\":16423:16427   */\n      0x00\n        /* \"#utility.yul\":16461:16463   */\n      0x20\n        /* \"#utility.yul\":16450:16459   */\n      dup3\n        /* \"#utility.yul\":16446:16464   */\n      add\n        /* \"#utility.yul\":16438:16464   */\n      swap1\n      pop\n        /* \"#utility.yul\":16510:16519   */\n      dup2\n        /* \"#utility.yul\":16504:16508   */\n      dup2\n        /* \"#utility.yul\":16500:16520   */\n      sub\n        /* \"#utility.yul\":16496:16497   */\n      0x00\n        /* \"#utility.yul\":16485:16494   */\n      dup4\n        /* \"#utility.yul\":16481:16498   */\n      add\n        /* \"#utility.yul\":16474:16521   */\n      mstore\n        /* \"#utility.yul\":16538:16669   */\n      tag_408\n        /* \"#utility.yul\":16664:16668   */\n      dup2\n        /* \"#utility.yul\":16538:16669   */\n      tag_251\n      jump\t// in\n    tag_408:\n        /* \"#utility.yul\":16530:16669   */\n      swap1\n      pop\n        /* \"#utility.yul\":16257:16676   */\n      swap2\n      swap1\n      pop\n      jump\t// out\n        /* \"#utility.yul\":16682:16849   */\n    tag_252:\n        /* \"#utility.yul\":16822:16841   */\n      0x546f6b656e206e6f7420646566696e6564000000000000000000000000000000\n        /* \"#utility.yul\":16818:16819   */\n      0x00\n        /* \"#utility.yul\":16810:16816   */\n      dup3\n        /* \"#utility.yul\":16806:16820   */\n      add\n        /* \"#utility.yul\":16799:16842   */\n      mstore\n        /* \"#utility.yul\":16682:16849   */\n      pop\n      jump\t// out\n        /* \"#utility.yul\":16855:17221   */\n    tag_253:\n        /* \"#utility.yul\":16997:17000   */\n      0x00\n        /* \"#utility.yul\":17018:17085   */\n      tag_411\n        /* \"#utility.yul\":17082:17084   */\n      0x11\n        /* \"#utility.yul\":17077:17080   */\n      dup4\n        /* \"#utility.yul\":17018:17085   */\n      tag_227\n      jump\t// in\n    tag_411:\n        /* \"#utility.yul\":17011:17085   */\n      swap2\n      pop\n        /* \"#utility.yul\":17094:17187   */\n      tag_412\n        /* \"#utility.yul\":17183:17186   */\n      dup3\n        /* \"#utility.yul\":17094:17187   */\n      tag_252\n      jump\t// in\n    tag_412:\n        /* \"#utility.yul\":17212:17214   */\n      0x20\n        /* \"#utility.yul\":17207:17210   */\n      dup3\n        /* \"#utility.yul\":17203:17215   */\n      add\n        /* \"#utility.yul\":17196:17215   */\n      swap1\n      pop\n        /* \"#utility.yul\":16855:17221   */\n      swap2\n      swap1\n      pop\n      jump\t// out\n        /* \"#utility.yul\":17227:17646   */\n    tag_133:\n        /* \"#utility.yul\":17393:17397   */\n      0x00\n        /* \"#utility.yul\":17431:17433   */\n      0x20\n        /* \"#utility.yul\":17420:17429   */\n      dup3\n        /* \"#utility.yul\":17416:17434   */\n      add\n        /* \"#utility.yul\":17408:17434   */\n      swap1\n      pop\n        /* \"#utility.yul\":17480:17489   */\n      dup2\n        /* \"#utility.yul\":17474:17478   */\n      dup2\n        /* \"#utility.yul\":17470:17490   */\n      sub\n        /* \"#utility.yul\":17466:17467   */\n      0x00\n        /* \"#utility.yul\":17455:17464   */\n      dup4\n        /* \"#utility.yul\":17451:17468   */\n      add\n        /* \"#utility.yul\":17444:17491   */\n      mstore\n        /* \"#utility.yul\":17508:17639   */\n      tag_414\n        /* \"#utility.yul\":17634:17638   */\n      dup2\n        /* \"#utility.yul\":17508:17639   */\n      tag_253\n      jump\t// in\n    tag_414:\n        /* \"#utility.yul\":17500:17639   */\n      swap1\n      pop\n        /* \"#utility.yul\":17227:17646   */\n      swap2\n      swap1\n      pop\n      jump\t// out\n        /* \"#utility.yul\":17652:17817   */\n    tag_254:\n        /* \"#utility.yul\":17792:17809   */\n      0x4578637574696f6e206661696c65640000000000000000000000000000000000\n        /* \"#utility.yul\":17788:17789   */\n      0x00\n        /* \"#utility.yul\":17780:17786   */\n      dup3\n        /* \"#utility.yul\":17776:17790   */\n      add\n        /* \"#utility.yul\":17769:17810   */\n      mstore\n        /* \"#utility.yul\":17652:17817   */\n      pop\n      jump\t// out\n        /* \"#utility.yul\":17823:18189   */\n    tag_255:\n        /* \"#utility.yul\":17965:17968   */\n      0x00\n        /* \"#utility.yul\":17986:18053   */\n      tag_417\n        /* \"#utility.yul\":18050:18052   */\n      0x0f\n        /* \"#utility.yul\":18045:18048   */\n      dup4\n        /* \"#utility.yul\":17986:18053   */\n      tag_227\n      jump\t// in\n    tag_417:\n        /* \"#utility.yul\":17979:18053   */\n      swap2\n      pop\n        /* \"#utility.yul\":18062:18155   */\n      tag_418\n        /* \"#utility.yul\":18151:18154   */\n      dup3\n        /* \"#utility.yul\":18062:18155   */\n      tag_254\n      jump\t// in\n    tag_418:\n        /* \"#utility.yul\":18180:18182   */\n      0x20\n        /* \"#utility.yul\":18175:18178   */\n      dup3\n        /* \"#utility.yul\":18171:18183   */\n      add\n        /* \"#utility.yul\":18164:18183   */\n      swap1\n      pop\n        /* \"#utility.yul\":17823:18189   */\n      swap2\n      swap1\n      pop\n      jump\t// out\n        /* \"#utility.yul\":18195:18614   */\n    tag_161:\n        /* \"#utility.yul\":18361:18365   */\n      0x00\n        /* \"#utility.yul\":18399:18401   */\n      0x20\n        /* \"#utility.yul\":18388:18397   */\n      dup3\n        /* \"#utility.yul\":18384:18402   */\n      add\n        /* \"#utility.yul\":18376:18402   */\n      swap1\n      pop\n        /* \"#utility.yul\":18448:18457   */\n      dup2\n        /* \"#utility.yul\":18442:18446   */\n      dup2\n        /* \"#utility.yul\":18438:18458   */\n      sub\n        /* \"#utility.yul\":18434:18435   */\n      0x00\n        /* \"#utility.yul\":18423:18432   */\n      dup4\n        /* \"#utility.yul\":18419:18436   */\n      add\n        /* \"#utility.yul\":18412:18459   */\n      mstore\n        /* \"#utility.yul\":18476:18607   */\n      tag_420\n        /* \"#utility.yul\":18602:18606   */\n      dup2\n        /* \"#utility.yul\":18476:18607   */\n      tag_255\n      jump\t// in\n    tag_420:\n        /* \"#utility.yul\":18468:18607   */\n      swap1\n      pop\n        /* \"#utility.yul\":18195:18614   */\n      swap2\n      swap1\n      pop\n      jump\t// out\n        /* \"#utility.yul\":18620:18800   */\n    tag_256:\n        /* \"#utility.yul\":18668:18745   */\n      0x4e487b7100000000000000000000000000000000000000000000000000000000\n        /* \"#utility.yul\":18665:18666   */\n      0x00\n        /* \"#utility.yul\":18658:18746   */\n      mstore\n        /* \"#utility.yul\":18765:18769   */\n      0x12\n        /* \"#utility.yul\":18762:18763   */\n      0x04\n        /* \"#utility.yul\":18755:18770   */\n      mstore\n        /* \"#utility.yul\":18789:18793   */\n      0x24\n        /* \"#utility.yul\":18786:18787   */\n      0x00\n        /* \"#utility.yul\":18779:18794   */\n      revert\n        /* \"#utility.yul\":18806:18991   */\n    tag_205:\n        /* \"#utility.yul\":18846:18847   */\n      0x00\n        /* \"#utility.yul\":18863:18883   */\n      tag_423\n        /* \"#utility.yul\":18881:18882   */\n      dup3\n        /* \"#utility.yul\":18863:18883   */\n      tag_216\n      jump\t// in\n    tag_423:\n        /* \"#utility.yul\":18858:18883   */\n      swap2\n      pop\n        /* \"#utility.yul\":18897:18917   */\n      tag_424\n        /* \"#utility.yul\":18915:18916   */\n      dup4\n        /* \"#utility.yul\":18897:18917   */\n      tag_216\n      jump\t// in\n    tag_424:\n        /* \"#utility.yul\":18892:18917   */\n      swap3\n      pop\n        /* \"#utility.yul\":18936:18937   */\n      dup3\n        /* \"#utility.yul\":18926:18961   */\n      tag_425\n      jumpi\n        /* \"#utility.yul\":18941:18959   */\n      tag_426\n      tag_256\n      jump\t// in\n    tag_426:\n        /* \"#utility.yul\":18926:18961   */\n    tag_425:\n        /* \"#utility.yul\":18983:18984   */\n      dup3\n        /* \"#utility.yul\":18980:18981   */\n      dup3\n        /* \"#utility.yul\":18976:18985   */\n      div\n        /* \"#utility.yul\":18971:18985   */\n      swap1\n      pop\n        /* \"#utility.yul\":18806:18991   */\n      swap3\n      swap2\n      pop\n      pop\n      jump\t// out\n        /* \"#utility.yul\":18997:19167   */\n    tag_257:\n        /* \"#utility.yul\":19137:19159   */\n      0x556e737570706f727465642063757272656e6379000000000000000000000000\n        /* \"#utility.yul\":19133:19134   */\n      0x00\n        /* \"#utility.yul\":19125:19131   */\n      dup3\n        /* \"#utility.yul\":19121:19135   */\n      add\n        /* \"#utility.yul\":19114:19160   */\n      mstore\n        /* \"#utility.yul\":18997:19167   */\n      pop\n      jump\t// out\n        /* \"#utility.yul\":19173:19539   */\n    tag_258:\n        /* \"#utility.yul\":19315:19318   */\n      0x00\n        /* \"#utility.yul\":19336:19403   */\n      tag_429\n        /* \"#utility.yul\":19400:19402   */\n      0x14\n        /* \"#utility.yul\":19395:19398   */\n      dup4\n        /* \"#utility.yul\":19336:19403   */\n      tag_227\n      jump\t// in\n    tag_429:\n        /* \"#utility.yul\":19329:19403   */\n      swap2\n      pop\n        /* \"#utility.yul\":19412:19505   */\n      tag_430\n        /* \"#utility.yul\":19501:19504   */\n      dup3\n        /* \"#utility.yul\":19412:19505   */\n      tag_257\n      jump\t// in\n    tag_430:\n        /* \"#utility.yul\":19530:19532   */\n      0x20\n        /* \"#utility.yul\":19525:19528   */\n      dup3\n        /* \"#utility.yul\":19521:19533   */\n      add\n        /* \"#utility.yul\":19514:19533   */\n      swap1\n      pop\n        /* \"#utility.yul\":19173:19539   */\n      swap2\n      swap1\n      pop\n      jump\t// out\n        /* \"#utility.yul\":19545:19964   */\n    tag_208:\n        /* \"#utility.yul\":19711:19715   */\n      0x00\n        /* \"#utility.yul\":19749:19751   */\n      0x20\n        /* \"#utility.yul\":19738:19747   */\n      dup3\n        /* \"#utility.yul\":19734:19752   */\n      add\n        /* \"#utility.yul\":19726:19752   */\n      swap1\n      pop\n        /* \"#utility.yul\":19798:19807   */\n      dup2\n        /* \"#utility.yul\":19792:19796   */\n      dup2\n        /* \"#utility.yul\":19788:19808   */\n      sub\n        /* \"#utility.yul\":19784:19785   */\n      0x00\n        /* \"#utility.yul\":19773:19782   */\n      dup4\n        /* \"#utility.yul\":19769:19786   */\n      add\n        /* \"#utility.yul\":19762:19809   */\n      mstore\n        /* \"#utility.yul\":19826:19957   */\n      tag_432\n        /* \"#utility.yul\":19952:19956   */\n      dup2\n        /* \"#utility.yul\":19826:19957   */\n      tag_258\n      jump\t// in\n    tag_432:\n        /* \"#utility.yul\":19818:19957   */\n      swap1\n      pop\n        /* \"#utility.yul\":19545:19964   */\n      swap2\n      swap1\n      pop\n      jump\t// out\n\n    auxdata: 0xa2646970667358221220f105e716e9626a1c329c820eff162139966fabe57c52776b80759623407ef79064736f6c634300081c0033\n}\n",
				"bytecode": {
					"linkReferences": {},
					"object": "608060405234801561000f575f5ffd5b50604051611e4d380380611e4d83398181016040528101906100319190610166565b815f5f6101000a81548173ffffffffffffffffffffffffffffffffffffffff021916908373ffffffffffffffffffffffffffffffffffffffff1602179055508060015f6101000a81548173ffffffffffffffffffffffffffffffffffffffff021916908373ffffffffffffffffffffffffffffffffffffffff1602179055503360025f6101000a81548173ffffffffffffffffffffffffffffffffffffffff021916908373ffffffffffffffffffffffffffffffffffffffff16021790555050506101a4565b5f5ffd5b5f73ffffffffffffffffffffffffffffffffffffffff82169050919050565b5f610124826100fb565b9050919050565b5f6101358261011a565b9050919050565b6101458161012b565b811461014f575f5ffd5b50565b5f815190506101608161013c565b92915050565b5f5f6040838503121561017c5761017b6100f7565b5b5f61018985828601610152565b925050602061019a85828601610152565b9150509250929050565b611c9c806101b15f395ff3fe608060405234801561000f575f5ffd5b5060043610610060575f3560e01c80633e2b4bf8146100645780633f489914146100805780635e8f48261461009c5780636f9fb98a146100b8578063a98ad46c146100d7578063fe2371cb146100f5575b5f5ffd5b61007e6004803603810190610079919061139f565b610113565b005b61009a60048036038101906100959190611400565b6106b4565b005b6100b660048036038101906100b1919061139f565b610a93565b005b6100c0611037565b6040516100ce92919061144d565b60405180910390f35b6100df611201565b6040516100ec91906114cf565b60405180910390f35b6100fd611226565b60405161010a91906114cf565b60405180910390f35b600260149054906101000a900460ff1615610163576040517f08c379a000000000000000000000000000000000000000000000000000000000815260040161015a90611542565b60405180910390fd5b6001600260146101000a81548160ff0219169083151502179055505f73ffffffffffffffffffffffffffffffffffffffff163373ffffffffffffffffffffffffffffffffffffffff16036101ec576040517f08c379a00000000000000000000000000000000000000000000000000000000081526004016101e3906115aa565b60405180910390fd5b5f811161022e576040517f08c379a000000000000000000000000000000000000000000000000000000000815260040161022590611612565b60405180910390fd5b5f620f42408261023e919061165d565b90505f60015f9054906101000a900473ffffffffffffffffffffffffffffffffffffffff1673ffffffffffffffffffffffffffffffffffffffff166370a08231336040518263ffffffff1660e01b815260040161029b91906116ad565b602060405180830381865afa1580156102b6573d5f5f3e3d5ffd5b505050506040513d601f19601f820116820180604052508101906102da91906116da565b90508181101561031f576040517f08c379a00000000000000000000000000000000000000000000000000000000081526004016103169061174f565b60405180910390fd5b5f60015f9054906101000a900473ffffffffffffffffffffffffffffffffffffffff1673ffffffffffffffffffffffffffffffffffffffff1663dd62ed3e33306040518363ffffffff1660e01b815260040161037c92919061176d565b602060405180830381865afa158015610397573d5f5f3e3d5ffd5b505050506040513d601f19601f820116820180604052508101906103bb91906116da565b905082811015610400576040517f08c379a00000000000000000000000000000000000000000000000000000000081526004016103f7906117de565b60405180910390fd5b5f60015f9054906101000a900473ffffffffffffffffffffffffffffffffffffffff1673ffffffffffffffffffffffffffffffffffffffff166323b872dd8730876040518463ffffffff1660e01b815260040161045f939291906117fc565b6020604051808303815f875af115801561047b573d5f5f3e3d5ffd5b505050506040513d601f19601f8201168201806040525081019061049f9190611866565b9050806104e1576040517f08c379a00000000000000000000000000000000000000000000000000000000081526004016104d8906118db565b60405180910390fd5b8360035f6002808111156104f8576104f76118f9565b5b600281111561050a576105096118f9565b5b81526020019081526020015f205f8282546105259190611926565b925050819055505f61053885600261124a565b90505f5f5f9054906101000a900473ffffffffffffffffffffffffffffffffffffffff1673ffffffffffffffffffffffffffffffffffffffff1663a9059cbb33846040518363ffffffff1660e01b8152600401610596929190611959565b6020604051808303815f875af11580156105b2573d5f5f3e3d5ffd5b505050506040513d601f19601f820116820180604052508101906105d69190611866565b90508015610690578160035f600160028111156105f6576105f56118f9565b5b6002811115610608576106076118f9565b5b81526020019081526020015f205f8282546106239190611926565b925050819055503073ffffffffffffffffffffffffffffffffffffffff168873ffffffffffffffffffffffffffffffffffffffff167ff936e5e0223c6f3d59c5cad7723aaa9b2b2d68a54065aed03ad5e38675f1f306886040516106879190611980565b60405180910390a35b5050505050505f600260146101000a81548160ff0219169083151502179055505050565b60025f9054906101000a900473ffffffffffffffffffffffffffffffffffffffff1673ffffffffffffffffffffffffffffffffffffffff163373ffffffffffffffffffffffffffffffffffffffff1614610743576040517f08c379a000000000000000000000000000000000000000000000000000000000815260040161073a906119e3565b60405180910390fd5b5f8111610785576040517f08c379a000000000000000000000000000000000000000000000000000000000815260040161077c90611a4b565b60405180910390fd5b5f60035f84600281111561079c5761079b6118f9565b5b60028111156107ae576107ad6118f9565b5b81526020019081526020015f2054905081811015610801576040517f08c379a00000000000000000000000000000000000000000000000000000000081526004016107f890611ab3565b60405180910390fd5b826002811115610814576108136118f9565b5b60016002811115610828576108276118f9565b5b0361092e575f5f9054906101000a900473ffffffffffffffffffffffffffffffffffffffff1673ffffffffffffffffffffffffffffffffffffffff1663a9059cbb33846040518363ffffffff1660e01b8152600401610888929190611959565b6020604051808303815f875af11580156108a4573d5f5f3e3d5ffd5b505050506040513d601f19601f820116820180604052508101906108c89190611866565b508260028111156108dc576108db6118f9565b5b3373ffffffffffffffffffffffffffffffffffffffff167e8953c98bf4b420f992a98f3bfa55d17f4e19076029765d02cb1f9a99276868846040516109219190611980565b60405180910390a3610a58565b826002811115610941576109406118f9565b5b600280811115610954576109536118f9565b5b03610a575760015f9054906101000a900473ffffffffffffffffffffffffffffffffffffffff1673ffffffffffffffffffffffffffffffffffffffff1663a9059cbb33846040518363ffffffff1660e01b81526004016109b5929190611959565b6020604051808303815f875af11580156109d1573d5f5f3e3d5ffd5b505050506040513d601f19601f820116820180604052508101906109f59190611866565b50826002811115610a0957610a086118f9565b5b3373ffffffffffffffffffffffffffffffffffffffff167e8953c98bf4b420f992a98f3bfa55d17f4e19076029765d02cb1f9a9927686884604051610a4e9190611980565b60405180910390a35b5b6040517f08c379a0000000000000000000000000000000000000000000000000000000008152600401610a8a90611b1b565b60405180910390fd5b600260149054906101000a900460ff1615610ae3576040517f08c379a0000000000000000000000000000000000000000000000000000000008152600401610ada90611542565b60405180910390fd5b6001600260146101000a81548160ff0219169083151502179055505f73ffffffffffffffffffffffffffffffffffffffff163373ffffffffffffffffffffffffffffffffffffffff1603610b6c576040517f08c379a0000000000000000000000000000000000000000000000000000000008152600401610b63906115aa565b60405180910390fd5b5f8111610bae576040517f08c379a0000000000000000000000000000000000000000000000000000000008152600401610ba590611612565b60405180910390fd5b5f670de0b6b3a764000082610bc3919061165d565b90505f5f5f9054906101000a900473ffffffffffffffffffffffffffffffffffffffff1673ffffffffffffffffffffffffffffffffffffffff166370a08231336040518263ffffffff1660e01b8152600401610c1f91906116ad565b602060405180830381865afa158015610c3a573d5f5f3e3d5ffd5b505050506040513d601f19601f82011682018060405250810190610c5e91906116da565b905082811015610ca3576040517f08c379a0000000000000000000000000000000000000000000000000000000008152600401610c9a9061174f565b60405180910390fd5b5f5f5f9054906101000a900473ffffffffffffffffffffffffffffffffffffffff1673ffffffffffffffffffffffffffffffffffffffff1663dd62ed3e33306040518363ffffffff1660e01b8152600401610cff92919061176d565b602060405180830381865afa158015610d1a573d5f5f3e3d5ffd5b505050506040513d601f19601f82011682018060405250810190610d3e91906116da565b905083811015610d83576040517f08c379a0000000000000000000000000000000000000000000000000000000008152600401610d7a906117de565b60405180910390fd5b5f5f5f9054906101000a900473ffffffffffffffffffffffffffffffffffffffff1673ffffffffffffffffffffffffffffffffffffffff166323b872dd8730876040518463ffffffff1660e01b8152600401610de1939291906117fc565b6020604051808303815f875af1158015610dfd573d5f5f3e3d5ffd5b505050506040513d601f19601f82011682018060405250810190610e219190611866565b905080610e63576040517f08c379a0000000000000000000000000000000000000000000000000000000008152600401610e5a90611b83565b60405180910390fd5b8360035f60016002811115610e7b57610e7a6118f9565b5b6002811115610e8d57610e8c6118f9565b5b81526020019081526020015f205f828254610ea89190611926565b925050819055505f610ebb85600161124a565b90505f60015f9054906101000a900473ffffffffffffffffffffffffffffffffffffffff1673ffffffffffffffffffffffffffffffffffffffff1663a9059cbb33846040518363ffffffff1660e01b8152600401610f1a929190611959565b6020604051808303815f875af1158015610f36573d5f5f3e3d5ffd5b505050506040513d601f19601f82011682018060405250810190610f5a9190611866565b90508015611013578160035f600280811115610f7957610f786118f9565b5b6002811115610f8b57610f8a6118f9565b5b81526020019081526020015f205f828254610fa69190611926565b925050819055503073ffffffffffffffffffffffffffffffffffffffff168873ffffffffffffffffffffffffffffffffffffffff167ff936e5e0223c6f3d59c5cad7723aaa9b2b2d68a54065aed03ad5e38675f1f3068860405161100a9190611980565b60405180910390a35b5050505050505f600260146101000a81548160ff0219169083151502179055505050565b5f5f60025f9054906101000a900473ffffffffffffffffffffffffffffffffffffffff1673ffffffffffffffffffffffffffffffffffffffff163373ffffffffffffffffffffffffffffffffffffffff16146110c8576040517f08c379a00000000000000000000000000000000000000000000000000000000081526004016110bf906119e3565b60405180910390fd5b60015f9054906101000a900473ffffffffffffffffffffffffffffffffffffffff1673ffffffffffffffffffffffffffffffffffffffff166370a08231306040518263ffffffff1660e01b815260040161112291906116ad565b602060405180830381865afa15801561113d573d5f5f3e3d5ffd5b505050506040513d601f19601f8201168201806040525081019061116191906116da565b91505f5f9054906101000a900473ffffffffffffffffffffffffffffffffffffffff1673ffffffffffffffffffffffffffffffffffffffff166370a08231306040518263ffffffff1660e01b81526004016111bc91906116ad565b602060405180830381865afa1580156111d7573d5f5f3e3d5ffd5b505050506040513d601f19601f820116820180604052508101906111fb91906116da565b90509091565b60015f9054906101000a900473ffffffffffffffffffffffffffffffffffffffff1681565b5f5f9054906101000a900473ffffffffffffffffffffffffffffffffffffffff1681565b5f60028081111561125e5761125d6118f9565b5b826002811115611271576112706118f9565b5b0361128b5761064083611284919061165d565b9050611308565b6001600281111561129f5761129e6118f9565b5b8260028111156112b2576112b16118f9565b5b036112cc57610640836112c59190611bce565b9050611307565b6040517f08c379a00000000000000000000000000000000000000000000000000000000081526004016112fe90611c48565b60405180910390fd5b5b92915050565b5f5ffd5b5f73ffffffffffffffffffffffffffffffffffffffff82169050919050565b5f61133b82611312565b9050919050565b61134b81611331565b8114611355575f5ffd5b50565b5f8135905061136681611342565b92915050565b5f819050919050565b61137e8161136c565b8114611388575f5ffd5b50565b5f8135905061139981611375565b92915050565b5f5f604083850312156113b5576113b461130e565b5b5f6113c285828601611358565b92505060206113d38582860161138b565b9150509250929050565b600381106113e9575f5ffd5b50565b5f813590506113fa816113dd565b92915050565b5f5f604083850312156114165761141561130e565b5b5f611423858286016113ec565b92505060206114348582860161138b565b9150509250929050565b6114478161136c565b82525050565b5f6040820190506114605f83018561143e565b61146d602083018461143e565b9392505050565b5f819050919050565b5f61149761149261148d84611312565b611474565b611312565b9050919050565b5f6114a88261147d565b9050919050565b5f6114b98261149e565b9050919050565b6114c9816114af565b82525050565b5f6020820190506114e25f8301846114c0565b92915050565b5f82825260208201905092915050565b7f5265656e7472616e6379206e6f7420616c6c6f776564000000000000000000005f82015250565b5f61152c6016836114e8565b9150611537826114f8565b602082019050919050565b5f6020820190508181035f83015261155981611520565b9050919050565b7f5a65726f206e6f7420616c6c6f776564000000000000000000000000000000005f82015250565b5f6115946010836114e8565b915061159f82611560565b602082019050919050565b5f6020820190508181035f8301526115c181611588565b9050919050565b7f43616e6e6f742073776170207a65726f20616d6f756e740000000000000000005f82015250565b5f6115fc6017836114e8565b9150611607826115c8565b602082019050919050565b5f6020820190508181035f830152611629816115f0565b9050919050565b7f4e487b71000000000000000000000000000000000000000000000000000000005f52601160045260245ffd5b5f6116678261136c565b91506116728361136c565b92508282026116808161136c565b9150828204841483151761169757611696611630565b5b5092915050565b6116a781611331565b82525050565b5f6020820190506116c05f83018461169e565b92915050565b5f815190506116d481611375565b92915050565b5f602082840312156116ef576116ee61130e565b5b5f6116fc848285016116c6565b91505092915050565b7f596f75722062616c616e6365206973206e6f7420656e6f7567680000000000005f82015250565b5f611739601a836114e8565b915061174482611705565b602082019050919050565b5f6020820190508181035f8301526117668161172d565b9050919050565b5f6040820190506117805f83018561169e565b61178d602083018461169e565b9392505050565b7f546f6b656e20616c6c6f77616e636520746f6f206c6f770000000000000000005f82015250565b5f6117c86017836114e8565b91506117d382611794565b602082019050919050565b5f6020820190508181035f8301526117f5816117bc565b9050919050565b5f60608201905061180f5f83018661169e565b61181c602083018561169e565b611829604083018461143e565b949350505050565b5f8115159050919050565b61184581611831565b811461184f575f5ffd5b50565b5f815190506118608161183c565b92915050565b5f6020828403121561187b5761187a61130e565b5b5f61188884828501611852565b91505092915050565b7f457865637574696f6e206661696c6564000000000000000000000000000000005f82015250565b5f6118c56010836114e8565b91506118d082611891565b602082019050919050565b5f6020820190508181035f8301526118f2816118b9565b9050919050565b7f4e487b71000000000000000000000000000000000000000000000000000000005f52602160045260245ffd5b5f6119308261136c565b915061193b8361136c565b925082820190508082111561195357611952611630565b5b92915050565b5f60408201905061196c5f83018561169e565b611979602083018461143e565b9392505050565b5f6020820190506119935f83018461143e565b92915050565b7f4f6e6c79206f776e65722063616e2061636365737300000000000000000000005f82015250565b5f6119cd6015836114e8565b91506119d882611999565b602082019050919050565b5f6020820190508181035f8301526119fa816119c1565b9050919050565b7f62616c616e6365206973206c65737300000000000000000000000000000000005f82015250565b5f611a35600f836114e8565b9150611a4082611a01565b602082019050919050565b5f6020820190508181035f830152611a6281611a29565b9050919050565b7f496e73756666696369656e7420636f6e74726163742062616c616e63650000005f82015250565b5f611a9d601d836114e8565b9150611aa882611a69565b602082019050919050565b5f6020820190508181035f830152611aca81611a91565b9050919050565b7f546f6b656e206e6f7420646566696e65640000000000000000000000000000005f82015250565b5f611b056011836114e8565b9150611b1082611ad1565b602082019050919050565b5f6020820190508181035f830152611b3281611af9565b9050919050565b7f4578637574696f6e206661696c656400000000000000000000000000000000005f82015250565b5f611b6d600f836114e8565b9150611b7882611b39565b602082019050919050565b5f6020820190508181035f830152611b9a81611b61565b9050919050565b7f4e487b71000000000000000000000000000000000000000000000000000000005f52601260045260245ffd5b5f611bd88261136c565b9150611be38361136c565b925082611bf357611bf2611ba1565b5b828204905092915050565b7f556e737570706f727465642063757272656e63790000000000000000000000005f82015250565b5f611c326014836114e8565b9150611c3d82611bfe565b602082019050919050565b5f6020820190508181035f830152611c5f81611c26565b905091905056fea2646970667358221220f105e716e9626a1c329c820eff162139966fabe57c52776b80759623407ef79064736f6c634300081c0033",
					"opcodes": "PUSH1 0x80 PUSH1 0x40 MSTORE CALLVALUE DUP1 ISZERO PUSH2 0xF JUMPI PUSH0 PUSH0 REVERT JUMPDEST POP PUSH1 0x40 MLOAD PUSH2 0x1E4D CODESIZE SUB DUP1 PUSH2 0x1E4D DUP4 CODECOPY DUP2 DUP2 ADD PUSH1 0x40 MSTORE DUP2 ADD SWAP1 PUSH2 0x31 SWAP2 SWAP1 PUSH2 0x166 JUMP JUMPDEST DUP2 PUSH0 PUSH0 PUSH2 0x100 EXP DUP2 SLOAD DUP2 PUSH20 0xFFFFFFFFFFFFFFFFFFFFFFFFFFFFFFFFFFFFFFFF MUL NOT AND SWAP1 DUP4 PUSH20 0xFFFFFFFFFFFFFFFFFFFFFFFFFFFFFFFFFFFFFFFF AND MUL OR SWAP1 SSTORE POP DUP1 PUSH1 0x1 PUSH0 PUSH2 0x100 EXP DUP2 SLOAD DUP2 PUSH20 0xFFFFFFFFFFFFFFFFFFFFFFFFFFFFFFFFFFFFFFFF MUL NOT AND SWAP1 DUP4 PUSH20 0xFFFFFFFFFFFFFFFFFFFFFFFFFFFFFFFFFFFFFFFF AND MUL OR SWAP1 SSTORE POP CALLER PUSH1 0x2 PUSH0 PUSH2 0x100 EXP DUP2 SLOAD DUP2 PUSH20 0xFFFFFFFFFFFFFFFFFFFFFFFFFFFFFFFFFFFFFFFF MUL NOT AND SWAP1 DUP4 PUSH20 0xFFFFFFFFFFFFFFFFFFFFFFFFFFFFFFFFFFFFFFFF AND MUL OR SWAP1 SSTORE POP POP POP PUSH2 0x1A4 JUMP JUMPDEST PUSH0 PUSH0 REVERT JUMPDEST PUSH0 PUSH20 0xFFFFFFFFFFFFFFFFFFFFFFFFFFFFFFFFFFFFFFFF DUP3 AND SWAP1 POP SWAP2 SWAP1 POP JUMP JUMPDEST PUSH0 PUSH2 0x124 DUP3 PUSH2 0xFB JUMP JUMPDEST SWAP1 POP SWAP2 SWAP1 POP JUMP JUMPDEST PUSH0 PUSH2 0x135 DUP3 PUSH2 0x11A JUMP JUMPDEST SWAP1 POP SWAP2 SWAP1 POP JUMP JUMPDEST PUSH2 0x145 DUP2 PUSH2 0x12B JUMP JUMPDEST DUP2 EQ PUSH2 0x14F JUMPI PUSH0 PUSH0 REVERT JUMPDEST POP JUMP JUMPDEST PUSH0 DUP2 MLOAD SWAP1 POP PUSH2 0x160 DUP2 PUSH2 0x13C JUMP JUMPDEST SWAP3 SWAP2 POP POP JUMP JUMPDEST PUSH0 PUSH0 PUSH1 0x40 DUP4 DUP6 SUB SLT ISZERO PUSH2 0x17C JUMPI PUSH2 0x17B PUSH2 0xF7 JUMP JUMPDEST JUMPDEST PUSH0 PUSH2 0x189 DUP6 DUP3 DUP7 ADD PUSH2 0x152 JUMP JUMPDEST SWAP3 POP POP PUSH1 0x20 PUSH2 0x19A DUP6 DUP3 DUP7 ADD PUSH2 0x152 JUMP JUMPDEST SWAP2 POP POP SWAP3 POP SWAP3 SWAP1 POP JUMP JUMPDEST PUSH2 0x1C9C DUP1 PUSH2 0x1B1 PUSH0 CODECOPY PUSH0 RETURN INVALID PUSH1 0x80 PUSH1 0x40 MSTORE CALLVALUE DUP1 ISZERO PUSH2 0xF JUMPI PUSH0 PUSH0 REVERT JUMPDEST POP PUSH1 0x4 CALLDATASIZE LT PUSH2 0x60 JUMPI PUSH0 CALLDATALOAD PUSH1 0xE0 SHR DUP1 PUSH4 0x3E2B4BF8 EQ PUSH2 0x64 JUMPI DUP1 PUSH4 0x3F489914 EQ PUSH2 0x80 JUMPI DUP1 PUSH4 0x5E8F4826 EQ PUSH2 0x9C JUMPI DUP1 PUSH4 0x6F9FB98A EQ PUSH2 0xB8 JUMPI DUP1 PUSH4 0xA98AD46C EQ PUSH2 0xD7 JUMPI DUP1 PUSH4 0xFE2371CB EQ PUSH2 0xF5 JUMPI JUMPDEST PUSH0 PUSH0 REVERT JUMPDEST PUSH2 0x7E PUSH1 0x4 DUP1 CALLDATASIZE SUB DUP2 ADD SWAP1 PUSH2 0x79 SWAP2 SWAP1 PUSH2 0x139F JUMP JUMPDEST PUSH2 0x113 JUMP JUMPDEST STOP JUMPDEST PUSH2 0x9A PUSH1 0x4 DUP1 CALLDATASIZE SUB DUP2 ADD SWAP1 PUSH2 0x95 SWAP2 SWAP1 PUSH2 0x1400 JUMP JUMPDEST PUSH2 0x6B4 JUMP JUMPDEST STOP JUMPDEST PUSH2 0xB6 PUSH1 0x4 DUP1 CALLDATASIZE SUB DUP2 ADD SWAP1 PUSH2 0xB1 SWAP2 SWAP1 PUSH2 0x139F JUMP JUMPDEST PUSH2 0xA93 JUMP JUMPDEST STOP JUMPDEST PUSH2 0xC0 PUSH2 0x1037 JUMP JUMPDEST PUSH1 0x40 MLOAD PUSH2 0xCE SWAP3 SWAP2 SWAP1 PUSH2 0x144D JUMP JUMPDEST PUSH1 0x40 MLOAD DUP1 SWAP2 SUB SWAP1 RETURN JUMPDEST PUSH2 0xDF PUSH2 0x1201 JUMP JUMPDEST PUSH1 0x40 MLOAD PUSH2 0xEC SWAP2 SWAP1 PUSH2 0x14CF JUMP JUMPDEST PUSH1 0x40 MLOAD DUP1 SWAP2 SUB SWAP1 RETURN JUMPDEST PUSH2 0xFD PUSH2 0x1226 JUMP JUMPDEST PUSH1 0x40 MLOAD PUSH2 0x10A SWAP2 SWAP1 PUSH2 0x14CF JUMP JUMPDEST PUSH1 0x40 MLOAD DUP1 SWAP2 SUB SWAP1 RETURN JUMPDEST PUSH1 0x2 PUSH1 0x14 SWAP1 SLOAD SWAP1 PUSH2 0x100 EXP SWAP1 DIV PUSH1 0xFF AND ISZERO PUSH2 0x163 JUMPI PUSH1 0x40 MLOAD PUSH32 0x8C379A000000000000000000000000000000000000000000000000000000000 DUP2 MSTORE PUSH1 0x4 ADD PUSH2 0x15A SWAP1 PUSH2 0x1542 JUMP JUMPDEST PUSH1 0x40 MLOAD DUP1 SWAP2 SUB SWAP1 REVERT JUMPDEST PUSH1 0x1 PUSH1 0x2 PUSH1 0x14 PUSH2 0x100 EXP DUP2 SLOAD DUP2 PUSH1 0xFF MUL NOT AND SWAP1 DUP4 ISZERO ISZERO MUL OR SWAP1 SSTORE POP PUSH0 PUSH20 0xFFFFFFFFFFFFFFFFFFFFFFFFFFFFFFFFFFFFFFFF AND CALLER PUSH20 0xFFFFFFFFFFFFFFFFFFFFFFFFFFFFFFFFFFFFFFFF AND SUB PUSH2 0x1EC JUMPI PUSH1 0x40 MLOAD PUSH32 0x8C379A000000000000000000000000000000000000000000000000000000000 DUP2 MSTORE PUSH1 0x4 ADD PUSH2 0x1E3 SWAP1 PUSH2 0x15AA JUMP JUMPDEST PUSH1 0x40 MLOAD DUP1 SWAP2 SUB SWAP1 REVERT JUMPDEST PUSH0 DUP2 GT PUSH2 0x22E JUMPI PUSH1 0x40 MLOAD PUSH32 0x8C379A000000000000000000000000000000000000000000000000000000000 DUP2 MSTORE PUSH1 0x4 ADD PUSH2 0x225 SWAP1 PUSH2 0x1612 JUMP JUMPDEST PUSH1 0x40 MLOAD DUP1 SWAP2 SUB SWAP1 REVERT JUMPDEST PUSH0 PUSH3 0xF4240 DUP3 PUSH2 0x23E SWAP2 SWAP1 PUSH2 0x165D JUMP JUMPDEST SWAP1 POP PUSH0 PUSH1 0x1 PUSH0 SWAP1 SLOAD SWAP1 PUSH2 0x100 EXP SWAP1 DIV PUSH20 0xFFFFFFFFFFFFFFFFFFFFFFFFFFFFFFFFFFFFFFFF AND PUSH20 0xFFFFFFFFFFFFFFFFFFFFFFFFFFFFFFFFFFFFFFFF AND PUSH4 0x70A08231 CALLER PUSH1 0x40 MLOAD DUP3 PUSH4 0xFFFFFFFF AND PUSH1 0xE0 SHL DUP2 MSTORE PUSH1 0x4 ADD PUSH2 0x29B SWAP2 SWAP1 PUSH2 0x16AD JUMP JUMPDEST PUSH1 0x20 PUSH1 0x40 MLOAD DUP1 DUP4 SUB DUP2 DUP7 GAS STATICCALL ISZERO DUP1 ISZERO PUSH2 0x2B6 JUMPI RETURNDATASIZE PUSH0 PUSH0 RETURNDATACOPY RETURNDATASIZE PUSH0 REVERT JUMPDEST POP POP POP POP PUSH1 0x40 MLOAD RETURNDATASIZE PUSH1 0x1F NOT PUSH1 0x1F DUP3 ADD AND DUP3 ADD DUP1 PUSH1 0x40 MSTORE POP DUP2 ADD SWAP1 PUSH2 0x2DA SWAP2 SWAP1 PUSH2 0x16DA JUMP JUMPDEST SWAP1 POP DUP2 DUP2 LT ISZERO PUSH2 0x31F JUMPI PUSH1 0x40 MLOAD PUSH32 0x8C379A000000000000000000000000000000000000000000000000000000000 DUP2 MSTORE PUSH1 0x4 ADD PUSH2 0x316 SWAP1 PUSH2 0x174F JUMP JUMPDEST PUSH1 0x40 MLOAD DUP1 SWAP2 SUB SWAP1 REVERT JUMPDEST PUSH0 PUSH1 0x1 PUSH0 SWAP1 SLOAD SWAP1 PUSH2 0x100 EXP SWAP1 DIV PUSH20 0xFFFFFFFFFFFFFFFFFFFFFFFFFFFFFFFFFFFFFFFF AND PUSH20 0xFFFFFFFFFFFFFFFFFFFFFFFFFFFFFFFFFFFFFFFF AND PUSH4 0xDD62ED3E CALLER ADDRESS PUSH1 0x40 MLOAD DUP4 PUSH4 0xFFFFFFFF AND PUSH1 0xE0 SHL DUP2 MSTORE PUSH1 0x4 ADD PUSH2 0x37C SWAP3 SWAP2 SWAP1 PUSH2 0x176D JUMP JUMPDEST PUSH1 0x20 PUSH1 0x40 MLOAD DUP1 DUP4 SUB DUP2 DUP7 GAS STATICCALL ISZERO DUP1 ISZERO PUSH2 0x397 JUMPI RETURNDATASIZE PUSH0 PUSH0 RETURNDATACOPY RETURNDATASIZE PUSH0 REVERT JUMPDEST POP POP POP POP PUSH1 0x40 MLOAD RETURNDATASIZE PUSH1 0x1F NOT PUSH1 0x1F DUP3 ADD AND DUP3 ADD DUP1 PUSH1 0x40 MSTORE POP DUP2 ADD SWAP1 PUSH2 0x3BB SWAP2 SWAP1 PUSH2 0x16DA JUMP JUMPDEST SWAP1 POP DUP3 DUP2 LT ISZERO PUSH2 0x400 JUMPI PUSH1 0x40 MLOAD PUSH32 0x8C379A000000000000000000000000000000000000000000000000000000000 DUP2 MSTORE PUSH1 0x4 ADD PUSH2 0x3F7 SWAP1 PUSH2 0x17DE JUMP JUMPDEST PUSH1 0x40 MLOAD DUP1 SWAP2 SUB SWAP1 REVERT JUMPDEST PUSH0 PUSH1 0x1 PUSH0 SWAP1 SLOAD SWAP1 PUSH2 0x100 EXP SWAP1 DIV PUSH20 0xFFFFFFFFFFFFFFFFFFFFFFFFFFFFFFFFFFFFFFFF AND PUSH20 0xFFFFFFFFFFFFFFFFFFFFFFFFFFFFFFFFFFFFFFFF AND PUSH4 0x23B872DD DUP8 ADDRESS DUP8 PUSH1 0x40 MLOAD DUP5 PUSH4 0xFFFFFFFF AND PUSH1 0xE0 SHL DUP2 MSTORE PUSH1 0x4 ADD PUSH2 0x45F SWAP4 SWAP3 SWAP2 SWAP1 PUSH2 0x17FC JUMP JUMPDEST PUSH1 0x20 PUSH1 0x40 MLOAD DUP1 DUP4 SUB DUP2 PUSH0 DUP8 GAS CALL ISZERO DUP1 ISZERO PUSH2 0x47B JUMPI RETURNDATASIZE PUSH0 PUSH0 RETURNDATACOPY RETURNDATASIZE PUSH0 REVERT JUMPDEST POP POP POP POP PUSH1 0x40 MLOAD RETURNDATASIZE PUSH1 0x1F NOT PUSH1 0x1F DUP3 ADD AND DUP3 ADD DUP1 PUSH1 0x40 MSTORE POP DUP2 ADD SWAP1 PUSH2 0x49F SWAP2 SWAP1 PUSH2 0x1866 JUMP JUMPDEST SWAP1 POP DUP1 PUSH2 0x4E1 JUMPI PUSH1 0x40 MLOAD PUSH32 0x8C379A000000000000000000000000000000000000000000000000000000000 DUP2 MSTORE PUSH1 0x4 ADD PUSH2 0x4D8 SWAP1 PUSH2 0x18DB JUMP JUMPDEST PUSH1 0x40 MLOAD DUP1 SWAP2 SUB SWAP1 REVERT JUMPDEST DUP4 PUSH1 0x3 PUSH0 PUSH1 0x2 DUP1 DUP2 GT ISZERO PUSH2 0x4F8 JUMPI PUSH2 0x4F7 PUSH2 0x18F9 JUMP JUMPDEST JUMPDEST PUSH1 0x2 DUP2 GT ISZERO PUSH2 0x50A JUMPI PUSH2 0x509 PUSH2 0x18F9 JUMP JUMPDEST JUMPDEST DUP2 MSTORE PUSH1 0x20 ADD SWAP1 DUP2 MSTORE PUSH1 0x20 ADD PUSH0 KECCAK256 PUSH0 DUP3 DUP3 SLOAD PUSH2 0x525 SWAP2 SWAP1 PUSH2 0x1926 JUMP JUMPDEST SWAP3 POP POP DUP2 SWAP1 SSTORE POP PUSH0 PUSH2 0x538 DUP6 PUSH1 0x2 PUSH2 0x124A JUMP JUMPDEST SWAP1 POP PUSH0 PUSH0 PUSH0 SWAP1 SLOAD SWAP1 PUSH2 0x100 EXP SWAP1 DIV PUSH20 0xFFFFFFFFFFFFFFFFFFFFFFFFFFFFFFFFFFFFFFFF AND PUSH20 0xFFFFFFFFFFFFFFFFFFFFFFFFFFFFFFFFFFFFFFFF AND PUSH4 0xA9059CBB CALLER DUP5 PUSH1 0x40 MLOAD DUP4 PUSH4 0xFFFFFFFF AND PUSH1 0xE0 SHL DUP2 MSTORE PUSH1 0x4 ADD PUSH2 0x596 SWAP3 SWAP2 SWAP1 PUSH2 0x1959 JUMP JUMPDEST PUSH1 0x20 PUSH1 0x40 MLOAD DUP1 DUP4 SUB DUP2 PUSH0 DUP8 GAS CALL ISZERO DUP1 ISZERO PUSH2 0x5B2 JUMPI RETURNDATASIZE PUSH0 PUSH0 RETURNDATACOPY RETURNDATASIZE PUSH0 REVERT JUMPDEST POP POP POP POP PUSH1 0x40 MLOAD RETURNDATASIZE PUSH1 0x1F NOT PUSH1 0x1F DUP3 ADD AND DUP3 ADD DUP1 PUSH1 0x40 MSTORE POP DUP2 ADD SWAP1 PUSH2 0x5D6 SWAP2 SWAP1 PUSH2 0x1866 JUMP JUMPDEST SWAP1 POP DUP1 ISZERO PUSH2 0x690 JUMPI DUP2 PUSH1 0x3 PUSH0 PUSH1 0x1 PUSH1 0x2 DUP2 GT ISZERO PUSH2 0x5F6 JUMPI PUSH2 0x5F5 PUSH2 0x18F9 JUMP JUMPDEST JUMPDEST PUSH1 0x2 DUP2 GT ISZERO PUSH2 0x608 JUMPI PUSH2 0x607 PUSH2 0x18F9 JUMP JUMPDEST JUMPDEST DUP2 MSTORE PUSH1 0x20 ADD SWAP1 DUP2 MSTORE PUSH1 0x20 ADD PUSH0 KECCAK256 PUSH0 DUP3 DUP3 SLOAD PUSH2 0x623 SWAP2 SWAP1 PUSH2 0x1926 JUMP JUMPDEST SWAP3 POP POP DUP2 SWAP1 SSTORE POP ADDRESS PUSH20 0xFFFFFFFFFFFFFFFFFFFFFFFFFFFFFFFFFFFFFFFF AND DUP9 PUSH20 0xFFFFFFFFFFFFFFFFFFFFFFFFFFFFFFFFFFFFFFFF AND PUSH32 0xF936E5E0223C6F3D59C5CAD7723AAA9B2B2D68A54065AED03AD5E38675F1F306 DUP9 PUSH1 0x40 MLOAD PUSH2 0x687 SWAP2 SWAP1 PUSH2 0x1980 JUMP JUMPDEST PUSH1 0x40 MLOAD DUP1 SWAP2 SUB SWAP1 LOG3 JUMPDEST POP POP POP POP POP POP PUSH0 PUSH1 0x2 PUSH1 0x14 PUSH2 0x100 EXP DUP2 SLOAD DUP2 PUSH1 0xFF MUL NOT AND SWAP1 DUP4 ISZERO ISZERO MUL OR SWAP1 SSTORE POP POP POP JUMP JUMPDEST PUSH1 0x2 PUSH0 SWAP1 SLOAD SWAP1 PUSH2 0x100 EXP SWAP1 DIV PUSH20 0xFFFFFFFFFFFFFFFFFFFFFFFFFFFFFFFFFFFFFFFF AND PUSH20 0xFFFFFFFFFFFFFFFFFFFFFFFFFFFFFFFFFFFFFFFF AND CALLER PUSH20 0xFFFFFFFFFFFFFFFFFFFFFFFFFFFFFFFFFFFFFFFF AND EQ PUSH2 0x743 JUMPI PUSH1 0x40 MLOAD PUSH32 0x8C379A000000000000000000000000000000000000000000000000000000000 DUP2 MSTORE PUSH1 0x4 ADD PUSH2 0x73A SWAP1 PUSH2 0x19E3 JUMP JUMPDEST PUSH1 0x40 MLOAD DUP1 SWAP2 SUB SWAP1 REVERT JUMPDEST PUSH0 DUP2 GT PUSH2 0x785 JUMPI PUSH1 0x40 MLOAD PUSH32 0x8C379A000000000000000000000000000000000000000000000000000000000 DUP2 MSTORE PUSH1 0x4 ADD PUSH2 0x77C SWAP1 PUSH2 0x1A4B JUMP JUMPDEST PUSH1 0x40 MLOAD DUP1 SWAP2 SUB SWAP1 REVERT JUMPDEST PUSH0 PUSH1 0x3 PUSH0 DUP5 PUSH1 0x2 DUP2 GT ISZERO PUSH2 0x79C JUMPI PUSH2 0x79B PUSH2 0x18F9 JUMP JUMPDEST JUMPDEST PUSH1 0x2 DUP2 GT ISZERO PUSH2 0x7AE JUMPI PUSH2 0x7AD PUSH2 0x18F9 JUMP JUMPDEST JUMPDEST DUP2 MSTORE PUSH1 0x20 ADD SWAP1 DUP2 MSTORE PUSH1 0x20 ADD PUSH0 KECCAK256 SLOAD SWAP1 POP DUP2 DUP2 LT ISZERO PUSH2 0x801 JUMPI PUSH1 0x40 MLOAD PUSH32 0x8C379A000000000000000000000000000000000000000000000000000000000 DUP2 MSTORE PUSH1 0x4 ADD PUSH2 0x7F8 SWAP1 PUSH2 0x1AB3 JUMP JUMPDEST PUSH1 0x40 MLOAD DUP1 SWAP2 SUB SWAP1 REVERT JUMPDEST DUP3 PUSH1 0x2 DUP2 GT ISZERO PUSH2 0x814 JUMPI PUSH2 0x813 PUSH2 0x18F9 JUMP JUMPDEST JUMPDEST PUSH1 0x1 PUSH1 0x2 DUP2 GT ISZERO PUSH2 0x828 JUMPI PUSH2 0x827 PUSH2 0x18F9 JUMP JUMPDEST JUMPDEST SUB PUSH2 0x92E JUMPI PUSH0 PUSH0 SWAP1 SLOAD SWAP1 PUSH2 0x100 EXP SWAP1 DIV PUSH20 0xFFFFFFFFFFFFFFFFFFFFFFFFFFFFFFFFFFFFFFFF AND PUSH20 0xFFFFFFFFFFFFFFFFFFFFFFFFFFFFFFFFFFFFFFFF AND PUSH4 0xA9059CBB CALLER DUP5 PUSH1 0x40 MLOAD DUP4 PUSH4 0xFFFFFFFF AND PUSH1 0xE0 SHL DUP2 MSTORE PUSH1 0x4 ADD PUSH2 0x888 SWAP3 SWAP2 SWAP1 PUSH2 0x1959 JUMP JUMPDEST PUSH1 0x20 PUSH1 0x40 MLOAD DUP1 DUP4 SUB DUP2 PUSH0 DUP8 GAS CALL ISZERO DUP1 ISZERO PUSH2 0x8A4 JUMPI RETURNDATASIZE PUSH0 PUSH0 RETURNDATACOPY RETURNDATASIZE PUSH0 REVERT JUMPDEST POP POP POP POP PUSH1 0x40 MLOAD RETURNDATASIZE PUSH1 0x1F NOT PUSH1 0x1F DUP3 ADD AND DUP3 ADD DUP1 PUSH1 0x40 MSTORE POP DUP2 ADD SWAP1 PUSH2 0x8C8 SWAP2 SWAP1 PUSH2 0x1866 JUMP JUMPDEST POP DUP3 PUSH1 0x2 DUP2 GT ISZERO PUSH2 0x8DC JUMPI PUSH2 0x8DB PUSH2 0x18F9 JUMP JUMPDEST JUMPDEST CALLER PUSH20 0xFFFFFFFFFFFFFFFFFFFFFFFFFFFFFFFFFFFFFFFF AND PUSH31 0x8953C98BF4B420F992A98F3BFA55D17F4E19076029765D02CB1F9A99276868 DUP5 PUSH1 0x40 MLOAD PUSH2 0x921 SWAP2 SWAP1 PUSH2 0x1980 JUMP JUMPDEST PUSH1 0x40 MLOAD DUP1 SWAP2 SUB SWAP1 LOG3 PUSH2 0xA58 JUMP JUMPDEST DUP3 PUSH1 0x2 DUP2 GT ISZERO PUSH2 0x941 JUMPI PUSH2 0x940 PUSH2 0x18F9 JUMP JUMPDEST JUMPDEST PUSH1 0x2 DUP1 DUP2 GT ISZERO PUSH2 0x954 JUMPI PUSH2 0x953 PUSH2 0x18F9 JUMP JUMPDEST JUMPDEST SUB PUSH2 0xA57 JUMPI PUSH1 0x1 PUSH0 SWAP1 SLOAD SWAP1 PUSH2 0x100 EXP SWAP1 DIV PUSH20 0xFFFFFFFFFFFFFFFFFFFFFFFFFFFFFFFFFFFFFFFF AND PUSH20 0xFFFFFFFFFFFFFFFFFFFFFFFFFFFFFFFFFFFFFFFF AND PUSH4 0xA9059CBB CALLER DUP5 PUSH1 0x40 MLOAD DUP4 PUSH4 0xFFFFFFFF AND PUSH1 0xE0 SHL DUP2 MSTORE PUSH1 0x4 ADD PUSH2 0x9B5 SWAP3 SWAP2 SWAP1 PUSH2 0x1959 JUMP JUMPDEST PUSH1 0x20 PUSH1 0x40 MLOAD DUP1 DUP4 SUB DUP2 PUSH0 DUP8 GAS CALL ISZERO DUP1 ISZERO PUSH2 0x9D1 JUMPI RETURNDATASIZE PUSH0 PUSH0 RETURNDATACOPY RETURNDATASIZE PUSH0 REVERT JUMPDEST POP POP POP POP PUSH1 0x40 MLOAD RETURNDATASIZE PUSH1 0x1F NOT PUSH1 0x1F DUP3 ADD AND DUP3 ADD DUP1 PUSH1 0x40 MSTORE POP DUP2 ADD SWAP1 PUSH2 0x9F5 SWAP2 SWAP1 PUSH2 0x1866 JUMP JUMPDEST POP DUP3 PUSH1 0x2 DUP2 GT ISZERO PUSH2 0xA09 JUMPI PUSH2 0xA08 PUSH2 0x18F9 JUMP JUMPDEST JUMPDEST CALLER PUSH20 0xFFFFFFFFFFFFFFFFFFFFFFFFFFFFFFFFFFFFFFFF AND PUSH31 0x8953C98BF4B420F992A98F3BFA55D17F4E19076029765D02CB1F9A99276868 DUP5 PUSH1 0x40 MLOAD PUSH2 0xA4E SWAP2 SWAP1 PUSH2 0x1980 JUMP JUMPDEST PUSH1 0x40 MLOAD DUP1 SWAP2 SUB SWAP1 LOG3 JUMPDEST JUMPDEST PUSH1 0x40 MLOAD PUSH32 0x8C379A000000000000000000000000000000000000000000000000000000000 DUP2 MSTORE PUSH1 0x4 ADD PUSH2 0xA8A SWAP1 PUSH2 0x1B1B JUMP JUMPDEST PUSH1 0x40 MLOAD DUP1 SWAP2 SUB SWAP1 REVERT JUMPDEST PUSH1 0x2 PUSH1 0x14 SWAP1 SLOAD SWAP1 PUSH2 0x100 EXP SWAP1 DIV PUSH1 0xFF AND ISZERO PUSH2 0xAE3 JUMPI PUSH1 0x40 MLOAD PUSH32 0x8C379A000000000000000000000000000000000000000000000000000000000 DUP2 MSTORE PUSH1 0x4 ADD PUSH2 0xADA SWAP1 PUSH2 0x1542 JUMP JUMPDEST PUSH1 0x40 MLOAD DUP1 SWAP2 SUB SWAP1 REVERT JUMPDEST PUSH1 0x1 PUSH1 0x2 PUSH1 0x14 PUSH2 0x100 EXP DUP2 SLOAD DUP2 PUSH1 0xFF MUL NOT AND SWAP1 DUP4 ISZERO ISZERO MUL OR SWAP1 SSTORE POP PUSH0 PUSH20 0xFFFFFFFFFFFFFFFFFFFFFFFFFFFFFFFFFFFFFFFF AND CALLER PUSH20 0xFFFFFFFFFFFFFFFFFFFFFFFFFFFFFFFFFFFFFFFF AND SUB PUSH2 0xB6C JUMPI PUSH1 0x40 MLOAD PUSH32 0x8C379A000000000000000000000000000000000000000000000000000000000 DUP2 MSTORE PUSH1 0x4 ADD PUSH2 0xB63 SWAP1 PUSH2 0x15AA JUMP JUMPDEST PUSH1 0x40 MLOAD DUP1 SWAP2 SUB SWAP1 REVERT JUMPDEST PUSH0 DUP2 GT PUSH2 0xBAE JUMPI PUSH1 0x40 MLOAD PUSH32 0x8C379A000000000000000000000000000000000000000000000000000000000 DUP2 MSTORE PUSH1 0x4 ADD PUSH2 0xBA5 SWAP1 PUSH2 0x1612 JUMP JUMPDEST PUSH1 0x40 MLOAD DUP1 SWAP2 SUB SWAP1 REVERT JUMPDEST PUSH0 PUSH8 0xDE0B6B3A7640000 DUP3 PUSH2 0xBC3 SWAP2 SWAP1 PUSH2 0x165D JUMP JUMPDEST SWAP1 POP PUSH0 PUSH0 PUSH0 SWAP1 SLOAD SWAP1 PUSH2 0x100 EXP SWAP1 DIV PUSH20 0xFFFFFFFFFFFFFFFFFFFFFFFFFFFFFFFFFFFFFFFF AND PUSH20 0xFFFFFFFFFFFFFFFFFFFFFFFFFFFFFFFFFFFFFFFF AND PUSH4 0x70A08231 CALLER PUSH1 0x40 MLOAD DUP3 PUSH4 0xFFFFFFFF AND PUSH1 0xE0 SHL DUP2 MSTORE PUSH1 0x4 ADD PUSH2 0xC1F SWAP2 SWAP1 PUSH2 0x16AD JUMP JUMPDEST PUSH1 0x20 PUSH1 0x40 MLOAD DUP1 DUP4 SUB DUP2 DUP7 GAS STATICCALL ISZERO DUP1 ISZERO PUSH2 0xC3A JUMPI RETURNDATASIZE PUSH0 PUSH0 RETURNDATACOPY RETURNDATASIZE PUSH0 REVERT JUMPDEST POP POP POP POP PUSH1 0x40 MLOAD RETURNDATASIZE PUSH1 0x1F NOT PUSH1 0x1F DUP3 ADD AND DUP3 ADD DUP1 PUSH1 0x40 MSTORE POP DUP2 ADD SWAP1 PUSH2 0xC5E SWAP2 SWAP1 PUSH2 0x16DA JUMP JUMPDEST SWAP1 POP DUP3 DUP2 LT ISZERO PUSH2 0xCA3 JUMPI PUSH1 0x40 MLOAD PUSH32 0x8C379A000000000000000000000000000000000000000000000000000000000 DUP2 MSTORE PUSH1 0x4 ADD PUSH2 0xC9A SWAP1 PUSH2 0x174F JUMP JUMPDEST PUSH1 0x40 MLOAD DUP1 SWAP2 SUB SWAP1 REVERT JUMPDEST PUSH0 PUSH0 PUSH0 SWAP1 SLOAD SWAP1 PUSH2 0x100 EXP SWAP1 DIV PUSH20 0xFFFFFFFFFFFFFFFFFFFFFFFFFFFFFFFFFFFFFFFF AND PUSH20 0xFFFFFFFFFFFFFFFFFFFFFFFFFFFFFFFFFFFFFFFF AND PUSH4 0xDD62ED3E CALLER ADDRESS PUSH1 0x40 MLOAD DUP4 PUSH4 0xFFFFFFFF AND PUSH1 0xE0 SHL DUP2 MSTORE PUSH1 0x4 ADD PUSH2 0xCFF SWAP3 SWAP2 SWAP1 PUSH2 0x176D JUMP JUMPDEST PUSH1 0x20 PUSH1 0x40 MLOAD DUP1 DUP4 SUB DUP2 DUP7 GAS STATICCALL ISZERO DUP1 ISZERO PUSH2 0xD1A JUMPI RETURNDATASIZE PUSH0 PUSH0 RETURNDATACOPY RETURNDATASIZE PUSH0 REVERT JUMPDEST POP POP POP POP PUSH1 0x40 MLOAD RETURNDATASIZE PUSH1 0x1F NOT PUSH1 0x1F DUP3 ADD AND DUP3 ADD DUP1 PUSH1 0x40 MSTORE POP DUP2 ADD SWAP1 PUSH2 0xD3E SWAP2 SWAP1 PUSH2 0x16DA JUMP JUMPDEST SWAP1 POP DUP4 DUP2 LT ISZERO PUSH2 0xD83 JUMPI PUSH1 0x40 MLOAD PUSH32 0x8C379A000000000000000000000000000000000000000000000000000000000 DUP2 MSTORE PUSH1 0x4 ADD PUSH2 0xD7A SWAP1 PUSH2 0x17DE JUMP JUMPDEST PUSH1 0x40 MLOAD DUP1 SWAP2 SUB SWAP1 REVERT JUMPDEST PUSH0 PUSH0 PUSH0 SWAP1 SLOAD SWAP1 PUSH2 0x100 EXP SWAP1 DIV PUSH20 0xFFFFFFFFFFFFFFFFFFFFFFFFFFFFFFFFFFFFFFFF AND PUSH20 0xFFFFFFFFFFFFFFFFFFFFFFFFFFFFFFFFFFFFFFFF AND PUSH4 0x23B872DD DUP8 ADDRESS DUP8 PUSH1 0x40 MLOAD DUP5 PUSH4 0xFFFFFFFF AND PUSH1 0xE0 SHL DUP2 MSTORE PUSH1 0x4 ADD PUSH2 0xDE1 SWAP4 SWAP3 SWAP2 SWAP1 PUSH2 0x17FC JUMP JUMPDEST PUSH1 0x20 PUSH1 0x40 MLOAD DUP1 DUP4 SUB DUP2 PUSH0 DUP8 GAS CALL ISZERO DUP1 ISZERO PUSH2 0xDFD JUMPI RETURNDATASIZE PUSH0 PUSH0 RETURNDATACOPY RETURNDATASIZE PUSH0 REVERT JUMPDEST POP POP POP POP PUSH1 0x40 MLOAD RETURNDATASIZE PUSH1 0x1F NOT PUSH1 0x1F DUP3 ADD AND DUP3 ADD DUP1 PUSH1 0x40 MSTORE POP DUP2 ADD SWAP1 PUSH2 0xE21 SWAP2 SWAP1 PUSH2 0x1866 JUMP JUMPDEST SWAP1 POP DUP1 PUSH2 0xE63 JUMPI PUSH1 0x40 MLOAD PUSH32 0x8C379A000000000000000000000000000000000000000000000000000000000 DUP2 MSTORE PUSH1 0x4 ADD PUSH2 0xE5A SWAP1 PUSH2 0x1B83 JUMP JUMPDEST PUSH1 0x40 MLOAD DUP1 SWAP2 SUB SWAP1 REVERT JUMPDEST DUP4 PUSH1 0x3 PUSH0 PUSH1 0x1 PUSH1 0x2 DUP2 GT ISZERO PUSH2 0xE7B JUMPI PUSH2 0xE7A PUSH2 0x18F9 JUMP JUMPDEST JUMPDEST PUSH1 0x2 DUP2 GT ISZERO PUSH2 0xE8D JUMPI PUSH2 0xE8C PUSH2 0x18F9 JUMP JUMPDEST JUMPDEST DUP2 MSTORE PUSH1 0x20 ADD SWAP1 DUP2 MSTORE PUSH1 0x20 ADD PUSH0 KECCAK256 PUSH0 DUP3 DUP3 SLOAD PUSH2 0xEA8 SWAP2 SWAP1 PUSH2 0x1926 JUMP JUMPDEST SWAP3 POP POP DUP2 SWAP1 SSTORE POP PUSH0 PUSH2 0xEBB DUP6 PUSH1 0x1 PUSH2 0x124A JUMP JUMPDEST SWAP1 POP PUSH0 PUSH1 0x1 PUSH0 SWAP1 SLOAD SWAP1 PUSH2 0x100 EXP SWAP1 DIV PUSH20 0xFFFFFFFFFFFFFFFFFFFFFFFFFFFFFFFFFFFFFFFF AND PUSH20 0xFFFFFFFFFFFFFFFFFFFFFFFFFFFFFFFFFFFFFFFF AND PUSH4 0xA9059CBB CALLER DUP5 PUSH1 0x40 MLOAD DUP4 PUSH4 0xFFFFFFFF AND PUSH1 0xE0 SHL DUP2 MSTORE PUSH1 0x4 ADD PUSH2 0xF1A SWAP3 SWAP2 SWAP1 PUSH2 0x1959 JUMP JUMPDEST PUSH1 0x20 PUSH1 0x40 MLOAD DUP1 DUP4 SUB DUP2 PUSH0 DUP8 GAS CALL ISZERO DUP1 ISZERO PUSH2 0xF36 JUMPI RETURNDATASIZE PUSH0 PUSH0 RETURNDATACOPY RETURNDATASIZE PUSH0 REVERT JUMPDEST POP POP POP POP PUSH1 0x40 MLOAD RETURNDATASIZE PUSH1 0x1F NOT PUSH1 0x1F DUP3 ADD AND DUP3 ADD DUP1 PUSH1 0x40 MSTORE POP DUP2 ADD SWAP1 PUSH2 0xF5A SWAP2 SWAP1 PUSH2 0x1866 JUMP JUMPDEST SWAP1 POP DUP1 ISZERO PUSH2 0x1013 JUMPI DUP2 PUSH1 0x3 PUSH0 PUSH1 0x2 DUP1 DUP2 GT ISZERO PUSH2 0xF79 JUMPI PUSH2 0xF78 PUSH2 0x18F9 JUMP JUMPDEST JUMPDEST PUSH1 0x2 DUP2 GT ISZERO PUSH2 0xF8B JUMPI PUSH2 0xF8A PUSH2 0x18F9 JUMP JUMPDEST JUMPDEST DUP2 MSTORE PUSH1 0x20 ADD SWAP1 DUP2 MSTORE PUSH1 0x20 ADD PUSH0 KECCAK256 PUSH0 DUP3 DUP3 SLOAD PUSH2 0xFA6 SWAP2 SWAP1 PUSH2 0x1926 JUMP JUMPDEST SWAP3 POP POP DUP2 SWAP1 SSTORE POP ADDRESS PUSH20 0xFFFFFFFFFFFFFFFFFFFFFFFFFFFFFFFFFFFFFFFF AND DUP9 PUSH20 0xFFFFFFFFFFFFFFFFFFFFFFFFFFFFFFFFFFFFFFFF AND PUSH32 0xF936E5E0223C6F3D59C5CAD7723AAA9B2B2D68A54065AED03AD5E38675F1F306 DUP9 PUSH1 0x40 MLOAD PUSH2 0x100A SWAP2 SWAP1 PUSH2 0x1980 JUMP JUMPDEST PUSH1 0x40 MLOAD DUP1 SWAP2 SUB SWAP1 LOG3 JUMPDEST POP POP POP POP POP POP PUSH0 PUSH1 0x2 PUSH1 0x14 PUSH2 0x100 EXP DUP2 SLOAD DUP2 PUSH1 0xFF MUL NOT AND SWAP1 DUP4 ISZERO ISZERO MUL OR SWAP1 SSTORE POP POP POP JUMP JUMPDEST PUSH0 PUSH0 PUSH1 0x2 PUSH0 SWAP1 SLOAD SWAP1 PUSH2 0x100 EXP SWAP1 DIV PUSH20 0xFFFFFFFFFFFFFFFFFFFFFFFFFFFFFFFFFFFFFFFF AND PUSH20 0xFFFFFFFFFFFFFFFFFFFFFFFFFFFFFFFFFFFFFFFF AND CALLER PUSH20 0xFFFFFFFFFFFFFFFFFFFFFFFFFFFFFFFFFFFFFFFF AND EQ PUSH2 0x10C8 JUMPI PUSH1 0x40 MLOAD PUSH32 0x8C379A000000000000000000000000000000000000000000000000000000000 DUP2 MSTORE PUSH1 0x4 ADD PUSH2 0x10BF SWAP1 PUSH2 0x19E3 JUMP JUMPDEST PUSH1 0x40 MLOAD DUP1 SWAP2 SUB SWAP1 REVERT JUMPDEST PUSH1 0x1 PUSH0 SWAP1 SLOAD SWAP1 PUSH2 0x100 EXP SWAP1 DIV PUSH20 0xFFFFFFFFFFFFFFFFFFFFFFFFFFFFFFFFFFFFFFFF AND PUSH20 0xFFFFFFFFFFFFFFFFFFFFFFFFFFFFFFFFFFFFFFFF AND PUSH4 0x70A08231 ADDRESS PUSH1 0x40 MLOAD DUP3 PUSH4 0xFFFFFFFF AND PUSH1 0xE0 SHL DUP2 MSTORE PUSH1 0x4 ADD PUSH2 0x1122 SWAP2 SWAP1 PUSH2 0x16AD JUMP JUMPDEST PUSH1 0x20 PUSH1 0x40 MLOAD DUP1 DUP4 SUB DUP2 DUP7 GAS STATICCALL ISZERO DUP1 ISZERO PUSH2 0x113D JUMPI RETURNDATASIZE PUSH0 PUSH0 RETURNDATACOPY RETURNDATASIZE PUSH0 REVERT JUMPDEST POP POP POP POP PUSH1 0x40 MLOAD RETURNDATASIZE PUSH1 0x1F NOT PUSH1 0x1F DUP3 ADD AND DUP3 ADD DUP1 PUSH1 0x40 MSTORE POP DUP2 ADD SWAP1 PUSH2 0x1161 SWAP2 SWAP1 PUSH2 0x16DA JUMP JUMPDEST SWAP2 POP PUSH0 PUSH0 SWAP1 SLOAD SWAP1 PUSH2 0x100 EXP SWAP1 DIV PUSH20 0xFFFFFFFFFFFFFFFFFFFFFFFFFFFFFFFFFFFFFFFF AND PUSH20 0xFFFFFFFFFFFFFFFFFFFFFFFFFFFFFFFFFFFFFFFF AND PUSH4 0x70A08231 ADDRESS PUSH1 0x40 MLOAD DUP3 PUSH4 0xFFFFFFFF AND PUSH1 0xE0 SHL DUP2 MSTORE PUSH1 0x4 ADD PUSH2 0x11BC SWAP2 SWAP1 PUSH2 0x16AD JUMP JUMPDEST PUSH1 0x20 PUSH1 0x40 MLOAD DUP1 DUP4 SUB DUP2 DUP7 GAS STATICCALL ISZERO DUP1 ISZERO PUSH2 0x11D7 JUMPI RETURNDATASIZE PUSH0 PUSH0 RETURNDATACOPY RETURNDATASIZE PUSH0 REVERT JUMPDEST POP POP POP POP PUSH1 0x40 MLOAD RETURNDATASIZE PUSH1 0x1F NOT PUSH1 0x1F DUP3 ADD AND DUP3 ADD DUP1 PUSH1 0x40 MSTORE POP DUP2 ADD SWAP1 PUSH2 0x11FB SWAP2 SWAP1 PUSH2 0x16DA JUMP JUMPDEST SWAP1 POP SWAP1 SWAP2 JUMP JUMPDEST PUSH1 0x1 PUSH0 SWAP1 SLOAD SWAP1 PUSH2 0x100 EXP SWAP1 DIV PUSH20 0xFFFFFFFFFFFFFFFFFFFFFFFFFFFFFFFFFFFFFFFF AND DUP2 JUMP JUMPDEST PUSH0 PUSH0 SWAP1 SLOAD SWAP1 PUSH2 0x100 EXP SWAP1 DIV PUSH20 0xFFFFFFFFFFFFFFFFFFFFFFFFFFFFFFFFFFFFFFFF AND DUP2 JUMP JUMPDEST PUSH0 PUSH1 0x2 DUP1 DUP2 GT ISZERO PUSH2 0x125E JUMPI PUSH2 0x125D PUSH2 0x18F9 JUMP JUMPDEST JUMPDEST DUP3 PUSH1 0x2 DUP2 GT ISZERO PUSH2 0x1271 JUMPI PUSH2 0x1270 PUSH2 0x18F9 JUMP JUMPDEST JUMPDEST SUB PUSH2 0x128B JUMPI PUSH2 0x640 DUP4 PUSH2 0x1284 SWAP2 SWAP1 PUSH2 0x165D JUMP JUMPDEST SWAP1 POP PUSH2 0x1308 JUMP JUMPDEST PUSH1 0x1 PUSH1 0x2 DUP2 GT ISZERO PUSH2 0x129F JUMPI PUSH2 0x129E PUSH2 0x18F9 JUMP JUMPDEST JUMPDEST DUP3 PUSH1 0x2 DUP2 GT ISZERO PUSH2 0x12B2 JUMPI PUSH2 0x12B1 PUSH2 0x18F9 JUMP JUMPDEST JUMPDEST SUB PUSH2 0x12CC JUMPI PUSH2 0x640 DUP4 PUSH2 0x12C5 SWAP2 SWAP1 PUSH2 0x1BCE JUMP JUMPDEST SWAP1 POP PUSH2 0x1307 JUMP JUMPDEST PUSH1 0x40 MLOAD PUSH32 0x8C379A000000000000000000000000000000000000000000000000000000000 DUP2 MSTORE PUSH1 0x4 ADD PUSH2 0x12FE SWAP1 PUSH2 0x1C48 JUMP JUMPDEST PUSH1 0x40 MLOAD DUP1 SWAP2 SUB SWAP1 REVERT JUMPDEST JUMPDEST SWAP3 SWAP2 POP POP JUMP JUMPDEST PUSH0 PUSH0 REVERT JUMPDEST PUSH0 PUSH20 0xFFFFFFFFFFFFFFFFFFFFFFFFFFFFFFFFFFFFFFFF DUP3 AND SWAP1 POP SWAP2 SWAP1 POP JUMP JUMPDEST PUSH0 PUSH2 0x133B DUP3 PUSH2 0x1312 JUMP JUMPDEST SWAP1 POP SWAP2 SWAP1 POP JUMP JUMPDEST PUSH2 0x134B DUP2 PUSH2 0x1331 JUMP JUMPDEST DUP2 EQ PUSH2 0x1355 JUMPI PUSH0 PUSH0 REVERT JUMPDEST POP JUMP JUMPDEST PUSH0 DUP2 CALLDATALOAD SWAP1 POP PUSH2 0x1366 DUP2 PUSH2 0x1342 JUMP JUMPDEST SWAP3 SWAP2 POP POP JUMP JUMPDEST PUSH0 DUP2 SWAP1 POP SWAP2 SWAP1 POP JUMP JUMPDEST PUSH2 0x137E DUP2 PUSH2 0x136C JUMP JUMPDEST DUP2 EQ PUSH2 0x1388 JUMPI PUSH0 PUSH0 REVERT JUMPDEST POP JUMP JUMPDEST PUSH0 DUP2 CALLDATALOAD SWAP1 POP PUSH2 0x1399 DUP2 PUSH2 0x1375 JUMP JUMPDEST SWAP3 SWAP2 POP POP JUMP JUMPDEST PUSH0 PUSH0 PUSH1 0x40 DUP4 DUP6 SUB SLT ISZERO PUSH2 0x13B5 JUMPI PUSH2 0x13B4 PUSH2 0x130E JUMP JUMPDEST JUMPDEST PUSH0 PUSH2 0x13C2 DUP6 DUP3 DUP7 ADD PUSH2 0x1358 JUMP JUMPDEST SWAP3 POP POP PUSH1 0x20 PUSH2 0x13D3 DUP6 DUP3 DUP7 ADD PUSH2 0x138B JUMP JUMPDEST SWAP2 POP POP SWAP3 POP SWAP3 SWAP1 POP JUMP JUMPDEST PUSH1 0x3 DUP2 LT PUSH2 0x13E9 JUMPI PUSH0 PUSH0 REVERT JUMPDEST POP JUMP JUMPDEST PUSH0 DUP2 CALLDATALOAD SWAP1 POP PUSH2 0x13FA DUP2 PUSH2 0x13DD JUMP JUMPDEST SWAP3 SWAP2 POP POP JUMP JUMPDEST PUSH0 PUSH0 PUSH1 0x40 DUP4 DUP6 SUB SLT ISZERO PUSH2 0x1416 JUMPI PUSH2 0x1415 PUSH2 0x130E JUMP JUMPDEST JUMPDEST PUSH0 PUSH2 0x1423 DUP6 DUP3 DUP7 ADD PUSH2 0x13EC JUMP JUMPDEST SWAP3 POP POP PUSH1 0x20 PUSH2 0x1434 DUP6 DUP3 DUP7 ADD PUSH2 0x138B JUMP JUMPDEST SWAP2 POP POP SWAP3 POP SWAP3 SWAP1 POP JUMP JUMPDEST PUSH2 0x1447 DUP2 PUSH2 0x136C JUMP JUMPDEST DUP3 MSTORE POP POP JUMP JUMPDEST PUSH0 PUSH1 0x40 DUP3 ADD SWAP1 POP PUSH2 0x1460 PUSH0 DUP4 ADD DUP6 PUSH2 0x143E JUMP JUMPDEST PUSH2 0x146D PUSH1 0x20 DUP4 ADD DUP5 PUSH2 0x143E JUMP JUMPDEST SWAP4 SWAP3 POP POP POP JUMP JUMPDEST PUSH0 DUP2 SWAP1 POP SWAP2 SWAP1 POP JUMP JUMPDEST PUSH0 PUSH2 0x1497 PUSH2 0x1492 PUSH2 0x148D DUP5 PUSH2 0x1312 JUMP JUMPDEST PUSH2 0x1474 JUMP JUMPDEST PUSH2 0x1312 JUMP JUMPDEST SWAP1 POP SWAP2 SWAP1 POP JUMP JUMPDEST PUSH0 PUSH2 0x14A8 DUP3 PUSH2 0x147D JUMP JUMPDEST SWAP1 POP SWAP2 SWAP1 POP JUMP JUMPDEST PUSH0 PUSH2 0x14B9 DUP3 PUSH2 0x149E JUMP JUMPDEST SWAP1 POP SWAP2 SWAP1 POP JUMP JUMPDEST PUSH2 0x14C9 DUP2 PUSH2 0x14AF JUMP JUMPDEST DUP3 MSTORE POP POP JUMP JUMPDEST PUSH0 PUSH1 0x20 DUP3 ADD SWAP1 POP PUSH2 0x14E2 PUSH0 DUP4 ADD DUP5 PUSH2 0x14C0 JUMP JUMPDEST SWAP3 SWAP2 POP POP JUMP JUMPDEST PUSH0 DUP3 DUP3 MSTORE PUSH1 0x20 DUP3 ADD SWAP1 POP SWAP3 SWAP2 POP POP JUMP JUMPDEST PUSH32 0x5265656E7472616E6379206E6F7420616C6C6F77656400000000000000000000 PUSH0 DUP3 ADD MSTORE POP JUMP JUMPDEST PUSH0 PUSH2 0x152C PUSH1 0x16 DUP4 PUSH2 0x14E8 JUMP JUMPDEST SWAP2 POP PUSH2 0x1537 DUP3 PUSH2 0x14F8 JUMP JUMPDEST PUSH1 0x20 DUP3 ADD SWAP1 POP SWAP2 SWAP1 POP JUMP JUMPDEST PUSH0 PUSH1 0x20 DUP3 ADD SWAP1 POP DUP2 DUP2 SUB PUSH0 DUP4 ADD MSTORE PUSH2 0x1559 DUP2 PUSH2 0x1520 JUMP JUMPDEST SWAP1 POP SWAP2 SWAP1 POP JUMP JUMPDEST PUSH32 0x5A65726F206E6F7420616C6C6F77656400000000000000000000000000000000 PUSH0 DUP3 ADD MSTORE POP JUMP JUMPDEST PUSH0 PUSH2 0x1594 PUSH1 0x10 DUP4 PUSH2 0x14E8 JUMP JUMPDEST SWAP2 POP PUSH2 0x159F DUP3 PUSH2 0x1560 JUMP JUMPDEST PUSH1 0x20 DUP3 ADD SWAP1 POP SWAP2 SWAP1 POP JUMP JUMPDEST PUSH0 PUSH1 0x20 DUP3 ADD SWAP1 POP DUP2 DUP2 SUB PUSH0 DUP4 ADD MSTORE PUSH2 0x15C1 DUP2 PUSH2 0x1588 JUMP JUMPDEST SWAP1 POP SWAP2 SWAP1 POP JUMP JUMPDEST PUSH32 0x43616E6E6F742073776170207A65726F20616D6F756E74000000000000000000 PUSH0 DUP3 ADD MSTORE POP JUMP JUMPDEST PUSH0 PUSH2 0x15FC PUSH1 0x17 DUP4 PUSH2 0x14E8 JUMP JUMPDEST SWAP2 POP PUSH2 0x1607 DUP3 PUSH2 0x15C8 JUMP JUMPDEST PUSH1 0x20 DUP3 ADD SWAP1 POP SWAP2 SWAP1 POP JUMP JUMPDEST PUSH0 PUSH1 0x20 DUP3 ADD SWAP1 POP DUP2 DUP2 SUB PUSH0 DUP4 ADD MSTORE PUSH2 0x1629 DUP2 PUSH2 0x15F0 JUMP JUMPDEST SWAP1 POP SWAP2 SWAP1 POP JUMP JUMPDEST PUSH32 0x4E487B7100000000000000000000000000000000000000000000000000000000 PUSH0 MSTORE PUSH1 0x11 PUSH1 0x4 MSTORE PUSH1 0x24 PUSH0 REVERT JUMPDEST PUSH0 PUSH2 0x1667 DUP3 PUSH2 0x136C JUMP JUMPDEST SWAP2 POP PUSH2 0x1672 DUP4 PUSH2 0x136C JUMP JUMPDEST SWAP3 POP DUP3 DUP3 MUL PUSH2 0x1680 DUP2 PUSH2 0x136C JUMP JUMPDEST SWAP2 POP DUP3 DUP3 DIV DUP5 EQ DUP4 ISZERO OR PUSH2 0x1697 JUMPI PUSH2 0x1696 PUSH2 0x1630 JUMP JUMPDEST JUMPDEST POP SWAP3 SWAP2 POP POP JUMP JUMPDEST PUSH2 0x16A7 DUP2 PUSH2 0x1331 JUMP JUMPDEST DUP3 MSTORE POP POP JUMP JUMPDEST PUSH0 PUSH1 0x20 DUP3 ADD SWAP1 POP PUSH2 0x16C0 PUSH0 DUP4 ADD DUP5 PUSH2 0x169E JUMP JUMPDEST SWAP3 SWAP2 POP POP JUMP JUMPDEST PUSH0 DUP2 MLOAD SWAP1 POP PUSH2 0x16D4 DUP2 PUSH2 0x1375 JUMP JUMPDEST SWAP3 SWAP2 POP POP JUMP JUMPDEST PUSH0 PUSH1 0x20 DUP3 DUP5 SUB SLT ISZERO PUSH2 0x16EF JUMPI PUSH2 0x16EE PUSH2 0x130E JUMP JUMPDEST JUMPDEST PUSH0 PUSH2 0x16FC DUP5 DUP3 DUP6 ADD PUSH2 0x16C6 JUMP JUMPDEST SWAP2 POP POP SWAP3 SWAP2 POP POP JUMP JUMPDEST PUSH32 0x596F75722062616C616E6365206973206E6F7420656E6F756768000000000000 PUSH0 DUP3 ADD MSTORE POP JUMP JUMPDEST PUSH0 PUSH2 0x1739 PUSH1 0x1A DUP4 PUSH2 0x14E8 JUMP JUMPDEST SWAP2 POP PUSH2 0x1744 DUP3 PUSH2 0x1705 JUMP JUMPDEST PUSH1 0x20 DUP3 ADD SWAP1 POP SWAP2 SWAP1 POP JUMP JUMPDEST PUSH0 PUSH1 0x20 DUP3 ADD SWAP1 POP DUP2 DUP2 SUB PUSH0 DUP4 ADD MSTORE PUSH2 0x1766 DUP2 PUSH2 0x172D JUMP JUMPDEST SWAP1 POP SWAP2 SWAP1 POP JUMP JUMPDEST PUSH0 PUSH1 0x40 DUP3 ADD SWAP1 POP PUSH2 0x1780 PUSH0 DUP4 ADD DUP6 PUSH2 0x169E JUMP JUMPDEST PUSH2 0x178D PUSH1 0x20 DUP4 ADD DUP5 PUSH2 0x169E JUMP JUMPDEST SWAP4 SWAP3 POP POP POP JUMP JUMPDEST PUSH32 0x546F6B656E20616C6C6F77616E636520746F6F206C6F77000000000000000000 PUSH0 DUP3 ADD MSTORE POP JUMP JUMPDEST PUSH0 PUSH2 0x17C8 PUSH1 0x17 DUP4 PUSH2 0x14E8 JUMP JUMPDEST SWAP2 POP PUSH2 0x17D3 DUP3 PUSH2 0x1794 JUMP JUMPDEST PUSH1 0x20 DUP3 ADD SWAP1 POP SWAP2 SWAP1 POP JUMP JUMPDEST PUSH0 PUSH1 0x20 DUP3 ADD SWAP1 POP DUP2 DUP2 SUB PUSH0 DUP4 ADD MSTORE PUSH2 0x17F5 DUP2 PUSH2 0x17BC JUMP JUMPDEST SWAP1 POP SWAP2 SWAP1 POP JUMP JUMPDEST PUSH0 PUSH1 0x60 DUP3 ADD SWAP1 POP PUSH2 0x180F PUSH0 DUP4 ADD DUP7 PUSH2 0x169E JUMP JUMPDEST PUSH2 0x181C PUSH1 0x20 DUP4 ADD DUP6 PUSH2 0x169E JUMP JUMPDEST PUSH2 0x1829 PUSH1 0x40 DUP4 ADD DUP5 PUSH2 0x143E JUMP JUMPDEST SWAP5 SWAP4 POP POP POP POP JUMP JUMPDEST PUSH0 DUP2 ISZERO ISZERO SWAP1 POP SWAP2 SWAP1 POP JUMP JUMPDEST PUSH2 0x1845 DUP2 PUSH2 0x1831 JUMP JUMPDEST DUP2 EQ PUSH2 0x184F JUMPI PUSH0 PUSH0 REVERT JUMPDEST POP JUMP JUMPDEST PUSH0 DUP2 MLOAD SWAP1 POP PUSH2 0x1860 DUP2 PUSH2 0x183C JUMP JUMPDEST SWAP3 SWAP2 POP POP JUMP JUMPDEST PUSH0 PUSH1 0x20 DUP3 DUP5 SUB SLT ISZERO PUSH2 0x187B JUMPI PUSH2 0x187A PUSH2 0x130E JUMP JUMPDEST JUMPDEST PUSH0 PUSH2 0x1888 DUP5 DUP3 DUP6 ADD PUSH2 0x1852 JUMP JUMPDEST SWAP2 POP POP SWAP3 SWAP2 POP POP JUMP JUMPDEST PUSH32 0x457865637574696F6E206661696C656400000000000000000000000000000000 PUSH0 DUP3 ADD MSTORE POP JUMP JUMPDEST PUSH0 PUSH2 0x18C5 PUSH1 0x10 DUP4 PUSH2 0x14E8 JUMP JUMPDEST SWAP2 POP PUSH2 0x18D0 DUP3 PUSH2 0x1891 JUMP JUMPDEST PUSH1 0x20 DUP3 ADD SWAP1 POP SWAP2 SWAP1 POP JUMP JUMPDEST PUSH0 PUSH1 0x20 DUP3 ADD SWAP1 POP DUP2 DUP2 SUB PUSH0 DUP4 ADD MSTORE PUSH2 0x18F2 DUP2 PUSH2 0x18B9 JUMP JUMPDEST SWAP1 POP SWAP2 SWAP1 POP JUMP JUMPDEST PUSH32 0x4E487B7100000000000000000000000000000000000000000000000000000000 PUSH0 MSTORE PUSH1 0x21 PUSH1 0x4 MSTORE PUSH1 0x24 PUSH0 REVERT JUMPDEST PUSH0 PUSH2 0x1930 DUP3 PUSH2 0x136C JUMP JUMPDEST SWAP2 POP PUSH2 0x193B DUP4 PUSH2 0x136C JUMP JUMPDEST SWAP3 POP DUP3 DUP3 ADD SWAP1 POP DUP1 DUP3 GT ISZERO PUSH2 0x1953 JUMPI PUSH2 0x1952 PUSH2 0x1630 JUMP JUMPDEST JUMPDEST SWAP3 SWAP2 POP POP JUMP JUMPDEST PUSH0 PUSH1 0x40 DUP3 ADD SWAP1 POP PUSH2 0x196C PUSH0 DUP4 ADD DUP6 PUSH2 0x169E JUMP JUMPDEST PUSH2 0x1979 PUSH1 0x20 DUP4 ADD DUP5 PUSH2 0x143E JUMP JUMPDEST SWAP4 SWAP3 POP POP POP JUMP JUMPDEST PUSH0 PUSH1 0x20 DUP3 ADD SWAP1 POP PUSH2 0x1993 PUSH0 DUP4 ADD DUP5 PUSH2 0x143E JUMP JUMPDEST SWAP3 SWAP2 POP POP JUMP JUMPDEST PUSH32 0x4F6E6C79206F776E65722063616E206163636573730000000000000000000000 PUSH0 DUP3 ADD MSTORE POP JUMP JUMPDEST PUSH0 PUSH2 0x19CD PUSH1 0x15 DUP4 PUSH2 0x14E8 JUMP JUMPDEST SWAP2 POP PUSH2 0x19D8 DUP3 PUSH2 0x1999 JUMP JUMPDEST PUSH1 0x20 DUP3 ADD SWAP1 POP SWAP2 SWAP1 POP JUMP JUMPDEST PUSH0 PUSH1 0x20 DUP3 ADD SWAP1 POP DUP2 DUP2 SUB PUSH0 DUP4 ADD MSTORE PUSH2 0x19FA DUP2 PUSH2 0x19C1 JUMP JUMPDEST SWAP1 POP SWAP2 SWAP1 POP JUMP JUMPDEST PUSH32 0x62616C616E6365206973206C6573730000000000000000000000000000000000 PUSH0 DUP3 ADD MSTORE POP JUMP JUMPDEST PUSH0 PUSH2 0x1A35 PUSH1 0xF DUP4 PUSH2 0x14E8 JUMP JUMPDEST SWAP2 POP PUSH2 0x1A40 DUP3 PUSH2 0x1A01 JUMP JUMPDEST PUSH1 0x20 DUP3 ADD SWAP1 POP SWAP2 SWAP1 POP JUMP JUMPDEST PUSH0 PUSH1 0x20 DUP3 ADD SWAP1 POP DUP2 DUP2 SUB PUSH0 DUP4 ADD MSTORE PUSH2 0x1A62 DUP2 PUSH2 0x1A29 JUMP JUMPDEST SWAP1 POP SWAP2 SWAP1 POP JUMP JUMPDEST PUSH32 0x496E73756666696369656E7420636F6E74726163742062616C616E6365000000 PUSH0 DUP3 ADD MSTORE POP JUMP JUMPDEST PUSH0 PUSH2 0x1A9D PUSH1 0x1D DUP4 PUSH2 0x14E8 JUMP JUMPDEST SWAP2 POP PUSH2 0x1AA8 DUP3 PUSH2 0x1A69 JUMP JUMPDEST PUSH1 0x20 DUP3 ADD SWAP1 POP SWAP2 SWAP1 POP JUMP JUMPDEST PUSH0 PUSH1 0x20 DUP3 ADD SWAP1 POP DUP2 DUP2 SUB PUSH0 DUP4 ADD MSTORE PUSH2 0x1ACA DUP2 PUSH2 0x1A91 JUMP JUMPDEST SWAP1 POP SWAP2 SWAP1 POP JUMP JUMPDEST PUSH32 0x546F6B656E206E6F7420646566696E6564000000000000000000000000000000 PUSH0 DUP3 ADD MSTORE POP JUMP JUMPDEST PUSH0 PUSH2 0x1B05 PUSH1 0x11 DUP4 PUSH2 0x14E8 JUMP JUMPDEST SWAP2 POP PUSH2 0x1B10 DUP3 PUSH2 0x1AD1 JUMP JUMPDEST PUSH1 0x20 DUP3 ADD SWAP1 POP SWAP2 SWAP1 POP JUMP JUMPDEST PUSH0 PUSH1 0x20 DUP3 ADD SWAP1 POP DUP2 DUP2 SUB PUSH0 DUP4 ADD MSTORE PUSH2 0x1B32 DUP2 PUSH2 0x1AF9 JUMP JUMPDEST SWAP1 POP SWAP2 SWAP1 POP JUMP JUMPDEST PUSH32 0x4578637574696F6E206661696C65640000000000000000000000000000000000 PUSH0 DUP3 ADD MSTORE POP JUMP JUMPDEST PUSH0 PUSH2 0x1B6D PUSH1 0xF DUP4 PUSH2 0x14E8 JUMP JUMPDEST SWAP2 POP PUSH2 0x1B78 DUP3 PUSH2 0x1B39 JUMP JUMPDEST PUSH1 0x20 DUP3 ADD SWAP1 POP SWAP2 SWAP1 POP JUMP JUMPDEST PUSH0 PUSH1 0x20 DUP3 ADD SWAP1 POP DUP2 DUP2 SUB PUSH0 DUP4 ADD MSTORE PUSH2 0x1B9A DUP2 PUSH2 0x1B61 JUMP JUMPDEST SWAP1 POP SWAP2 SWAP1 POP JUMP JUMPDEST PUSH32 0x4E487B7100000000000000000000000000000000000000000000000000000000 PUSH0 MSTORE PUSH1 0x12 PUSH1 0x4 MSTORE PUSH1 0x24 PUSH0 REVERT JUMPDEST PUSH0 PUSH2 0x1BD8 DUP3 PUSH2 0x136C JUMP JUMPDEST SWAP2 POP PUSH2 0x1BE3 DUP4 PUSH2 0x136C JUMP JUMPDEST SWAP3 POP DUP3 PUSH2 0x1BF3 JUMPI PUSH2 0x1BF2 PUSH2 0x1BA1 JUMP JUMPDEST JUMPDEST DUP3 DUP3 DIV SWAP1 POP SWAP3 SWAP2 POP POP JUMP JUMPDEST PUSH32 0x556E737570706F727465642063757272656E6379000000000000000000000000 PUSH0 DUP3 ADD MSTORE POP JUMP JUMPDEST PUSH0 PUSH2 0x1C32 PUSH1 0x14 DUP4 PUSH2 0x14E8 JUMP JUMPDEST SWAP2 POP PUSH2 0x1C3D DUP3 PUSH2 0x1BFE JUMP JUMPDEST PUSH1 0x20 DUP3 ADD SWAP1 POP SWAP2 SWAP1 POP JUMP JUMPDEST PUSH0 PUSH1 0x20 DUP3 ADD SWAP1 POP DUP2 DUP2 SUB PUSH0 DUP4 ADD MSTORE PUSH2 0x1C5F DUP2 PUSH2 0x1C26 JUMP JUMPDEST SWAP1 POP SWAP2 SWAP1 POP JUMP INVALID LOG2 PUSH5 0x6970667358 0x22 SLT KECCAK256 CALL SDIV 0xE7 AND 0xE9 PUSH3 0x6A1C32 SWAP13 DUP3 0xE SELFDESTRUCT AND 0x21 CODECOPY SWAP7 PUSH16 0xABE57C52776B80759623407EF7906473 PUSH16 0x6C634300081C00330000000000000000 "
				},
				"gasEstimates": {
					"creation": {
						"codeDepositCost": "1464800",
						"executionCost": "infinite",
						"totalCost": "infinite"
					},
					"external": {
						"getContractBalance()": "infinite",
						"nairaToken()": "infinite",
						"swapNairaToUsdt(address,uint256)": "infinite",
						"swapUsdtToNaira(address,uint256)": "infinite",
						"usdtToken()": "infinite",
						"withdraw(uint8,uint256)": "infinite"
					},
					"internal": {
						"Naira_Usdt_Rate(uint256,enum SwapToken.Currency)": "infinite"
					}
				},
				"methodIdentifiers": {
					"getContractBalance()": "6f9fb98a",
					"nairaToken()": "fe2371cb",
					"swapNairaToUsdt(address,uint256)": "5e8f4826",
					"swapUsdtToNaira(address,uint256)": "3e2b4bf8",
					"usdtToken()": "a98ad46c",
					"withdraw(uint8,uint256)": "3f489914"
				}
			},
			"storageLayout": {
				"storage": [
					{
						"astId": 75,
						"contract": "contracts/SwapTokens.sol:SwapToken",
						"label": "nairaToken",
						"offset": 0,
						"slot": "0",
						"type": "t_contract(IERC20)68"
					},
					{
						"astId": 78,
						"contract": "contracts/SwapTokens.sol:SwapToken",
						"label": "usdtToken",
						"offset": 0,
						"slot": "1",
						"type": "t_contract(IERC20)68"
					},
					{
						"astId": 80,
						"contract": "contracts/SwapTokens.sol:SwapToken",
						"label": "owner",
						"offset": 0,
						"slot": "2",
						"type": "t_address"
					},
					{
						"astId": 82,
						"contract": "contracts/SwapTokens.sol:SwapToken",
						"label": "locked",
						"offset": 20,
						"slot": "2",
						"type": "t_bool"
					},
					{
						"astId": 94,
						"contract": "contracts/SwapTokens.sol:SwapToken",
						"label": "contractBalances",
						"offset": 0,
						"slot": "3",
						"type": "t_mapping(t_enum(Currency)89,t_uint256)"
					}
				],
				"types": {
					"t_address": {
						"encoding": "inplace",
						"label": "address",
						"numberOfBytes": "20"
					},
					"t_bool": {
						"encoding": "inplace",
						"label": "bool",
						"numberOfBytes": "1"
					},
					"t_contract(IERC20)68": {
						"encoding": "inplace",
						"label": "contract IERC20",
						"numberOfBytes": "20"
					},
					"t_enum(Currency)89": {
						"encoding": "inplace",
						"label": "enum SwapToken.Currency",
						"numberOfBytes": "1"
					},
					"t_mapping(t_enum(Currency)89,t_uint256)": {
						"encoding": "mapping",
						"key": "t_enum(Currency)89",
						"label": "mapping(enum SwapToken.Currency => uint256)",
						"numberOfBytes": "32",
						"value": "t_uint256"
					},
					"t_uint256": {
						"encoding": "inplace",
						"label": "uint256",
						"numberOfBytes": "32"
					}
				}
			},
			"userdoc": {
				"kind": "user",
				"methods": {},
				"version": 1
			}
		}
	}
}