{
	"contracts/SaveCelo.sol": {
		"SaveCelo": {
			"abi": [
				{
					"inputs": [
						{
							"internalType": "address",
							"name": "_tokenAddress",
							"type": "address"
						}
					],
					"stateMutability": "nonpayable",
					"type": "constructor"
				},
				{
					"anonymous": false,
					"inputs": [
						{
							"indexed": true,
							"internalType": "address",
							"name": "user",
							"type": "address"
						},
						{
							"indexed": false,
							"internalType": "uint256",
							"name": "amount",
							"type": "uint256"
						},
						{
							"indexed": false,
							"internalType": "uint256",
							"name": "time",
							"type": "uint256"
						}
					],
					"name": "DepositSuccessful",
					"type": "event"
				},
				{
					"anonymous": false,
					"inputs": [
						{
							"indexed": true,
							"internalType": "address",
							"name": "user",
							"type": "address"
						},
						{
							"indexed": false,
							"internalType": "uint256",
							"name": "amount",
							"type": "uint256"
						},
						{
							"indexed": false,
							"internalType": "uint256",
							"name": "time",
							"type": "uint256"
						}
					],
					"name": "WithdrawalSuccessful",
					"type": "event"
				},
				{
					"inputs": [],
					"name": "claimOwnership",
					"outputs": [],
					"stateMutability": "nonpayable",
					"type": "function"
				},
				{
					"inputs": [
						{
							"internalType": "uint256",
							"name": "_amount",
							"type": "uint256"
						},
						{
							"internalType": "uint256",
							"name": "_duration",
							"type": "uint256"
						}
					],
					"name": "depositCelo",
					"outputs": [],
					"stateMutability": "nonpayable",
					"type": "function"
				},
				{
					"inputs": [],
					"name": "getContractBalance",
					"outputs": [
						{
							"internalType": "uint256",
							"name": "",
							"type": "uint256"
						}
					],
					"stateMutability": "view",
					"type": "function"
				},
				{
					"inputs": [
						{
							"internalType": "address",
							"name": "_newOwner",
							"type": "address"
						}
					],
					"name": "transferOwnership",
					"outputs": [],
					"stateMutability": "nonpayable",
					"type": "function"
				},
				{
					"inputs": [
						{
							"internalType": "uint8",
							"name": "_index",
							"type": "uint8"
						}
					],
					"name": "withdrawFunds",
					"outputs": [],
					"stateMutability": "nonpayable",
					"type": "function"
				}
			],
			"devdoc": {
				"kind": "dev",
				"methods": {},
				"version": 1
			},
			"evm": {
				"assembly": "    /* \"contracts/SaveCelo.sol\":100:3181  contract SaveCelo{... */\n  mstore(0x40, 0x80)\n    /* \"contracts/SaveCelo.sol\":400:507  constructor(address _tokenAddress){... */\n  callvalue\n  dup1\n  iszero\n  tag_1\n  jumpi\n  revert(0x00, 0x00)\ntag_1:\n  pop\n  mload(0x40)\n  sub(codesize, bytecodeSize)\n  dup1\n  bytecodeSize\n  dup4\n  codecopy\n  dup2\n  dup2\n  add\n  0x40\n  mstore\n  dup2\n  add\n  swap1\n  tag_2\n  swap2\n  swap1\n  tag_3\n  jump\t// in\ntag_2:\n    /* \"contracts/SaveCelo.sol\":457:470  _tokenAddress */\n  dup1\n    /* \"contracts/SaveCelo.sol\":445:454  celotoken */\n  0x00\n  0x00\n    /* \"contracts/SaveCelo.sol\":445:470  celotoken = _tokenAddress */\n  0x0100\n  exp\n  dup2\n  sload\n  dup2\n  0xffffffffffffffffffffffffffffffffffffffff\n  mul\n  not\n  and\n  swap1\n  dup4\n  0xffffffffffffffffffffffffffffffffffffffff\n  and\n  mul\n  or\n  swap1\n  sstore\n  pop\n    /* \"contracts/SaveCelo.sol\":489:499  msg.sender */\n  caller\n    /* \"contracts/SaveCelo.sol\":481:486  owner */\n  0x01\n  0x00\n    /* \"contracts/SaveCelo.sol\":481:499  owner = msg.sender */\n  0x0100\n  exp\n  dup2\n  sload\n  dup2\n  0xffffffffffffffffffffffffffffffffffffffff\n  mul\n  not\n  and\n  swap1\n  dup4\n  0xffffffffffffffffffffffffffffffffffffffff\n  and\n  mul\n  or\n  swap1\n  sstore\n  pop\n    /* \"contracts/SaveCelo.sol\":400:507  constructor(address _tokenAddress){... */\n  pop\n    /* \"contracts/SaveCelo.sol\":100:3181  contract SaveCelo{... */\n  jump(tag_6)\n    /* \"#utility.yul\":88:205   */\ntag_8:\n    /* \"#utility.yul\":197:198   */\n  0x00\n    /* \"#utility.yul\":194:195   */\n  0x00\n    /* \"#utility.yul\":187:199   */\n  revert\n    /* \"#utility.yul\":334:460   */\ntag_10:\n    /* \"#utility.yul\":371:378   */\n  0x00\n    /* \"#utility.yul\":411:453   */\n  0xffffffffffffffffffffffffffffffffffffffff\n    /* \"#utility.yul\":404:409   */\n  dup3\n    /* \"#utility.yul\":400:454   */\n  and\n    /* \"#utility.yul\":389:454   */\n  swap1\n  pop\n    /* \"#utility.yul\":334:460   */\n  swap2\n  swap1\n  pop\n  jump\t// out\n    /* \"#utility.yul\":466:562   */\ntag_11:\n    /* \"#utility.yul\":503:510   */\n  0x00\n    /* \"#utility.yul\":532:556   */\n  tag_20\n    /* \"#utility.yul\":550:555   */\n  dup3\n    /* \"#utility.yul\":532:556   */\n  tag_10\n  jump\t// in\ntag_20:\n    /* \"#utility.yul\":521:556   */\n  swap1\n  pop\n    /* \"#utility.yul\":466:562   */\n  swap2\n  swap1\n  pop\n  jump\t// out\n    /* \"#utility.yul\":568:690   */\ntag_12:\n    /* \"#utility.yul\":641:665   */\n  tag_22\n    /* \"#utility.yul\":659:664   */\n  dup2\n    /* \"#utility.yul\":641:665   */\n  tag_11\n  jump\t// in\ntag_22:\n    /* \"#utility.yul\":634:639   */\n  dup2\n    /* \"#utility.yul\":631:666   */\n  eq\n    /* \"#utility.yul\":621:684   */\n  tag_23\n  jumpi\n    /* \"#utility.yul\":680:681   */\n  0x00\n    /* \"#utility.yul\":677:678   */\n  0x00\n    /* \"#utility.yul\":670:682   */\n  revert\n    /* \"#utility.yul\":621:684   */\ntag_23:\n    /* \"#utility.yul\":568:690   */\n  pop\n  jump\t// out\n    /* \"#utility.yul\":696:839   */\ntag_13:\n    /* \"#utility.yul\":753:758   */\n  0x00\n    /* \"#utility.yul\":784:790   */\n  dup2\n    /* \"#utility.yul\":778:791   */\n  mload\n    /* \"#utility.yul\":769:791   */\n  swap1\n  pop\n    /* \"#utility.yul\":800:833   */\n  tag_25\n    /* \"#utility.yul\":827:832   */\n  dup2\n    /* \"#utility.yul\":800:833   */\n  tag_12\n  jump\t// in\ntag_25:\n    /* \"#utility.yul\":696:839   */\n  swap3\n  swap2\n  pop\n  pop\n  jump\t// out\n    /* \"#utility.yul\":845:1196   */\ntag_3:\n    /* \"#utility.yul\":915:921   */\n  0x00\n    /* \"#utility.yul\":964:966   */\n  0x20\n    /* \"#utility.yul\":952:961   */\n  dup3\n    /* \"#utility.yul\":943:950   */\n  dup5\n    /* \"#utility.yul\":939:962   */\n  sub\n    /* \"#utility.yul\":935:967   */\n  slt\n    /* \"#utility.yul\":932:1051   */\n  iszero\n  tag_27\n  jumpi\n    /* \"#utility.yul\":970:1049   */\n  tag_28\n  tag_8\n  jump\t// in\ntag_28:\n    /* \"#utility.yul\":932:1051   */\ntag_27:\n    /* \"#utility.yul\":1090:1091   */\n  0x00\n    /* \"#utility.yul\":1115:1179   */\n  tag_29\n    /* \"#utility.yul\":1171:1178   */\n  dup5\n    /* \"#utility.yul\":1162:1168   */\n  dup3\n    /* \"#utility.yul\":1151:1160   */\n  dup6\n    /* \"#utility.yul\":1147:1169   */\n  add\n    /* \"#utility.yul\":1115:1179   */\n  tag_13\n  jump\t// in\ntag_29:\n    /* \"#utility.yul\":1105:1179   */\n  swap2\n  pop\n    /* \"#utility.yul\":1061:1189   */\n  pop\n    /* \"#utility.yul\":845:1196   */\n  swap3\n  swap2\n  pop\n  pop\n  jump\t// out\n    /* \"contracts/SaveCelo.sol\":100:3181  contract SaveCelo{... */\ntag_6:\n  dataSize(sub_0)\n  dup1\n  dataOffset(sub_0)\n  0x00\n  codecopy\n  0x00\n  return\nstop\n\nsub_0: assembly {\n        /* \"contracts/SaveCelo.sol\":100:3181  contract SaveCelo{... */\n      mstore(0x40, 0x80)\n      callvalue\n      dup1\n      iszero\n      tag_1\n      jumpi\n      revert(0x00, 0x00)\n    tag_1:\n      pop\n      jumpi(tag_2, lt(calldatasize, 0x04))\n      shr(0xe0, calldataload(0x00))\n      dup1\n      0x4e71e0c8\n      eq\n      tag_3\n      jumpi\n      dup1\n      0x6e4668c7\n      eq\n      tag_4\n      jumpi\n      dup1\n      0x6f9fb98a\n      eq\n      tag_5\n      jumpi\n      dup1\n      0x968cceaf\n      eq\n      tag_6\n      jumpi\n      dup1\n      0xf2fde38b\n      eq\n      tag_7\n      jumpi\n    tag_2:\n      revert(0x00, 0x00)\n        /* \"contracts/SaveCelo.sol\":2934:3176  function claimOwnership() external {... */\n    tag_3:\n      tag_8\n      tag_9\n      jump\t// in\n    tag_8:\n      stop\n        /* \"contracts/SaveCelo.sol\":984:1891  function depositCelo(uint256 _amount, uint256 _duration) external reentrancyGuard {... */\n    tag_4:\n      tag_10\n      0x04\n      dup1\n      calldatasize\n      sub\n      dup2\n      add\n      swap1\n      tag_11\n      swap2\n      swap1\n      tag_12\n      jump\t// in\n    tag_11:\n      tag_13\n      jump\t// in\n    tag_10:\n      stop\n        /* \"contracts/SaveCelo.sol\":2549:2661  function getContractBalance() external view onlyOwner returns (uint256){... */\n    tag_5:\n      tag_14\n      tag_15\n      jump\t// in\n    tag_14:\n      mload(0x40)\n      tag_16\n      swap2\n      swap1\n      tag_17\n      jump\t// in\n    tag_16:\n      mload(0x40)\n      dup1\n      swap2\n      sub\n      swap1\n      return\n        /* \"contracts/SaveCelo.sol\":1899:2541  function withdrawFunds(uint8 _index) external reentrancyGuard {... */\n    tag_6:\n      tag_18\n      0x04\n      dup1\n      calldatasize\n      sub\n      dup2\n      add\n      swap1\n      tag_19\n      swap2\n      swap1\n      tag_20\n      jump\t// in\n    tag_19:\n      tag_21\n      jump\t// in\n    tag_18:\n      stop\n        /* \"contracts/SaveCelo.sol\":2669:2926  function transferOwnership(address _newOwner) external onlyOwner {... */\n    tag_7:\n      tag_22\n      0x04\n      dup1\n      calldatasize\n      sub\n      dup2\n      add\n      swap1\n      tag_23\n      swap2\n      swap1\n      tag_24\n      jump\t// in\n    tag_23:\n      tag_25\n      jump\t// in\n    tag_22:\n      stop\n        /* \"contracts/SaveCelo.sol\":2934:3176  function claimOwnership() external {... */\n    tag_9:\n        /* \"contracts/SaveCelo.sol\":3010:3011  0 */\n      0x00\n        /* \"contracts/SaveCelo.sol\":2988:3012  msg.sender != address(0) */\n      0xffffffffffffffffffffffffffffffffffffffff\n      and\n        /* \"contracts/SaveCelo.sol\":2988:2998  msg.sender */\n      caller\n        /* \"contracts/SaveCelo.sol\":2988:3012  msg.sender != address(0) */\n      0xffffffffffffffffffffffffffffffffffffffff\n      and\n      sub\n        /* \"contracts/SaveCelo.sol\":2980:3032  require(msg.sender != address(0), \"It can't be you\") */\n      tag_27\n      jumpi\n      mload(0x40)\n      0x08c379a000000000000000000000000000000000000000000000000000000000\n      dup2\n      mstore\n      0x04\n      add\n      tag_28\n      swap1\n      tag_29\n      jump\t// in\n    tag_28:\n      mload(0x40)\n      dup1\n      swap2\n      sub\n      swap1\n      revert\n    tag_27:\n        /* \"contracts/SaveCelo.sol\":3075:3083  newOwner */\n      0x02\n      0x00\n      swap1\n      sload\n      swap1\n      0x0100\n      exp\n      swap1\n      div\n      0xffffffffffffffffffffffffffffffffffffffff\n      and\n        /* \"contracts/SaveCelo.sol\":3061:3083  msg.sender == newOwner */\n      0xffffffffffffffffffffffffffffffffffffffff\n      and\n        /* \"contracts/SaveCelo.sol\":3061:3071  msg.sender */\n      caller\n        /* \"contracts/SaveCelo.sol\":3061:3083  msg.sender == newOwner */\n      0xffffffffffffffffffffffffffffffffffffffff\n      and\n      eq\n        /* \"contracts/SaveCelo.sol\":3053:3105  require(msg.sender == newOwner, \"Not your turn yet\") */\n      tag_30\n      jumpi\n      mload(0x40)\n      0x08c379a000000000000000000000000000000000000000000000000000000000\n      dup2\n      mstore\n      0x04\n      add\n      tag_31\n      swap1\n      tag_32\n      jump\t// in\n    tag_31:\n      mload(0x40)\n      dup1\n      swap2\n      sub\n      swap1\n      revert\n    tag_30:\n        /* \"contracts/SaveCelo.sol\":3126:3134  newOwner */\n      0x02\n      0x00\n      swap1\n      sload\n      swap1\n      0x0100\n      exp\n      swap1\n      div\n      0xffffffffffffffffffffffffffffffffffffffff\n      and\n        /* \"contracts/SaveCelo.sol\":3118:3123  owner */\n      0x01\n      0x00\n        /* \"contracts/SaveCelo.sol\":3118:3134  owner = newOwner */\n      0x0100\n      exp\n      dup2\n      sload\n      dup2\n      0xffffffffffffffffffffffffffffffffffffffff\n      mul\n      not\n      and\n      swap1\n      dup4\n      0xffffffffffffffffffffffffffffffffffffffff\n      and\n      mul\n      or\n      swap1\n      sstore\n      pop\n        /* \"contracts/SaveCelo.sol\":3166:3167  0 */\n      0x00\n        /* \"contracts/SaveCelo.sol\":3147:3155  newOwner */\n      0x02\n      0x00\n        /* \"contracts/SaveCelo.sol\":3147:3168  newOwner = address(0) */\n      0x0100\n      exp\n      dup2\n      sload\n      dup2\n      0xffffffffffffffffffffffffffffffffffffffff\n      mul\n      not\n      and\n      swap1\n      dup4\n      0xffffffffffffffffffffffffffffffffffffffff\n      and\n      mul\n      or\n      swap1\n      sstore\n      pop\n        /* \"contracts/SaveCelo.sol\":2934:3176  function claimOwnership() external {... */\n      jump\t// out\n        /* \"contracts/SaveCelo.sol\":984:1891  function depositCelo(uint256 _amount, uint256 _duration) external reentrancyGuard {... */\n    tag_13:\n        /* \"contracts/SaveCelo.sol\":579:585  locked */\n      0x04\n      0x00\n      swap1\n      sload\n      swap1\n      0x0100\n      exp\n      swap1\n      div\n      0xff\n      and\n        /* \"contracts/SaveCelo.sol\":578:585  !locked */\n      iszero\n        /* \"contracts/SaveCelo.sol\":570:613  require(!locked, \"Not allowed to re-enter\") */\n      tag_34\n      jumpi\n      mload(0x40)\n      0x08c379a000000000000000000000000000000000000000000000000000000000\n      dup2\n      mstore\n      0x04\n      add\n      tag_35\n      swap1\n      tag_36\n      jump\t// in\n    tag_35:\n      mload(0x40)\n      dup1\n      swap2\n      sub\n      swap1\n      revert\n    tag_34:\n        /* \"contracts/SaveCelo.sol\":635:639  true */\n      0x01\n        /* \"contracts/SaveCelo.sol\":626:632  locked */\n      0x04\n      0x00\n        /* \"contracts/SaveCelo.sol\":626:639  locked = true */\n      0x0100\n      exp\n      dup2\n      sload\n      dup2\n      0xff\n      mul\n      not\n      and\n      swap1\n      dup4\n      iszero\n      iszero\n      mul\n      or\n      swap1\n      sstore\n      pop\n        /* \"contracts/SaveCelo.sol\":1107:1108  0 */\n      0x00\n        /* \"contracts/SaveCelo.sol\":1085:1109  msg.sender != address(0) */\n      0xffffffffffffffffffffffffffffffffffffffff\n      and\n        /* \"contracts/SaveCelo.sol\":1085:1095  msg.sender */\n      caller\n        /* \"contracts/SaveCelo.sol\":1085:1109  msg.sender != address(0) */\n      0xffffffffffffffffffffffffffffffffffffffff\n      and\n      sub\n        /* \"contracts/SaveCelo.sol\":1077:1138  require(msg.sender != address(0), \"Zero address not allowed\") */\n      tag_38\n      jumpi\n      mload(0x40)\n      0x08c379a000000000000000000000000000000000000000000000000000000000\n      dup2\n      mstore\n      0x04\n      add\n      tag_39\n      swap1\n      tag_40\n      jump\t// in\n    tag_39:\n      mload(0x40)\n      dup1\n      swap2\n      sub\n      swap1\n      revert\n    tag_38:\n        /* \"contracts/SaveCelo.sol\":1151:1166  uint256 userBal */\n      0x00\n        /* \"contracts/SaveCelo.sol\":1176:1185  celotoken */\n      0x00\n      0x00\n      swap1\n      sload\n      swap1\n      0x0100\n      exp\n      swap1\n      div\n      0xffffffffffffffffffffffffffffffffffffffff\n      and\n        /* \"contracts/SaveCelo.sol\":1169:1196  IERC20(celotoken).balanceOf */\n      0xffffffffffffffffffffffffffffffffffffffff\n      and\n      0x70a08231\n        /* \"contracts/SaveCelo.sol\":1197:1207  msg.sender */\n      caller\n        /* \"contracts/SaveCelo.sol\":1169:1208  IERC20(celotoken).balanceOf(msg.sender) */\n      mload(0x40)\n      dup3\n      0xffffffff\n      and\n      0xe0\n      shl\n      dup2\n      mstore\n      0x04\n      add\n      tag_41\n      swap2\n      swap1\n      tag_42\n      jump\t// in\n    tag_41:\n      0x20\n      mload(0x40)\n      dup1\n      dup4\n      sub\n      dup2\n      dup7\n      gas\n      staticcall\n      iszero\n      dup1\n      iszero\n      tag_44\n      jumpi\n      returndatacopy(0x00, 0x00, returndatasize)\n      revert(0x00, returndatasize)\n    tag_44:\n      pop\n      pop\n      pop\n      pop\n      mload(0x40)\n      returndatasize\n      not(0x1f)\n      0x1f\n      dup3\n      add\n      and\n      dup3\n      add\n      dup1\n      0x40\n      mstore\n      pop\n      dup2\n      add\n      swap1\n      tag_45\n      swap2\n      swap1\n      tag_46\n      jump\t// in\n    tag_45:\n        /* \"contracts/SaveCelo.sol\":1151:1208  uint256 userBal = IERC20(celotoken).balanceOf(msg.sender) */\n      swap1\n      pop\n        /* \"contracts/SaveCelo.sol\":1240:1247  _amount */\n      dup3\n        /* \"contracts/SaveCelo.sol\":1229:1236  userBal */\n      dup2\n        /* \"contracts/SaveCelo.sol\":1229:1247  userBal >= _amount */\n      lt\n      iszero\n        /* \"contracts/SaveCelo.sol\":1221:1278  require(userBal >= _amount, \"Your balance is not enough\") */\n      tag_47\n      jumpi\n      mload(0x40)\n      0x08c379a000000000000000000000000000000000000000000000000000000000\n      dup2\n      mstore\n      0x04\n      add\n      tag_48\n      swap1\n      tag_49\n      jump\t// in\n    tag_48:\n      mload(0x40)\n      dup1\n      swap2\n      sub\n      swap1\n      revert\n    tag_47:\n        /* \"contracts/SaveCelo.sol\":1291:1312  uint256 allowedAmount */\n      0x00\n        /* \"contracts/SaveCelo.sol\":1322:1331  celotoken */\n      0x00\n      0x00\n      swap1\n      sload\n      swap1\n      0x0100\n      exp\n      swap1\n      div\n      0xffffffffffffffffffffffffffffffffffffffff\n      and\n        /* \"contracts/SaveCelo.sol\":1315:1342  IERC20(celotoken).allowance */\n      0xffffffffffffffffffffffffffffffffffffffff\n      and\n      0xdd62ed3e\n        /* \"contracts/SaveCelo.sol\":1343:1353  msg.sender */\n      caller\n        /* \"contracts/SaveCelo.sol\":1363:1367  this */\n      address\n        /* \"contracts/SaveCelo.sol\":1315:1369  IERC20(celotoken).allowance(msg.sender, address(this)) */\n      mload(0x40)\n      dup4\n      0xffffffff\n      and\n      0xe0\n      shl\n      dup2\n      mstore\n      0x04\n      add\n      tag_50\n      swap3\n      swap2\n      swap1\n      tag_51\n      jump\t// in\n    tag_50:\n      0x20\n      mload(0x40)\n      dup1\n      dup4\n      sub\n      dup2\n      dup7\n      gas\n      staticcall\n      iszero\n      dup1\n      iszero\n      tag_53\n      jumpi\n      returndatacopy(0x00, 0x00, returndatasize)\n      revert(0x00, returndatasize)\n    tag_53:\n      pop\n      pop\n      pop\n      pop\n      mload(0x40)\n      returndatasize\n      not(0x1f)\n      0x1f\n      dup3\n      add\n      and\n      dup3\n      add\n      dup1\n      0x40\n      mstore\n      pop\n      dup2\n      add\n      swap1\n      tag_54\n      swap2\n      swap1\n      tag_46\n      jump\t// in\n    tag_54:\n        /* \"contracts/SaveCelo.sol\":1291:1369  uint256 allowedAmount = IERC20(celotoken).allowance(msg.sender, address(this)) */\n      swap1\n      pop\n        /* \"contracts/SaveCelo.sol\":1407:1414  _amount */\n      dup4\n        /* \"contracts/SaveCelo.sol\":1390:1403  allowedAmount */\n      dup2\n        /* \"contracts/SaveCelo.sol\":1390:1414  allowedAmount >= _amount */\n      lt\n      iszero\n        /* \"contracts/SaveCelo.sol\":1382:1447  require(allowedAmount >= _amount, \"Amount allowed is not enough\") */\n      tag_55\n      jumpi\n      mload(0x40)\n      0x08c379a000000000000000000000000000000000000000000000000000000000\n      dup2\n      mstore\n      0x04\n      add\n      tag_56\n      swap1\n      tag_57\n      jump\t// in\n    tag_56:\n      mload(0x40)\n      dup1\n      swap2\n      sub\n      swap1\n      revert\n    tag_55:\n        /* \"contracts/SaveCelo.sol\":1461:1470  bool sent */\n      0x00\n        /* \"contracts/SaveCelo.sol\":1480:1489  celotoken */\n      0x00\n      0x00\n      swap1\n      sload\n      swap1\n      0x0100\n      exp\n      swap1\n      div\n      0xffffffffffffffffffffffffffffffffffffffff\n      and\n        /* \"contracts/SaveCelo.sol\":1473:1503  IERC20(celotoken).transferFrom */\n      0xffffffffffffffffffffffffffffffffffffffff\n      and\n      0x23b872dd\n        /* \"contracts/SaveCelo.sol\":1504:1514  msg.sender */\n      caller\n        /* \"contracts/SaveCelo.sol\":1524:1528  this */\n      address\n        /* \"contracts/SaveCelo.sol\":1531:1538  _amount */\n      dup9\n        /* \"contracts/SaveCelo.sol\":1473:1539  IERC20(celotoken).transferFrom(msg.sender, address(this), _amount) */\n      mload(0x40)\n      dup5\n      0xffffffff\n      and\n      0xe0\n      shl\n      dup2\n      mstore\n      0x04\n      add\n      tag_58\n      swap4\n      swap3\n      swap2\n      swap1\n      tag_59\n      jump\t// in\n    tag_58:\n      0x20\n      mload(0x40)\n      dup1\n      dup4\n      sub\n      dup2\n      0x00\n      dup8\n      gas\n      call\n      iszero\n      dup1\n      iszero\n      tag_61\n      jumpi\n      returndatacopy(0x00, 0x00, returndatasize)\n      revert(0x00, returndatasize)\n    tag_61:\n      pop\n      pop\n      pop\n      pop\n      mload(0x40)\n      returndatasize\n      not(0x1f)\n      0x1f\n      dup3\n      add\n      and\n      dup3\n      add\n      dup1\n      0x40\n      mstore\n      pop\n      dup2\n      add\n      swap1\n      tag_62\n      swap2\n      swap1\n      tag_63\n      jump\t// in\n    tag_62:\n        /* \"contracts/SaveCelo.sol\":1461:1539  bool sent = IERC20(celotoken).transferFrom(msg.sender, address(this), _amount) */\n      swap1\n      pop\n        /* \"contracts/SaveCelo.sol\":1560:1564  sent */\n      dup1\n        /* \"contracts/SaveCelo.sol\":1552:1590  require(sent, \"Transfer not executed\") */\n      tag_64\n      jumpi\n      mload(0x40)\n      0x08c379a000000000000000000000000000000000000000000000000000000000\n      dup2\n      mstore\n      0x04\n      add\n      tag_65\n      swap1\n      tag_66\n      jump\t// in\n    tag_65:\n      mload(0x40)\n      dup1\n      swap2\n      sub\n      swap1\n      revert\n    tag_64:\n        /* \"contracts/SaveCelo.sol\":1622:1629  _amount */\n      dup5\n        /* \"contracts/SaveCelo.sol\":1603:1618  contractBalance */\n      0x03\n      0x00\n        /* \"contracts/SaveCelo.sol\":1603:1629  contractBalance += _amount */\n      dup3\n      dup3\n      sload\n      tag_67\n      swap2\n      swap1\n      tag_68\n      jump\t// in\n    tag_67:\n      swap3\n      pop\n      pop\n      dup2\n      swap1\n      sstore\n      pop\n        /* \"contracts/SaveCelo.sol\":1642:1669  UserAccount memory useracct */\n      tag_69\n      tag_70\n      jump\t// in\n    tag_69:\n        /* \"contracts/SaveCelo.sol\":1698:1705  _amount */\n      dup6\n        /* \"contracts/SaveCelo.sol\":1680:1688  useracct */\n      dup2\n        /* \"contracts/SaveCelo.sol\":1680:1695  useracct.amount */\n      0x00\n      add\n        /* \"contracts/SaveCelo.sol\":1680:1705  useracct.amount = _amount */\n      dup2\n      dup2\n      mstore\n      pop\n      pop\n        /* \"contracts/SaveCelo.sol\":1754:1763  _duration */\n      dup5\n        /* \"contracts/SaveCelo.sol\":1736:1751  block.timestamp */\n      timestamp\n        /* \"contracts/SaveCelo.sol\":1736:1763  block.timestamp + _duration */\n      tag_71\n      swap2\n      swap1\n      tag_68\n      jump\t// in\n    tag_71:\n        /* \"contracts/SaveCelo.sol\":1716:1724  useracct */\n      dup2\n        /* \"contracts/SaveCelo.sol\":1716:1733  useracct.duration */\n      0x20\n      add\n        /* \"contracts/SaveCelo.sol\":1716:1763  useracct.duration = block.timestamp + _duration */\n      dup2\n      dup2\n      mstore\n      pop\n      pop\n        /* \"contracts/SaveCelo.sol\":1776:1781  users */\n      0x05\n        /* \"contracts/SaveCelo.sol\":1776:1793  users[msg.sender] */\n      0x00\n        /* \"contracts/SaveCelo.sol\":1782:1792  msg.sender */\n      caller\n        /* \"contracts/SaveCelo.sol\":1776:1793  users[msg.sender] */\n      0xffffffffffffffffffffffffffffffffffffffff\n      and\n      0xffffffffffffffffffffffffffffffffffffffff\n      and\n      dup2\n      mstore\n      0x20\n      add\n      swap1\n      dup2\n      mstore\n      0x20\n      add\n      0x00\n      keccak256\n        /* \"contracts/SaveCelo.sol\":1799:1807  useracct */\n      dup2\n        /* \"contracts/SaveCelo.sol\":1776:1808  users[msg.sender].push(useracct) */\n      swap1\n      dup1\n      0x01\n      dup2\n      sload\n      add\n      dup1\n      dup3\n      sstore\n      dup1\n      swap2\n      pop\n      pop\n      0x01\n      swap1\n      sub\n      swap1\n      0x00\n      mstore\n      keccak256(0x00, 0x20)\n      swap1\n      0x02\n      mul\n      add\n      0x00\n      swap1\n      swap2\n      swap1\n      swap2\n      swap1\n      swap2\n      pop\n      0x00\n      dup3\n      add\n      mload\n      dup2\n      0x00\n      add\n      sstore\n      0x20\n      dup3\n      add\n      mload\n      dup2\n      0x01\n      add\n      sstore\n      pop\n      pop\n        /* \"contracts/SaveCelo.sol\":1844:1854  msg.sender */\n      caller\n        /* \"contracts/SaveCelo.sol\":1826:1881  DepositSuccessful(msg.sender, _amount, block.timestamp) */\n      0xffffffffffffffffffffffffffffffffffffffff\n      and\n      0x61bb8b82654398e0bdd4e0d489b5e9104b6840211fd89f7264264c96589051fd\n        /* \"contracts/SaveCelo.sol\":1856:1863  _amount */\n      dup8\n        /* \"contracts/SaveCelo.sol\":1865:1880  block.timestamp */\n      timestamp\n        /* \"contracts/SaveCelo.sol\":1826:1881  DepositSuccessful(msg.sender, _amount, block.timestamp) */\n      mload(0x40)\n      tag_73\n      swap3\n      swap2\n      swap1\n      tag_74\n      jump\t// in\n    tag_73:\n      mload(0x40)\n      dup1\n      swap2\n      sub\n      swap1\n      log2\n        /* \"contracts/SaveCelo.sol\":1066:1891  {... */\n      pop\n      pop\n      pop\n      pop\n        /* \"contracts/SaveCelo.sol\":671:676  false */\n      0x00\n        /* \"contracts/SaveCelo.sol\":662:668  locked */\n      0x04\n      0x00\n        /* \"contracts/SaveCelo.sol\":662:676  locked = false */\n      0x0100\n      exp\n      dup2\n      sload\n      dup2\n      0xff\n      mul\n      not\n      and\n      swap1\n      dup4\n      iszero\n      iszero\n      mul\n      or\n      swap1\n      sstore\n      pop\n        /* \"contracts/SaveCelo.sol\":984:1891  function depositCelo(uint256 _amount, uint256 _duration) external reentrancyGuard {... */\n      pop\n      pop\n      jump\t// out\n        /* \"contracts/SaveCelo.sol\":2549:2661  function getContractBalance() external view onlyOwner returns (uint256){... */\n    tag_15:\n        /* \"contracts/SaveCelo.sol\":2612:2619  uint256 */\n      0x00\n        /* \"contracts/SaveCelo.sol\":743:748  owner */\n      0x01\n      0x00\n      swap1\n      sload\n      swap1\n      0x0100\n      exp\n      swap1\n      div\n      0xffffffffffffffffffffffffffffffffffffffff\n      and\n        /* \"contracts/SaveCelo.sol\":729:748  msg.sender == owner */\n      0xffffffffffffffffffffffffffffffffffffffff\n      and\n        /* \"contracts/SaveCelo.sol\":729:739  msg.sender */\n      caller\n        /* \"contracts/SaveCelo.sol\":729:748  msg.sender == owner */\n      0xffffffffffffffffffffffffffffffffffffffff\n      and\n      eq\n        /* \"contracts/SaveCelo.sol\":721:774  require(msg.sender == owner, \"Only owner can access\") */\n      tag_76\n      jumpi\n      mload(0x40)\n      0x08c379a000000000000000000000000000000000000000000000000000000000\n      dup2\n      mstore\n      0x04\n      add\n      tag_77\n      swap1\n      tag_78\n      jump\t// in\n    tag_77:\n      mload(0x40)\n      dup1\n      swap2\n      sub\n      swap1\n      revert\n    tag_76:\n        /* \"contracts/SaveCelo.sol\":2638:2653  contractBalance */\n      sload(0x03)\n        /* \"contracts/SaveCelo.sol\":2631:2653  return contractBalance */\n      swap1\n      pop\n        /* \"contracts/SaveCelo.sol\":2549:2661  function getContractBalance() external view onlyOwner returns (uint256){... */\n      swap1\n      jump\t// out\n        /* \"contracts/SaveCelo.sol\":1899:2541  function withdrawFunds(uint8 _index) external reentrancyGuard {... */\n    tag_21:\n        /* \"contracts/SaveCelo.sol\":579:585  locked */\n      0x04\n      0x00\n      swap1\n      sload\n      swap1\n      0x0100\n      exp\n      swap1\n      div\n      0xff\n      and\n        /* \"contracts/SaveCelo.sol\":578:585  !locked */\n      iszero\n        /* \"contracts/SaveCelo.sol\":570:613  require(!locked, \"Not allowed to re-enter\") */\n      tag_81\n      jumpi\n      mload(0x40)\n      0x08c379a000000000000000000000000000000000000000000000000000000000\n      dup2\n      mstore\n      0x04\n      add\n      tag_82\n      swap1\n      tag_36\n      jump\t// in\n    tag_82:\n      mload(0x40)\n      dup1\n      swap2\n      sub\n      swap1\n      revert\n    tag_81:\n        /* \"contracts/SaveCelo.sol\":635:639  true */\n      0x01\n        /* \"contracts/SaveCelo.sol\":626:632  locked */\n      0x04\n      0x00\n        /* \"contracts/SaveCelo.sol\":626:639  locked = true */\n      0x0100\n      exp\n      dup2\n      sload\n      dup2\n      0xff\n      mul\n      not\n      and\n      swap1\n      dup4\n      iszero\n      iszero\n      mul\n      or\n      swap1\n      sstore\n      pop\n        /* \"contracts/SaveCelo.sol\":2002:2003  0 */\n      0x00\n        /* \"contracts/SaveCelo.sol\":1980:2004  msg.sender != address(0) */\n      0xffffffffffffffffffffffffffffffffffffffff\n      and\n        /* \"contracts/SaveCelo.sol\":1980:1990  msg.sender */\n      caller\n        /* \"contracts/SaveCelo.sol\":1980:2004  msg.sender != address(0) */\n      0xffffffffffffffffffffffffffffffffffffffff\n      and\n      sub\n        /* \"contracts/SaveCelo.sol\":1972:2033  require(msg.sender != address(0), \"Zero address not allowed\") */\n      tag_84\n      jumpi\n      mload(0x40)\n      0x08c379a000000000000000000000000000000000000000000000000000000000\n      dup2\n      mstore\n      0x04\n      add\n      tag_85\n      swap1\n      tag_40\n      jump\t// in\n    tag_85:\n      mload(0x40)\n      dup1\n      swap2\n      sub\n      swap1\n      revert\n    tag_84:\n        /* \"contracts/SaveCelo.sol\":2063:2068  users */\n      0x05\n        /* \"contracts/SaveCelo.sol\":2063:2080  users[msg.sender] */\n      0x00\n        /* \"contracts/SaveCelo.sol\":2069:2079  msg.sender */\n      caller\n        /* \"contracts/SaveCelo.sol\":2063:2080  users[msg.sender] */\n      0xffffffffffffffffffffffffffffffffffffffff\n      and\n      0xffffffffffffffffffffffffffffffffffffffff\n      and\n      dup2\n      mstore\n      0x20\n      add\n      swap1\n      dup2\n      mstore\n      0x20\n      add\n      0x00\n      keccak256\n        /* \"contracts/SaveCelo.sol\":2063:2087  users[msg.sender].length */\n      dup1\n      sload\n      swap1\n      pop\n        /* \"contracts/SaveCelo.sol\":2054:2060  _index */\n      dup2\n        /* \"contracts/SaveCelo.sol\":2054:2087  _index < users[msg.sender].length */\n      0xff\n      and\n      lt\n        /* \"contracts/SaveCelo.sol\":2046:2104  require(_index < users[msg.sender].length, \"Out of bound\") */\n      tag_86\n      jumpi\n      mload(0x40)\n      0x08c379a000000000000000000000000000000000000000000000000000000000\n      dup2\n      mstore\n      0x04\n      add\n      tag_87\n      swap1\n      tag_88\n      jump\t// in\n    tag_87:\n      mload(0x40)\n      dup1\n      swap2\n      sub\n      swap1\n      revert\n    tag_86:\n        /* \"contracts/SaveCelo.sol\":2117:2145  UserAccount storage useracct */\n      0x00\n        /* \"contracts/SaveCelo.sol\":2148:2153  users */\n      0x05\n        /* \"contracts/SaveCelo.sol\":2148:2165  users[msg.sender] */\n      0x00\n        /* \"contracts/SaveCelo.sol\":2154:2164  msg.sender */\n      caller\n        /* \"contracts/SaveCelo.sol\":2148:2165  users[msg.sender] */\n      0xffffffffffffffffffffffffffffffffffffffff\n      and\n      0xffffffffffffffffffffffffffffffffffffffff\n      and\n      dup2\n      mstore\n      0x20\n      add\n      swap1\n      dup2\n      mstore\n      0x20\n      add\n      0x00\n      keccak256\n        /* \"contracts/SaveCelo.sol\":2166:2172  _index */\n      dup3\n        /* \"contracts/SaveCelo.sol\":2148:2173  users[msg.sender][_index] */\n      0xff\n      and\n      dup2\n      sload\n      dup2\n      lt\n      tag_89\n      jumpi\n      tag_90\n      tag_91\n      jump\t// in\n    tag_90:\n    tag_89:\n      swap1\n      0x00\n      mstore\n      keccak256(0x00, 0x20)\n      swap1\n      0x02\n      mul\n      add\n        /* \"contracts/SaveCelo.sol\":2117:2173  UserAccount storage useracct = users[msg.sender][_index] */\n      swap1\n      pop\n        /* \"contracts/SaveCelo.sol\":2214:2229  block.timestamp */\n      timestamp\n        /* \"contracts/SaveCelo.sol\":2194:2202  useracct */\n      dup2\n        /* \"contracts/SaveCelo.sol\":2194:2211  useracct.duration */\n      0x01\n      add\n      sload\n        /* \"contracts/SaveCelo.sol\":2194:2229  useracct.duration < block.timestamp */\n      lt\n        /* \"contracts/SaveCelo.sol\":2186:2245  require(useracct.duration < block.timestamp, \"Not yet due\") */\n      tag_93\n      jumpi\n      mload(0x40)\n      0x08c379a000000000000000000000000000000000000000000000000000000000\n      dup2\n      mstore\n      0x04\n      add\n      tag_94\n      swap1\n      tag_95\n      jump\t// in\n    tag_94:\n      mload(0x40)\n      dup1\n      swap2\n      sub\n      swap1\n      revert\n    tag_93:\n        /* \"contracts/SaveCelo.sol\":2258:2273  uint256 userBal */\n      0x00\n        /* \"contracts/SaveCelo.sol\":2276:2284  useracct */\n      dup2\n        /* \"contracts/SaveCelo.sol\":2276:2291  useracct.amount */\n      0x00\n      add\n      sload\n        /* \"contracts/SaveCelo.sol\":2258:2291  uint256 userBal = useracct.amount */\n      swap1\n      pop\n        /* \"contracts/SaveCelo.sol\":2322:2323  0 */\n      0x00\n        /* \"contracts/SaveCelo.sol\":2304:2312  useracct */\n      dup3\n        /* \"contracts/SaveCelo.sol\":2304:2319  useracct.amount */\n      0x00\n      add\n        /* \"contracts/SaveCelo.sol\":2304:2323  useracct.amount = 0 */\n      dup2\n      swap1\n      sstore\n      pop\n        /* \"contracts/SaveCelo.sol\":2354:2355  0 */\n      0x00\n        /* \"contracts/SaveCelo.sol\":2334:2342  useracct */\n      dup3\n        /* \"contracts/SaveCelo.sol\":2334:2351  useracct.duration */\n      0x01\n      add\n        /* \"contracts/SaveCelo.sol\":2334:2355  useracct.duration = 0 */\n      dup2\n      swap1\n      sstore\n      pop\n        /* \"contracts/SaveCelo.sol\":2388:2395  userBal */\n      dup1\n        /* \"contracts/SaveCelo.sol\":2369:2384  contractBalance */\n      0x03\n      0x00\n        /* \"contracts/SaveCelo.sol\":2369:2395  contractBalance -= userBal */\n      dup3\n      dup3\n      sload\n      tag_96\n      swap2\n      swap1\n      tag_97\n      jump\t// in\n    tag_96:\n      swap3\n      pop\n      pop\n      dup2\n      swap1\n      sstore\n      pop\n        /* \"contracts/SaveCelo.sol\":2415:2424  celotoken */\n      0x00\n      0x00\n      swap1\n      sload\n      swap1\n      0x0100\n      exp\n      swap1\n      div\n      0xffffffffffffffffffffffffffffffffffffffff\n      and\n        /* \"contracts/SaveCelo.sol\":2408:2434  IERC20(celotoken).transfer */\n      0xffffffffffffffffffffffffffffffffffffffff\n      and\n      0xa9059cbb\n        /* \"contracts/SaveCelo.sol\":2435:2445  msg.sender */\n      caller\n        /* \"contracts/SaveCelo.sol\":2447:2454  userBal */\n      dup4\n        /* \"contracts/SaveCelo.sol\":2408:2455  IERC20(celotoken).transfer(msg.sender, userBal) */\n      mload(0x40)\n      dup4\n      0xffffffff\n      and\n      0xe0\n      shl\n      dup2\n      mstore\n      0x04\n      add\n      tag_98\n      swap3\n      swap2\n      swap1\n      tag_99\n      jump\t// in\n    tag_98:\n      0x20\n      mload(0x40)\n      dup1\n      dup4\n      sub\n      dup2\n      0x00\n      dup8\n      gas\n      call\n      iszero\n      dup1\n      iszero\n      tag_101\n      jumpi\n      returndatacopy(0x00, 0x00, returndatasize)\n      revert(0x00, returndatasize)\n    tag_101:\n      pop\n      pop\n      pop\n      pop\n      mload(0x40)\n      returndatasize\n      not(0x1f)\n      0x1f\n      dup3\n      add\n      and\n      dup3\n      add\n      dup1\n      0x40\n      mstore\n      pop\n      dup2\n      add\n      swap1\n      tag_102\n      swap2\n      swap1\n      tag_63\n      jump\t// in\n    tag_102:\n      pop\n        /* \"contracts/SaveCelo.sol\":2494:2504  msg.sender */\n      caller\n        /* \"contracts/SaveCelo.sol\":2473:2531  WithdrawalSuccessful(msg.sender, userBal, block.timestamp) */\n      0xffffffffffffffffffffffffffffffffffffffff\n      and\n      0xfb59733a8f0bd43414922fb86c6ffdd090e44935074086318980ca89221acc56\n        /* \"contracts/SaveCelo.sol\":2506:2513  userBal */\n      dup3\n        /* \"contracts/SaveCelo.sol\":2515:2530  block.timestamp */\n      timestamp\n        /* \"contracts/SaveCelo.sol\":2473:2531  WithdrawalSuccessful(msg.sender, userBal, block.timestamp) */\n      mload(0x40)\n      tag_103\n      swap3\n      swap2\n      swap1\n      tag_74\n      jump\t// in\n    tag_103:\n      mload(0x40)\n      dup1\n      swap2\n      sub\n      swap1\n      log2\n        /* \"contracts/SaveCelo.sol\":1961:2541  {... */\n      pop\n      pop\n        /* \"contracts/SaveCelo.sol\":671:676  false */\n      0x00\n        /* \"contracts/SaveCelo.sol\":662:668  locked */\n      0x04\n      0x00\n        /* \"contracts/SaveCelo.sol\":662:676  locked = false */\n      0x0100\n      exp\n      dup2\n      sload\n      dup2\n      0xff\n      mul\n      not\n      and\n      swap1\n      dup4\n      iszero\n      iszero\n      mul\n      or\n      swap1\n      sstore\n      pop\n        /* \"contracts/SaveCelo.sol\":1899:2541  function withdrawFunds(uint8 _index) external reentrancyGuard {... */\n      pop\n      jump\t// out\n        /* \"contracts/SaveCelo.sol\":2669:2926  function transferOwnership(address _newOwner) external onlyOwner {... */\n    tag_25:\n        /* \"contracts/SaveCelo.sol\":743:748  owner */\n      0x01\n      0x00\n      swap1\n      sload\n      swap1\n      0x0100\n      exp\n      swap1\n      div\n      0xffffffffffffffffffffffffffffffffffffffff\n      and\n        /* \"contracts/SaveCelo.sol\":729:748  msg.sender == owner */\n      0xffffffffffffffffffffffffffffffffffffffff\n      and\n        /* \"contracts/SaveCelo.sol\":729:739  msg.sender */\n      caller\n        /* \"contracts/SaveCelo.sol\":729:748  msg.sender == owner */\n      0xffffffffffffffffffffffffffffffffffffffff\n      and\n      eq\n        /* \"contracts/SaveCelo.sol\":721:774  require(msg.sender == owner, \"Only owner can access\") */\n      tag_105\n      jumpi\n      mload(0x40)\n      0x08c379a000000000000000000000000000000000000000000000000000000000\n      dup2\n      mstore\n      0x04\n      add\n      tag_106\n      swap1\n      tag_78\n      jump\t// in\n    tag_106:\n      mload(0x40)\n      dup1\n      swap2\n      sub\n      swap1\n      revert\n    tag_105:\n        /* \"contracts/SaveCelo.sol\":2775:2776  0 */\n      0x00\n        /* \"contracts/SaveCelo.sol\":2753:2777  msg.sender != address(0) */\n      0xffffffffffffffffffffffffffffffffffffffff\n      and\n        /* \"contracts/SaveCelo.sol\":2753:2763  msg.sender */\n      caller\n        /* \"contracts/SaveCelo.sol\":2753:2777  msg.sender != address(0) */\n      0xffffffffffffffffffffffffffffffffffffffff\n      and\n      sub\n        /* \"contracts/SaveCelo.sol\":2745:2797  require(msg.sender != address(0), \"It can't be you\") */\n      tag_108\n      jumpi\n      mload(0x40)\n      0x08c379a000000000000000000000000000000000000000000000000000000000\n      dup2\n      mstore\n      0x04\n      add\n      tag_109\n      swap1\n      tag_29\n      jump\t// in\n    tag_109:\n      mload(0x40)\n      dup1\n      swap2\n      sub\n      swap1\n      revert\n    tag_108:\n        /* \"contracts/SaveCelo.sol\":2839:2840  0 */\n      0x00\n        /* \"contracts/SaveCelo.sol\":2818:2841  _newOwner != address(0) */\n      0xffffffffffffffffffffffffffffffffffffffff\n      and\n        /* \"contracts/SaveCelo.sol\":2818:2827  _newOwner */\n      dup2\n        /* \"contracts/SaveCelo.sol\":2818:2841  _newOwner != address(0) */\n      0xffffffffffffffffffffffffffffffffffffffff\n      and\n      sub\n        /* \"contracts/SaveCelo.sol\":2810:2877  require(_newOwner != address(0), \"new owner can't be zero address\") */\n      tag_110\n      jumpi\n      mload(0x40)\n      0x08c379a000000000000000000000000000000000000000000000000000000000\n      dup2\n      mstore\n      0x04\n      add\n      tag_111\n      swap1\n      tag_112\n      jump\t// in\n    tag_111:\n      mload(0x40)\n      dup1\n      swap2\n      sub\n      swap1\n      revert\n    tag_110:\n        /* \"contracts/SaveCelo.sol\":2909:2918  _newOwner */\n      dup1\n        /* \"contracts/SaveCelo.sol\":2898:2906  newOwner */\n      0x02\n      0x00\n        /* \"contracts/SaveCelo.sol\":2898:2918  newOwner = _newOwner */\n      0x0100\n      exp\n      dup2\n      sload\n      dup2\n      0xffffffffffffffffffffffffffffffffffffffff\n      mul\n      not\n      and\n      swap1\n      dup4\n      0xffffffffffffffffffffffffffffffffffffffff\n      and\n      mul\n      or\n      swap1\n      sstore\n      pop\n        /* \"contracts/SaveCelo.sol\":2669:2926  function transferOwnership(address _newOwner) external onlyOwner {... */\n      pop\n      jump\t// out\n    tag_70:\n      mload(0x40)\n      dup1\n      0x40\n      add\n      0x40\n      mstore\n      dup1\n      0x00\n      dup2\n      mstore\n      0x20\n      add\n      0x00\n      dup2\n      mstore\n      pop\n      swap1\n      jump\t// out\n        /* \"#utility.yul\":88:205   */\n    tag_114:\n        /* \"#utility.yul\":197:198   */\n      0x00\n        /* \"#utility.yul\":194:195   */\n      0x00\n        /* \"#utility.yul\":187:199   */\n      revert\n        /* \"#utility.yul\":334:411   */\n    tag_116:\n        /* \"#utility.yul\":371:378   */\n      0x00\n        /* \"#utility.yul\":400:405   */\n      dup2\n        /* \"#utility.yul\":389:405   */\n      swap1\n      pop\n        /* \"#utility.yul\":334:411   */\n      swap2\n      swap1\n      pop\n      jump\t// out\n        /* \"#utility.yul\":417:539   */\n    tag_117:\n        /* \"#utility.yul\":490:514   */\n      tag_162\n        /* \"#utility.yul\":508:513   */\n      dup2\n        /* \"#utility.yul\":490:514   */\n      tag_116\n      jump\t// in\n    tag_162:\n        /* \"#utility.yul\":483:488   */\n      dup2\n        /* \"#utility.yul\":480:515   */\n      eq\n        /* \"#utility.yul\":470:533   */\n      tag_163\n      jumpi\n        /* \"#utility.yul\":529:530   */\n      0x00\n        /* \"#utility.yul\":526:527   */\n      0x00\n        /* \"#utility.yul\":519:531   */\n      revert\n        /* \"#utility.yul\":470:533   */\n    tag_163:\n        /* \"#utility.yul\":417:539   */\n      pop\n      jump\t// out\n        /* \"#utility.yul\":545:684   */\n    tag_118:\n        /* \"#utility.yul\":591:596   */\n      0x00\n        /* \"#utility.yul\":629:635   */\n      dup2\n        /* \"#utility.yul\":616:636   */\n      calldataload\n        /* \"#utility.yul\":607:636   */\n      swap1\n      pop\n        /* \"#utility.yul\":645:678   */\n      tag_165\n        /* \"#utility.yul\":672:677   */\n      dup2\n        /* \"#utility.yul\":645:678   */\n      tag_117\n      jump\t// in\n    tag_165:\n        /* \"#utility.yul\":545:684   */\n      swap3\n      swap2\n      pop\n      pop\n      jump\t// out\n        /* \"#utility.yul\":690:1164   */\n    tag_12:\n        /* \"#utility.yul\":758:764   */\n      0x00\n        /* \"#utility.yul\":766:772   */\n      0x00\n        /* \"#utility.yul\":815:817   */\n      0x40\n        /* \"#utility.yul\":803:812   */\n      dup4\n        /* \"#utility.yul\":794:801   */\n      dup6\n        /* \"#utility.yul\":790:813   */\n      sub\n        /* \"#utility.yul\":786:818   */\n      slt\n        /* \"#utility.yul\":783:902   */\n      iszero\n      tag_167\n      jumpi\n        /* \"#utility.yul\":821:900   */\n      tag_168\n      tag_114\n      jump\t// in\n    tag_168:\n        /* \"#utility.yul\":783:902   */\n    tag_167:\n        /* \"#utility.yul\":941:942   */\n      0x00\n        /* \"#utility.yul\":966:1019   */\n      tag_169\n        /* \"#utility.yul\":1011:1018   */\n      dup6\n        /* \"#utility.yul\":1002:1008   */\n      dup3\n        /* \"#utility.yul\":991:1000   */\n      dup7\n        /* \"#utility.yul\":987:1009   */\n      add\n        /* \"#utility.yul\":966:1019   */\n      tag_118\n      jump\t// in\n    tag_169:\n        /* \"#utility.yul\":956:1019   */\n      swap3\n      pop\n        /* \"#utility.yul\":912:1029   */\n      pop\n        /* \"#utility.yul\":1068:1070   */\n      0x20\n        /* \"#utility.yul\":1094:1147   */\n      tag_170\n        /* \"#utility.yul\":1139:1146   */\n      dup6\n        /* \"#utility.yul\":1130:1136   */\n      dup3\n        /* \"#utility.yul\":1119:1128   */\n      dup7\n        /* \"#utility.yul\":1115:1137   */\n      add\n        /* \"#utility.yul\":1094:1147   */\n      tag_118\n      jump\t// in\n    tag_170:\n        /* \"#utility.yul\":1084:1147   */\n      swap2\n      pop\n        /* \"#utility.yul\":1039:1157   */\n      pop\n        /* \"#utility.yul\":690:1164   */\n      swap3\n      pop\n      swap3\n      swap1\n      pop\n      jump\t// out\n        /* \"#utility.yul\":1170:1288   */\n    tag_119:\n        /* \"#utility.yul\":1257:1281   */\n      tag_172\n        /* \"#utility.yul\":1275:1280   */\n      dup2\n        /* \"#utility.yul\":1257:1281   */\n      tag_116\n      jump\t// in\n    tag_172:\n        /* \"#utility.yul\":1252:1255   */\n      dup3\n        /* \"#utility.yul\":1245:1282   */\n      mstore\n        /* \"#utility.yul\":1170:1288   */\n      pop\n      pop\n      jump\t// out\n        /* \"#utility.yul\":1294:1516   */\n    tag_17:\n        /* \"#utility.yul\":1387:1391   */\n      0x00\n        /* \"#utility.yul\":1425:1427   */\n      0x20\n        /* \"#utility.yul\":1414:1423   */\n      dup3\n        /* \"#utility.yul\":1410:1428   */\n      add\n        /* \"#utility.yul\":1402:1428   */\n      swap1\n      pop\n        /* \"#utility.yul\":1438:1509   */\n      tag_174\n        /* \"#utility.yul\":1506:1507   */\n      0x00\n        /* \"#utility.yul\":1495:1504   */\n      dup4\n        /* \"#utility.yul\":1491:1508   */\n      add\n        /* \"#utility.yul\":1482:1488   */\n      dup5\n        /* \"#utility.yul\":1438:1509   */\n      tag_119\n      jump\t// in\n    tag_174:\n        /* \"#utility.yul\":1294:1516   */\n      swap3\n      swap2\n      pop\n      pop\n      jump\t// out\n        /* \"#utility.yul\":1522:1608   */\n    tag_120:\n        /* \"#utility.yul\":1557:1564   */\n      0x00\n        /* \"#utility.yul\":1597:1601   */\n      0xff\n        /* \"#utility.yul\":1590:1595   */\n      dup3\n        /* \"#utility.yul\":1586:1602   */\n      and\n        /* \"#utility.yul\":1575:1602   */\n      swap1\n      pop\n        /* \"#utility.yul\":1522:1608   */\n      swap2\n      swap1\n      pop\n      jump\t// out\n        /* \"#utility.yul\":1614:1732   */\n    tag_121:\n        /* \"#utility.yul\":1685:1707   */\n      tag_177\n        /* \"#utility.yul\":1701:1706   */\n      dup2\n        /* \"#utility.yul\":1685:1707   */\n      tag_120\n      jump\t// in\n    tag_177:\n        /* \"#utility.yul\":1678:1683   */\n      dup2\n        /* \"#utility.yul\":1675:1708   */\n      eq\n        /* \"#utility.yul\":1665:1726   */\n      tag_178\n      jumpi\n        /* \"#utility.yul\":1722:1723   */\n      0x00\n        /* \"#utility.yul\":1719:1720   */\n      0x00\n        /* \"#utility.yul\":1712:1724   */\n      revert\n        /* \"#utility.yul\":1665:1726   */\n    tag_178:\n        /* \"#utility.yul\":1614:1732   */\n      pop\n      jump\t// out\n        /* \"#utility.yul\":1738:1873   */\n    tag_122:\n        /* \"#utility.yul\":1782:1787   */\n      0x00\n        /* \"#utility.yul\":1820:1826   */\n      dup2\n        /* \"#utility.yul\":1807:1827   */\n      calldataload\n        /* \"#utility.yul\":1798:1827   */\n      swap1\n      pop\n        /* \"#utility.yul\":1836:1867   */\n      tag_180\n        /* \"#utility.yul\":1861:1866   */\n      dup2\n        /* \"#utility.yul\":1836:1867   */\n      tag_121\n      jump\t// in\n    tag_180:\n        /* \"#utility.yul\":1738:1873   */\n      swap3\n      swap2\n      pop\n      pop\n      jump\t// out\n        /* \"#utility.yul\":1879:2204   */\n    tag_20:\n        /* \"#utility.yul\":1936:1942   */\n      0x00\n        /* \"#utility.yul\":1985:1987   */\n      0x20\n        /* \"#utility.yul\":1973:1982   */\n      dup3\n        /* \"#utility.yul\":1964:1971   */\n      dup5\n        /* \"#utility.yul\":1960:1983   */\n      sub\n        /* \"#utility.yul\":1956:1988   */\n      slt\n        /* \"#utility.yul\":1953:2072   */\n      iszero\n      tag_182\n      jumpi\n        /* \"#utility.yul\":1991:2070   */\n      tag_183\n      tag_114\n      jump\t// in\n    tag_183:\n        /* \"#utility.yul\":1953:2072   */\n    tag_182:\n        /* \"#utility.yul\":2111:2112   */\n      0x00\n        /* \"#utility.yul\":2136:2187   */\n      tag_184\n        /* \"#utility.yul\":2179:2186   */\n      dup5\n        /* \"#utility.yul\":2170:2176   */\n      dup3\n        /* \"#utility.yul\":2159:2168   */\n      dup6\n        /* \"#utility.yul\":2155:2177   */\n      add\n        /* \"#utility.yul\":2136:2187   */\n      tag_122\n      jump\t// in\n    tag_184:\n        /* \"#utility.yul\":2126:2187   */\n      swap2\n      pop\n        /* \"#utility.yul\":2082:2197   */\n      pop\n        /* \"#utility.yul\":1879:2204   */\n      swap3\n      swap2\n      pop\n      pop\n      jump\t// out\n        /* \"#utility.yul\":2210:2336   */\n    tag_123:\n        /* \"#utility.yul\":2247:2254   */\n      0x00\n        /* \"#utility.yul\":2287:2329   */\n      0xffffffffffffffffffffffffffffffffffffffff\n        /* \"#utility.yul\":2280:2285   */\n      dup3\n        /* \"#utility.yul\":2276:2330   */\n      and\n        /* \"#utility.yul\":2265:2330   */\n      swap1\n      pop\n        /* \"#utility.yul\":2210:2336   */\n      swap2\n      swap1\n      pop\n      jump\t// out\n        /* \"#utility.yul\":2342:2438   */\n    tag_124:\n        /* \"#utility.yul\":2379:2386   */\n      0x00\n        /* \"#utility.yul\":2408:2432   */\n      tag_187\n        /* \"#utility.yul\":2426:2431   */\n      dup3\n        /* \"#utility.yul\":2408:2432   */\n      tag_123\n      jump\t// in\n    tag_187:\n        /* \"#utility.yul\":2397:2432   */\n      swap1\n      pop\n        /* \"#utility.yul\":2342:2438   */\n      swap2\n      swap1\n      pop\n      jump\t// out\n        /* \"#utility.yul\":2444:2566   */\n    tag_125:\n        /* \"#utility.yul\":2517:2541   */\n      tag_189\n        /* \"#utility.yul\":2535:2540   */\n      dup2\n        /* \"#utility.yul\":2517:2541   */\n      tag_124\n      jump\t// in\n    tag_189:\n        /* \"#utility.yul\":2510:2515   */\n      dup2\n        /* \"#utility.yul\":2507:2542   */\n      eq\n        /* \"#utility.yul\":2497:2560   */\n      tag_190\n      jumpi\n        /* \"#utility.yul\":2556:2557   */\n      0x00\n        /* \"#utility.yul\":2553:2554   */\n      0x00\n        /* \"#utility.yul\":2546:2558   */\n      revert\n        /* \"#utility.yul\":2497:2560   */\n    tag_190:\n        /* \"#utility.yul\":2444:2566   */\n      pop\n      jump\t// out\n        /* \"#utility.yul\":2572:2711   */\n    tag_126:\n        /* \"#utility.yul\":2618:2623   */\n      0x00\n        /* \"#utility.yul\":2656:2662   */\n      dup2\n        /* \"#utility.yul\":2643:2663   */\n      calldataload\n        /* \"#utility.yul\":2634:2663   */\n      swap1\n      pop\n        /* \"#utility.yul\":2672:2705   */\n      tag_192\n        /* \"#utility.yul\":2699:2704   */\n      dup2\n        /* \"#utility.yul\":2672:2705   */\n      tag_125\n      jump\t// in\n    tag_192:\n        /* \"#utility.yul\":2572:2711   */\n      swap3\n      swap2\n      pop\n      pop\n      jump\t// out\n        /* \"#utility.yul\":2717:3046   */\n    tag_24:\n        /* \"#utility.yul\":2776:2782   */\n      0x00\n        /* \"#utility.yul\":2825:2827   */\n      0x20\n        /* \"#utility.yul\":2813:2822   */\n      dup3\n        /* \"#utility.yul\":2804:2811   */\n      dup5\n        /* \"#utility.yul\":2800:2823   */\n      sub\n        /* \"#utility.yul\":2796:2828   */\n      slt\n        /* \"#utility.yul\":2793:2912   */\n      iszero\n      tag_194\n      jumpi\n        /* \"#utility.yul\":2831:2910   */\n      tag_195\n      tag_114\n      jump\t// in\n    tag_195:\n        /* \"#utility.yul\":2793:2912   */\n    tag_194:\n        /* \"#utility.yul\":2951:2952   */\n      0x00\n        /* \"#utility.yul\":2976:3029   */\n      tag_196\n        /* \"#utility.yul\":3021:3028   */\n      dup5\n        /* \"#utility.yul\":3012:3018   */\n      dup3\n        /* \"#utility.yul\":3001:3010   */\n      dup6\n        /* \"#utility.yul\":2997:3019   */\n      add\n        /* \"#utility.yul\":2976:3029   */\n      tag_126\n      jump\t// in\n    tag_196:\n        /* \"#utility.yul\":2966:3029   */\n      swap2\n      pop\n        /* \"#utility.yul\":2922:3039   */\n      pop\n        /* \"#utility.yul\":2717:3046   */\n      swap3\n      swap2\n      pop\n      pop\n      jump\t// out\n        /* \"#utility.yul\":3052:3221   */\n    tag_127:\n        /* \"#utility.yul\":3136:3147   */\n      0x00\n        /* \"#utility.yul\":3170:3176   */\n      dup3\n        /* \"#utility.yul\":3165:3168   */\n      dup3\n        /* \"#utility.yul\":3158:3177   */\n      mstore\n        /* \"#utility.yul\":3210:3214   */\n      0x20\n        /* \"#utility.yul\":3205:3208   */\n      dup3\n        /* \"#utility.yul\":3201:3215   */\n      add\n        /* \"#utility.yul\":3186:3215   */\n      swap1\n      pop\n        /* \"#utility.yul\":3052:3221   */\n      swap3\n      swap2\n      pop\n      pop\n      jump\t// out\n        /* \"#utility.yul\":3227:3392   */\n    tag_128:\n        /* \"#utility.yul\":3367:3384   */\n      0x49742063616e277420626520796f750000000000000000000000000000000000\n        /* \"#utility.yul\":3363:3364   */\n      0x00\n        /* \"#utility.yul\":3355:3361   */\n      dup3\n        /* \"#utility.yul\":3351:3365   */\n      add\n        /* \"#utility.yul\":3344:3385   */\n      mstore\n        /* \"#utility.yul\":3227:3392   */\n      pop\n      jump\t// out\n        /* \"#utility.yul\":3398:3764   */\n    tag_129:\n        /* \"#utility.yul\":3540:3543   */\n      0x00\n        /* \"#utility.yul\":3561:3628   */\n      tag_200\n        /* \"#utility.yul\":3625:3627   */\n      0x0f\n        /* \"#utility.yul\":3620:3623   */\n      dup4\n        /* \"#utility.yul\":3561:3628   */\n      tag_127\n      jump\t// in\n    tag_200:\n        /* \"#utility.yul\":3554:3628   */\n      swap2\n      pop\n        /* \"#utility.yul\":3637:3730   */\n      tag_201\n        /* \"#utility.yul\":3726:3729   */\n      dup3\n        /* \"#utility.yul\":3637:3730   */\n      tag_128\n      jump\t// in\n    tag_201:\n        /* \"#utility.yul\":3755:3757   */\n      0x20\n        /* \"#utility.yul\":3750:3753   */\n      dup3\n        /* \"#utility.yul\":3746:3758   */\n      add\n        /* \"#utility.yul\":3739:3758   */\n      swap1\n      pop\n        /* \"#utility.yul\":3398:3764   */\n      swap2\n      swap1\n      pop\n      jump\t// out\n        /* \"#utility.yul\":3770:4189   */\n    tag_29:\n        /* \"#utility.yul\":3936:3940   */\n      0x00\n        /* \"#utility.yul\":3974:3976   */\n      0x20\n        /* \"#utility.yul\":3963:3972   */\n      dup3\n        /* \"#utility.yul\":3959:3977   */\n      add\n        /* \"#utility.yul\":3951:3977   */\n      swap1\n      pop\n        /* \"#utility.yul\":4023:4032   */\n      dup2\n        /* \"#utility.yul\":4017:4021   */\n      dup2\n        /* \"#utility.yul\":4013:4033   */\n      sub\n        /* \"#utility.yul\":4009:4010   */\n      0x00\n        /* \"#utility.yul\":3998:4007   */\n      dup4\n        /* \"#utility.yul\":3994:4011   */\n      add\n        /* \"#utility.yul\":3987:4034   */\n      mstore\n        /* \"#utility.yul\":4051:4182   */\n      tag_203\n        /* \"#utility.yul\":4177:4181   */\n      dup2\n        /* \"#utility.yul\":4051:4182   */\n      tag_129\n      jump\t// in\n    tag_203:\n        /* \"#utility.yul\":4043:4182   */\n      swap1\n      pop\n        /* \"#utility.yul\":3770:4189   */\n      swap2\n      swap1\n      pop\n      jump\t// out\n        /* \"#utility.yul\":4195:4362   */\n    tag_130:\n        /* \"#utility.yul\":4335:4354   */\n      0x4e6f7420796f7572207475726e20796574000000000000000000000000000000\n        /* \"#utility.yul\":4331:4332   */\n      0x00\n        /* \"#utility.yul\":4323:4329   */\n      dup3\n        /* \"#utility.yul\":4319:4333   */\n      add\n        /* \"#utility.yul\":4312:4355   */\n      mstore\n        /* \"#utility.yul\":4195:4362   */\n      pop\n      jump\t// out\n        /* \"#utility.yul\":4368:4734   */\n    tag_131:\n        /* \"#utility.yul\":4510:4513   */\n      0x00\n        /* \"#utility.yul\":4531:4598   */\n      tag_206\n        /* \"#utility.yul\":4595:4597   */\n      0x11\n        /* \"#utility.yul\":4590:4593   */\n      dup4\n        /* \"#utility.yul\":4531:4598   */\n      tag_127\n      jump\t// in\n    tag_206:\n        /* \"#utility.yul\":4524:4598   */\n      swap2\n      pop\n        /* \"#utility.yul\":4607:4700   */\n      tag_207\n        /* \"#utility.yul\":4696:4699   */\n      dup3\n        /* \"#utility.yul\":4607:4700   */\n      tag_130\n      jump\t// in\n    tag_207:\n        /* \"#utility.yul\":4725:4727   */\n      0x20\n        /* \"#utility.yul\":4720:4723   */\n      dup3\n        /* \"#utility.yul\":4716:4728   */\n      add\n        /* \"#utility.yul\":4709:4728   */\n      swap1\n      pop\n        /* \"#utility.yul\":4368:4734   */\n      swap2\n      swap1\n      pop\n      jump\t// out\n        /* \"#utility.yul\":4740:5159   */\n    tag_32:\n        /* \"#utility.yul\":4906:4910   */\n      0x00\n        /* \"#utility.yul\":4944:4946   */\n      0x20\n        /* \"#utility.yul\":4933:4942   */\n      dup3\n        /* \"#utility.yul\":4929:4947   */\n      add\n        /* \"#utility.yul\":4921:4947   */\n      swap1\n      pop\n        /* \"#utility.yul\":4993:5002   */\n      dup2\n        /* \"#utility.yul\":4987:4991   */\n      dup2\n        /* \"#utility.yul\":4983:5003   */\n      sub\n        /* \"#utility.yul\":4979:4980   */\n      0x00\n        /* \"#utility.yul\":4968:4977   */\n      dup4\n        /* \"#utility.yul\":4964:4981   */\n      add\n        /* \"#utility.yul\":4957:5004   */\n      mstore\n        /* \"#utility.yul\":5021:5152   */\n      tag_209\n        /* \"#utility.yul\":5147:5151   */\n      dup2\n        /* \"#utility.yul\":5021:5152   */\n      tag_131\n      jump\t// in\n    tag_209:\n        /* \"#utility.yul\":5013:5152   */\n      swap1\n      pop\n        /* \"#utility.yul\":4740:5159   */\n      swap2\n      swap1\n      pop\n      jump\t// out\n        /* \"#utility.yul\":5165:5338   */\n    tag_132:\n        /* \"#utility.yul\":5305:5330   */\n      0x4e6f7420616c6c6f77656420746f2072652d656e746572000000000000000000\n        /* \"#utility.yul\":5301:5302   */\n      0x00\n        /* \"#utility.yul\":5293:5299   */\n      dup3\n        /* \"#utility.yul\":5289:5303   */\n      add\n        /* \"#utility.yul\":5282:5331   */\n      mstore\n        /* \"#utility.yul\":5165:5338   */\n      pop\n      jump\t// out\n        /* \"#utility.yul\":5344:5710   */\n    tag_133:\n        /* \"#utility.yul\":5486:5489   */\n      0x00\n        /* \"#utility.yul\":5507:5574   */\n      tag_212\n        /* \"#utility.yul\":5571:5573   */\n      0x17\n        /* \"#utility.yul\":5566:5569   */\n      dup4\n        /* \"#utility.yul\":5507:5574   */\n      tag_127\n      jump\t// in\n    tag_212:\n        /* \"#utility.yul\":5500:5574   */\n      swap2\n      pop\n        /* \"#utility.yul\":5583:5676   */\n      tag_213\n        /* \"#utility.yul\":5672:5675   */\n      dup3\n        /* \"#utility.yul\":5583:5676   */\n      tag_132\n      jump\t// in\n    tag_213:\n        /* \"#utility.yul\":5701:5703   */\n      0x20\n        /* \"#utility.yul\":5696:5699   */\n      dup3\n        /* \"#utility.yul\":5692:5704   */\n      add\n        /* \"#utility.yul\":5685:5704   */\n      swap1\n      pop\n        /* \"#utility.yul\":5344:5710   */\n      swap2\n      swap1\n      pop\n      jump\t// out\n        /* \"#utility.yul\":5716:6135   */\n    tag_36:\n        /* \"#utility.yul\":5882:5886   */\n      0x00\n        /* \"#utility.yul\":5920:5922   */\n      0x20\n        /* \"#utility.yul\":5909:5918   */\n      dup3\n        /* \"#utility.yul\":5905:5923   */\n      add\n        /* \"#utility.yul\":5897:5923   */\n      swap1\n      pop\n        /* \"#utility.yul\":5969:5978   */\n      dup2\n        /* \"#utility.yul\":5963:5967   */\n      dup2\n        /* \"#utility.yul\":5959:5979   */\n      sub\n        /* \"#utility.yul\":5955:5956   */\n      0x00\n        /* \"#utility.yul\":5944:5953   */\n      dup4\n        /* \"#utility.yul\":5940:5957   */\n      add\n        /* \"#utility.yul\":5933:5980   */\n      mstore\n        /* \"#utility.yul\":5997:6128   */\n      tag_215\n        /* \"#utility.yul\":6123:6127   */\n      dup2\n        /* \"#utility.yul\":5997:6128   */\n      tag_133\n      jump\t// in\n    tag_215:\n        /* \"#utility.yul\":5989:6128   */\n      swap1\n      pop\n        /* \"#utility.yul\":5716:6135   */\n      swap2\n      swap1\n      pop\n      jump\t// out\n        /* \"#utility.yul\":6141:6315   */\n    tag_134:\n        /* \"#utility.yul\":6281:6307   */\n      0x5a65726f2061646472657373206e6f7420616c6c6f7765640000000000000000\n        /* \"#utility.yul\":6277:6278   */\n      0x00\n        /* \"#utility.yul\":6269:6275   */\n      dup3\n        /* \"#utility.yul\":6265:6279   */\n      add\n        /* \"#utility.yul\":6258:6308   */\n      mstore\n        /* \"#utility.yul\":6141:6315   */\n      pop\n      jump\t// out\n        /* \"#utility.yul\":6321:6687   */\n    tag_135:\n        /* \"#utility.yul\":6463:6466   */\n      0x00\n        /* \"#utility.yul\":6484:6551   */\n      tag_218\n        /* \"#utility.yul\":6548:6550   */\n      0x18\n        /* \"#utility.yul\":6543:6546   */\n      dup4\n        /* \"#utility.yul\":6484:6551   */\n      tag_127\n      jump\t// in\n    tag_218:\n        /* \"#utility.yul\":6477:6551   */\n      swap2\n      pop\n        /* \"#utility.yul\":6560:6653   */\n      tag_219\n        /* \"#utility.yul\":6649:6652   */\n      dup3\n        /* \"#utility.yul\":6560:6653   */\n      tag_134\n      jump\t// in\n    tag_219:\n        /* \"#utility.yul\":6678:6680   */\n      0x20\n        /* \"#utility.yul\":6673:6676   */\n      dup3\n        /* \"#utility.yul\":6669:6681   */\n      add\n        /* \"#utility.yul\":6662:6681   */\n      swap1\n      pop\n        /* \"#utility.yul\":6321:6687   */\n      swap2\n      swap1\n      pop\n      jump\t// out\n        /* \"#utility.yul\":6693:7112   */\n    tag_40:\n        /* \"#utility.yul\":6859:6863   */\n      0x00\n        /* \"#utility.yul\":6897:6899   */\n      0x20\n        /* \"#utility.yul\":6886:6895   */\n      dup3\n        /* \"#utility.yul\":6882:6900   */\n      add\n        /* \"#utility.yul\":6874:6900   */\n      swap1\n      pop\n        /* \"#utility.yul\":6946:6955   */\n      dup2\n        /* \"#utility.yul\":6940:6944   */\n      dup2\n        /* \"#utility.yul\":6936:6956   */\n      sub\n        /* \"#utility.yul\":6932:6933   */\n      0x00\n        /* \"#utility.yul\":6921:6930   */\n      dup4\n        /* \"#utility.yul\":6917:6934   */\n      add\n        /* \"#utility.yul\":6910:6957   */\n      mstore\n        /* \"#utility.yul\":6974:7105   */\n      tag_221\n        /* \"#utility.yul\":7100:7104   */\n      dup2\n        /* \"#utility.yul\":6974:7105   */\n      tag_135\n      jump\t// in\n    tag_221:\n        /* \"#utility.yul\":6966:7105   */\n      swap1\n      pop\n        /* \"#utility.yul\":6693:7112   */\n      swap2\n      swap1\n      pop\n      jump\t// out\n        /* \"#utility.yul\":7118:7236   */\n    tag_136:\n        /* \"#utility.yul\":7205:7229   */\n      tag_223\n        /* \"#utility.yul\":7223:7228   */\n      dup2\n        /* \"#utility.yul\":7205:7229   */\n      tag_124\n      jump\t// in\n    tag_223:\n        /* \"#utility.yul\":7200:7203   */\n      dup3\n        /* \"#utility.yul\":7193:7230   */\n      mstore\n        /* \"#utility.yul\":7118:7236   */\n      pop\n      pop\n      jump\t// out\n        /* \"#utility.yul\":7242:7464   */\n    tag_42:\n        /* \"#utility.yul\":7335:7339   */\n      0x00\n        /* \"#utility.yul\":7373:7375   */\n      0x20\n        /* \"#utility.yul\":7362:7371   */\n      dup3\n        /* \"#utility.yul\":7358:7376   */\n      add\n        /* \"#utility.yul\":7350:7376   */\n      swap1\n      pop\n        /* \"#utility.yul\":7386:7457   */\n      tag_225\n        /* \"#utility.yul\":7454:7455   */\n      0x00\n        /* \"#utility.yul\":7443:7452   */\n      dup4\n        /* \"#utility.yul\":7439:7456   */\n      add\n        /* \"#utility.yul\":7430:7436   */\n      dup5\n        /* \"#utility.yul\":7386:7457   */\n      tag_136\n      jump\t// in\n    tag_225:\n        /* \"#utility.yul\":7242:7464   */\n      swap3\n      swap2\n      pop\n      pop\n      jump\t// out\n        /* \"#utility.yul\":7470:7613   */\n    tag_137:\n        /* \"#utility.yul\":7527:7532   */\n      0x00\n        /* \"#utility.yul\":7558:7564   */\n      dup2\n        /* \"#utility.yul\":7552:7565   */\n      mload\n        /* \"#utility.yul\":7543:7565   */\n      swap1\n      pop\n        /* \"#utility.yul\":7574:7607   */\n      tag_227\n        /* \"#utility.yul\":7601:7606   */\n      dup2\n        /* \"#utility.yul\":7574:7607   */\n      tag_117\n      jump\t// in\n    tag_227:\n        /* \"#utility.yul\":7470:7613   */\n      swap3\n      swap2\n      pop\n      pop\n      jump\t// out\n        /* \"#utility.yul\":7619:7970   */\n    tag_46:\n        /* \"#utility.yul\":7689:7695   */\n      0x00\n        /* \"#utility.yul\":7738:7740   */\n      0x20\n        /* \"#utility.yul\":7726:7735   */\n      dup3\n        /* \"#utility.yul\":7717:7724   */\n      dup5\n        /* \"#utility.yul\":7713:7736   */\n      sub\n        /* \"#utility.yul\":7709:7741   */\n      slt\n        /* \"#utility.yul\":7706:7825   */\n      iszero\n      tag_229\n      jumpi\n        /* \"#utility.yul\":7744:7823   */\n      tag_230\n      tag_114\n      jump\t// in\n    tag_230:\n        /* \"#utility.yul\":7706:7825   */\n    tag_229:\n        /* \"#utility.yul\":7864:7865   */\n      0x00\n        /* \"#utility.yul\":7889:7953   */\n      tag_231\n        /* \"#utility.yul\":7945:7952   */\n      dup5\n        /* \"#utility.yul\":7936:7942   */\n      dup3\n        /* \"#utility.yul\":7925:7934   */\n      dup6\n        /* \"#utility.yul\":7921:7943   */\n      add\n        /* \"#utility.yul\":7889:7953   */\n      tag_137\n      jump\t// in\n    tag_231:\n        /* \"#utility.yul\":7879:7953   */\n      swap2\n      pop\n        /* \"#utility.yul\":7835:7963   */\n      pop\n        /* \"#utility.yul\":7619:7970   */\n      swap3\n      swap2\n      pop\n      pop\n      jump\t// out\n        /* \"#utility.yul\":7976:8152   */\n    tag_138:\n        /* \"#utility.yul\":8116:8144   */\n      0x596f75722062616c616e6365206973206e6f7420656e6f756768000000000000\n        /* \"#utility.yul\":8112:8113   */\n      0x00\n        /* \"#utility.yul\":8104:8110   */\n      dup3\n        /* \"#utility.yul\":8100:8114   */\n      add\n        /* \"#utility.yul\":8093:8145   */\n      mstore\n        /* \"#utility.yul\":7976:8152   */\n      pop\n      jump\t// out\n        /* \"#utility.yul\":8158:8524   */\n    tag_139:\n        /* \"#utility.yul\":8300:8303   */\n      0x00\n        /* \"#utility.yul\":8321:8388   */\n      tag_234\n        /* \"#utility.yul\":8385:8387   */\n      0x1a\n        /* \"#utility.yul\":8380:8383   */\n      dup4\n        /* \"#utility.yul\":8321:8388   */\n      tag_127\n      jump\t// in\n    tag_234:\n        /* \"#utility.yul\":8314:8388   */\n      swap2\n      pop\n        /* \"#utility.yul\":8397:8490   */\n      tag_235\n        /* \"#utility.yul\":8486:8489   */\n      dup3\n        /* \"#utility.yul\":8397:8490   */\n      tag_138\n      jump\t// in\n    tag_235:\n        /* \"#utility.yul\":8515:8517   */\n      0x20\n        /* \"#utility.yul\":8510:8513   */\n      dup3\n        /* \"#utility.yul\":8506:8518   */\n      add\n        /* \"#utility.yul\":8499:8518   */\n      swap1\n      pop\n        /* \"#utility.yul\":8158:8524   */\n      swap2\n      swap1\n      pop\n      jump\t// out\n        /* \"#utility.yul\":8530:8949   */\n    tag_49:\n        /* \"#utility.yul\":8696:8700   */\n      0x00\n        /* \"#utility.yul\":8734:8736   */\n      0x20\n        /* \"#utility.yul\":8723:8732   */\n      dup3\n        /* \"#utility.yul\":8719:8737   */\n      add\n        /* \"#utility.yul\":8711:8737   */\n      swap1\n      pop\n        /* \"#utility.yul\":8783:8792   */\n      dup2\n        /* \"#utility.yul\":8777:8781   */\n      dup2\n        /* \"#utility.yul\":8773:8793   */\n      sub\n        /* \"#utility.yul\":8769:8770   */\n      0x00\n        /* \"#utility.yul\":8758:8767   */\n      dup4\n        /* \"#utility.yul\":8754:8771   */\n      add\n        /* \"#utility.yul\":8747:8794   */\n      mstore\n        /* \"#utility.yul\":8811:8942   */\n      tag_237\n        /* \"#utility.yul\":8937:8941   */\n      dup2\n        /* \"#utility.yul\":8811:8942   */\n      tag_139\n      jump\t// in\n    tag_237:\n        /* \"#utility.yul\":8803:8942   */\n      swap1\n      pop\n        /* \"#utility.yul\":8530:8949   */\n      swap2\n      swap1\n      pop\n      jump\t// out\n        /* \"#utility.yul\":8955:9287   */\n    tag_51:\n        /* \"#utility.yul\":9076:9080   */\n      0x00\n        /* \"#utility.yul\":9114:9116   */\n      0x40\n        /* \"#utility.yul\":9103:9112   */\n      dup3\n        /* \"#utility.yul\":9099:9117   */\n      add\n        /* \"#utility.yul\":9091:9117   */\n      swap1\n      pop\n        /* \"#utility.yul\":9127:9198   */\n      tag_239\n        /* \"#utility.yul\":9195:9196   */\n      0x00\n        /* \"#utility.yul\":9184:9193   */\n      dup4\n        /* \"#utility.yul\":9180:9197   */\n      add\n        /* \"#utility.yul\":9171:9177   */\n      dup6\n        /* \"#utility.yul\":9127:9198   */\n      tag_136\n      jump\t// in\n    tag_239:\n        /* \"#utility.yul\":9208:9280   */\n      tag_240\n        /* \"#utility.yul\":9276:9278   */\n      0x20\n        /* \"#utility.yul\":9265:9274   */\n      dup4\n        /* \"#utility.yul\":9261:9279   */\n      add\n        /* \"#utility.yul\":9252:9258   */\n      dup5\n        /* \"#utility.yul\":9208:9280   */\n      tag_136\n      jump\t// in\n    tag_240:\n        /* \"#utility.yul\":8955:9287   */\n      swap4\n      swap3\n      pop\n      pop\n      pop\n      jump\t// out\n        /* \"#utility.yul\":9293:9471   */\n    tag_140:\n        /* \"#utility.yul\":9433:9463   */\n      0x416d6f756e7420616c6c6f776564206973206e6f7420656e6f75676800000000\n        /* \"#utility.yul\":9429:9430   */\n      0x00\n        /* \"#utility.yul\":9421:9427   */\n      dup3\n        /* \"#utility.yul\":9417:9431   */\n      add\n        /* \"#utility.yul\":9410:9464   */\n      mstore\n        /* \"#utility.yul\":9293:9471   */\n      pop\n      jump\t// out\n        /* \"#utility.yul\":9477:9843   */\n    tag_141:\n        /* \"#utility.yul\":9619:9622   */\n      0x00\n        /* \"#utility.yul\":9640:9707   */\n      tag_243\n        /* \"#utility.yul\":9704:9706   */\n      0x1c\n        /* \"#utility.yul\":9699:9702   */\n      dup4\n        /* \"#utility.yul\":9640:9707   */\n      tag_127\n      jump\t// in\n    tag_243:\n        /* \"#utility.yul\":9633:9707   */\n      swap2\n      pop\n        /* \"#utility.yul\":9716:9809   */\n      tag_244\n        /* \"#utility.yul\":9805:9808   */\n      dup3\n        /* \"#utility.yul\":9716:9809   */\n      tag_140\n      jump\t// in\n    tag_244:\n        /* \"#utility.yul\":9834:9836   */\n      0x20\n        /* \"#utility.yul\":9829:9832   */\n      dup3\n        /* \"#utility.yul\":9825:9837   */\n      add\n        /* \"#utility.yul\":9818:9837   */\n      swap1\n      pop\n        /* \"#utility.yul\":9477:9843   */\n      swap2\n      swap1\n      pop\n      jump\t// out\n        /* \"#utility.yul\":9849:10268   */\n    tag_57:\n        /* \"#utility.yul\":10015:10019   */\n      0x00\n        /* \"#utility.yul\":10053:10055   */\n      0x20\n        /* \"#utility.yul\":10042:10051   */\n      dup3\n        /* \"#utility.yul\":10038:10056   */\n      add\n        /* \"#utility.yul\":10030:10056   */\n      swap1\n      pop\n        /* \"#utility.yul\":10102:10111   */\n      dup2\n        /* \"#utility.yul\":10096:10100   */\n      dup2\n        /* \"#utility.yul\":10092:10112   */\n      sub\n        /* \"#utility.yul\":10088:10089   */\n      0x00\n        /* \"#utility.yul\":10077:10086   */\n      dup4\n        /* \"#utility.yul\":10073:10090   */\n      add\n        /* \"#utility.yul\":10066:10113   */\n      mstore\n        /* \"#utility.yul\":10130:10261   */\n      tag_246\n        /* \"#utility.yul\":10256:10260   */\n      dup2\n        /* \"#utility.yul\":10130:10261   */\n      tag_141\n      jump\t// in\n    tag_246:\n        /* \"#utility.yul\":10122:10261   */\n      swap1\n      pop\n        /* \"#utility.yul\":9849:10268   */\n      swap2\n      swap1\n      pop\n      jump\t// out\n        /* \"#utility.yul\":10274:10716   */\n    tag_59:\n        /* \"#utility.yul\":10423:10427   */\n      0x00\n        /* \"#utility.yul\":10461:10463   */\n      0x60\n        /* \"#utility.yul\":10450:10459   */\n      dup3\n        /* \"#utility.yul\":10446:10464   */\n      add\n        /* \"#utility.yul\":10438:10464   */\n      swap1\n      pop\n        /* \"#utility.yul\":10474:10545   */\n      tag_248\n        /* \"#utility.yul\":10542:10543   */\n      0x00\n        /* \"#utility.yul\":10531:10540   */\n      dup4\n        /* \"#utility.yul\":10527:10544   */\n      add\n        /* \"#utility.yul\":10518:10524   */\n      dup7\n        /* \"#utility.yul\":10474:10545   */\n      tag_136\n      jump\t// in\n    tag_248:\n        /* \"#utility.yul\":10555:10627   */\n      tag_249\n        /* \"#utility.yul\":10623:10625   */\n      0x20\n        /* \"#utility.yul\":10612:10621   */\n      dup4\n        /* \"#utility.yul\":10608:10626   */\n      add\n        /* \"#utility.yul\":10599:10605   */\n      dup6\n        /* \"#utility.yul\":10555:10627   */\n      tag_136\n      jump\t// in\n    tag_249:\n        /* \"#utility.yul\":10637:10709   */\n      tag_250\n        /* \"#utility.yul\":10705:10707   */\n      0x40\n        /* \"#utility.yul\":10694:10703   */\n      dup4\n        /* \"#utility.yul\":10690:10708   */\n      add\n        /* \"#utility.yul\":10681:10687   */\n      dup5\n        /* \"#utility.yul\":10637:10709   */\n      tag_119\n      jump\t// in\n    tag_250:\n        /* \"#utility.yul\":10274:10716   */\n      swap5\n      swap4\n      pop\n      pop\n      pop\n      pop\n      jump\t// out\n        /* \"#utility.yul\":10722:10812   */\n    tag_142:\n        /* \"#utility.yul\":10756:10763   */\n      0x00\n        /* \"#utility.yul\":10799:10804   */\n      dup2\n        /* \"#utility.yul\":10792:10805   */\n      iszero\n        /* \"#utility.yul\":10785:10806   */\n      iszero\n        /* \"#utility.yul\":10774:10806   */\n      swap1\n      pop\n        /* \"#utility.yul\":10722:10812   */\n      swap2\n      swap1\n      pop\n      jump\t// out\n        /* \"#utility.yul\":10818:10934   */\n    tag_143:\n        /* \"#utility.yul\":10888:10909   */\n      tag_253\n        /* \"#utility.yul\":10903:10908   */\n      dup2\n        /* \"#utility.yul\":10888:10909   */\n      tag_142\n      jump\t// in\n    tag_253:\n        /* \"#utility.yul\":10881:10886   */\n      dup2\n        /* \"#utility.yul\":10878:10910   */\n      eq\n        /* \"#utility.yul\":10868:10928   */\n      tag_254\n      jumpi\n        /* \"#utility.yul\":10924:10925   */\n      0x00\n        /* \"#utility.yul\":10921:10922   */\n      0x00\n        /* \"#utility.yul\":10914:10926   */\n      revert\n        /* \"#utility.yul\":10868:10928   */\n    tag_254:\n        /* \"#utility.yul\":10818:10934   */\n      pop\n      jump\t// out\n        /* \"#utility.yul\":10940:11077   */\n    tag_144:\n        /* \"#utility.yul\":10994:10999   */\n      0x00\n        /* \"#utility.yul\":11025:11031   */\n      dup2\n        /* \"#utility.yul\":11019:11032   */\n      mload\n        /* \"#utility.yul\":11010:11032   */\n      swap1\n      pop\n        /* \"#utility.yul\":11041:11071   */\n      tag_256\n        /* \"#utility.yul\":11065:11070   */\n      dup2\n        /* \"#utility.yul\":11041:11071   */\n      tag_143\n      jump\t// in\n    tag_256:\n        /* \"#utility.yul\":10940:11077   */\n      swap3\n      swap2\n      pop\n      pop\n      jump\t// out\n        /* \"#utility.yul\":11083:11428   */\n    tag_63:\n        /* \"#utility.yul\":11150:11156   */\n      0x00\n        /* \"#utility.yul\":11199:11201   */\n      0x20\n        /* \"#utility.yul\":11187:11196   */\n      dup3\n        /* \"#utility.yul\":11178:11185   */\n      dup5\n        /* \"#utility.yul\":11174:11197   */\n      sub\n        /* \"#utility.yul\":11170:11202   */\n      slt\n        /* \"#utility.yul\":11167:11286   */\n      iszero\n      tag_258\n      jumpi\n        /* \"#utility.yul\":11205:11284   */\n      tag_259\n      tag_114\n      jump\t// in\n    tag_259:\n        /* \"#utility.yul\":11167:11286   */\n    tag_258:\n        /* \"#utility.yul\":11325:11326   */\n      0x00\n        /* \"#utility.yul\":11350:11411   */\n      tag_260\n        /* \"#utility.yul\":11403:11410   */\n      dup5\n        /* \"#utility.yul\":11394:11400   */\n      dup3\n        /* \"#utility.yul\":11383:11392   */\n      dup6\n        /* \"#utility.yul\":11379:11401   */\n      add\n        /* \"#utility.yul\":11350:11411   */\n      tag_144\n      jump\t// in\n    tag_260:\n        /* \"#utility.yul\":11340:11411   */\n      swap2\n      pop\n        /* \"#utility.yul\":11296:11421   */\n      pop\n        /* \"#utility.yul\":11083:11428   */\n      swap3\n      swap2\n      pop\n      pop\n      jump\t// out\n        /* \"#utility.yul\":11434:11605   */\n    tag_145:\n        /* \"#utility.yul\":11574:11597   */\n      0x5472616e73666572206e6f742065786563757465640000000000000000000000\n        /* \"#utility.yul\":11570:11571   */\n      0x00\n        /* \"#utility.yul\":11562:11568   */\n      dup3\n        /* \"#utility.yul\":11558:11572   */\n      add\n        /* \"#utility.yul\":11551:11598   */\n      mstore\n        /* \"#utility.yul\":11434:11605   */\n      pop\n      jump\t// out\n        /* \"#utility.yul\":11611:11977   */\n    tag_146:\n        /* \"#utility.yul\":11753:11756   */\n      0x00\n        /* \"#utility.yul\":11774:11841   */\n      tag_263\n        /* \"#utility.yul\":11838:11840   */\n      0x15\n        /* \"#utility.yul\":11833:11836   */\n      dup4\n        /* \"#utility.yul\":11774:11841   */\n      tag_127\n      jump\t// in\n    tag_263:\n        /* \"#utility.yul\":11767:11841   */\n      swap2\n      pop\n        /* \"#utility.yul\":11850:11943   */\n      tag_264\n        /* \"#utility.yul\":11939:11942   */\n      dup3\n        /* \"#utility.yul\":11850:11943   */\n      tag_145\n      jump\t// in\n    tag_264:\n        /* \"#utility.yul\":11968:11970   */\n      0x20\n        /* \"#utility.yul\":11963:11966   */\n      dup3\n        /* \"#utility.yul\":11959:11971   */\n      add\n        /* \"#utility.yul\":11952:11971   */\n      swap1\n      pop\n        /* \"#utility.yul\":11611:11977   */\n      swap2\n      swap1\n      pop\n      jump\t// out\n        /* \"#utility.yul\":11983:12402   */\n    tag_66:\n        /* \"#utility.yul\":12149:12153   */\n      0x00\n        /* \"#utility.yul\":12187:12189   */\n      0x20\n        /* \"#utility.yul\":12176:12185   */\n      dup3\n        /* \"#utility.yul\":12172:12190   */\n      add\n        /* \"#utility.yul\":12164:12190   */\n      swap1\n      pop\n        /* \"#utility.yul\":12236:12245   */\n      dup2\n        /* \"#utility.yul\":12230:12234   */\n      dup2\n        /* \"#utility.yul\":12226:12246   */\n      sub\n        /* \"#utility.yul\":12222:12223   */\n      0x00\n        /* \"#utility.yul\":12211:12220   */\n      dup4\n        /* \"#utility.yul\":12207:12224   */\n      add\n        /* \"#utility.yul\":12200:12247   */\n      mstore\n        /* \"#utility.yul\":12264:12395   */\n      tag_266\n        /* \"#utility.yul\":12390:12394   */\n      dup2\n        /* \"#utility.yul\":12264:12395   */\n      tag_146\n      jump\t// in\n    tag_266:\n        /* \"#utility.yul\":12256:12395   */\n      swap1\n      pop\n        /* \"#utility.yul\":11983:12402   */\n      swap2\n      swap1\n      pop\n      jump\t// out\n        /* \"#utility.yul\":12408:12588   */\n    tag_147:\n        /* \"#utility.yul\":12456:12533   */\n      0x4e487b7100000000000000000000000000000000000000000000000000000000\n        /* \"#utility.yul\":12453:12454   */\n      0x00\n        /* \"#utility.yul\":12446:12534   */\n      mstore\n        /* \"#utility.yul\":12553:12557   */\n      0x11\n        /* \"#utility.yul\":12550:12551   */\n      0x04\n        /* \"#utility.yul\":12543:12558   */\n      mstore\n        /* \"#utility.yul\":12577:12581   */\n      0x24\n        /* \"#utility.yul\":12574:12575   */\n      0x00\n        /* \"#utility.yul\":12567:12582   */\n      revert\n        /* \"#utility.yul\":12594:12785   */\n    tag_68:\n        /* \"#utility.yul\":12634:12637   */\n      0x00\n        /* \"#utility.yul\":12653:12673   */\n      tag_269\n        /* \"#utility.yul\":12671:12672   */\n      dup3\n        /* \"#utility.yul\":12653:12673   */\n      tag_116\n      jump\t// in\n    tag_269:\n        /* \"#utility.yul\":12648:12673   */\n      swap2\n      pop\n        /* \"#utility.yul\":12687:12707   */\n      tag_270\n        /* \"#utility.yul\":12705:12706   */\n      dup4\n        /* \"#utility.yul\":12687:12707   */\n      tag_116\n      jump\t// in\n    tag_270:\n        /* \"#utility.yul\":12682:12707   */\n      swap3\n      pop\n        /* \"#utility.yul\":12730:12731   */\n      dup3\n        /* \"#utility.yul\":12727:12728   */\n      dup3\n        /* \"#utility.yul\":12723:12732   */\n      add\n        /* \"#utility.yul\":12716:12732   */\n      swap1\n      pop\n        /* \"#utility.yul\":12751:12754   */\n      dup1\n        /* \"#utility.yul\":12748:12749   */\n      dup3\n        /* \"#utility.yul\":12745:12755   */\n      gt\n        /* \"#utility.yul\":12742:12778   */\n      iszero\n      tag_271\n      jumpi\n        /* \"#utility.yul\":12758:12776   */\n      tag_272\n      tag_147\n      jump\t// in\n    tag_272:\n        /* \"#utility.yul\":12742:12778   */\n    tag_271:\n        /* \"#utility.yul\":12594:12785   */\n      swap3\n      swap2\n      pop\n      pop\n      jump\t// out\n        /* \"#utility.yul\":12791:13123   */\n    tag_74:\n        /* \"#utility.yul\":12912:12916   */\n      0x00\n        /* \"#utility.yul\":12950:12952   */\n      0x40\n        /* \"#utility.yul\":12939:12948   */\n      dup3\n        /* \"#utility.yul\":12935:12953   */\n      add\n        /* \"#utility.yul\":12927:12953   */\n      swap1\n      pop\n        /* \"#utility.yul\":12963:13034   */\n      tag_274\n        /* \"#utility.yul\":13031:13032   */\n      0x00\n        /* \"#utility.yul\":13020:13029   */\n      dup4\n        /* \"#utility.yul\":13016:13033   */\n      add\n        /* \"#utility.yul\":13007:13013   */\n      dup6\n        /* \"#utility.yul\":12963:13034   */\n      tag_119\n      jump\t// in\n    tag_274:\n        /* \"#utility.yul\":13044:13116   */\n      tag_275\n        /* \"#utility.yul\":13112:13114   */\n      0x20\n        /* \"#utility.yul\":13101:13110   */\n      dup4\n        /* \"#utility.yul\":13097:13115   */\n      add\n        /* \"#utility.yul\":13088:13094   */\n      dup5\n        /* \"#utility.yul\":13044:13116   */\n      tag_119\n      jump\t// in\n    tag_275:\n        /* \"#utility.yul\":12791:13123   */\n      swap4\n      swap3\n      pop\n      pop\n      pop\n      jump\t// out\n        /* \"#utility.yul\":13129:13300   */\n    tag_148:\n        /* \"#utility.yul\":13269:13292   */\n      0x4f6e6c79206f776e65722063616e206163636573730000000000000000000000\n        /* \"#utility.yul\":13265:13266   */\n      0x00\n        /* \"#utility.yul\":13257:13263   */\n      dup3\n        /* \"#utility.yul\":13253:13267   */\n      add\n        /* \"#utility.yul\":13246:13293   */\n      mstore\n        /* \"#utility.yul\":13129:13300   */\n      pop\n      jump\t// out\n        /* \"#utility.yul\":13306:13672   */\n    tag_149:\n        /* \"#utility.yul\":13448:13451   */\n      0x00\n        /* \"#utility.yul\":13469:13536   */\n      tag_278\n        /* \"#utility.yul\":13533:13535   */\n      0x15\n        /* \"#utility.yul\":13528:13531   */\n      dup4\n        /* \"#utility.yul\":13469:13536   */\n      tag_127\n      jump\t// in\n    tag_278:\n        /* \"#utility.yul\":13462:13536   */\n      swap2\n      pop\n        /* \"#utility.yul\":13545:13638   */\n      tag_279\n        /* \"#utility.yul\":13634:13637   */\n      dup3\n        /* \"#utility.yul\":13545:13638   */\n      tag_148\n      jump\t// in\n    tag_279:\n        /* \"#utility.yul\":13663:13665   */\n      0x20\n        /* \"#utility.yul\":13658:13661   */\n      dup3\n        /* \"#utility.yul\":13654:13666   */\n      add\n        /* \"#utility.yul\":13647:13666   */\n      swap1\n      pop\n        /* \"#utility.yul\":13306:13672   */\n      swap2\n      swap1\n      pop\n      jump\t// out\n        /* \"#utility.yul\":13678:14097   */\n    tag_78:\n        /* \"#utility.yul\":13844:13848   */\n      0x00\n        /* \"#utility.yul\":13882:13884   */\n      0x20\n        /* \"#utility.yul\":13871:13880   */\n      dup3\n        /* \"#utility.yul\":13867:13885   */\n      add\n        /* \"#utility.yul\":13859:13885   */\n      swap1\n      pop\n        /* \"#utility.yul\":13931:13940   */\n      dup2\n        /* \"#utility.yul\":13925:13929   */\n      dup2\n        /* \"#utility.yul\":13921:13941   */\n      sub\n        /* \"#utility.yul\":13917:13918   */\n      0x00\n        /* \"#utility.yul\":13906:13915   */\n      dup4\n        /* \"#utility.yul\":13902:13919   */\n      add\n        /* \"#utility.yul\":13895:13942   */\n      mstore\n        /* \"#utility.yul\":13959:14090   */\n      tag_281\n        /* \"#utility.yul\":14085:14089   */\n      dup2\n        /* \"#utility.yul\":13959:14090   */\n      tag_149\n      jump\t// in\n    tag_281:\n        /* \"#utility.yul\":13951:14090   */\n      swap1\n      pop\n        /* \"#utility.yul\":13678:14097   */\n      swap2\n      swap1\n      pop\n      jump\t// out\n        /* \"#utility.yul\":14103:14265   */\n    tag_150:\n        /* \"#utility.yul\":14243:14257   */\n      0x4f7574206f6620626f756e640000000000000000000000000000000000000000\n        /* \"#utility.yul\":14239:14240   */\n      0x00\n        /* \"#utility.yul\":14231:14237   */\n      dup3\n        /* \"#utility.yul\":14227:14241   */\n      add\n        /* \"#utility.yul\":14220:14258   */\n      mstore\n        /* \"#utility.yul\":14103:14265   */\n      pop\n      jump\t// out\n        /* \"#utility.yul\":14271:14637   */\n    tag_151:\n        /* \"#utility.yul\":14413:14416   */\n      0x00\n        /* \"#utility.yul\":14434:14501   */\n      tag_284\n        /* \"#utility.yul\":14498:14500   */\n      0x0c\n        /* \"#utility.yul\":14493:14496   */\n      dup4\n        /* \"#utility.yul\":14434:14501   */\n      tag_127\n      jump\t// in\n    tag_284:\n        /* \"#utility.yul\":14427:14501   */\n      swap2\n      pop\n        /* \"#utility.yul\":14510:14603   */\n      tag_285\n        /* \"#utility.yul\":14599:14602   */\n      dup3\n        /* \"#utility.yul\":14510:14603   */\n      tag_150\n      jump\t// in\n    tag_285:\n        /* \"#utility.yul\":14628:14630   */\n      0x20\n        /* \"#utility.yul\":14623:14626   */\n      dup3\n        /* \"#utility.yul\":14619:14631   */\n      add\n        /* \"#utility.yul\":14612:14631   */\n      swap1\n      pop\n        /* \"#utility.yul\":14271:14637   */\n      swap2\n      swap1\n      pop\n      jump\t// out\n        /* \"#utility.yul\":14643:15062   */\n    tag_88:\n        /* \"#utility.yul\":14809:14813   */\n      0x00\n        /* \"#utility.yul\":14847:14849   */\n      0x20\n        /* \"#utility.yul\":14836:14845   */\n      dup3\n        /* \"#utility.yul\":14832:14850   */\n      add\n        /* \"#utility.yul\":14824:14850   */\n      swap1\n      pop\n        /* \"#utility.yul\":14896:14905   */\n      dup2\n        /* \"#utility.yul\":14890:14894   */\n      dup2\n        /* \"#utility.yul\":14886:14906   */\n      sub\n        /* \"#utility.yul\":14882:14883   */\n      0x00\n        /* \"#utility.yul\":14871:14880   */\n      dup4\n        /* \"#utility.yul\":14867:14884   */\n      add\n        /* \"#utility.yul\":14860:14907   */\n      mstore\n        /* \"#utility.yul\":14924:15055   */\n      tag_287\n        /* \"#utility.yul\":15050:15054   */\n      dup2\n        /* \"#utility.yul\":14924:15055   */\n      tag_151\n      jump\t// in\n    tag_287:\n        /* \"#utility.yul\":14916:15055   */\n      swap1\n      pop\n        /* \"#utility.yul\":14643:15062   */\n      swap2\n      swap1\n      pop\n      jump\t// out\n        /* \"#utility.yul\":15068:15248   */\n    tag_91:\n        /* \"#utility.yul\":15116:15193   */\n      0x4e487b7100000000000000000000000000000000000000000000000000000000\n        /* \"#utility.yul\":15113:15114   */\n      0x00\n        /* \"#utility.yul\":15106:15194   */\n      mstore\n        /* \"#utility.yul\":15213:15217   */\n      0x32\n        /* \"#utility.yul\":15210:15211   */\n      0x04\n        /* \"#utility.yul\":15203:15218   */\n      mstore\n        /* \"#utility.yul\":15237:15241   */\n      0x24\n        /* \"#utility.yul\":15234:15235   */\n      0x00\n        /* \"#utility.yul\":15227:15242   */\n      revert\n        /* \"#utility.yul\":15254:15415   */\n    tag_152:\n        /* \"#utility.yul\":15394:15407   */\n      0x4e6f742079657420647565000000000000000000000000000000000000000000\n        /* \"#utility.yul\":15390:15391   */\n      0x00\n        /* \"#utility.yul\":15382:15388   */\n      dup3\n        /* \"#utility.yul\":15378:15392   */\n      add\n        /* \"#utility.yul\":15371:15408   */\n      mstore\n        /* \"#utility.yul\":15254:15415   */\n      pop\n      jump\t// out\n        /* \"#utility.yul\":15421:15787   */\n    tag_153:\n        /* \"#utility.yul\":15563:15566   */\n      0x00\n        /* \"#utility.yul\":15584:15651   */\n      tag_291\n        /* \"#utility.yul\":15648:15650   */\n      0x0b\n        /* \"#utility.yul\":15643:15646   */\n      dup4\n        /* \"#utility.yul\":15584:15651   */\n      tag_127\n      jump\t// in\n    tag_291:\n        /* \"#utility.yul\":15577:15651   */\n      swap2\n      pop\n        /* \"#utility.yul\":15660:15753   */\n      tag_292\n        /* \"#utility.yul\":15749:15752   */\n      dup3\n        /* \"#utility.yul\":15660:15753   */\n      tag_152\n      jump\t// in\n    tag_292:\n        /* \"#utility.yul\":15778:15780   */\n      0x20\n        /* \"#utility.yul\":15773:15776   */\n      dup3\n        /* \"#utility.yul\":15769:15781   */\n      add\n        /* \"#utility.yul\":15762:15781   */\n      swap1\n      pop\n        /* \"#utility.yul\":15421:15787   */\n      swap2\n      swap1\n      pop\n      jump\t// out\n        /* \"#utility.yul\":15793:16212   */\n    tag_95:\n        /* \"#utility.yul\":15959:15963   */\n      0x00\n        /* \"#utility.yul\":15997:15999   */\n      0x20\n        /* \"#utility.yul\":15986:15995   */\n      dup3\n        /* \"#utility.yul\":15982:16000   */\n      add\n        /* \"#utility.yul\":15974:16000   */\n      swap1\n      pop\n        /* \"#utility.yul\":16046:16055   */\n      dup2\n        /* \"#utility.yul\":16040:16044   */\n      dup2\n        /* \"#utility.yul\":16036:16056   */\n      sub\n        /* \"#utility.yul\":16032:16033   */\n      0x00\n        /* \"#utility.yul\":16021:16030   */\n      dup4\n        /* \"#utility.yul\":16017:16034   */\n      add\n        /* \"#utility.yul\":16010:16057   */\n      mstore\n        /* \"#utility.yul\":16074:16205   */\n      tag_294\n        /* \"#utility.yul\":16200:16204   */\n      dup2\n        /* \"#utility.yul\":16074:16205   */\n      tag_153\n      jump\t// in\n    tag_294:\n        /* \"#utility.yul\":16066:16205   */\n      swap1\n      pop\n        /* \"#utility.yul\":15793:16212   */\n      swap2\n      swap1\n      pop\n      jump\t// out\n        /* \"#utility.yul\":16218:16412   */\n    tag_97:\n        /* \"#utility.yul\":16258:16262   */\n      0x00\n        /* \"#utility.yul\":16278:16298   */\n      tag_296\n        /* \"#utility.yul\":16296:16297   */\n      dup3\n        /* \"#utility.yul\":16278:16298   */\n      tag_116\n      jump\t// in\n    tag_296:\n        /* \"#utility.yul\":16273:16298   */\n      swap2\n      pop\n        /* \"#utility.yul\":16312:16332   */\n      tag_297\n        /* \"#utility.yul\":16330:16331   */\n      dup4\n        /* \"#utility.yul\":16312:16332   */\n      tag_116\n      jump\t// in\n    tag_297:\n        /* \"#utility.yul\":16307:16332   */\n      swap3\n      pop\n        /* \"#utility.yul\":16356:16357   */\n      dup3\n        /* \"#utility.yul\":16353:16354   */\n      dup3\n        /* \"#utility.yul\":16349:16358   */\n      sub\n        /* \"#utility.yul\":16341:16358   */\n      swap1\n      pop\n        /* \"#utility.yul\":16380:16381   */\n      dup2\n        /* \"#utility.yul\":16374:16378   */\n      dup2\n        /* \"#utility.yul\":16371:16382   */\n      gt\n        /* \"#utility.yul\":16368:16405   */\n      iszero\n      tag_298\n      jumpi\n        /* \"#utility.yul\":16385:16403   */\n      tag_299\n      tag_147\n      jump\t// in\n    tag_299:\n        /* \"#utility.yul\":16368:16405   */\n    tag_298:\n        /* \"#utility.yul\":16218:16412   */\n      swap3\n      swap2\n      pop\n      pop\n      jump\t// out\n        /* \"#utility.yul\":16418:16750   */\n    tag_99:\n        /* \"#utility.yul\":16539:16543   */\n      0x00\n        /* \"#utility.yul\":16577:16579   */\n      0x40\n        /* \"#utility.yul\":16566:16575   */\n      dup3\n        /* \"#utility.yul\":16562:16580   */\n      add\n        /* \"#utility.yul\":16554:16580   */\n      swap1\n      pop\n        /* \"#utility.yul\":16590:16661   */\n      tag_301\n        /* \"#utility.yul\":16658:16659   */\n      0x00\n        /* \"#utility.yul\":16647:16656   */\n      dup4\n        /* \"#utility.yul\":16643:16660   */\n      add\n        /* \"#utility.yul\":16634:16640   */\n      dup6\n        /* \"#utility.yul\":16590:16661   */\n      tag_136\n      jump\t// in\n    tag_301:\n        /* \"#utility.yul\":16671:16743   */\n      tag_302\n        /* \"#utility.yul\":16739:16741   */\n      0x20\n        /* \"#utility.yul\":16728:16737   */\n      dup4\n        /* \"#utility.yul\":16724:16742   */\n      add\n        /* \"#utility.yul\":16715:16721   */\n      dup5\n        /* \"#utility.yul\":16671:16743   */\n      tag_119\n      jump\t// in\n    tag_302:\n        /* \"#utility.yul\":16418:16750   */\n      swap4\n      swap3\n      pop\n      pop\n      pop\n      jump\t// out\n        /* \"#utility.yul\":16756:16937   */\n    tag_154:\n        /* \"#utility.yul\":16896:16929   */\n      0x6e6577206f776e65722063616e2774206265207a65726f206164647265737300\n        /* \"#utility.yul\":16892:16893   */\n      0x00\n        /* \"#utility.yul\":16884:16890   */\n      dup3\n        /* \"#utility.yul\":16880:16894   */\n      add\n        /* \"#utility.yul\":16873:16930   */\n      mstore\n        /* \"#utility.yul\":16756:16937   */\n      pop\n      jump\t// out\n        /* \"#utility.yul\":16943:17309   */\n    tag_155:\n        /* \"#utility.yul\":17085:17088   */\n      0x00\n        /* \"#utility.yul\":17106:17173   */\n      tag_305\n        /* \"#utility.yul\":17170:17172   */\n      0x1f\n        /* \"#utility.yul\":17165:17168   */\n      dup4\n        /* \"#utility.yul\":17106:17173   */\n      tag_127\n      jump\t// in\n    tag_305:\n        /* \"#utility.yul\":17099:17173   */\n      swap2\n      pop\n        /* \"#utility.yul\":17182:17275   */\n      tag_306\n        /* \"#utility.yul\":17271:17274   */\n      dup3\n        /* \"#utility.yul\":17182:17275   */\n      tag_154\n      jump\t// in\n    tag_306:\n        /* \"#utility.yul\":17300:17302   */\n      0x20\n        /* \"#utility.yul\":17295:17298   */\n      dup3\n        /* \"#utility.yul\":17291:17303   */\n      add\n        /* \"#utility.yul\":17284:17303   */\n      swap1\n      pop\n        /* \"#utility.yul\":16943:17309   */\n      swap2\n      swap1\n      pop\n      jump\t// out\n        /* \"#utility.yul\":17315:17734   */\n    tag_112:\n        /* \"#utility.yul\":17481:17485   */\n      0x00\n        /* \"#utility.yul\":17519:17521   */\n      0x20\n        /* \"#utility.yul\":17508:17517   */\n      dup3\n        /* \"#utility.yul\":17504:17522   */\n      add\n        /* \"#utility.yul\":17496:17522   */\n      swap1\n      pop\n        /* \"#utility.yul\":17568:17577   */\n      dup2\n        /* \"#utility.yul\":17562:17566   */\n      dup2\n        /* \"#utility.yul\":17558:17578   */\n      sub\n        /* \"#utility.yul\":17554:17555   */\n      0x00\n        /* \"#utility.yul\":17543:17552   */\n      dup4\n        /* \"#utility.yul\":17539:17556   */\n      add\n        /* \"#utility.yul\":17532:17579   */\n      mstore\n        /* \"#utility.yul\":17596:17727   */\n      tag_308\n        /* \"#utility.yul\":17722:17726   */\n      dup2\n        /* \"#utility.yul\":17596:17727   */\n      tag_155\n      jump\t// in\n    tag_308:\n        /* \"#utility.yul\":17588:17727   */\n      swap1\n      pop\n        /* \"#utility.yul\":17315:17734   */\n      swap2\n      swap1\n      pop\n      jump\t// out\n\n    auxdata: 0xa2646970667358221220e6729253c3d4c51773abf4e5ba0e10aa9354e954936da41fd9216abef15c021464736f6c634300081c0033\n}\n",
				"bytecode": {
					"linkReferences": {},
					"object": "608060405234801561000f575f5ffd5b5060405161166a38038061166a83398181016040528101906100319190610114565b805f5f6101000a81548173ffffffffffffffffffffffffffffffffffffffff021916908373ffffffffffffffffffffffffffffffffffffffff1602179055503360015f6101000a81548173ffffffffffffffffffffffffffffffffffffffff021916908373ffffffffffffffffffffffffffffffffffffffff1602179055505061013f565b5f5ffd5b5f73ffffffffffffffffffffffffffffffffffffffff82169050919050565b5f6100e3826100ba565b9050919050565b6100f3816100d9565b81146100fd575f5ffd5b50565b5f8151905061010e816100ea565b92915050565b5f60208284031215610129576101286100b6565b5b5f61013684828501610100565b91505092915050565b61151e8061014c5f395ff3fe608060405234801561000f575f5ffd5b5060043610610055575f3560e01c80634e71e0c8146100595780636e4668c7146100635780636f9fb98a1461007f578063968cceaf1461009d578063f2fde38b146100b9575b5f5ffd5b6100616100d5565b005b61007d60048036038101906100789190610ce3565b610275565b005b610087610711565b6040516100949190610d30565b60405180910390f35b6100b760048036038101906100b29190610d7f565b6107a9565b005b6100d360048036038101906100ce9190610e04565b610ae6565b005b5f73ffffffffffffffffffffffffffffffffffffffff163373ffffffffffffffffffffffffffffffffffffffff1603610143576040517f08c379a000000000000000000000000000000000000000000000000000000000815260040161013a90610e89565b60405180910390fd5b60025f9054906101000a900473ffffffffffffffffffffffffffffffffffffffff1673ffffffffffffffffffffffffffffffffffffffff163373ffffffffffffffffffffffffffffffffffffffff16146101d2576040517f08c379a00000000000000000000000000000000000000000000000000000000081526004016101c990610ef1565b60405180910390fd5b60025f9054906101000a900473ffffffffffffffffffffffffffffffffffffffff1660015f6101000a81548173ffffffffffffffffffffffffffffffffffffffff021916908373ffffffffffffffffffffffffffffffffffffffff1602179055505f60025f6101000a81548173ffffffffffffffffffffffffffffffffffffffff021916908373ffffffffffffffffffffffffffffffffffffffff160217905550565b60045f9054906101000a900460ff16156102c4576040517f08c379a00000000000000000000000000000000000000000000000000000000081526004016102bb90610f59565b60405180910390fd5b600160045f6101000a81548160ff0219169083151502179055505f73ffffffffffffffffffffffffffffffffffffffff163373ffffffffffffffffffffffffffffffffffffffff160361034c576040517f08c379a000000000000000000000000000000000000000000000000000000000815260040161034390610fc1565b60405180910390fd5b5f5f5f9054906101000a900473ffffffffffffffffffffffffffffffffffffffff1673ffffffffffffffffffffffffffffffffffffffff166370a08231336040518263ffffffff1660e01b81526004016103a69190610fee565b602060405180830381865afa1580156103c1573d5f5f3e3d5ffd5b505050506040513d601f19601f820116820180604052508101906103e5919061101b565b90508281101561042a576040517f08c379a000000000000000000000000000000000000000000000000000000000815260040161042190611090565b60405180910390fd5b5f5f5f9054906101000a900473ffffffffffffffffffffffffffffffffffffffff1673ffffffffffffffffffffffffffffffffffffffff1663dd62ed3e33306040518363ffffffff1660e01b81526004016104869291906110ae565b602060405180830381865afa1580156104a1573d5f5f3e3d5ffd5b505050506040513d601f19601f820116820180604052508101906104c5919061101b565b90508381101561050a576040517f08c379a00000000000000000000000000000000000000000000000000000000081526004016105019061111f565b60405180910390fd5b5f5f5f9054906101000a900473ffffffffffffffffffffffffffffffffffffffff1673ffffffffffffffffffffffffffffffffffffffff166323b872dd3330886040518463ffffffff1660e01b81526004016105689392919061113d565b6020604051808303815f875af1158015610584573d5f5f3e3d5ffd5b505050506040513d601f19601f820116820180604052508101906105a891906111a7565b9050806105ea576040517f08c379a00000000000000000000000000000000000000000000000000000000081526004016105e19061121c565b60405180910390fd5b8460035f8282546105fb9190611267565b9250508190555061060a610c94565b85815f018181525050844261061f9190611267565b81602001818152505060055f3373ffffffffffffffffffffffffffffffffffffffff1673ffffffffffffffffffffffffffffffffffffffff1681526020019081526020015f2081908060018154018082558091505060019003905f5260205f2090600202015f909190919091505f820151815f01556020820151816001015550503373ffffffffffffffffffffffffffffffffffffffff167f61bb8b82654398e0bdd4e0d489b5e9104b6840211fd89f7264264c96589051fd87426040516106e892919061129a565b60405180910390a2505050505f60045f6101000a81548160ff0219169083151502179055505050565b5f60015f9054906101000a900473ffffffffffffffffffffffffffffffffffffffff1673ffffffffffffffffffffffffffffffffffffffff163373ffffffffffffffffffffffffffffffffffffffff16146107a1576040517f08c379a00000000000000000000000000000000000000000000000000000000081526004016107989061130b565b60405180910390fd5b600354905090565b60045f9054906101000a900460ff16156107f8576040517f08c379a00000000000000000000000000000000000000000000000000000000081526004016107ef90610f59565b60405180910390fd5b600160045f6101000a81548160ff0219169083151502179055505f73ffffffffffffffffffffffffffffffffffffffff163373ffffffffffffffffffffffffffffffffffffffff1603610880576040517f08c379a000000000000000000000000000000000000000000000000000000000815260040161087790610fc1565b60405180910390fd5b60055f3373ffffffffffffffffffffffffffffffffffffffff1673ffffffffffffffffffffffffffffffffffffffff1681526020019081526020015f20805490508160ff1610610905576040517f08c379a00000000000000000000000000000000000000000000000000000000081526004016108fc90611373565b60405180910390fd5b5f60055f3373ffffffffffffffffffffffffffffffffffffffff1673ffffffffffffffffffffffffffffffffffffffff1681526020019081526020015f208260ff168154811061095857610957611391565b5b905f5260205f2090600202019050428160010154106109ac576040517f08c379a00000000000000000000000000000000000000000000000000000000081526004016109a390611408565b60405180910390fd5b5f815f015490505f825f01819055505f82600101819055508060035f8282546109d59190611426565b925050819055505f5f9054906101000a900473ffffffffffffffffffffffffffffffffffffffff1673ffffffffffffffffffffffffffffffffffffffff1663a9059cbb33836040518363ffffffff1660e01b8152600401610a37929190611459565b6020604051808303815f875af1158015610a53573d5f5f3e3d5ffd5b505050506040513d601f19601f82011682018060405250810190610a7791906111a7565b503373ffffffffffffffffffffffffffffffffffffffff167ffb59733a8f0bd43414922fb86c6ffdd090e44935074086318980ca89221acc568242604051610ac092919061129a565b60405180910390a250505f60045f6101000a81548160ff02191690831515021790555050565b60015f9054906101000a900473ffffffffffffffffffffffffffffffffffffffff1673ffffffffffffffffffffffffffffffffffffffff163373ffffffffffffffffffffffffffffffffffffffff1614610b75576040517f08c379a0000000000000000000000000000000000000000000000000000000008152600401610b6c9061130b565b60405180910390fd5b5f73ffffffffffffffffffffffffffffffffffffffff163373ffffffffffffffffffffffffffffffffffffffff1603610be3576040517f08c379a0000000000000000000000000000000000000000000000000000000008152600401610bda90610e89565b60405180910390fd5b5f73ffffffffffffffffffffffffffffffffffffffff168173ffffffffffffffffffffffffffffffffffffffff1603610c51576040517f08c379a0000000000000000000000000000000000000000000000000000000008152600401610c48906114ca565b60405180910390fd5b8060025f6101000a81548173ffffffffffffffffffffffffffffffffffffffff021916908373ffffffffffffffffffffffffffffffffffffffff16021790555050565b60405180604001604052805f81526020015f81525090565b5f5ffd5b5f819050919050565b610cc281610cb0565b8114610ccc575f5ffd5b50565b5f81359050610cdd81610cb9565b92915050565b5f5f60408385031215610cf957610cf8610cac565b5b5f610d0685828601610ccf565b9250506020610d1785828601610ccf565b9150509250929050565b610d2a81610cb0565b82525050565b5f602082019050610d435f830184610d21565b92915050565b5f60ff82169050919050565b610d5e81610d49565b8114610d68575f5ffd5b50565b5f81359050610d7981610d55565b92915050565b5f60208284031215610d9457610d93610cac565b5b5f610da184828501610d6b565b91505092915050565b5f73ffffffffffffffffffffffffffffffffffffffff82169050919050565b5f610dd382610daa565b9050919050565b610de381610dc9565b8114610ded575f5ffd5b50565b5f81359050610dfe81610dda565b92915050565b5f60208284031215610e1957610e18610cac565b5b5f610e2684828501610df0565b91505092915050565b5f82825260208201905092915050565b7f49742063616e277420626520796f7500000000000000000000000000000000005f82015250565b5f610e73600f83610e2f565b9150610e7e82610e3f565b602082019050919050565b5f6020820190508181035f830152610ea081610e67565b9050919050565b7f4e6f7420796f7572207475726e207965740000000000000000000000000000005f82015250565b5f610edb601183610e2f565b9150610ee682610ea7565b602082019050919050565b5f6020820190508181035f830152610f0881610ecf565b9050919050565b7f4e6f7420616c6c6f77656420746f2072652d656e7465720000000000000000005f82015250565b5f610f43601783610e2f565b9150610f4e82610f0f565b602082019050919050565b5f6020820190508181035f830152610f7081610f37565b9050919050565b7f5a65726f2061646472657373206e6f7420616c6c6f77656400000000000000005f82015250565b5f610fab601883610e2f565b9150610fb682610f77565b602082019050919050565b5f6020820190508181035f830152610fd881610f9f565b9050919050565b610fe881610dc9565b82525050565b5f6020820190506110015f830184610fdf565b92915050565b5f8151905061101581610cb9565b92915050565b5f602082840312156110305761102f610cac565b5b5f61103d84828501611007565b91505092915050565b7f596f75722062616c616e6365206973206e6f7420656e6f7567680000000000005f82015250565b5f61107a601a83610e2f565b915061108582611046565b602082019050919050565b5f6020820190508181035f8301526110a78161106e565b9050919050565b5f6040820190506110c15f830185610fdf565b6110ce6020830184610fdf565b9392505050565b7f416d6f756e7420616c6c6f776564206973206e6f7420656e6f756768000000005f82015250565b5f611109601c83610e2f565b9150611114826110d5565b602082019050919050565b5f6020820190508181035f830152611136816110fd565b9050919050565b5f6060820190506111505f830186610fdf565b61115d6020830185610fdf565b61116a6040830184610d21565b949350505050565b5f8115159050919050565b61118681611172565b8114611190575f5ffd5b50565b5f815190506111a18161117d565b92915050565b5f602082840312156111bc576111bb610cac565b5b5f6111c984828501611193565b91505092915050565b7f5472616e73666572206e6f7420657865637574656400000000000000000000005f82015250565b5f611206601583610e2f565b9150611211826111d2565b602082019050919050565b5f6020820190508181035f830152611233816111fa565b9050919050565b7f4e487b71000000000000000000000000000000000000000000000000000000005f52601160045260245ffd5b5f61127182610cb0565b915061127c83610cb0565b92508282019050808211156112945761129361123a565b5b92915050565b5f6040820190506112ad5f830185610d21565b6112ba6020830184610d21565b9392505050565b7f4f6e6c79206f776e65722063616e2061636365737300000000000000000000005f82015250565b5f6112f5601583610e2f565b9150611300826112c1565b602082019050919050565b5f6020820190508181035f830152611322816112e9565b9050919050565b7f4f7574206f6620626f756e6400000000000000000000000000000000000000005f82015250565b5f61135d600c83610e2f565b915061136882611329565b602082019050919050565b5f6020820190508181035f83015261138a81611351565b9050919050565b7f4e487b71000000000000000000000000000000000000000000000000000000005f52603260045260245ffd5b7f4e6f7420796574206475650000000000000000000000000000000000000000005f82015250565b5f6113f2600b83610e2f565b91506113fd826113be565b602082019050919050565b5f6020820190508181035f83015261141f816113e6565b9050919050565b5f61143082610cb0565b915061143b83610cb0565b92508282039050818111156114535761145261123a565b5b92915050565b5f60408201905061146c5f830185610fdf565b6114796020830184610d21565b9392505050565b7f6e6577206f776e65722063616e2774206265207a65726f2061646472657373005f82015250565b5f6114b4601f83610e2f565b91506114bf82611480565b602082019050919050565b5f6020820190508181035f8301526114e1816114a8565b905091905056fea2646970667358221220e6729253c3d4c51773abf4e5ba0e10aa9354e954936da41fd9216abef15c021464736f6c634300081c0033",
					"opcodes": "PUSH1 0x80 PUSH1 0x40 MSTORE CALLVALUE DUP1 ISZERO PUSH2 0xF JUMPI PUSH0 PUSH0 REVERT JUMPDEST POP PUSH1 0x40 MLOAD PUSH2 0x166A CODESIZE SUB DUP1 PUSH2 0x166A DUP4 CODECOPY DUP2 DUP2 ADD PUSH1 0x40 MSTORE DUP2 ADD SWAP1 PUSH2 0x31 SWAP2 SWAP1 PUSH2 0x114 JUMP JUMPDEST DUP1 PUSH0 PUSH0 PUSH2 0x100 EXP DUP2 SLOAD DUP2 PUSH20 0xFFFFFFFFFFFFFFFFFFFFFFFFFFFFFFFFFFFFFFFF MUL NOT AND SWAP1 DUP4 PUSH20 0xFFFFFFFFFFFFFFFFFFFFFFFFFFFFFFFFFFFFFFFF AND MUL OR SWAP1 SSTORE POP CALLER PUSH1 0x1 PUSH0 PUSH2 0x100 EXP DUP2 SLOAD DUP2 PUSH20 0xFFFFFFFFFFFFFFFFFFFFFFFFFFFFFFFFFFFFFFFF MUL NOT AND SWAP1 DUP4 PUSH20 0xFFFFFFFFFFFFFFFFFFFFFFFFFFFFFFFFFFFFFFFF AND MUL OR SWAP1 SSTORE POP POP PUSH2 0x13F JUMP JUMPDEST PUSH0 PUSH0 REVERT JUMPDEST PUSH0 PUSH20 0xFFFFFFFFFFFFFFFFFFFFFFFFFFFFFFFFFFFFFFFF DUP3 AND SWAP1 POP SWAP2 SWAP1 POP JUMP JUMPDEST PUSH0 PUSH2 0xE3 DUP3 PUSH2 0xBA JUMP JUMPDEST SWAP1 POP SWAP2 SWAP1 POP JUMP JUMPDEST PUSH2 0xF3 DUP2 PUSH2 0xD9 JUMP JUMPDEST DUP2 EQ PUSH2 0xFD JUMPI PUSH0 PUSH0 REVERT JUMPDEST POP JUMP JUMPDEST PUSH0 DUP2 MLOAD SWAP1 POP PUSH2 0x10E DUP2 PUSH2 0xEA JUMP JUMPDEST SWAP3 SWAP2 POP POP JUMP JUMPDEST PUSH0 PUSH1 0x20 DUP3 DUP5 SUB SLT ISZERO PUSH2 0x129 JUMPI PUSH2 0x128 PUSH2 0xB6 JUMP JUMPDEST JUMPDEST PUSH0 PUSH2 0x136 DUP5 DUP3 DUP6 ADD PUSH2 0x100 JUMP JUMPDEST SWAP2 POP POP SWAP3 SWAP2 POP POP JUMP JUMPDEST PUSH2 0x151E DUP1 PUSH2 0x14C PUSH0 CODECOPY PUSH0 RETURN INVALID PUSH1 0x80 PUSH1 0x40 MSTORE CALLVALUE DUP1 ISZERO PUSH2 0xF JUMPI PUSH0 PUSH0 REVERT JUMPDEST POP PUSH1 0x4 CALLDATASIZE LT PUSH2 0x55 JUMPI PUSH0 CALLDATALOAD PUSH1 0xE0 SHR DUP1 PUSH4 0x4E71E0C8 EQ PUSH2 0x59 JUMPI DUP1 PUSH4 0x6E4668C7 EQ PUSH2 0x63 JUMPI DUP1 PUSH4 0x6F9FB98A EQ PUSH2 0x7F JUMPI DUP1 PUSH4 0x968CCEAF EQ PUSH2 0x9D JUMPI DUP1 PUSH4 0xF2FDE38B EQ PUSH2 0xB9 JUMPI JUMPDEST PUSH0 PUSH0 REVERT JUMPDEST PUSH2 0x61 PUSH2 0xD5 JUMP JUMPDEST STOP JUMPDEST PUSH2 0x7D PUSH1 0x4 DUP1 CALLDATASIZE SUB DUP2 ADD SWAP1 PUSH2 0x78 SWAP2 SWAP1 PUSH2 0xCE3 JUMP JUMPDEST PUSH2 0x275 JUMP JUMPDEST STOP JUMPDEST PUSH2 0x87 PUSH2 0x711 JUMP JUMPDEST PUSH1 0x40 MLOAD PUSH2 0x94 SWAP2 SWAP1 PUSH2 0xD30 JUMP JUMPDEST PUSH1 0x40 MLOAD DUP1 SWAP2 SUB SWAP1 RETURN JUMPDEST PUSH2 0xB7 PUSH1 0x4 DUP1 CALLDATASIZE SUB DUP2 ADD SWAP1 PUSH2 0xB2 SWAP2 SWAP1 PUSH2 0xD7F JUMP JUMPDEST PUSH2 0x7A9 JUMP JUMPDEST STOP JUMPDEST PUSH2 0xD3 PUSH1 0x4 DUP1 CALLDATASIZE SUB DUP2 ADD SWAP1 PUSH2 0xCE SWAP2 SWAP1 PUSH2 0xE04 JUMP JUMPDEST PUSH2 0xAE6 JUMP JUMPDEST STOP JUMPDEST PUSH0 PUSH20 0xFFFFFFFFFFFFFFFFFFFFFFFFFFFFFFFFFFFFFFFF AND CALLER PUSH20 0xFFFFFFFFFFFFFFFFFFFFFFFFFFFFFFFFFFFFFFFF AND SUB PUSH2 0x143 JUMPI PUSH1 0x40 MLOAD PUSH32 0x8C379A000000000000000000000000000000000000000000000000000000000 DUP2 MSTORE PUSH1 0x4 ADD PUSH2 0x13A SWAP1 PUSH2 0xE89 JUMP JUMPDEST PUSH1 0x40 MLOAD DUP1 SWAP2 SUB SWAP1 REVERT JUMPDEST PUSH1 0x2 PUSH0 SWAP1 SLOAD SWAP1 PUSH2 0x100 EXP SWAP1 DIV PUSH20 0xFFFFFFFFFFFFFFFFFFFFFFFFFFFFFFFFFFFFFFFF AND PUSH20 0xFFFFFFFFFFFFFFFFFFFFFFFFFFFFFFFFFFFFFFFF AND CALLER PUSH20 0xFFFFFFFFFFFFFFFFFFFFFFFFFFFFFFFFFFFFFFFF AND EQ PUSH2 0x1D2 JUMPI PUSH1 0x40 MLOAD PUSH32 0x8C379A000000000000000000000000000000000000000000000000000000000 DUP2 MSTORE PUSH1 0x4 ADD PUSH2 0x1C9 SWAP1 PUSH2 0xEF1 JUMP JUMPDEST PUSH1 0x40 MLOAD DUP1 SWAP2 SUB SWAP1 REVERT JUMPDEST PUSH1 0x2 PUSH0 SWAP1 SLOAD SWAP1 PUSH2 0x100 EXP SWAP1 DIV PUSH20 0xFFFFFFFFFFFFFFFFFFFFFFFFFFFFFFFFFFFFFFFF AND PUSH1 0x1 PUSH0 PUSH2 0x100 EXP DUP2 SLOAD DUP2 PUSH20 0xFFFFFFFFFFFFFFFFFFFFFFFFFFFFFFFFFFFFFFFF MUL NOT AND SWAP1 DUP4 PUSH20 0xFFFFFFFFFFFFFFFFFFFFFFFFFFFFFFFFFFFFFFFF AND MUL OR SWAP1 SSTORE POP PUSH0 PUSH1 0x2 PUSH0 PUSH2 0x100 EXP DUP2 SLOAD DUP2 PUSH20 0xFFFFFFFFFFFFFFFFFFFFFFFFFFFFFFFFFFFFFFFF MUL NOT AND SWAP1 DUP4 PUSH20 0xFFFFFFFFFFFFFFFFFFFFFFFFFFFFFFFFFFFFFFFF AND MUL OR SWAP1 SSTORE POP JUMP JUMPDEST PUSH1 0x4 PUSH0 SWAP1 SLOAD SWAP1 PUSH2 0x100 EXP SWAP1 DIV PUSH1 0xFF AND ISZERO PUSH2 0x2C4 JUMPI PUSH1 0x40 MLOAD PUSH32 0x8C379A000000000000000000000000000000000000000000000000000000000 DUP2 MSTORE PUSH1 0x4 ADD PUSH2 0x2BB SWAP1 PUSH2 0xF59 JUMP JUMPDEST PUSH1 0x40 MLOAD DUP1 SWAP2 SUB SWAP1 REVERT JUMPDEST PUSH1 0x1 PUSH1 0x4 PUSH0 PUSH2 0x100 EXP DUP2 SLOAD DUP2 PUSH1 0xFF MUL NOT AND SWAP1 DUP4 ISZERO ISZERO MUL OR SWAP1 SSTORE POP PUSH0 PUSH20 0xFFFFFFFFFFFFFFFFFFFFFFFFFFFFFFFFFFFFFFFF AND CALLER PUSH20 0xFFFFFFFFFFFFFFFFFFFFFFFFFFFFFFFFFFFFFFFF AND SUB PUSH2 0x34C JUMPI PUSH1 0x40 MLOAD PUSH32 0x8C379A000000000000000000000000000000000000000000000000000000000 DUP2 MSTORE PUSH1 0x4 ADD PUSH2 0x343 SWAP1 PUSH2 0xFC1 JUMP JUMPDEST PUSH1 0x40 MLOAD DUP1 SWAP2 SUB SWAP1 REVERT JUMPDEST PUSH0 PUSH0 PUSH0 SWAP1 SLOAD SWAP1 PUSH2 0x100 EXP SWAP1 DIV PUSH20 0xFFFFFFFFFFFFFFFFFFFFFFFFFFFFFFFFFFFFFFFF AND PUSH20 0xFFFFFFFFFFFFFFFFFFFFFFFFFFFFFFFFFFFFFFFF AND PUSH4 0x70A08231 CALLER PUSH1 0x40 MLOAD DUP3 PUSH4 0xFFFFFFFF AND PUSH1 0xE0 SHL DUP2 MSTORE PUSH1 0x4 ADD PUSH2 0x3A6 SWAP2 SWAP1 PUSH2 0xFEE JUMP JUMPDEST PUSH1 0x20 PUSH1 0x40 MLOAD DUP1 DUP4 SUB DUP2 DUP7 GAS STATICCALL ISZERO DUP1 ISZERO PUSH2 0x3C1 JUMPI RETURNDATASIZE PUSH0 PUSH0 RETURNDATACOPY RETURNDATASIZE PUSH0 REVERT JUMPDEST POP POP POP POP PUSH1 0x40 MLOAD RETURNDATASIZE PUSH1 0x1F NOT PUSH1 0x1F DUP3 ADD AND DUP3 ADD DUP1 PUSH1 0x40 MSTORE POP DUP2 ADD SWAP1 PUSH2 0x3E5 SWAP2 SWAP1 PUSH2 0x101B JUMP JUMPDEST SWAP1 POP DUP3 DUP2 LT ISZERO PUSH2 0x42A JUMPI PUSH1 0x40 MLOAD PUSH32 0x8C379A000000000000000000000000000000000000000000000000000000000 DUP2 MSTORE PUSH1 0x4 ADD PUSH2 0x421 SWAP1 PUSH2 0x1090 JUMP JUMPDEST PUSH1 0x40 MLOAD DUP1 SWAP2 SUB SWAP1 REVERT JUMPDEST PUSH0 PUSH0 PUSH0 SWAP1 SLOAD SWAP1 PUSH2 0x100 EXP SWAP1 DIV PUSH20 0xFFFFFFFFFFFFFFFFFFFFFFFFFFFFFFFFFFFFFFFF AND PUSH20 0xFFFFFFFFFFFFFFFFFFFFFFFFFFFFFFFFFFFFFFFF AND PUSH4 0xDD62ED3E CALLER ADDRESS PUSH1 0x40 MLOAD DUP4 PUSH4 0xFFFFFFFF AND PUSH1 0xE0 SHL DUP2 MSTORE PUSH1 0x4 ADD PUSH2 0x486 SWAP3 SWAP2 SWAP1 PUSH2 0x10AE JUMP JUMPDEST PUSH1 0x20 PUSH1 0x40 MLOAD DUP1 DUP4 SUB DUP2 DUP7 GAS STATICCALL ISZERO DUP1 ISZERO PUSH2 0x4A1 JUMPI RETURNDATASIZE PUSH0 PUSH0 RETURNDATACOPY RETURNDATASIZE PUSH0 REVERT JUMPDEST POP POP POP POP PUSH1 0x40 MLOAD RETURNDATASIZE PUSH1 0x1F NOT PUSH1 0x1F DUP3 ADD AND DUP3 ADD DUP1 PUSH1 0x40 MSTORE POP DUP2 ADD SWAP1 PUSH2 0x4C5 SWAP2 SWAP1 PUSH2 0x101B JUMP JUMPDEST SWAP1 POP DUP4 DUP2 LT ISZERO PUSH2 0x50A JUMPI PUSH1 0x40 MLOAD PUSH32 0x8C379A000000000000000000000000000000000000000000000000000000000 DUP2 MSTORE PUSH1 0x4 ADD PUSH2 0x501 SWAP1 PUSH2 0x111F JUMP JUMPDEST PUSH1 0x40 MLOAD DUP1 SWAP2 SUB SWAP1 REVERT JUMPDEST PUSH0 PUSH0 PUSH0 SWAP1 SLOAD SWAP1 PUSH2 0x100 EXP SWAP1 DIV PUSH20 0xFFFFFFFFFFFFFFFFFFFFFFFFFFFFFFFFFFFFFFFF AND PUSH20 0xFFFFFFFFFFFFFFFFFFFFFFFFFFFFFFFFFFFFFFFF AND PUSH4 0x23B872DD CALLER ADDRESS DUP9 PUSH1 0x40 MLOAD DUP5 PUSH4 0xFFFFFFFF AND PUSH1 0xE0 SHL DUP2 MSTORE PUSH1 0x4 ADD PUSH2 0x568 SWAP4 SWAP3 SWAP2 SWAP1 PUSH2 0x113D JUMP JUMPDEST PUSH1 0x20 PUSH1 0x40 MLOAD DUP1 DUP4 SUB DUP2 PUSH0 DUP8 GAS CALL ISZERO DUP1 ISZERO PUSH2 0x584 JUMPI RETURNDATASIZE PUSH0 PUSH0 RETURNDATACOPY RETURNDATASIZE PUSH0 REVERT JUMPDEST POP POP POP POP PUSH1 0x40 MLOAD RETURNDATASIZE PUSH1 0x1F NOT PUSH1 0x1F DUP3 ADD AND DUP3 ADD DUP1 PUSH1 0x40 MSTORE POP DUP2 ADD SWAP1 PUSH2 0x5A8 SWAP2 SWAP1 PUSH2 0x11A7 JUMP JUMPDEST SWAP1 POP DUP1 PUSH2 0x5EA JUMPI PUSH1 0x40 MLOAD PUSH32 0x8C379A000000000000000000000000000000000000000000000000000000000 DUP2 MSTORE PUSH1 0x4 ADD PUSH2 0x5E1 SWAP1 PUSH2 0x121C JUMP JUMPDEST PUSH1 0x40 MLOAD DUP1 SWAP2 SUB SWAP1 REVERT JUMPDEST DUP5 PUSH1 0x3 PUSH0 DUP3 DUP3 SLOAD PUSH2 0x5FB SWAP2 SWAP1 PUSH2 0x1267 JUMP JUMPDEST SWAP3 POP POP DUP2 SWAP1 SSTORE POP PUSH2 0x60A PUSH2 0xC94 JUMP JUMPDEST DUP6 DUP2 PUSH0 ADD DUP2 DUP2 MSTORE POP POP DUP5 TIMESTAMP PUSH2 0x61F SWAP2 SWAP1 PUSH2 0x1267 JUMP JUMPDEST DUP2 PUSH1 0x20 ADD DUP2 DUP2 MSTORE POP POP PUSH1 0x5 PUSH0 CALLER PUSH20 0xFFFFFFFFFFFFFFFFFFFFFFFFFFFFFFFFFFFFFFFF AND PUSH20 0xFFFFFFFFFFFFFFFFFFFFFFFFFFFFFFFFFFFFFFFF AND DUP2 MSTORE PUSH1 0x20 ADD SWAP1 DUP2 MSTORE PUSH1 0x20 ADD PUSH0 KECCAK256 DUP2 SWAP1 DUP1 PUSH1 0x1 DUP2 SLOAD ADD DUP1 DUP3 SSTORE DUP1 SWAP2 POP POP PUSH1 0x1 SWAP1 SUB SWAP1 PUSH0 MSTORE PUSH1 0x20 PUSH0 KECCAK256 SWAP1 PUSH1 0x2 MUL ADD PUSH0 SWAP1 SWAP2 SWAP1 SWAP2 SWAP1 SWAP2 POP PUSH0 DUP3 ADD MLOAD DUP2 PUSH0 ADD SSTORE PUSH1 0x20 DUP3 ADD MLOAD DUP2 PUSH1 0x1 ADD SSTORE POP POP CALLER PUSH20 0xFFFFFFFFFFFFFFFFFFFFFFFFFFFFFFFFFFFFFFFF AND PUSH32 0x61BB8B82654398E0BDD4E0D489B5E9104B6840211FD89F7264264C96589051FD DUP8 TIMESTAMP PUSH1 0x40 MLOAD PUSH2 0x6E8 SWAP3 SWAP2 SWAP1 PUSH2 0x129A JUMP JUMPDEST PUSH1 0x40 MLOAD DUP1 SWAP2 SUB SWAP1 LOG2 POP POP POP POP PUSH0 PUSH1 0x4 PUSH0 PUSH2 0x100 EXP DUP2 SLOAD DUP2 PUSH1 0xFF MUL NOT AND SWAP1 DUP4 ISZERO ISZERO MUL OR SWAP1 SSTORE POP POP POP JUMP JUMPDEST PUSH0 PUSH1 0x1 PUSH0 SWAP1 SLOAD SWAP1 PUSH2 0x100 EXP SWAP1 DIV PUSH20 0xFFFFFFFFFFFFFFFFFFFFFFFFFFFFFFFFFFFFFFFF AND PUSH20 0xFFFFFFFFFFFFFFFFFFFFFFFFFFFFFFFFFFFFFFFF AND CALLER PUSH20 0xFFFFFFFFFFFFFFFFFFFFFFFFFFFFFFFFFFFFFFFF AND EQ PUSH2 0x7A1 JUMPI PUSH1 0x40 MLOAD PUSH32 0x8C379A000000000000000000000000000000000000000000000000000000000 DUP2 MSTORE PUSH1 0x4 ADD PUSH2 0x798 SWAP1 PUSH2 0x130B JUMP JUMPDEST PUSH1 0x40 MLOAD DUP1 SWAP2 SUB SWAP1 REVERT JUMPDEST PUSH1 0x3 SLOAD SWAP1 POP SWAP1 JUMP JUMPDEST PUSH1 0x4 PUSH0 SWAP1 SLOAD SWAP1 PUSH2 0x100 EXP SWAP1 DIV PUSH1 0xFF AND ISZERO PUSH2 0x7F8 JUMPI PUSH1 0x40 MLOAD PUSH32 0x8C379A000000000000000000000000000000000000000000000000000000000 DUP2 MSTORE PUSH1 0x4 ADD PUSH2 0x7EF SWAP1 PUSH2 0xF59 JUMP JUMPDEST PUSH1 0x40 MLOAD DUP1 SWAP2 SUB SWAP1 REVERT JUMPDEST PUSH1 0x1 PUSH1 0x4 PUSH0 PUSH2 0x100 EXP DUP2 SLOAD DUP2 PUSH1 0xFF MUL NOT AND SWAP1 DUP4 ISZERO ISZERO MUL OR SWAP1 SSTORE POP PUSH0 PUSH20 0xFFFFFFFFFFFFFFFFFFFFFFFFFFFFFFFFFFFFFFFF AND CALLER PUSH20 0xFFFFFFFFFFFFFFFFFFFFFFFFFFFFFFFFFFFFFFFF AND SUB PUSH2 0x880 JUMPI PUSH1 0x40 MLOAD PUSH32 0x8C379A000000000000000000000000000000000000000000000000000000000 DUP2 MSTORE PUSH1 0x4 ADD PUSH2 0x877 SWAP1 PUSH2 0xFC1 JUMP JUMPDEST PUSH1 0x40 MLOAD DUP1 SWAP2 SUB SWAP1 REVERT JUMPDEST PUSH1 0x5 PUSH0 CALLER PUSH20 0xFFFFFFFFFFFFFFFFFFFFFFFFFFFFFFFFFFFFFFFF AND PUSH20 0xFFFFFFFFFFFFFFFFFFFFFFFFFFFFFFFFFFFFFFFF AND DUP2 MSTORE PUSH1 0x20 ADD SWAP1 DUP2 MSTORE PUSH1 0x20 ADD PUSH0 KECCAK256 DUP1 SLOAD SWAP1 POP DUP2 PUSH1 0xFF AND LT PUSH2 0x905 JUMPI PUSH1 0x40 MLOAD PUSH32 0x8C379A000000000000000000000000000000000000000000000000000000000 DUP2 MSTORE PUSH1 0x4 ADD PUSH2 0x8FC SWAP1 PUSH2 0x1373 JUMP JUMPDEST PUSH1 0x40 MLOAD DUP1 SWAP2 SUB SWAP1 REVERT JUMPDEST PUSH0 PUSH1 0x5 PUSH0 CALLER PUSH20 0xFFFFFFFFFFFFFFFFFFFFFFFFFFFFFFFFFFFFFFFF AND PUSH20 0xFFFFFFFFFFFFFFFFFFFFFFFFFFFFFFFFFFFFFFFF AND DUP2 MSTORE PUSH1 0x20 ADD SWAP1 DUP2 MSTORE PUSH1 0x20 ADD PUSH0 KECCAK256 DUP3 PUSH1 0xFF AND DUP2 SLOAD DUP2 LT PUSH2 0x958 JUMPI PUSH2 0x957 PUSH2 0x1391 JUMP JUMPDEST JUMPDEST SWAP1 PUSH0 MSTORE PUSH1 0x20 PUSH0 KECCAK256 SWAP1 PUSH1 0x2 MUL ADD SWAP1 POP TIMESTAMP DUP2 PUSH1 0x1 ADD SLOAD LT PUSH2 0x9AC JUMPI PUSH1 0x40 MLOAD PUSH32 0x8C379A000000000000000000000000000000000000000000000000000000000 DUP2 MSTORE PUSH1 0x4 ADD PUSH2 0x9A3 SWAP1 PUSH2 0x1408 JUMP JUMPDEST PUSH1 0x40 MLOAD DUP1 SWAP2 SUB SWAP1 REVERT JUMPDEST PUSH0 DUP2 PUSH0 ADD SLOAD SWAP1 POP PUSH0 DUP3 PUSH0 ADD DUP2 SWAP1 SSTORE POP PUSH0 DUP3 PUSH1 0x1 ADD DUP2 SWAP1 SSTORE POP DUP1 PUSH1 0x3 PUSH0 DUP3 DUP3 SLOAD PUSH2 0x9D5 SWAP2 SWAP1 PUSH2 0x1426 JUMP JUMPDEST SWAP3 POP POP DUP2 SWAP1 SSTORE POP PUSH0 PUSH0 SWAP1 SLOAD SWAP1 PUSH2 0x100 EXP SWAP1 DIV PUSH20 0xFFFFFFFFFFFFFFFFFFFFFFFFFFFFFFFFFFFFFFFF AND PUSH20 0xFFFFFFFFFFFFFFFFFFFFFFFFFFFFFFFFFFFFFFFF AND PUSH4 0xA9059CBB CALLER DUP4 PUSH1 0x40 MLOAD DUP4 PUSH4 0xFFFFFFFF AND PUSH1 0xE0 SHL DUP2 MSTORE PUSH1 0x4 ADD PUSH2 0xA37 SWAP3 SWAP2 SWAP1 PUSH2 0x1459 JUMP JUMPDEST PUSH1 0x20 PUSH1 0x40 MLOAD DUP1 DUP4 SUB DUP2 PUSH0 DUP8 GAS CALL ISZERO DUP1 ISZERO PUSH2 0xA53 JUMPI RETURNDATASIZE PUSH0 PUSH0 RETURNDATACOPY RETURNDATASIZE PUSH0 REVERT JUMPDEST POP POP POP POP PUSH1 0x40 MLOAD RETURNDATASIZE PUSH1 0x1F NOT PUSH1 0x1F DUP3 ADD AND DUP3 ADD DUP1 PUSH1 0x40 MSTORE POP DUP2 ADD SWAP1 PUSH2 0xA77 SWAP2 SWAP1 PUSH2 0x11A7 JUMP JUMPDEST POP CALLER PUSH20 0xFFFFFFFFFFFFFFFFFFFFFFFFFFFFFFFFFFFFFFFF AND PUSH32 0xFB59733A8F0BD43414922FB86C6FFDD090E44935074086318980CA89221ACC56 DUP3 TIMESTAMP PUSH1 0x40 MLOAD PUSH2 0xAC0 SWAP3 SWAP2 SWAP1 PUSH2 0x129A JUMP JUMPDEST PUSH1 0x40 MLOAD DUP1 SWAP2 SUB SWAP1 LOG2 POP POP PUSH0 PUSH1 0x4 PUSH0 PUSH2 0x100 EXP DUP2 SLOAD DUP2 PUSH1 0xFF MUL NOT AND SWAP1 DUP4 ISZERO ISZERO MUL OR SWAP1 SSTORE POP POP JUMP JUMPDEST PUSH1 0x1 PUSH0 SWAP1 SLOAD SWAP1 PUSH2 0x100 EXP SWAP1 DIV PUSH20 0xFFFFFFFFFFFFFFFFFFFFFFFFFFFFFFFFFFFFFFFF AND PUSH20 0xFFFFFFFFFFFFFFFFFFFFFFFFFFFFFFFFFFFFFFFF AND CALLER PUSH20 0xFFFFFFFFFFFFFFFFFFFFFFFFFFFFFFFFFFFFFFFF AND EQ PUSH2 0xB75 JUMPI PUSH1 0x40 MLOAD PUSH32 0x8C379A000000000000000000000000000000000000000000000000000000000 DUP2 MSTORE PUSH1 0x4 ADD PUSH2 0xB6C SWAP1 PUSH2 0x130B JUMP JUMPDEST PUSH1 0x40 MLOAD DUP1 SWAP2 SUB SWAP1 REVERT JUMPDEST PUSH0 PUSH20 0xFFFFFFFFFFFFFFFFFFFFFFFFFFFFFFFFFFFFFFFF AND CALLER PUSH20 0xFFFFFFFFFFFFFFFFFFFFFFFFFFFFFFFFFFFFFFFF AND SUB PUSH2 0xBE3 JUMPI PUSH1 0x40 MLOAD PUSH32 0x8C379A000000000000000000000000000000000000000000000000000000000 DUP2 MSTORE PUSH1 0x4 ADD PUSH2 0xBDA SWAP1 PUSH2 0xE89 JUMP JUMPDEST PUSH1 0x40 MLOAD DUP1 SWAP2 SUB SWAP1 REVERT JUMPDEST PUSH0 PUSH20 0xFFFFFFFFFFFFFFFFFFFFFFFFFFFFFFFFFFFFFFFF AND DUP2 PUSH20 0xFFFFFFFFFFFFFFFFFFFFFFFFFFFFFFFFFFFFFFFF AND SUB PUSH2 0xC51 JUMPI PUSH1 0x40 MLOAD PUSH32 0x8C379A000000000000000000000000000000000000000000000000000000000 DUP2 MSTORE PUSH1 0x4 ADD PUSH2 0xC48 SWAP1 PUSH2 0x14CA JUMP JUMPDEST PUSH1 0x40 MLOAD DUP1 SWAP2 SUB SWAP1 REVERT JUMPDEST DUP1 PUSH1 0x2 PUSH0 PUSH2 0x100 EXP DUP2 SLOAD DUP2 PUSH20 0xFFFFFFFFFFFFFFFFFFFFFFFFFFFFFFFFFFFFFFFF MUL NOT AND SWAP1 DUP4 PUSH20 0xFFFFFFFFFFFFFFFFFFFFFFFFFFFFFFFFFFFFFFFF AND MUL OR SWAP1 SSTORE POP POP JUMP JUMPDEST PUSH1 0x40 MLOAD DUP1 PUSH1 0x40 ADD PUSH1 0x40 MSTORE DUP1 PUSH0 DUP2 MSTORE PUSH1 0x20 ADD PUSH0 DUP2 MSTORE POP SWAP1 JUMP JUMPDEST PUSH0 PUSH0 REVERT JUMPDEST PUSH0 DUP2 SWAP1 POP SWAP2 SWAP1 POP JUMP JUMPDEST PUSH2 0xCC2 DUP2 PUSH2 0xCB0 JUMP JUMPDEST DUP2 EQ PUSH2 0xCCC JUMPI PUSH0 PUSH0 REVERT JUMPDEST POP JUMP JUMPDEST PUSH0 DUP2 CALLDATALOAD SWAP1 POP PUSH2 0xCDD DUP2 PUSH2 0xCB9 JUMP JUMPDEST SWAP3 SWAP2 POP POP JUMP JUMPDEST PUSH0 PUSH0 PUSH1 0x40 DUP4 DUP6 SUB SLT ISZERO PUSH2 0xCF9 JUMPI PUSH2 0xCF8 PUSH2 0xCAC JUMP JUMPDEST JUMPDEST PUSH0 PUSH2 0xD06 DUP6 DUP3 DUP7 ADD PUSH2 0xCCF JUMP JUMPDEST SWAP3 POP POP PUSH1 0x20 PUSH2 0xD17 DUP6 DUP3 DUP7 ADD PUSH2 0xCCF JUMP JUMPDEST SWAP2 POP POP SWAP3 POP SWAP3 SWAP1 POP JUMP JUMPDEST PUSH2 0xD2A DUP2 PUSH2 0xCB0 JUMP JUMPDEST DUP3 MSTORE POP POP JUMP JUMPDEST PUSH0 PUSH1 0x20 DUP3 ADD SWAP1 POP PUSH2 0xD43 PUSH0 DUP4 ADD DUP5 PUSH2 0xD21 JUMP JUMPDEST SWAP3 SWAP2 POP POP JUMP JUMPDEST PUSH0 PUSH1 0xFF DUP3 AND SWAP1 POP SWAP2 SWAP1 POP JUMP JUMPDEST PUSH2 0xD5E DUP2 PUSH2 0xD49 JUMP JUMPDEST DUP2 EQ PUSH2 0xD68 JUMPI PUSH0 PUSH0 REVERT JUMPDEST POP JUMP JUMPDEST PUSH0 DUP2 CALLDATALOAD SWAP1 POP PUSH2 0xD79 DUP2 PUSH2 0xD55 JUMP JUMPDEST SWAP3 SWAP2 POP POP JUMP JUMPDEST PUSH0 PUSH1 0x20 DUP3 DUP5 SUB SLT ISZERO PUSH2 0xD94 JUMPI PUSH2 0xD93 PUSH2 0xCAC JUMP JUMPDEST JUMPDEST PUSH0 PUSH2 0xDA1 DUP5 DUP3 DUP6 ADD PUSH2 0xD6B JUMP JUMPDEST SWAP2 POP POP SWAP3 SWAP2 POP POP JUMP JUMPDEST PUSH0 PUSH20 0xFFFFFFFFFFFFFFFFFFFFFFFFFFFFFFFFFFFFFFFF DUP3 AND SWAP1 POP SWAP2 SWAP1 POP JUMP JUMPDEST PUSH0 PUSH2 0xDD3 DUP3 PUSH2 0xDAA JUMP JUMPDEST SWAP1 POP SWAP2 SWAP1 POP JUMP JUMPDEST PUSH2 0xDE3 DUP2 PUSH2 0xDC9 JUMP JUMPDEST DUP2 EQ PUSH2 0xDED JUMPI PUSH0 PUSH0 REVERT JUMPDEST POP JUMP JUMPDEST PUSH0 DUP2 CALLDATALOAD SWAP1 POP PUSH2 0xDFE DUP2 PUSH2 0xDDA JUMP JUMPDEST SWAP3 SWAP2 POP POP JUMP JUMPDEST PUSH0 PUSH1 0x20 DUP3 DUP5 SUB SLT ISZERO PUSH2 0xE19 JUMPI PUSH2 0xE18 PUSH2 0xCAC JUMP JUMPDEST JUMPDEST PUSH0 PUSH2 0xE26 DUP5 DUP3 DUP6 ADD PUSH2 0xDF0 JUMP JUMPDEST SWAP2 POP POP SWAP3 SWAP2 POP POP JUMP JUMPDEST PUSH0 DUP3 DUP3 MSTORE PUSH1 0x20 DUP3 ADD SWAP1 POP SWAP3 SWAP2 POP POP JUMP JUMPDEST PUSH32 0x49742063616E277420626520796F750000000000000000000000000000000000 PUSH0 DUP3 ADD MSTORE POP JUMP JUMPDEST PUSH0 PUSH2 0xE73 PUSH1 0xF DUP4 PUSH2 0xE2F JUMP JUMPDEST SWAP2 POP PUSH2 0xE7E DUP3 PUSH2 0xE3F JUMP JUMPDEST PUSH1 0x20 DUP3 ADD SWAP1 POP SWAP2 SWAP1 POP JUMP JUMPDEST PUSH0 PUSH1 0x20 DUP3 ADD SWAP1 POP DUP2 DUP2 SUB PUSH0 DUP4 ADD MSTORE PUSH2 0xEA0 DUP2 PUSH2 0xE67 JUMP JUMPDEST SWAP1 POP SWAP2 SWAP1 POP JUMP JUMPDEST PUSH32 0x4E6F7420796F7572207475726E20796574000000000000000000000000000000 PUSH0 DUP3 ADD MSTORE POP JUMP JUMPDEST PUSH0 PUSH2 0xEDB PUSH1 0x11 DUP4 PUSH2 0xE2F JUMP JUMPDEST SWAP2 POP PUSH2 0xEE6 DUP3 PUSH2 0xEA7 JUMP JUMPDEST PUSH1 0x20 DUP3 ADD SWAP1 POP SWAP2 SWAP1 POP JUMP JUMPDEST PUSH0 PUSH1 0x20 DUP3 ADD SWAP1 POP DUP2 DUP2 SUB PUSH0 DUP4 ADD MSTORE PUSH2 0xF08 DUP2 PUSH2 0xECF JUMP JUMPDEST SWAP1 POP SWAP2 SWAP1 POP JUMP JUMPDEST PUSH32 0x4E6F7420616C6C6F77656420746F2072652D656E746572000000000000000000 PUSH0 DUP3 ADD MSTORE POP JUMP JUMPDEST PUSH0 PUSH2 0xF43 PUSH1 0x17 DUP4 PUSH2 0xE2F JUMP JUMPDEST SWAP2 POP PUSH2 0xF4E DUP3 PUSH2 0xF0F JUMP JUMPDEST PUSH1 0x20 DUP3 ADD SWAP1 POP SWAP2 SWAP1 POP JUMP JUMPDEST PUSH0 PUSH1 0x20 DUP3 ADD SWAP1 POP DUP2 DUP2 SUB PUSH0 DUP4 ADD MSTORE PUSH2 0xF70 DUP2 PUSH2 0xF37 JUMP JUMPDEST SWAP1 POP SWAP2 SWAP1 POP JUMP JUMPDEST PUSH32 0x5A65726F2061646472657373206E6F7420616C6C6F7765640000000000000000 PUSH0 DUP3 ADD MSTORE POP JUMP JUMPDEST PUSH0 PUSH2 0xFAB PUSH1 0x18 DUP4 PUSH2 0xE2F JUMP JUMPDEST SWAP2 POP PUSH2 0xFB6 DUP3 PUSH2 0xF77 JUMP JUMPDEST PUSH1 0x20 DUP3 ADD SWAP1 POP SWAP2 SWAP1 POP JUMP JUMPDEST PUSH0 PUSH1 0x20 DUP3 ADD SWAP1 POP DUP2 DUP2 SUB PUSH0 DUP4 ADD MSTORE PUSH2 0xFD8 DUP2 PUSH2 0xF9F JUMP JUMPDEST SWAP1 POP SWAP2 SWAP1 POP JUMP JUMPDEST PUSH2 0xFE8 DUP2 PUSH2 0xDC9 JUMP JUMPDEST DUP3 MSTORE POP POP JUMP JUMPDEST PUSH0 PUSH1 0x20 DUP3 ADD SWAP1 POP PUSH2 0x1001 PUSH0 DUP4 ADD DUP5 PUSH2 0xFDF JUMP JUMPDEST SWAP3 SWAP2 POP POP JUMP JUMPDEST PUSH0 DUP2 MLOAD SWAP1 POP PUSH2 0x1015 DUP2 PUSH2 0xCB9 JUMP JUMPDEST SWAP3 SWAP2 POP POP JUMP JUMPDEST PUSH0 PUSH1 0x20 DUP3 DUP5 SUB SLT ISZERO PUSH2 0x1030 JUMPI PUSH2 0x102F PUSH2 0xCAC JUMP JUMPDEST JUMPDEST PUSH0 PUSH2 0x103D DUP5 DUP3 DUP6 ADD PUSH2 0x1007 JUMP JUMPDEST SWAP2 POP POP SWAP3 SWAP2 POP POP JUMP JUMPDEST PUSH32 0x596F75722062616C616E6365206973206E6F7420656E6F756768000000000000 PUSH0 DUP3 ADD MSTORE POP JUMP JUMPDEST PUSH0 PUSH2 0x107A PUSH1 0x1A DUP4 PUSH2 0xE2F JUMP JUMPDEST SWAP2 POP PUSH2 0x1085 DUP3 PUSH2 0x1046 JUMP JUMPDEST PUSH1 0x20 DUP3 ADD SWAP1 POP SWAP2 SWAP1 POP JUMP JUMPDEST PUSH0 PUSH1 0x20 DUP3 ADD SWAP1 POP DUP2 DUP2 SUB PUSH0 DUP4 ADD MSTORE PUSH2 0x10A7 DUP2 PUSH2 0x106E JUMP JUMPDEST SWAP1 POP SWAP2 SWAP1 POP JUMP JUMPDEST PUSH0 PUSH1 0x40 DUP3 ADD SWAP1 POP PUSH2 0x10C1 PUSH0 DUP4 ADD DUP6 PUSH2 0xFDF JUMP JUMPDEST PUSH2 0x10CE PUSH1 0x20 DUP4 ADD DUP5 PUSH2 0xFDF JUMP JUMPDEST SWAP4 SWAP3 POP POP POP JUMP JUMPDEST PUSH32 0x416D6F756E7420616C6C6F776564206973206E6F7420656E6F75676800000000 PUSH0 DUP3 ADD MSTORE POP JUMP JUMPDEST PUSH0 PUSH2 0x1109 PUSH1 0x1C DUP4 PUSH2 0xE2F JUMP JUMPDEST SWAP2 POP PUSH2 0x1114 DUP3 PUSH2 0x10D5 JUMP JUMPDEST PUSH1 0x20 DUP3 ADD SWAP1 POP SWAP2 SWAP1 POP JUMP JUMPDEST PUSH0 PUSH1 0x20 DUP3 ADD SWAP1 POP DUP2 DUP2 SUB PUSH0 DUP4 ADD MSTORE PUSH2 0x1136 DUP2 PUSH2 0x10FD JUMP JUMPDEST SWAP1 POP SWAP2 SWAP1 POP JUMP JUMPDEST PUSH0 PUSH1 0x60 DUP3 ADD SWAP1 POP PUSH2 0x1150 PUSH0 DUP4 ADD DUP7 PUSH2 0xFDF JUMP JUMPDEST PUSH2 0x115D PUSH1 0x20 DUP4 ADD DUP6 PUSH2 0xFDF JUMP JUMPDEST PUSH2 0x116A PUSH1 0x40 DUP4 ADD DUP5 PUSH2 0xD21 JUMP JUMPDEST SWAP5 SWAP4 POP POP POP POP JUMP JUMPDEST PUSH0 DUP2 ISZERO ISZERO SWAP1 POP SWAP2 SWAP1 POP JUMP JUMPDEST PUSH2 0x1186 DUP2 PUSH2 0x1172 JUMP JUMPDEST DUP2 EQ PUSH2 0x1190 JUMPI PUSH0 PUSH0 REVERT JUMPDEST POP JUMP JUMPDEST PUSH0 DUP2 MLOAD SWAP1 POP PUSH2 0x11A1 DUP2 PUSH2 0x117D JUMP JUMPDEST SWAP3 SWAP2 POP POP JUMP JUMPDEST PUSH0 PUSH1 0x20 DUP3 DUP5 SUB SLT ISZERO PUSH2 0x11BC JUMPI PUSH2 0x11BB PUSH2 0xCAC JUMP JUMPDEST JUMPDEST PUSH0 PUSH2 0x11C9 DUP5 DUP3 DUP6 ADD PUSH2 0x1193 JUMP JUMPDEST SWAP2 POP POP SWAP3 SWAP2 POP POP JUMP JUMPDEST PUSH32 0x5472616E73666572206E6F742065786563757465640000000000000000000000 PUSH0 DUP3 ADD MSTORE POP JUMP JUMPDEST PUSH0 PUSH2 0x1206 PUSH1 0x15 DUP4 PUSH2 0xE2F JUMP JUMPDEST SWAP2 POP PUSH2 0x1211 DUP3 PUSH2 0x11D2 JUMP JUMPDEST PUSH1 0x20 DUP3 ADD SWAP1 POP SWAP2 SWAP1 POP JUMP JUMPDEST PUSH0 PUSH1 0x20 DUP3 ADD SWAP1 POP DUP2 DUP2 SUB PUSH0 DUP4 ADD MSTORE PUSH2 0x1233 DUP2 PUSH2 0x11FA JUMP JUMPDEST SWAP1 POP SWAP2 SWAP1 POP JUMP JUMPDEST PUSH32 0x4E487B7100000000000000000000000000000000000000000000000000000000 PUSH0 MSTORE PUSH1 0x11 PUSH1 0x4 MSTORE PUSH1 0x24 PUSH0 REVERT JUMPDEST PUSH0 PUSH2 0x1271 DUP3 PUSH2 0xCB0 JUMP JUMPDEST SWAP2 POP PUSH2 0x127C DUP4 PUSH2 0xCB0 JUMP JUMPDEST SWAP3 POP DUP3 DUP3 ADD SWAP1 POP DUP1 DUP3 GT ISZERO PUSH2 0x1294 JUMPI PUSH2 0x1293 PUSH2 0x123A JUMP JUMPDEST JUMPDEST SWAP3 SWAP2 POP POP JUMP JUMPDEST PUSH0 PUSH1 0x40 DUP3 ADD SWAP1 POP PUSH2 0x12AD PUSH0 DUP4 ADD DUP6 PUSH2 0xD21 JUMP JUMPDEST PUSH2 0x12BA PUSH1 0x20 DUP4 ADD DUP5 PUSH2 0xD21 JUMP JUMPDEST SWAP4 SWAP3 POP POP POP JUMP JUMPDEST PUSH32 0x4F6E6C79206F776E65722063616E206163636573730000000000000000000000 PUSH0 DUP3 ADD MSTORE POP JUMP JUMPDEST PUSH0 PUSH2 0x12F5 PUSH1 0x15 DUP4 PUSH2 0xE2F JUMP JUMPDEST SWAP2 POP PUSH2 0x1300 DUP3 PUSH2 0x12C1 JUMP JUMPDEST PUSH1 0x20 DUP3 ADD SWAP1 POP SWAP2 SWAP1 POP JUMP JUMPDEST PUSH0 PUSH1 0x20 DUP3 ADD SWAP1 POP DUP2 DUP2 SUB PUSH0 DUP4 ADD MSTORE PUSH2 0x1322 DUP2 PUSH2 0x12E9 JUMP JUMPDEST SWAP1 POP SWAP2 SWAP1 POP JUMP JUMPDEST PUSH32 0x4F7574206F6620626F756E640000000000000000000000000000000000000000 PUSH0 DUP3 ADD MSTORE POP JUMP JUMPDEST PUSH0 PUSH2 0x135D PUSH1 0xC DUP4 PUSH2 0xE2F JUMP JUMPDEST SWAP2 POP PUSH2 0x1368 DUP3 PUSH2 0x1329 JUMP JUMPDEST PUSH1 0x20 DUP3 ADD SWAP1 POP SWAP2 SWAP1 POP JUMP JUMPDEST PUSH0 PUSH1 0x20 DUP3 ADD SWAP1 POP DUP2 DUP2 SUB PUSH0 DUP4 ADD MSTORE PUSH2 0x138A DUP2 PUSH2 0x1351 JUMP JUMPDEST SWAP1 POP SWAP2 SWAP1 POP JUMP JUMPDEST PUSH32 0x4E487B7100000000000000000000000000000000000000000000000000000000 PUSH0 MSTORE PUSH1 0x32 PUSH1 0x4 MSTORE PUSH1 0x24 PUSH0 REVERT JUMPDEST PUSH32 0x4E6F742079657420647565000000000000000000000000000000000000000000 PUSH0 DUP3 ADD MSTORE POP JUMP JUMPDEST PUSH0 PUSH2 0x13F2 PUSH1 0xB DUP4 PUSH2 0xE2F JUMP JUMPDEST SWAP2 POP PUSH2 0x13FD DUP3 PUSH2 0x13BE JUMP JUMPDEST PUSH1 0x20 DUP3 ADD SWAP1 POP SWAP2 SWAP1 POP JUMP JUMPDEST PUSH0 PUSH1 0x20 DUP3 ADD SWAP1 POP DUP2 DUP2 SUB PUSH0 DUP4 ADD MSTORE PUSH2 0x141F DUP2 PUSH2 0x13E6 JUMP JUMPDEST SWAP1 POP SWAP2 SWAP1 POP JUMP JUMPDEST PUSH0 PUSH2 0x1430 DUP3 PUSH2 0xCB0 JUMP JUMPDEST SWAP2 POP PUSH2 0x143B DUP4 PUSH2 0xCB0 JUMP JUMPDEST SWAP3 POP DUP3 DUP3 SUB SWAP1 POP DUP2 DUP2 GT ISZERO PUSH2 0x1453 JUMPI PUSH2 0x1452 PUSH2 0x123A JUMP JUMPDEST JUMPDEST SWAP3 SWAP2 POP POP JUMP JUMPDEST PUSH0 PUSH1 0x40 DUP3 ADD SWAP1 POP PUSH2 0x146C PUSH0 DUP4 ADD DUP6 PUSH2 0xFDF JUMP JUMPDEST PUSH2 0x1479 PUSH1 0x20 DUP4 ADD DUP5 PUSH2 0xD21 JUMP JUMPDEST SWAP4 SWAP3 POP POP POP JUMP JUMPDEST PUSH32 0x6E6577206F776E65722063616E2774206265207A65726F206164647265737300 PUSH0 DUP3 ADD MSTORE POP JUMP JUMPDEST PUSH0 PUSH2 0x14B4 PUSH1 0x1F DUP4 PUSH2 0xE2F JUMP JUMPDEST SWAP2 POP PUSH2 0x14BF DUP3 PUSH2 0x1480 JUMP JUMPDEST PUSH1 0x20 DUP3 ADD SWAP1 POP SWAP2 SWAP1 POP JUMP JUMPDEST PUSH0 PUSH1 0x20 DUP3 ADD SWAP1 POP DUP2 DUP2 SUB PUSH0 DUP4 ADD MSTORE PUSH2 0x14E1 DUP2 PUSH2 0x14A8 JUMP JUMPDEST SWAP1 POP SWAP2 SWAP1 POP JUMP INVALID LOG2 PUSH5 0x6970667358 0x22 SLT KECCAK256 0xE6 PUSH19 0x9253C3D4C51773ABF4E5BA0E10AA9354E95493 PUSH14 0xA41FD9216ABEF15C021464736F6C PUSH4 0x4300081C STOP CALLER "
				},
				"gasEstimates": {
					"creation": {
						"codeDepositCost": "1081200",
						"executionCost": "infinite",
						"totalCost": "infinite"
					},
					"external": {
						"claimOwnership()": "52989",
						"depositCelo(uint256,uint256)": "infinite",
						"getContractBalance()": "4623",
						"transferOwnership(address)": "27017",
						"withdrawFunds(uint8)": "infinite"
					}
				},
				"methodIdentifiers": {
					"claimOwnership()": "4e71e0c8",
					"depositCelo(uint256,uint256)": "6e4668c7",
					"getContractBalance()": "6f9fb98a",
					"transferOwnership(address)": "f2fde38b",
					"withdrawFunds(uint8)": "968cceaf"
				}
			},
			"storageLayout": {
				"storage": [
					{
						"astId": 74,
						"contract": "contracts/SaveCelo.sol:SaveCelo",
						"label": "celotoken",
						"offset": 0,
						"slot": "0",
						"type": "t_address"
					},
					{
						"astId": 76,
						"contract": "contracts/SaveCelo.sol:SaveCelo",
						"label": "owner",
						"offset": 0,
						"slot": "1",
						"type": "t_address"
					},
					{
						"astId": 78,
						"contract": "contracts/SaveCelo.sol:SaveCelo",
						"label": "newOwner",
						"offset": 0,
						"slot": "2",
						"type": "t_address"
					},
					{
						"astId": 80,
						"contract": "contracts/SaveCelo.sol:SaveCelo",
						"label": "contractBalance",
						"offset": 0,
						"slot": "3",
						"type": "t_uint256"
					},
					{
						"astId": 82,
						"contract": "contracts/SaveCelo.sol:SaveCelo",
						"label": "locked",
						"offset": 0,
						"slot": "4",
						"type": "t_bool"
					},
					{
						"astId": 93,
						"contract": "contracts/SaveCelo.sol:SaveCelo",
						"label": "users",
						"offset": 0,
						"slot": "5",
						"type": "t_mapping(t_address,t_array(t_struct(UserAccount)87_storage)dyn_storage)"
					}
				],
				"types": {
					"t_address": {
						"encoding": "inplace",
						"label": "address",
						"numberOfBytes": "20"
					},
					"t_array(t_struct(UserAccount)87_storage)dyn_storage": {
						"base": "t_struct(UserAccount)87_storage",
						"encoding": "dynamic_array",
						"label": "struct SaveCelo.UserAccount[]",
						"numberOfBytes": "32"
					},
					"t_bool": {
						"encoding": "inplace",
						"label": "bool",
						"numberOfBytes": "1"
					},
					"t_mapping(t_address,t_array(t_struct(UserAccount)87_storage)dyn_storage)": {
						"encoding": "mapping",
						"key": "t_address",
						"label": "mapping(address => struct SaveCelo.UserAccount[])",
						"numberOfBytes": "32",
						"value": "t_array(t_struct(UserAccount)87_storage)dyn_storage"
					},
					"t_struct(UserAccount)87_storage": {
						"encoding": "inplace",
						"label": "struct SaveCelo.UserAccount",
						"members": [
							{
								"astId": 84,
								"contract": "contracts/SaveCelo.sol:SaveCelo",
								"label": "amount",
								"offset": 0,
								"slot": "0",
								"type": "t_uint256"
							},
							{
								"astId": 86,
								"contract": "contracts/SaveCelo.sol:SaveCelo",
								"label": "duration",
								"offset": 0,
								"slot": "1",
								"type": "t_uint256"
							}
						],
						"numberOfBytes": "64"
					},
					"t_uint256": {
						"encoding": "inplace",
						"label": "uint256",
						"numberOfBytes": "32"
					}
				}
			},
			"userdoc": {
				"kind": "user",
				"methods": {},
				"version": 1
			}
		}
	}
}