{
	"contracts/MultisigWallet.sol": {
		"Multisig": {
			"abi": [
				{
					"inputs": [
						{
							"internalType": "address[]",
							"name": "_validSigners",
							"type": "address[]"
						},
						{
							"internalType": "uint256",
							"name": "_quorum",
							"type": "uint256"
						}
					],
					"stateMutability": "payable",
					"type": "constructor"
				},
				{
					"stateMutability": "payable",
					"type": "fallback"
				},
				{
					"inputs": [
						{
							"internalType": "address",
							"name": "_newSigner",
							"type": "address"
						}
					],
					"name": "addValidSigner",
					"outputs": [],
					"stateMutability": "nonpayable",
					"type": "function"
				},
				{
					"inputs": [
						{
							"internalType": "uint256",
							"name": "_txId",
							"type": "uint256"
						}
					],
					"name": "approveTransaction",
					"outputs": [],
					"stateMutability": "nonpayable",
					"type": "function"
				},
				{
					"inputs": [],
					"name": "claimOwnership",
					"outputs": [],
					"stateMutability": "nonpayable",
					"type": "function"
				},
				{
					"inputs": [],
					"name": "getAllTransaction",
					"outputs": [
						{
							"components": [
								{
									"internalType": "uint256",
									"name": "id",
									"type": "uint256"
								},
								{
									"internalType": "uint256",
									"name": "amount",
									"type": "uint256"
								},
								{
									"internalType": "address",
									"name": "receiver",
									"type": "address"
								},
								{
									"internalType": "uint256",
									"name": "signersCount",
									"type": "uint256"
								},
								{
									"internalType": "bool",
									"name": "isExecuted",
									"type": "bool"
								},
								{
									"internalType": "address",
									"name": "txCreator",
									"type": "address"
								}
							],
							"internalType": "struct Multisig.Transaction[]",
							"name": "",
							"type": "tuple[]"
						}
					],
					"stateMutability": "view",
					"type": "function"
				},
				{
					"inputs": [
						{
							"internalType": "uint256",
							"name": "_amount",
							"type": "uint256"
						},
						{
							"internalType": "address",
							"name": "_receiver",
							"type": "address"
						}
					],
					"name": "initiateTransaction",
					"outputs": [],
					"stateMutability": "nonpayable",
					"type": "function"
				},
				{
					"inputs": [
						{
							"internalType": "uint32",
							"name": "_index",
							"type": "uint32"
						}
					],
					"name": "removeSigner",
					"outputs": [],
					"stateMutability": "nonpayable",
					"type": "function"
				},
				{
					"inputs": [
						{
							"internalType": "uint256",
							"name": "",
							"type": "uint256"
						}
					],
					"name": "signers",
					"outputs": [
						{
							"internalType": "address",
							"name": "",
							"type": "address"
						}
					],
					"stateMutability": "view",
					"type": "function"
				},
				{
					"inputs": [
						{
							"internalType": "address",
							"name": "_newOwner",
							"type": "address"
						}
					],
					"name": "transferOwnership",
					"outputs": [],
					"stateMutability": "nonpayable",
					"type": "function"
				},
				{
					"stateMutability": "payable",
					"type": "receive"
				}
			],
			"devdoc": {
				"kind": "dev",
				"methods": {},
				"version": 1
			},
			"evm": {
				"assembly": "    /* \"contracts/MultisigWallet.sol\":61:3813  contract Multisig {... */\n  mstore(0x40, 0x80)\n    /* \"contracts/MultisigWallet.sol\":612:974  constructor(address[] memory _validSigners, uint256 _quorum) payable  {... */\n  mload(0x40)\n  sub(codesize, bytecodeSize)\n  dup1\n  bytecodeSize\n  dup4\n  codecopy\n  dup2\n  dup2\n  add\n  0x40\n  mstore\n  dup2\n  add\n  swap1\n  tag_1\n  swap2\n  swap1\n  tag_2\n  jump\t// in\ntag_1:\n    /* \"contracts/MultisigWallet.sol\":703:713  msg.sender */\n  caller\n    /* \"contracts/MultisigWallet.sol\":695:700  owner */\n  0x03\n  0x00\n    /* \"contracts/MultisigWallet.sol\":695:713  owner = msg.sender */\n  0x0100\n  exp\n  dup2\n  sload\n  dup2\n  0xffffffffffffffffffffffffffffffffffffffff\n  mul\n  not\n  and\n  swap1\n  dup4\n  0xffffffffffffffffffffffffffffffffffffffff\n  and\n  mul\n  or\n  swap1\n  sstore\n  pop\n    /* \"contracts/MultisigWallet.sol\":734:747  _validSigners */\n  dup2\n    /* \"contracts/MultisigWallet.sol\":724:731  signers */\n  0x00\n    /* \"contracts/MultisigWallet.sol\":724:747  signers = _validSigners */\n  swap1\n  dup1\n  mload\n  swap1\n  0x20\n  add\n  swap1\n  tag_5\n  swap3\n  swap2\n  swap1\n  tag_6\n  jump\t// in\ntag_5:\n  pop\n    /* \"contracts/MultisigWallet.sol\":767:774  _quorum */\n  dup1\n    /* \"contracts/MultisigWallet.sol\":758:764  quorum */\n  0x01\n    /* \"contracts/MultisigWallet.sol\":758:774  quorum = _quorum */\n  dup2\n  swap1\n  sstore\n  pop\n    /* \"contracts/MultisigWallet.sol\":792:798  uint i */\n  0x00\n    /* \"contracts/MultisigWallet.sol\":801:802  0 */\n  0x00\n    /* \"contracts/MultisigWallet.sol\":792:802  uint i = 0 */\n  swap1\n  pop\n    /* \"contracts/MultisigWallet.sol\":787:967  for (uint i = 0; i < _validSigners.length; i++) {... */\ntag_7:\n    /* \"contracts/MultisigWallet.sol\":808:821  _validSigners */\n  dup3\n    /* \"contracts/MultisigWallet.sol\":808:828  _validSigners.length */\n  mload\n    /* \"contracts/MultisigWallet.sol\":804:805  i */\n  dup2\n    /* \"contracts/MultisigWallet.sol\":804:828  i < _validSigners.length */\n  lt\n    /* \"contracts/MultisigWallet.sol\":787:967  for (uint i = 0; i < _validSigners.length; i++) {... */\n  iszero\n  tag_8\n  jumpi\n    /* \"contracts/MultisigWallet.sol\":886:887  0 */\n  0x00\n    /* \"contracts/MultisigWallet.sol\":858:888  _validSigners[i] != address(0) */\n  0xffffffffffffffffffffffffffffffffffffffff\n  and\n    /* \"contracts/MultisigWallet.sol\":858:871  _validSigners */\n  dup4\n    /* \"contracts/MultisigWallet.sol\":872:873  i */\n  dup3\n    /* \"contracts/MultisigWallet.sol\":858:874  _validSigners[i] */\n  dup2\n  mload\n  dup2\n  lt\n  tag_10\n  jumpi\n  tag_11\n  tag_12\n  jump\t// in\ntag_11:\ntag_10:\n  0x20\n  mul\n  0x20\n  add\n  add\n  mload\n    /* \"contracts/MultisigWallet.sol\":858:888  _validSigners[i] != address(0) */\n  0xffffffffffffffffffffffffffffffffffffffff\n  and\n  sub\n    /* \"contracts/MultisigWallet.sol\":850:900  require(_validSigners[i] != address(0), \"Get out\") */\n  tag_13\n  jumpi\n  mload(0x40)\n  0x08c379a000000000000000000000000000000000000000000000000000000000\n  dup2\n  mstore\n  0x04\n  add\n  tag_14\n  swap1\n  tag_15\n  jump\t// in\ntag_14:\n  mload(0x40)\n  dup1\n  swap2\n  sub\n  swap1\n  revert\ntag_13:\n    /* \"contracts/MultisigWallet.sol\":951:955  true */\n  0x01\n    /* \"contracts/MultisigWallet.sol\":917:930  isValidSigner */\n  0x08\n    /* \"contracts/MultisigWallet.sol\":917:948  isValidSigner[_validSigners[i]] */\n  0x00\n    /* \"contracts/MultisigWallet.sol\":931:944  _validSigners */\n  dup6\n    /* \"contracts/MultisigWallet.sol\":945:946  i */\n  dup5\n    /* \"contracts/MultisigWallet.sol\":931:947  _validSigners[i] */\n  dup2\n  mload\n  dup2\n  lt\n  tag_16\n  jumpi\n  tag_17\n  tag_12\n  jump\t// in\ntag_17:\ntag_16:\n  0x20\n  mul\n  0x20\n  add\n  add\n  mload\n    /* \"contracts/MultisigWallet.sol\":917:948  isValidSigner[_validSigners[i]] */\n  0xffffffffffffffffffffffffffffffffffffffff\n  and\n  0xffffffffffffffffffffffffffffffffffffffff\n  and\n  dup2\n  mstore\n  0x20\n  add\n  swap1\n  dup2\n  mstore\n  0x20\n  add\n  0x00\n  keccak256\n  0x00\n    /* \"contracts/MultisigWallet.sol\":917:955  isValidSigner[_validSigners[i]] = true */\n  0x0100\n  exp\n  dup2\n  sload\n  dup2\n  0xff\n  mul\n  not\n  and\n  swap1\n  dup4\n  iszero\n  iszero\n  mul\n  or\n  swap1\n  sstore\n  pop\n    /* \"contracts/MultisigWallet.sol\":830:833  i++ */\n  dup1\n  dup1\n  0x01\n  add\n  swap2\n  pop\n  pop\n    /* \"contracts/MultisigWallet.sol\":787:967  for (uint i = 0; i < _validSigners.length; i++) {... */\n  jump(tag_7)\ntag_8:\n  pop\n    /* \"contracts/MultisigWallet.sol\":612:974  constructor(address[] memory _validSigners, uint256 _quorum) payable  {... */\n  pop\n  pop\n    /* \"contracts/MultisigWallet.sol\":61:3813  contract Multisig {... */\n  jump(tag_18)\ntag_6:\n  dup3\n  dup1\n  sload\n  dup3\n  dup3\n  sstore\n  swap1\n  0x00\n  mstore\n  keccak256(0x00, 0x20)\n  swap1\n  dup2\n  add\n  swap3\n  dup3\n  iszero\n  tag_19\n  jumpi\n  swap2\n  0x20\n  mul\n  dup3\n  add\ntag_20:\n  dup3\n  dup2\n  gt\n  iszero\n  tag_21\n  jumpi\n  dup3\n  mload\n  dup3\n  exp(0x0100, 0x00)\n  dup2\n  sload\n  dup2\n  0xffffffffffffffffffffffffffffffffffffffff\n  mul\n  not\n  and\n  swap1\n  dup4\n  0xffffffffffffffffffffffffffffffffffffffff\n  and\n  mul\n  or\n  swap1\n  sstore\n  pop\n  swap2\n  0x20\n  add\n  swap2\n  swap1\n  0x01\n  add\n  swap1\n  jump(tag_20)\ntag_21:\ntag_19:\n  pop\n  swap1\n  pop\n  tag_22\n  swap2\n  swap1\n  tag_23\n  jump\t// in\ntag_22:\n  pop\n  swap1\n  jump\t// out\ntag_23:\ntag_24:\n  dup1\n  dup3\n  gt\n  iszero\n  tag_25\n  jumpi\n  0x00\n  dup2\n  0x00\n  swap1\n  sstore\n  pop\n  0x01\n  add\n  jump(tag_24)\ntag_25:\n  pop\n  swap1\n  jump\t// out\n    /* \"#utility.yul\":7:82   */\ntag_26:\n    /* \"#utility.yul\":40:46   */\n  0x00\n    /* \"#utility.yul\":73:75   */\n  0x40\n    /* \"#utility.yul\":67:76   */\n  mload\n    /* \"#utility.yul\":57:76   */\n  swap1\n  pop\n    /* \"#utility.yul\":7:82   */\n  swap1\n  jump\t// out\n    /* \"#utility.yul\":88:205   */\ntag_27:\n    /* \"#utility.yul\":197:198   */\n  0x00\n    /* \"#utility.yul\":194:195   */\n  0x00\n    /* \"#utility.yul\":187:199   */\n  revert\n    /* \"#utility.yul\":211:328   */\ntag_28:\n    /* \"#utility.yul\":320:321   */\n  0x00\n    /* \"#utility.yul\":317:318   */\n  0x00\n    /* \"#utility.yul\":310:322   */\n  revert\n    /* \"#utility.yul\":334:451   */\ntag_29:\n    /* \"#utility.yul\":443:444   */\n  0x00\n    /* \"#utility.yul\":440:441   */\n  0x00\n    /* \"#utility.yul\":433:445   */\n  revert\n    /* \"#utility.yul\":457:559   */\ntag_30:\n    /* \"#utility.yul\":498:504   */\n  0x00\n    /* \"#utility.yul\":549:551   */\n  0x1f\n    /* \"#utility.yul\":545:552   */\n  not\n    /* \"#utility.yul\":540:542   */\n  0x1f\n    /* \"#utility.yul\":533:538   */\n  dup4\n    /* \"#utility.yul\":529:543   */\n  add\n    /* \"#utility.yul\":525:553   */\n  and\n    /* \"#utility.yul\":515:553   */\n  swap1\n  pop\n    /* \"#utility.yul\":457:559   */\n  swap2\n  swap1\n  pop\n  jump\t// out\n    /* \"#utility.yul\":565:745   */\ntag_31:\n    /* \"#utility.yul\":613:690   */\n  0x4e487b7100000000000000000000000000000000000000000000000000000000\n    /* \"#utility.yul\":610:611   */\n  0x00\n    /* \"#utility.yul\":603:691   */\n  mstore\n    /* \"#utility.yul\":710:714   */\n  0x41\n    /* \"#utility.yul\":707:708   */\n  0x04\n    /* \"#utility.yul\":700:715   */\n  mstore\n    /* \"#utility.yul\":734:738   */\n  0x24\n    /* \"#utility.yul\":731:732   */\n  0x00\n    /* \"#utility.yul\":724:739   */\n  revert\n    /* \"#utility.yul\":751:1032   */\ntag_32:\n    /* \"#utility.yul\":834:861   */\n  tag_56\n    /* \"#utility.yul\":856:860   */\n  dup3\n    /* \"#utility.yul\":834:861   */\n  tag_30\n  jump\t// in\ntag_56:\n    /* \"#utility.yul\":826:832   */\n  dup2\n    /* \"#utility.yul\":822:862   */\n  add\n    /* \"#utility.yul\":964:970   */\n  dup2\n    /* \"#utility.yul\":952:962   */\n  dup2\n    /* \"#utility.yul\":949:971   */\n  lt\n    /* \"#utility.yul\":928:946   */\n  0xffffffffffffffff\n    /* \"#utility.yul\":916:926   */\n  dup3\n    /* \"#utility.yul\":913:947   */\n  gt\n    /* \"#utility.yul\":910:972   */\n  or\n    /* \"#utility.yul\":907:995   */\n  iszero\n  tag_57\n  jumpi\n    /* \"#utility.yul\":975:993   */\n  tag_58\n  tag_31\n  jump\t// in\ntag_58:\n    /* \"#utility.yul\":907:995   */\ntag_57:\n    /* \"#utility.yul\":1015:1025   */\n  dup1\n    /* \"#utility.yul\":1011:1013   */\n  0x40\n    /* \"#utility.yul\":1004:1026   */\n  mstore\n    /* \"#utility.yul\":794:1032   */\n  pop\n    /* \"#utility.yul\":751:1032   */\n  pop\n  pop\n  jump\t// out\n    /* \"#utility.yul\":1038:1167   */\ntag_33:\n    /* \"#utility.yul\":1072:1078   */\n  0x00\n    /* \"#utility.yul\":1099:1119   */\n  tag_60\n  tag_26\n  jump\t// in\ntag_60:\n    /* \"#utility.yul\":1089:1119   */\n  swap1\n  pop\n    /* \"#utility.yul\":1128:1161   */\n  tag_61\n    /* \"#utility.yul\":1156:1160   */\n  dup3\n    /* \"#utility.yul\":1148:1154   */\n  dup3\n    /* \"#utility.yul\":1128:1161   */\n  tag_32\n  jump\t// in\ntag_61:\n    /* \"#utility.yul\":1038:1167   */\n  swap2\n  swap1\n  pop\n  jump\t// out\n    /* \"#utility.yul\":1173:1484   */\ntag_34:\n    /* \"#utility.yul\":1250:1254   */\n  0x00\n    /* \"#utility.yul\":1340:1358   */\n  0xffffffffffffffff\n    /* \"#utility.yul\":1332:1338   */\n  dup3\n    /* \"#utility.yul\":1329:1359   */\n  gt\n    /* \"#utility.yul\":1326:1382   */\n  iszero\n  tag_63\n  jumpi\n    /* \"#utility.yul\":1362:1380   */\n  tag_64\n  tag_31\n  jump\t// in\ntag_64:\n    /* \"#utility.yul\":1326:1382   */\ntag_63:\n    /* \"#utility.yul\":1412:1416   */\n  0x20\n    /* \"#utility.yul\":1404:1410   */\n  dup3\n    /* \"#utility.yul\":1400:1417   */\n  mul\n    /* \"#utility.yul\":1392:1417   */\n  swap1\n  pop\n    /* \"#utility.yul\":1472:1476   */\n  0x20\n    /* \"#utility.yul\":1466:1470   */\n  dup2\n    /* \"#utility.yul\":1462:1477   */\n  add\n    /* \"#utility.yul\":1454:1477   */\n  swap1\n  pop\n    /* \"#utility.yul\":1173:1484   */\n  swap2\n  swap1\n  pop\n  jump\t// out\n    /* \"#utility.yul\":1490:1607   */\ntag_35:\n    /* \"#utility.yul\":1599:1600   */\n  0x00\n    /* \"#utility.yul\":1596:1597   */\n  0x00\n    /* \"#utility.yul\":1589:1601   */\n  revert\n    /* \"#utility.yul\":1613:1739   */\ntag_36:\n    /* \"#utility.yul\":1650:1657   */\n  0x00\n    /* \"#utility.yul\":1690:1732   */\n  0xffffffffffffffffffffffffffffffffffffffff\n    /* \"#utility.yul\":1683:1688   */\n  dup3\n    /* \"#utility.yul\":1679:1733   */\n  and\n    /* \"#utility.yul\":1668:1733   */\n  swap1\n  pop\n    /* \"#utility.yul\":1613:1739   */\n  swap2\n  swap1\n  pop\n  jump\t// out\n    /* \"#utility.yul\":1745:1841   */\ntag_37:\n    /* \"#utility.yul\":1782:1789   */\n  0x00\n    /* \"#utility.yul\":1811:1835   */\n  tag_68\n    /* \"#utility.yul\":1829:1834   */\n  dup3\n    /* \"#utility.yul\":1811:1835   */\n  tag_36\n  jump\t// in\ntag_68:\n    /* \"#utility.yul\":1800:1835   */\n  swap1\n  pop\n    /* \"#utility.yul\":1745:1841   */\n  swap2\n  swap1\n  pop\n  jump\t// out\n    /* \"#utility.yul\":1847:1969   */\ntag_38:\n    /* \"#utility.yul\":1920:1944   */\n  tag_70\n    /* \"#utility.yul\":1938:1943   */\n  dup2\n    /* \"#utility.yul\":1920:1944   */\n  tag_37\n  jump\t// in\ntag_70:\n    /* \"#utility.yul\":1913:1918   */\n  dup2\n    /* \"#utility.yul\":1910:1945   */\n  eq\n    /* \"#utility.yul\":1900:1963   */\n  tag_71\n  jumpi\n    /* \"#utility.yul\":1959:1960   */\n  0x00\n    /* \"#utility.yul\":1956:1957   */\n  0x00\n    /* \"#utility.yul\":1949:1961   */\n  revert\n    /* \"#utility.yul\":1900:1963   */\ntag_71:\n    /* \"#utility.yul\":1847:1969   */\n  pop\n  jump\t// out\n    /* \"#utility.yul\":1975:2118   */\ntag_39:\n    /* \"#utility.yul\":2032:2037   */\n  0x00\n    /* \"#utility.yul\":2063:2069   */\n  dup2\n    /* \"#utility.yul\":2057:2070   */\n  mload\n    /* \"#utility.yul\":2048:2070   */\n  swap1\n  pop\n    /* \"#utility.yul\":2079:2112   */\n  tag_73\n    /* \"#utility.yul\":2106:2111   */\n  dup2\n    /* \"#utility.yul\":2079:2112   */\n  tag_38\n  jump\t// in\ntag_73:\n    /* \"#utility.yul\":1975:2118   */\n  swap3\n  swap2\n  pop\n  pop\n  jump\t// out\n    /* \"#utility.yul\":2141:2873   */\ntag_40:\n    /* \"#utility.yul\":2248:2253   */\n  0x00\n    /* \"#utility.yul\":2273:2354   */\n  tag_75\n    /* \"#utility.yul\":2289:2353   */\n  tag_76\n    /* \"#utility.yul\":2346:2352   */\n  dup5\n    /* \"#utility.yul\":2289:2353   */\n  tag_34\n  jump\t// in\ntag_76:\n    /* \"#utility.yul\":2273:2354   */\n  tag_33\n  jump\t// in\ntag_75:\n    /* \"#utility.yul\":2264:2354   */\n  swap1\n  pop\n    /* \"#utility.yul\":2374:2379   */\n  dup1\n    /* \"#utility.yul\":2403:2409   */\n  dup4\n    /* \"#utility.yul\":2396:2401   */\n  dup3\n    /* \"#utility.yul\":2389:2410   */\n  mstore\n    /* \"#utility.yul\":2437:2441   */\n  0x20\n    /* \"#utility.yul\":2430:2435   */\n  dup3\n    /* \"#utility.yul\":2426:2442   */\n  add\n    /* \"#utility.yul\":2419:2442   */\n  swap1\n  pop\n    /* \"#utility.yul\":2490:2494   */\n  0x20\n    /* \"#utility.yul\":2482:2488   */\n  dup5\n    /* \"#utility.yul\":2478:2495   */\n  mul\n    /* \"#utility.yul\":2470:2476   */\n  dup4\n    /* \"#utility.yul\":2466:2496   */\n  add\n    /* \"#utility.yul\":2519:2522   */\n  dup6\n    /* \"#utility.yul\":2511:2517   */\n  dup2\n    /* \"#utility.yul\":2508:2523   */\n  gt\n    /* \"#utility.yul\":2505:2627   */\n  iszero\n  tag_77\n  jumpi\n    /* \"#utility.yul\":2538:2617   */\n  tag_78\n  tag_35\n  jump\t// in\ntag_78:\n    /* \"#utility.yul\":2505:2627   */\ntag_77:\n    /* \"#utility.yul\":2653:2659   */\n  dup4\n    /* \"#utility.yul\":2636:2867   */\ntag_79:\n    /* \"#utility.yul\":2670:2676   */\n  dup2\n    /* \"#utility.yul\":2665:2668   */\n  dup2\n    /* \"#utility.yul\":2662:2677   */\n  lt\n    /* \"#utility.yul\":2636:2867   */\n  iszero\n  tag_81\n  jumpi\n    /* \"#utility.yul\":2745:2748   */\n  dup1\n    /* \"#utility.yul\":2774:2822   */\n  tag_82\n    /* \"#utility.yul\":2818:2821   */\n  dup9\n    /* \"#utility.yul\":2806:2816   */\n  dup3\n    /* \"#utility.yul\":2774:2822   */\n  tag_39\n  jump\t// in\ntag_82:\n    /* \"#utility.yul\":2769:2772   */\n  dup5\n    /* \"#utility.yul\":2762:2823   */\n  mstore\n    /* \"#utility.yul\":2852:2856   */\n  0x20\n    /* \"#utility.yul\":2847:2850   */\n  dup5\n    /* \"#utility.yul\":2843:2857   */\n  add\n    /* \"#utility.yul\":2836:2857   */\n  swap4\n  pop\n    /* \"#utility.yul\":2712:2867   */\n  pop\n    /* \"#utility.yul\":2696:2700   */\n  0x20\n    /* \"#utility.yul\":2691:2694   */\n  dup2\n    /* \"#utility.yul\":2687:2701   */\n  add\n    /* \"#utility.yul\":2680:2701   */\n  swap1\n  pop\n    /* \"#utility.yul\":2636:2867   */\n  jump(tag_79)\ntag_81:\n    /* \"#utility.yul\":2640:2661   */\n  pop\n    /* \"#utility.yul\":2254:2873   */\n  pop\n  pop\n    /* \"#utility.yul\":2141:2873   */\n  swap4\n  swap3\n  pop\n  pop\n  pop\n  jump\t// out\n    /* \"#utility.yul\":2896:3281   */\ntag_41:\n    /* \"#utility.yul\":2978:2983   */\n  0x00\n    /* \"#utility.yul\":3027:3030   */\n  dup3\n    /* \"#utility.yul\":3020:3024   */\n  0x1f\n    /* \"#utility.yul\":3012:3018   */\n  dup4\n    /* \"#utility.yul\":3008:3025   */\n  add\n    /* \"#utility.yul\":3004:3031   */\n  slt\n    /* \"#utility.yul\":2994:3116   */\n  tag_84\n  jumpi\n    /* \"#utility.yul\":3035:3114   */\n  tag_85\n  tag_29\n  jump\t// in\ntag_85:\n    /* \"#utility.yul\":2994:3116   */\ntag_84:\n    /* \"#utility.yul\":3145:3151   */\n  dup2\n    /* \"#utility.yul\":3139:3152   */\n  mload\n    /* \"#utility.yul\":3170:3275   */\n  tag_86\n    /* \"#utility.yul\":3271:3274   */\n  dup5\n    /* \"#utility.yul\":3263:3269   */\n  dup3\n    /* \"#utility.yul\":3256:3260   */\n  0x20\n    /* \"#utility.yul\":3248:3254   */\n  dup7\n    /* \"#utility.yul\":3244:3261   */\n  add\n    /* \"#utility.yul\":3170:3275   */\n  tag_40\n  jump\t// in\ntag_86:\n    /* \"#utility.yul\":3161:3275   */\n  swap2\n  pop\n    /* \"#utility.yul\":2984:3281   */\n  pop\n    /* \"#utility.yul\":2896:3281   */\n  swap3\n  swap2\n  pop\n  pop\n  jump\t// out\n    /* \"#utility.yul\":3287:3364   */\ntag_42:\n    /* \"#utility.yul\":3324:3331   */\n  0x00\n    /* \"#utility.yul\":3353:3358   */\n  dup2\n    /* \"#utility.yul\":3342:3358   */\n  swap1\n  pop\n    /* \"#utility.yul\":3287:3364   */\n  swap2\n  swap1\n  pop\n  jump\t// out\n    /* \"#utility.yul\":3370:3492   */\ntag_43:\n    /* \"#utility.yul\":3443:3467   */\n  tag_89\n    /* \"#utility.yul\":3461:3466   */\n  dup2\n    /* \"#utility.yul\":3443:3467   */\n  tag_42\n  jump\t// in\ntag_89:\n    /* \"#utility.yul\":3436:3441   */\n  dup2\n    /* \"#utility.yul\":3433:3468   */\n  eq\n    /* \"#utility.yul\":3423:3486   */\n  tag_90\n  jumpi\n    /* \"#utility.yul\":3482:3483   */\n  0x00\n    /* \"#utility.yul\":3479:3480   */\n  0x00\n    /* \"#utility.yul\":3472:3484   */\n  revert\n    /* \"#utility.yul\":3423:3486   */\ntag_90:\n    /* \"#utility.yul\":3370:3492   */\n  pop\n  jump\t// out\n    /* \"#utility.yul\":3498:3641   */\ntag_44:\n    /* \"#utility.yul\":3555:3560   */\n  0x00\n    /* \"#utility.yul\":3586:3592   */\n  dup2\n    /* \"#utility.yul\":3580:3593   */\n  mload\n    /* \"#utility.yul\":3571:3593   */\n  swap1\n  pop\n    /* \"#utility.yul\":3602:3635   */\n  tag_92\n    /* \"#utility.yul\":3629:3634   */\n  dup2\n    /* \"#utility.yul\":3602:3635   */\n  tag_43\n  jump\t// in\ntag_92:\n    /* \"#utility.yul\":3498:3641   */\n  swap3\n  swap2\n  pop\n  pop\n  jump\t// out\n    /* \"#utility.yul\":3647:4357   */\ntag_2:\n    /* \"#utility.yul\":3751:3757   */\n  0x00\n    /* \"#utility.yul\":3759:3765   */\n  0x00\n    /* \"#utility.yul\":3808:3810   */\n  0x40\n    /* \"#utility.yul\":3796:3805   */\n  dup4\n    /* \"#utility.yul\":3787:3794   */\n  dup6\n    /* \"#utility.yul\":3783:3806   */\n  sub\n    /* \"#utility.yul\":3779:3811   */\n  slt\n    /* \"#utility.yul\":3776:3895   */\n  iszero\n  tag_94\n  jumpi\n    /* \"#utility.yul\":3814:3893   */\n  tag_95\n  tag_27\n  jump\t// in\ntag_95:\n    /* \"#utility.yul\":3776:3895   */\ntag_94:\n    /* \"#utility.yul\":3955:3956   */\n  0x00\n    /* \"#utility.yul\":3944:3953   */\n  dup4\n    /* \"#utility.yul\":3940:3957   */\n  add\n    /* \"#utility.yul\":3934:3958   */\n  mload\n    /* \"#utility.yul\":3985:4003   */\n  0xffffffffffffffff\n    /* \"#utility.yul\":3977:3983   */\n  dup2\n    /* \"#utility.yul\":3974:4004   */\n  gt\n    /* \"#utility.yul\":3971:4088   */\n  iszero\n  tag_96\n  jumpi\n    /* \"#utility.yul\":4007:4086   */\n  tag_97\n  tag_28\n  jump\t// in\ntag_97:\n    /* \"#utility.yul\":3971:4088   */\ntag_96:\n    /* \"#utility.yul\":4112:4201   */\n  tag_98\n    /* \"#utility.yul\":4193:4200   */\n  dup6\n    /* \"#utility.yul\":4184:4190   */\n  dup3\n    /* \"#utility.yul\":4173:4182   */\n  dup7\n    /* \"#utility.yul\":4169:4191   */\n  add\n    /* \"#utility.yul\":4112:4201   */\n  tag_41\n  jump\t// in\ntag_98:\n    /* \"#utility.yul\":4102:4201   */\n  swap3\n  pop\n    /* \"#utility.yul\":3905:4211   */\n  pop\n    /* \"#utility.yul\":4250:4252   */\n  0x20\n    /* \"#utility.yul\":4276:4340   */\n  tag_99\n    /* \"#utility.yul\":4332:4339   */\n  dup6\n    /* \"#utility.yul\":4323:4329   */\n  dup3\n    /* \"#utility.yul\":4312:4321   */\n  dup7\n    /* \"#utility.yul\":4308:4330   */\n  add\n    /* \"#utility.yul\":4276:4340   */\n  tag_44\n  jump\t// in\ntag_99:\n    /* \"#utility.yul\":4266:4340   */\n  swap2\n  pop\n    /* \"#utility.yul\":4221:4350   */\n  pop\n    /* \"#utility.yul\":3647:4357   */\n  swap3\n  pop\n  swap3\n  swap1\n  pop\n  jump\t// out\n    /* \"#utility.yul\":4363:4543   */\ntag_12:\n    /* \"#utility.yul\":4411:4488   */\n  0x4e487b7100000000000000000000000000000000000000000000000000000000\n    /* \"#utility.yul\":4408:4409   */\n  0x00\n    /* \"#utility.yul\":4401:4489   */\n  mstore\n    /* \"#utility.yul\":4508:4512   */\n  0x32\n    /* \"#utility.yul\":4505:4506   */\n  0x04\n    /* \"#utility.yul\":4498:4513   */\n  mstore\n    /* \"#utility.yul\":4532:4536   */\n  0x24\n    /* \"#utility.yul\":4529:4530   */\n  0x00\n    /* \"#utility.yul\":4522:4537   */\n  revert\n    /* \"#utility.yul\":4549:4718   */\ntag_45:\n    /* \"#utility.yul\":4633:4644   */\n  0x00\n    /* \"#utility.yul\":4667:4673   */\n  dup3\n    /* \"#utility.yul\":4662:4665   */\n  dup3\n    /* \"#utility.yul\":4655:4674   */\n  mstore\n    /* \"#utility.yul\":4707:4711   */\n  0x20\n    /* \"#utility.yul\":4702:4705   */\n  dup3\n    /* \"#utility.yul\":4698:4712   */\n  add\n    /* \"#utility.yul\":4683:4712   */\n  swap1\n  pop\n    /* \"#utility.yul\":4549:4718   */\n  swap3\n  swap2\n  pop\n  pop\n  jump\t// out\n    /* \"#utility.yul\":4724:4881   */\ntag_46:\n    /* \"#utility.yul\":4864:4873   */\n  0x476574206f757400000000000000000000000000000000000000000000000000\n    /* \"#utility.yul\":4860:4861   */\n  0x00\n    /* \"#utility.yul\":4852:4858   */\n  dup3\n    /* \"#utility.yul\":4848:4862   */\n  add\n    /* \"#utility.yul\":4841:4874   */\n  mstore\n    /* \"#utility.yul\":4724:4881   */\n  pop\n  jump\t// out\n    /* \"#utility.yul\":4887:5252   */\ntag_47:\n    /* \"#utility.yul\":5029:5032   */\n  0x00\n    /* \"#utility.yul\":5050:5116   */\n  tag_104\n    /* \"#utility.yul\":5114:5115   */\n  0x07\n    /* \"#utility.yul\":5109:5112   */\n  dup4\n    /* \"#utility.yul\":5050:5116   */\n  tag_45\n  jump\t// in\ntag_104:\n    /* \"#utility.yul\":5043:5116   */\n  swap2\n  pop\n    /* \"#utility.yul\":5125:5218   */\n  tag_105\n    /* \"#utility.yul\":5214:5217   */\n  dup3\n    /* \"#utility.yul\":5125:5218   */\n  tag_46\n  jump\t// in\ntag_105:\n    /* \"#utility.yul\":5243:5245   */\n  0x20\n    /* \"#utility.yul\":5238:5241   */\n  dup3\n    /* \"#utility.yul\":5234:5246   */\n  add\n    /* \"#utility.yul\":5227:5246   */\n  swap1\n  pop\n    /* \"#utility.yul\":4887:5252   */\n  swap2\n  swap1\n  pop\n  jump\t// out\n    /* \"#utility.yul\":5258:5677   */\ntag_15:\n    /* \"#utility.yul\":5424:5428   */\n  0x00\n    /* \"#utility.yul\":5462:5464   */\n  0x20\n    /* \"#utility.yul\":5451:5460   */\n  dup3\n    /* \"#utility.yul\":5447:5465   */\n  add\n    /* \"#utility.yul\":5439:5465   */\n  swap1\n  pop\n    /* \"#utility.yul\":5511:5520   */\n  dup2\n    /* \"#utility.yul\":5505:5509   */\n  dup2\n    /* \"#utility.yul\":5501:5521   */\n  sub\n    /* \"#utility.yul\":5497:5498   */\n  0x00\n    /* \"#utility.yul\":5486:5495   */\n  dup4\n    /* \"#utility.yul\":5482:5499   */\n  add\n    /* \"#utility.yul\":5475:5522   */\n  mstore\n    /* \"#utility.yul\":5539:5670   */\n  tag_107\n    /* \"#utility.yul\":5665:5669   */\n  dup2\n    /* \"#utility.yul\":5539:5670   */\n  tag_47\n  jump\t// in\ntag_107:\n    /* \"#utility.yul\":5531:5670   */\n  swap1\n  pop\n    /* \"#utility.yul\":5258:5677   */\n  swap2\n  swap1\n  pop\n  jump\t// out\n    /* \"contracts/MultisigWallet.sol\":61:3813  contract Multisig {... */\ntag_18:\n  dataSize(sub_0)\n  dup1\n  dataOffset(sub_0)\n  0x00\n  codecopy\n  0x00\n  return\nstop\n\nsub_0: assembly {\n        /* \"contracts/MultisigWallet.sol\":61:3813  contract Multisig {... */\n      mstore(0x40, 0x80)\n      jumpi(tag_1, lt(calldatasize, 0x04))\n      shr(0xe0, calldataload(0x00))\n      dup1\n      0xadd6415d\n      gt\n      tag_11\n      jumpi\n      dup1\n      0xadd6415d\n      eq\n      tag_7\n      jumpi\n      dup1\n      0xde8ee817\n      eq\n      tag_8\n      jumpi\n      dup1\n      0xe42bb8aa\n      eq\n      tag_9\n      jumpi\n      dup1\n      0xf2fde38b\n      eq\n      tag_10\n      jumpi\n      jump(tag_2)\n    tag_11:\n      dup1\n      0x2079fb9a\n      eq\n      tag_3\n      jumpi\n      dup1\n      0x242232d1\n      eq\n      tag_4\n      jumpi\n      dup1\n      0x4e71e0c8\n      eq\n      tag_5\n      jumpi\n      dup1\n      0x4efd24de\n      eq\n      tag_6\n      jumpi\n      jump(tag_2)\n    tag_1:\n    tag_2:\n      stop\n        /* \"contracts/MultisigWallet.sol\":88:112  address[] public signers */\n    tag_3:\n      callvalue\n      dup1\n      iszero\n      tag_16\n      jumpi\n      revert(0x00, 0x00)\n    tag_16:\n      pop\n      tag_17\n      0x04\n      dup1\n      calldatasize\n      sub\n      dup2\n      add\n      swap1\n      tag_18\n      swap2\n      swap1\n      tag_19\n      jump\t// in\n    tag_18:\n      tag_20\n      jump\t// in\n    tag_17:\n      mload(0x40)\n      tag_21\n      swap2\n      swap1\n      tag_22\n      jump\t// in\n    tag_21:\n      mload(0x40)\n      dup1\n      swap2\n      sub\n      swap1\n      return\n        /* \"contracts/MultisigWallet.sol\":1636:2459  function approveTransaction(uint256 _txId) external  {... */\n    tag_4:\n      callvalue\n      dup1\n      iszero\n      tag_23\n      jumpi\n      revert(0x00, 0x00)\n    tag_23:\n      pop\n      tag_24\n      0x04\n      dup1\n      calldatasize\n      sub\n      dup2\n      add\n      swap1\n      tag_25\n      swap2\n      swap1\n      tag_19\n      jump\t// in\n    tag_25:\n      tag_26\n      jump\t// in\n    tag_24:\n      stop\n        /* \"contracts/MultisigWallet.sol\":2593:2764  function claimOwnership() external  {... */\n    tag_5:\n      callvalue\n      dup1\n      iszero\n      tag_27\n      jumpi\n      revert(0x00, 0x00)\n    tag_27:\n      pop\n      tag_28\n      tag_29\n      jump\t// in\n    tag_28:\n      stop\n        /* \"contracts/MultisigWallet.sol\":3018:3290  function removeSigner(uint32 _index) external  {... */\n    tag_6:\n      callvalue\n      dup1\n      iszero\n      tag_30\n      jumpi\n      revert(0x00, 0x00)\n    tag_30:\n      pop\n      tag_31\n      0x04\n      dup1\n      calldatasize\n      sub\n      dup2\n      add\n      swap1\n      tag_32\n      swap2\n      swap1\n      tag_33\n      jump\t// in\n    tag_32:\n      tag_34\n      jump\t// in\n    tag_31:\n      stop\n        /* \"contracts/MultisigWallet.sol\":3300:3416  function getAllTransaction () external  view returns(Transaction[] memory) {... */\n    tag_7:\n      callvalue\n      dup1\n      iszero\n      tag_35\n      jumpi\n      revert(0x00, 0x00)\n    tag_35:\n      pop\n      tag_36\n      tag_37\n      jump\t// in\n    tag_36:\n      mload(0x40)\n      tag_38\n      swap2\n      swap1\n      tag_39\n      jump\t// in\n    tag_38:\n      mload(0x40)\n      dup1\n      swap2\n      sub\n      swap1\n      return\n        /* \"contracts/MultisigWallet.sol\":2774:3010  function addValidSigner(address _newSigner) external  {... */\n    tag_8:\n      callvalue\n      dup1\n      iszero\n      tag_40\n      jumpi\n      revert(0x00, 0x00)\n    tag_40:\n      pop\n      tag_41\n      0x04\n      dup1\n      calldatasize\n      sub\n      dup2\n      add\n      swap1\n      tag_42\n      swap2\n      swap1\n      tag_43\n      jump\t// in\n    tag_42:\n      tag_44\n      jump\t// in\n    tag_41:\n      stop\n        /* \"contracts/MultisigWallet.sol\":984:1628  function initiateTransaction(uint256 _amount, address _receiver) external  {... */\n    tag_9:\n      callvalue\n      dup1\n      iszero\n      tag_45\n      jumpi\n      revert(0x00, 0x00)\n    tag_45:\n      pop\n      tag_46\n      0x04\n      dup1\n      calldatasize\n      sub\n      dup2\n      add\n      swap1\n      tag_47\n      swap2\n      swap1\n      tag_48\n      jump\t// in\n    tag_47:\n      tag_49\n      jump\t// in\n    tag_46:\n      stop\n        /* \"contracts/MultisigWallet.sol\":2467:2585  function transferOwnership(address _newOwner) external  {... */\n    tag_10:\n      callvalue\n      dup1\n      iszero\n      tag_50\n      jumpi\n      revert(0x00, 0x00)\n    tag_50:\n      pop\n      tag_51\n      0x04\n      dup1\n      calldatasize\n      sub\n      dup2\n      add\n      swap1\n      tag_52\n      swap2\n      swap1\n      tag_43\n      jump\t// in\n    tag_52:\n      tag_53\n      jump\t// in\n    tag_51:\n      stop\n        /* \"contracts/MultisigWallet.sol\":88:112  address[] public signers */\n    tag_20:\n      0x00\n      dup2\n      dup2\n      sload\n      dup2\n      lt\n      tag_54\n      jumpi\n      0x00\n      dup1\n      revert\n    tag_54:\n      swap1\n      0x00\n      mstore\n      keccak256(0x00, 0x20)\n      add\n      0x00\n      swap2\n      pop\n      sload\n      swap1\n      0x0100\n      exp\n      swap1\n      div\n      0xffffffffffffffffffffffffffffffffffffffff\n      and\n      dup2\n      jump\t// out\n        /* \"contracts/MultisigWallet.sol\":1636:2459  function approveTransaction(uint256 _txId) external  {... */\n    tag_26:\n        /* \"contracts/MultisigWallet.sol\":1717:1724  txCount */\n      sload(0x02)\n        /* \"contracts/MultisigWallet.sol\":1708:1713  _txId */\n      dup2\n        /* \"contracts/MultisigWallet.sol\":1708:1724  _txId <= txCount */\n      gt\n      iszero\n        /* \"contracts/MultisigWallet.sol\":1700:1751  require(_txId <= txCount, \"Invalid transaction id\") */\n      tag_57\n      jumpi\n      mload(0x40)\n      0x08c379a000000000000000000000000000000000000000000000000000000000\n      dup2\n      mstore\n      0x04\n      add\n      tag_58\n      swap1\n      tag_59\n      jump\t// in\n    tag_58:\n      mload(0x40)\n      dup1\n      swap2\n      sub\n      swap1\n      revert\n    tag_57:\n        /* \"contracts/MultisigWallet.sol\":1792:1793  0 */\n      0x00\n        /* \"contracts/MultisigWallet.sol\":1770:1794  msg.sender != address(0) */\n      0xffffffffffffffffffffffffffffffffffffffff\n      and\n        /* \"contracts/MultisigWallet.sol\":1770:1780  msg.sender */\n      caller\n        /* \"contracts/MultisigWallet.sol\":1770:1794  msg.sender != address(0) */\n      0xffffffffffffffffffffffffffffffffffffffff\n      and\n      sub\n        /* \"contracts/MultisigWallet.sol\":1762:1820  require(msg.sender != address(0), \"Zero address detected\") */\n      tag_60\n      jumpi\n      mload(0x40)\n      0x08c379a000000000000000000000000000000000000000000000000000000000\n      dup2\n      mstore\n      0x04\n      add\n      tag_61\n      swap1\n      tag_62\n      jump\t// in\n    tag_61:\n      mload(0x40)\n      dup1\n      swap2\n      sub\n      swap1\n      revert\n    tag_60:\n        /* \"contracts/MultisigWallet.sol\":1833:1850  onlyValidSigner() */\n      tag_63\n        /* \"contracts/MultisigWallet.sol\":1833:1848  onlyValidSigner */\n      tag_64\n        /* \"contracts/MultisigWallet.sol\":1833:1850  onlyValidSigner() */\n      jump\t// in\n    tag_63:\n        /* \"contracts/MultisigWallet.sol\":1872:1881  hasSigned */\n      0x06\n        /* \"contracts/MultisigWallet.sol\":1872:1888  hasSigned[_txId] */\n      0x00\n        /* \"contracts/MultisigWallet.sol\":1882:1887  _txId */\n      dup3\n        /* \"contracts/MultisigWallet.sol\":1872:1888  hasSigned[_txId] */\n      dup2\n      mstore\n      0x20\n      add\n      swap1\n      dup2\n      mstore\n      0x20\n      add\n      0x00\n      keccak256\n        /* \"contracts/MultisigWallet.sol\":1872:1900  hasSigned[_txId][msg.sender] */\n      0x00\n        /* \"contracts/MultisigWallet.sol\":1889:1899  msg.sender */\n      caller\n        /* \"contracts/MultisigWallet.sol\":1872:1900  hasSigned[_txId][msg.sender] */\n      0xffffffffffffffffffffffffffffffffffffffff\n      and\n      0xffffffffffffffffffffffffffffffffffffffff\n      and\n      dup2\n      mstore\n      0x20\n      add\n      swap1\n      dup2\n      mstore\n      0x20\n      add\n      0x00\n      keccak256\n      0x00\n      swap1\n      sload\n      swap1\n      0x0100\n      exp\n      swap1\n      div\n      0xff\n      and\n        /* \"contracts/MultisigWallet.sol\":1871:1900  !hasSigned[_txId][msg.sender] */\n      iszero\n        /* \"contracts/MultisigWallet.sol\":1863:1921  require(!hasSigned[_txId][msg.sender], \"Can't sign twice\") */\n      tag_65\n      jumpi\n      mload(0x40)\n      0x08c379a000000000000000000000000000000000000000000000000000000000\n      dup2\n      mstore\n      0x04\n      add\n      tag_66\n      swap1\n      tag_67\n      jump\t// in\n    tag_66:\n      mload(0x40)\n      dup1\n      swap2\n      sub\n      swap1\n      revert\n    tag_65:\n        /* \"contracts/MultisigWallet.sol\":1932:1955  Transaction storage tns */\n      0x00\n        /* \"contracts/MultisigWallet.sol\":1958:1970  transactions */\n      0x07\n        /* \"contracts/MultisigWallet.sol\":1958:1977  transactions[_txId] */\n      0x00\n        /* \"contracts/MultisigWallet.sol\":1971:1976  _txId */\n      dup4\n        /* \"contracts/MultisigWallet.sol\":1958:1977  transactions[_txId] */\n      dup2\n      mstore\n      0x20\n      add\n      swap1\n      dup2\n      mstore\n      0x20\n      add\n      0x00\n      keccak256\n        /* \"contracts/MultisigWallet.sol\":1932:1977  Transaction storage tns = transactions[_txId] */\n      swap1\n      pop\n        /* \"contracts/MultisigWallet.sol\":2021:2024  tns */\n      dup1\n        /* \"contracts/MultisigWallet.sol\":2021:2031  tns.amount */\n      0x01\n      add\n      sload\n        /* \"contracts/MultisigWallet.sol\":1996:2017  address(this).balance */\n      selfbalance\n        /* \"contracts/MultisigWallet.sol\":1996:2031  address(this).balance >= tns.amount */\n      lt\n      iszero\n        /* \"contracts/MultisigWallet.sol\":1988:2065  require(address(this).balance >= tns.amount, \"Insufficient contract balance\") */\n      tag_68\n      jumpi\n      mload(0x40)\n      0x08c379a000000000000000000000000000000000000000000000000000000000\n      dup2\n      mstore\n      0x04\n      add\n      tag_69\n      swap1\n      tag_70\n      jump\t// in\n    tag_69:\n      mload(0x40)\n      dup1\n      swap2\n      sub\n      swap1\n      revert\n    tag_68:\n        /* \"contracts/MultisigWallet.sol\":2087:2090  tns */\n      dup1\n        /* \"contracts/MultisigWallet.sol\":2087:2101  tns.isExecuted */\n      0x04\n      add\n      0x00\n      swap1\n      sload\n      swap1\n      0x0100\n      exp\n      swap1\n      div\n      0xff\n      and\n        /* \"contracts/MultisigWallet.sol\":2086:2101  !tns.isExecuted */\n      iszero\n        /* \"contracts/MultisigWallet.sol\":2078:2134  require(!tns.isExecuted, \"transaction already executed\") */\n      tag_71\n      jumpi\n      mload(0x40)\n      0x08c379a000000000000000000000000000000000000000000000000000000000\n      dup2\n      mstore\n      0x04\n      add\n      tag_72\n      swap1\n      tag_73\n      jump\t// in\n    tag_72:\n      mload(0x40)\n      dup1\n      swap2\n      sub\n      swap1\n      revert\n    tag_71:\n        /* \"contracts/MultisigWallet.sol\":2172:2178  quorum */\n      sload(0x01)\n        /* \"contracts/MultisigWallet.sol\":2153:2156  tns */\n      dup2\n        /* \"contracts/MultisigWallet.sol\":2153:2169  tns.signersCount */\n      0x03\n      add\n      sload\n        /* \"contracts/MultisigWallet.sol\":2153:2178  tns.signersCount < quorum */\n      lt\n        /* \"contracts/MultisigWallet.sol\":2145:2203  require(tns.signersCount < quorum, \"Quorum count reached\") */\n      tag_74\n      jumpi\n      mload(0x40)\n      0x08c379a000000000000000000000000000000000000000000000000000000000\n      dup2\n      mstore\n      0x04\n      add\n      tag_75\n      swap1\n      tag_76\n      jump\t// in\n    tag_75:\n      mload(0x40)\n      dup1\n      swap2\n      sub\n      swap1\n      revert\n    tag_74:\n        /* \"contracts/MultisigWallet.sol\":2254:2255  1 */\n      0x01\n        /* \"contracts/MultisigWallet.sol\":2235:2238  tns */\n      dup2\n        /* \"contracts/MultisigWallet.sol\":2235:2251  tns.signersCount */\n      0x03\n      add\n      sload\n        /* \"contracts/MultisigWallet.sol\":2235:2255  tns.signersCount + 1 */\n      tag_77\n      swap2\n      swap1\n      tag_78\n      jump\t// in\n    tag_77:\n        /* \"contracts/MultisigWallet.sol\":2216:2219  tns */\n      dup2\n        /* \"contracts/MultisigWallet.sol\":2216:2232  tns.signersCount */\n      0x03\n      add\n        /* \"contracts/MultisigWallet.sol\":2216:2255  tns.signersCount = tns.signersCount + 1 */\n      dup2\n      swap1\n      sstore\n      pop\n        /* \"contracts/MultisigWallet.sol\":2299:2303  true */\n      0x01\n        /* \"contracts/MultisigWallet.sol\":2268:2277  hasSigned */\n      0x06\n        /* \"contracts/MultisigWallet.sol\":2268:2284  hasSigned[_txId] */\n      0x00\n        /* \"contracts/MultisigWallet.sol\":2278:2283  _txId */\n      dup5\n        /* \"contracts/MultisigWallet.sol\":2268:2284  hasSigned[_txId] */\n      dup2\n      mstore\n      0x20\n      add\n      swap1\n      dup2\n      mstore\n      0x20\n      add\n      0x00\n      keccak256\n        /* \"contracts/MultisigWallet.sol\":2268:2296  hasSigned[_txId][msg.sender] */\n      0x00\n        /* \"contracts/MultisigWallet.sol\":2285:2295  msg.sender */\n      caller\n        /* \"contracts/MultisigWallet.sol\":2268:2296  hasSigned[_txId][msg.sender] */\n      0xffffffffffffffffffffffffffffffffffffffff\n      and\n      0xffffffffffffffffffffffffffffffffffffffff\n      and\n      dup2\n      mstore\n      0x20\n      add\n      swap1\n      dup2\n      mstore\n      0x20\n      add\n      0x00\n      keccak256\n      0x00\n        /* \"contracts/MultisigWallet.sol\":2268:2303  hasSigned[_txId][msg.sender] = true */\n      0x0100\n      exp\n      dup2\n      sload\n      dup2\n      0xff\n      mul\n      not\n      and\n      swap1\n      dup4\n      iszero\n      iszero\n      mul\n      or\n      swap1\n      sstore\n      pop\n        /* \"contracts/MultisigWallet.sol\":2339:2345  quorum */\n      sload(0x01)\n        /* \"contracts/MultisigWallet.sol\":2319:2322  tns */\n      dup2\n        /* \"contracts/MultisigWallet.sol\":2319:2335  tns.signersCount */\n      0x03\n      add\n      sload\n        /* \"contracts/MultisigWallet.sol\":2319:2345  tns.signersCount == quorum */\n      sub\n        /* \"contracts/MultisigWallet.sol\":2316:2452  if(tns.signersCount == quorum) {... */\n      tag_79\n      jumpi\n        /* \"contracts/MultisigWallet.sol\":2379:2383  true */\n      0x01\n        /* \"contracts/MultisigWallet.sol\":2362:2365  tns */\n      dup2\n        /* \"contracts/MultisigWallet.sol\":2362:2376  tns.isExecuted */\n      0x04\n      add\n      0x00\n        /* \"contracts/MultisigWallet.sol\":2362:2383  tns.isExecuted = true */\n      0x0100\n      exp\n      dup2\n      sload\n      dup2\n      0xff\n      mul\n      not\n      and\n      swap1\n      dup4\n      iszero\n      iszero\n      mul\n      or\n      swap1\n      sstore\n      pop\n        /* \"contracts/MultisigWallet.sol\":2406:2409  tns */\n      dup1\n        /* \"contracts/MultisigWallet.sol\":2406:2418  tns.receiver */\n      0x02\n      add\n      0x00\n      swap1\n      sload\n      swap1\n      0x0100\n      exp\n      swap1\n      div\n      0xffffffffffffffffffffffffffffffffffffffff\n      and\n        /* \"contracts/MultisigWallet.sol\":2398:2428  payable(tns.receiver).transfer */\n      0xffffffffffffffffffffffffffffffffffffffff\n      and\n        /* \"contracts/MultisigWallet.sol\":2398:2440  payable(tns.receiver).transfer(tns.amount) */\n      0x08fc\n        /* \"contracts/MultisigWallet.sol\":2429:2432  tns */\n      dup3\n        /* \"contracts/MultisigWallet.sol\":2429:2439  tns.amount */\n      0x01\n      add\n      sload\n        /* \"contracts/MultisigWallet.sol\":2398:2440  payable(tns.receiver).transfer(tns.amount) */\n      swap1\n      dup2\n      iszero\n      mul\n      swap1\n      mload(0x40)\n      0x00\n      mload(0x40)\n      dup1\n      dup4\n      sub\n      dup2\n      dup6\n      dup9\n      dup9\n      call\n      swap4\n      pop\n      pop\n      pop\n      pop\n      iszero\n      dup1\n      iszero\n      tag_81\n      jumpi\n      returndatacopy(0x00, 0x00, returndatasize)\n      revert(0x00, returndatasize)\n    tag_81:\n      pop\n        /* \"contracts/MultisigWallet.sol\":2316:2452  if(tns.signersCount == quorum) {... */\n    tag_79:\n        /* \"contracts/MultisigWallet.sol\":1689:2459  {... */\n      pop\n        /* \"contracts/MultisigWallet.sol\":1636:2459  function approveTransaction(uint256 _txId) external  {... */\n      pop\n      jump\t// out\n        /* \"contracts/MultisigWallet.sol\":2593:2764  function claimOwnership() external  {... */\n    tag_29:\n        /* \"contracts/MultisigWallet.sol\":2662:2671  nextOwner */\n      0x04\n      0x00\n      swap1\n      sload\n      swap1\n      0x0100\n      exp\n      swap1\n      div\n      0xffffffffffffffffffffffffffffffffffffffff\n      and\n        /* \"contracts/MultisigWallet.sol\":2648:2671  msg.sender == nextOwner */\n      0xffffffffffffffffffffffffffffffffffffffff\n      and\n        /* \"contracts/MultisigWallet.sol\":2648:2658  msg.sender */\n      caller\n        /* \"contracts/MultisigWallet.sol\":2648:2671  msg.sender == nextOwner */\n      0xffffffffffffffffffffffffffffffffffffffff\n      and\n      eq\n        /* \"contracts/MultisigWallet.sol\":2640:2690  require(msg.sender == nextOwner, \"Not next owner\") */\n      tag_83\n      jumpi\n      mload(0x40)\n      0x08c379a000000000000000000000000000000000000000000000000000000000\n      dup2\n      mstore\n      0x04\n      add\n      tag_84\n      swap1\n      tag_85\n      jump\t// in\n    tag_84:\n      mload(0x40)\n      dup1\n      swap2\n      sub\n      swap1\n      revert\n    tag_83:\n        /* \"contracts/MultisigWallet.sol\":2711:2721  msg.sender */\n      caller\n        /* \"contracts/MultisigWallet.sol\":2703:2708  owner */\n      0x03\n      0x00\n        /* \"contracts/MultisigWallet.sol\":2703:2721  owner = msg.sender */\n      0x0100\n      exp\n      dup2\n      sload\n      dup2\n      0xffffffffffffffffffffffffffffffffffffffff\n      mul\n      not\n      and\n      swap1\n      dup4\n      0xffffffffffffffffffffffffffffffffffffffff\n      and\n      mul\n      or\n      swap1\n      sstore\n      pop\n        /* \"contracts/MultisigWallet.sol\":2754:2755  0 */\n      0x00\n        /* \"contracts/MultisigWallet.sol\":2734:2743  nextOwner */\n      0x04\n      0x00\n        /* \"contracts/MultisigWallet.sol\":2734:2756  nextOwner = address(0) */\n      0x0100\n      exp\n      dup2\n      sload\n      dup2\n      0xffffffffffffffffffffffffffffffffffffffff\n      mul\n      not\n      and\n      swap1\n      dup4\n      0xffffffffffffffffffffffffffffffffffffffff\n      and\n      mul\n      or\n      swap1\n      sstore\n      pop\n        /* \"contracts/MultisigWallet.sol\":2593:2764  function claimOwnership() external  {... */\n      jump\t// out\n        /* \"contracts/MultisigWallet.sol\":3018:3290  function removeSigner(uint32 _index) external  {... */\n    tag_34:\n        /* \"contracts/MultisigWallet.sol\":3076:3087  onlyOwner() */\n      tag_87\n        /* \"contracts/MultisigWallet.sol\":3076:3085  onlyOwner */\n      tag_88\n        /* \"contracts/MultisigWallet.sol\":3076:3087  onlyOwner() */\n      jump\t// in\n    tag_87:\n        /* \"contracts/MultisigWallet.sol\":3117:3124  signers */\n      0x00\n        /* \"contracts/MultisigWallet.sol\":3117:3131  signers.length */\n      dup1\n      sload\n      swap1\n      pop\n        /* \"contracts/MultisigWallet.sol\":3108:3114  _index */\n      dup2\n        /* \"contracts/MultisigWallet.sol\":3108:3131  _index < signers.length */\n      0xffffffff\n      and\n      lt\n        /* \"contracts/MultisigWallet.sol\":3100:3149  require(_index < signers.length, \"Invalid index\") */\n      tag_89\n      jumpi\n      mload(0x40)\n      0x08c379a000000000000000000000000000000000000000000000000000000000\n      dup2\n      mstore\n      0x04\n      add\n      tag_90\n      swap1\n      tag_91\n      jump\t// in\n    tag_90:\n      mload(0x40)\n      dup1\n      swap2\n      sub\n      swap1\n      revert\n    tag_89:\n        /* \"contracts/MultisigWallet.sol\":3178:3185  signers */\n      0x00\n        /* \"contracts/MultisigWallet.sol\":3203:3204  1 */\n      0x01\n        /* \"contracts/MultisigWallet.sol\":3186:3193  signers */\n      0x00\n        /* \"contracts/MultisigWallet.sol\":3186:3200  signers.length */\n      dup1\n      sload\n      swap1\n      pop\n        /* \"contracts/MultisigWallet.sol\":3186:3204  signers.length - 1 */\n      tag_92\n      swap2\n      swap1\n      tag_93\n      jump\t// in\n    tag_92:\n        /* \"contracts/MultisigWallet.sol\":3178:3205  signers[signers.length - 1] */\n      dup2\n      sload\n      dup2\n      lt\n      tag_94\n      jumpi\n      tag_95\n      tag_96\n      jump\t// in\n    tag_95:\n    tag_94:\n      swap1\n      0x00\n      mstore\n      keccak256(0x00, 0x20)\n      add\n      0x00\n      swap1\n      sload\n      swap1\n      0x0100\n      exp\n      swap1\n      div\n      0xffffffffffffffffffffffffffffffffffffffff\n      and\n        /* \"contracts/MultisigWallet.sol\":3160:3167  signers */\n      0x00\n        /* \"contracts/MultisigWallet.sol\":3168:3174  _index */\n      dup3\n        /* \"contracts/MultisigWallet.sol\":3160:3175  signers[_index] */\n      0xffffffff\n      and\n      dup2\n      sload\n      dup2\n      lt\n      tag_98\n      jumpi\n      tag_99\n      tag_96\n      jump\t// in\n    tag_99:\n    tag_98:\n      swap1\n      0x00\n      mstore\n      keccak256(0x00, 0x20)\n      add\n      0x00\n        /* \"contracts/MultisigWallet.sol\":3160:3205  signers[_index] = signers[signers.length - 1] */\n      0x0100\n      exp\n      dup2\n      sload\n      dup2\n      0xffffffffffffffffffffffffffffffffffffffff\n      mul\n      not\n      and\n      swap1\n      dup4\n      0xffffffffffffffffffffffffffffffffffffffff\n      and\n      mul\n      or\n      swap1\n      sstore\n      pop\n        /* \"contracts/MultisigWallet.sol\":3251:3256  false */\n      0x00\n        /* \"contracts/MultisigWallet.sol\":3218:3231  isValidSigner */\n      0x08\n        /* \"contracts/MultisigWallet.sol\":3218:3248  isValidSigner[signers[_index]] */\n      0x00\n        /* \"contracts/MultisigWallet.sol\":3232:3239  signers */\n      0x00\n        /* \"contracts/MultisigWallet.sol\":3240:3246  _index */\n      dup5\n        /* \"contracts/MultisigWallet.sol\":3232:3247  signers[_index] */\n      0xffffffff\n      and\n      dup2\n      sload\n      dup2\n      lt\n      tag_101\n      jumpi\n      tag_102\n      tag_96\n      jump\t// in\n    tag_102:\n    tag_101:\n      swap1\n      0x00\n      mstore\n      keccak256(0x00, 0x20)\n      add\n      0x00\n      swap1\n      sload\n      swap1\n      0x0100\n      exp\n      swap1\n      div\n      0xffffffffffffffffffffffffffffffffffffffff\n      and\n        /* \"contracts/MultisigWallet.sol\":3218:3248  isValidSigner[signers[_index]] */\n      0xffffffffffffffffffffffffffffffffffffffff\n      and\n      0xffffffffffffffffffffffffffffffffffffffff\n      and\n      dup2\n      mstore\n      0x20\n      add\n      swap1\n      dup2\n      mstore\n      0x20\n      add\n      0x00\n      keccak256\n      0x00\n        /* \"contracts/MultisigWallet.sol\":3218:3256  isValidSigner[signers[_index]] = false */\n      0x0100\n      exp\n      dup2\n      sload\n      dup2\n      0xff\n      mul\n      not\n      and\n      swap1\n      dup4\n      iszero\n      iszero\n      mul\n      or\n      swap1\n      sstore\n      pop\n        /* \"contracts/MultisigWallet.sol\":3269:3276  signers */\n      0x00\n        /* \"contracts/MultisigWallet.sol\":3269:3282  signers.pop() */\n      dup1\n      sload\n      dup1\n      tag_104\n      jumpi\n      tag_105\n      tag_106\n      jump\t// in\n    tag_105:\n    tag_104:\n      0x01\n      swap1\n      sub\n      dup2\n      dup2\n      swap1\n      0x00\n      mstore\n      keccak256(0x00, 0x20)\n      add\n      exp(0x0100, 0x00)\n      dup2\n      sload\n      swap1\n      0xffffffffffffffffffffffffffffffffffffffff\n      mul\n      not\n      and\n      swap1\n      sstore\n      swap1\n      sstore\n        /* \"contracts/MultisigWallet.sol\":3018:3290  function removeSigner(uint32 _index) external  {... */\n      pop\n      jump\t// out\n        /* \"contracts/MultisigWallet.sol\":3300:3416  function getAllTransaction () external  view returns(Transaction[] memory) {... */\n    tag_37:\n        /* \"contracts/MultisigWallet.sol\":3353:3373  Transaction[] memory */\n      0x60\n        /* \"contracts/MultisigWallet.sol\":3393:3408  allTransactions */\n      0x05\n        /* \"contracts/MultisigWallet.sol\":3386:3408  return allTransactions */\n      dup1\n      sload\n      dup1\n      0x20\n      mul\n      0x20\n      add\n      mload(0x40)\n      swap1\n      dup2\n      add\n      0x40\n      mstore\n      dup1\n      swap3\n      swap2\n      swap1\n      dup2\n      dup2\n      mstore\n      0x20\n      add\n      0x00\n      swap1\n    tag_109:\n      dup3\n      dup3\n      lt\n      iszero\n      tag_110\n      jumpi\n      dup4\n      dup3\n      swap1\n      0x00\n      mstore\n      keccak256(0x00, 0x20)\n      swap1\n      0x05\n      mul\n      add\n      mload(0x40)\n      dup1\n      0xc0\n      add\n      0x40\n      mstore\n      swap1\n      dup2\n      0x00\n      dup3\n      add\n      sload\n      dup2\n      mstore\n      0x20\n      add\n      0x01\n      dup3\n      add\n      sload\n      dup2\n      mstore\n      0x20\n      add\n      0x02\n      dup3\n      add\n      0x00\n      swap1\n      sload\n      swap1\n      0x0100\n      exp\n      swap1\n      div\n      0xffffffffffffffffffffffffffffffffffffffff\n      and\n      0xffffffffffffffffffffffffffffffffffffffff\n      and\n      0xffffffffffffffffffffffffffffffffffffffff\n      and\n      dup2\n      mstore\n      0x20\n      add\n      0x03\n      dup3\n      add\n      sload\n      dup2\n      mstore\n      0x20\n      add\n      0x04\n      dup3\n      add\n      0x00\n      swap1\n      sload\n      swap1\n      0x0100\n      exp\n      swap1\n      div\n      0xff\n      and\n      iszero\n      iszero\n      iszero\n      iszero\n      dup2\n      mstore\n      0x20\n      add\n      0x04\n      dup3\n      add\n      0x01\n      swap1\n      sload\n      swap1\n      0x0100\n      exp\n      swap1\n      div\n      0xffffffffffffffffffffffffffffffffffffffff\n      and\n      0xffffffffffffffffffffffffffffffffffffffff\n      and\n      0xffffffffffffffffffffffffffffffffffffffff\n      and\n      dup2\n      mstore\n      pop\n      pop\n      dup2\n      mstore\n      0x20\n      add\n      swap1\n      0x01\n      add\n      swap1\n      jump(tag_109)\n    tag_110:\n      pop\n      pop\n      pop\n      pop\n      swap1\n      pop\n        /* \"contracts/MultisigWallet.sol\":3300:3416  function getAllTransaction () external  view returns(Transaction[] memory) {... */\n      swap1\n      jump\t// out\n        /* \"contracts/MultisigWallet.sol\":2774:3010  function addValidSigner(address _newSigner) external  {... */\n    tag_44:\n        /* \"contracts/MultisigWallet.sol\":2839:2850  onlyOwner() */\n      tag_113\n        /* \"contracts/MultisigWallet.sol\":2839:2848  onlyOwner */\n      tag_88\n        /* \"contracts/MultisigWallet.sol\":2839:2850  onlyOwner() */\n      jump\t// in\n    tag_113:\n        /* \"contracts/MultisigWallet.sol\":2872:2885  isValidSigner */\n      0x08\n        /* \"contracts/MultisigWallet.sol\":2872:2897  isValidSigner[_newSigner] */\n      0x00\n        /* \"contracts/MultisigWallet.sol\":2886:2896  _newSigner */\n      dup3\n        /* \"contracts/MultisigWallet.sol\":2872:2897  isValidSigner[_newSigner] */\n      0xffffffffffffffffffffffffffffffffffffffff\n      and\n      0xffffffffffffffffffffffffffffffffffffffff\n      and\n      dup2\n      mstore\n      0x20\n      add\n      swap1\n      dup2\n      mstore\n      0x20\n      add\n      0x00\n      keccak256\n      0x00\n      swap1\n      sload\n      swap1\n      0x0100\n      exp\n      swap1\n      div\n      0xff\n      and\n        /* \"contracts/MultisigWallet.sol\":2871:2897  !isValidSigner[_newSigner] */\n      iszero\n        /* \"contracts/MultisigWallet.sol\":2863:2922  require(!isValidSigner[_newSigner], \"Signer already exist\") */\n      tag_114\n      jumpi\n      mload(0x40)\n      0x08c379a000000000000000000000000000000000000000000000000000000000\n      dup2\n      mstore\n      0x04\n      add\n      tag_115\n      swap1\n      tag_116\n      jump\t// in\n    tag_115:\n      mload(0x40)\n      dup1\n      swap2\n      sub\n      swap1\n      revert\n    tag_114:\n        /* \"contracts/MultisigWallet.sol\":2961:2965  true */\n      0x01\n        /* \"contracts/MultisigWallet.sol\":2933:2946  isValidSigner */\n      0x08\n        /* \"contracts/MultisigWallet.sol\":2933:2958  isValidSigner[_newSigner] */\n      0x00\n        /* \"contracts/MultisigWallet.sol\":2947:2957  _newSigner */\n      dup4\n        /* \"contracts/MultisigWallet.sol\":2933:2958  isValidSigner[_newSigner] */\n      0xffffffffffffffffffffffffffffffffffffffff\n      and\n      0xffffffffffffffffffffffffffffffffffffffff\n      and\n      dup2\n      mstore\n      0x20\n      add\n      swap1\n      dup2\n      mstore\n      0x20\n      add\n      0x00\n      keccak256\n      0x00\n        /* \"contracts/MultisigWallet.sol\":2933:2965  isValidSigner[_newSigner] = true */\n      0x0100\n      exp\n      dup2\n      sload\n      dup2\n      0xff\n      mul\n      not\n      and\n      swap1\n      dup4\n      iszero\n      iszero\n      mul\n      or\n      swap1\n      sstore\n      pop\n        /* \"contracts/MultisigWallet.sol\":2978:2985  signers */\n      0x00\n        /* \"contracts/MultisigWallet.sol\":2991:3001  _newSigner */\n      dup2\n        /* \"contracts/MultisigWallet.sol\":2978:3002  signers.push(_newSigner) */\n      swap1\n      dup1\n      0x01\n      dup2\n      sload\n      add\n      dup1\n      dup3\n      sstore\n      dup1\n      swap2\n      pop\n      pop\n      0x01\n      swap1\n      sub\n      swap1\n      0x00\n      mstore\n      keccak256(0x00, 0x20)\n      add\n      0x00\n      swap1\n      swap2\n      swap1\n      swap2\n      swap1\n      swap2\n      0x0100\n      exp\n      dup2\n      sload\n      dup2\n      0xffffffffffffffffffffffffffffffffffffffff\n      mul\n      not\n      and\n      swap1\n      dup4\n      0xffffffffffffffffffffffffffffffffffffffff\n      and\n      mul\n      or\n      swap1\n      sstore\n      pop\n        /* \"contracts/MultisigWallet.sol\":2774:3010  function addValidSigner(address _newSigner) external  {... */\n      pop\n      jump\t// out\n        /* \"contracts/MultisigWallet.sol\":984:1628  function initiateTransaction(uint256 _amount, address _receiver) external  {... */\n    tag_49:\n        /* \"contracts/MultisigWallet.sol\":1100:1101  0 */\n      0x00\n        /* \"contracts/MultisigWallet.sol\":1078:1102  msg.sender != address(0) */\n      0xffffffffffffffffffffffffffffffffffffffff\n      and\n        /* \"contracts/MultisigWallet.sol\":1078:1088  msg.sender */\n      caller\n        /* \"contracts/MultisigWallet.sol\":1078:1102  msg.sender != address(0) */\n      0xffffffffffffffffffffffffffffffffffffffff\n      and\n      sub\n        /* \"contracts/MultisigWallet.sol\":1070:1131  require(msg.sender != address(0), \"Zero address not allowed\") */\n      tag_119\n      jumpi\n      mload(0x40)\n      0x08c379a000000000000000000000000000000000000000000000000000000000\n      dup2\n      mstore\n      0x04\n      add\n      tag_120\n      swap1\n      tag_121\n      jump\t// in\n    tag_120:\n      mload(0x40)\n      dup1\n      swap2\n      sub\n      swap1\n      revert\n    tag_119:\n        /* \"contracts/MultisigWallet.sol\":1162:1163  0 */\n      0x00\n        /* \"contracts/MultisigWallet.sol\":1152:1159  _amount */\n      dup3\n        /* \"contracts/MultisigWallet.sol\":1152:1163  _amount > 0 */\n      gt\n        /* \"contracts/MultisigWallet.sol\":1144:1190  require(_amount > 0, \"Zero value not allowed\") */\n      tag_122\n      jumpi\n      mload(0x40)\n      0x08c379a000000000000000000000000000000000000000000000000000000000\n      dup2\n      mstore\n      0x04\n      add\n      tag_123\n      swap1\n      tag_124\n      jump\t// in\n    tag_123:\n      mload(0x40)\n      dup1\n      swap2\n      sub\n      swap1\n      revert\n    tag_122:\n        /* \"contracts/MultisigWallet.sol\":1203:1220  onlyValidSigner() */\n      tag_125\n        /* \"contracts/MultisigWallet.sol\":1203:1218  onlyValidSigner */\n      tag_64\n        /* \"contracts/MultisigWallet.sol\":1203:1220  onlyValidSigner() */\n      jump\t// in\n    tag_125:\n        /* \"contracts/MultisigWallet.sol\":1235:1248  uint256 _txId */\n      0x00\n        /* \"contracts/MultisigWallet.sol\":1261:1262  1 */\n      0x01\n        /* \"contracts/MultisigWallet.sol\":1251:1258  txCount */\n      sload(0x02)\n        /* \"contracts/MultisigWallet.sol\":1251:1262  txCount + 1 */\n      tag_126\n      swap2\n      swap1\n      tag_78\n      jump\t// in\n    tag_126:\n        /* \"contracts/MultisigWallet.sol\":1235:1262  uint256 _txId = txCount + 1 */\n      swap1\n      pop\n        /* \"contracts/MultisigWallet.sol\":1275:1298  Transaction storage tns */\n      0x00\n        /* \"contracts/MultisigWallet.sol\":1301:1313  transactions */\n      0x07\n        /* \"contracts/MultisigWallet.sol\":1301:1320  transactions[_txId] */\n      0x00\n        /* \"contracts/MultisigWallet.sol\":1314:1319  _txId */\n      dup4\n        /* \"contracts/MultisigWallet.sol\":1301:1320  transactions[_txId] */\n      dup2\n      mstore\n      0x20\n      add\n      swap1\n      dup2\n      mstore\n      0x20\n      add\n      0x00\n      keccak256\n        /* \"contracts/MultisigWallet.sol\":1275:1320  Transaction storage tns = transactions[_txId] */\n      swap1\n      pop\n        /* \"contracts/MultisigWallet.sol\":1342:1347  _txId */\n      dup2\n        /* \"contracts/MultisigWallet.sol\":1333:1336  tns */\n      dup2\n        /* \"contracts/MultisigWallet.sol\":1333:1339  tns.id */\n      0x00\n      add\n        /* \"contracts/MultisigWallet.sol\":1333:1347  tns.id = _txId */\n      dup2\n      swap1\n      sstore\n      pop\n        /* \"contracts/MultisigWallet.sol\":1371:1378  _amount */\n      dup4\n        /* \"contracts/MultisigWallet.sol\":1358:1361  tns */\n      dup2\n        /* \"contracts/MultisigWallet.sol\":1358:1368  tns.amount */\n      0x01\n      add\n        /* \"contracts/MultisigWallet.sol\":1358:1378  tns.amount = _amount */\n      dup2\n      swap1\n      sstore\n      pop\n        /* \"contracts/MultisigWallet.sol\":1404:1413  _receiver */\n      dup3\n        /* \"contracts/MultisigWallet.sol\":1389:1392  tns */\n      dup2\n        /* \"contracts/MultisigWallet.sol\":1389:1401  tns.receiver */\n      0x02\n      add\n      0x00\n        /* \"contracts/MultisigWallet.sol\":1389:1413  tns.receiver = _receiver */\n      0x0100\n      exp\n      dup2\n      sload\n      dup2\n      0xffffffffffffffffffffffffffffffffffffffff\n      mul\n      not\n      and\n      swap1\n      dup4\n      0xffffffffffffffffffffffffffffffffffffffff\n      and\n      mul\n      or\n      swap1\n      sstore\n      pop\n        /* \"contracts/MultisigWallet.sol\":1462:1463  1 */\n      0x01\n        /* \"contracts/MultisigWallet.sol\":1443:1446  tns */\n      dup2\n        /* \"contracts/MultisigWallet.sol\":1443:1459  tns.signersCount */\n      0x03\n      add\n      sload\n        /* \"contracts/MultisigWallet.sol\":1443:1463  tns.signersCount + 1 */\n      tag_127\n      swap2\n      swap1\n      tag_78\n      jump\t// in\n    tag_127:\n        /* \"contracts/MultisigWallet.sol\":1424:1427  tns */\n      dup2\n        /* \"contracts/MultisigWallet.sol\":1424:1440  tns.signersCount */\n      0x03\n      add\n        /* \"contracts/MultisigWallet.sol\":1424:1463  tns.signersCount = tns.signersCount + 1 */\n      dup2\n      swap1\n      sstore\n      pop\n        /* \"contracts/MultisigWallet.sol\":1490:1500  msg.sender */\n      caller\n        /* \"contracts/MultisigWallet.sol\":1474:1477  tns */\n      dup2\n        /* \"contracts/MultisigWallet.sol\":1474:1487  tns.txCreator */\n      0x04\n      add\n      0x01\n        /* \"contracts/MultisigWallet.sol\":1474:1500  tns.txCreator = msg.sender */\n      0x0100\n      exp\n      dup2\n      sload\n      dup2\n      0xffffffffffffffffffffffffffffffffffffffff\n      mul\n      not\n      and\n      swap1\n      dup4\n      0xffffffffffffffffffffffffffffffffffffffff\n      and\n      mul\n      or\n      swap1\n      sstore\n      pop\n        /* \"contracts/MultisigWallet.sol\":1513:1528  allTransactions */\n      0x05\n        /* \"contracts/MultisigWallet.sol\":1534:1537  tns */\n      dup2\n        /* \"contracts/MultisigWallet.sol\":1513:1538  allTransactions.push(tns) */\n      swap1\n      dup1\n      0x01\n      dup2\n      sload\n      add\n      dup1\n      dup3\n      sstore\n      dup1\n      swap2\n      pop\n      pop\n      0x01\n      swap1\n      sub\n      swap1\n      0x00\n      mstore\n      keccak256(0x00, 0x20)\n      swap1\n      0x05\n      mul\n      add\n      0x00\n      swap1\n      swap2\n      swap1\n      swap2\n      swap1\n      swap2\n      pop\n      0x00\n      dup3\n      add\n      sload\n      dup2\n      0x00\n      add\n      sstore\n      0x01\n      dup3\n      add\n      sload\n      dup2\n      0x01\n      add\n      sstore\n      0x02\n      dup3\n      add\n      0x00\n      swap1\n      sload\n      swap1\n      0x0100\n      exp\n      swap1\n      div\n      0xffffffffffffffffffffffffffffffffffffffff\n      and\n      dup2\n      0x02\n      add\n      exp(0x0100, 0x00)\n      dup2\n      sload\n      dup2\n      0xffffffffffffffffffffffffffffffffffffffff\n      mul\n      not\n      and\n      swap1\n      dup4\n      0xffffffffffffffffffffffffffffffffffffffff\n      and\n      mul\n      or\n      swap1\n      sstore\n      pop\n      0x03\n      dup3\n      add\n      sload\n      dup2\n      0x03\n      add\n      sstore\n      0x04\n      dup3\n      add\n      0x00\n      swap1\n      sload\n      swap1\n      0x0100\n      exp\n      swap1\n      div\n      0xff\n      and\n      dup2\n      0x04\n      add\n      exp(0x0100, 0x00)\n      dup2\n      sload\n      dup2\n      0xff\n      mul\n      not\n      and\n      swap1\n      dup4\n      iszero\n      iszero\n      mul\n      or\n      swap1\n      sstore\n      pop\n      0x04\n      dup3\n      add\n      0x01\n      swap1\n      sload\n      swap1\n      0x0100\n      exp\n      swap1\n      div\n      0xffffffffffffffffffffffffffffffffffffffff\n      and\n      dup2\n      0x04\n      add\n      exp(0x0100, 0x01)\n      dup2\n      sload\n      dup2\n      0xffffffffffffffffffffffffffffffffffffffff\n      mul\n      not\n      and\n      swap1\n      dup4\n      0xffffffffffffffffffffffffffffffffffffffff\n      and\n      mul\n      or\n      swap1\n      sstore\n      pop\n      pop\n      pop\n        /* \"contracts/MultisigWallet.sol\":1582:1586  true */\n      0x01\n        /* \"contracts/MultisigWallet.sol\":1551:1560  hasSigned */\n      0x06\n        /* \"contracts/MultisigWallet.sol\":1551:1567  hasSigned[_txId] */\n      0x00\n        /* \"contracts/MultisigWallet.sol\":1561:1566  _txId */\n      dup5\n        /* \"contracts/MultisigWallet.sol\":1551:1567  hasSigned[_txId] */\n      dup2\n      mstore\n      0x20\n      add\n      swap1\n      dup2\n      mstore\n      0x20\n      add\n      0x00\n      keccak256\n        /* \"contracts/MultisigWallet.sol\":1551:1579  hasSigned[_txId][msg.sender] */\n      0x00\n        /* \"contracts/MultisigWallet.sol\":1568:1578  msg.sender */\n      caller\n        /* \"contracts/MultisigWallet.sol\":1551:1579  hasSigned[_txId][msg.sender] */\n      0xffffffffffffffffffffffffffffffffffffffff\n      and\n      0xffffffffffffffffffffffffffffffffffffffff\n      and\n      dup2\n      mstore\n      0x20\n      add\n      swap1\n      dup2\n      mstore\n      0x20\n      add\n      0x00\n      keccak256\n      0x00\n        /* \"contracts/MultisigWallet.sol\":1551:1586  hasSigned[_txId][msg.sender] = true */\n      0x0100\n      exp\n      dup2\n      sload\n      dup2\n      0xff\n      mul\n      not\n      and\n      swap1\n      dup4\n      iszero\n      iszero\n      mul\n      or\n      swap1\n      sstore\n      pop\n        /* \"contracts/MultisigWallet.sol\":1619:1620  1 */\n      0x01\n        /* \"contracts/MultisigWallet.sol\":1609:1616  txCount */\n      sload(0x02)\n        /* \"contracts/MultisigWallet.sol\":1609:1620  txCount + 1 */\n      tag_129\n      swap2\n      swap1\n      tag_78\n      jump\t// in\n    tag_129:\n        /* \"contracts/MultisigWallet.sol\":1599:1606  txCount */\n      0x02\n        /* \"contracts/MultisigWallet.sol\":1599:1620  txCount = txCount + 1 */\n      dup2\n      swap1\n      sstore\n      pop\n        /* \"contracts/MultisigWallet.sol\":1059:1628  {... */\n      pop\n      pop\n        /* \"contracts/MultisigWallet.sol\":984:1628  function initiateTransaction(uint256 _amount, address _receiver) external  {... */\n      pop\n      pop\n      jump\t// out\n        /* \"contracts/MultisigWallet.sol\":2467:2585  function transferOwnership(address _newOwner) external  {... */\n    tag_53:\n        /* \"contracts/MultisigWallet.sol\":2534:2545  onlyOwner() */\n      tag_131\n        /* \"contracts/MultisigWallet.sol\":2534:2543  onlyOwner */\n      tag_88\n        /* \"contracts/MultisigWallet.sol\":2534:2545  onlyOwner() */\n      jump\t// in\n    tag_131:\n        /* \"contracts/MultisigWallet.sol\":2568:2577  _newOwner */\n      dup1\n        /* \"contracts/MultisigWallet.sol\":2556:2565  nextOwner */\n      0x04\n      0x00\n        /* \"contracts/MultisigWallet.sol\":2556:2577  nextOwner = _newOwner */\n      0x0100\n      exp\n      dup2\n      sload\n      dup2\n      0xffffffffffffffffffffffffffffffffffffffff\n      mul\n      not\n      and\n      swap1\n      dup4\n      0xffffffffffffffffffffffffffffffffffffffff\n      and\n      mul\n      or\n      swap1\n      sstore\n      pop\n        /* \"contracts/MultisigWallet.sol\":2467:2585  function transferOwnership(address _newOwner) external  {... */\n      pop\n      jump\t// out\n        /* \"contracts/MultisigWallet.sol\":3539:3653  function onlyValidSigner () private view {... */\n    tag_64:\n        /* \"contracts/MultisigWallet.sol\":3599:3612  isValidSigner */\n      0x08\n        /* \"contracts/MultisigWallet.sol\":3599:3624  isValidSigner[msg.sender] */\n      0x00\n        /* \"contracts/MultisigWallet.sol\":3613:3623  msg.sender */\n      caller\n        /* \"contracts/MultisigWallet.sol\":3599:3624  isValidSigner[msg.sender] */\n      0xffffffffffffffffffffffffffffffffffffffff\n      and\n      0xffffffffffffffffffffffffffffffffffffffff\n      and\n      dup2\n      mstore\n      0x20\n      add\n      swap1\n      dup2\n      mstore\n      0x20\n      add\n      0x00\n      keccak256\n      0x00\n      swap1\n      sload\n      swap1\n      0x0100\n      exp\n      swap1\n      div\n      0xff\n      and\n        /* \"contracts/MultisigWallet.sol\":3591:3645  require(isValidSigner[msg.sender], \"Not valid signer\") */\n      tag_133\n      jumpi\n      mload(0x40)\n      0x08c379a000000000000000000000000000000000000000000000000000000000\n      dup2\n      mstore\n      0x04\n      add\n      tag_134\n      swap1\n      tag_135\n      jump\t// in\n    tag_134:\n      mload(0x40)\n      dup1\n      swap2\n      sub\n      swap1\n      revert\n    tag_133:\n        /* \"contracts/MultisigWallet.sol\":3539:3653  function onlyValidSigner () private view {... */\n      jump\t// out\n        /* \"contracts/MultisigWallet.sol\":3424:3531  function onlyOwner() private view {... */\n    tag_88:\n        /* \"contracts/MultisigWallet.sol\":3477:3490  isValidSigner */\n      0x08\n        /* \"contracts/MultisigWallet.sol\":3477:3502  isValidSigner[msg.sender] */\n      0x00\n        /* \"contracts/MultisigWallet.sol\":3491:3501  msg.sender */\n      caller\n        /* \"contracts/MultisigWallet.sol\":3477:3502  isValidSigner[msg.sender] */\n      0xffffffffffffffffffffffffffffffffffffffff\n      and\n      0xffffffffffffffffffffffffffffffffffffffff\n      and\n      dup2\n      mstore\n      0x20\n      add\n      swap1\n      dup2\n      mstore\n      0x20\n      add\n      0x00\n      keccak256\n      0x00\n      swap1\n      sload\n      swap1\n      0x0100\n      exp\n      swap1\n      div\n      0xff\n      and\n        /* \"contracts/MultisigWallet.sol\":3469:3523  require(isValidSigner[msg.sender], \"Not valid signer\") */\n      tag_137\n      jumpi\n      mload(0x40)\n      0x08c379a000000000000000000000000000000000000000000000000000000000\n      dup2\n      mstore\n      0x04\n      add\n      tag_138\n      swap1\n      tag_135\n      jump\t// in\n    tag_138:\n      mload(0x40)\n      dup1\n      swap2\n      sub\n      swap1\n      revert\n    tag_137:\n        /* \"contracts/MultisigWallet.sol\":3424:3531  function onlyOwner() private view {... */\n      jump\t// out\n        /* \"#utility.yul\":88:205   */\n    tag_140:\n        /* \"#utility.yul\":197:198   */\n      0x00\n        /* \"#utility.yul\":194:195   */\n      0x00\n        /* \"#utility.yul\":187:199   */\n      revert\n        /* \"#utility.yul\":334:411   */\n    tag_142:\n        /* \"#utility.yul\":371:378   */\n      0x00\n        /* \"#utility.yul\":400:405   */\n      dup2\n        /* \"#utility.yul\":389:405   */\n      swap1\n      pop\n        /* \"#utility.yul\":334:411   */\n      swap2\n      swap1\n      pop\n      jump\t// out\n        /* \"#utility.yul\":417:539   */\n    tag_143:\n        /* \"#utility.yul\":490:514   */\n      tag_196\n        /* \"#utility.yul\":508:513   */\n      dup2\n        /* \"#utility.yul\":490:514   */\n      tag_142\n      jump\t// in\n    tag_196:\n        /* \"#utility.yul\":483:488   */\n      dup2\n        /* \"#utility.yul\":480:515   */\n      eq\n        /* \"#utility.yul\":470:533   */\n      tag_197\n      jumpi\n        /* \"#utility.yul\":529:530   */\n      0x00\n        /* \"#utility.yul\":526:527   */\n      0x00\n        /* \"#utility.yul\":519:531   */\n      revert\n        /* \"#utility.yul\":470:533   */\n    tag_197:\n        /* \"#utility.yul\":417:539   */\n      pop\n      jump\t// out\n        /* \"#utility.yul\":545:684   */\n    tag_144:\n        /* \"#utility.yul\":591:596   */\n      0x00\n        /* \"#utility.yul\":629:635   */\n      dup2\n        /* \"#utility.yul\":616:636   */\n      calldataload\n        /* \"#utility.yul\":607:636   */\n      swap1\n      pop\n        /* \"#utility.yul\":645:678   */\n      tag_199\n        /* \"#utility.yul\":672:677   */\n      dup2\n        /* \"#utility.yul\":645:678   */\n      tag_143\n      jump\t// in\n    tag_199:\n        /* \"#utility.yul\":545:684   */\n      swap3\n      swap2\n      pop\n      pop\n      jump\t// out\n        /* \"#utility.yul\":690:1019   */\n    tag_19:\n        /* \"#utility.yul\":749:755   */\n      0x00\n        /* \"#utility.yul\":798:800   */\n      0x20\n        /* \"#utility.yul\":786:795   */\n      dup3\n        /* \"#utility.yul\":777:784   */\n      dup5\n        /* \"#utility.yul\":773:796   */\n      sub\n        /* \"#utility.yul\":769:801   */\n      slt\n        /* \"#utility.yul\":766:885   */\n      iszero\n      tag_201\n      jumpi\n        /* \"#utility.yul\":804:883   */\n      tag_202\n      tag_140\n      jump\t// in\n    tag_202:\n        /* \"#utility.yul\":766:885   */\n    tag_201:\n        /* \"#utility.yul\":924:925   */\n      0x00\n        /* \"#utility.yul\":949:1002   */\n      tag_203\n        /* \"#utility.yul\":994:1001   */\n      dup5\n        /* \"#utility.yul\":985:991   */\n      dup3\n        /* \"#utility.yul\":974:983   */\n      dup6\n        /* \"#utility.yul\":970:992   */\n      add\n        /* \"#utility.yul\":949:1002   */\n      tag_144\n      jump\t// in\n    tag_203:\n        /* \"#utility.yul\":939:1002   */\n      swap2\n      pop\n        /* \"#utility.yul\":895:1012   */\n      pop\n        /* \"#utility.yul\":690:1019   */\n      swap3\n      swap2\n      pop\n      pop\n      jump\t// out\n        /* \"#utility.yul\":1025:1151   */\n    tag_145:\n        /* \"#utility.yul\":1062:1069   */\n      0x00\n        /* \"#utility.yul\":1102:1144   */\n      0xffffffffffffffffffffffffffffffffffffffff\n        /* \"#utility.yul\":1095:1100   */\n      dup3\n        /* \"#utility.yul\":1091:1145   */\n      and\n        /* \"#utility.yul\":1080:1145   */\n      swap1\n      pop\n        /* \"#utility.yul\":1025:1151   */\n      swap2\n      swap1\n      pop\n      jump\t// out\n        /* \"#utility.yul\":1157:1253   */\n    tag_146:\n        /* \"#utility.yul\":1194:1201   */\n      0x00\n        /* \"#utility.yul\":1223:1247   */\n      tag_206\n        /* \"#utility.yul\":1241:1246   */\n      dup3\n        /* \"#utility.yul\":1223:1247   */\n      tag_145\n      jump\t// in\n    tag_206:\n        /* \"#utility.yul\":1212:1247   */\n      swap1\n      pop\n        /* \"#utility.yul\":1157:1253   */\n      swap2\n      swap1\n      pop\n      jump\t// out\n        /* \"#utility.yul\":1259:1377   */\n    tag_147:\n        /* \"#utility.yul\":1346:1370   */\n      tag_208\n        /* \"#utility.yul\":1364:1369   */\n      dup2\n        /* \"#utility.yul\":1346:1370   */\n      tag_146\n      jump\t// in\n    tag_208:\n        /* \"#utility.yul\":1341:1344   */\n      dup3\n        /* \"#utility.yul\":1334:1371   */\n      mstore\n        /* \"#utility.yul\":1259:1377   */\n      pop\n      pop\n      jump\t// out\n        /* \"#utility.yul\":1383:1605   */\n    tag_22:\n        /* \"#utility.yul\":1476:1480   */\n      0x00\n        /* \"#utility.yul\":1514:1516   */\n      0x20\n        /* \"#utility.yul\":1503:1512   */\n      dup3\n        /* \"#utility.yul\":1499:1517   */\n      add\n        /* \"#utility.yul\":1491:1517   */\n      swap1\n      pop\n        /* \"#utility.yul\":1527:1598   */\n      tag_210\n        /* \"#utility.yul\":1595:1596   */\n      0x00\n        /* \"#utility.yul\":1584:1593   */\n      dup4\n        /* \"#utility.yul\":1580:1597   */\n      add\n        /* \"#utility.yul\":1571:1577   */\n      dup5\n        /* \"#utility.yul\":1527:1598   */\n      tag_147\n      jump\t// in\n    tag_210:\n        /* \"#utility.yul\":1383:1605   */\n      swap3\n      swap2\n      pop\n      pop\n      jump\t// out\n        /* \"#utility.yul\":1611:1704   */\n    tag_148:\n        /* \"#utility.yul\":1647:1654   */\n      0x00\n        /* \"#utility.yul\":1687:1697   */\n      0xffffffff\n        /* \"#utility.yul\":1680:1685   */\n      dup3\n        /* \"#utility.yul\":1676:1698   */\n      and\n        /* \"#utility.yul\":1665:1698   */\n      swap1\n      pop\n        /* \"#utility.yul\":1611:1704   */\n      swap2\n      swap1\n      pop\n      jump\t// out\n        /* \"#utility.yul\":1710:1830   */\n    tag_149:\n        /* \"#utility.yul\":1782:1805   */\n      tag_213\n        /* \"#utility.yul\":1799:1804   */\n      dup2\n        /* \"#utility.yul\":1782:1805   */\n      tag_148\n      jump\t// in\n    tag_213:\n        /* \"#utility.yul\":1775:1780   */\n      dup2\n        /* \"#utility.yul\":1772:1806   */\n      eq\n        /* \"#utility.yul\":1762:1824   */\n      tag_214\n      jumpi\n        /* \"#utility.yul\":1820:1821   */\n      0x00\n        /* \"#utility.yul\":1817:1818   */\n      0x00\n        /* \"#utility.yul\":1810:1822   */\n      revert\n        /* \"#utility.yul\":1762:1824   */\n    tag_214:\n        /* \"#utility.yul\":1710:1830   */\n      pop\n      jump\t// out\n        /* \"#utility.yul\":1836:1973   */\n    tag_150:\n        /* \"#utility.yul\":1881:1886   */\n      0x00\n        /* \"#utility.yul\":1919:1925   */\n      dup2\n        /* \"#utility.yul\":1906:1926   */\n      calldataload\n        /* \"#utility.yul\":1897:1926   */\n      swap1\n      pop\n        /* \"#utility.yul\":1935:1967   */\n      tag_216\n        /* \"#utility.yul\":1961:1966   */\n      dup2\n        /* \"#utility.yul\":1935:1967   */\n      tag_149\n      jump\t// in\n    tag_216:\n        /* \"#utility.yul\":1836:1973   */\n      swap3\n      swap2\n      pop\n      pop\n      jump\t// out\n        /* \"#utility.yul\":1979:2306   */\n    tag_33:\n        /* \"#utility.yul\":2037:2043   */\n      0x00\n        /* \"#utility.yul\":2086:2088   */\n      0x20\n        /* \"#utility.yul\":2074:2083   */\n      dup3\n        /* \"#utility.yul\":2065:2072   */\n      dup5\n        /* \"#utility.yul\":2061:2084   */\n      sub\n        /* \"#utility.yul\":2057:2089   */\n      slt\n        /* \"#utility.yul\":2054:2173   */\n      iszero\n      tag_218\n      jumpi\n        /* \"#utility.yul\":2092:2171   */\n      tag_219\n      tag_140\n      jump\t// in\n    tag_219:\n        /* \"#utility.yul\":2054:2173   */\n    tag_218:\n        /* \"#utility.yul\":2212:2213   */\n      0x00\n        /* \"#utility.yul\":2237:2289   */\n      tag_220\n        /* \"#utility.yul\":2281:2288   */\n      dup5\n        /* \"#utility.yul\":2272:2278   */\n      dup3\n        /* \"#utility.yul\":2261:2270   */\n      dup6\n        /* \"#utility.yul\":2257:2279   */\n      add\n        /* \"#utility.yul\":2237:2289   */\n      tag_150\n      jump\t// in\n    tag_220:\n        /* \"#utility.yul\":2227:2289   */\n      swap2\n      pop\n        /* \"#utility.yul\":2183:2299   */\n      pop\n        /* \"#utility.yul\":1979:2306   */\n      swap3\n      swap2\n      pop\n      pop\n      jump\t// out\n        /* \"#utility.yul\":2312:2453   */\n    tag_151:\n        /* \"#utility.yul\":2406:2412   */\n      0x00\n        /* \"#utility.yul\":2440:2445   */\n      dup2\n        /* \"#utility.yul\":2434:2446   */\n      mload\n        /* \"#utility.yul\":2424:2446   */\n      swap1\n      pop\n        /* \"#utility.yul\":2312:2453   */\n      swap2\n      swap1\n      pop\n      jump\t// out\n        /* \"#utility.yul\":2459:2670   */\n    tag_152:\n        /* \"#utility.yul\":2585:2596   */\n      0x00\n        /* \"#utility.yul\":2619:2625   */\n      dup3\n        /* \"#utility.yul\":2614:2617   */\n      dup3\n        /* \"#utility.yul\":2607:2626   */\n      mstore\n        /* \"#utility.yul\":2659:2663   */\n      0x20\n        /* \"#utility.yul\":2654:2657   */\n      dup3\n        /* \"#utility.yul\":2650:2664   */\n      add\n        /* \"#utility.yul\":2635:2664   */\n      swap1\n      pop\n        /* \"#utility.yul\":2459:2670   */\n      swap3\n      swap2\n      pop\n      pop\n      jump\t// out\n        /* \"#utility.yul\":2676:2835   */\n    tag_153:\n        /* \"#utility.yul\":2770:2774   */\n      0x00\n        /* \"#utility.yul\":2793:2796   */\n      dup2\n        /* \"#utility.yul\":2785:2796   */\n      swap1\n      pop\n        /* \"#utility.yul\":2823:2827   */\n      0x20\n        /* \"#utility.yul\":2818:2821   */\n      dup3\n        /* \"#utility.yul\":2814:2828   */\n      add\n        /* \"#utility.yul\":2806:2828   */\n      swap1\n      pop\n        /* \"#utility.yul\":2676:2835   */\n      swap2\n      swap1\n      pop\n      jump\t// out\n        /* \"#utility.yul\":2841:2949   */\n    tag_154:\n        /* \"#utility.yul\":2918:2942   */\n      tag_225\n        /* \"#utility.yul\":2936:2941   */\n      dup2\n        /* \"#utility.yul\":2918:2942   */\n      tag_142\n      jump\t// in\n    tag_225:\n        /* \"#utility.yul\":2913:2916   */\n      dup3\n        /* \"#utility.yul\":2906:2943   */\n      mstore\n        /* \"#utility.yul\":2841:2949   */\n      pop\n      pop\n      jump\t// out\n        /* \"#utility.yul\":2955:3063   */\n    tag_155:\n        /* \"#utility.yul\":3032:3056   */\n      tag_227\n        /* \"#utility.yul\":3050:3055   */\n      dup2\n        /* \"#utility.yul\":3032:3056   */\n      tag_146\n      jump\t// in\n    tag_227:\n        /* \"#utility.yul\":3027:3030   */\n      dup3\n        /* \"#utility.yul\":3020:3057   */\n      mstore\n        /* \"#utility.yul\":2955:3063   */\n      pop\n      pop\n      jump\t// out\n        /* \"#utility.yul\":3069:3159   */\n    tag_156:\n        /* \"#utility.yul\":3103:3110   */\n      0x00\n        /* \"#utility.yul\":3146:3151   */\n      dup2\n        /* \"#utility.yul\":3139:3152   */\n      iszero\n        /* \"#utility.yul\":3132:3153   */\n      iszero\n        /* \"#utility.yul\":3121:3153   */\n      swap1\n      pop\n        /* \"#utility.yul\":3069:3159   */\n      swap2\n      swap1\n      pop\n      jump\t// out\n        /* \"#utility.yul\":3165:3264   */\n    tag_157:\n        /* \"#utility.yul\":3236:3257   */\n      tag_230\n        /* \"#utility.yul\":3251:3256   */\n      dup2\n        /* \"#utility.yul\":3236:3257   */\n      tag_156\n      jump\t// in\n    tag_230:\n        /* \"#utility.yul\":3231:3234   */\n      dup3\n        /* \"#utility.yul\":3224:3258   */\n      mstore\n        /* \"#utility.yul\":3165:3264   */\n      pop\n      pop\n      jump\t// out\n        /* \"#utility.yul\":3336:4550   */\n    tag_158:\n        /* \"#utility.yul\":3477:3481   */\n      0xc0\n        /* \"#utility.yul\":3472:3475   */\n      dup3\n        /* \"#utility.yul\":3468:3482   */\n      add\n        /* \"#utility.yul\":3562:3566   */\n      0x00\n        /* \"#utility.yul\":3555:3560   */\n      dup3\n        /* \"#utility.yul\":3551:3567   */\n      add\n        /* \"#utility.yul\":3545:3568   */\n      mload\n        /* \"#utility.yul\":3581:3644   */\n      tag_232\n        /* \"#utility.yul\":3638:3642   */\n      0x00\n        /* \"#utility.yul\":3633:3636   */\n      dup6\n        /* \"#utility.yul\":3629:3643   */\n      add\n        /* \"#utility.yul\":3615:3627   */\n      dup3\n        /* \"#utility.yul\":3581:3644   */\n      tag_154\n      jump\t// in\n    tag_232:\n        /* \"#utility.yul\":3492:3654   */\n      pop\n        /* \"#utility.yul\":3738:3742   */\n      0x20\n        /* \"#utility.yul\":3731:3736   */\n      dup3\n        /* \"#utility.yul\":3727:3743   */\n      add\n        /* \"#utility.yul\":3721:3744   */\n      mload\n        /* \"#utility.yul\":3757:3820   */\n      tag_233\n        /* \"#utility.yul\":3814:3818   */\n      0x20\n        /* \"#utility.yul\":3809:3812   */\n      dup6\n        /* \"#utility.yul\":3805:3819   */\n      add\n        /* \"#utility.yul\":3791:3803   */\n      dup3\n        /* \"#utility.yul\":3757:3820   */\n      tag_154\n      jump\t// in\n    tag_233:\n        /* \"#utility.yul\":3664:3830   */\n      pop\n        /* \"#utility.yul\":3916:3920   */\n      0x40\n        /* \"#utility.yul\":3909:3914   */\n      dup3\n        /* \"#utility.yul\":3905:3921   */\n      add\n        /* \"#utility.yul\":3899:3922   */\n      mload\n        /* \"#utility.yul\":3935:3998   */\n      tag_234\n        /* \"#utility.yul\":3992:3996   */\n      0x40\n        /* \"#utility.yul\":3987:3990   */\n      dup6\n        /* \"#utility.yul\":3983:3997   */\n      add\n        /* \"#utility.yul\":3969:3981   */\n      dup3\n        /* \"#utility.yul\":3935:3998   */\n      tag_155\n      jump\t// in\n    tag_234:\n        /* \"#utility.yul\":3840:4008   */\n      pop\n        /* \"#utility.yul\":4098:4102   */\n      0x60\n        /* \"#utility.yul\":4091:4096   */\n      dup3\n        /* \"#utility.yul\":4087:4103   */\n      add\n        /* \"#utility.yul\":4081:4104   */\n      mload\n        /* \"#utility.yul\":4117:4180   */\n      tag_235\n        /* \"#utility.yul\":4174:4178   */\n      0x60\n        /* \"#utility.yul\":4169:4172   */\n      dup6\n        /* \"#utility.yul\":4165:4179   */\n      add\n        /* \"#utility.yul\":4151:4163   */\n      dup3\n        /* \"#utility.yul\":4117:4180   */\n      tag_154\n      jump\t// in\n    tag_235:\n        /* \"#utility.yul\":4018:4190   */\n      pop\n        /* \"#utility.yul\":4278:4282   */\n      0x80\n        /* \"#utility.yul\":4271:4276   */\n      dup3\n        /* \"#utility.yul\":4267:4283   */\n      add\n        /* \"#utility.yul\":4261:4284   */\n      mload\n        /* \"#utility.yul\":4297:4354   */\n      tag_236\n        /* \"#utility.yul\":4348:4352   */\n      0x80\n        /* \"#utility.yul\":4343:4346   */\n      dup6\n        /* \"#utility.yul\":4339:4353   */\n      add\n        /* \"#utility.yul\":4325:4337   */\n      dup3\n        /* \"#utility.yul\":4297:4354   */\n      tag_157\n      jump\t// in\n    tag_236:\n        /* \"#utility.yul\":4200:4364   */\n      pop\n        /* \"#utility.yul\":4451:4455   */\n      0xa0\n        /* \"#utility.yul\":4444:4449   */\n      dup3\n        /* \"#utility.yul\":4440:4456   */\n      add\n        /* \"#utility.yul\":4434:4457   */\n      mload\n        /* \"#utility.yul\":4470:4533   */\n      tag_237\n        /* \"#utility.yul\":4527:4531   */\n      0xa0\n        /* \"#utility.yul\":4522:4525   */\n      dup6\n        /* \"#utility.yul\":4518:4532   */\n      add\n        /* \"#utility.yul\":4504:4516   */\n      dup3\n        /* \"#utility.yul\":4470:4533   */\n      tag_155\n      jump\t// in\n    tag_237:\n        /* \"#utility.yul\":4374:4543   */\n      pop\n        /* \"#utility.yul\":3446:4550   */\n      pop\n        /* \"#utility.yul\":3336:4550   */\n      pop\n      pop\n      jump\t// out\n        /* \"#utility.yul\":4556:4843   */\n    tag_159:\n        /* \"#utility.yul\":4679:4689   */\n      0x00\n        /* \"#utility.yul\":4700:4800   */\n      tag_239\n        /* \"#utility.yul\":4796:4799   */\n      dup4\n        /* \"#utility.yul\":4788:4794   */\n      dup4\n        /* \"#utility.yul\":4700:4800   */\n      tag_158\n      jump\t// in\n    tag_239:\n        /* \"#utility.yul\":4832:4836   */\n      0xc0\n        /* \"#utility.yul\":4827:4830   */\n      dup4\n        /* \"#utility.yul\":4823:4837   */\n      add\n        /* \"#utility.yul\":4809:4837   */\n      swap1\n      pop\n        /* \"#utility.yul\":4556:4843   */\n      swap3\n      swap2\n      pop\n      pop\n      jump\t// out\n        /* \"#utility.yul\":4849:4989   */\n    tag_160:\n        /* \"#utility.yul\":4946:4950   */\n      0x00\n        /* \"#utility.yul\":4978:4982   */\n      0x20\n        /* \"#utility.yul\":4973:4976   */\n      dup3\n        /* \"#utility.yul\":4969:4983   */\n      add\n        /* \"#utility.yul\":4961:4983   */\n      swap1\n      pop\n        /* \"#utility.yul\":4849:4989   */\n      swap2\n      swap1\n      pop\n      jump\t// out\n        /* \"#utility.yul\":5065:6013   */\n    tag_161:\n        /* \"#utility.yul\":5238:5241   */\n      0x00\n        /* \"#utility.yul\":5267:5348   */\n      tag_242\n        /* \"#utility.yul\":5342:5347   */\n      dup3\n        /* \"#utility.yul\":5267:5348   */\n      tag_151\n      jump\t// in\n    tag_242:\n        /* \"#utility.yul\":5364:5477   */\n      tag_243\n        /* \"#utility.yul\":5470:5476   */\n      dup2\n        /* \"#utility.yul\":5465:5468   */\n      dup6\n        /* \"#utility.yul\":5364:5477   */\n      tag_152\n      jump\t// in\n    tag_243:\n        /* \"#utility.yul\":5357:5477   */\n      swap4\n      pop\n        /* \"#utility.yul\":5501:5584   */\n      tag_244\n        /* \"#utility.yul\":5578:5583   */\n      dup4\n        /* \"#utility.yul\":5501:5584   */\n      tag_153\n      jump\t// in\n    tag_244:\n        /* \"#utility.yul\":5607:5614   */\n      dup1\n        /* \"#utility.yul\":5638:5639   */\n      0x00\n        /* \"#utility.yul\":5623:5988   */\n    tag_245:\n        /* \"#utility.yul\":5648:5654   */\n      dup4\n        /* \"#utility.yul\":5645:5646   */\n      dup2\n        /* \"#utility.yul\":5642:5655   */\n      lt\n        /* \"#utility.yul\":5623:5988   */\n      iszero\n      tag_247\n      jumpi\n        /* \"#utility.yul\":5724:5730   */\n      dup2\n        /* \"#utility.yul\":5718:5731   */\n      mload\n        /* \"#utility.yul\":5751:5868   */\n      tag_248\n        /* \"#utility.yul\":5864:5867   */\n      dup9\n        /* \"#utility.yul\":5849:5862   */\n      dup3\n        /* \"#utility.yul\":5751:5868   */\n      tag_159\n      jump\t// in\n    tag_248:\n        /* \"#utility.yul\":5744:5868   */\n      swap8\n      pop\n        /* \"#utility.yul\":5891:5978   */\n      tag_249\n        /* \"#utility.yul\":5971:5977   */\n      dup4\n        /* \"#utility.yul\":5891:5978   */\n      tag_160\n      jump\t// in\n    tag_249:\n        /* \"#utility.yul\":5881:5978   */\n      swap3\n      pop\n        /* \"#utility.yul\":5683:5988   */\n      pop\n        /* \"#utility.yul\":5670:5671   */\n      0x01\n        /* \"#utility.yul\":5667:5668   */\n      dup2\n        /* \"#utility.yul\":5663:5672   */\n      add\n        /* \"#utility.yul\":5658:5672   */\n      swap1\n      pop\n        /* \"#utility.yul\":5623:5988   */\n      jump(tag_245)\n    tag_247:\n        /* \"#utility.yul\":5627:5641   */\n      pop\n        /* \"#utility.yul\":6004:6007   */\n      dup6\n        /* \"#utility.yul\":5997:6007   */\n      swap4\n      pop\n        /* \"#utility.yul\":5243:6013   */\n      pop\n      pop\n      pop\n        /* \"#utility.yul\":5065:6013   */\n      swap3\n      swap2\n      pop\n      pop\n      jump\t// out\n        /* \"#utility.yul\":6019:6500   */\n    tag_39:\n        /* \"#utility.yul\":6216:6220   */\n      0x00\n        /* \"#utility.yul\":6254:6256   */\n      0x20\n        /* \"#utility.yul\":6243:6252   */\n      dup3\n        /* \"#utility.yul\":6239:6257   */\n      add\n        /* \"#utility.yul\":6231:6257   */\n      swap1\n      pop\n        /* \"#utility.yul\":6303:6312   */\n      dup2\n        /* \"#utility.yul\":6297:6301   */\n      dup2\n        /* \"#utility.yul\":6293:6313   */\n      sub\n        /* \"#utility.yul\":6289:6290   */\n      0x00\n        /* \"#utility.yul\":6278:6287   */\n      dup4\n        /* \"#utility.yul\":6274:6291   */\n      add\n        /* \"#utility.yul\":6267:6314   */\n      mstore\n        /* \"#utility.yul\":6331:6493   */\n      tag_251\n        /* \"#utility.yul\":6488:6492   */\n      dup2\n        /* \"#utility.yul\":6479:6485   */\n      dup5\n        /* \"#utility.yul\":6331:6493   */\n      tag_161\n      jump\t// in\n    tag_251:\n        /* \"#utility.yul\":6323:6493   */\n      swap1\n      pop\n        /* \"#utility.yul\":6019:6500   */\n      swap3\n      swap2\n      pop\n      pop\n      jump\t// out\n        /* \"#utility.yul\":6506:6628   */\n    tag_162:\n        /* \"#utility.yul\":6579:6603   */\n      tag_253\n        /* \"#utility.yul\":6597:6602   */\n      dup2\n        /* \"#utility.yul\":6579:6603   */\n      tag_146\n      jump\t// in\n    tag_253:\n        /* \"#utility.yul\":6572:6577   */\n      dup2\n        /* \"#utility.yul\":6569:6604   */\n      eq\n        /* \"#utility.yul\":6559:6622   */\n      tag_254\n      jumpi\n        /* \"#utility.yul\":6618:6619   */\n      0x00\n        /* \"#utility.yul\":6615:6616   */\n      0x00\n        /* \"#utility.yul\":6608:6620   */\n      revert\n        /* \"#utility.yul\":6559:6622   */\n    tag_254:\n        /* \"#utility.yul\":6506:6628   */\n      pop\n      jump\t// out\n        /* \"#utility.yul\":6634:6773   */\n    tag_163:\n        /* \"#utility.yul\":6680:6685   */\n      0x00\n        /* \"#utility.yul\":6718:6724   */\n      dup2\n        /* \"#utility.yul\":6705:6725   */\n      calldataload\n        /* \"#utility.yul\":6696:6725   */\n      swap1\n      pop\n        /* \"#utility.yul\":6734:6767   */\n      tag_256\n        /* \"#utility.yul\":6761:6766   */\n      dup2\n        /* \"#utility.yul\":6734:6767   */\n      tag_162\n      jump\t// in\n    tag_256:\n        /* \"#utility.yul\":6634:6773   */\n      swap3\n      swap2\n      pop\n      pop\n      jump\t// out\n        /* \"#utility.yul\":6779:7108   */\n    tag_43:\n        /* \"#utility.yul\":6838:6844   */\n      0x00\n        /* \"#utility.yul\":6887:6889   */\n      0x20\n        /* \"#utility.yul\":6875:6884   */\n      dup3\n        /* \"#utility.yul\":6866:6873   */\n      dup5\n        /* \"#utility.yul\":6862:6885   */\n      sub\n        /* \"#utility.yul\":6858:6890   */\n      slt\n        /* \"#utility.yul\":6855:6974   */\n      iszero\n      tag_258\n      jumpi\n        /* \"#utility.yul\":6893:6972   */\n      tag_259\n      tag_140\n      jump\t// in\n    tag_259:\n        /* \"#utility.yul\":6855:6974   */\n    tag_258:\n        /* \"#utility.yul\":7013:7014   */\n      0x00\n        /* \"#utility.yul\":7038:7091   */\n      tag_260\n        /* \"#utility.yul\":7083:7090   */\n      dup5\n        /* \"#utility.yul\":7074:7080   */\n      dup3\n        /* \"#utility.yul\":7063:7072   */\n      dup6\n        /* \"#utility.yul\":7059:7081   */\n      add\n        /* \"#utility.yul\":7038:7091   */\n      tag_163\n      jump\t// in\n    tag_260:\n        /* \"#utility.yul\":7028:7091   */\n      swap2\n      pop\n        /* \"#utility.yul\":6984:7101   */\n      pop\n        /* \"#utility.yul\":6779:7108   */\n      swap3\n      swap2\n      pop\n      pop\n      jump\t// out\n        /* \"#utility.yul\":7114:7588   */\n    tag_48:\n        /* \"#utility.yul\":7182:7188   */\n      0x00\n        /* \"#utility.yul\":7190:7196   */\n      0x00\n        /* \"#utility.yul\":7239:7241   */\n      0x40\n        /* \"#utility.yul\":7227:7236   */\n      dup4\n        /* \"#utility.yul\":7218:7225   */\n      dup6\n        /* \"#utility.yul\":7214:7237   */\n      sub\n        /* \"#utility.yul\":7210:7242   */\n      slt\n        /* \"#utility.yul\":7207:7326   */\n      iszero\n      tag_262\n      jumpi\n        /* \"#utility.yul\":7245:7324   */\n      tag_263\n      tag_140\n      jump\t// in\n    tag_263:\n        /* \"#utility.yul\":7207:7326   */\n    tag_262:\n        /* \"#utility.yul\":7365:7366   */\n      0x00\n        /* \"#utility.yul\":7390:7443   */\n      tag_264\n        /* \"#utility.yul\":7435:7442   */\n      dup6\n        /* \"#utility.yul\":7426:7432   */\n      dup3\n        /* \"#utility.yul\":7415:7424   */\n      dup7\n        /* \"#utility.yul\":7411:7433   */\n      add\n        /* \"#utility.yul\":7390:7443   */\n      tag_144\n      jump\t// in\n    tag_264:\n        /* \"#utility.yul\":7380:7443   */\n      swap3\n      pop\n        /* \"#utility.yul\":7336:7453   */\n      pop\n        /* \"#utility.yul\":7492:7494   */\n      0x20\n        /* \"#utility.yul\":7518:7571   */\n      tag_265\n        /* \"#utility.yul\":7563:7570   */\n      dup6\n        /* \"#utility.yul\":7554:7560   */\n      dup3\n        /* \"#utility.yul\":7543:7552   */\n      dup7\n        /* \"#utility.yul\":7539:7561   */\n      add\n        /* \"#utility.yul\":7518:7571   */\n      tag_163\n      jump\t// in\n    tag_265:\n        /* \"#utility.yul\":7508:7571   */\n      swap2\n      pop\n        /* \"#utility.yul\":7463:7581   */\n      pop\n        /* \"#utility.yul\":7114:7588   */\n      swap3\n      pop\n      swap3\n      swap1\n      pop\n      jump\t// out\n        /* \"#utility.yul\":7594:7763   */\n    tag_164:\n        /* \"#utility.yul\":7678:7689   */\n      0x00\n        /* \"#utility.yul\":7712:7718   */\n      dup3\n        /* \"#utility.yul\":7707:7710   */\n      dup3\n        /* \"#utility.yul\":7700:7719   */\n      mstore\n        /* \"#utility.yul\":7752:7756   */\n      0x20\n        /* \"#utility.yul\":7747:7750   */\n      dup3\n        /* \"#utility.yul\":7743:7757   */\n      add\n        /* \"#utility.yul\":7728:7757   */\n      swap1\n      pop\n        /* \"#utility.yul\":7594:7763   */\n      swap3\n      swap2\n      pop\n      pop\n      jump\t// out\n        /* \"#utility.yul\":7769:7941   */\n    tag_165:\n        /* \"#utility.yul\":7909:7933   */\n      0x496e76616c6964207472616e73616374696f6e20696400000000000000000000\n        /* \"#utility.yul\":7905:7906   */\n      0x00\n        /* \"#utility.yul\":7897:7903   */\n      dup3\n        /* \"#utility.yul\":7893:7907   */\n      add\n        /* \"#utility.yul\":7886:7934   */\n      mstore\n        /* \"#utility.yul\":7769:7941   */\n      pop\n      jump\t// out\n        /* \"#utility.yul\":7947:8313   */\n    tag_166:\n        /* \"#utility.yul\":8089:8092   */\n      0x00\n        /* \"#utility.yul\":8110:8177   */\n      tag_269\n        /* \"#utility.yul\":8174:8176   */\n      0x16\n        /* \"#utility.yul\":8169:8172   */\n      dup4\n        /* \"#utility.yul\":8110:8177   */\n      tag_164\n      jump\t// in\n    tag_269:\n        /* \"#utility.yul\":8103:8177   */\n      swap2\n      pop\n        /* \"#utility.yul\":8186:8279   */\n      tag_270\n        /* \"#utility.yul\":8275:8278   */\n      dup3\n        /* \"#utility.yul\":8186:8279   */\n      tag_165\n      jump\t// in\n    tag_270:\n        /* \"#utility.yul\":8304:8306   */\n      0x20\n        /* \"#utility.yul\":8299:8302   */\n      dup3\n        /* \"#utility.yul\":8295:8307   */\n      add\n        /* \"#utility.yul\":8288:8307   */\n      swap1\n      pop\n        /* \"#utility.yul\":7947:8313   */\n      swap2\n      swap1\n      pop\n      jump\t// out\n        /* \"#utility.yul\":8319:8738   */\n    tag_59:\n        /* \"#utility.yul\":8485:8489   */\n      0x00\n        /* \"#utility.yul\":8523:8525   */\n      0x20\n        /* \"#utility.yul\":8512:8521   */\n      dup3\n        /* \"#utility.yul\":8508:8526   */\n      add\n        /* \"#utility.yul\":8500:8526   */\n      swap1\n      pop\n        /* \"#utility.yul\":8572:8581   */\n      dup2\n        /* \"#utility.yul\":8566:8570   */\n      dup2\n        /* \"#utility.yul\":8562:8582   */\n      sub\n        /* \"#utility.yul\":8558:8559   */\n      0x00\n        /* \"#utility.yul\":8547:8556   */\n      dup4\n        /* \"#utility.yul\":8543:8560   */\n      add\n        /* \"#utility.yul\":8536:8583   */\n      mstore\n        /* \"#utility.yul\":8600:8731   */\n      tag_272\n        /* \"#utility.yul\":8726:8730   */\n      dup2\n        /* \"#utility.yul\":8600:8731   */\n      tag_166\n      jump\t// in\n    tag_272:\n        /* \"#utility.yul\":8592:8731   */\n      swap1\n      pop\n        /* \"#utility.yul\":8319:8738   */\n      swap2\n      swap1\n      pop\n      jump\t// out\n        /* \"#utility.yul\":8744:8915   */\n    tag_167:\n        /* \"#utility.yul\":8884:8907   */\n      0x5a65726f20616464726573732064657465637465640000000000000000000000\n        /* \"#utility.yul\":8880:8881   */\n      0x00\n        /* \"#utility.yul\":8872:8878   */\n      dup3\n        /* \"#utility.yul\":8868:8882   */\n      add\n        /* \"#utility.yul\":8861:8908   */\n      mstore\n        /* \"#utility.yul\":8744:8915   */\n      pop\n      jump\t// out\n        /* \"#utility.yul\":8921:9287   */\n    tag_168:\n        /* \"#utility.yul\":9063:9066   */\n      0x00\n        /* \"#utility.yul\":9084:9151   */\n      tag_275\n        /* \"#utility.yul\":9148:9150   */\n      0x15\n        /* \"#utility.yul\":9143:9146   */\n      dup4\n        /* \"#utility.yul\":9084:9151   */\n      tag_164\n      jump\t// in\n    tag_275:\n        /* \"#utility.yul\":9077:9151   */\n      swap2\n      pop\n        /* \"#utility.yul\":9160:9253   */\n      tag_276\n        /* \"#utility.yul\":9249:9252   */\n      dup3\n        /* \"#utility.yul\":9160:9253   */\n      tag_167\n      jump\t// in\n    tag_276:\n        /* \"#utility.yul\":9278:9280   */\n      0x20\n        /* \"#utility.yul\":9273:9276   */\n      dup3\n        /* \"#utility.yul\":9269:9281   */\n      add\n        /* \"#utility.yul\":9262:9281   */\n      swap1\n      pop\n        /* \"#utility.yul\":8921:9287   */\n      swap2\n      swap1\n      pop\n      jump\t// out\n        /* \"#utility.yul\":9293:9712   */\n    tag_62:\n        /* \"#utility.yul\":9459:9463   */\n      0x00\n        /* \"#utility.yul\":9497:9499   */\n      0x20\n        /* \"#utility.yul\":9486:9495   */\n      dup3\n        /* \"#utility.yul\":9482:9500   */\n      add\n        /* \"#utility.yul\":9474:9500   */\n      swap1\n      pop\n        /* \"#utility.yul\":9546:9555   */\n      dup2\n        /* \"#utility.yul\":9540:9544   */\n      dup2\n        /* \"#utility.yul\":9536:9556   */\n      sub\n        /* \"#utility.yul\":9532:9533   */\n      0x00\n        /* \"#utility.yul\":9521:9530   */\n      dup4\n        /* \"#utility.yul\":9517:9534   */\n      add\n        /* \"#utility.yul\":9510:9557   */\n      mstore\n        /* \"#utility.yul\":9574:9705   */\n      tag_278\n        /* \"#utility.yul\":9700:9704   */\n      dup2\n        /* \"#utility.yul\":9574:9705   */\n      tag_168\n      jump\t// in\n    tag_278:\n        /* \"#utility.yul\":9566:9705   */\n      swap1\n      pop\n        /* \"#utility.yul\":9293:9712   */\n      swap2\n      swap1\n      pop\n      jump\t// out\n        /* \"#utility.yul\":9718:9884   */\n    tag_169:\n        /* \"#utility.yul\":9858:9876   */\n      0x43616e2774207369676e20747769636500000000000000000000000000000000\n        /* \"#utility.yul\":9854:9855   */\n      0x00\n        /* \"#utility.yul\":9846:9852   */\n      dup3\n        /* \"#utility.yul\":9842:9856   */\n      add\n        /* \"#utility.yul\":9835:9877   */\n      mstore\n        /* \"#utility.yul\":9718:9884   */\n      pop\n      jump\t// out\n        /* \"#utility.yul\":9890:10256   */\n    tag_170:\n        /* \"#utility.yul\":10032:10035   */\n      0x00\n        /* \"#utility.yul\":10053:10120   */\n      tag_281\n        /* \"#utility.yul\":10117:10119   */\n      0x10\n        /* \"#utility.yul\":10112:10115   */\n      dup4\n        /* \"#utility.yul\":10053:10120   */\n      tag_164\n      jump\t// in\n    tag_281:\n        /* \"#utility.yul\":10046:10120   */\n      swap2\n      pop\n        /* \"#utility.yul\":10129:10222   */\n      tag_282\n        /* \"#utility.yul\":10218:10221   */\n      dup3\n        /* \"#utility.yul\":10129:10222   */\n      tag_169\n      jump\t// in\n    tag_282:\n        /* \"#utility.yul\":10247:10249   */\n      0x20\n        /* \"#utility.yul\":10242:10245   */\n      dup3\n        /* \"#utility.yul\":10238:10250   */\n      add\n        /* \"#utility.yul\":10231:10250   */\n      swap1\n      pop\n        /* \"#utility.yul\":9890:10256   */\n      swap2\n      swap1\n      pop\n      jump\t// out\n        /* \"#utility.yul\":10262:10681   */\n    tag_67:\n        /* \"#utility.yul\":10428:10432   */\n      0x00\n        /* \"#utility.yul\":10466:10468   */\n      0x20\n        /* \"#utility.yul\":10455:10464   */\n      dup3\n        /* \"#utility.yul\":10451:10469   */\n      add\n        /* \"#utility.yul\":10443:10469   */\n      swap1\n      pop\n        /* \"#utility.yul\":10515:10524   */\n      dup2\n        /* \"#utility.yul\":10509:10513   */\n      dup2\n        /* \"#utility.yul\":10505:10525   */\n      sub\n        /* \"#utility.yul\":10501:10502   */\n      0x00\n        /* \"#utility.yul\":10490:10499   */\n      dup4\n        /* \"#utility.yul\":10486:10503   */\n      add\n        /* \"#utility.yul\":10479:10526   */\n      mstore\n        /* \"#utility.yul\":10543:10674   */\n      tag_284\n        /* \"#utility.yul\":10669:10673   */\n      dup2\n        /* \"#utility.yul\":10543:10674   */\n      tag_170\n      jump\t// in\n    tag_284:\n        /* \"#utility.yul\":10535:10674   */\n      swap1\n      pop\n        /* \"#utility.yul\":10262:10681   */\n      swap2\n      swap1\n      pop\n      jump\t// out\n        /* \"#utility.yul\":10687:10866   */\n    tag_171:\n        /* \"#utility.yul\":10827:10858   */\n      0x496e73756666696369656e7420636f6e74726163742062616c616e6365000000\n        /* \"#utility.yul\":10823:10824   */\n      0x00\n        /* \"#utility.yul\":10815:10821   */\n      dup3\n        /* \"#utility.yul\":10811:10825   */\n      add\n        /* \"#utility.yul\":10804:10859   */\n      mstore\n        /* \"#utility.yul\":10687:10866   */\n      pop\n      jump\t// out\n        /* \"#utility.yul\":10872:11238   */\n    tag_172:\n        /* \"#utility.yul\":11014:11017   */\n      0x00\n        /* \"#utility.yul\":11035:11102   */\n      tag_287\n        /* \"#utility.yul\":11099:11101   */\n      0x1d\n        /* \"#utility.yul\":11094:11097   */\n      dup4\n        /* \"#utility.yul\":11035:11102   */\n      tag_164\n      jump\t// in\n    tag_287:\n        /* \"#utility.yul\":11028:11102   */\n      swap2\n      pop\n        /* \"#utility.yul\":11111:11204   */\n      tag_288\n        /* \"#utility.yul\":11200:11203   */\n      dup3\n        /* \"#utility.yul\":11111:11204   */\n      tag_171\n      jump\t// in\n    tag_288:\n        /* \"#utility.yul\":11229:11231   */\n      0x20\n        /* \"#utility.yul\":11224:11227   */\n      dup3\n        /* \"#utility.yul\":11220:11232   */\n      add\n        /* \"#utility.yul\":11213:11232   */\n      swap1\n      pop\n        /* \"#utility.yul\":10872:11238   */\n      swap2\n      swap1\n      pop\n      jump\t// out\n        /* \"#utility.yul\":11244:11663   */\n    tag_70:\n        /* \"#utility.yul\":11410:11414   */\n      0x00\n        /* \"#utility.yul\":11448:11450   */\n      0x20\n        /* \"#utility.yul\":11437:11446   */\n      dup3\n        /* \"#utility.yul\":11433:11451   */\n      add\n        /* \"#utility.yul\":11425:11451   */\n      swap1\n      pop\n        /* \"#utility.yul\":11497:11506   */\n      dup2\n        /* \"#utility.yul\":11491:11495   */\n      dup2\n        /* \"#utility.yul\":11487:11507   */\n      sub\n        /* \"#utility.yul\":11483:11484   */\n      0x00\n        /* \"#utility.yul\":11472:11481   */\n      dup4\n        /* \"#utility.yul\":11468:11485   */\n      add\n        /* \"#utility.yul\":11461:11508   */\n      mstore\n        /* \"#utility.yul\":11525:11656   */\n      tag_290\n        /* \"#utility.yul\":11651:11655   */\n      dup2\n        /* \"#utility.yul\":11525:11656   */\n      tag_172\n      jump\t// in\n    tag_290:\n        /* \"#utility.yul\":11517:11656   */\n      swap1\n      pop\n        /* \"#utility.yul\":11244:11663   */\n      swap2\n      swap1\n      pop\n      jump\t// out\n        /* \"#utility.yul\":11669:11847   */\n    tag_173:\n        /* \"#utility.yul\":11809:11839   */\n      0x7472616e73616374696f6e20616c726561647920657865637574656400000000\n        /* \"#utility.yul\":11805:11806   */\n      0x00\n        /* \"#utility.yul\":11797:11803   */\n      dup3\n        /* \"#utility.yul\":11793:11807   */\n      add\n        /* \"#utility.yul\":11786:11840   */\n      mstore\n        /* \"#utility.yul\":11669:11847   */\n      pop\n      jump\t// out\n        /* \"#utility.yul\":11853:12219   */\n    tag_174:\n        /* \"#utility.yul\":11995:11998   */\n      0x00\n        /* \"#utility.yul\":12016:12083   */\n      tag_293\n        /* \"#utility.yul\":12080:12082   */\n      0x1c\n        /* \"#utility.yul\":12075:12078   */\n      dup4\n        /* \"#utility.yul\":12016:12083   */\n      tag_164\n      jump\t// in\n    tag_293:\n        /* \"#utility.yul\":12009:12083   */\n      swap2\n      pop\n        /* \"#utility.yul\":12092:12185   */\n      tag_294\n        /* \"#utility.yul\":12181:12184   */\n      dup3\n        /* \"#utility.yul\":12092:12185   */\n      tag_173\n      jump\t// in\n    tag_294:\n        /* \"#utility.yul\":12210:12212   */\n      0x20\n        /* \"#utility.yul\":12205:12208   */\n      dup3\n        /* \"#utility.yul\":12201:12213   */\n      add\n        /* \"#utility.yul\":12194:12213   */\n      swap1\n      pop\n        /* \"#utility.yul\":11853:12219   */\n      swap2\n      swap1\n      pop\n      jump\t// out\n        /* \"#utility.yul\":12225:12644   */\n    tag_73:\n        /* \"#utility.yul\":12391:12395   */\n      0x00\n        /* \"#utility.yul\":12429:12431   */\n      0x20\n        /* \"#utility.yul\":12418:12427   */\n      dup3\n        /* \"#utility.yul\":12414:12432   */\n      add\n        /* \"#utility.yul\":12406:12432   */\n      swap1\n      pop\n        /* \"#utility.yul\":12478:12487   */\n      dup2\n        /* \"#utility.yul\":12472:12476   */\n      dup2\n        /* \"#utility.yul\":12468:12488   */\n      sub\n        /* \"#utility.yul\":12464:12465   */\n      0x00\n        /* \"#utility.yul\":12453:12462   */\n      dup4\n        /* \"#utility.yul\":12449:12466   */\n      add\n        /* \"#utility.yul\":12442:12489   */\n      mstore\n        /* \"#utility.yul\":12506:12637   */\n      tag_296\n        /* \"#utility.yul\":12632:12636   */\n      dup2\n        /* \"#utility.yul\":12506:12637   */\n      tag_174\n      jump\t// in\n    tag_296:\n        /* \"#utility.yul\":12498:12637   */\n      swap1\n      pop\n        /* \"#utility.yul\":12225:12644   */\n      swap2\n      swap1\n      pop\n      jump\t// out\n        /* \"#utility.yul\":12650:12820   */\n    tag_175:\n        /* \"#utility.yul\":12790:12812   */\n      0x51756f72756d20636f756e742072656163686564000000000000000000000000\n        /* \"#utility.yul\":12786:12787   */\n      0x00\n        /* \"#utility.yul\":12778:12784   */\n      dup3\n        /* \"#utility.yul\":12774:12788   */\n      add\n        /* \"#utility.yul\":12767:12813   */\n      mstore\n        /* \"#utility.yul\":12650:12820   */\n      pop\n      jump\t// out\n        /* \"#utility.yul\":12826:13192   */\n    tag_176:\n        /* \"#utility.yul\":12968:12971   */\n      0x00\n        /* \"#utility.yul\":12989:13056   */\n      tag_299\n        /* \"#utility.yul\":13053:13055   */\n      0x14\n        /* \"#utility.yul\":13048:13051   */\n      dup4\n        /* \"#utility.yul\":12989:13056   */\n      tag_164\n      jump\t// in\n    tag_299:\n        /* \"#utility.yul\":12982:13056   */\n      swap2\n      pop\n        /* \"#utility.yul\":13065:13158   */\n      tag_300\n        /* \"#utility.yul\":13154:13157   */\n      dup3\n        /* \"#utility.yul\":13065:13158   */\n      tag_175\n      jump\t// in\n    tag_300:\n        /* \"#utility.yul\":13183:13185   */\n      0x20\n        /* \"#utility.yul\":13178:13181   */\n      dup3\n        /* \"#utility.yul\":13174:13186   */\n      add\n        /* \"#utility.yul\":13167:13186   */\n      swap1\n      pop\n        /* \"#utility.yul\":12826:13192   */\n      swap2\n      swap1\n      pop\n      jump\t// out\n        /* \"#utility.yul\":13198:13617   */\n    tag_76:\n        /* \"#utility.yul\":13364:13368   */\n      0x00\n        /* \"#utility.yul\":13402:13404   */\n      0x20\n        /* \"#utility.yul\":13391:13400   */\n      dup3\n        /* \"#utility.yul\":13387:13405   */\n      add\n        /* \"#utility.yul\":13379:13405   */\n      swap1\n      pop\n        /* \"#utility.yul\":13451:13460   */\n      dup2\n        /* \"#utility.yul\":13445:13449   */\n      dup2\n        /* \"#utility.yul\":13441:13461   */\n      sub\n        /* \"#utility.yul\":13437:13438   */\n      0x00\n        /* \"#utility.yul\":13426:13435   */\n      dup4\n        /* \"#utility.yul\":13422:13439   */\n      add\n        /* \"#utility.yul\":13415:13462   */\n      mstore\n        /* \"#utility.yul\":13479:13610   */\n      tag_302\n        /* \"#utility.yul\":13605:13609   */\n      dup2\n        /* \"#utility.yul\":13479:13610   */\n      tag_176\n      jump\t// in\n    tag_302:\n        /* \"#utility.yul\":13471:13610   */\n      swap1\n      pop\n        /* \"#utility.yul\":13198:13617   */\n      swap2\n      swap1\n      pop\n      jump\t// out\n        /* \"#utility.yul\":13623:13803   */\n    tag_177:\n        /* \"#utility.yul\":13671:13748   */\n      0x4e487b7100000000000000000000000000000000000000000000000000000000\n        /* \"#utility.yul\":13668:13669   */\n      0x00\n        /* \"#utility.yul\":13661:13749   */\n      mstore\n        /* \"#utility.yul\":13768:13772   */\n      0x11\n        /* \"#utility.yul\":13765:13766   */\n      0x04\n        /* \"#utility.yul\":13758:13773   */\n      mstore\n        /* \"#utility.yul\":13792:13796   */\n      0x24\n        /* \"#utility.yul\":13789:13790   */\n      0x00\n        /* \"#utility.yul\":13782:13797   */\n      revert\n        /* \"#utility.yul\":13809:14000   */\n    tag_78:\n        /* \"#utility.yul\":13849:13852   */\n      0x00\n        /* \"#utility.yul\":13868:13888   */\n      tag_305\n        /* \"#utility.yul\":13886:13887   */\n      dup3\n        /* \"#utility.yul\":13868:13888   */\n      tag_142\n      jump\t// in\n    tag_305:\n        /* \"#utility.yul\":13863:13888   */\n      swap2\n      pop\n        /* \"#utility.yul\":13902:13922   */\n      tag_306\n        /* \"#utility.yul\":13920:13921   */\n      dup4\n        /* \"#utility.yul\":13902:13922   */\n      tag_142\n      jump\t// in\n    tag_306:\n        /* \"#utility.yul\":13897:13922   */\n      swap3\n      pop\n        /* \"#utility.yul\":13945:13946   */\n      dup3\n        /* \"#utility.yul\":13942:13943   */\n      dup3\n        /* \"#utility.yul\":13938:13947   */\n      add\n        /* \"#utility.yul\":13931:13947   */\n      swap1\n      pop\n        /* \"#utility.yul\":13966:13969   */\n      dup1\n        /* \"#utility.yul\":13963:13964   */\n      dup3\n        /* \"#utility.yul\":13960:13970   */\n      gt\n        /* \"#utility.yul\":13957:13993   */\n      iszero\n      tag_307\n      jumpi\n        /* \"#utility.yul\":13973:13991   */\n      tag_308\n      tag_177\n      jump\t// in\n    tag_308:\n        /* \"#utility.yul\":13957:13993   */\n    tag_307:\n        /* \"#utility.yul\":13809:14000   */\n      swap3\n      swap2\n      pop\n      pop\n      jump\t// out\n        /* \"#utility.yul\":14006:14170   */\n    tag_178:\n        /* \"#utility.yul\":14146:14162   */\n      0x4e6f74206e657874206f776e6572000000000000000000000000000000000000\n        /* \"#utility.yul\":14142:14143   */\n      0x00\n        /* \"#utility.yul\":14134:14140   */\n      dup3\n        /* \"#utility.yul\":14130:14144   */\n      add\n        /* \"#utility.yul\":14123:14163   */\n      mstore\n        /* \"#utility.yul\":14006:14170   */\n      pop\n      jump\t// out\n        /* \"#utility.yul\":14176:14542   */\n    tag_179:\n        /* \"#utility.yul\":14318:14321   */\n      0x00\n        /* \"#utility.yul\":14339:14406   */\n      tag_311\n        /* \"#utility.yul\":14403:14405   */\n      0x0e\n        /* \"#utility.yul\":14398:14401   */\n      dup4\n        /* \"#utility.yul\":14339:14406   */\n      tag_164\n      jump\t// in\n    tag_311:\n        /* \"#utility.yul\":14332:14406   */\n      swap2\n      pop\n        /* \"#utility.yul\":14415:14508   */\n      tag_312\n        /* \"#utility.yul\":14504:14507   */\n      dup3\n        /* \"#utility.yul\":14415:14508   */\n      tag_178\n      jump\t// in\n    tag_312:\n        /* \"#utility.yul\":14533:14535   */\n      0x20\n        /* \"#utility.yul\":14528:14531   */\n      dup3\n        /* \"#utility.yul\":14524:14536   */\n      add\n        /* \"#utility.yul\":14517:14536   */\n      swap1\n      pop\n        /* \"#utility.yul\":14176:14542   */\n      swap2\n      swap1\n      pop\n      jump\t// out\n        /* \"#utility.yul\":14548:14967   */\n    tag_85:\n        /* \"#utility.yul\":14714:14718   */\n      0x00\n        /* \"#utility.yul\":14752:14754   */\n      0x20\n        /* \"#utility.yul\":14741:14750   */\n      dup3\n        /* \"#utility.yul\":14737:14755   */\n      add\n        /* \"#utility.yul\":14729:14755   */\n      swap1\n      pop\n        /* \"#utility.yul\":14801:14810   */\n      dup2\n        /* \"#utility.yul\":14795:14799   */\n      dup2\n        /* \"#utility.yul\":14791:14811   */\n      sub\n        /* \"#utility.yul\":14787:14788   */\n      0x00\n        /* \"#utility.yul\":14776:14785   */\n      dup4\n        /* \"#utility.yul\":14772:14789   */\n      add\n        /* \"#utility.yul\":14765:14812   */\n      mstore\n        /* \"#utility.yul\":14829:14960   */\n      tag_314\n        /* \"#utility.yul\":14955:14959   */\n      dup2\n        /* \"#utility.yul\":14829:14960   */\n      tag_179\n      jump\t// in\n    tag_314:\n        /* \"#utility.yul\":14821:14960   */\n      swap1\n      pop\n        /* \"#utility.yul\":14548:14967   */\n      swap2\n      swap1\n      pop\n      jump\t// out\n        /* \"#utility.yul\":14973:15136   */\n    tag_180:\n        /* \"#utility.yul\":15113:15128   */\n      0x496e76616c696420696e64657800000000000000000000000000000000000000\n        /* \"#utility.yul\":15109:15110   */\n      0x00\n        /* \"#utility.yul\":15101:15107   */\n      dup3\n        /* \"#utility.yul\":15097:15111   */\n      add\n        /* \"#utility.yul\":15090:15129   */\n      mstore\n        /* \"#utility.yul\":14973:15136   */\n      pop\n      jump\t// out\n        /* \"#utility.yul\":15142:15508   */\n    tag_181:\n        /* \"#utility.yul\":15284:15287   */\n      0x00\n        /* \"#utility.yul\":15305:15372   */\n      tag_317\n        /* \"#utility.yul\":15369:15371   */\n      0x0d\n        /* \"#utility.yul\":15364:15367   */\n      dup4\n        /* \"#utility.yul\":15305:15372   */\n      tag_164\n      jump\t// in\n    tag_317:\n        /* \"#utility.yul\":15298:15372   */\n      swap2\n      pop\n        /* \"#utility.yul\":15381:15474   */\n      tag_318\n        /* \"#utility.yul\":15470:15473   */\n      dup3\n        /* \"#utility.yul\":15381:15474   */\n      tag_180\n      jump\t// in\n    tag_318:\n        /* \"#utility.yul\":15499:15501   */\n      0x20\n        /* \"#utility.yul\":15494:15497   */\n      dup3\n        /* \"#utility.yul\":15490:15502   */\n      add\n        /* \"#utility.yul\":15483:15502   */\n      swap1\n      pop\n        /* \"#utility.yul\":15142:15508   */\n      swap2\n      swap1\n      pop\n      jump\t// out\n        /* \"#utility.yul\":15514:15933   */\n    tag_91:\n        /* \"#utility.yul\":15680:15684   */\n      0x00\n        /* \"#utility.yul\":15718:15720   */\n      0x20\n        /* \"#utility.yul\":15707:15716   */\n      dup3\n        /* \"#utility.yul\":15703:15721   */\n      add\n        /* \"#utility.yul\":15695:15721   */\n      swap1\n      pop\n        /* \"#utility.yul\":15767:15776   */\n      dup2\n        /* \"#utility.yul\":15761:15765   */\n      dup2\n        /* \"#utility.yul\":15757:15777   */\n      sub\n        /* \"#utility.yul\":15753:15754   */\n      0x00\n        /* \"#utility.yul\":15742:15751   */\n      dup4\n        /* \"#utility.yul\":15738:15755   */\n      add\n        /* \"#utility.yul\":15731:15778   */\n      mstore\n        /* \"#utility.yul\":15795:15926   */\n      tag_320\n        /* \"#utility.yul\":15921:15925   */\n      dup2\n        /* \"#utility.yul\":15795:15926   */\n      tag_181\n      jump\t// in\n    tag_320:\n        /* \"#utility.yul\":15787:15926   */\n      swap1\n      pop\n        /* \"#utility.yul\":15514:15933   */\n      swap2\n      swap1\n      pop\n      jump\t// out\n        /* \"#utility.yul\":15939:16133   */\n    tag_93:\n        /* \"#utility.yul\":15979:15983   */\n      0x00\n        /* \"#utility.yul\":15999:16019   */\n      tag_322\n        /* \"#utility.yul\":16017:16018   */\n      dup3\n        /* \"#utility.yul\":15999:16019   */\n      tag_142\n      jump\t// in\n    tag_322:\n        /* \"#utility.yul\":15994:16019   */\n      swap2\n      pop\n        /* \"#utility.yul\":16033:16053   */\n      tag_323\n        /* \"#utility.yul\":16051:16052   */\n      dup4\n        /* \"#utility.yul\":16033:16053   */\n      tag_142\n      jump\t// in\n    tag_323:\n        /* \"#utility.yul\":16028:16053   */\n      swap3\n      pop\n        /* \"#utility.yul\":16077:16078   */\n      dup3\n        /* \"#utility.yul\":16074:16075   */\n      dup3\n        /* \"#utility.yul\":16070:16079   */\n      sub\n        /* \"#utility.yul\":16062:16079   */\n      swap1\n      pop\n        /* \"#utility.yul\":16101:16102   */\n      dup2\n        /* \"#utility.yul\":16095:16099   */\n      dup2\n        /* \"#utility.yul\":16092:16103   */\n      gt\n        /* \"#utility.yul\":16089:16126   */\n      iszero\n      tag_324\n      jumpi\n        /* \"#utility.yul\":16106:16124   */\n      tag_325\n      tag_177\n      jump\t// in\n    tag_325:\n        /* \"#utility.yul\":16089:16126   */\n    tag_324:\n        /* \"#utility.yul\":15939:16133   */\n      swap3\n      swap2\n      pop\n      pop\n      jump\t// out\n        /* \"#utility.yul\":16139:16319   */\n    tag_96:\n        /* \"#utility.yul\":16187:16264   */\n      0x4e487b7100000000000000000000000000000000000000000000000000000000\n        /* \"#utility.yul\":16184:16185   */\n      0x00\n        /* \"#utility.yul\":16177:16265   */\n      mstore\n        /* \"#utility.yul\":16284:16288   */\n      0x32\n        /* \"#utility.yul\":16281:16282   */\n      0x04\n        /* \"#utility.yul\":16274:16289   */\n      mstore\n        /* \"#utility.yul\":16308:16312   */\n      0x24\n        /* \"#utility.yul\":16305:16306   */\n      0x00\n        /* \"#utility.yul\":16298:16313   */\n      revert\n        /* \"#utility.yul\":16325:16505   */\n    tag_106:\n        /* \"#utility.yul\":16373:16450   */\n      0x4e487b7100000000000000000000000000000000000000000000000000000000\n        /* \"#utility.yul\":16370:16371   */\n      0x00\n        /* \"#utility.yul\":16363:16451   */\n      mstore\n        /* \"#utility.yul\":16470:16474   */\n      0x31\n        /* \"#utility.yul\":16467:16468   */\n      0x04\n        /* \"#utility.yul\":16460:16475   */\n      mstore\n        /* \"#utility.yul\":16494:16498   */\n      0x24\n        /* \"#utility.yul\":16491:16492   */\n      0x00\n        /* \"#utility.yul\":16484:16499   */\n      revert\n        /* \"#utility.yul\":16511:16681   */\n    tag_182:\n        /* \"#utility.yul\":16651:16673   */\n      0x5369676e657220616c7265616479206578697374000000000000000000000000\n        /* \"#utility.yul\":16647:16648   */\n      0x00\n        /* \"#utility.yul\":16639:16645   */\n      dup3\n        /* \"#utility.yul\":16635:16649   */\n      add\n        /* \"#utility.yul\":16628:16674   */\n      mstore\n        /* \"#utility.yul\":16511:16681   */\n      pop\n      jump\t// out\n        /* \"#utility.yul\":16687:17053   */\n    tag_183:\n        /* \"#utility.yul\":16829:16832   */\n      0x00\n        /* \"#utility.yul\":16850:16917   */\n      tag_330\n        /* \"#utility.yul\":16914:16916   */\n      0x14\n        /* \"#utility.yul\":16909:16912   */\n      dup4\n        /* \"#utility.yul\":16850:16917   */\n      tag_164\n      jump\t// in\n    tag_330:\n        /* \"#utility.yul\":16843:16917   */\n      swap2\n      pop\n        /* \"#utility.yul\":16926:17019   */\n      tag_331\n        /* \"#utility.yul\":17015:17018   */\n      dup3\n        /* \"#utility.yul\":16926:17019   */\n      tag_182\n      jump\t// in\n    tag_331:\n        /* \"#utility.yul\":17044:17046   */\n      0x20\n        /* \"#utility.yul\":17039:17042   */\n      dup3\n        /* \"#utility.yul\":17035:17047   */\n      add\n        /* \"#utility.yul\":17028:17047   */\n      swap1\n      pop\n        /* \"#utility.yul\":16687:17053   */\n      swap2\n      swap1\n      pop\n      jump\t// out\n        /* \"#utility.yul\":17059:17478   */\n    tag_116:\n        /* \"#utility.yul\":17225:17229   */\n      0x00\n        /* \"#utility.yul\":17263:17265   */\n      0x20\n        /* \"#utility.yul\":17252:17261   */\n      dup3\n        /* \"#utility.yul\":17248:17266   */\n      add\n        /* \"#utility.yul\":17240:17266   */\n      swap1\n      pop\n        /* \"#utility.yul\":17312:17321   */\n      dup2\n        /* \"#utility.yul\":17306:17310   */\n      dup2\n        /* \"#utility.yul\":17302:17322   */\n      sub\n        /* \"#utility.yul\":17298:17299   */\n      0x00\n        /* \"#utility.yul\":17287:17296   */\n      dup4\n        /* \"#utility.yul\":17283:17300   */\n      add\n        /* \"#utility.yul\":17276:17323   */\n      mstore\n        /* \"#utility.yul\":17340:17471   */\n      tag_333\n        /* \"#utility.yul\":17466:17470   */\n      dup2\n        /* \"#utility.yul\":17340:17471   */\n      tag_183\n      jump\t// in\n    tag_333:\n        /* \"#utility.yul\":17332:17471   */\n      swap1\n      pop\n        /* \"#utility.yul\":17059:17478   */\n      swap2\n      swap1\n      pop\n      jump\t// out\n        /* \"#utility.yul\":17484:17658   */\n    tag_184:\n        /* \"#utility.yul\":17624:17650   */\n      0x5a65726f2061646472657373206e6f7420616c6c6f7765640000000000000000\n        /* \"#utility.yul\":17620:17621   */\n      0x00\n        /* \"#utility.yul\":17612:17618   */\n      dup3\n        /* \"#utility.yul\":17608:17622   */\n      add\n        /* \"#utility.yul\":17601:17651   */\n      mstore\n        /* \"#utility.yul\":17484:17658   */\n      pop\n      jump\t// out\n        /* \"#utility.yul\":17664:18030   */\n    tag_185:\n        /* \"#utility.yul\":17806:17809   */\n      0x00\n        /* \"#utility.yul\":17827:17894   */\n      tag_336\n        /* \"#utility.yul\":17891:17893   */\n      0x18\n        /* \"#utility.yul\":17886:17889   */\n      dup4\n        /* \"#utility.yul\":17827:17894   */\n      tag_164\n      jump\t// in\n    tag_336:\n        /* \"#utility.yul\":17820:17894   */\n      swap2\n      pop\n        /* \"#utility.yul\":17903:17996   */\n      tag_337\n        /* \"#utility.yul\":17992:17995   */\n      dup3\n        /* \"#utility.yul\":17903:17996   */\n      tag_184\n      jump\t// in\n    tag_337:\n        /* \"#utility.yul\":18021:18023   */\n      0x20\n        /* \"#utility.yul\":18016:18019   */\n      dup3\n        /* \"#utility.yul\":18012:18024   */\n      add\n        /* \"#utility.yul\":18005:18024   */\n      swap1\n      pop\n        /* \"#utility.yul\":17664:18030   */\n      swap2\n      swap1\n      pop\n      jump\t// out\n        /* \"#utility.yul\":18036:18455   */\n    tag_121:\n        /* \"#utility.yul\":18202:18206   */\n      0x00\n        /* \"#utility.yul\":18240:18242   */\n      0x20\n        /* \"#utility.yul\":18229:18238   */\n      dup3\n        /* \"#utility.yul\":18225:18243   */\n      add\n        /* \"#utility.yul\":18217:18243   */\n      swap1\n      pop\n        /* \"#utility.yul\":18289:18298   */\n      dup2\n        /* \"#utility.yul\":18283:18287   */\n      dup2\n        /* \"#utility.yul\":18279:18299   */\n      sub\n        /* \"#utility.yul\":18275:18276   */\n      0x00\n        /* \"#utility.yul\":18264:18273   */\n      dup4\n        /* \"#utility.yul\":18260:18277   */\n      add\n        /* \"#utility.yul\":18253:18300   */\n      mstore\n        /* \"#utility.yul\":18317:18448   */\n      tag_339\n        /* \"#utility.yul\":18443:18447   */\n      dup2\n        /* \"#utility.yul\":18317:18448   */\n      tag_185\n      jump\t// in\n    tag_339:\n        /* \"#utility.yul\":18309:18448   */\n      swap1\n      pop\n        /* \"#utility.yul\":18036:18455   */\n      swap2\n      swap1\n      pop\n      jump\t// out\n        /* \"#utility.yul\":18461:18633   */\n    tag_186:\n        /* \"#utility.yul\":18601:18625   */\n      0x5a65726f2076616c7565206e6f7420616c6c6f77656400000000000000000000\n        /* \"#utility.yul\":18597:18598   */\n      0x00\n        /* \"#utility.yul\":18589:18595   */\n      dup3\n        /* \"#utility.yul\":18585:18599   */\n      add\n        /* \"#utility.yul\":18578:18626   */\n      mstore\n        /* \"#utility.yul\":18461:18633   */\n      pop\n      jump\t// out\n        /* \"#utility.yul\":18639:19005   */\n    tag_187:\n        /* \"#utility.yul\":18781:18784   */\n      0x00\n        /* \"#utility.yul\":18802:18869   */\n      tag_342\n        /* \"#utility.yul\":18866:18868   */\n      0x16\n        /* \"#utility.yul\":18861:18864   */\n      dup4\n        /* \"#utility.yul\":18802:18869   */\n      tag_164\n      jump\t// in\n    tag_342:\n        /* \"#utility.yul\":18795:18869   */\n      swap2\n      pop\n        /* \"#utility.yul\":18878:18971   */\n      tag_343\n        /* \"#utility.yul\":18967:18970   */\n      dup3\n        /* \"#utility.yul\":18878:18971   */\n      tag_186\n      jump\t// in\n    tag_343:\n        /* \"#utility.yul\":18996:18998   */\n      0x20\n        /* \"#utility.yul\":18991:18994   */\n      dup3\n        /* \"#utility.yul\":18987:18999   */\n      add\n        /* \"#utility.yul\":18980:18999   */\n      swap1\n      pop\n        /* \"#utility.yul\":18639:19005   */\n      swap2\n      swap1\n      pop\n      jump\t// out\n        /* \"#utility.yul\":19011:19430   */\n    tag_124:\n        /* \"#utility.yul\":19177:19181   */\n      0x00\n        /* \"#utility.yul\":19215:19217   */\n      0x20\n        /* \"#utility.yul\":19204:19213   */\n      dup3\n        /* \"#utility.yul\":19200:19218   */\n      add\n        /* \"#utility.yul\":19192:19218   */\n      swap1\n      pop\n        /* \"#utility.yul\":19264:19273   */\n      dup2\n        /* \"#utility.yul\":19258:19262   */\n      dup2\n        /* \"#utility.yul\":19254:19274   */\n      sub\n        /* \"#utility.yul\":19250:19251   */\n      0x00\n        /* \"#utility.yul\":19239:19248   */\n      dup4\n        /* \"#utility.yul\":19235:19252   */\n      add\n        /* \"#utility.yul\":19228:19275   */\n      mstore\n        /* \"#utility.yul\":19292:19423   */\n      tag_345\n        /* \"#utility.yul\":19418:19422   */\n      dup2\n        /* \"#utility.yul\":19292:19423   */\n      tag_187\n      jump\t// in\n    tag_345:\n        /* \"#utility.yul\":19284:19423   */\n      swap1\n      pop\n        /* \"#utility.yul\":19011:19430   */\n      swap2\n      swap1\n      pop\n      jump\t// out\n        /* \"#utility.yul\":19436:19602   */\n    tag_188:\n        /* \"#utility.yul\":19576:19594   */\n      0x4e6f742076616c6964207369676e657200000000000000000000000000000000\n        /* \"#utility.yul\":19572:19573   */\n      0x00\n        /* \"#utility.yul\":19564:19570   */\n      dup3\n        /* \"#utility.yul\":19560:19574   */\n      add\n        /* \"#utility.yul\":19553:19595   */\n      mstore\n        /* \"#utility.yul\":19436:19602   */\n      pop\n      jump\t// out\n        /* \"#utility.yul\":19608:19974   */\n    tag_189:\n        /* \"#utility.yul\":19750:19753   */\n      0x00\n        /* \"#utility.yul\":19771:19838   */\n      tag_348\n        /* \"#utility.yul\":19835:19837   */\n      0x10\n        /* \"#utility.yul\":19830:19833   */\n      dup4\n        /* \"#utility.yul\":19771:19838   */\n      tag_164\n      jump\t// in\n    tag_348:\n        /* \"#utility.yul\":19764:19838   */\n      swap2\n      pop\n        /* \"#utility.yul\":19847:19940   */\n      tag_349\n        /* \"#utility.yul\":19936:19939   */\n      dup3\n        /* \"#utility.yul\":19847:19940   */\n      tag_188\n      jump\t// in\n    tag_349:\n        /* \"#utility.yul\":19965:19967   */\n      0x20\n        /* \"#utility.yul\":19960:19963   */\n      dup3\n        /* \"#utility.yul\":19956:19968   */\n      add\n        /* \"#utility.yul\":19949:19968   */\n      swap1\n      pop\n        /* \"#utility.yul\":19608:19974   */\n      swap2\n      swap1\n      pop\n      jump\t// out\n        /* \"#utility.yul\":19980:20399   */\n    tag_135:\n        /* \"#utility.yul\":20146:20150   */\n      0x00\n        /* \"#utility.yul\":20184:20186   */\n      0x20\n        /* \"#utility.yul\":20173:20182   */\n      dup3\n        /* \"#utility.yul\":20169:20187   */\n      add\n        /* \"#utility.yul\":20161:20187   */\n      swap1\n      pop\n        /* \"#utility.yul\":20233:20242   */\n      dup2\n        /* \"#utility.yul\":20227:20231   */\n      dup2\n        /* \"#utility.yul\":20223:20243   */\n      sub\n        /* \"#utility.yul\":20219:20220   */\n      0x00\n        /* \"#utility.yul\":20208:20217   */\n      dup4\n        /* \"#utility.yul\":20204:20221   */\n      add\n        /* \"#utility.yul\":20197:20244   */\n      mstore\n        /* \"#utility.yul\":20261:20392   */\n      tag_351\n        /* \"#utility.yul\":20387:20391   */\n      dup2\n        /* \"#utility.yul\":20261:20392   */\n      tag_189\n      jump\t// in\n    tag_351:\n        /* \"#utility.yul\":20253:20392   */\n      swap1\n      pop\n        /* \"#utility.yul\":19980:20399   */\n      swap2\n      swap1\n      pop\n      jump\t// out\n\n    auxdata: 0xa26469706673582212209bee417ba086b22477bfa1a8db0371eeb95a1e8dce84555b16342e7a5f81200164736f6c634300081c0033\n}\n",
				"bytecode": {
					"linkReferences": {},
					"object": "6080604052604051611dec380380611dec8339818101604052810190610025919061042c565b3360035f6101000a81548173ffffffffffffffffffffffffffffffffffffffff021916908373ffffffffffffffffffffffffffffffffffffffff160217905550815f908051906020019061007a92919061019c565b50806001819055505f5f90505b8251811015610194575f73ffffffffffffffffffffffffffffffffffffffff168382815181106100ba576100b9610486565b5b602002602001015173ffffffffffffffffffffffffffffffffffffffff1603610118576040517f08c379a000000000000000000000000000000000000000000000000000000000815260040161010f9061050d565b60405180910390fd5b600160085f8584815181106101305761012f610486565b5b602002602001015173ffffffffffffffffffffffffffffffffffffffff1673ffffffffffffffffffffffffffffffffffffffff1681526020019081526020015f205f6101000a81548160ff0219169083151502179055508080600101915050610087565b50505061052b565b828054828255905f5260205f20908101928215610212579160200282015b82811115610211578251825f6101000a81548173ffffffffffffffffffffffffffffffffffffffff021916908373ffffffffffffffffffffffffffffffffffffffff160217905550916020019190600101906101ba565b5b50905061021f9190610223565b5090565b5b8082111561023a575f815f905550600101610224565b5090565b5f604051905090565b5f5ffd5b5f5ffd5b5f5ffd5b5f601f19601f8301169050919050565b7f4e487b71000000000000000000000000000000000000000000000000000000005f52604160045260245ffd5b61029982610253565b810181811067ffffffffffffffff821117156102b8576102b7610263565b5b80604052505050565b5f6102ca61023e565b90506102d68282610290565b919050565b5f67ffffffffffffffff8211156102f5576102f4610263565b5b602082029050602081019050919050565b5f5ffd5b5f73ffffffffffffffffffffffffffffffffffffffff82169050919050565b5f6103338261030a565b9050919050565b61034381610329565b811461034d575f5ffd5b50565b5f8151905061035e8161033a565b92915050565b5f610376610371846102db565b6102c1565b9050808382526020820190506020840283018581111561039957610398610306565b5b835b818110156103c257806103ae8882610350565b84526020840193505060208101905061039b565b5050509392505050565b5f82601f8301126103e0576103df61024f565b5b81516103f0848260208601610364565b91505092915050565b5f819050919050565b61040b816103f9565b8114610415575f5ffd5b50565b5f8151905061042681610402565b92915050565b5f5f6040838503121561044257610441610247565b5b5f83015167ffffffffffffffff81111561045f5761045e61024b565b5b61046b858286016103cc565b925050602061047c85828601610418565b9150509250929050565b7f4e487b71000000000000000000000000000000000000000000000000000000005f52603260045260245ffd5b5f82825260208201905092915050565b7f476574206f7574000000000000000000000000000000000000000000000000005f82015250565b5f6104f76007836104b3565b9150610502826104c3565b602082019050919050565b5f6020820190508181035f830152610524816104eb565b9050919050565b6118b4806105385f395ff3fe60806040526004361061007e575f3560e01c8063add6415d1161004d578063add6415d14610123578063de8ee8171461014d578063e42bb8aa14610175578063f2fde38b1461019d5761007f565b80632079fb9a14610081578063242232d1146100bd5780634e71e0c8146100e55780634efd24de146100fb5761007f565b5b005b34801561008c575f5ffd5b506100a760048036038101906100a29190610fae565b6101c5565b6040516100b49190611018565b60405180910390f35b3480156100c8575f5ffd5b506100e360048036038101906100de9190610fae565b6101ff565b005b3480156100f0575f5ffd5b506100f961055d565b005b348015610106575f5ffd5b50610121600480360381019061011c919061106a565b61066e565b005b34801561012e575f5ffd5b50610137610845565b60405161014491906111ee565b60405180910390f35b348015610158575f5ffd5b50610173600480360381019061016e9190611238565b610983565b005b348015610180575f5ffd5b5061019b60048036038101906101969190611263565b610acc565b005b3480156101a8575f5ffd5b506101c360048036038101906101be9190611238565b610e16565b005b5f81815481106101d3575f80fd5b905f5260205f20015f915054906101000a900473ffffffffffffffffffffffffffffffffffffffff1681565b600254811115610244576040517f08c379a000000000000000000000000000000000000000000000000000000000815260040161023b906112fb565b60405180910390fd5b5f73ffffffffffffffffffffffffffffffffffffffff163373ffffffffffffffffffffffffffffffffffffffff16036102b2576040517f08c379a00000000000000000000000000000000000000000000000000000000081526004016102a990611363565b60405180910390fd5b6102ba610e61565b60065f8281526020019081526020015f205f3373ffffffffffffffffffffffffffffffffffffffff1673ffffffffffffffffffffffffffffffffffffffff1681526020019081526020015f205f9054906101000a900460ff1615610353576040517f08c379a000000000000000000000000000000000000000000000000000000000815260040161034a906113cb565b60405180910390fd5b5f60075f8381526020019081526020015f20905080600101544710156103ae576040517f08c379a00000000000000000000000000000000000000000000000000000000081526004016103a590611433565b60405180910390fd5b806004015f9054906101000a900460ff16156103ff576040517f08c379a00000000000000000000000000000000000000000000000000000000081526004016103f69061149b565b60405180910390fd5b600154816003015410610447576040517f08c379a000000000000000000000000000000000000000000000000000000000815260040161043e90611503565b60405180910390fd5b60018160030154610458919061154e565b8160030181905550600160065f8481526020019081526020015f205f3373ffffffffffffffffffffffffffffffffffffffff1673ffffffffffffffffffffffffffffffffffffffff1681526020019081526020015f205f6101000a81548160ff021916908315150217905550600154816003015403610559576001816004015f6101000a81548160ff021916908315150217905550806002015f9054906101000a900473ffffffffffffffffffffffffffffffffffffffff1673ffffffffffffffffffffffffffffffffffffffff166108fc826001015490811502906040515f60405180830381858888f19350505050158015610557573d5f5f3e3d5ffd5b505b5050565b60045f9054906101000a900473ffffffffffffffffffffffffffffffffffffffff1673ffffffffffffffffffffffffffffffffffffffff163373ffffffffffffffffffffffffffffffffffffffff16146105ec576040517f08c379a00000000000000000000000000000000000000000000000000000000081526004016105e3906115cb565b60405180910390fd5b3360035f6101000a81548173ffffffffffffffffffffffffffffffffffffffff021916908373ffffffffffffffffffffffffffffffffffffffff1602179055505f60045f6101000a81548173ffffffffffffffffffffffffffffffffffffffff021916908373ffffffffffffffffffffffffffffffffffffffff160217905550565b610676610eec565b5f805490508163ffffffff16106106c2576040517f08c379a00000000000000000000000000000000000000000000000000000000081526004016106b990611633565b60405180910390fd5b5f60015f805490506106d49190611651565b815481106106e5576106e4611684565b5b905f5260205f20015f9054906101000a900473ffffffffffffffffffffffffffffffffffffffff165f8263ffffffff168154811061072657610725611684565b5b905f5260205f20015f6101000a81548173ffffffffffffffffffffffffffffffffffffffff021916908373ffffffffffffffffffffffffffffffffffffffff1602179055505f60085f5f8463ffffffff168154811061078857610787611684565b5b905f5260205f20015f9054906101000a900473ffffffffffffffffffffffffffffffffffffffff1673ffffffffffffffffffffffffffffffffffffffff1673ffffffffffffffffffffffffffffffffffffffff1681526020019081526020015f205f6101000a81548160ff0219169083151502179055505f8054806108105761080f6116b1565b5b600190038181905f5260205f20015f6101000a81549073ffffffffffffffffffffffffffffffffffffffff0219169055905550565b60606005805480602002602001604051908101604052809291908181526020015f905b8282101561097a578382905f5260205f2090600502016040518060c00160405290815f820154815260200160018201548152602001600282015f9054906101000a900473ffffffffffffffffffffffffffffffffffffffff1673ffffffffffffffffffffffffffffffffffffffff1673ffffffffffffffffffffffffffffffffffffffff16815260200160038201548152602001600482015f9054906101000a900460ff161515151581526020016004820160019054906101000a900473ffffffffffffffffffffffffffffffffffffffff1673ffffffffffffffffffffffffffffffffffffffff1673ffffffffffffffffffffffffffffffffffffffff168152505081526020019060010190610868565b50505050905090565b61098b610eec565b60085f8273ffffffffffffffffffffffffffffffffffffffff1673ffffffffffffffffffffffffffffffffffffffff1681526020019081526020015f205f9054906101000a900460ff1615610a15576040517f08c379a0000000000000000000000000000000000000000000000000000000008152600401610a0c90611728565b60405180910390fd5b600160085f8373ffffffffffffffffffffffffffffffffffffffff1673ffffffffffffffffffffffffffffffffffffffff1681526020019081526020015f205f6101000a81548160ff0219169083151502179055505f81908060018154018082558091505060019003905f5260205f20015f9091909190916101000a81548173ffffffffffffffffffffffffffffffffffffffff021916908373ffffffffffffffffffffffffffffffffffffffff16021790555050565b5f73ffffffffffffffffffffffffffffffffffffffff163373ffffffffffffffffffffffffffffffffffffffff1603610b3a576040517f08c379a0000000000000000000000000000000000000000000000000000000008152600401610b3190611790565b60405180910390fd5b5f8211610b7c576040517f08c379a0000000000000000000000000000000000000000000000000000000008152600401610b73906117f8565b60405180910390fd5b610b84610e61565b5f6001600254610b94919061154e565b90505f60075f8381526020019081526020015f20905081815f018190555083816001018190555082816002015f6101000a81548173ffffffffffffffffffffffffffffffffffffffff021916908373ffffffffffffffffffffffffffffffffffffffff16021790555060018160030154610c0e919061154e565b8160030181905550338160040160016101000a81548173ffffffffffffffffffffffffffffffffffffffff021916908373ffffffffffffffffffffffffffffffffffffffff160217905550600581908060018154018082558091505060019003905f5260205f2090600502015f909190919091505f820154815f015560018201548160010155600282015f9054906101000a900473ffffffffffffffffffffffffffffffffffffffff16816002015f6101000a81548173ffffffffffffffffffffffffffffffffffffffff021916908373ffffffffffffffffffffffffffffffffffffffff16021790555060038201548160030155600482015f9054906101000a900460ff16816004015f6101000a81548160ff0219169083151502179055506004820160019054906101000a900473ffffffffffffffffffffffffffffffffffffffff168160040160016101000a81548173ffffffffffffffffffffffffffffffffffffffff021916908373ffffffffffffffffffffffffffffffffffffffff1602179055505050600160065f8481526020019081526020015f205f3373ffffffffffffffffffffffffffffffffffffffff1673ffffffffffffffffffffffffffffffffffffffff1681526020019081526020015f205f6101000a81548160ff0219169083151502179055506001600254610e0a919061154e565b60028190555050505050565b610e1e610eec565b8060045f6101000a81548173ffffffffffffffffffffffffffffffffffffffff021916908373ffffffffffffffffffffffffffffffffffffffff16021790555050565b60085f3373ffffffffffffffffffffffffffffffffffffffff1673ffffffffffffffffffffffffffffffffffffffff1681526020019081526020015f205f9054906101000a900460ff16610eea576040517f08c379a0000000000000000000000000000000000000000000000000000000008152600401610ee190611860565b60405180910390fd5b565b60085f3373ffffffffffffffffffffffffffffffffffffffff1673ffffffffffffffffffffffffffffffffffffffff1681526020019081526020015f205f9054906101000a900460ff16610f75576040517f08c379a0000000000000000000000000000000000000000000000000000000008152600401610f6c90611860565b60405180910390fd5b565b5f5ffd5b5f819050919050565b610f8d81610f7b565b8114610f97575f5ffd5b50565b5f81359050610fa881610f84565b92915050565b5f60208284031215610fc357610fc2610f77565b5b5f610fd084828501610f9a565b91505092915050565b5f73ffffffffffffffffffffffffffffffffffffffff82169050919050565b5f61100282610fd9565b9050919050565b61101281610ff8565b82525050565b5f60208201905061102b5f830184611009565b92915050565b5f63ffffffff82169050919050565b61104981611031565b8114611053575f5ffd5b50565b5f8135905061106481611040565b92915050565b5f6020828403121561107f5761107e610f77565b5b5f61108c84828501611056565b91505092915050565b5f81519050919050565b5f82825260208201905092915050565b5f819050602082019050919050565b6110c781610f7b565b82525050565b6110d681610ff8565b82525050565b5f8115159050919050565b6110f0816110dc565b82525050565b60c082015f82015161110a5f8501826110be565b50602082015161111d60208501826110be565b50604082015161113060408501826110cd565b50606082015161114360608501826110be565b50608082015161115660808501826110e7565b5060a082015161116960a08501826110cd565b50505050565b5f61117a83836110f6565b60c08301905092915050565b5f602082019050919050565b5f61119c82611095565b6111a6818561109f565b93506111b1836110af565b805f5b838110156111e15781516111c8888261116f565b97506111d383611186565b9250506001810190506111b4565b5085935050505092915050565b5f6020820190508181035f8301526112068184611192565b905092915050565b61121781610ff8565b8114611221575f5ffd5b50565b5f813590506112328161120e565b92915050565b5f6020828403121561124d5761124c610f77565b5b5f61125a84828501611224565b91505092915050565b5f5f6040838503121561127957611278610f77565b5b5f61128685828601610f9a565b925050602061129785828601611224565b9150509250929050565b5f82825260208201905092915050565b7f496e76616c6964207472616e73616374696f6e206964000000000000000000005f82015250565b5f6112e56016836112a1565b91506112f0826112b1565b602082019050919050565b5f6020820190508181035f830152611312816112d9565b9050919050565b7f5a65726f206164647265737320646574656374656400000000000000000000005f82015250565b5f61134d6015836112a1565b915061135882611319565b602082019050919050565b5f6020820190508181035f83015261137a81611341565b9050919050565b7f43616e2774207369676e207477696365000000000000000000000000000000005f82015250565b5f6113b56010836112a1565b91506113c082611381565b602082019050919050565b5f6020820190508181035f8301526113e2816113a9565b9050919050565b7f496e73756666696369656e7420636f6e74726163742062616c616e63650000005f82015250565b5f61141d601d836112a1565b9150611428826113e9565b602082019050919050565b5f6020820190508181035f83015261144a81611411565b9050919050565b7f7472616e73616374696f6e20616c7265616479206578656375746564000000005f82015250565b5f611485601c836112a1565b915061149082611451565b602082019050919050565b5f6020820190508181035f8301526114b281611479565b9050919050565b7f51756f72756d20636f756e7420726561636865640000000000000000000000005f82015250565b5f6114ed6014836112a1565b91506114f8826114b9565b602082019050919050565b5f6020820190508181035f83015261151a816114e1565b9050919050565b7f4e487b71000000000000000000000000000000000000000000000000000000005f52601160045260245ffd5b5f61155882610f7b565b915061156383610f7b565b925082820190508082111561157b5761157a611521565b5b92915050565b7f4e6f74206e657874206f776e65720000000000000000000000000000000000005f82015250565b5f6115b5600e836112a1565b91506115c082611581565b602082019050919050565b5f6020820190508181035f8301526115e2816115a9565b9050919050565b7f496e76616c696420696e646578000000000000000000000000000000000000005f82015250565b5f61161d600d836112a1565b9150611628826115e9565b602082019050919050565b5f6020820190508181035f83015261164a81611611565b9050919050565b5f61165b82610f7b565b915061166683610f7b565b925082820390508181111561167e5761167d611521565b5b92915050565b7f4e487b71000000000000000000000000000000000000000000000000000000005f52603260045260245ffd5b7f4e487b71000000000000000000000000000000000000000000000000000000005f52603160045260245ffd5b7f5369676e657220616c72656164792065786973740000000000000000000000005f82015250565b5f6117126014836112a1565b915061171d826116de565b602082019050919050565b5f6020820190508181035f83015261173f81611706565b9050919050565b7f5a65726f2061646472657373206e6f7420616c6c6f77656400000000000000005f82015250565b5f61177a6018836112a1565b915061178582611746565b602082019050919050565b5f6020820190508181035f8301526117a78161176e565b9050919050565b7f5a65726f2076616c7565206e6f7420616c6c6f776564000000000000000000005f82015250565b5f6117e26016836112a1565b91506117ed826117ae565b602082019050919050565b5f6020820190508181035f83015261180f816117d6565b9050919050565b7f4e6f742076616c6964207369676e6572000000000000000000000000000000005f82015250565b5f61184a6010836112a1565b915061185582611816565b602082019050919050565b5f6020820190508181035f8301526118778161183e565b905091905056fea26469706673582212209bee417ba086b22477bfa1a8db0371eeb95a1e8dce84555b16342e7a5f81200164736f6c634300081c0033",
					"opcodes": "PUSH1 0x80 PUSH1 0x40 MSTORE PUSH1 0x40 MLOAD PUSH2 0x1DEC CODESIZE SUB DUP1 PUSH2 0x1DEC DUP4 CODECOPY DUP2 DUP2 ADD PUSH1 0x40 MSTORE DUP2 ADD SWAP1 PUSH2 0x25 SWAP2 SWAP1 PUSH2 0x42C JUMP JUMPDEST CALLER PUSH1 0x3 PUSH0 PUSH2 0x100 EXP DUP2 SLOAD DUP2 PUSH20 0xFFFFFFFFFFFFFFFFFFFFFFFFFFFFFFFFFFFFFFFF MUL NOT AND SWAP1 DUP4 PUSH20 0xFFFFFFFFFFFFFFFFFFFFFFFFFFFFFFFFFFFFFFFF AND MUL OR SWAP1 SSTORE POP DUP2 PUSH0 SWAP1 DUP1 MLOAD SWAP1 PUSH1 0x20 ADD SWAP1 PUSH2 0x7A SWAP3 SWAP2 SWAP1 PUSH2 0x19C JUMP JUMPDEST POP DUP1 PUSH1 0x1 DUP2 SWAP1 SSTORE POP PUSH0 PUSH0 SWAP1 POP JUMPDEST DUP3 MLOAD DUP2 LT ISZERO PUSH2 0x194 JUMPI PUSH0 PUSH20 0xFFFFFFFFFFFFFFFFFFFFFFFFFFFFFFFFFFFFFFFF AND DUP4 DUP3 DUP2 MLOAD DUP2 LT PUSH2 0xBA JUMPI PUSH2 0xB9 PUSH2 0x486 JUMP JUMPDEST JUMPDEST PUSH1 0x20 MUL PUSH1 0x20 ADD ADD MLOAD PUSH20 0xFFFFFFFFFFFFFFFFFFFFFFFFFFFFFFFFFFFFFFFF AND SUB PUSH2 0x118 JUMPI PUSH1 0x40 MLOAD PUSH32 0x8C379A000000000000000000000000000000000000000000000000000000000 DUP2 MSTORE PUSH1 0x4 ADD PUSH2 0x10F SWAP1 PUSH2 0x50D JUMP JUMPDEST PUSH1 0x40 MLOAD DUP1 SWAP2 SUB SWAP1 REVERT JUMPDEST PUSH1 0x1 PUSH1 0x8 PUSH0 DUP6 DUP5 DUP2 MLOAD DUP2 LT PUSH2 0x130 JUMPI PUSH2 0x12F PUSH2 0x486 JUMP JUMPDEST JUMPDEST PUSH1 0x20 MUL PUSH1 0x20 ADD ADD MLOAD PUSH20 0xFFFFFFFFFFFFFFFFFFFFFFFFFFFFFFFFFFFFFFFF AND PUSH20 0xFFFFFFFFFFFFFFFFFFFFFFFFFFFFFFFFFFFFFFFF AND DUP2 MSTORE PUSH1 0x20 ADD SWAP1 DUP2 MSTORE PUSH1 0x20 ADD PUSH0 KECCAK256 PUSH0 PUSH2 0x100 EXP DUP2 SLOAD DUP2 PUSH1 0xFF MUL NOT AND SWAP1 DUP4 ISZERO ISZERO MUL OR SWAP1 SSTORE POP DUP1 DUP1 PUSH1 0x1 ADD SWAP2 POP POP PUSH2 0x87 JUMP JUMPDEST POP POP POP PUSH2 0x52B JUMP JUMPDEST DUP3 DUP1 SLOAD DUP3 DUP3 SSTORE SWAP1 PUSH0 MSTORE PUSH1 0x20 PUSH0 KECCAK256 SWAP1 DUP2 ADD SWAP3 DUP3 ISZERO PUSH2 0x212 JUMPI SWAP2 PUSH1 0x20 MUL DUP3 ADD JUMPDEST DUP3 DUP2 GT ISZERO PUSH2 0x211 JUMPI DUP3 MLOAD DUP3 PUSH0 PUSH2 0x100 EXP DUP2 SLOAD DUP2 PUSH20 0xFFFFFFFFFFFFFFFFFFFFFFFFFFFFFFFFFFFFFFFF MUL NOT AND SWAP1 DUP4 PUSH20 0xFFFFFFFFFFFFFFFFFFFFFFFFFFFFFFFFFFFFFFFF AND MUL OR SWAP1 SSTORE POP SWAP2 PUSH1 0x20 ADD SWAP2 SWAP1 PUSH1 0x1 ADD SWAP1 PUSH2 0x1BA JUMP JUMPDEST JUMPDEST POP SWAP1 POP PUSH2 0x21F SWAP2 SWAP1 PUSH2 0x223 JUMP JUMPDEST POP SWAP1 JUMP JUMPDEST JUMPDEST DUP1 DUP3 GT ISZERO PUSH2 0x23A JUMPI PUSH0 DUP2 PUSH0 SWAP1 SSTORE POP PUSH1 0x1 ADD PUSH2 0x224 JUMP JUMPDEST POP SWAP1 JUMP JUMPDEST PUSH0 PUSH1 0x40 MLOAD SWAP1 POP SWAP1 JUMP JUMPDEST PUSH0 PUSH0 REVERT JUMPDEST PUSH0 PUSH0 REVERT JUMPDEST PUSH0 PUSH0 REVERT JUMPDEST PUSH0 PUSH1 0x1F NOT PUSH1 0x1F DUP4 ADD AND SWAP1 POP SWAP2 SWAP1 POP JUMP JUMPDEST PUSH32 0x4E487B7100000000000000000000000000000000000000000000000000000000 PUSH0 MSTORE PUSH1 0x41 PUSH1 0x4 MSTORE PUSH1 0x24 PUSH0 REVERT JUMPDEST PUSH2 0x299 DUP3 PUSH2 0x253 JUMP JUMPDEST DUP2 ADD DUP2 DUP2 LT PUSH8 0xFFFFFFFFFFFFFFFF DUP3 GT OR ISZERO PUSH2 0x2B8 JUMPI PUSH2 0x2B7 PUSH2 0x263 JUMP JUMPDEST JUMPDEST DUP1 PUSH1 0x40 MSTORE POP POP POP JUMP JUMPDEST PUSH0 PUSH2 0x2CA PUSH2 0x23E JUMP JUMPDEST SWAP1 POP PUSH2 0x2D6 DUP3 DUP3 PUSH2 0x290 JUMP JUMPDEST SWAP2 SWAP1 POP JUMP JUMPDEST PUSH0 PUSH8 0xFFFFFFFFFFFFFFFF DUP3 GT ISZERO PUSH2 0x2F5 JUMPI PUSH2 0x2F4 PUSH2 0x263 JUMP JUMPDEST JUMPDEST PUSH1 0x20 DUP3 MUL SWAP1 POP PUSH1 0x20 DUP2 ADD SWAP1 POP SWAP2 SWAP1 POP JUMP JUMPDEST PUSH0 PUSH0 REVERT JUMPDEST PUSH0 PUSH20 0xFFFFFFFFFFFFFFFFFFFFFFFFFFFFFFFFFFFFFFFF DUP3 AND SWAP1 POP SWAP2 SWAP1 POP JUMP JUMPDEST PUSH0 PUSH2 0x333 DUP3 PUSH2 0x30A JUMP JUMPDEST SWAP1 POP SWAP2 SWAP1 POP JUMP JUMPDEST PUSH2 0x343 DUP2 PUSH2 0x329 JUMP JUMPDEST DUP2 EQ PUSH2 0x34D JUMPI PUSH0 PUSH0 REVERT JUMPDEST POP JUMP JUMPDEST PUSH0 DUP2 MLOAD SWAP1 POP PUSH2 0x35E DUP2 PUSH2 0x33A JUMP JUMPDEST SWAP3 SWAP2 POP POP JUMP JUMPDEST PUSH0 PUSH2 0x376 PUSH2 0x371 DUP5 PUSH2 0x2DB JUMP JUMPDEST PUSH2 0x2C1 JUMP JUMPDEST SWAP1 POP DUP1 DUP4 DUP3 MSTORE PUSH1 0x20 DUP3 ADD SWAP1 POP PUSH1 0x20 DUP5 MUL DUP4 ADD DUP6 DUP2 GT ISZERO PUSH2 0x399 JUMPI PUSH2 0x398 PUSH2 0x306 JUMP JUMPDEST JUMPDEST DUP4 JUMPDEST DUP2 DUP2 LT ISZERO PUSH2 0x3C2 JUMPI DUP1 PUSH2 0x3AE DUP9 DUP3 PUSH2 0x350 JUMP JUMPDEST DUP5 MSTORE PUSH1 0x20 DUP5 ADD SWAP4 POP POP PUSH1 0x20 DUP2 ADD SWAP1 POP PUSH2 0x39B JUMP JUMPDEST POP POP POP SWAP4 SWAP3 POP POP POP JUMP JUMPDEST PUSH0 DUP3 PUSH1 0x1F DUP4 ADD SLT PUSH2 0x3E0 JUMPI PUSH2 0x3DF PUSH2 0x24F JUMP JUMPDEST JUMPDEST DUP2 MLOAD PUSH2 0x3F0 DUP5 DUP3 PUSH1 0x20 DUP7 ADD PUSH2 0x364 JUMP JUMPDEST SWAP2 POP POP SWAP3 SWAP2 POP POP JUMP JUMPDEST PUSH0 DUP2 SWAP1 POP SWAP2 SWAP1 POP JUMP JUMPDEST PUSH2 0x40B DUP2 PUSH2 0x3F9 JUMP JUMPDEST DUP2 EQ PUSH2 0x415 JUMPI PUSH0 PUSH0 REVERT JUMPDEST POP JUMP JUMPDEST PUSH0 DUP2 MLOAD SWAP1 POP PUSH2 0x426 DUP2 PUSH2 0x402 JUMP JUMPDEST SWAP3 SWAP2 POP POP JUMP JUMPDEST PUSH0 PUSH0 PUSH1 0x40 DUP4 DUP6 SUB SLT ISZERO PUSH2 0x442 JUMPI PUSH2 0x441 PUSH2 0x247 JUMP JUMPDEST JUMPDEST PUSH0 DUP4 ADD MLOAD PUSH8 0xFFFFFFFFFFFFFFFF DUP2 GT ISZERO PUSH2 0x45F JUMPI PUSH2 0x45E PUSH2 0x24B JUMP JUMPDEST JUMPDEST PUSH2 0x46B DUP6 DUP3 DUP7 ADD PUSH2 0x3CC JUMP JUMPDEST SWAP3 POP POP PUSH1 0x20 PUSH2 0x47C DUP6 DUP3 DUP7 ADD PUSH2 0x418 JUMP JUMPDEST SWAP2 POP POP SWAP3 POP SWAP3 SWAP1 POP JUMP JUMPDEST PUSH32 0x4E487B7100000000000000000000000000000000000000000000000000000000 PUSH0 MSTORE PUSH1 0x32 PUSH1 0x4 MSTORE PUSH1 0x24 PUSH0 REVERT JUMPDEST PUSH0 DUP3 DUP3 MSTORE PUSH1 0x20 DUP3 ADD SWAP1 POP SWAP3 SWAP2 POP POP JUMP JUMPDEST PUSH32 0x476574206F757400000000000000000000000000000000000000000000000000 PUSH0 DUP3 ADD MSTORE POP JUMP JUMPDEST PUSH0 PUSH2 0x4F7 PUSH1 0x7 DUP4 PUSH2 0x4B3 JUMP JUMPDEST SWAP2 POP PUSH2 0x502 DUP3 PUSH2 0x4C3 JUMP JUMPDEST PUSH1 0x20 DUP3 ADD SWAP1 POP SWAP2 SWAP1 POP JUMP JUMPDEST PUSH0 PUSH1 0x20 DUP3 ADD SWAP1 POP DUP2 DUP2 SUB PUSH0 DUP4 ADD MSTORE PUSH2 0x524 DUP2 PUSH2 0x4EB JUMP JUMPDEST SWAP1 POP SWAP2 SWAP1 POP JUMP JUMPDEST PUSH2 0x18B4 DUP1 PUSH2 0x538 PUSH0 CODECOPY PUSH0 RETURN INVALID PUSH1 0x80 PUSH1 0x40 MSTORE PUSH1 0x4 CALLDATASIZE LT PUSH2 0x7E JUMPI PUSH0 CALLDATALOAD PUSH1 0xE0 SHR DUP1 PUSH4 0xADD6415D GT PUSH2 0x4D JUMPI DUP1 PUSH4 0xADD6415D EQ PUSH2 0x123 JUMPI DUP1 PUSH4 0xDE8EE817 EQ PUSH2 0x14D JUMPI DUP1 PUSH4 0xE42BB8AA EQ PUSH2 0x175 JUMPI DUP1 PUSH4 0xF2FDE38B EQ PUSH2 0x19D JUMPI PUSH2 0x7F JUMP JUMPDEST DUP1 PUSH4 0x2079FB9A EQ PUSH2 0x81 JUMPI DUP1 PUSH4 0x242232D1 EQ PUSH2 0xBD JUMPI DUP1 PUSH4 0x4E71E0C8 EQ PUSH2 0xE5 JUMPI DUP1 PUSH4 0x4EFD24DE EQ PUSH2 0xFB JUMPI PUSH2 0x7F JUMP JUMPDEST JUMPDEST STOP JUMPDEST CALLVALUE DUP1 ISZERO PUSH2 0x8C JUMPI PUSH0 PUSH0 REVERT JUMPDEST POP PUSH2 0xA7 PUSH1 0x4 DUP1 CALLDATASIZE SUB DUP2 ADD SWAP1 PUSH2 0xA2 SWAP2 SWAP1 PUSH2 0xFAE JUMP JUMPDEST PUSH2 0x1C5 JUMP JUMPDEST PUSH1 0x40 MLOAD PUSH2 0xB4 SWAP2 SWAP1 PUSH2 0x1018 JUMP JUMPDEST PUSH1 0x40 MLOAD DUP1 SWAP2 SUB SWAP1 RETURN JUMPDEST CALLVALUE DUP1 ISZERO PUSH2 0xC8 JUMPI PUSH0 PUSH0 REVERT JUMPDEST POP PUSH2 0xE3 PUSH1 0x4 DUP1 CALLDATASIZE SUB DUP2 ADD SWAP1 PUSH2 0xDE SWAP2 SWAP1 PUSH2 0xFAE JUMP JUMPDEST PUSH2 0x1FF JUMP JUMPDEST STOP JUMPDEST CALLVALUE DUP1 ISZERO PUSH2 0xF0 JUMPI PUSH0 PUSH0 REVERT JUMPDEST POP PUSH2 0xF9 PUSH2 0x55D JUMP JUMPDEST STOP JUMPDEST CALLVALUE DUP1 ISZERO PUSH2 0x106 JUMPI PUSH0 PUSH0 REVERT JUMPDEST POP PUSH2 0x121 PUSH1 0x4 DUP1 CALLDATASIZE SUB DUP2 ADD SWAP1 PUSH2 0x11C SWAP2 SWAP1 PUSH2 0x106A JUMP JUMPDEST PUSH2 0x66E JUMP JUMPDEST STOP JUMPDEST CALLVALUE DUP1 ISZERO PUSH2 0x12E JUMPI PUSH0 PUSH0 REVERT JUMPDEST POP PUSH2 0x137 PUSH2 0x845 JUMP JUMPDEST PUSH1 0x40 MLOAD PUSH2 0x144 SWAP2 SWAP1 PUSH2 0x11EE JUMP JUMPDEST PUSH1 0x40 MLOAD DUP1 SWAP2 SUB SWAP1 RETURN JUMPDEST CALLVALUE DUP1 ISZERO PUSH2 0x158 JUMPI PUSH0 PUSH0 REVERT JUMPDEST POP PUSH2 0x173 PUSH1 0x4 DUP1 CALLDATASIZE SUB DUP2 ADD SWAP1 PUSH2 0x16E SWAP2 SWAP1 PUSH2 0x1238 JUMP JUMPDEST PUSH2 0x983 JUMP JUMPDEST STOP JUMPDEST CALLVALUE DUP1 ISZERO PUSH2 0x180 JUMPI PUSH0 PUSH0 REVERT JUMPDEST POP PUSH2 0x19B PUSH1 0x4 DUP1 CALLDATASIZE SUB DUP2 ADD SWAP1 PUSH2 0x196 SWAP2 SWAP1 PUSH2 0x1263 JUMP JUMPDEST PUSH2 0xACC JUMP JUMPDEST STOP JUMPDEST CALLVALUE DUP1 ISZERO PUSH2 0x1A8 JUMPI PUSH0 PUSH0 REVERT JUMPDEST POP PUSH2 0x1C3 PUSH1 0x4 DUP1 CALLDATASIZE SUB DUP2 ADD SWAP1 PUSH2 0x1BE SWAP2 SWAP1 PUSH2 0x1238 JUMP JUMPDEST PUSH2 0xE16 JUMP JUMPDEST STOP JUMPDEST PUSH0 DUP2 DUP2 SLOAD DUP2 LT PUSH2 0x1D3 JUMPI PUSH0 DUP1 REVERT JUMPDEST SWAP1 PUSH0 MSTORE PUSH1 0x20 PUSH0 KECCAK256 ADD PUSH0 SWAP2 POP SLOAD SWAP1 PUSH2 0x100 EXP SWAP1 DIV PUSH20 0xFFFFFFFFFFFFFFFFFFFFFFFFFFFFFFFFFFFFFFFF AND DUP2 JUMP JUMPDEST PUSH1 0x2 SLOAD DUP2 GT ISZERO PUSH2 0x244 JUMPI PUSH1 0x40 MLOAD PUSH32 0x8C379A000000000000000000000000000000000000000000000000000000000 DUP2 MSTORE PUSH1 0x4 ADD PUSH2 0x23B SWAP1 PUSH2 0x12FB JUMP JUMPDEST PUSH1 0x40 MLOAD DUP1 SWAP2 SUB SWAP1 REVERT JUMPDEST PUSH0 PUSH20 0xFFFFFFFFFFFFFFFFFFFFFFFFFFFFFFFFFFFFFFFF AND CALLER PUSH20 0xFFFFFFFFFFFFFFFFFFFFFFFFFFFFFFFFFFFFFFFF AND SUB PUSH2 0x2B2 JUMPI PUSH1 0x40 MLOAD PUSH32 0x8C379A000000000000000000000000000000000000000000000000000000000 DUP2 MSTORE PUSH1 0x4 ADD PUSH2 0x2A9 SWAP1 PUSH2 0x1363 JUMP JUMPDEST PUSH1 0x40 MLOAD DUP1 SWAP2 SUB SWAP1 REVERT JUMPDEST PUSH2 0x2BA PUSH2 0xE61 JUMP JUMPDEST PUSH1 0x6 PUSH0 DUP3 DUP2 MSTORE PUSH1 0x20 ADD SWAP1 DUP2 MSTORE PUSH1 0x20 ADD PUSH0 KECCAK256 PUSH0 CALLER PUSH20 0xFFFFFFFFFFFFFFFFFFFFFFFFFFFFFFFFFFFFFFFF AND PUSH20 0xFFFFFFFFFFFFFFFFFFFFFFFFFFFFFFFFFFFFFFFF AND DUP2 MSTORE PUSH1 0x20 ADD SWAP1 DUP2 MSTORE PUSH1 0x20 ADD PUSH0 KECCAK256 PUSH0 SWAP1 SLOAD SWAP1 PUSH2 0x100 EXP SWAP1 DIV PUSH1 0xFF AND ISZERO PUSH2 0x353 JUMPI PUSH1 0x40 MLOAD PUSH32 0x8C379A000000000000000000000000000000000000000000000000000000000 DUP2 MSTORE PUSH1 0x4 ADD PUSH2 0x34A SWAP1 PUSH2 0x13CB JUMP JUMPDEST PUSH1 0x40 MLOAD DUP1 SWAP2 SUB SWAP1 REVERT JUMPDEST PUSH0 PUSH1 0x7 PUSH0 DUP4 DUP2 MSTORE PUSH1 0x20 ADD SWAP1 DUP2 MSTORE PUSH1 0x20 ADD PUSH0 KECCAK256 SWAP1 POP DUP1 PUSH1 0x1 ADD SLOAD SELFBALANCE LT ISZERO PUSH2 0x3AE JUMPI PUSH1 0x40 MLOAD PUSH32 0x8C379A000000000000000000000000000000000000000000000000000000000 DUP2 MSTORE PUSH1 0x4 ADD PUSH2 0x3A5 SWAP1 PUSH2 0x1433 JUMP JUMPDEST PUSH1 0x40 MLOAD DUP1 SWAP2 SUB SWAP1 REVERT JUMPDEST DUP1 PUSH1 0x4 ADD PUSH0 SWAP1 SLOAD SWAP1 PUSH2 0x100 EXP SWAP1 DIV PUSH1 0xFF AND ISZERO PUSH2 0x3FF JUMPI PUSH1 0x40 MLOAD PUSH32 0x8C379A000000000000000000000000000000000000000000000000000000000 DUP2 MSTORE PUSH1 0x4 ADD PUSH2 0x3F6 SWAP1 PUSH2 0x149B JUMP JUMPDEST PUSH1 0x40 MLOAD DUP1 SWAP2 SUB SWAP1 REVERT JUMPDEST PUSH1 0x1 SLOAD DUP2 PUSH1 0x3 ADD SLOAD LT PUSH2 0x447 JUMPI PUSH1 0x40 MLOAD PUSH32 0x8C379A000000000000000000000000000000000000000000000000000000000 DUP2 MSTORE PUSH1 0x4 ADD PUSH2 0x43E SWAP1 PUSH2 0x1503 JUMP JUMPDEST PUSH1 0x40 MLOAD DUP1 SWAP2 SUB SWAP1 REVERT JUMPDEST PUSH1 0x1 DUP2 PUSH1 0x3 ADD SLOAD PUSH2 0x458 SWAP2 SWAP1 PUSH2 0x154E JUMP JUMPDEST DUP2 PUSH1 0x3 ADD DUP2 SWAP1 SSTORE POP PUSH1 0x1 PUSH1 0x6 PUSH0 DUP5 DUP2 MSTORE PUSH1 0x20 ADD SWAP1 DUP2 MSTORE PUSH1 0x20 ADD PUSH0 KECCAK256 PUSH0 CALLER PUSH20 0xFFFFFFFFFFFFFFFFFFFFFFFFFFFFFFFFFFFFFFFF AND PUSH20 0xFFFFFFFFFFFFFFFFFFFFFFFFFFFFFFFFFFFFFFFF AND DUP2 MSTORE PUSH1 0x20 ADD SWAP1 DUP2 MSTORE PUSH1 0x20 ADD PUSH0 KECCAK256 PUSH0 PUSH2 0x100 EXP DUP2 SLOAD DUP2 PUSH1 0xFF MUL NOT AND SWAP1 DUP4 ISZERO ISZERO MUL OR SWAP1 SSTORE POP PUSH1 0x1 SLOAD DUP2 PUSH1 0x3 ADD SLOAD SUB PUSH2 0x559 JUMPI PUSH1 0x1 DUP2 PUSH1 0x4 ADD PUSH0 PUSH2 0x100 EXP DUP2 SLOAD DUP2 PUSH1 0xFF MUL NOT AND SWAP1 DUP4 ISZERO ISZERO MUL OR SWAP1 SSTORE POP DUP1 PUSH1 0x2 ADD PUSH0 SWAP1 SLOAD SWAP1 PUSH2 0x100 EXP SWAP1 DIV PUSH20 0xFFFFFFFFFFFFFFFFFFFFFFFFFFFFFFFFFFFFFFFF AND PUSH20 0xFFFFFFFFFFFFFFFFFFFFFFFFFFFFFFFFFFFFFFFF AND PUSH2 0x8FC DUP3 PUSH1 0x1 ADD SLOAD SWAP1 DUP2 ISZERO MUL SWAP1 PUSH1 0x40 MLOAD PUSH0 PUSH1 0x40 MLOAD DUP1 DUP4 SUB DUP2 DUP6 DUP9 DUP9 CALL SWAP4 POP POP POP POP ISZERO DUP1 ISZERO PUSH2 0x557 JUMPI RETURNDATASIZE PUSH0 PUSH0 RETURNDATACOPY RETURNDATASIZE PUSH0 REVERT JUMPDEST POP JUMPDEST POP POP JUMP JUMPDEST PUSH1 0x4 PUSH0 SWAP1 SLOAD SWAP1 PUSH2 0x100 EXP SWAP1 DIV PUSH20 0xFFFFFFFFFFFFFFFFFFFFFFFFFFFFFFFFFFFFFFFF AND PUSH20 0xFFFFFFFFFFFFFFFFFFFFFFFFFFFFFFFFFFFFFFFF AND CALLER PUSH20 0xFFFFFFFFFFFFFFFFFFFFFFFFFFFFFFFFFFFFFFFF AND EQ PUSH2 0x5EC JUMPI PUSH1 0x40 MLOAD PUSH32 0x8C379A000000000000000000000000000000000000000000000000000000000 DUP2 MSTORE PUSH1 0x4 ADD PUSH2 0x5E3 SWAP1 PUSH2 0x15CB JUMP JUMPDEST PUSH1 0x40 MLOAD DUP1 SWAP2 SUB SWAP1 REVERT JUMPDEST CALLER PUSH1 0x3 PUSH0 PUSH2 0x100 EXP DUP2 SLOAD DUP2 PUSH20 0xFFFFFFFFFFFFFFFFFFFFFFFFFFFFFFFFFFFFFFFF MUL NOT AND SWAP1 DUP4 PUSH20 0xFFFFFFFFFFFFFFFFFFFFFFFFFFFFFFFFFFFFFFFF AND MUL OR SWAP1 SSTORE POP PUSH0 PUSH1 0x4 PUSH0 PUSH2 0x100 EXP DUP2 SLOAD DUP2 PUSH20 0xFFFFFFFFFFFFFFFFFFFFFFFFFFFFFFFFFFFFFFFF MUL NOT AND SWAP1 DUP4 PUSH20 0xFFFFFFFFFFFFFFFFFFFFFFFFFFFFFFFFFFFFFFFF AND MUL OR SWAP1 SSTORE POP JUMP JUMPDEST PUSH2 0x676 PUSH2 0xEEC JUMP JUMPDEST PUSH0 DUP1 SLOAD SWAP1 POP DUP2 PUSH4 0xFFFFFFFF AND LT PUSH2 0x6C2 JUMPI PUSH1 0x40 MLOAD PUSH32 0x8C379A000000000000000000000000000000000000000000000000000000000 DUP2 MSTORE PUSH1 0x4 ADD PUSH2 0x6B9 SWAP1 PUSH2 0x1633 JUMP JUMPDEST PUSH1 0x40 MLOAD DUP1 SWAP2 SUB SWAP1 REVERT JUMPDEST PUSH0 PUSH1 0x1 PUSH0 DUP1 SLOAD SWAP1 POP PUSH2 0x6D4 SWAP2 SWAP1 PUSH2 0x1651 JUMP JUMPDEST DUP2 SLOAD DUP2 LT PUSH2 0x6E5 JUMPI PUSH2 0x6E4 PUSH2 0x1684 JUMP JUMPDEST JUMPDEST SWAP1 PUSH0 MSTORE PUSH1 0x20 PUSH0 KECCAK256 ADD PUSH0 SWAP1 SLOAD SWAP1 PUSH2 0x100 EXP SWAP1 DIV PUSH20 0xFFFFFFFFFFFFFFFFFFFFFFFFFFFFFFFFFFFFFFFF AND PUSH0 DUP3 PUSH4 0xFFFFFFFF AND DUP2 SLOAD DUP2 LT PUSH2 0x726 JUMPI PUSH2 0x725 PUSH2 0x1684 JUMP JUMPDEST JUMPDEST SWAP1 PUSH0 MSTORE PUSH1 0x20 PUSH0 KECCAK256 ADD PUSH0 PUSH2 0x100 EXP DUP2 SLOAD DUP2 PUSH20 0xFFFFFFFFFFFFFFFFFFFFFFFFFFFFFFFFFFFFFFFF MUL NOT AND SWAP1 DUP4 PUSH20 0xFFFFFFFFFFFFFFFFFFFFFFFFFFFFFFFFFFFFFFFF AND MUL OR SWAP1 SSTORE POP PUSH0 PUSH1 0x8 PUSH0 PUSH0 DUP5 PUSH4 0xFFFFFFFF AND DUP2 SLOAD DUP2 LT PUSH2 0x788 JUMPI PUSH2 0x787 PUSH2 0x1684 JUMP JUMPDEST JUMPDEST SWAP1 PUSH0 MSTORE PUSH1 0x20 PUSH0 KECCAK256 ADD PUSH0 SWAP1 SLOAD SWAP1 PUSH2 0x100 EXP SWAP1 DIV PUSH20 0xFFFFFFFFFFFFFFFFFFFFFFFFFFFFFFFFFFFFFFFF AND PUSH20 0xFFFFFFFFFFFFFFFFFFFFFFFFFFFFFFFFFFFFFFFF AND PUSH20 0xFFFFFFFFFFFFFFFFFFFFFFFFFFFFFFFFFFFFFFFF AND DUP2 MSTORE PUSH1 0x20 ADD SWAP1 DUP2 MSTORE PUSH1 0x20 ADD PUSH0 KECCAK256 PUSH0 PUSH2 0x100 EXP DUP2 SLOAD DUP2 PUSH1 0xFF MUL NOT AND SWAP1 DUP4 ISZERO ISZERO MUL OR SWAP1 SSTORE POP PUSH0 DUP1 SLOAD DUP1 PUSH2 0x810 JUMPI PUSH2 0x80F PUSH2 0x16B1 JUMP JUMPDEST JUMPDEST PUSH1 0x1 SWAP1 SUB DUP2 DUP2 SWAP1 PUSH0 MSTORE PUSH1 0x20 PUSH0 KECCAK256 ADD PUSH0 PUSH2 0x100 EXP DUP2 SLOAD SWAP1 PUSH20 0xFFFFFFFFFFFFFFFFFFFFFFFFFFFFFFFFFFFFFFFF MUL NOT AND SWAP1 SSTORE SWAP1 SSTORE POP JUMP JUMPDEST PUSH1 0x60 PUSH1 0x5 DUP1 SLOAD DUP1 PUSH1 0x20 MUL PUSH1 0x20 ADD PUSH1 0x40 MLOAD SWAP1 DUP2 ADD PUSH1 0x40 MSTORE DUP1 SWAP3 SWAP2 SWAP1 DUP2 DUP2 MSTORE PUSH1 0x20 ADD PUSH0 SWAP1 JUMPDEST DUP3 DUP3 LT ISZERO PUSH2 0x97A JUMPI DUP4 DUP3 SWAP1 PUSH0 MSTORE PUSH1 0x20 PUSH0 KECCAK256 SWAP1 PUSH1 0x5 MUL ADD PUSH1 0x40 MLOAD DUP1 PUSH1 0xC0 ADD PUSH1 0x40 MSTORE SWAP1 DUP2 PUSH0 DUP3 ADD SLOAD DUP2 MSTORE PUSH1 0x20 ADD PUSH1 0x1 DUP3 ADD SLOAD DUP2 MSTORE PUSH1 0x20 ADD PUSH1 0x2 DUP3 ADD PUSH0 SWAP1 SLOAD SWAP1 PUSH2 0x100 EXP SWAP1 DIV PUSH20 0xFFFFFFFFFFFFFFFFFFFFFFFFFFFFFFFFFFFFFFFF AND PUSH20 0xFFFFFFFFFFFFFFFFFFFFFFFFFFFFFFFFFFFFFFFF AND PUSH20 0xFFFFFFFFFFFFFFFFFFFFFFFFFFFFFFFFFFFFFFFF AND DUP2 MSTORE PUSH1 0x20 ADD PUSH1 0x3 DUP3 ADD SLOAD DUP2 MSTORE PUSH1 0x20 ADD PUSH1 0x4 DUP3 ADD PUSH0 SWAP1 SLOAD SWAP1 PUSH2 0x100 EXP SWAP1 DIV PUSH1 0xFF AND ISZERO ISZERO ISZERO ISZERO DUP2 MSTORE PUSH1 0x20 ADD PUSH1 0x4 DUP3 ADD PUSH1 0x1 SWAP1 SLOAD SWAP1 PUSH2 0x100 EXP SWAP1 DIV PUSH20 0xFFFFFFFFFFFFFFFFFFFFFFFFFFFFFFFFFFFFFFFF AND PUSH20 0xFFFFFFFFFFFFFFFFFFFFFFFFFFFFFFFFFFFFFFFF AND PUSH20 0xFFFFFFFFFFFFFFFFFFFFFFFFFFFFFFFFFFFFFFFF AND DUP2 MSTORE POP POP DUP2 MSTORE PUSH1 0x20 ADD SWAP1 PUSH1 0x1 ADD SWAP1 PUSH2 0x868 JUMP JUMPDEST POP POP POP POP SWAP1 POP SWAP1 JUMP JUMPDEST PUSH2 0x98B PUSH2 0xEEC JUMP JUMPDEST PUSH1 0x8 PUSH0 DUP3 PUSH20 0xFFFFFFFFFFFFFFFFFFFFFFFFFFFFFFFFFFFFFFFF AND PUSH20 0xFFFFFFFFFFFFFFFFFFFFFFFFFFFFFFFFFFFFFFFF AND DUP2 MSTORE PUSH1 0x20 ADD SWAP1 DUP2 MSTORE PUSH1 0x20 ADD PUSH0 KECCAK256 PUSH0 SWAP1 SLOAD SWAP1 PUSH2 0x100 EXP SWAP1 DIV PUSH1 0xFF AND ISZERO PUSH2 0xA15 JUMPI PUSH1 0x40 MLOAD PUSH32 0x8C379A000000000000000000000000000000000000000000000000000000000 DUP2 MSTORE PUSH1 0x4 ADD PUSH2 0xA0C SWAP1 PUSH2 0x1728 JUMP JUMPDEST PUSH1 0x40 MLOAD DUP1 SWAP2 SUB SWAP1 REVERT JUMPDEST PUSH1 0x1 PUSH1 0x8 PUSH0 DUP4 PUSH20 0xFFFFFFFFFFFFFFFFFFFFFFFFFFFFFFFFFFFFFFFF AND PUSH20 0xFFFFFFFFFFFFFFFFFFFFFFFFFFFFFFFFFFFFFFFF AND DUP2 MSTORE PUSH1 0x20 ADD SWAP1 DUP2 MSTORE PUSH1 0x20 ADD PUSH0 KECCAK256 PUSH0 PUSH2 0x100 EXP DUP2 SLOAD DUP2 PUSH1 0xFF MUL NOT AND SWAP1 DUP4 ISZERO ISZERO MUL OR SWAP1 SSTORE POP PUSH0 DUP2 SWAP1 DUP1 PUSH1 0x1 DUP2 SLOAD ADD DUP1 DUP3 SSTORE DUP1 SWAP2 POP POP PUSH1 0x1 SWAP1 SUB SWAP1 PUSH0 MSTORE PUSH1 0x20 PUSH0 KECCAK256 ADD PUSH0 SWAP1 SWAP2 SWAP1 SWAP2 SWAP1 SWAP2 PUSH2 0x100 EXP DUP2 SLOAD DUP2 PUSH20 0xFFFFFFFFFFFFFFFFFFFFFFFFFFFFFFFFFFFFFFFF MUL NOT AND SWAP1 DUP4 PUSH20 0xFFFFFFFFFFFFFFFFFFFFFFFFFFFFFFFFFFFFFFFF AND MUL OR SWAP1 SSTORE POP POP JUMP JUMPDEST PUSH0 PUSH20 0xFFFFFFFFFFFFFFFFFFFFFFFFFFFFFFFFFFFFFFFF AND CALLER PUSH20 0xFFFFFFFFFFFFFFFFFFFFFFFFFFFFFFFFFFFFFFFF AND SUB PUSH2 0xB3A JUMPI PUSH1 0x40 MLOAD PUSH32 0x8C379A000000000000000000000000000000000000000000000000000000000 DUP2 MSTORE PUSH1 0x4 ADD PUSH2 0xB31 SWAP1 PUSH2 0x1790 JUMP JUMPDEST PUSH1 0x40 MLOAD DUP1 SWAP2 SUB SWAP1 REVERT JUMPDEST PUSH0 DUP3 GT PUSH2 0xB7C JUMPI PUSH1 0x40 MLOAD PUSH32 0x8C379A000000000000000000000000000000000000000000000000000000000 DUP2 MSTORE PUSH1 0x4 ADD PUSH2 0xB73 SWAP1 PUSH2 0x17F8 JUMP JUMPDEST PUSH1 0x40 MLOAD DUP1 SWAP2 SUB SWAP1 REVERT JUMPDEST PUSH2 0xB84 PUSH2 0xE61 JUMP JUMPDEST PUSH0 PUSH1 0x1 PUSH1 0x2 SLOAD PUSH2 0xB94 SWAP2 SWAP1 PUSH2 0x154E JUMP JUMPDEST SWAP1 POP PUSH0 PUSH1 0x7 PUSH0 DUP4 DUP2 MSTORE PUSH1 0x20 ADD SWAP1 DUP2 MSTORE PUSH1 0x20 ADD PUSH0 KECCAK256 SWAP1 POP DUP2 DUP2 PUSH0 ADD DUP2 SWAP1 SSTORE POP DUP4 DUP2 PUSH1 0x1 ADD DUP2 SWAP1 SSTORE POP DUP3 DUP2 PUSH1 0x2 ADD PUSH0 PUSH2 0x100 EXP DUP2 SLOAD DUP2 PUSH20 0xFFFFFFFFFFFFFFFFFFFFFFFFFFFFFFFFFFFFFFFF MUL NOT AND SWAP1 DUP4 PUSH20 0xFFFFFFFFFFFFFFFFFFFFFFFFFFFFFFFFFFFFFFFF AND MUL OR SWAP1 SSTORE POP PUSH1 0x1 DUP2 PUSH1 0x3 ADD SLOAD PUSH2 0xC0E SWAP2 SWAP1 PUSH2 0x154E JUMP JUMPDEST DUP2 PUSH1 0x3 ADD DUP2 SWAP1 SSTORE POP CALLER DUP2 PUSH1 0x4 ADD PUSH1 0x1 PUSH2 0x100 EXP DUP2 SLOAD DUP2 PUSH20 0xFFFFFFFFFFFFFFFFFFFFFFFFFFFFFFFFFFFFFFFF MUL NOT AND SWAP1 DUP4 PUSH20 0xFFFFFFFFFFFFFFFFFFFFFFFFFFFFFFFFFFFFFFFF AND MUL OR SWAP1 SSTORE POP PUSH1 0x5 DUP2 SWAP1 DUP1 PUSH1 0x1 DUP2 SLOAD ADD DUP1 DUP3 SSTORE DUP1 SWAP2 POP POP PUSH1 0x1 SWAP1 SUB SWAP1 PUSH0 MSTORE PUSH1 0x20 PUSH0 KECCAK256 SWAP1 PUSH1 0x5 MUL ADD PUSH0 SWAP1 SWAP2 SWAP1 SWAP2 SWAP1 SWAP2 POP PUSH0 DUP3 ADD SLOAD DUP2 PUSH0 ADD SSTORE PUSH1 0x1 DUP3 ADD SLOAD DUP2 PUSH1 0x1 ADD SSTORE PUSH1 0x2 DUP3 ADD PUSH0 SWAP1 SLOAD SWAP1 PUSH2 0x100 EXP SWAP1 DIV PUSH20 0xFFFFFFFFFFFFFFFFFFFFFFFFFFFFFFFFFFFFFFFF AND DUP2 PUSH1 0x2 ADD PUSH0 PUSH2 0x100 EXP DUP2 SLOAD DUP2 PUSH20 0xFFFFFFFFFFFFFFFFFFFFFFFFFFFFFFFFFFFFFFFF MUL NOT AND SWAP1 DUP4 PUSH20 0xFFFFFFFFFFFFFFFFFFFFFFFFFFFFFFFFFFFFFFFF AND MUL OR SWAP1 SSTORE POP PUSH1 0x3 DUP3 ADD SLOAD DUP2 PUSH1 0x3 ADD SSTORE PUSH1 0x4 DUP3 ADD PUSH0 SWAP1 SLOAD SWAP1 PUSH2 0x100 EXP SWAP1 DIV PUSH1 0xFF AND DUP2 PUSH1 0x4 ADD PUSH0 PUSH2 0x100 EXP DUP2 SLOAD DUP2 PUSH1 0xFF MUL NOT AND SWAP1 DUP4 ISZERO ISZERO MUL OR SWAP1 SSTORE POP PUSH1 0x4 DUP3 ADD PUSH1 0x1 SWAP1 SLOAD SWAP1 PUSH2 0x100 EXP SWAP1 DIV PUSH20 0xFFFFFFFFFFFFFFFFFFFFFFFFFFFFFFFFFFFFFFFF AND DUP2 PUSH1 0x4 ADD PUSH1 0x1 PUSH2 0x100 EXP DUP2 SLOAD DUP2 PUSH20 0xFFFFFFFFFFFFFFFFFFFFFFFFFFFFFFFFFFFFFFFF MUL NOT AND SWAP1 DUP4 PUSH20 0xFFFFFFFFFFFFFFFFFFFFFFFFFFFFFFFFFFFFFFFF AND MUL OR SWAP1 SSTORE POP POP POP PUSH1 0x1 PUSH1 0x6 PUSH0 DUP5 DUP2 MSTORE PUSH1 0x20 ADD SWAP1 DUP2 MSTORE PUSH1 0x20 ADD PUSH0 KECCAK256 PUSH0 CALLER PUSH20 0xFFFFFFFFFFFFFFFFFFFFFFFFFFFFFFFFFFFFFFFF AND PUSH20 0xFFFFFFFFFFFFFFFFFFFFFFFFFFFFFFFFFFFFFFFF AND DUP2 MSTORE PUSH1 0x20 ADD SWAP1 DUP2 MSTORE PUSH1 0x20 ADD PUSH0 KECCAK256 PUSH0 PUSH2 0x100 EXP DUP2 SLOAD DUP2 PUSH1 0xFF MUL NOT AND SWAP1 DUP4 ISZERO ISZERO MUL OR SWAP1 SSTORE POP PUSH1 0x1 PUSH1 0x2 SLOAD PUSH2 0xE0A SWAP2 SWAP1 PUSH2 0x154E JUMP JUMPDEST PUSH1 0x2 DUP2 SWAP1 SSTORE POP POP POP POP POP JUMP JUMPDEST PUSH2 0xE1E PUSH2 0xEEC JUMP JUMPDEST DUP1 PUSH1 0x4 PUSH0 PUSH2 0x100 EXP DUP2 SLOAD DUP2 PUSH20 0xFFFFFFFFFFFFFFFFFFFFFFFFFFFFFFFFFFFFFFFF MUL NOT AND SWAP1 DUP4 PUSH20 0xFFFFFFFFFFFFFFFFFFFFFFFFFFFFFFFFFFFFFFFF AND MUL OR SWAP1 SSTORE POP POP JUMP JUMPDEST PUSH1 0x8 PUSH0 CALLER PUSH20 0xFFFFFFFFFFFFFFFFFFFFFFFFFFFFFFFFFFFFFFFF AND PUSH20 0xFFFFFFFFFFFFFFFFFFFFFFFFFFFFFFFFFFFFFFFF AND DUP2 MSTORE PUSH1 0x20 ADD SWAP1 DUP2 MSTORE PUSH1 0x20 ADD PUSH0 KECCAK256 PUSH0 SWAP1 SLOAD SWAP1 PUSH2 0x100 EXP SWAP1 DIV PUSH1 0xFF AND PUSH2 0xEEA JUMPI PUSH1 0x40 MLOAD PUSH32 0x8C379A000000000000000000000000000000000000000000000000000000000 DUP2 MSTORE PUSH1 0x4 ADD PUSH2 0xEE1 SWAP1 PUSH2 0x1860 JUMP JUMPDEST PUSH1 0x40 MLOAD DUP1 SWAP2 SUB SWAP1 REVERT JUMPDEST JUMP JUMPDEST PUSH1 0x8 PUSH0 CALLER PUSH20 0xFFFFFFFFFFFFFFFFFFFFFFFFFFFFFFFFFFFFFFFF AND PUSH20 0xFFFFFFFFFFFFFFFFFFFFFFFFFFFFFFFFFFFFFFFF AND DUP2 MSTORE PUSH1 0x20 ADD SWAP1 DUP2 MSTORE PUSH1 0x20 ADD PUSH0 KECCAK256 PUSH0 SWAP1 SLOAD SWAP1 PUSH2 0x100 EXP SWAP1 DIV PUSH1 0xFF AND PUSH2 0xF75 JUMPI PUSH1 0x40 MLOAD PUSH32 0x8C379A000000000000000000000000000000000000000000000000000000000 DUP2 MSTORE PUSH1 0x4 ADD PUSH2 0xF6C SWAP1 PUSH2 0x1860 JUMP JUMPDEST PUSH1 0x40 MLOAD DUP1 SWAP2 SUB SWAP1 REVERT JUMPDEST JUMP JUMPDEST PUSH0 PUSH0 REVERT JUMPDEST PUSH0 DUP2 SWAP1 POP SWAP2 SWAP1 POP JUMP JUMPDEST PUSH2 0xF8D DUP2 PUSH2 0xF7B JUMP JUMPDEST DUP2 EQ PUSH2 0xF97 JUMPI PUSH0 PUSH0 REVERT JUMPDEST POP JUMP JUMPDEST PUSH0 DUP2 CALLDATALOAD SWAP1 POP PUSH2 0xFA8 DUP2 PUSH2 0xF84 JUMP JUMPDEST SWAP3 SWAP2 POP POP JUMP JUMPDEST PUSH0 PUSH1 0x20 DUP3 DUP5 SUB SLT ISZERO PUSH2 0xFC3 JUMPI PUSH2 0xFC2 PUSH2 0xF77 JUMP JUMPDEST JUMPDEST PUSH0 PUSH2 0xFD0 DUP5 DUP3 DUP6 ADD PUSH2 0xF9A JUMP JUMPDEST SWAP2 POP POP SWAP3 SWAP2 POP POP JUMP JUMPDEST PUSH0 PUSH20 0xFFFFFFFFFFFFFFFFFFFFFFFFFFFFFFFFFFFFFFFF DUP3 AND SWAP1 POP SWAP2 SWAP1 POP JUMP JUMPDEST PUSH0 PUSH2 0x1002 DUP3 PUSH2 0xFD9 JUMP JUMPDEST SWAP1 POP SWAP2 SWAP1 POP JUMP JUMPDEST PUSH2 0x1012 DUP2 PUSH2 0xFF8 JUMP JUMPDEST DUP3 MSTORE POP POP JUMP JUMPDEST PUSH0 PUSH1 0x20 DUP3 ADD SWAP1 POP PUSH2 0x102B PUSH0 DUP4 ADD DUP5 PUSH2 0x1009 JUMP JUMPDEST SWAP3 SWAP2 POP POP JUMP JUMPDEST PUSH0 PUSH4 0xFFFFFFFF DUP3 AND SWAP1 POP SWAP2 SWAP1 POP JUMP JUMPDEST PUSH2 0x1049 DUP2 PUSH2 0x1031 JUMP JUMPDEST DUP2 EQ PUSH2 0x1053 JUMPI PUSH0 PUSH0 REVERT JUMPDEST POP JUMP JUMPDEST PUSH0 DUP2 CALLDATALOAD SWAP1 POP PUSH2 0x1064 DUP2 PUSH2 0x1040 JUMP JUMPDEST SWAP3 SWAP2 POP POP JUMP JUMPDEST PUSH0 PUSH1 0x20 DUP3 DUP5 SUB SLT ISZERO PUSH2 0x107F JUMPI PUSH2 0x107E PUSH2 0xF77 JUMP JUMPDEST JUMPDEST PUSH0 PUSH2 0x108C DUP5 DUP3 DUP6 ADD PUSH2 0x1056 JUMP JUMPDEST SWAP2 POP POP SWAP3 SWAP2 POP POP JUMP JUMPDEST PUSH0 DUP2 MLOAD SWAP1 POP SWAP2 SWAP1 POP JUMP JUMPDEST PUSH0 DUP3 DUP3 MSTORE PUSH1 0x20 DUP3 ADD SWAP1 POP SWAP3 SWAP2 POP POP JUMP JUMPDEST PUSH0 DUP2 SWAP1 POP PUSH1 0x20 DUP3 ADD SWAP1 POP SWAP2 SWAP1 POP JUMP JUMPDEST PUSH2 0x10C7 DUP2 PUSH2 0xF7B JUMP JUMPDEST DUP3 MSTORE POP POP JUMP JUMPDEST PUSH2 0x10D6 DUP2 PUSH2 0xFF8 JUMP JUMPDEST DUP3 MSTORE POP POP JUMP JUMPDEST PUSH0 DUP2 ISZERO ISZERO SWAP1 POP SWAP2 SWAP1 POP JUMP JUMPDEST PUSH2 0x10F0 DUP2 PUSH2 0x10DC JUMP JUMPDEST DUP3 MSTORE POP POP JUMP JUMPDEST PUSH1 0xC0 DUP3 ADD PUSH0 DUP3 ADD MLOAD PUSH2 0x110A PUSH0 DUP6 ADD DUP3 PUSH2 0x10BE JUMP JUMPDEST POP PUSH1 0x20 DUP3 ADD MLOAD PUSH2 0x111D PUSH1 0x20 DUP6 ADD DUP3 PUSH2 0x10BE JUMP JUMPDEST POP PUSH1 0x40 DUP3 ADD MLOAD PUSH2 0x1130 PUSH1 0x40 DUP6 ADD DUP3 PUSH2 0x10CD JUMP JUMPDEST POP PUSH1 0x60 DUP3 ADD MLOAD PUSH2 0x1143 PUSH1 0x60 DUP6 ADD DUP3 PUSH2 0x10BE JUMP JUMPDEST POP PUSH1 0x80 DUP3 ADD MLOAD PUSH2 0x1156 PUSH1 0x80 DUP6 ADD DUP3 PUSH2 0x10E7 JUMP JUMPDEST POP PUSH1 0xA0 DUP3 ADD MLOAD PUSH2 0x1169 PUSH1 0xA0 DUP6 ADD DUP3 PUSH2 0x10CD JUMP JUMPDEST POP POP POP POP JUMP JUMPDEST PUSH0 PUSH2 0x117A DUP4 DUP4 PUSH2 0x10F6 JUMP JUMPDEST PUSH1 0xC0 DUP4 ADD SWAP1 POP SWAP3 SWAP2 POP POP JUMP JUMPDEST PUSH0 PUSH1 0x20 DUP3 ADD SWAP1 POP SWAP2 SWAP1 POP JUMP JUMPDEST PUSH0 PUSH2 0x119C DUP3 PUSH2 0x1095 JUMP JUMPDEST PUSH2 0x11A6 DUP2 DUP6 PUSH2 0x109F JUMP JUMPDEST SWAP4 POP PUSH2 0x11B1 DUP4 PUSH2 0x10AF JUMP JUMPDEST DUP1 PUSH0 JUMPDEST DUP4 DUP2 LT ISZERO PUSH2 0x11E1 JUMPI DUP2 MLOAD PUSH2 0x11C8 DUP9 DUP3 PUSH2 0x116F JUMP JUMPDEST SWAP8 POP PUSH2 0x11D3 DUP4 PUSH2 0x1186 JUMP JUMPDEST SWAP3 POP POP PUSH1 0x1 DUP2 ADD SWAP1 POP PUSH2 0x11B4 JUMP JUMPDEST POP DUP6 SWAP4 POP POP POP POP SWAP3 SWAP2 POP POP JUMP JUMPDEST PUSH0 PUSH1 0x20 DUP3 ADD SWAP1 POP DUP2 DUP2 SUB PUSH0 DUP4 ADD MSTORE PUSH2 0x1206 DUP2 DUP5 PUSH2 0x1192 JUMP JUMPDEST SWAP1 POP SWAP3 SWAP2 POP POP JUMP JUMPDEST PUSH2 0x1217 DUP2 PUSH2 0xFF8 JUMP JUMPDEST DUP2 EQ PUSH2 0x1221 JUMPI PUSH0 PUSH0 REVERT JUMPDEST POP JUMP JUMPDEST PUSH0 DUP2 CALLDATALOAD SWAP1 POP PUSH2 0x1232 DUP2 PUSH2 0x120E JUMP JUMPDEST SWAP3 SWAP2 POP POP JUMP JUMPDEST PUSH0 PUSH1 0x20 DUP3 DUP5 SUB SLT ISZERO PUSH2 0x124D JUMPI PUSH2 0x124C PUSH2 0xF77 JUMP JUMPDEST JUMPDEST PUSH0 PUSH2 0x125A DUP5 DUP3 DUP6 ADD PUSH2 0x1224 JUMP JUMPDEST SWAP2 POP POP SWAP3 SWAP2 POP POP JUMP JUMPDEST PUSH0 PUSH0 PUSH1 0x40 DUP4 DUP6 SUB SLT ISZERO PUSH2 0x1279 JUMPI PUSH2 0x1278 PUSH2 0xF77 JUMP JUMPDEST JUMPDEST PUSH0 PUSH2 0x1286 DUP6 DUP3 DUP7 ADD PUSH2 0xF9A JUMP JUMPDEST SWAP3 POP POP PUSH1 0x20 PUSH2 0x1297 DUP6 DUP3 DUP7 ADD PUSH2 0x1224 JUMP JUMPDEST SWAP2 POP POP SWAP3 POP SWAP3 SWAP1 POP JUMP JUMPDEST PUSH0 DUP3 DUP3 MSTORE PUSH1 0x20 DUP3 ADD SWAP1 POP SWAP3 SWAP2 POP POP JUMP JUMPDEST PUSH32 0x496E76616C6964207472616E73616374696F6E20696400000000000000000000 PUSH0 DUP3 ADD MSTORE POP JUMP JUMPDEST PUSH0 PUSH2 0x12E5 PUSH1 0x16 DUP4 PUSH2 0x12A1 JUMP JUMPDEST SWAP2 POP PUSH2 0x12F0 DUP3 PUSH2 0x12B1 JUMP JUMPDEST PUSH1 0x20 DUP3 ADD SWAP1 POP SWAP2 SWAP1 POP JUMP JUMPDEST PUSH0 PUSH1 0x20 DUP3 ADD SWAP1 POP DUP2 DUP2 SUB PUSH0 DUP4 ADD MSTORE PUSH2 0x1312 DUP2 PUSH2 0x12D9 JUMP JUMPDEST SWAP1 POP SWAP2 SWAP1 POP JUMP JUMPDEST PUSH32 0x5A65726F20616464726573732064657465637465640000000000000000000000 PUSH0 DUP3 ADD MSTORE POP JUMP JUMPDEST PUSH0 PUSH2 0x134D PUSH1 0x15 DUP4 PUSH2 0x12A1 JUMP JUMPDEST SWAP2 POP PUSH2 0x1358 DUP3 PUSH2 0x1319 JUMP JUMPDEST PUSH1 0x20 DUP3 ADD SWAP1 POP SWAP2 SWAP1 POP JUMP JUMPDEST PUSH0 PUSH1 0x20 DUP3 ADD SWAP1 POP DUP2 DUP2 SUB PUSH0 DUP4 ADD MSTORE PUSH2 0x137A DUP2 PUSH2 0x1341 JUMP JUMPDEST SWAP1 POP SWAP2 SWAP1 POP JUMP JUMPDEST PUSH32 0x43616E2774207369676E20747769636500000000000000000000000000000000 PUSH0 DUP3 ADD MSTORE POP JUMP JUMPDEST PUSH0 PUSH2 0x13B5 PUSH1 0x10 DUP4 PUSH2 0x12A1 JUMP JUMPDEST SWAP2 POP PUSH2 0x13C0 DUP3 PUSH2 0x1381 JUMP JUMPDEST PUSH1 0x20 DUP3 ADD SWAP1 POP SWAP2 SWAP1 POP JUMP JUMPDEST PUSH0 PUSH1 0x20 DUP3 ADD SWAP1 POP DUP2 DUP2 SUB PUSH0 DUP4 ADD MSTORE PUSH2 0x13E2 DUP2 PUSH2 0x13A9 JUMP JUMPDEST SWAP1 POP SWAP2 SWAP1 POP JUMP JUMPDEST PUSH32 0x496E73756666696369656E7420636F6E74726163742062616C616E6365000000 PUSH0 DUP3 ADD MSTORE POP JUMP JUMPDEST PUSH0 PUSH2 0x141D PUSH1 0x1D DUP4 PUSH2 0x12A1 JUMP JUMPDEST SWAP2 POP PUSH2 0x1428 DUP3 PUSH2 0x13E9 JUMP JUMPDEST PUSH1 0x20 DUP3 ADD SWAP1 POP SWAP2 SWAP1 POP JUMP JUMPDEST PUSH0 PUSH1 0x20 DUP3 ADD SWAP1 POP DUP2 DUP2 SUB PUSH0 DUP4 ADD MSTORE PUSH2 0x144A DUP2 PUSH2 0x1411 JUMP JUMPDEST SWAP1 POP SWAP2 SWAP1 POP JUMP JUMPDEST PUSH32 0x7472616E73616374696F6E20616C726561647920657865637574656400000000 PUSH0 DUP3 ADD MSTORE POP JUMP JUMPDEST PUSH0 PUSH2 0x1485 PUSH1 0x1C DUP4 PUSH2 0x12A1 JUMP JUMPDEST SWAP2 POP PUSH2 0x1490 DUP3 PUSH2 0x1451 JUMP JUMPDEST PUSH1 0x20 DUP3 ADD SWAP1 POP SWAP2 SWAP1 POP JUMP JUMPDEST PUSH0 PUSH1 0x20 DUP3 ADD SWAP1 POP DUP2 DUP2 SUB PUSH0 DUP4 ADD MSTORE PUSH2 0x14B2 DUP2 PUSH2 0x1479 JUMP JUMPDEST SWAP1 POP SWAP2 SWAP1 POP JUMP JUMPDEST PUSH32 0x51756F72756D20636F756E742072656163686564000000000000000000000000 PUSH0 DUP3 ADD MSTORE POP JUMP JUMPDEST PUSH0 PUSH2 0x14ED PUSH1 0x14 DUP4 PUSH2 0x12A1 JUMP JUMPDEST SWAP2 POP PUSH2 0x14F8 DUP3 PUSH2 0x14B9 JUMP JUMPDEST PUSH1 0x20 DUP3 ADD SWAP1 POP SWAP2 SWAP1 POP JUMP JUMPDEST PUSH0 PUSH1 0x20 DUP3 ADD SWAP1 POP DUP2 DUP2 SUB PUSH0 DUP4 ADD MSTORE PUSH2 0x151A DUP2 PUSH2 0x14E1 JUMP JUMPDEST SWAP1 POP SWAP2 SWAP1 POP JUMP JUMPDEST PUSH32 0x4E487B7100000000000000000000000000000000000000000000000000000000 PUSH0 MSTORE PUSH1 0x11 PUSH1 0x4 MSTORE PUSH1 0x24 PUSH0 REVERT JUMPDEST PUSH0 PUSH2 0x1558 DUP3 PUSH2 0xF7B JUMP JUMPDEST SWAP2 POP PUSH2 0x1563 DUP4 PUSH2 0xF7B JUMP JUMPDEST SWAP3 POP DUP3 DUP3 ADD SWAP1 POP DUP1 DUP3 GT ISZERO PUSH2 0x157B JUMPI PUSH2 0x157A PUSH2 0x1521 JUMP JUMPDEST JUMPDEST SWAP3 SWAP2 POP POP JUMP JUMPDEST PUSH32 0x4E6F74206E657874206F776E6572000000000000000000000000000000000000 PUSH0 DUP3 ADD MSTORE POP JUMP JUMPDEST PUSH0 PUSH2 0x15B5 PUSH1 0xE DUP4 PUSH2 0x12A1 JUMP JUMPDEST SWAP2 POP PUSH2 0x15C0 DUP3 PUSH2 0x1581 JUMP JUMPDEST PUSH1 0x20 DUP3 ADD SWAP1 POP SWAP2 SWAP1 POP JUMP JUMPDEST PUSH0 PUSH1 0x20 DUP3 ADD SWAP1 POP DUP2 DUP2 SUB PUSH0 DUP4 ADD MSTORE PUSH2 0x15E2 DUP2 PUSH2 0x15A9 JUMP JUMPDEST SWAP1 POP SWAP2 SWAP1 POP JUMP JUMPDEST PUSH32 0x496E76616C696420696E64657800000000000000000000000000000000000000 PUSH0 DUP3 ADD MSTORE POP JUMP JUMPDEST PUSH0 PUSH2 0x161D PUSH1 0xD DUP4 PUSH2 0x12A1 JUMP JUMPDEST SWAP2 POP PUSH2 0x1628 DUP3 PUSH2 0x15E9 JUMP JUMPDEST PUSH1 0x20 DUP3 ADD SWAP1 POP SWAP2 SWAP1 POP JUMP JUMPDEST PUSH0 PUSH1 0x20 DUP3 ADD SWAP1 POP DUP2 DUP2 SUB PUSH0 DUP4 ADD MSTORE PUSH2 0x164A DUP2 PUSH2 0x1611 JUMP JUMPDEST SWAP1 POP SWAP2 SWAP1 POP JUMP JUMPDEST PUSH0 PUSH2 0x165B DUP3 PUSH2 0xF7B JUMP JUMPDEST SWAP2 POP PUSH2 0x1666 DUP4 PUSH2 0xF7B JUMP JUMPDEST SWAP3 POP DUP3 DUP3 SUB SWAP1 POP DUP2 DUP2 GT ISZERO PUSH2 0x167E JUMPI PUSH2 0x167D PUSH2 0x1521 JUMP JUMPDEST JUMPDEST SWAP3 SWAP2 POP POP JUMP JUMPDEST PUSH32 0x4E487B7100000000000000000000000000000000000000000000000000000000 PUSH0 MSTORE PUSH1 0x32 PUSH1 0x4 MSTORE PUSH1 0x24 PUSH0 REVERT JUMPDEST PUSH32 0x4E487B7100000000000000000000000000000000000000000000000000000000 PUSH0 MSTORE PUSH1 0x31 PUSH1 0x4 MSTORE PUSH1 0x24 PUSH0 REVERT JUMPDEST PUSH32 0x5369676E657220616C7265616479206578697374000000000000000000000000 PUSH0 DUP3 ADD MSTORE POP JUMP JUMPDEST PUSH0 PUSH2 0x1712 PUSH1 0x14 DUP4 PUSH2 0x12A1 JUMP JUMPDEST SWAP2 POP PUSH2 0x171D DUP3 PUSH2 0x16DE JUMP JUMPDEST PUSH1 0x20 DUP3 ADD SWAP1 POP SWAP2 SWAP1 POP JUMP JUMPDEST PUSH0 PUSH1 0x20 DUP3 ADD SWAP1 POP DUP2 DUP2 SUB PUSH0 DUP4 ADD MSTORE PUSH2 0x173F DUP2 PUSH2 0x1706 JUMP JUMPDEST SWAP1 POP SWAP2 SWAP1 POP JUMP JUMPDEST PUSH32 0x5A65726F2061646472657373206E6F7420616C6C6F7765640000000000000000 PUSH0 DUP3 ADD MSTORE POP JUMP JUMPDEST PUSH0 PUSH2 0x177A PUSH1 0x18 DUP4 PUSH2 0x12A1 JUMP JUMPDEST SWAP2 POP PUSH2 0x1785 DUP3 PUSH2 0x1746 JUMP JUMPDEST PUSH1 0x20 DUP3 ADD SWAP1 POP SWAP2 SWAP1 POP JUMP JUMPDEST PUSH0 PUSH1 0x20 DUP3 ADD SWAP1 POP DUP2 DUP2 SUB PUSH0 DUP4 ADD MSTORE PUSH2 0x17A7 DUP2 PUSH2 0x176E JUMP JUMPDEST SWAP1 POP SWAP2 SWAP1 POP JUMP JUMPDEST PUSH32 0x5A65726F2076616C7565206E6F7420616C6C6F77656400000000000000000000 PUSH0 DUP3 ADD MSTORE POP JUMP JUMPDEST PUSH0 PUSH2 0x17E2 PUSH1 0x16 DUP4 PUSH2 0x12A1 JUMP JUMPDEST SWAP2 POP PUSH2 0x17ED DUP3 PUSH2 0x17AE JUMP JUMPDEST PUSH1 0x20 DUP3 ADD SWAP1 POP SWAP2 SWAP1 POP JUMP JUMPDEST PUSH0 PUSH1 0x20 DUP3 ADD SWAP1 POP DUP2 DUP2 SUB PUSH0 DUP4 ADD MSTORE PUSH2 0x180F DUP2 PUSH2 0x17D6 JUMP JUMPDEST SWAP1 POP SWAP2 SWAP1 POP JUMP JUMPDEST PUSH32 0x4E6F742076616C6964207369676E657200000000000000000000000000000000 PUSH0 DUP3 ADD MSTORE POP JUMP JUMPDEST PUSH0 PUSH2 0x184A PUSH1 0x10 DUP4 PUSH2 0x12A1 JUMP JUMPDEST SWAP2 POP PUSH2 0x1855 DUP3 PUSH2 0x1816 JUMP JUMPDEST PUSH1 0x20 DUP3 ADD SWAP1 POP SWAP2 SWAP1 POP JUMP JUMPDEST PUSH0 PUSH1 0x20 DUP3 ADD SWAP1 POP DUP2 DUP2 SUB PUSH0 DUP4 ADD MSTORE PUSH2 0x1877 DUP2 PUSH2 0x183E JUMP JUMPDEST SWAP1 POP SWAP2 SWAP1 POP JUMP INVALID LOG2 PUSH5 0x6970667358 0x22 SLT KECCAK256 SWAP12 0xEE COINBASE PUSH28 0xA086B22477BFA1A8DB0371EEB95A1E8DCE84555B16342E7A5F812001 PUSH5 0x736F6C6343 STOP ADDMOD SHR STOP CALLER "
				},
				"gasEstimates": {
					"creation": {
						"codeDepositCost": "1264800",
						"executionCost": "infinite",
						"totalCost": "infinite"
					},
					"external": {
						"": "173",
						"addValidSigner(address)": "77906",
						"approveTransaction(uint256)": "infinite",
						"claimOwnership()": "50887",
						"getAllTransaction()": "infinite",
						"initiateTransaction(uint256,address)": "infinite",
						"removeSigner(uint32)": "infinite",
						"signers(uint256)": "4944",
						"transferOwnership(address)": "27044"
					},
					"internal": {
						"onlyOwner()": "infinite",
						"onlyValidSigner()": "infinite"
					}
				},
				"methodIdentifiers": {
					"addValidSigner(address)": "de8ee817",
					"approveTransaction(uint256)": "242232d1",
					"claimOwnership()": "4e71e0c8",
					"getAllTransaction()": "add6415d",
					"initiateTransaction(uint256,address)": "e42bb8aa",
					"removeSigner(uint32)": "4efd24de",
					"signers(uint256)": "2079fb9a",
					"transferOwnership(address)": "f2fde38b"
				}
			},
			"storageLayout": {
				"storage": [
					{
						"astId": 4,
						"contract": "contracts/MultisigWallet.sol:Multisig",
						"label": "signers",
						"offset": 0,
						"slot": "0",
						"type": "t_array(t_address)dyn_storage"
					},
					{
						"astId": 6,
						"contract": "contracts/MultisigWallet.sol:Multisig",
						"label": "quorum",
						"offset": 0,
						"slot": "1",
						"type": "t_uint256"
					},
					{
						"astId": 8,
						"contract": "contracts/MultisigWallet.sol:Multisig",
						"label": "txCount",
						"offset": 0,
						"slot": "2",
						"type": "t_uint256"
					},
					{
						"astId": 10,
						"contract": "contracts/MultisigWallet.sol:Multisig",
						"label": "owner",
						"offset": 0,
						"slot": "3",
						"type": "t_address"
					},
					{
						"astId": 12,
						"contract": "contracts/MultisigWallet.sol:Multisig",
						"label": "nextOwner",
						"offset": 0,
						"slot": "4",
						"type": "t_address"
					},
					{
						"astId": 29,
						"contract": "contracts/MultisigWallet.sol:Multisig",
						"label": "allTransactions",
						"offset": 0,
						"slot": "5",
						"type": "t_array(t_struct(Transaction)25_storage)dyn_storage"
					},
					{
						"astId": 35,
						"contract": "contracts/MultisigWallet.sol:Multisig",
						"label": "hasSigned",
						"offset": 0,
						"slot": "6",
						"type": "t_mapping(t_uint256,t_mapping(t_address,t_bool))"
					},
					{
						"astId": 40,
						"contract": "contracts/MultisigWallet.sol:Multisig",
						"label": "transactions",
						"offset": 0,
						"slot": "7",
						"type": "t_mapping(t_uint256,t_struct(Transaction)25_storage)"
					},
					{
						"astId": 44,
						"contract": "contracts/MultisigWallet.sol:Multisig",
						"label": "isValidSigner",
						"offset": 0,
						"slot": "8",
						"type": "t_mapping(t_address,t_bool)"
					}
				],
				"types": {
					"t_address": {
						"encoding": "inplace",
						"label": "address",
						"numberOfBytes": "20"
					},
					"t_array(t_address)dyn_storage": {
						"base": "t_address",
						"encoding": "dynamic_array",
						"label": "address[]",
						"numberOfBytes": "32"
					},
					"t_array(t_struct(Transaction)25_storage)dyn_storage": {
						"base": "t_struct(Transaction)25_storage",
						"encoding": "dynamic_array",
						"label": "struct Multisig.Transaction[]",
						"numberOfBytes": "32"
					},
					"t_bool": {
						"encoding": "inplace",
						"label": "bool",
						"numberOfBytes": "1"
					},
					"t_mapping(t_address,t_bool)": {
						"encoding": "mapping",
						"key": "t_address",
						"label": "mapping(address => bool)",
						"numberOfBytes": "32",
						"value": "t_bool"
					},
					"t_mapping(t_uint256,t_mapping(t_address,t_bool))": {
						"encoding": "mapping",
						"key": "t_uint256",
						"label": "mapping(uint256 => mapping(address => bool))",
						"numberOfBytes": "32",
						"value": "t_mapping(t_address,t_bool)"
					},
					"t_mapping(t_uint256,t_struct(Transaction)25_storage)": {
						"encoding": "mapping",
						"key": "t_uint256",
						"label": "mapping(uint256 => struct Multisig.Transaction)",
						"numberOfBytes": "32",
						"value": "t_struct(Transaction)25_storage"
					},
					"t_struct(Transaction)25_storage": {
						"encoding": "inplace",
						"label": "struct Multisig.Transaction",
						"members": [
							{
								"astId": 14,
								"contract": "contracts/MultisigWallet.sol:Multisig",
								"label": "id",
								"offset": 0,
								"slot": "0",
								"type": "t_uint256"
							},
							{
								"astId": 16,
								"contract": "contracts/MultisigWallet.sol:Multisig",
								"label": "amount",
								"offset": 0,
								"slot": "1",
								"type": "t_uint256"
							},
							{
								"astId": 18,
								"contract": "contracts/MultisigWallet.sol:Multisig",
								"label": "receiver",
								"offset": 0,
								"slot": "2",
								"type": "t_address"
							},
							{
								"astId": 20,
								"contract": "contracts/MultisigWallet.sol:Multisig",
								"label": "signersCount",
								"offset": 0,
								"slot": "3",
								"type": "t_uint256"
							},
							{
								"astId": 22,
								"contract": "contracts/MultisigWallet.sol:Multisig",
								"label": "isExecuted",
								"offset": 0,
								"slot": "4",
								"type": "t_bool"
							},
							{
								"astId": 24,
								"contract": "contracts/MultisigWallet.sol:Multisig",
								"label": "txCreator",
								"offset": 1,
								"slot": "4",
								"type": "t_address"
							}
						],
						"numberOfBytes": "160"
					},
					"t_uint256": {
						"encoding": "inplace",
						"label": "uint256",
						"numberOfBytes": "32"
					}
				}
			},
			"userdoc": {
				"kind": "user",
				"methods": {},
				"version": 1
			}
		}
	}
}