{
	"contracts/StakeXFI.sol": {
		"StakeXFI": {
			"abi": [
				{
					"inputs": [
						{
							"internalType": "address",
							"name": "_xfiAddress",
							"type": "address"
						},
						{
							"internalType": "address",
							"name": "_mpxAddress",
							"type": "address"
						}
					],
					"stateMutability": "nonpayable",
					"type": "constructor"
				},
				{
					"anonymous": false,
					"inputs": [
						{
							"indexed": true,
							"internalType": "address",
							"name": "staker",
							"type": "address"
						},
						{
							"indexed": false,
							"internalType": "uint256",
							"name": "amount",
							"type": "uint256"
						},
						{
							"indexed": true,
							"internalType": "uint256",
							"name": "startTime",
							"type": "uint256"
						}
					],
					"name": "DepositSuccessful",
					"type": "event"
				},
				{
					"anonymous": false,
					"inputs": [
						{
							"indexed": true,
							"internalType": "address",
							"name": "previousOwner",
							"type": "address"
						},
						{
							"indexed": true,
							"internalType": "address",
							"name": "newOwner",
							"type": "address"
						}
					],
					"name": "OwnershipTransfered",
					"type": "event"
				},
				{
					"anonymous": false,
					"inputs": [
						{
							"indexed": true,
							"internalType": "address",
							"name": "staker",
							"type": "address"
						},
						{
							"indexed": false,
							"internalType": "uint256",
							"name": "amount",
							"type": "uint256"
						},
						{
							"indexed": true,
							"internalType": "uint256",
							"name": "reward",
							"type": "uint256"
						}
					],
					"name": "WithdrawalSuccessful",
					"type": "event"
				},
				{
					"inputs": [],
					"name": "MPXContract",
					"outputs": [
						{
							"internalType": "contract IERC20",
							"name": "",
							"type": "address"
						}
					],
					"stateMutability": "view",
					"type": "function"
				},
				{
					"inputs": [],
					"name": "XFIContract",
					"outputs": [
						{
							"internalType": "contract IERC20",
							"name": "",
							"type": "address"
						}
					],
					"stateMutability": "view",
					"type": "function"
				},
				{
					"inputs": [],
					"name": "claimOwnership",
					"outputs": [],
					"stateMutability": "nonpayable",
					"type": "function"
				},
				{
					"inputs": [],
					"name": "getContractMPXBalance",
					"outputs": [
						{
							"internalType": "uint256",
							"name": "",
							"type": "uint256"
						}
					],
					"stateMutability": "view",
					"type": "function"
				},
				{
					"inputs": [],
					"name": "getContractXFIBalance",
					"outputs": [
						{
							"internalType": "uint256",
							"name": "",
							"type": "uint256"
						}
					],
					"stateMutability": "view",
					"type": "function"
				},
				{
					"inputs": [
						{
							"internalType": "uint8",
							"name": "_index",
							"type": "uint8"
						}
					],
					"name": "getStakerInfo",
					"outputs": [
						{
							"components": [
								{
									"internalType": "uint256",
									"name": "amount",
									"type": "uint256"
								},
								{
									"internalType": "uint256",
									"name": "startTime",
									"type": "uint256"
								},
								{
									"internalType": "uint256",
									"name": "duration",
									"type": "uint256"
								},
								{
									"internalType": "bool",
									"name": "hasWithdrawn",
									"type": "bool"
								}
							],
							"internalType": "struct StakeXFI.Staking",
							"name": "",
							"type": "tuple"
						}
					],
					"stateMutability": "view",
					"type": "function"
				},
				{
					"inputs": [
						{
							"internalType": "uint256",
							"name": "_amount",
							"type": "uint256"
						},
						{
							"internalType": "uint256",
							"name": "_duration",
							"type": "uint256"
						}
					],
					"name": "stake",
					"outputs": [],
					"stateMutability": "nonpayable",
					"type": "function"
				},
				{
					"inputs": [
						{
							"internalType": "address",
							"name": "_newOwner",
							"type": "address"
						}
					],
					"name": "transferOwnership",
					"outputs": [],
					"stateMutability": "nonpayable",
					"type": "function"
				},
				{
					"inputs": [
						{
							"internalType": "uint8",
							"name": "_index",
							"type": "uint8"
						}
					],
					"name": "withdrawStake",
					"outputs": [
						{
							"internalType": "bool",
							"name": "",
							"type": "bool"
						}
					],
					"stateMutability": "nonpayable",
					"type": "function"
				}
			],
			"devdoc": {
				"kind": "dev",
				"methods": {},
				"version": 1
			},
			"evm": {
				"assembly": "    /* \"contracts/StakeXFI.sol\":87:4598  contract StakeXFI{... */\n  mstore(0x40, 0xc0)\n    /* \"contracts/StakeXFI.sol\":310:325  1000 * (10**18) */\n  0x3635c9adc5dea00000\n    /* \"contracts/StakeXFI.sol\":269:325  uint256 immutable MINIMUM_STAKE_AMOUNT = 1000 * (10**18) */\n  0x80\n  swap1\n  dup2\n  mstore\n  pop\n    /* \"contracts/StakeXFI.sol\":373:390  100000 * (10**18) */\n  0x152d02c7e14af6800000\n    /* \"contracts/StakeXFI.sol\":332:390  uint256 immutable MAXIMUM_STAKE_AMOUNT = 100000 * (10**18) */\n  0xa0\n  swap1\n  dup2\n  mstore\n  pop\n    /* \"contracts/StakeXFI.sol\":664:844  constructor(address _xfiAddress, address _mpxAddress){... */\n  callvalue\n  dup1\n  iszero\n  tag_1\n  jumpi\n  revert(0x00, 0x00)\ntag_1:\n  pop\n  mload(0x40)\n  sub(codesize, bytecodeSize)\n  dup1\n  bytecodeSize\n  dup4\n  codecopy\n  dup2\n  dup2\n  add\n  0x40\n  mstore\n  dup2\n  add\n  swap1\n  tag_2\n  swap2\n  swap1\n  tag_3\n  jump\t// in\ntag_2:\n    /* \"contracts/StakeXFI.sol\":749:760  _xfiAddress */\n  dup2\n    /* \"contracts/StakeXFI.sol\":728:739  XFIContract */\n  0x00\n  0x00\n    /* \"contracts/StakeXFI.sol\":728:761  XFIContract = IERC20(_xfiAddress) */\n  0x0100\n  exp\n  dup2\n  sload\n  dup2\n  0xffffffffffffffffffffffffffffffffffffffff\n  mul\n  not\n  and\n  swap1\n  dup4\n  0xffffffffffffffffffffffffffffffffffffffff\n  and\n  mul\n  or\n  swap1\n  sstore\n  pop\n    /* \"contracts/StakeXFI.sol\":793:804  _mpxAddress */\n  dup1\n    /* \"contracts/StakeXFI.sol\":772:783  MPXContract */\n  0x01\n  0x00\n    /* \"contracts/StakeXFI.sol\":772:805  MPXContract = IERC20(_mpxAddress) */\n  0x0100\n  exp\n  dup2\n  sload\n  dup2\n  0xffffffffffffffffffffffffffffffffffffffff\n  mul\n  not\n  and\n  swap1\n  dup4\n  0xffffffffffffffffffffffffffffffffffffffff\n  and\n  mul\n  or\n  swap1\n  sstore\n  pop\n    /* \"contracts/StakeXFI.sol\":826:836  msg.sender */\n  caller\n    /* \"contracts/StakeXFI.sol\":818:823  owner */\n  0x02\n  0x00\n    /* \"contracts/StakeXFI.sol\":818:836  owner = msg.sender */\n  0x0100\n  exp\n  dup2\n  sload\n  dup2\n  0xffffffffffffffffffffffffffffffffffffffff\n  mul\n  not\n  and\n  swap1\n  dup4\n  0xffffffffffffffffffffffffffffffffffffffff\n  and\n  mul\n  or\n  swap1\n  sstore\n  pop\n    /* \"contracts/StakeXFI.sol\":664:844  constructor(address _xfiAddress, address _mpxAddress){... */\n  pop\n  pop\n    /* \"contracts/StakeXFI.sol\":87:4598  contract StakeXFI{... */\n  jump(tag_6)\n    /* \"#utility.yul\":88:205   */\ntag_8:\n    /* \"#utility.yul\":197:198   */\n  0x00\n    /* \"#utility.yul\":194:195   */\n  0x00\n    /* \"#utility.yul\":187:199   */\n  revert\n    /* \"#utility.yul\":334:460   */\ntag_10:\n    /* \"#utility.yul\":371:378   */\n  0x00\n    /* \"#utility.yul\":411:453   */\n  0xffffffffffffffffffffffffffffffffffffffff\n    /* \"#utility.yul\":404:409   */\n  dup3\n    /* \"#utility.yul\":400:454   */\n  and\n    /* \"#utility.yul\":389:454   */\n  swap1\n  pop\n    /* \"#utility.yul\":334:460   */\n  swap2\n  swap1\n  pop\n  jump\t// out\n    /* \"#utility.yul\":466:562   */\ntag_11:\n    /* \"#utility.yul\":503:510   */\n  0x00\n    /* \"#utility.yul\":532:556   */\n  tag_20\n    /* \"#utility.yul\":550:555   */\n  dup3\n    /* \"#utility.yul\":532:556   */\n  tag_10\n  jump\t// in\ntag_20:\n    /* \"#utility.yul\":521:556   */\n  swap1\n  pop\n    /* \"#utility.yul\":466:562   */\n  swap2\n  swap1\n  pop\n  jump\t// out\n    /* \"#utility.yul\":568:690   */\ntag_12:\n    /* \"#utility.yul\":641:665   */\n  tag_22\n    /* \"#utility.yul\":659:664   */\n  dup2\n    /* \"#utility.yul\":641:665   */\n  tag_11\n  jump\t// in\ntag_22:\n    /* \"#utility.yul\":634:639   */\n  dup2\n    /* \"#utility.yul\":631:666   */\n  eq\n    /* \"#utility.yul\":621:684   */\n  tag_23\n  jumpi\n    /* \"#utility.yul\":680:681   */\n  0x00\n    /* \"#utility.yul\":677:678   */\n  0x00\n    /* \"#utility.yul\":670:682   */\n  revert\n    /* \"#utility.yul\":621:684   */\ntag_23:\n    /* \"#utility.yul\":568:690   */\n  pop\n  jump\t// out\n    /* \"#utility.yul\":696:839   */\ntag_13:\n    /* \"#utility.yul\":753:758   */\n  0x00\n    /* \"#utility.yul\":784:790   */\n  dup2\n    /* \"#utility.yul\":778:791   */\n  mload\n    /* \"#utility.yul\":769:791   */\n  swap1\n  pop\n    /* \"#utility.yul\":800:833   */\n  tag_25\n    /* \"#utility.yul\":827:832   */\n  dup2\n    /* \"#utility.yul\":800:833   */\n  tag_12\n  jump\t// in\ntag_25:\n    /* \"#utility.yul\":696:839   */\n  swap3\n  swap2\n  pop\n  pop\n  jump\t// out\n    /* \"#utility.yul\":845:1352   */\ntag_3:\n    /* \"#utility.yul\":924:930   */\n  0x00\n    /* \"#utility.yul\":932:938   */\n  0x00\n    /* \"#utility.yul\":981:983   */\n  0x40\n    /* \"#utility.yul\":969:978   */\n  dup4\n    /* \"#utility.yul\":960:967   */\n  dup6\n    /* \"#utility.yul\":956:979   */\n  sub\n    /* \"#utility.yul\":952:984   */\n  slt\n    /* \"#utility.yul\":949:1068   */\n  iszero\n  tag_27\n  jumpi\n    /* \"#utility.yul\":987:1066   */\n  tag_28\n  tag_8\n  jump\t// in\ntag_28:\n    /* \"#utility.yul\":949:1068   */\ntag_27:\n    /* \"#utility.yul\":1107:1108   */\n  0x00\n    /* \"#utility.yul\":1132:1196   */\n  tag_29\n    /* \"#utility.yul\":1188:1195   */\n  dup6\n    /* \"#utility.yul\":1179:1185   */\n  dup3\n    /* \"#utility.yul\":1168:1177   */\n  dup7\n    /* \"#utility.yul\":1164:1186   */\n  add\n    /* \"#utility.yul\":1132:1196   */\n  tag_13\n  jump\t// in\ntag_29:\n    /* \"#utility.yul\":1122:1196   */\n  swap3\n  pop\n    /* \"#utility.yul\":1078:1206   */\n  pop\n    /* \"#utility.yul\":1245:1247   */\n  0x20\n    /* \"#utility.yul\":1271:1335   */\n  tag_30\n    /* \"#utility.yul\":1327:1334   */\n  dup6\n    /* \"#utility.yul\":1318:1324   */\n  dup3\n    /* \"#utility.yul\":1307:1316   */\n  dup7\n    /* \"#utility.yul\":1303:1325   */\n  add\n    /* \"#utility.yul\":1271:1335   */\n  tag_13\n  jump\t// in\ntag_30:\n    /* \"#utility.yul\":1261:1335   */\n  swap2\n  pop\n    /* \"#utility.yul\":1216:1345   */\n  pop\n    /* \"#utility.yul\":845:1352   */\n  swap3\n  pop\n  swap3\n  swap1\n  pop\n  jump\t// out\n    /* \"contracts/StakeXFI.sol\":87:4598  contract StakeXFI{... */\ntag_6:\n  mload(0x80)\n  mload(0xa0)\n  codecopy(0x00, dataOffset(sub_0), dataSize(sub_0))\n  0x00\n  assignImmutable(\"0xc41c8390c0da0418b7667ee0df6c246c26c4be6c0618368dce5a916e8008b0db\")\n  0x00\n  assignImmutable(\"0x4393e7114eb674248a1480712950c28cb06e118e040859a2eafa3ca8a6dfbd69\")\n  return(0x00, dataSize(sub_0))\nstop\n\nsub_0: assembly {\n        /* \"contracts/StakeXFI.sol\":87:4598  contract StakeXFI{... */\n      mstore(0x40, 0x80)\n      callvalue\n      dup1\n      iszero\n      tag_1\n      jumpi\n      revert(0x00, 0x00)\n    tag_1:\n      pop\n      jumpi(tag_2, lt(calldatasize, 0x04))\n      shr(0xe0, calldataload(0x00))\n      dup1\n      0x7b0472f0\n      gt\n      tag_12\n      jumpi\n      dup1\n      0x7b0472f0\n      eq\n      tag_7\n      jumpi\n      dup1\n      0x9be2f4ed\n      eq\n      tag_8\n      jumpi\n      dup1\n      0xdede8ef6\n      eq\n      tag_9\n      jumpi\n      dup1\n      0xefbabd91\n      eq\n      tag_10\n      jumpi\n      dup1\n      0xf2fde38b\n      eq\n      tag_11\n      jumpi\n      jump(tag_2)\n    tag_12:\n      dup1\n      0x21712697\n      eq\n      tag_3\n      jumpi\n      dup1\n      0x4e71e0c8\n      eq\n      tag_4\n      jumpi\n      dup1\n      0x6d6e31f7\n      eq\n      tag_5\n      jumpi\n      dup1\n      0x74b28101\n      eq\n      tag_6\n      jumpi\n    tag_2:\n      revert(0x00, 0x00)\n        /* \"contracts/StakeXFI.sol\":2306:3232  function withdrawStake(uint8 _index) external reentrancyGuard returns (bool) {... */\n    tag_3:\n      tag_13\n      0x04\n      dup1\n      calldatasize\n      sub\n      dup2\n      add\n      swap1\n      tag_14\n      swap2\n      swap1\n      tag_15\n      jump\t// in\n    tag_14:\n      tag_16\n      jump\t// in\n    tag_13:\n      mload(0x40)\n      tag_17\n      swap2\n      swap1\n      tag_18\n      jump\t// in\n    tag_17:\n      mload(0x40)\n      dup1\n      swap2\n      sub\n      swap1\n      return\n        /* \"contracts/StakeXFI.sol\":4096:4385  function claimOwnership() external {... */\n    tag_4:\n      tag_19\n      tag_20\n      jump\t// in\n    tag_19:\n      stop\n        /* \"contracts/StakeXFI.sol\":3242:3560  function getStakerInfo(uint8 _index) external view returns (Staking memory){... */\n    tag_5:\n      tag_21\n      0x04\n      dup1\n      calldatasize\n      sub\n      dup2\n      add\n      swap1\n      tag_22\n      swap2\n      swap1\n      tag_15\n      jump\t// in\n    tag_22:\n      tag_23\n      jump\t// in\n    tag_21:\n      mload(0x40)\n      tag_24\n      swap2\n      swap1\n      tag_25\n      jump\t// in\n    tag_24:\n      mload(0x40)\n      dup1\n      swap2\n      sub\n      swap1\n      return\n        /* \"contracts/StakeXFI.sol\":111:136  IERC20 public XFIContract */\n    tag_6:\n      tag_26\n      tag_27\n      jump\t// in\n    tag_26:\n      mload(0x40)\n      tag_28\n      swap2\n      swap1\n      tag_29\n      jump\t// in\n    tag_28:\n      mload(0x40)\n      dup1\n      swap2\n      sub\n      swap1\n      return\n        /* \"contracts/StakeXFI.sol\":1396:2295  function stake(uint256 _amount, uint256 _duration) external reentrancyGuard {... */\n    tag_7:\n      tag_30\n      0x04\n      dup1\n      calldatasize\n      sub\n      dup2\n      add\n      swap1\n      tag_31\n      swap2\n      swap1\n      tag_32\n      jump\t// in\n    tag_31:\n      tag_33\n      jump\t// in\n    tag_30:\n      stop\n        /* \"contracts/StakeXFI.sol\":143:168  IERC20 public MPXContract */\n    tag_8:\n      tag_34\n      tag_35\n      jump\t// in\n    tag_34:\n      mload(0x40)\n      tag_36\n      swap2\n      swap1\n      tag_29\n      jump\t// in\n    tag_36:\n      mload(0x40)\n      dup1\n      swap2\n      sub\n      swap1\n      return\n        /* \"contracts/StakeXFI.sol\":3740:3904  function getContractXFIBalance() external onlyOwner view returns (uint256){... */\n    tag_9:\n      tag_37\n      tag_38\n      jump\t// in\n    tag_37:\n      mload(0x40)\n      tag_39\n      swap2\n      swap1\n      tag_40\n      jump\t// in\n    tag_39:\n      mload(0x40)\n      dup1\n      swap2\n      sub\n      swap1\n      return\n        /* \"contracts/StakeXFI.sol\":3568:3732  function getContractMPXBalance() external onlyOwner view returns (uint256){... */\n    tag_10:\n      tag_41\n      tag_42\n      jump\t// in\n    tag_41:\n      mload(0x40)\n      tag_43\n      swap2\n      swap1\n      tag_40\n      jump\t// in\n    tag_43:\n      mload(0x40)\n      dup1\n      swap2\n      sub\n      swap1\n      return\n        /* \"contracts/StakeXFI.sol\":3912:4088  function transferOwnership(address _newOwner) external onlyOwner{... */\n    tag_11:\n      tag_44\n      0x04\n      dup1\n      calldatasize\n      sub\n      dup2\n      add\n      swap1\n      tag_45\n      swap2\n      swap1\n      tag_46\n      jump\t// in\n    tag_45:\n      tag_47\n      jump\t// in\n    tag_44:\n      stop\n        /* \"contracts/StakeXFI.sol\":2306:3232  function withdrawStake(uint8 _index) external reentrancyGuard returns (bool) {... */\n    tag_16:\n        /* \"contracts/StakeXFI.sol\":2377:2381  bool */\n      0x00\n        /* \"contracts/StakeXFI.sol\":1285:1291  locked */\n      0x03\n      0x14\n      swap1\n      sload\n      swap1\n      0x0100\n      exp\n      swap1\n      div\n      0xff\n      and\n        /* \"contracts/StakeXFI.sol\":1284:1291  !locked */\n      iszero\n        /* \"contracts/StakeXFI.sol\":1276:1319  require(!locked, \"Not allowed to re-enter\") */\n      tag_49\n      jumpi\n      mload(0x40)\n      0x08c379a000000000000000000000000000000000000000000000000000000000\n      dup2\n      mstore\n      0x04\n      add\n      tag_50\n      swap1\n      tag_51\n      jump\t// in\n    tag_50:\n      mload(0x40)\n      dup1\n      swap2\n      sub\n      swap1\n      revert\n    tag_49:\n        /* \"contracts/StakeXFI.sol\":1339:1343  true */\n      0x01\n        /* \"contracts/StakeXFI.sol\":1330:1336  locked */\n      0x03\n      0x14\n        /* \"contracts/StakeXFI.sol\":1330:1343  locked = true */\n      0x0100\n      exp\n      dup2\n      sload\n      dup2\n      0xff\n      mul\n      not\n      and\n      swap1\n      dup4\n      iszero\n      iszero\n      mul\n      or\n      swap1\n      sstore\n      pop\n        /* \"contracts/StakeXFI.sol\":2424:2425  0 */\n      0x00\n        /* \"contracts/StakeXFI.sol\":2402:2426  msg.sender != address(0) */\n      0xffffffffffffffffffffffffffffffffffffffff\n      and\n        /* \"contracts/StakeXFI.sol\":2402:2412  msg.sender */\n      caller\n        /* \"contracts/StakeXFI.sol\":2402:2426  msg.sender != address(0) */\n      0xffffffffffffffffffffffffffffffffffffffff\n      and\n      sub\n        /* \"contracts/StakeXFI.sol\":2394:2455  require(msg.sender != address(0), \"Zero address not allowed\") */\n      tag_53\n      jumpi\n      mload(0x40)\n      0x08c379a000000000000000000000000000000000000000000000000000000000\n      dup2\n      mstore\n      0x04\n      add\n      tag_54\n      swap1\n      tag_55\n      jump\t// in\n    tag_54:\n      mload(0x40)\n      dup1\n      swap2\n      sub\n      swap1\n      revert\n    tag_53:\n        /* \"contracts/StakeXFI.sol\":2483:2490  stakers */\n      0x04\n        /* \"contracts/StakeXFI.sol\":2483:2502  stakers[msg.sender] */\n      0x00\n        /* \"contracts/StakeXFI.sol\":2491:2501  msg.sender */\n      caller\n        /* \"contracts/StakeXFI.sol\":2483:2502  stakers[msg.sender] */\n      0xffffffffffffffffffffffffffffffffffffffff\n      and\n      0xffffffffffffffffffffffffffffffffffffffff\n      and\n      dup2\n      mstore\n      0x20\n      add\n      swap1\n      dup2\n      mstore\n      0x20\n      add\n      0x00\n      keccak256\n        /* \"contracts/StakeXFI.sol\":2483:2509  stakers[msg.sender].length */\n      dup1\n      sload\n      swap1\n      pop\n        /* \"contracts/StakeXFI.sol\":2474:2480  _index */\n      dup3\n        /* \"contracts/StakeXFI.sol\":2474:2509  _index < stakers[msg.sender].length */\n      0xff\n      and\n      lt\n        /* \"contracts/StakeXFI.sol\":2466:2526  require(_index < stakers[msg.sender].length, \"Out of range\") */\n      tag_56\n      jumpi\n      mload(0x40)\n      0x08c379a000000000000000000000000000000000000000000000000000000000\n      dup2\n      mstore\n      0x04\n      add\n      tag_57\n      swap1\n      tag_58\n      jump\t// in\n    tag_57:\n      mload(0x40)\n      dup1\n      swap2\n      sub\n      swap1\n      revert\n    tag_56:\n        /* \"contracts/StakeXFI.sol\":2539:2562  Staking storage staking */\n      0x00\n        /* \"contracts/StakeXFI.sol\":2565:2572  stakers */\n      0x04\n        /* \"contracts/StakeXFI.sol\":2565:2584  stakers[msg.sender] */\n      0x00\n        /* \"contracts/StakeXFI.sol\":2573:2583  msg.sender */\n      caller\n        /* \"contracts/StakeXFI.sol\":2565:2584  stakers[msg.sender] */\n      0xffffffffffffffffffffffffffffffffffffffff\n      and\n      0xffffffffffffffffffffffffffffffffffffffff\n      and\n      dup2\n      mstore\n      0x20\n      add\n      swap1\n      dup2\n      mstore\n      0x20\n      add\n      0x00\n      keccak256\n        /* \"contracts/StakeXFI.sol\":2585:2591  _index */\n      dup4\n        /* \"contracts/StakeXFI.sol\":2565:2592  stakers[msg.sender][_index] */\n      0xff\n      and\n      dup2\n      sload\n      dup2\n      lt\n      tag_59\n      jumpi\n      tag_60\n      tag_61\n      jump\t// in\n    tag_60:\n    tag_59:\n      swap1\n      0x00\n      mstore\n      keccak256(0x00, 0x20)\n      swap1\n      0x04\n      mul\n      add\n        /* \"contracts/StakeXFI.sol\":2539:2592  Staking storage staking = stakers[msg.sender][_index] */\n      swap1\n      pop\n        /* \"contracts/StakeXFI.sol\":2631:2638  staking */\n      dup1\n        /* \"contracts/StakeXFI.sol\":2631:2647  staking.duration */\n      0x02\n      add\n      sload\n        /* \"contracts/StakeXFI.sol\":2613:2628  block.timestamp */\n      timestamp\n        /* \"contracts/StakeXFI.sol\":2613:2647  block.timestamp > staking.duration */\n      gt\n        /* \"contracts/StakeXFI.sol\":2605:2664  require(block.timestamp > staking.duration, \"Not yet time\") */\n      tag_63\n      jumpi\n      mload(0x40)\n      0x08c379a000000000000000000000000000000000000000000000000000000000\n      dup2\n      mstore\n      0x04\n      add\n      tag_64\n      swap1\n      tag_65\n      jump\t// in\n    tag_64:\n      mload(0x40)\n      dup1\n      swap2\n      sub\n      swap1\n      revert\n    tag_63:\n        /* \"contracts/StakeXFI.sol\":2684:2691  staking */\n      dup1\n        /* \"contracts/StakeXFI.sol\":2684:2704  staking.hasWithdrawn */\n      0x03\n      add\n      0x00\n      swap1\n      sload\n      swap1\n      0x0100\n      exp\n      swap1\n      div\n      0xff\n      and\n        /* \"contracts/StakeXFI.sol\":2683:2704  !staking.hasWithdrawn */\n      iszero\n        /* \"contracts/StakeXFI.sol\":2675:2732  require(!staking.hasWithdrawn, \"Stake already withdrawn\") */\n      tag_66\n      jumpi\n      mload(0x40)\n      0x08c379a000000000000000000000000000000000000000000000000000000000\n      dup2\n      mstore\n      0x04\n      add\n      tag_67\n      swap1\n      tag_68\n      jump\t// in\n    tag_67:\n      mload(0x40)\n      dup1\n      swap2\n      sub\n      swap1\n      revert\n    tag_66:\n        /* \"contracts/StakeXFI.sol\":2745:2766  uint256 amountStaked_ */\n      0x00\n        /* \"contracts/StakeXFI.sol\":2769:2776  staking */\n      dup2\n        /* \"contracts/StakeXFI.sol\":2769:2783  staking.amount */\n      0x00\n      add\n      sload\n        /* \"contracts/StakeXFI.sol\":2745:2783  uint256 amountStaked_ = staking.amount */\n      swap1\n      pop\n        /* \"contracts/StakeXFI.sol\":2794:2815  uint256 rewardAmount_ */\n      0x00\n        /* \"contracts/StakeXFI.sol\":2818:2870  calculateReward(staking.startTime, staking.duration) */\n      tag_69\n        /* \"contracts/StakeXFI.sol\":2834:2841  staking */\n      dup4\n        /* \"contracts/StakeXFI.sol\":2834:2851  staking.startTime */\n      0x01\n      add\n      sload\n        /* \"contracts/StakeXFI.sol\":2853:2860  staking */\n      dup5\n        /* \"contracts/StakeXFI.sol\":2853:2869  staking.duration */\n      0x02\n      add\n      sload\n        /* \"contracts/StakeXFI.sol\":2818:2833  calculateReward */\n      tag_70\n        /* \"contracts/StakeXFI.sol\":2818:2870  calculateReward(staking.startTime, staking.duration) */\n      jump\t// in\n    tag_69:\n        /* \"contracts/StakeXFI.sol\":2794:2870  uint256 rewardAmount_ = calculateReward(staking.startTime, staking.duration) */\n      swap1\n      pop\n        /* \"contracts/StakeXFI.sol\":2906:2910  true */\n      0x01\n        /* \"contracts/StakeXFI.sol\":2883:2890  staking */\n      dup4\n        /* \"contracts/StakeXFI.sol\":2883:2903  staking.hasWithdrawn */\n      0x03\n      add\n      0x00\n        /* \"contracts/StakeXFI.sol\":2883:2910  staking.hasWithdrawn = true */\n      0x0100\n      exp\n      dup2\n      sload\n      dup2\n      0xff\n      mul\n      not\n      and\n      swap1\n      dup4\n      iszero\n      iszero\n      mul\n      or\n      swap1\n      sstore\n      pop\n        /* \"contracts/StakeXFI.sol\":2938:2939  0 */\n      0x00\n        /* \"contracts/StakeXFI.sol\":2921:2928  staking */\n      dup4\n        /* \"contracts/StakeXFI.sol\":2921:2935  staking.amount */\n      0x00\n      add\n        /* \"contracts/StakeXFI.sol\":2921:2939  staking.amount = 0 */\n      dup2\n      swap1\n      sstore\n      pop\n        /* \"contracts/StakeXFI.sol\":2970:2971  0 */\n      0x00\n        /* \"contracts/StakeXFI.sol\":2950:2957  staking */\n      dup4\n        /* \"contracts/StakeXFI.sol\":2950:2967  staking.startTime */\n      0x01\n      add\n        /* \"contracts/StakeXFI.sol\":2950:2971  staking.startTime = 0 */\n      dup2\n      swap1\n      sstore\n      pop\n        /* \"contracts/StakeXFI.sol\":3001:3002  0 */\n      0x00\n        /* \"contracts/StakeXFI.sol\":2982:2989  staking */\n      dup4\n        /* \"contracts/StakeXFI.sol\":2982:2998  staking.duration */\n      0x02\n      add\n        /* \"contracts/StakeXFI.sol\":2982:3002  staking.duration = 0 */\n      dup2\n      swap1\n      sstore\n      pop\n        /* \"contracts/StakeXFI.sol\":3015:3026  XFIContract */\n      0x00\n      0x00\n      swap1\n      sload\n      swap1\n      0x0100\n      exp\n      swap1\n      div\n      0xffffffffffffffffffffffffffffffffffffffff\n      and\n        /* \"contracts/StakeXFI.sol\":3015:3035  XFIContract.transfer */\n      0xffffffffffffffffffffffffffffffffffffffff\n      and\n      0xa9059cbb\n        /* \"contracts/StakeXFI.sol\":3036:3046  msg.sender */\n      caller\n        /* \"contracts/StakeXFI.sol\":3048:3061  amountStaked_ */\n      dup5\n        /* \"contracts/StakeXFI.sol\":3015:3062  XFIContract.transfer(msg.sender, amountStaked_) */\n      mload(0x40)\n      dup4\n      0xffffffff\n      and\n      0xe0\n      shl\n      dup2\n      mstore\n      0x04\n      add\n      tag_71\n      swap3\n      swap2\n      swap1\n      tag_72\n      jump\t// in\n    tag_71:\n      0x20\n      mload(0x40)\n      dup1\n      dup4\n      sub\n      dup2\n      0x00\n      dup8\n      gas\n      call\n      iszero\n      dup1\n      iszero\n      tag_74\n      jumpi\n      returndatacopy(0x00, 0x00, returndatasize)\n      revert(0x00, returndatasize)\n    tag_74:\n      pop\n      pop\n      pop\n      pop\n      mload(0x40)\n      returndatasize\n      not(0x1f)\n      0x1f\n      dup3\n      add\n      and\n      dup3\n      add\n      dup1\n      0x40\n      mstore\n      pop\n      dup2\n      add\n      swap1\n      tag_75\n      swap2\n      swap1\n      tag_76\n      jump\t// in\n    tag_75:\n      pop\n        /* \"contracts/StakeXFI.sol\":3073:3084  MPXContract */\n      0x01\n      0x00\n      swap1\n      sload\n      swap1\n      0x0100\n      exp\n      swap1\n      div\n      0xffffffffffffffffffffffffffffffffffffffff\n      and\n        /* \"contracts/StakeXFI.sol\":3073:3093  MPXContract.transfer */\n      0xffffffffffffffffffffffffffffffffffffffff\n      and\n      0xa9059cbb\n        /* \"contracts/StakeXFI.sol\":3094:3104  msg.sender */\n      caller\n        /* \"contracts/StakeXFI.sol\":3106:3119  rewardAmount_ */\n      dup4\n        /* \"contracts/StakeXFI.sol\":3073:3120  MPXContract.transfer(msg.sender, rewardAmount_) */\n      mload(0x40)\n      dup4\n      0xffffffff\n      and\n      0xe0\n      shl\n      dup2\n      mstore\n      0x04\n      add\n      tag_77\n      swap3\n      swap2\n      swap1\n      tag_72\n      jump\t// in\n    tag_77:\n      0x20\n      mload(0x40)\n      dup1\n      dup4\n      sub\n      dup2\n      0x00\n      dup8\n      gas\n      call\n      iszero\n      dup1\n      iszero\n      tag_79\n      jumpi\n      returndatacopy(0x00, 0x00, returndatasize)\n      revert(0x00, returndatasize)\n    tag_79:\n      pop\n      pop\n      pop\n      pop\n      mload(0x40)\n      returndatasize\n      not(0x1f)\n      0x1f\n      dup3\n      add\n      and\n      dup3\n      add\n      dup1\n      0x40\n      mstore\n      pop\n      dup2\n      add\n      swap1\n      tag_80\n      swap2\n      swap1\n      tag_76\n      jump\t// in\n    tag_80:\n      pop\n        /* \"contracts/StakeXFI.sol\":3186:3199  rewardAmount_ */\n      dup1\n        /* \"contracts/StakeXFI.sol\":3159:3169  msg.sender */\n      caller\n        /* \"contracts/StakeXFI.sol\":3138:3200  WithdrawalSuccessful(msg.sender, amountStaked_, rewardAmount_) */\n      0xffffffffffffffffffffffffffffffffffffffff\n      and\n      0xfb59733a8f0bd43414922fb86c6ffdd090e44935074086318980ca89221acc56\n        /* \"contracts/StakeXFI.sol\":3171:3184  amountStaked_ */\n      dup5\n        /* \"contracts/StakeXFI.sol\":3138:3200  WithdrawalSuccessful(msg.sender, amountStaked_, rewardAmount_) */\n      mload(0x40)\n      tag_81\n      swap2\n      swap1\n      tag_40\n      jump\t// in\n    tag_81:\n      mload(0x40)\n      dup1\n      swap2\n      sub\n      swap1\n      log3\n        /* \"contracts/StakeXFI.sol\":3220:3224  true */\n      0x01\n        /* \"contracts/StakeXFI.sol\":3213:3224  return true */\n      swap4\n      pop\n      pop\n      pop\n      pop\n        /* \"contracts/StakeXFI.sol\":1375:1380  false */\n      0x00\n        /* \"contracts/StakeXFI.sol\":1366:1372  locked */\n      0x03\n      0x14\n        /* \"contracts/StakeXFI.sol\":1366:1380  locked = false */\n      0x0100\n      exp\n      dup2\n      sload\n      dup2\n      0xff\n      mul\n      not\n      and\n      swap1\n      dup4\n      iszero\n      iszero\n      mul\n      or\n      swap1\n      sstore\n      pop\n        /* \"contracts/StakeXFI.sol\":2306:3232  function withdrawStake(uint8 _index) external reentrancyGuard returns (bool) {... */\n      swap2\n      swap1\n      pop\n      jump\t// out\n        /* \"contracts/StakeXFI.sol\":4096:4385  function claimOwnership() external {... */\n    tag_20:\n        /* \"contracts/StakeXFI.sol\":4172:4173  0 */\n      0x00\n        /* \"contracts/StakeXFI.sol\":4150:4174  msg.sender != address(0) */\n      0xffffffffffffffffffffffffffffffffffffffff\n      and\n        /* \"contracts/StakeXFI.sol\":4150:4160  msg.sender */\n      caller\n        /* \"contracts/StakeXFI.sol\":4150:4174  msg.sender != address(0) */\n      0xffffffffffffffffffffffffffffffffffffffff\n      and\n      sub\n        /* \"contracts/StakeXFI.sol\":4142:4203  require(msg.sender != address(0), \"Zero address not allowed\") */\n      tag_83\n      jumpi\n      mload(0x40)\n      0x08c379a000000000000000000000000000000000000000000000000000000000\n      dup2\n      mstore\n      0x04\n      add\n      tag_84\n      swap1\n      tag_55\n      jump\t// in\n    tag_84:\n      mload(0x40)\n      dup1\n      swap2\n      sub\n      swap1\n      revert\n    tag_83:\n        /* \"contracts/StakeXFI.sol\":4236:4244  newOwner */\n      0x03\n      0x00\n      swap1\n      sload\n      swap1\n      0x0100\n      exp\n      swap1\n      div\n      0xffffffffffffffffffffffffffffffffffffffff\n      and\n        /* \"contracts/StakeXFI.sol\":4222:4244  msg.sender == newOwner */\n      0xffffffffffffffffffffffffffffffffffffffff\n      and\n        /* \"contracts/StakeXFI.sol\":4222:4232  msg.sender */\n      caller\n        /* \"contracts/StakeXFI.sol\":4222:4244  msg.sender == newOwner */\n      0xffffffffffffffffffffffffffffffffffffffff\n      and\n      eq\n        /* \"contracts/StakeXFI.sol\":4214:4262  require(msg.sender == newOwner, \"Not your turn\") */\n      tag_85\n      jumpi\n      mload(0x40)\n      0x08c379a000000000000000000000000000000000000000000000000000000000\n      dup2\n      mstore\n      0x04\n      add\n      tag_86\n      swap1\n      tag_87\n      jump\t// in\n    tag_86:\n      mload(0x40)\n      dup1\n      swap2\n      sub\n      swap1\n      revert\n    tag_85:\n        /* \"contracts/StakeXFI.sol\":4307:4315  newOwner */\n      0x03\n      0x00\n      swap1\n      sload\n      swap1\n      0x0100\n      exp\n      swap1\n      div\n      0xffffffffffffffffffffffffffffffffffffffff\n      and\n        /* \"contracts/StakeXFI.sol\":4280:4316  OwnershipTransfered(owner, newOwner) */\n      0xffffffffffffffffffffffffffffffffffffffff\n      and\n        /* \"contracts/StakeXFI.sol\":4300:4305  owner */\n      0x02\n      0x00\n      swap1\n      sload\n      swap1\n      0x0100\n      exp\n      swap1\n      div\n      0xffffffffffffffffffffffffffffffffffffffff\n      and\n        /* \"contracts/StakeXFI.sol\":4280:4316  OwnershipTransfered(owner, newOwner) */\n      0xffffffffffffffffffffffffffffffffffffffff\n      and\n      0x0d18b5fd22306e373229b9439188228edca81207d1667f604daf6cef8aa3ee67\n      mload(0x40)\n      mload(0x40)\n      dup1\n      swap2\n      sub\n      swap1\n      log3\n        /* \"contracts/StakeXFI.sol\":4337:4345  newOwner */\n      0x03\n      0x00\n      swap1\n      sload\n      swap1\n      0x0100\n      exp\n      swap1\n      div\n      0xffffffffffffffffffffffffffffffffffffffff\n      and\n        /* \"contracts/StakeXFI.sol\":4329:4334  owner */\n      0x02\n      0x00\n        /* \"contracts/StakeXFI.sol\":4329:4345  owner = newOwner */\n      0x0100\n      exp\n      dup2\n      sload\n      dup2\n      0xffffffffffffffffffffffffffffffffffffffff\n      mul\n      not\n      and\n      swap1\n      dup4\n      0xffffffffffffffffffffffffffffffffffffffff\n      and\n      mul\n      or\n      swap1\n      sstore\n      pop\n        /* \"contracts/StakeXFI.sol\":4375:4376  0 */\n      0x00\n        /* \"contracts/StakeXFI.sol\":4356:4364  newOwner */\n      0x03\n      0x00\n        /* \"contracts/StakeXFI.sol\":4356:4377  newOwner = address(0) */\n      0x0100\n      exp\n      dup2\n      sload\n      dup2\n      0xffffffffffffffffffffffffffffffffffffffff\n      mul\n      not\n      and\n      swap1\n      dup4\n      0xffffffffffffffffffffffffffffffffffffffff\n      and\n      mul\n      or\n      swap1\n      sstore\n      pop\n        /* \"contracts/StakeXFI.sol\":4096:4385  function claimOwnership() external {... */\n      jump\t// out\n        /* \"contracts/StakeXFI.sol\":3242:3560  function getStakerInfo(uint8 _index) external view returns (Staking memory){... */\n    tag_23:\n        /* \"contracts/StakeXFI.sol\":3302:3316  Staking memory */\n      tag_88\n      tag_89\n      jump\t// in\n    tag_88:\n        /* \"contracts/StakeXFI.sol\":3358:3359  0 */\n      0x00\n        /* \"contracts/StakeXFI.sol\":3336:3360  msg.sender != address(0) */\n      0xffffffffffffffffffffffffffffffffffffffff\n      and\n        /* \"contracts/StakeXFI.sol\":3336:3346  msg.sender */\n      caller\n        /* \"contracts/StakeXFI.sol\":3336:3360  msg.sender != address(0) */\n      0xffffffffffffffffffffffffffffffffffffffff\n      and\n      sub\n        /* \"contracts/StakeXFI.sol\":3328:3389  require(msg.sender != address(0), \"Zero address not allowed\") */\n      tag_91\n      jumpi\n      mload(0x40)\n      0x08c379a000000000000000000000000000000000000000000000000000000000\n      dup2\n      mstore\n      0x04\n      add\n      tag_92\n      swap1\n      tag_55\n      jump\t// in\n    tag_92:\n      mload(0x40)\n      dup1\n      swap2\n      sub\n      swap1\n      revert\n    tag_91:\n        /* \"contracts/StakeXFI.sol\":3419:3426  stakers */\n      0x04\n        /* \"contracts/StakeXFI.sol\":3419:3438  stakers[msg.sender] */\n      0x00\n        /* \"contracts/StakeXFI.sol\":3427:3437  msg.sender */\n      caller\n        /* \"contracts/StakeXFI.sol\":3419:3438  stakers[msg.sender] */\n      0xffffffffffffffffffffffffffffffffffffffff\n      and\n      0xffffffffffffffffffffffffffffffffffffffff\n      and\n      dup2\n      mstore\n      0x20\n      add\n      swap1\n      dup2\n      mstore\n      0x20\n      add\n      0x00\n      keccak256\n        /* \"contracts/StakeXFI.sol\":3419:3445  stakers[msg.sender].length */\n      dup1\n      sload\n      swap1\n      pop\n        /* \"contracts/StakeXFI.sol\":3410:3416  _index */\n      dup3\n        /* \"contracts/StakeXFI.sol\":3410:3445  _index < stakers[msg.sender].length */\n      0xff\n      and\n      lt\n        /* \"contracts/StakeXFI.sol\":3402:3462  require(_index < stakers[msg.sender].length, \"Out of range\") */\n      tag_93\n      jumpi\n      mload(0x40)\n      0x08c379a000000000000000000000000000000000000000000000000000000000\n      dup2\n      mstore\n      0x04\n      add\n      tag_94\n      swap1\n      tag_58\n      jump\t// in\n    tag_94:\n      mload(0x40)\n      dup1\n      swap2\n      sub\n      swap1\n      revert\n    tag_93:\n        /* \"contracts/StakeXFI.sol\":3475:3497  Staking memory staking */\n      0x00\n        /* \"contracts/StakeXFI.sol\":3500:3507  stakers */\n      0x04\n        /* \"contracts/StakeXFI.sol\":3500:3519  stakers[msg.sender] */\n      0x00\n        /* \"contracts/StakeXFI.sol\":3508:3518  msg.sender */\n      caller\n        /* \"contracts/StakeXFI.sol\":3500:3519  stakers[msg.sender] */\n      0xffffffffffffffffffffffffffffffffffffffff\n      and\n      0xffffffffffffffffffffffffffffffffffffffff\n      and\n      dup2\n      mstore\n      0x20\n      add\n      swap1\n      dup2\n      mstore\n      0x20\n      add\n      0x00\n      keccak256\n        /* \"contracts/StakeXFI.sol\":3520:3526  _index */\n      dup4\n        /* \"contracts/StakeXFI.sol\":3500:3527  stakers[msg.sender][_index] */\n      0xff\n      and\n      dup2\n      sload\n      dup2\n      lt\n      tag_95\n      jumpi\n      tag_96\n      tag_61\n      jump\t// in\n    tag_96:\n    tag_95:\n      swap1\n      0x00\n      mstore\n      keccak256(0x00, 0x20)\n      swap1\n      0x04\n      mul\n      add\n        /* \"contracts/StakeXFI.sol\":3475:3527  Staking memory staking = stakers[msg.sender][_index] */\n      mload(0x40)\n      dup1\n      0x80\n      add\n      0x40\n      mstore\n      swap1\n      dup2\n      0x00\n      dup3\n      add\n      sload\n      dup2\n      mstore\n      0x20\n      add\n      0x01\n      dup3\n      add\n      sload\n      dup2\n      mstore\n      0x20\n      add\n      0x02\n      dup3\n      add\n      sload\n      dup2\n      mstore\n      0x20\n      add\n      0x03\n      dup3\n      add\n      0x00\n      swap1\n      sload\n      swap1\n      0x0100\n      exp\n      swap1\n      div\n      0xff\n      and\n      iszero\n      iszero\n      iszero\n      iszero\n      dup2\n      mstore\n      pop\n      pop\n      swap1\n      pop\n        /* \"contracts/StakeXFI.sol\":3545:3552  staking */\n      dup1\n        /* \"contracts/StakeXFI.sol\":3538:3552  return staking */\n      swap2\n      pop\n      pop\n        /* \"contracts/StakeXFI.sol\":3242:3560  function getStakerInfo(uint8 _index) external view returns (Staking memory){... */\n      swap2\n      swap1\n      pop\n      jump\t// out\n        /* \"contracts/StakeXFI.sol\":111:136  IERC20 public XFIContract */\n    tag_27:\n      0x00\n      0x00\n      swap1\n      sload\n      swap1\n      0x0100\n      exp\n      swap1\n      div\n      0xffffffffffffffffffffffffffffffffffffffff\n      and\n      dup2\n      jump\t// out\n        /* \"contracts/StakeXFI.sol\":1396:2295  function stake(uint256 _amount, uint256 _duration) external reentrancyGuard {... */\n    tag_33:\n        /* \"contracts/StakeXFI.sol\":1285:1291  locked */\n      0x03\n      0x14\n      swap1\n      sload\n      swap1\n      0x0100\n      exp\n      swap1\n      div\n      0xff\n      and\n        /* \"contracts/StakeXFI.sol\":1284:1291  !locked */\n      iszero\n        /* \"contracts/StakeXFI.sol\":1276:1319  require(!locked, \"Not allowed to re-enter\") */\n      tag_99\n      jumpi\n      mload(0x40)\n      0x08c379a000000000000000000000000000000000000000000000000000000000\n      dup2\n      mstore\n      0x04\n      add\n      tag_100\n      swap1\n      tag_51\n      jump\t// in\n    tag_100:\n      mload(0x40)\n      dup1\n      swap2\n      sub\n      swap1\n      revert\n    tag_99:\n        /* \"contracts/StakeXFI.sol\":1339:1343  true */\n      0x01\n        /* \"contracts/StakeXFI.sol\":1330:1336  locked */\n      0x03\n      0x14\n        /* \"contracts/StakeXFI.sol\":1330:1343  locked = true */\n      0x0100\n      exp\n      dup2\n      sload\n      dup2\n      0xff\n      mul\n      not\n      and\n      swap1\n      dup4\n      iszero\n      iszero\n      mul\n      or\n      swap1\n      sstore\n      pop\n        /* \"contracts/StakeXFI.sol\":1513:1514  0 */\n      0x00\n        /* \"contracts/StakeXFI.sol\":1491:1515  msg.sender != address(0) */\n      0xffffffffffffffffffffffffffffffffffffffff\n      and\n        /* \"contracts/StakeXFI.sol\":1491:1501  msg.sender */\n      caller\n        /* \"contracts/StakeXFI.sol\":1491:1515  msg.sender != address(0) */\n      0xffffffffffffffffffffffffffffffffffffffff\n      and\n      sub\n        /* \"contracts/StakeXFI.sol\":1483:1544  require(msg.sender != address(0), \"Zero address not allowed\") */\n      tag_102\n      jumpi\n      mload(0x40)\n      0x08c379a000000000000000000000000000000000000000000000000000000000\n      dup2\n      mstore\n      0x04\n      add\n      tag_103\n      swap1\n      tag_55\n      jump\t// in\n    tag_103:\n      mload(0x40)\n      dup1\n      swap2\n      sub\n      swap1\n      revert\n    tag_102:\n        /* \"contracts/StakeXFI.sol\":1576:1596  MINIMUM_STAKE_AMOUNT */\n      immutable(\"0x4393e7114eb674248a1480712950c28cb06e118e040859a2eafa3ca8a6dfbd69\")\n        /* \"contracts/StakeXFI.sol\":1565:1572  _amount */\n      dup3\n        /* \"contracts/StakeXFI.sol\":1565:1596  _amount >= MINIMUM_STAKE_AMOUNT */\n      lt\n      iszero\n        /* \"contracts/StakeXFI.sol\":1565:1631  _amount >= MINIMUM_STAKE_AMOUNT && _amount <= MAXIMUM_STAKE_AMOUNT */\n      dup1\n      iszero\n      tag_104\n      jumpi\n      pop\n        /* \"contracts/StakeXFI.sol\":1611:1631  MAXIMUM_STAKE_AMOUNT */\n      immutable(\"0xc41c8390c0da0418b7667ee0df6c246c26c4be6c0618368dce5a916e8008b0db\")\n        /* \"contracts/StakeXFI.sol\":1600:1607  _amount */\n      dup3\n        /* \"contracts/StakeXFI.sol\":1600:1631  _amount <= MAXIMUM_STAKE_AMOUNT */\n      gt\n      iszero\n        /* \"contracts/StakeXFI.sol\":1565:1631  _amount >= MINIMUM_STAKE_AMOUNT && _amount <= MAXIMUM_STAKE_AMOUNT */\n    tag_104:\n        /* \"contracts/StakeXFI.sol\":1557:1658  require(_amount >= MINIMUM_STAKE_AMOUNT && _amount <= MAXIMUM_STAKE_AMOUNT, \"Amount is out of range\") */\n      tag_105\n      jumpi\n      mload(0x40)\n      0x08c379a000000000000000000000000000000000000000000000000000000000\n      dup2\n      mstore\n      0x04\n      add\n      tag_106\n      swap1\n      tag_107\n      jump\t// in\n    tag_106:\n      mload(0x40)\n      dup1\n      swap2\n      sub\n      swap1\n      revert\n    tag_105:\n        /* \"contracts/StakeXFI.sol\":1691:1692  0 */\n      0x00\n        /* \"contracts/StakeXFI.sol\":1679:1688  _duration */\n      dup2\n        /* \"contracts/StakeXFI.sol\":1679:1692  _duration > 0 */\n      gt\n        /* \"contracts/StakeXFI.sol\":1671:1718  require(_duration > 0, \"Duration is too short\") */\n      tag_108\n      jumpi\n      mload(0x40)\n      0x08c379a000000000000000000000000000000000000000000000000000000000\n      dup2\n      mstore\n      0x04\n      add\n      tag_109\n      swap1\n      tag_110\n      jump\t// in\n    tag_109:\n      mload(0x40)\n      dup1\n      swap2\n      sub\n      swap1\n      revert\n    tag_108:\n        /* \"contracts/StakeXFI.sol\":1776:1783  _amount */\n      dup2\n        /* \"contracts/StakeXFI.sol\":1739:1750  XFIContract */\n      0x00\n      0x00\n      swap1\n      sload\n      swap1\n      0x0100\n      exp\n      swap1\n      div\n      0xffffffffffffffffffffffffffffffffffffffff\n      and\n        /* \"contracts/StakeXFI.sol\":1739:1760  XFIContract.balanceOf */\n      0xffffffffffffffffffffffffffffffffffffffff\n      and\n      0x70a08231\n        /* \"contracts/StakeXFI.sol\":1761:1771  msg.sender */\n      caller\n        /* \"contracts/StakeXFI.sol\":1739:1772  XFIContract.balanceOf(msg.sender) */\n      mload(0x40)\n      dup3\n      0xffffffff\n      and\n      0xe0\n      shl\n      dup2\n      mstore\n      0x04\n      add\n      tag_111\n      swap2\n      swap1\n      tag_112\n      jump\t// in\n    tag_111:\n      0x20\n      mload(0x40)\n      dup1\n      dup4\n      sub\n      dup2\n      dup7\n      gas\n      staticcall\n      iszero\n      dup1\n      iszero\n      tag_114\n      jumpi\n      returndatacopy(0x00, 0x00, returndatasize)\n      revert(0x00, returndatasize)\n    tag_114:\n      pop\n      pop\n      pop\n      pop\n      mload(0x40)\n      returndatasize\n      not(0x1f)\n      0x1f\n      dup3\n      add\n      and\n      dup3\n      add\n      dup1\n      0x40\n      mstore\n      pop\n      dup2\n      add\n      swap1\n      tag_115\n      swap2\n      swap1\n      tag_116\n      jump\t// in\n    tag_115:\n        /* \"contracts/StakeXFI.sol\":1739:1783  XFIContract.balanceOf(msg.sender) >= _amount */\n      lt\n      iszero\n        /* \"contracts/StakeXFI.sol\":1731:1809  require(XFIContract.balanceOf(msg.sender) >= _amount, \"You don't have enough\") */\n      tag_117\n      jumpi\n      mload(0x40)\n      0x08c379a000000000000000000000000000000000000000000000000000000000\n      dup2\n      mstore\n      0x04\n      add\n      tag_118\n      swap1\n      tag_119\n      jump\t// in\n    tag_118:\n      mload(0x40)\n      dup1\n      swap2\n      sub\n      swap1\n      revert\n    tag_117:\n        /* \"contracts/StakeXFI.sol\":1882:1889  _amount */\n      dup2\n        /* \"contracts/StakeXFI.sol\":1830:1841  XFIContract */\n      0x00\n      0x00\n      swap1\n      sload\n      swap1\n      0x0100\n      exp\n      swap1\n      div\n      0xffffffffffffffffffffffffffffffffffffffff\n      and\n        /* \"contracts/StakeXFI.sol\":1830:1851  XFIContract.allowance */\n      0xffffffffffffffffffffffffffffffffffffffff\n      and\n      0xdd62ed3e\n        /* \"contracts/StakeXFI.sol\":1852:1862  msg.sender */\n      caller\n        /* \"contracts/StakeXFI.sol\":1872:1876  this */\n      address\n        /* \"contracts/StakeXFI.sol\":1830:1878  XFIContract.allowance(msg.sender, address(this)) */\n      mload(0x40)\n      dup4\n      0xffffffff\n      and\n      0xe0\n      shl\n      dup2\n      mstore\n      0x04\n      add\n      tag_120\n      swap3\n      swap2\n      swap1\n      tag_121\n      jump\t// in\n    tag_120:\n      0x20\n      mload(0x40)\n      dup1\n      dup4\n      sub\n      dup2\n      dup7\n      gas\n      staticcall\n      iszero\n      dup1\n      iszero\n      tag_123\n      jumpi\n      returndatacopy(0x00, 0x00, returndatasize)\n      revert(0x00, returndatasize)\n    tag_123:\n      pop\n      pop\n      pop\n      pop\n      mload(0x40)\n      returndatasize\n      not(0x1f)\n      0x1f\n      dup3\n      add\n      and\n      dup3\n      add\n      dup1\n      0x40\n      mstore\n      pop\n      dup2\n      add\n      swap1\n      tag_124\n      swap2\n      swap1\n      tag_116\n      jump\t// in\n    tag_124:\n        /* \"contracts/StakeXFI.sol\":1830:1889  XFIContract.allowance(msg.sender, address(this)) >= _amount */\n      lt\n      iszero\n        /* \"contracts/StakeXFI.sol\":1822:1922  require(XFIContract.allowance(msg.sender, address(this)) >= _amount, \"Amount allowed is not enough\") */\n      tag_125\n      jumpi\n      mload(0x40)\n      0x08c379a000000000000000000000000000000000000000000000000000000000\n      dup2\n      mstore\n      0x04\n      add\n      tag_126\n      swap1\n      tag_127\n      jump\t// in\n    tag_126:\n      mload(0x40)\n      dup1\n      swap2\n      sub\n      swap1\n      revert\n    tag_125:\n        /* \"contracts/StakeXFI.sol\":1935:1946  XFIContract */\n      0x00\n      0x00\n      swap1\n      sload\n      swap1\n      0x0100\n      exp\n      swap1\n      div\n      0xffffffffffffffffffffffffffffffffffffffff\n      and\n        /* \"contracts/StakeXFI.sol\":1935:1959  XFIContract.transferFrom */\n      0xffffffffffffffffffffffffffffffffffffffff\n      and\n      0x23b872dd\n        /* \"contracts/StakeXFI.sol\":1960:1970  msg.sender */\n      caller\n        /* \"contracts/StakeXFI.sol\":1980:1984  this */\n      address\n        /* \"contracts/StakeXFI.sol\":1987:1994  _amount */\n      dup6\n        /* \"contracts/StakeXFI.sol\":1935:1995  XFIContract.transferFrom(msg.sender, address(this), _amount) */\n      mload(0x40)\n      dup5\n      0xffffffff\n      and\n      0xe0\n      shl\n      dup2\n      mstore\n      0x04\n      add\n      tag_128\n      swap4\n      swap3\n      swap2\n      swap1\n      tag_129\n      jump\t// in\n    tag_128:\n      0x20\n      mload(0x40)\n      dup1\n      dup4\n      sub\n      dup2\n      0x00\n      dup8\n      gas\n      call\n      iszero\n      dup1\n      iszero\n      tag_131\n      jumpi\n      returndatacopy(0x00, 0x00, returndatasize)\n      revert(0x00, returndatasize)\n    tag_131:\n      pop\n      pop\n      pop\n      pop\n      mload(0x40)\n      returndatasize\n      not(0x1f)\n      0x1f\n      dup3\n      add\n      and\n      dup3\n      add\n      dup1\n      0x40\n      mstore\n      pop\n      dup2\n      add\n      swap1\n      tag_132\n      swap2\n      swap1\n      tag_76\n      jump\t// in\n    tag_132:\n      pop\n        /* \"contracts/StakeXFI.sol\":2008:2030  Staking memory staking */\n      tag_133\n      tag_89\n      jump\t// in\n    tag_133:\n        /* \"contracts/StakeXFI.sol\":2058:2065  _amount */\n      dup3\n        /* \"contracts/StakeXFI.sol\":2041:2048  staking */\n      dup2\n        /* \"contracts/StakeXFI.sol\":2041:2055  staking.amount */\n      0x00\n      add\n        /* \"contracts/StakeXFI.sol\":2041:2065  staking.amount = _amount */\n      dup2\n      dup2\n      mstore\n      pop\n      pop\n        /* \"contracts/StakeXFI.sol\":2113:2122  _duration */\n      dup2\n        /* \"contracts/StakeXFI.sol\":2095:2110  block.timestamp */\n      timestamp\n        /* \"contracts/StakeXFI.sol\":2095:2122  block.timestamp + _duration */\n      tag_134\n      swap2\n      swap1\n      tag_135\n      jump\t// in\n    tag_134:\n        /* \"contracts/StakeXFI.sol\":2076:2083  staking */\n      dup2\n        /* \"contracts/StakeXFI.sol\":2076:2092  staking.duration */\n      0x40\n      add\n        /* \"contracts/StakeXFI.sol\":2076:2122  staking.duration = block.timestamp + _duration */\n      dup2\n      dup2\n      mstore\n      pop\n      pop\n        /* \"contracts/StakeXFI.sol\":2153:2168  block.timestamp */\n      timestamp\n        /* \"contracts/StakeXFI.sol\":2133:2140  staking */\n      dup2\n        /* \"contracts/StakeXFI.sol\":2133:2150  staking.startTime */\n      0x20\n      add\n        /* \"contracts/StakeXFI.sol\":2133:2168  staking.startTime = block.timestamp */\n      dup2\n      dup2\n      mstore\n      pop\n      pop\n        /* \"contracts/StakeXFI.sol\":2181:2188  stakers */\n      0x04\n        /* \"contracts/StakeXFI.sol\":2181:2200  stakers[msg.sender] */\n      0x00\n        /* \"contracts/StakeXFI.sol\":2189:2199  msg.sender */\n      caller\n        /* \"contracts/StakeXFI.sol\":2181:2200  stakers[msg.sender] */\n      0xffffffffffffffffffffffffffffffffffffffff\n      and\n      0xffffffffffffffffffffffffffffffffffffffff\n      and\n      dup2\n      mstore\n      0x20\n      add\n      swap1\n      dup2\n      mstore\n      0x20\n      add\n      0x00\n      keccak256\n        /* \"contracts/StakeXFI.sol\":2206:2213  staking */\n      dup2\n        /* \"contracts/StakeXFI.sol\":2181:2214  stakers[msg.sender].push(staking) */\n      swap1\n      dup1\n      0x01\n      dup2\n      sload\n      add\n      dup1\n      dup3\n      sstore\n      dup1\n      swap2\n      pop\n      pop\n      0x01\n      swap1\n      sub\n      swap1\n      0x00\n      mstore\n      keccak256(0x00, 0x20)\n      swap1\n      0x04\n      mul\n      add\n      0x00\n      swap1\n      swap2\n      swap1\n      swap2\n      swap1\n      swap2\n      pop\n      0x00\n      dup3\n      add\n      mload\n      dup2\n      0x00\n      add\n      sstore\n      0x20\n      dup3\n      add\n      mload\n      dup2\n      0x01\n      add\n      sstore\n      0x40\n      dup3\n      add\n      mload\n      dup2\n      0x02\n      add\n      sstore\n      0x60\n      dup3\n      add\n      mload\n      dup2\n      0x03\n      add\n      exp(0x0100, 0x00)\n      dup2\n      sload\n      dup2\n      0xff\n      mul\n      not\n      and\n      swap1\n      dup4\n      iszero\n      iszero\n      mul\n      or\n      swap1\n      sstore\n      pop\n      pop\n      pop\n        /* \"contracts/StakeXFI.sol\":2271:2286  block.timestamp */\n      timestamp\n        /* \"contracts/StakeXFI.sol\":2250:2260  msg.sender */\n      caller\n        /* \"contracts/StakeXFI.sol\":2232:2287  DepositSuccessful(msg.sender, _amount, block.timestamp) */\n      0xffffffffffffffffffffffffffffffffffffffff\n      and\n      0x61bb8b82654398e0bdd4e0d489b5e9104b6840211fd89f7264264c96589051fd\n        /* \"contracts/StakeXFI.sol\":2262:2269  _amount */\n      dup6\n        /* \"contracts/StakeXFI.sol\":2232:2287  DepositSuccessful(msg.sender, _amount, block.timestamp) */\n      mload(0x40)\n      tag_137\n      swap2\n      swap1\n      tag_40\n      jump\t// in\n    tag_137:\n      mload(0x40)\n      dup1\n      swap2\n      sub\n      swap1\n      log3\n        /* \"contracts/StakeXFI.sol\":1472:2295  {... */\n      pop\n        /* \"contracts/StakeXFI.sol\":1375:1380  false */\n      0x00\n        /* \"contracts/StakeXFI.sol\":1366:1372  locked */\n      0x03\n      0x14\n        /* \"contracts/StakeXFI.sol\":1366:1380  locked = false */\n      0x0100\n      exp\n      dup2\n      sload\n      dup2\n      0xff\n      mul\n      not\n      and\n      swap1\n      dup4\n      iszero\n      iszero\n      mul\n      or\n      swap1\n      sstore\n      pop\n        /* \"contracts/StakeXFI.sol\":1396:2295  function stake(uint256 _amount, uint256 _duration) external reentrancyGuard {... */\n      pop\n      pop\n      jump\t// out\n        /* \"contracts/StakeXFI.sol\":143:168  IERC20 public MPXContract */\n    tag_35:\n      0x01\n      0x00\n      swap1\n      sload\n      swap1\n      0x0100\n      exp\n      swap1\n      div\n      0xffffffffffffffffffffffffffffffffffffffff\n      and\n      dup2\n      jump\t// out\n        /* \"contracts/StakeXFI.sol\":3740:3904  function getContractXFIBalance() external onlyOwner view returns (uint256){... */\n    tag_38:\n        /* \"contracts/StakeXFI.sol\":3806:3813  uint256 */\n      0x00\n        /* \"contracts/StakeXFI.sol\":1191:1196  owner */\n      0x02\n      0x00\n      swap1\n      sload\n      swap1\n      0x0100\n      exp\n      swap1\n      div\n      0xffffffffffffffffffffffffffffffffffffffff\n      and\n        /* \"contracts/StakeXFI.sol\":1177:1196  msg.sender == owner */\n      0xffffffffffffffffffffffffffffffffffffffff\n      and\n        /* \"contracts/StakeXFI.sol\":1177:1187  msg.sender */\n      caller\n        /* \"contracts/StakeXFI.sol\":1177:1196  msg.sender == owner */\n      0xffffffffffffffffffffffffffffffffffffffff\n      and\n      eq\n        /* \"contracts/StakeXFI.sol\":1169:1210  require(msg.sender == owner, \"No Access\") */\n      tag_139\n      jumpi\n      mload(0x40)\n      0x08c379a000000000000000000000000000000000000000000000000000000000\n      dup2\n      mstore\n      0x04\n      add\n      tag_140\n      swap1\n      tag_141\n      jump\t// in\n    tag_140:\n      mload(0x40)\n      dup1\n      swap2\n      sub\n      swap1\n      revert\n    tag_139:\n        /* \"contracts/StakeXFI.sol\":3825:3836  uint256 bal */\n      0x00\n        /* \"contracts/StakeXFI.sol\":3839:3850  XFIContract */\n      0x00\n      0x00\n      swap1\n      sload\n      swap1\n      0x0100\n      exp\n      swap1\n      div\n      0xffffffffffffffffffffffffffffffffffffffff\n      and\n        /* \"contracts/StakeXFI.sol\":3839:3860  XFIContract.balanceOf */\n      0xffffffffffffffffffffffffffffffffffffffff\n      and\n      0x70a08231\n        /* \"contracts/StakeXFI.sol\":3869:3873  this */\n      address\n        /* \"contracts/StakeXFI.sol\":3839:3875  XFIContract.balanceOf(address(this)) */\n      mload(0x40)\n      dup3\n      0xffffffff\n      and\n      0xe0\n      shl\n      dup2\n      mstore\n      0x04\n      add\n      tag_143\n      swap2\n      swap1\n      tag_112\n      jump\t// in\n    tag_143:\n      0x20\n      mload(0x40)\n      dup1\n      dup4\n      sub\n      dup2\n      dup7\n      gas\n      staticcall\n      iszero\n      dup1\n      iszero\n      tag_145\n      jumpi\n      returndatacopy(0x00, 0x00, returndatasize)\n      revert(0x00, returndatasize)\n    tag_145:\n      pop\n      pop\n      pop\n      pop\n      mload(0x40)\n      returndatasize\n      not(0x1f)\n      0x1f\n      dup3\n      add\n      and\n      dup3\n      add\n      dup1\n      0x40\n      mstore\n      pop\n      dup2\n      add\n      swap1\n      tag_146\n      swap2\n      swap1\n      tag_116\n      jump\t// in\n    tag_146:\n        /* \"contracts/StakeXFI.sol\":3825:3875  uint256 bal = XFIContract.balanceOf(address(this)) */\n      swap1\n      pop\n        /* \"contracts/StakeXFI.sol\":3893:3896  bal */\n      dup1\n        /* \"contracts/StakeXFI.sol\":3886:3896  return bal */\n      swap2\n      pop\n      pop\n        /* \"contracts/StakeXFI.sol\":3740:3904  function getContractXFIBalance() external onlyOwner view returns (uint256){... */\n      swap1\n      jump\t// out\n        /* \"contracts/StakeXFI.sol\":3568:3732  function getContractMPXBalance() external onlyOwner view returns (uint256){... */\n    tag_42:\n        /* \"contracts/StakeXFI.sol\":3634:3641  uint256 */\n      0x00\n        /* \"contracts/StakeXFI.sol\":1191:1196  owner */\n      0x02\n      0x00\n      swap1\n      sload\n      swap1\n      0x0100\n      exp\n      swap1\n      div\n      0xffffffffffffffffffffffffffffffffffffffff\n      and\n        /* \"contracts/StakeXFI.sol\":1177:1196  msg.sender == owner */\n      0xffffffffffffffffffffffffffffffffffffffff\n      and\n        /* \"contracts/StakeXFI.sol\":1177:1187  msg.sender */\n      caller\n        /* \"contracts/StakeXFI.sol\":1177:1196  msg.sender == owner */\n      0xffffffffffffffffffffffffffffffffffffffff\n      and\n      eq\n        /* \"contracts/StakeXFI.sol\":1169:1210  require(msg.sender == owner, \"No Access\") */\n      tag_148\n      jumpi\n      mload(0x40)\n      0x08c379a000000000000000000000000000000000000000000000000000000000\n      dup2\n      mstore\n      0x04\n      add\n      tag_149\n      swap1\n      tag_141\n      jump\t// in\n    tag_149:\n      mload(0x40)\n      dup1\n      swap2\n      sub\n      swap1\n      revert\n    tag_148:\n        /* \"contracts/StakeXFI.sol\":3653:3664  uint256 bal */\n      0x00\n        /* \"contracts/StakeXFI.sol\":3667:3678  MPXContract */\n      0x01\n      0x00\n      swap1\n      sload\n      swap1\n      0x0100\n      exp\n      swap1\n      div\n      0xffffffffffffffffffffffffffffffffffffffff\n      and\n        /* \"contracts/StakeXFI.sol\":3667:3688  MPXContract.balanceOf */\n      0xffffffffffffffffffffffffffffffffffffffff\n      and\n      0x70a08231\n        /* \"contracts/StakeXFI.sol\":3697:3701  this */\n      address\n        /* \"contracts/StakeXFI.sol\":3667:3703  MPXContract.balanceOf(address(this)) */\n      mload(0x40)\n      dup3\n      0xffffffff\n      and\n      0xe0\n      shl\n      dup2\n      mstore\n      0x04\n      add\n      tag_151\n      swap2\n      swap1\n      tag_112\n      jump\t// in\n    tag_151:\n      0x20\n      mload(0x40)\n      dup1\n      dup4\n      sub\n      dup2\n      dup7\n      gas\n      staticcall\n      iszero\n      dup1\n      iszero\n      tag_153\n      jumpi\n      returndatacopy(0x00, 0x00, returndatasize)\n      revert(0x00, returndatasize)\n    tag_153:\n      pop\n      pop\n      pop\n      pop\n      mload(0x40)\n      returndatasize\n      not(0x1f)\n      0x1f\n      dup3\n      add\n      and\n      dup3\n      add\n      dup1\n      0x40\n      mstore\n      pop\n      dup2\n      add\n      swap1\n      tag_154\n      swap2\n      swap1\n      tag_116\n      jump\t// in\n    tag_154:\n        /* \"contracts/StakeXFI.sol\":3653:3703  uint256 bal = MPXContract.balanceOf(address(this)) */\n      swap1\n      pop\n        /* \"contracts/StakeXFI.sol\":3721:3724  bal */\n      dup1\n        /* \"contracts/StakeXFI.sol\":3714:3724  return bal */\n      swap2\n      pop\n      pop\n        /* \"contracts/StakeXFI.sol\":3568:3732  function getContractMPXBalance() external onlyOwner view returns (uint256){... */\n      swap1\n      jump\t// out\n        /* \"contracts/StakeXFI.sol\":3912:4088  function transferOwnership(address _newOwner) external onlyOwner{... */\n    tag_47:\n        /* \"contracts/StakeXFI.sol\":1191:1196  owner */\n      0x02\n      0x00\n      swap1\n      sload\n      swap1\n      0x0100\n      exp\n      swap1\n      div\n      0xffffffffffffffffffffffffffffffffffffffff\n      and\n        /* \"contracts/StakeXFI.sol\":1177:1196  msg.sender == owner */\n      0xffffffffffffffffffffffffffffffffffffffff\n      and\n        /* \"contracts/StakeXFI.sol\":1177:1187  msg.sender */\n      caller\n        /* \"contracts/StakeXFI.sol\":1177:1196  msg.sender == owner */\n      0xffffffffffffffffffffffffffffffffffffffff\n      and\n      eq\n        /* \"contracts/StakeXFI.sol\":1169:1210  require(msg.sender == owner, \"No Access\") */\n      tag_156\n      jumpi\n      mload(0x40)\n      0x08c379a000000000000000000000000000000000000000000000000000000000\n      dup2\n      mstore\n      0x04\n      add\n      tag_157\n      swap1\n      tag_141\n      jump\t// in\n    tag_157:\n      mload(0x40)\n      dup1\n      swap2\n      sub\n      swap1\n      revert\n    tag_156:\n        /* \"contracts/StakeXFI.sol\":4016:4017  0 */\n      0x00\n        /* \"contracts/StakeXFI.sol\":3995:4018  _newOwner != address(0) */\n      0xffffffffffffffffffffffffffffffffffffffff\n      and\n        /* \"contracts/StakeXFI.sol\":3995:4004  _newOwner */\n      dup2\n        /* \"contracts/StakeXFI.sol\":3995:4018  _newOwner != address(0) */\n      0xffffffffffffffffffffffffffffffffffffffff\n      and\n      sub\n        /* \"contracts/StakeXFI.sol\":3987:4047  require(_newOwner != address(0), \"Zero address not allowed\") */\n      tag_159\n      jumpi\n      mload(0x40)\n      0x08c379a000000000000000000000000000000000000000000000000000000000\n      dup2\n      mstore\n      0x04\n      add\n      tag_160\n      swap1\n      tag_55\n      jump\t// in\n    tag_160:\n      mload(0x40)\n      dup1\n      swap2\n      sub\n      swap1\n      revert\n    tag_159:\n        /* \"contracts/StakeXFI.sol\":4071:4080  _newOwner */\n      dup1\n        /* \"contracts/StakeXFI.sol\":4060:4068  newOwner */\n      0x03\n      0x00\n        /* \"contracts/StakeXFI.sol\":4060:4080  newOwner = _newOwner */\n      0x0100\n      exp\n      dup2\n      sload\n      dup2\n      0xffffffffffffffffffffffffffffffffffffffff\n      mul\n      not\n      and\n      swap1\n      dup4\n      0xffffffffffffffffffffffffffffffffffffffff\n      and\n      mul\n      or\n      swap1\n      sstore\n      pop\n        /* \"contracts/StakeXFI.sol\":3912:4088  function transferOwnership(address _newOwner) external onlyOwner{... */\n      pop\n      jump\t// out\n        /* \"contracts/StakeXFI.sol\":4393:4593  function calculateReward(uint256 _startTime, uint256 _endTime) private pure returns (uint256){... */\n    tag_70:\n        /* \"contracts/StakeXFI.sol\":4478:4485  uint256 */\n      0x00\n        /* \"contracts/StakeXFI.sol\":4493:4514  uint256 stakeDuration */\n      0x00\n        /* \"contracts/StakeXFI.sol\":4528:4538  _startTime */\n      dup4\n        /* \"contracts/StakeXFI.sol\":4517:4525  _endTime */\n      dup4\n        /* \"contracts/StakeXFI.sol\":4517:4538  _endTime - _startTime */\n      tag_162\n      swap2\n      swap1\n      tag_163\n      jump\t// in\n    tag_162:\n        /* \"contracts/StakeXFI.sol\":4493:4538  uint256 stakeDuration = _endTime - _startTime */\n      swap1\n      pop\n        /* \"contracts/StakeXFI.sol\":444:451  1000000 */\n      0x0f4240\n        /* \"contracts/StakeXFI.sol\":4552:4585  stakeDuration * REWARD_PER_SECOND */\n      0xffffffff\n      and\n        /* \"contracts/StakeXFI.sol\":4552:4565  stakeDuration */\n      dup2\n        /* \"contracts/StakeXFI.sol\":4552:4585  stakeDuration * REWARD_PER_SECOND */\n      tag_164\n      swap2\n      swap1\n      tag_165\n      jump\t// in\n    tag_164:\n        /* \"contracts/StakeXFI.sol\":4545:4585  return stakeDuration * REWARD_PER_SECOND */\n      swap2\n      pop\n      pop\n        /* \"contracts/StakeXFI.sol\":4393:4593  function calculateReward(uint256 _startTime, uint256 _endTime) private pure returns (uint256){... */\n      swap3\n      swap2\n      pop\n      pop\n      jump\t// out\n    tag_89:\n      mload(0x40)\n      dup1\n      0x80\n      add\n      0x40\n      mstore\n      dup1\n      0x00\n      dup2\n      mstore\n      0x20\n      add\n      0x00\n      dup2\n      mstore\n      0x20\n      add\n      0x00\n      dup2\n      mstore\n      0x20\n      add\n      iszero(iszero(0x00))\n      dup2\n      mstore\n      pop\n      swap1\n      jump\t// out\n        /* \"#utility.yul\":88:205   */\n    tag_167:\n        /* \"#utility.yul\":197:198   */\n      0x00\n        /* \"#utility.yul\":194:195   */\n      0x00\n        /* \"#utility.yul\":187:199   */\n      revert\n        /* \"#utility.yul\":334:420   */\n    tag_169:\n        /* \"#utility.yul\":369:376   */\n      0x00\n        /* \"#utility.yul\":409:413   */\n      0xff\n        /* \"#utility.yul\":402:407   */\n      dup3\n        /* \"#utility.yul\":398:414   */\n      and\n        /* \"#utility.yul\":387:414   */\n      swap1\n      pop\n        /* \"#utility.yul\":334:420   */\n      swap2\n      swap1\n      pop\n      jump\t// out\n        /* \"#utility.yul\":426:544   */\n    tag_170:\n        /* \"#utility.yul\":497:519   */\n      tag_224\n        /* \"#utility.yul\":513:518   */\n      dup2\n        /* \"#utility.yul\":497:519   */\n      tag_169\n      jump\t// in\n    tag_224:\n        /* \"#utility.yul\":490:495   */\n      dup2\n        /* \"#utility.yul\":487:520   */\n      eq\n        /* \"#utility.yul\":477:538   */\n      tag_225\n      jumpi\n        /* \"#utility.yul\":534:535   */\n      0x00\n        /* \"#utility.yul\":531:532   */\n      0x00\n        /* \"#utility.yul\":524:536   */\n      revert\n        /* \"#utility.yul\":477:538   */\n    tag_225:\n        /* \"#utility.yul\":426:544   */\n      pop\n      jump\t// out\n        /* \"#utility.yul\":550:685   */\n    tag_171:\n        /* \"#utility.yul\":594:599   */\n      0x00\n        /* \"#utility.yul\":632:638   */\n      dup2\n        /* \"#utility.yul\":619:639   */\n      calldataload\n        /* \"#utility.yul\":610:639   */\n      swap1\n      pop\n        /* \"#utility.yul\":648:679   */\n      tag_227\n        /* \"#utility.yul\":673:678   */\n      dup2\n        /* \"#utility.yul\":648:679   */\n      tag_170\n      jump\t// in\n    tag_227:\n        /* \"#utility.yul\":550:685   */\n      swap3\n      swap2\n      pop\n      pop\n      jump\t// out\n        /* \"#utility.yul\":691:1016   */\n    tag_15:\n        /* \"#utility.yul\":748:754   */\n      0x00\n        /* \"#utility.yul\":797:799   */\n      0x20\n        /* \"#utility.yul\":785:794   */\n      dup3\n        /* \"#utility.yul\":776:783   */\n      dup5\n        /* \"#utility.yul\":772:795   */\n      sub\n        /* \"#utility.yul\":768:800   */\n      slt\n        /* \"#utility.yul\":765:884   */\n      iszero\n      tag_229\n      jumpi\n        /* \"#utility.yul\":803:882   */\n      tag_230\n      tag_167\n      jump\t// in\n    tag_230:\n        /* \"#utility.yul\":765:884   */\n    tag_229:\n        /* \"#utility.yul\":923:924   */\n      0x00\n        /* \"#utility.yul\":948:999   */\n      tag_231\n        /* \"#utility.yul\":991:998   */\n      dup5\n        /* \"#utility.yul\":982:988   */\n      dup3\n        /* \"#utility.yul\":971:980   */\n      dup6\n        /* \"#utility.yul\":967:989   */\n      add\n        /* \"#utility.yul\":948:999   */\n      tag_171\n      jump\t// in\n    tag_231:\n        /* \"#utility.yul\":938:999   */\n      swap2\n      pop\n        /* \"#utility.yul\":894:1009   */\n      pop\n        /* \"#utility.yul\":691:1016   */\n      swap3\n      swap2\n      pop\n      pop\n      jump\t// out\n        /* \"#utility.yul\":1022:1112   */\n    tag_172:\n        /* \"#utility.yul\":1056:1063   */\n      0x00\n        /* \"#utility.yul\":1099:1104   */\n      dup2\n        /* \"#utility.yul\":1092:1105   */\n      iszero\n        /* \"#utility.yul\":1085:1106   */\n      iszero\n        /* \"#utility.yul\":1074:1106   */\n      swap1\n      pop\n        /* \"#utility.yul\":1022:1112   */\n      swap2\n      swap1\n      pop\n      jump\t// out\n        /* \"#utility.yul\":1118:1227   */\n    tag_173:\n        /* \"#utility.yul\":1199:1220   */\n      tag_234\n        /* \"#utility.yul\":1214:1219   */\n      dup2\n        /* \"#utility.yul\":1199:1220   */\n      tag_172\n      jump\t// in\n    tag_234:\n        /* \"#utility.yul\":1194:1197   */\n      dup3\n        /* \"#utility.yul\":1187:1221   */\n      mstore\n        /* \"#utility.yul\":1118:1227   */\n      pop\n      pop\n      jump\t// out\n        /* \"#utility.yul\":1233:1443   */\n    tag_18:\n        /* \"#utility.yul\":1320:1324   */\n      0x00\n        /* \"#utility.yul\":1358:1360   */\n      0x20\n        /* \"#utility.yul\":1347:1356   */\n      dup3\n        /* \"#utility.yul\":1343:1361   */\n      add\n        /* \"#utility.yul\":1335:1361   */\n      swap1\n      pop\n        /* \"#utility.yul\":1371:1436   */\n      tag_236\n        /* \"#utility.yul\":1433:1434   */\n      0x00\n        /* \"#utility.yul\":1422:1431   */\n      dup4\n        /* \"#utility.yul\":1418:1435   */\n      add\n        /* \"#utility.yul\":1409:1415   */\n      dup5\n        /* \"#utility.yul\":1371:1436   */\n      tag_173\n      jump\t// in\n    tag_236:\n        /* \"#utility.yul\":1233:1443   */\n      swap3\n      swap2\n      pop\n      pop\n      jump\t// out\n        /* \"#utility.yul\":1449:1526   */\n    tag_174:\n        /* \"#utility.yul\":1486:1493   */\n      0x00\n        /* \"#utility.yul\":1515:1520   */\n      dup2\n        /* \"#utility.yul\":1504:1520   */\n      swap1\n      pop\n        /* \"#utility.yul\":1449:1526   */\n      swap2\n      swap1\n      pop\n      jump\t// out\n        /* \"#utility.yul\":1532:1640   */\n    tag_175:\n        /* \"#utility.yul\":1609:1633   */\n      tag_239\n        /* \"#utility.yul\":1627:1632   */\n      dup2\n        /* \"#utility.yul\":1609:1633   */\n      tag_174\n      jump\t// in\n    tag_239:\n        /* \"#utility.yul\":1604:1607   */\n      dup3\n        /* \"#utility.yul\":1597:1634   */\n      mstore\n        /* \"#utility.yul\":1532:1640   */\n      pop\n      pop\n      jump\t// out\n        /* \"#utility.yul\":1646:1745   */\n    tag_176:\n        /* \"#utility.yul\":1717:1738   */\n      tag_241\n        /* \"#utility.yul\":1732:1737   */\n      dup2\n        /* \"#utility.yul\":1717:1738   */\n      tag_172\n      jump\t// in\n    tag_241:\n        /* \"#utility.yul\":1712:1715   */\n      dup3\n        /* \"#utility.yul\":1705:1739   */\n      mstore\n        /* \"#utility.yul\":1646:1745   */\n      pop\n      pop\n      jump\t// out\n        /* \"#utility.yul\":1809:2675   */\n    tag_177:\n        /* \"#utility.yul\":1954:1958   */\n      0x80\n        /* \"#utility.yul\":1949:1952   */\n      dup3\n        /* \"#utility.yul\":1945:1959   */\n      add\n        /* \"#utility.yul\":2043:2047   */\n      0x00\n        /* \"#utility.yul\":2036:2041   */\n      dup3\n        /* \"#utility.yul\":2032:2048   */\n      add\n        /* \"#utility.yul\":2026:2049   */\n      mload\n        /* \"#utility.yul\":2062:2125   */\n      tag_243\n        /* \"#utility.yul\":2119:2123   */\n      0x00\n        /* \"#utility.yul\":2114:2117   */\n      dup6\n        /* \"#utility.yul\":2110:2124   */\n      add\n        /* \"#utility.yul\":2096:2108   */\n      dup3\n        /* \"#utility.yul\":2062:2125   */\n      tag_175\n      jump\t// in\n    tag_243:\n        /* \"#utility.yul\":1969:2135   */\n      pop\n        /* \"#utility.yul\":2222:2226   */\n      0x20\n        /* \"#utility.yul\":2215:2220   */\n      dup3\n        /* \"#utility.yul\":2211:2227   */\n      add\n        /* \"#utility.yul\":2205:2228   */\n      mload\n        /* \"#utility.yul\":2241:2304   */\n      tag_244\n        /* \"#utility.yul\":2298:2302   */\n      0x20\n        /* \"#utility.yul\":2293:2296   */\n      dup6\n        /* \"#utility.yul\":2289:2303   */\n      add\n        /* \"#utility.yul\":2275:2287   */\n      dup3\n        /* \"#utility.yul\":2241:2304   */\n      tag_175\n      jump\t// in\n    tag_244:\n        /* \"#utility.yul\":2145:2314   */\n      pop\n        /* \"#utility.yul\":2400:2404   */\n      0x40\n        /* \"#utility.yul\":2393:2398   */\n      dup3\n        /* \"#utility.yul\":2389:2405   */\n      add\n        /* \"#utility.yul\":2383:2406   */\n      mload\n        /* \"#utility.yul\":2419:2482   */\n      tag_245\n        /* \"#utility.yul\":2476:2480   */\n      0x40\n        /* \"#utility.yul\":2471:2474   */\n      dup6\n        /* \"#utility.yul\":2467:2481   */\n      add\n        /* \"#utility.yul\":2453:2465   */\n      dup3\n        /* \"#utility.yul\":2419:2482   */\n      tag_175\n      jump\t// in\n    tag_245:\n        /* \"#utility.yul\":2324:2492   */\n      pop\n        /* \"#utility.yul\":2582:2586   */\n      0x60\n        /* \"#utility.yul\":2575:2580   */\n      dup3\n        /* \"#utility.yul\":2571:2587   */\n      add\n        /* \"#utility.yul\":2565:2588   */\n      mload\n        /* \"#utility.yul\":2601:2658   */\n      tag_246\n        /* \"#utility.yul\":2652:2656   */\n      0x60\n        /* \"#utility.yul\":2647:2650   */\n      dup6\n        /* \"#utility.yul\":2643:2657   */\n      add\n        /* \"#utility.yul\":2629:2641   */\n      dup3\n        /* \"#utility.yul\":2601:2658   */\n      tag_176\n      jump\t// in\n    tag_246:\n        /* \"#utility.yul\":2502:2668   */\n      pop\n        /* \"#utility.yul\":1923:2675   */\n      pop\n        /* \"#utility.yul\":1809:2675   */\n      pop\n      pop\n      jump\t// out\n        /* \"#utility.yul\":2681:3000   */\n    tag_25:\n        /* \"#utility.yul\":2822:2826   */\n      0x00\n        /* \"#utility.yul\":2860:2863   */\n      0x80\n        /* \"#utility.yul\":2849:2858   */\n      dup3\n        /* \"#utility.yul\":2845:2864   */\n      add\n        /* \"#utility.yul\":2837:2864   */\n      swap1\n      pop\n        /* \"#utility.yul\":2874:2993   */\n      tag_248\n        /* \"#utility.yul\":2990:2991   */\n      0x00\n        /* \"#utility.yul\":2979:2988   */\n      dup4\n        /* \"#utility.yul\":2975:2992   */\n      add\n        /* \"#utility.yul\":2966:2972   */\n      dup5\n        /* \"#utility.yul\":2874:2993   */\n      tag_177\n      jump\t// in\n    tag_248:\n        /* \"#utility.yul\":2681:3000   */\n      swap3\n      swap2\n      pop\n      pop\n      jump\t// out\n        /* \"#utility.yul\":3006:3132   */\n    tag_178:\n        /* \"#utility.yul\":3043:3050   */\n      0x00\n        /* \"#utility.yul\":3083:3125   */\n      0xffffffffffffffffffffffffffffffffffffffff\n        /* \"#utility.yul\":3076:3081   */\n      dup3\n        /* \"#utility.yul\":3072:3126   */\n      and\n        /* \"#utility.yul\":3061:3126   */\n      swap1\n      pop\n        /* \"#utility.yul\":3006:3132   */\n      swap2\n      swap1\n      pop\n      jump\t// out\n        /* \"#utility.yul\":3138:3198   */\n    tag_179:\n        /* \"#utility.yul\":3166:3169   */\n      0x00\n        /* \"#utility.yul\":3187:3192   */\n      dup2\n        /* \"#utility.yul\":3180:3192   */\n      swap1\n      pop\n        /* \"#utility.yul\":3138:3198   */\n      swap2\n      swap1\n      pop\n      jump\t// out\n        /* \"#utility.yul\":3204:3346   */\n    tag_180:\n        /* \"#utility.yul\":3254:3263   */\n      0x00\n        /* \"#utility.yul\":3287:3340   */\n      tag_252\n        /* \"#utility.yul\":3305:3339   */\n      tag_253\n        /* \"#utility.yul\":3314:3338   */\n      tag_254\n        /* \"#utility.yul\":3332:3337   */\n      dup5\n        /* \"#utility.yul\":3314:3338   */\n      tag_178\n      jump\t// in\n    tag_254:\n        /* \"#utility.yul\":3305:3339   */\n      tag_179\n      jump\t// in\n    tag_253:\n        /* \"#utility.yul\":3287:3340   */\n      tag_178\n      jump\t// in\n    tag_252:\n        /* \"#utility.yul\":3274:3340   */\n      swap1\n      pop\n        /* \"#utility.yul\":3204:3346   */\n      swap2\n      swap1\n      pop\n      jump\t// out\n        /* \"#utility.yul\":3352:3478   */\n    tag_181:\n        /* \"#utility.yul\":3402:3411   */\n      0x00\n        /* \"#utility.yul\":3435:3472   */\n      tag_256\n        /* \"#utility.yul\":3466:3471   */\n      dup3\n        /* \"#utility.yul\":3435:3472   */\n      tag_180\n      jump\t// in\n    tag_256:\n        /* \"#utility.yul\":3422:3472   */\n      swap1\n      pop\n        /* \"#utility.yul\":3352:3478   */\n      swap2\n      swap1\n      pop\n      jump\t// out\n        /* \"#utility.yul\":3484:3623   */\n    tag_182:\n        /* \"#utility.yul\":3547:3556   */\n      0x00\n        /* \"#utility.yul\":3580:3617   */\n      tag_258\n        /* \"#utility.yul\":3611:3616   */\n      dup3\n        /* \"#utility.yul\":3580:3617   */\n      tag_181\n      jump\t// in\n    tag_258:\n        /* \"#utility.yul\":3567:3617   */\n      swap1\n      pop\n        /* \"#utility.yul\":3484:3623   */\n      swap2\n      swap1\n      pop\n      jump\t// out\n        /* \"#utility.yul\":3629:3786   */\n    tag_183:\n        /* \"#utility.yul\":3729:3779   */\n      tag_260\n        /* \"#utility.yul\":3773:3778   */\n      dup2\n        /* \"#utility.yul\":3729:3779   */\n      tag_182\n      jump\t// in\n    tag_260:\n        /* \"#utility.yul\":3724:3727   */\n      dup3\n        /* \"#utility.yul\":3717:3780   */\n      mstore\n        /* \"#utility.yul\":3629:3786   */\n      pop\n      pop\n      jump\t// out\n        /* \"#utility.yul\":3792:4040   */\n    tag_29:\n        /* \"#utility.yul\":3898:3902   */\n      0x00\n        /* \"#utility.yul\":3936:3938   */\n      0x20\n        /* \"#utility.yul\":3925:3934   */\n      dup3\n        /* \"#utility.yul\":3921:3939   */\n      add\n        /* \"#utility.yul\":3913:3939   */\n      swap1\n      pop\n        /* \"#utility.yul\":3949:4033   */\n      tag_262\n        /* \"#utility.yul\":4030:4031   */\n      0x00\n        /* \"#utility.yul\":4019:4028   */\n      dup4\n        /* \"#utility.yul\":4015:4032   */\n      add\n        /* \"#utility.yul\":4006:4012   */\n      dup5\n        /* \"#utility.yul\":3949:4033   */\n      tag_183\n      jump\t// in\n    tag_262:\n        /* \"#utility.yul\":3792:4040   */\n      swap3\n      swap2\n      pop\n      pop\n      jump\t// out\n        /* \"#utility.yul\":4046:4168   */\n    tag_184:\n        /* \"#utility.yul\":4119:4143   */\n      tag_264\n        /* \"#utility.yul\":4137:4142   */\n      dup2\n        /* \"#utility.yul\":4119:4143   */\n      tag_174\n      jump\t// in\n    tag_264:\n        /* \"#utility.yul\":4112:4117   */\n      dup2\n        /* \"#utility.yul\":4109:4144   */\n      eq\n        /* \"#utility.yul\":4099:4162   */\n      tag_265\n      jumpi\n        /* \"#utility.yul\":4158:4159   */\n      0x00\n        /* \"#utility.yul\":4155:4156   */\n      0x00\n        /* \"#utility.yul\":4148:4160   */\n      revert\n        /* \"#utility.yul\":4099:4162   */\n    tag_265:\n        /* \"#utility.yul\":4046:4168   */\n      pop\n      jump\t// out\n        /* \"#utility.yul\":4174:4313   */\n    tag_185:\n        /* \"#utility.yul\":4220:4225   */\n      0x00\n        /* \"#utility.yul\":4258:4264   */\n      dup2\n        /* \"#utility.yul\":4245:4265   */\n      calldataload\n        /* \"#utility.yul\":4236:4265   */\n      swap1\n      pop\n        /* \"#utility.yul\":4274:4307   */\n      tag_267\n        /* \"#utility.yul\":4301:4306   */\n      dup2\n        /* \"#utility.yul\":4274:4307   */\n      tag_184\n      jump\t// in\n    tag_267:\n        /* \"#utility.yul\":4174:4313   */\n      swap3\n      swap2\n      pop\n      pop\n      jump\t// out\n        /* \"#utility.yul\":4319:4793   */\n    tag_32:\n        /* \"#utility.yul\":4387:4393   */\n      0x00\n        /* \"#utility.yul\":4395:4401   */\n      0x00\n        /* \"#utility.yul\":4444:4446   */\n      0x40\n        /* \"#utility.yul\":4432:4441   */\n      dup4\n        /* \"#utility.yul\":4423:4430   */\n      dup6\n        /* \"#utility.yul\":4419:4442   */\n      sub\n        /* \"#utility.yul\":4415:4447   */\n      slt\n        /* \"#utility.yul\":4412:4531   */\n      iszero\n      tag_269\n      jumpi\n        /* \"#utility.yul\":4450:4529   */\n      tag_270\n      tag_167\n      jump\t// in\n    tag_270:\n        /* \"#utility.yul\":4412:4531   */\n    tag_269:\n        /* \"#utility.yul\":4570:4571   */\n      0x00\n        /* \"#utility.yul\":4595:4648   */\n      tag_271\n        /* \"#utility.yul\":4640:4647   */\n      dup6\n        /* \"#utility.yul\":4631:4637   */\n      dup3\n        /* \"#utility.yul\":4620:4629   */\n      dup7\n        /* \"#utility.yul\":4616:4638   */\n      add\n        /* \"#utility.yul\":4595:4648   */\n      tag_185\n      jump\t// in\n    tag_271:\n        /* \"#utility.yul\":4585:4648   */\n      swap3\n      pop\n        /* \"#utility.yul\":4541:4658   */\n      pop\n        /* \"#utility.yul\":4697:4699   */\n      0x20\n        /* \"#utility.yul\":4723:4776   */\n      tag_272\n        /* \"#utility.yul\":4768:4775   */\n      dup6\n        /* \"#utility.yul\":4759:4765   */\n      dup3\n        /* \"#utility.yul\":4748:4757   */\n      dup7\n        /* \"#utility.yul\":4744:4766   */\n      add\n        /* \"#utility.yul\":4723:4776   */\n      tag_185\n      jump\t// in\n    tag_272:\n        /* \"#utility.yul\":4713:4776   */\n      swap2\n      pop\n        /* \"#utility.yul\":4668:4786   */\n      pop\n        /* \"#utility.yul\":4319:4793   */\n      swap3\n      pop\n      swap3\n      swap1\n      pop\n      jump\t// out\n        /* \"#utility.yul\":4799:4917   */\n    tag_186:\n        /* \"#utility.yul\":4886:4910   */\n      tag_274\n        /* \"#utility.yul\":4904:4909   */\n      dup2\n        /* \"#utility.yul\":4886:4910   */\n      tag_174\n      jump\t// in\n    tag_274:\n        /* \"#utility.yul\":4881:4884   */\n      dup3\n        /* \"#utility.yul\":4874:4911   */\n      mstore\n        /* \"#utility.yul\":4799:4917   */\n      pop\n      pop\n      jump\t// out\n        /* \"#utility.yul\":4923:5145   */\n    tag_40:\n        /* \"#utility.yul\":5016:5020   */\n      0x00\n        /* \"#utility.yul\":5054:5056   */\n      0x20\n        /* \"#utility.yul\":5043:5052   */\n      dup3\n        /* \"#utility.yul\":5039:5057   */\n      add\n        /* \"#utility.yul\":5031:5057   */\n      swap1\n      pop\n        /* \"#utility.yul\":5067:5138   */\n      tag_276\n        /* \"#utility.yul\":5135:5136   */\n      0x00\n        /* \"#utility.yul\":5124:5133   */\n      dup4\n        /* \"#utility.yul\":5120:5137   */\n      add\n        /* \"#utility.yul\":5111:5117   */\n      dup5\n        /* \"#utility.yul\":5067:5138   */\n      tag_186\n      jump\t// in\n    tag_276:\n        /* \"#utility.yul\":4923:5145   */\n      swap3\n      swap2\n      pop\n      pop\n      jump\t// out\n        /* \"#utility.yul\":5151:5247   */\n    tag_187:\n        /* \"#utility.yul\":5188:5195   */\n      0x00\n        /* \"#utility.yul\":5217:5241   */\n      tag_278\n        /* \"#utility.yul\":5235:5240   */\n      dup3\n        /* \"#utility.yul\":5217:5241   */\n      tag_178\n      jump\t// in\n    tag_278:\n        /* \"#utility.yul\":5206:5241   */\n      swap1\n      pop\n        /* \"#utility.yul\":5151:5247   */\n      swap2\n      swap1\n      pop\n      jump\t// out\n        /* \"#utility.yul\":5253:5375   */\n    tag_188:\n        /* \"#utility.yul\":5326:5350   */\n      tag_280\n        /* \"#utility.yul\":5344:5349   */\n      dup2\n        /* \"#utility.yul\":5326:5350   */\n      tag_187\n      jump\t// in\n    tag_280:\n        /* \"#utility.yul\":5319:5324   */\n      dup2\n        /* \"#utility.yul\":5316:5351   */\n      eq\n        /* \"#utility.yul\":5306:5369   */\n      tag_281\n      jumpi\n        /* \"#utility.yul\":5365:5366   */\n      0x00\n        /* \"#utility.yul\":5362:5363   */\n      0x00\n        /* \"#utility.yul\":5355:5367   */\n      revert\n        /* \"#utility.yul\":5306:5369   */\n    tag_281:\n        /* \"#utility.yul\":5253:5375   */\n      pop\n      jump\t// out\n        /* \"#utility.yul\":5381:5520   */\n    tag_189:\n        /* \"#utility.yul\":5427:5432   */\n      0x00\n        /* \"#utility.yul\":5465:5471   */\n      dup2\n        /* \"#utility.yul\":5452:5472   */\n      calldataload\n        /* \"#utility.yul\":5443:5472   */\n      swap1\n      pop\n        /* \"#utility.yul\":5481:5514   */\n      tag_283\n        /* \"#utility.yul\":5508:5513   */\n      dup2\n        /* \"#utility.yul\":5481:5514   */\n      tag_188\n      jump\t// in\n    tag_283:\n        /* \"#utility.yul\":5381:5520   */\n      swap3\n      swap2\n      pop\n      pop\n      jump\t// out\n        /* \"#utility.yul\":5526:5855   */\n    tag_46:\n        /* \"#utility.yul\":5585:5591   */\n      0x00\n        /* \"#utility.yul\":5634:5636   */\n      0x20\n        /* \"#utility.yul\":5622:5631   */\n      dup3\n        /* \"#utility.yul\":5613:5620   */\n      dup5\n        /* \"#utility.yul\":5609:5632   */\n      sub\n        /* \"#utility.yul\":5605:5637   */\n      slt\n        /* \"#utility.yul\":5602:5721   */\n      iszero\n      tag_285\n      jumpi\n        /* \"#utility.yul\":5640:5719   */\n      tag_286\n      tag_167\n      jump\t// in\n    tag_286:\n        /* \"#utility.yul\":5602:5721   */\n    tag_285:\n        /* \"#utility.yul\":5760:5761   */\n      0x00\n        /* \"#utility.yul\":5785:5838   */\n      tag_287\n        /* \"#utility.yul\":5830:5837   */\n      dup5\n        /* \"#utility.yul\":5821:5827   */\n      dup3\n        /* \"#utility.yul\":5810:5819   */\n      dup6\n        /* \"#utility.yul\":5806:5828   */\n      add\n        /* \"#utility.yul\":5785:5838   */\n      tag_189\n      jump\t// in\n    tag_287:\n        /* \"#utility.yul\":5775:5838   */\n      swap2\n      pop\n        /* \"#utility.yul\":5731:5848   */\n      pop\n        /* \"#utility.yul\":5526:5855   */\n      swap3\n      swap2\n      pop\n      pop\n      jump\t// out\n        /* \"#utility.yul\":5861:6030   */\n    tag_190:\n        /* \"#utility.yul\":5945:5956   */\n      0x00\n        /* \"#utility.yul\":5979:5985   */\n      dup3\n        /* \"#utility.yul\":5974:5977   */\n      dup3\n        /* \"#utility.yul\":5967:5986   */\n      mstore\n        /* \"#utility.yul\":6019:6023   */\n      0x20\n        /* \"#utility.yul\":6014:6017   */\n      dup3\n        /* \"#utility.yul\":6010:6024   */\n      add\n        /* \"#utility.yul\":5995:6024   */\n      swap1\n      pop\n        /* \"#utility.yul\":5861:6030   */\n      swap3\n      swap2\n      pop\n      pop\n      jump\t// out\n        /* \"#utility.yul\":6036:6209   */\n    tag_191:\n        /* \"#utility.yul\":6176:6201   */\n      0x4e6f7420616c6c6f77656420746f2072652d656e746572000000000000000000\n        /* \"#utility.yul\":6172:6173   */\n      0x00\n        /* \"#utility.yul\":6164:6170   */\n      dup3\n        /* \"#utility.yul\":6160:6174   */\n      add\n        /* \"#utility.yul\":6153:6202   */\n      mstore\n        /* \"#utility.yul\":6036:6209   */\n      pop\n      jump\t// out\n        /* \"#utility.yul\":6215:6581   */\n    tag_192:\n        /* \"#utility.yul\":6357:6360   */\n      0x00\n        /* \"#utility.yul\":6378:6445   */\n      tag_291\n        /* \"#utility.yul\":6442:6444   */\n      0x17\n        /* \"#utility.yul\":6437:6440   */\n      dup4\n        /* \"#utility.yul\":6378:6445   */\n      tag_190\n      jump\t// in\n    tag_291:\n        /* \"#utility.yul\":6371:6445   */\n      swap2\n      pop\n        /* \"#utility.yul\":6454:6547   */\n      tag_292\n        /* \"#utility.yul\":6543:6546   */\n      dup3\n        /* \"#utility.yul\":6454:6547   */\n      tag_191\n      jump\t// in\n    tag_292:\n        /* \"#utility.yul\":6572:6574   */\n      0x20\n        /* \"#utility.yul\":6567:6570   */\n      dup3\n        /* \"#utility.yul\":6563:6575   */\n      add\n        /* \"#utility.yul\":6556:6575   */\n      swap1\n      pop\n        /* \"#utility.yul\":6215:6581   */\n      swap2\n      swap1\n      pop\n      jump\t// out\n        /* \"#utility.yul\":6587:7006   */\n    tag_51:\n        /* \"#utility.yul\":6753:6757   */\n      0x00\n        /* \"#utility.yul\":6791:6793   */\n      0x20\n        /* \"#utility.yul\":6780:6789   */\n      dup3\n        /* \"#utility.yul\":6776:6794   */\n      add\n        /* \"#utility.yul\":6768:6794   */\n      swap1\n      pop\n        /* \"#utility.yul\":6840:6849   */\n      dup2\n        /* \"#utility.yul\":6834:6838   */\n      dup2\n        /* \"#utility.yul\":6830:6850   */\n      sub\n        /* \"#utility.yul\":6826:6827   */\n      0x00\n        /* \"#utility.yul\":6815:6824   */\n      dup4\n        /* \"#utility.yul\":6811:6828   */\n      add\n        /* \"#utility.yul\":6804:6851   */\n      mstore\n        /* \"#utility.yul\":6868:6999   */\n      tag_294\n        /* \"#utility.yul\":6994:6998   */\n      dup2\n        /* \"#utility.yul\":6868:6999   */\n      tag_192\n      jump\t// in\n    tag_294:\n        /* \"#utility.yul\":6860:6999   */\n      swap1\n      pop\n        /* \"#utility.yul\":6587:7006   */\n      swap2\n      swap1\n      pop\n      jump\t// out\n        /* \"#utility.yul\":7012:7186   */\n    tag_193:\n        /* \"#utility.yul\":7152:7178   */\n      0x5a65726f2061646472657373206e6f7420616c6c6f7765640000000000000000\n        /* \"#utility.yul\":7148:7149   */\n      0x00\n        /* \"#utility.yul\":7140:7146   */\n      dup3\n        /* \"#utility.yul\":7136:7150   */\n      add\n        /* \"#utility.yul\":7129:7179   */\n      mstore\n        /* \"#utility.yul\":7012:7186   */\n      pop\n      jump\t// out\n        /* \"#utility.yul\":7192:7558   */\n    tag_194:\n        /* \"#utility.yul\":7334:7337   */\n      0x00\n        /* \"#utility.yul\":7355:7422   */\n      tag_297\n        /* \"#utility.yul\":7419:7421   */\n      0x18\n        /* \"#utility.yul\":7414:7417   */\n      dup4\n        /* \"#utility.yul\":7355:7422   */\n      tag_190\n      jump\t// in\n    tag_297:\n        /* \"#utility.yul\":7348:7422   */\n      swap2\n      pop\n        /* \"#utility.yul\":7431:7524   */\n      tag_298\n        /* \"#utility.yul\":7520:7523   */\n      dup3\n        /* \"#utility.yul\":7431:7524   */\n      tag_193\n      jump\t// in\n    tag_298:\n        /* \"#utility.yul\":7549:7551   */\n      0x20\n        /* \"#utility.yul\":7544:7547   */\n      dup3\n        /* \"#utility.yul\":7540:7552   */\n      add\n        /* \"#utility.yul\":7533:7552   */\n      swap1\n      pop\n        /* \"#utility.yul\":7192:7558   */\n      swap2\n      swap1\n      pop\n      jump\t// out\n        /* \"#utility.yul\":7564:7983   */\n    tag_55:\n        /* \"#utility.yul\":7730:7734   */\n      0x00\n        /* \"#utility.yul\":7768:7770   */\n      0x20\n        /* \"#utility.yul\":7757:7766   */\n      dup3\n        /* \"#utility.yul\":7753:7771   */\n      add\n        /* \"#utility.yul\":7745:7771   */\n      swap1\n      pop\n        /* \"#utility.yul\":7817:7826   */\n      dup2\n        /* \"#utility.yul\":7811:7815   */\n      dup2\n        /* \"#utility.yul\":7807:7827   */\n      sub\n        /* \"#utility.yul\":7803:7804   */\n      0x00\n        /* \"#utility.yul\":7792:7801   */\n      dup4\n        /* \"#utility.yul\":7788:7805   */\n      add\n        /* \"#utility.yul\":7781:7828   */\n      mstore\n        /* \"#utility.yul\":7845:7976   */\n      tag_300\n        /* \"#utility.yul\":7971:7975   */\n      dup2\n        /* \"#utility.yul\":7845:7976   */\n      tag_194\n      jump\t// in\n    tag_300:\n        /* \"#utility.yul\":7837:7976   */\n      swap1\n      pop\n        /* \"#utility.yul\":7564:7983   */\n      swap2\n      swap1\n      pop\n      jump\t// out\n        /* \"#utility.yul\":7989:8151   */\n    tag_195:\n        /* \"#utility.yul\":8129:8143   */\n      0x4f7574206f662072616e67650000000000000000000000000000000000000000\n        /* \"#utility.yul\":8125:8126   */\n      0x00\n        /* \"#utility.yul\":8117:8123   */\n      dup3\n        /* \"#utility.yul\":8113:8127   */\n      add\n        /* \"#utility.yul\":8106:8144   */\n      mstore\n        /* \"#utility.yul\":7989:8151   */\n      pop\n      jump\t// out\n        /* \"#utility.yul\":8157:8523   */\n    tag_196:\n        /* \"#utility.yul\":8299:8302   */\n      0x00\n        /* \"#utility.yul\":8320:8387   */\n      tag_303\n        /* \"#utility.yul\":8384:8386   */\n      0x0c\n        /* \"#utility.yul\":8379:8382   */\n      dup4\n        /* \"#utility.yul\":8320:8387   */\n      tag_190\n      jump\t// in\n    tag_303:\n        /* \"#utility.yul\":8313:8387   */\n      swap2\n      pop\n        /* \"#utility.yul\":8396:8489   */\n      tag_304\n        /* \"#utility.yul\":8485:8488   */\n      dup3\n        /* \"#utility.yul\":8396:8489   */\n      tag_195\n      jump\t// in\n    tag_304:\n        /* \"#utility.yul\":8514:8516   */\n      0x20\n        /* \"#utility.yul\":8509:8512   */\n      dup3\n        /* \"#utility.yul\":8505:8517   */\n      add\n        /* \"#utility.yul\":8498:8517   */\n      swap1\n      pop\n        /* \"#utility.yul\":8157:8523   */\n      swap2\n      swap1\n      pop\n      jump\t// out\n        /* \"#utility.yul\":8529:8948   */\n    tag_58:\n        /* \"#utility.yul\":8695:8699   */\n      0x00\n        /* \"#utility.yul\":8733:8735   */\n      0x20\n        /* \"#utility.yul\":8722:8731   */\n      dup3\n        /* \"#utility.yul\":8718:8736   */\n      add\n        /* \"#utility.yul\":8710:8736   */\n      swap1\n      pop\n        /* \"#utility.yul\":8782:8791   */\n      dup2\n        /* \"#utility.yul\":8776:8780   */\n      dup2\n        /* \"#utility.yul\":8772:8792   */\n      sub\n        /* \"#utility.yul\":8768:8769   */\n      0x00\n        /* \"#utility.yul\":8757:8766   */\n      dup4\n        /* \"#utility.yul\":8753:8770   */\n      add\n        /* \"#utility.yul\":8746:8793   */\n      mstore\n        /* \"#utility.yul\":8810:8941   */\n      tag_306\n        /* \"#utility.yul\":8936:8940   */\n      dup2\n        /* \"#utility.yul\":8810:8941   */\n      tag_196\n      jump\t// in\n    tag_306:\n        /* \"#utility.yul\":8802:8941   */\n      swap1\n      pop\n        /* \"#utility.yul\":8529:8948   */\n      swap2\n      swap1\n      pop\n      jump\t// out\n        /* \"#utility.yul\":8954:9134   */\n    tag_61:\n        /* \"#utility.yul\":9002:9079   */\n      0x4e487b7100000000000000000000000000000000000000000000000000000000\n        /* \"#utility.yul\":8999:9000   */\n      0x00\n        /* \"#utility.yul\":8992:9080   */\n      mstore\n        /* \"#utility.yul\":9099:9103   */\n      0x32\n        /* \"#utility.yul\":9096:9097   */\n      0x04\n        /* \"#utility.yul\":9089:9104   */\n      mstore\n        /* \"#utility.yul\":9123:9127   */\n      0x24\n        /* \"#utility.yul\":9120:9121   */\n      0x00\n        /* \"#utility.yul\":9113:9128   */\n      revert\n        /* \"#utility.yul\":9140:9302   */\n    tag_197:\n        /* \"#utility.yul\":9280:9294   */\n      0x4e6f74207965742074696d650000000000000000000000000000000000000000\n        /* \"#utility.yul\":9276:9277   */\n      0x00\n        /* \"#utility.yul\":9268:9274   */\n      dup3\n        /* \"#utility.yul\":9264:9278   */\n      add\n        /* \"#utility.yul\":9257:9295   */\n      mstore\n        /* \"#utility.yul\":9140:9302   */\n      pop\n      jump\t// out\n        /* \"#utility.yul\":9308:9674   */\n    tag_198:\n        /* \"#utility.yul\":9450:9453   */\n      0x00\n        /* \"#utility.yul\":9471:9538   */\n      tag_310\n        /* \"#utility.yul\":9535:9537   */\n      0x0c\n        /* \"#utility.yul\":9530:9533   */\n      dup4\n        /* \"#utility.yul\":9471:9538   */\n      tag_190\n      jump\t// in\n    tag_310:\n        /* \"#utility.yul\":9464:9538   */\n      swap2\n      pop\n        /* \"#utility.yul\":9547:9640   */\n      tag_311\n        /* \"#utility.yul\":9636:9639   */\n      dup3\n        /* \"#utility.yul\":9547:9640   */\n      tag_197\n      jump\t// in\n    tag_311:\n        /* \"#utility.yul\":9665:9667   */\n      0x20\n        /* \"#utility.yul\":9660:9663   */\n      dup3\n        /* \"#utility.yul\":9656:9668   */\n      add\n        /* \"#utility.yul\":9649:9668   */\n      swap1\n      pop\n        /* \"#utility.yul\":9308:9674   */\n      swap2\n      swap1\n      pop\n      jump\t// out\n        /* \"#utility.yul\":9680:10099   */\n    tag_65:\n        /* \"#utility.yul\":9846:9850   */\n      0x00\n        /* \"#utility.yul\":9884:9886   */\n      0x20\n        /* \"#utility.yul\":9873:9882   */\n      dup3\n        /* \"#utility.yul\":9869:9887   */\n      add\n        /* \"#utility.yul\":9861:9887   */\n      swap1\n      pop\n        /* \"#utility.yul\":9933:9942   */\n      dup2\n        /* \"#utility.yul\":9927:9931   */\n      dup2\n        /* \"#utility.yul\":9923:9943   */\n      sub\n        /* \"#utility.yul\":9919:9920   */\n      0x00\n        /* \"#utility.yul\":9908:9917   */\n      dup4\n        /* \"#utility.yul\":9904:9921   */\n      add\n        /* \"#utility.yul\":9897:9944   */\n      mstore\n        /* \"#utility.yul\":9961:10092   */\n      tag_313\n        /* \"#utility.yul\":10087:10091   */\n      dup2\n        /* \"#utility.yul\":9961:10092   */\n      tag_198\n      jump\t// in\n    tag_313:\n        /* \"#utility.yul\":9953:10092   */\n      swap1\n      pop\n        /* \"#utility.yul\":9680:10099   */\n      swap2\n      swap1\n      pop\n      jump\t// out\n        /* \"#utility.yul\":10105:10278   */\n    tag_199:\n        /* \"#utility.yul\":10245:10270   */\n      0x5374616b6520616c72656164792077697468647261776e000000000000000000\n        /* \"#utility.yul\":10241:10242   */\n      0x00\n        /* \"#utility.yul\":10233:10239   */\n      dup3\n        /* \"#utility.yul\":10229:10243   */\n      add\n        /* \"#utility.yul\":10222:10271   */\n      mstore\n        /* \"#utility.yul\":10105:10278   */\n      pop\n      jump\t// out\n        /* \"#utility.yul\":10284:10650   */\n    tag_200:\n        /* \"#utility.yul\":10426:10429   */\n      0x00\n        /* \"#utility.yul\":10447:10514   */\n      tag_316\n        /* \"#utility.yul\":10511:10513   */\n      0x17\n        /* \"#utility.yul\":10506:10509   */\n      dup4\n        /* \"#utility.yul\":10447:10514   */\n      tag_190\n      jump\t// in\n    tag_316:\n        /* \"#utility.yul\":10440:10514   */\n      swap2\n      pop\n        /* \"#utility.yul\":10523:10616   */\n      tag_317\n        /* \"#utility.yul\":10612:10615   */\n      dup3\n        /* \"#utility.yul\":10523:10616   */\n      tag_199\n      jump\t// in\n    tag_317:\n        /* \"#utility.yul\":10641:10643   */\n      0x20\n        /* \"#utility.yul\":10636:10639   */\n      dup3\n        /* \"#utility.yul\":10632:10644   */\n      add\n        /* \"#utility.yul\":10625:10644   */\n      swap1\n      pop\n        /* \"#utility.yul\":10284:10650   */\n      swap2\n      swap1\n      pop\n      jump\t// out\n        /* \"#utility.yul\":10656:11075   */\n    tag_68:\n        /* \"#utility.yul\":10822:10826   */\n      0x00\n        /* \"#utility.yul\":10860:10862   */\n      0x20\n        /* \"#utility.yul\":10849:10858   */\n      dup3\n        /* \"#utility.yul\":10845:10863   */\n      add\n        /* \"#utility.yul\":10837:10863   */\n      swap1\n      pop\n        /* \"#utility.yul\":10909:10918   */\n      dup2\n        /* \"#utility.yul\":10903:10907   */\n      dup2\n        /* \"#utility.yul\":10899:10919   */\n      sub\n        /* \"#utility.yul\":10895:10896   */\n      0x00\n        /* \"#utility.yul\":10884:10893   */\n      dup4\n        /* \"#utility.yul\":10880:10897   */\n      add\n        /* \"#utility.yul\":10873:10920   */\n      mstore\n        /* \"#utility.yul\":10937:11068   */\n      tag_319\n        /* \"#utility.yul\":11063:11067   */\n      dup2\n        /* \"#utility.yul\":10937:11068   */\n      tag_200\n      jump\t// in\n    tag_319:\n        /* \"#utility.yul\":10929:11068   */\n      swap1\n      pop\n        /* \"#utility.yul\":10656:11075   */\n      swap2\n      swap1\n      pop\n      jump\t// out\n        /* \"#utility.yul\":11081:11199   */\n    tag_201:\n        /* \"#utility.yul\":11168:11192   */\n      tag_321\n        /* \"#utility.yul\":11186:11191   */\n      dup2\n        /* \"#utility.yul\":11168:11192   */\n      tag_187\n      jump\t// in\n    tag_321:\n        /* \"#utility.yul\":11163:11166   */\n      dup3\n        /* \"#utility.yul\":11156:11193   */\n      mstore\n        /* \"#utility.yul\":11081:11199   */\n      pop\n      pop\n      jump\t// out\n        /* \"#utility.yul\":11205:11537   */\n    tag_72:\n        /* \"#utility.yul\":11326:11330   */\n      0x00\n        /* \"#utility.yul\":11364:11366   */\n      0x40\n        /* \"#utility.yul\":11353:11362   */\n      dup3\n        /* \"#utility.yul\":11349:11367   */\n      add\n        /* \"#utility.yul\":11341:11367   */\n      swap1\n      pop\n        /* \"#utility.yul\":11377:11448   */\n      tag_323\n        /* \"#utility.yul\":11445:11446   */\n      0x00\n        /* \"#utility.yul\":11434:11443   */\n      dup4\n        /* \"#utility.yul\":11430:11447   */\n      add\n        /* \"#utility.yul\":11421:11427   */\n      dup6\n        /* \"#utility.yul\":11377:11448   */\n      tag_201\n      jump\t// in\n    tag_323:\n        /* \"#utility.yul\":11458:11530   */\n      tag_324\n        /* \"#utility.yul\":11526:11528   */\n      0x20\n        /* \"#utility.yul\":11515:11524   */\n      dup4\n        /* \"#utility.yul\":11511:11529   */\n      add\n        /* \"#utility.yul\":11502:11508   */\n      dup5\n        /* \"#utility.yul\":11458:11530   */\n      tag_186\n      jump\t// in\n    tag_324:\n        /* \"#utility.yul\":11205:11537   */\n      swap4\n      swap3\n      pop\n      pop\n      pop\n      jump\t// out\n        /* \"#utility.yul\":11543:11659   */\n    tag_202:\n        /* \"#utility.yul\":11613:11634   */\n      tag_326\n        /* \"#utility.yul\":11628:11633   */\n      dup2\n        /* \"#utility.yul\":11613:11634   */\n      tag_172\n      jump\t// in\n    tag_326:\n        /* \"#utility.yul\":11606:11611   */\n      dup2\n        /* \"#utility.yul\":11603:11635   */\n      eq\n        /* \"#utility.yul\":11593:11653   */\n      tag_327\n      jumpi\n        /* \"#utility.yul\":11649:11650   */\n      0x00\n        /* \"#utility.yul\":11646:11647   */\n      0x00\n        /* \"#utility.yul\":11639:11651   */\n      revert\n        /* \"#utility.yul\":11593:11653   */\n    tag_327:\n        /* \"#utility.yul\":11543:11659   */\n      pop\n      jump\t// out\n        /* \"#utility.yul\":11665:11802   */\n    tag_203:\n        /* \"#utility.yul\":11719:11724   */\n      0x00\n        /* \"#utility.yul\":11750:11756   */\n      dup2\n        /* \"#utility.yul\":11744:11757   */\n      mload\n        /* \"#utility.yul\":11735:11757   */\n      swap1\n      pop\n        /* \"#utility.yul\":11766:11796   */\n      tag_329\n        /* \"#utility.yul\":11790:11795   */\n      dup2\n        /* \"#utility.yul\":11766:11796   */\n      tag_202\n      jump\t// in\n    tag_329:\n        /* \"#utility.yul\":11665:11802   */\n      swap3\n      swap2\n      pop\n      pop\n      jump\t// out\n        /* \"#utility.yul\":11808:12153   */\n    tag_76:\n        /* \"#utility.yul\":11875:11881   */\n      0x00\n        /* \"#utility.yul\":11924:11926   */\n      0x20\n        /* \"#utility.yul\":11912:11921   */\n      dup3\n        /* \"#utility.yul\":11903:11910   */\n      dup5\n        /* \"#utility.yul\":11899:11922   */\n      sub\n        /* \"#utility.yul\":11895:11927   */\n      slt\n        /* \"#utility.yul\":11892:12011   */\n      iszero\n      tag_331\n      jumpi\n        /* \"#utility.yul\":11930:12009   */\n      tag_332\n      tag_167\n      jump\t// in\n    tag_332:\n        /* \"#utility.yul\":11892:12011   */\n    tag_331:\n        /* \"#utility.yul\":12050:12051   */\n      0x00\n        /* \"#utility.yul\":12075:12136   */\n      tag_333\n        /* \"#utility.yul\":12128:12135   */\n      dup5\n        /* \"#utility.yul\":12119:12125   */\n      dup3\n        /* \"#utility.yul\":12108:12117   */\n      dup6\n        /* \"#utility.yul\":12104:12126   */\n      add\n        /* \"#utility.yul\":12075:12136   */\n      tag_203\n      jump\t// in\n    tag_333:\n        /* \"#utility.yul\":12065:12136   */\n      swap2\n      pop\n        /* \"#utility.yul\":12021:12146   */\n      pop\n        /* \"#utility.yul\":11808:12153   */\n      swap3\n      swap2\n      pop\n      pop\n      jump\t// out\n        /* \"#utility.yul\":12159:12322   */\n    tag_204:\n        /* \"#utility.yul\":12299:12314   */\n      0x4e6f7420796f7572207475726e00000000000000000000000000000000000000\n        /* \"#utility.yul\":12295:12296   */\n      0x00\n        /* \"#utility.yul\":12287:12293   */\n      dup3\n        /* \"#utility.yul\":12283:12297   */\n      add\n        /* \"#utility.yul\":12276:12315   */\n      mstore\n        /* \"#utility.yul\":12159:12322   */\n      pop\n      jump\t// out\n        /* \"#utility.yul\":12328:12694   */\n    tag_205:\n        /* \"#utility.yul\":12470:12473   */\n      0x00\n        /* \"#utility.yul\":12491:12558   */\n      tag_336\n        /* \"#utility.yul\":12555:12557   */\n      0x0d\n        /* \"#utility.yul\":12550:12553   */\n      dup4\n        /* \"#utility.yul\":12491:12558   */\n      tag_190\n      jump\t// in\n    tag_336:\n        /* \"#utility.yul\":12484:12558   */\n      swap2\n      pop\n        /* \"#utility.yul\":12567:12660   */\n      tag_337\n        /* \"#utility.yul\":12656:12659   */\n      dup3\n        /* \"#utility.yul\":12567:12660   */\n      tag_204\n      jump\t// in\n    tag_337:\n        /* \"#utility.yul\":12685:12687   */\n      0x20\n        /* \"#utility.yul\":12680:12683   */\n      dup3\n        /* \"#utility.yul\":12676:12688   */\n      add\n        /* \"#utility.yul\":12669:12688   */\n      swap1\n      pop\n        /* \"#utility.yul\":12328:12694   */\n      swap2\n      swap1\n      pop\n      jump\t// out\n        /* \"#utility.yul\":12700:13119   */\n    tag_87:\n        /* \"#utility.yul\":12866:12870   */\n      0x00\n        /* \"#utility.yul\":12904:12906   */\n      0x20\n        /* \"#utility.yul\":12893:12902   */\n      dup3\n        /* \"#utility.yul\":12889:12907   */\n      add\n        /* \"#utility.yul\":12881:12907   */\n      swap1\n      pop\n        /* \"#utility.yul\":12953:12962   */\n      dup2\n        /* \"#utility.yul\":12947:12951   */\n      dup2\n        /* \"#utility.yul\":12943:12963   */\n      sub\n        /* \"#utility.yul\":12939:12940   */\n      0x00\n        /* \"#utility.yul\":12928:12937   */\n      dup4\n        /* \"#utility.yul\":12924:12941   */\n      add\n        /* \"#utility.yul\":12917:12964   */\n      mstore\n        /* \"#utility.yul\":12981:13112   */\n      tag_339\n        /* \"#utility.yul\":13107:13111   */\n      dup2\n        /* \"#utility.yul\":12981:13112   */\n      tag_205\n      jump\t// in\n    tag_339:\n        /* \"#utility.yul\":12973:13112   */\n      swap1\n      pop\n        /* \"#utility.yul\":12700:13119   */\n      swap2\n      swap1\n      pop\n      jump\t// out\n        /* \"#utility.yul\":13125:13297   */\n    tag_206:\n        /* \"#utility.yul\":13265:13289   */\n      0x416d6f756e74206973206f7574206f662072616e676500000000000000000000\n        /* \"#utility.yul\":13261:13262   */\n      0x00\n        /* \"#utility.yul\":13253:13259   */\n      dup3\n        /* \"#utility.yul\":13249:13263   */\n      add\n        /* \"#utility.yul\":13242:13290   */\n      mstore\n        /* \"#utility.yul\":13125:13297   */\n      pop\n      jump\t// out\n        /* \"#utility.yul\":13303:13669   */\n    tag_207:\n        /* \"#utility.yul\":13445:13448   */\n      0x00\n        /* \"#utility.yul\":13466:13533   */\n      tag_342\n        /* \"#utility.yul\":13530:13532   */\n      0x16\n        /* \"#utility.yul\":13525:13528   */\n      dup4\n        /* \"#utility.yul\":13466:13533   */\n      tag_190\n      jump\t// in\n    tag_342:\n        /* \"#utility.yul\":13459:13533   */\n      swap2\n      pop\n        /* \"#utility.yul\":13542:13635   */\n      tag_343\n        /* \"#utility.yul\":13631:13634   */\n      dup3\n        /* \"#utility.yul\":13542:13635   */\n      tag_206\n      jump\t// in\n    tag_343:\n        /* \"#utility.yul\":13660:13662   */\n      0x20\n        /* \"#utility.yul\":13655:13658   */\n      dup3\n        /* \"#utility.yul\":13651:13663   */\n      add\n        /* \"#utility.yul\":13644:13663   */\n      swap1\n      pop\n        /* \"#utility.yul\":13303:13669   */\n      swap2\n      swap1\n      pop\n      jump\t// out\n        /* \"#utility.yul\":13675:14094   */\n    tag_107:\n        /* \"#utility.yul\":13841:13845   */\n      0x00\n        /* \"#utility.yul\":13879:13881   */\n      0x20\n        /* \"#utility.yul\":13868:13877   */\n      dup3\n        /* \"#utility.yul\":13864:13882   */\n      add\n        /* \"#utility.yul\":13856:13882   */\n      swap1\n      pop\n        /* \"#utility.yul\":13928:13937   */\n      dup2\n        /* \"#utility.yul\":13922:13926   */\n      dup2\n        /* \"#utility.yul\":13918:13938   */\n      sub\n        /* \"#utility.yul\":13914:13915   */\n      0x00\n        /* \"#utility.yul\":13903:13912   */\n      dup4\n        /* \"#utility.yul\":13899:13916   */\n      add\n        /* \"#utility.yul\":13892:13939   */\n      mstore\n        /* \"#utility.yul\":13956:14087   */\n      tag_345\n        /* \"#utility.yul\":14082:14086   */\n      dup2\n        /* \"#utility.yul\":13956:14087   */\n      tag_207\n      jump\t// in\n    tag_345:\n        /* \"#utility.yul\":13948:14087   */\n      swap1\n      pop\n        /* \"#utility.yul\":13675:14094   */\n      swap2\n      swap1\n      pop\n      jump\t// out\n        /* \"#utility.yul\":14100:14271   */\n    tag_208:\n        /* \"#utility.yul\":14240:14263   */\n      0x4475726174696f6e20697320746f6f2073686f72740000000000000000000000\n        /* \"#utility.yul\":14236:14237   */\n      0x00\n        /* \"#utility.yul\":14228:14234   */\n      dup3\n        /* \"#utility.yul\":14224:14238   */\n      add\n        /* \"#utility.yul\":14217:14264   */\n      mstore\n        /* \"#utility.yul\":14100:14271   */\n      pop\n      jump\t// out\n        /* \"#utility.yul\":14277:14643   */\n    tag_209:\n        /* \"#utility.yul\":14419:14422   */\n      0x00\n        /* \"#utility.yul\":14440:14507   */\n      tag_348\n        /* \"#utility.yul\":14504:14506   */\n      0x15\n        /* \"#utility.yul\":14499:14502   */\n      dup4\n        /* \"#utility.yul\":14440:14507   */\n      tag_190\n      jump\t// in\n    tag_348:\n        /* \"#utility.yul\":14433:14507   */\n      swap2\n      pop\n        /* \"#utility.yul\":14516:14609   */\n      tag_349\n        /* \"#utility.yul\":14605:14608   */\n      dup3\n        /* \"#utility.yul\":14516:14609   */\n      tag_208\n      jump\t// in\n    tag_349:\n        /* \"#utility.yul\":14634:14636   */\n      0x20\n        /* \"#utility.yul\":14629:14632   */\n      dup3\n        /* \"#utility.yul\":14625:14637   */\n      add\n        /* \"#utility.yul\":14618:14637   */\n      swap1\n      pop\n        /* \"#utility.yul\":14277:14643   */\n      swap2\n      swap1\n      pop\n      jump\t// out\n        /* \"#utility.yul\":14649:15068   */\n    tag_110:\n        /* \"#utility.yul\":14815:14819   */\n      0x00\n        /* \"#utility.yul\":14853:14855   */\n      0x20\n        /* \"#utility.yul\":14842:14851   */\n      dup3\n        /* \"#utility.yul\":14838:14856   */\n      add\n        /* \"#utility.yul\":14830:14856   */\n      swap1\n      pop\n        /* \"#utility.yul\":14902:14911   */\n      dup2\n        /* \"#utility.yul\":14896:14900   */\n      dup2\n        /* \"#utility.yul\":14892:14912   */\n      sub\n        /* \"#utility.yul\":14888:14889   */\n      0x00\n        /* \"#utility.yul\":14877:14886   */\n      dup4\n        /* \"#utility.yul\":14873:14890   */\n      add\n        /* \"#utility.yul\":14866:14913   */\n      mstore\n        /* \"#utility.yul\":14930:15061   */\n      tag_351\n        /* \"#utility.yul\":15056:15060   */\n      dup2\n        /* \"#utility.yul\":14930:15061   */\n      tag_209\n      jump\t// in\n    tag_351:\n        /* \"#utility.yul\":14922:15061   */\n      swap1\n      pop\n        /* \"#utility.yul\":14649:15068   */\n      swap2\n      swap1\n      pop\n      jump\t// out\n        /* \"#utility.yul\":15074:15296   */\n    tag_112:\n        /* \"#utility.yul\":15167:15171   */\n      0x00\n        /* \"#utility.yul\":15205:15207   */\n      0x20\n        /* \"#utility.yul\":15194:15203   */\n      dup3\n        /* \"#utility.yul\":15190:15208   */\n      add\n        /* \"#utility.yul\":15182:15208   */\n      swap1\n      pop\n        /* \"#utility.yul\":15218:15289   */\n      tag_353\n        /* \"#utility.yul\":15286:15287   */\n      0x00\n        /* \"#utility.yul\":15275:15284   */\n      dup4\n        /* \"#utility.yul\":15271:15288   */\n      add\n        /* \"#utility.yul\":15262:15268   */\n      dup5\n        /* \"#utility.yul\":15218:15289   */\n      tag_201\n      jump\t// in\n    tag_353:\n        /* \"#utility.yul\":15074:15296   */\n      swap3\n      swap2\n      pop\n      pop\n      jump\t// out\n        /* \"#utility.yul\":15302:15445   */\n    tag_210:\n        /* \"#utility.yul\":15359:15364   */\n      0x00\n        /* \"#utility.yul\":15390:15396   */\n      dup2\n        /* \"#utility.yul\":15384:15397   */\n      mload\n        /* \"#utility.yul\":15375:15397   */\n      swap1\n      pop\n        /* \"#utility.yul\":15406:15439   */\n      tag_355\n        /* \"#utility.yul\":15433:15438   */\n      dup2\n        /* \"#utility.yul\":15406:15439   */\n      tag_184\n      jump\t// in\n    tag_355:\n        /* \"#utility.yul\":15302:15445   */\n      swap3\n      swap2\n      pop\n      pop\n      jump\t// out\n        /* \"#utility.yul\":15451:15802   */\n    tag_116:\n        /* \"#utility.yul\":15521:15527   */\n      0x00\n        /* \"#utility.yul\":15570:15572   */\n      0x20\n        /* \"#utility.yul\":15558:15567   */\n      dup3\n        /* \"#utility.yul\":15549:15556   */\n      dup5\n        /* \"#utility.yul\":15545:15568   */\n      sub\n        /* \"#utility.yul\":15541:15573   */\n      slt\n        /* \"#utility.yul\":15538:15657   */\n      iszero\n      tag_357\n      jumpi\n        /* \"#utility.yul\":15576:15655   */\n      tag_358\n      tag_167\n      jump\t// in\n    tag_358:\n        /* \"#utility.yul\":15538:15657   */\n    tag_357:\n        /* \"#utility.yul\":15696:15697   */\n      0x00\n        /* \"#utility.yul\":15721:15785   */\n      tag_359\n        /* \"#utility.yul\":15777:15784   */\n      dup5\n        /* \"#utility.yul\":15768:15774   */\n      dup3\n        /* \"#utility.yul\":15757:15766   */\n      dup6\n        /* \"#utility.yul\":15753:15775   */\n      add\n        /* \"#utility.yul\":15721:15785   */\n      tag_210\n      jump\t// in\n    tag_359:\n        /* \"#utility.yul\":15711:15785   */\n      swap2\n      pop\n        /* \"#utility.yul\":15667:15795   */\n      pop\n        /* \"#utility.yul\":15451:15802   */\n      swap3\n      swap2\n      pop\n      pop\n      jump\t// out\n        /* \"#utility.yul\":15808:15979   */\n    tag_211:\n        /* \"#utility.yul\":15948:15971   */\n      0x596f7520646f6e2774206861766520656e6f7567680000000000000000000000\n        /* \"#utility.yul\":15944:15945   */\n      0x00\n        /* \"#utility.yul\":15936:15942   */\n      dup3\n        /* \"#utility.yul\":15932:15946   */\n      add\n        /* \"#utility.yul\":15925:15972   */\n      mstore\n        /* \"#utility.yul\":15808:15979   */\n      pop\n      jump\t// out\n        /* \"#utility.yul\":15985:16351   */\n    tag_212:\n        /* \"#utility.yul\":16127:16130   */\n      0x00\n        /* \"#utility.yul\":16148:16215   */\n      tag_362\n        /* \"#utility.yul\":16212:16214   */\n      0x15\n        /* \"#utility.yul\":16207:16210   */\n      dup4\n        /* \"#utility.yul\":16148:16215   */\n      tag_190\n      jump\t// in\n    tag_362:\n        /* \"#utility.yul\":16141:16215   */\n      swap2\n      pop\n        /* \"#utility.yul\":16224:16317   */\n      tag_363\n        /* \"#utility.yul\":16313:16316   */\n      dup3\n        /* \"#utility.yul\":16224:16317   */\n      tag_211\n      jump\t// in\n    tag_363:\n        /* \"#utility.yul\":16342:16344   */\n      0x20\n        /* \"#utility.yul\":16337:16340   */\n      dup3\n        /* \"#utility.yul\":16333:16345   */\n      add\n        /* \"#utility.yul\":16326:16345   */\n      swap1\n      pop\n        /* \"#utility.yul\":15985:16351   */\n      swap2\n      swap1\n      pop\n      jump\t// out\n        /* \"#utility.yul\":16357:16776   */\n    tag_119:\n        /* \"#utility.yul\":16523:16527   */\n      0x00\n        /* \"#utility.yul\":16561:16563   */\n      0x20\n        /* \"#utility.yul\":16550:16559   */\n      dup3\n        /* \"#utility.yul\":16546:16564   */\n      add\n        /* \"#utility.yul\":16538:16564   */\n      swap1\n      pop\n        /* \"#utility.yul\":16610:16619   */\n      dup2\n        /* \"#utility.yul\":16604:16608   */\n      dup2\n        /* \"#utility.yul\":16600:16620   */\n      sub\n        /* \"#utility.yul\":16596:16597   */\n      0x00\n        /* \"#utility.yul\":16585:16594   */\n      dup4\n        /* \"#utility.yul\":16581:16598   */\n      add\n        /* \"#utility.yul\":16574:16621   */\n      mstore\n        /* \"#utility.yul\":16638:16769   */\n      tag_365\n        /* \"#utility.yul\":16764:16768   */\n      dup2\n        /* \"#utility.yul\":16638:16769   */\n      tag_212\n      jump\t// in\n    tag_365:\n        /* \"#utility.yul\":16630:16769   */\n      swap1\n      pop\n        /* \"#utility.yul\":16357:16776   */\n      swap2\n      swap1\n      pop\n      jump\t// out\n        /* \"#utility.yul\":16782:17114   */\n    tag_121:\n        /* \"#utility.yul\":16903:16907   */\n      0x00\n        /* \"#utility.yul\":16941:16943   */\n      0x40\n        /* \"#utility.yul\":16930:16939   */\n      dup3\n        /* \"#utility.yul\":16926:16944   */\n      add\n        /* \"#utility.yul\":16918:16944   */\n      swap1\n      pop\n        /* \"#utility.yul\":16954:17025   */\n      tag_367\n        /* \"#utility.yul\":17022:17023   */\n      0x00\n        /* \"#utility.yul\":17011:17020   */\n      dup4\n        /* \"#utility.yul\":17007:17024   */\n      add\n        /* \"#utility.yul\":16998:17004   */\n      dup6\n        /* \"#utility.yul\":16954:17025   */\n      tag_201\n      jump\t// in\n    tag_367:\n        /* \"#utility.yul\":17035:17107   */\n      tag_368\n        /* \"#utility.yul\":17103:17105   */\n      0x20\n        /* \"#utility.yul\":17092:17101   */\n      dup4\n        /* \"#utility.yul\":17088:17106   */\n      add\n        /* \"#utility.yul\":17079:17085   */\n      dup5\n        /* \"#utility.yul\":17035:17107   */\n      tag_201\n      jump\t// in\n    tag_368:\n        /* \"#utility.yul\":16782:17114   */\n      swap4\n      swap3\n      pop\n      pop\n      pop\n      jump\t// out\n        /* \"#utility.yul\":17120:17298   */\n    tag_213:\n        /* \"#utility.yul\":17260:17290   */\n      0x416d6f756e7420616c6c6f776564206973206e6f7420656e6f75676800000000\n        /* \"#utility.yul\":17256:17257   */\n      0x00\n        /* \"#utility.yul\":17248:17254   */\n      dup3\n        /* \"#utility.yul\":17244:17258   */\n      add\n        /* \"#utility.yul\":17237:17291   */\n      mstore\n        /* \"#utility.yul\":17120:17298   */\n      pop\n      jump\t// out\n        /* \"#utility.yul\":17304:17670   */\n    tag_214:\n        /* \"#utility.yul\":17446:17449   */\n      0x00\n        /* \"#utility.yul\":17467:17534   */\n      tag_371\n        /* \"#utility.yul\":17531:17533   */\n      0x1c\n        /* \"#utility.yul\":17526:17529   */\n      dup4\n        /* \"#utility.yul\":17467:17534   */\n      tag_190\n      jump\t// in\n    tag_371:\n        /* \"#utility.yul\":17460:17534   */\n      swap2\n      pop\n        /* \"#utility.yul\":17543:17636   */\n      tag_372\n        /* \"#utility.yul\":17632:17635   */\n      dup3\n        /* \"#utility.yul\":17543:17636   */\n      tag_213\n      jump\t// in\n    tag_372:\n        /* \"#utility.yul\":17661:17663   */\n      0x20\n        /* \"#utility.yul\":17656:17659   */\n      dup3\n        /* \"#utility.yul\":17652:17664   */\n      add\n        /* \"#utility.yul\":17645:17664   */\n      swap1\n      pop\n        /* \"#utility.yul\":17304:17670   */\n      swap2\n      swap1\n      pop\n      jump\t// out\n        /* \"#utility.yul\":17676:18095   */\n    tag_127:\n        /* \"#utility.yul\":17842:17846   */\n      0x00\n        /* \"#utility.yul\":17880:17882   */\n      0x20\n        /* \"#utility.yul\":17869:17878   */\n      dup3\n        /* \"#utility.yul\":17865:17883   */\n      add\n        /* \"#utility.yul\":17857:17883   */\n      swap1\n      pop\n        /* \"#utility.yul\":17929:17938   */\n      dup2\n        /* \"#utility.yul\":17923:17927   */\n      dup2\n        /* \"#utility.yul\":17919:17939   */\n      sub\n        /* \"#utility.yul\":17915:17916   */\n      0x00\n        /* \"#utility.yul\":17904:17913   */\n      dup4\n        /* \"#utility.yul\":17900:17917   */\n      add\n        /* \"#utility.yul\":17893:17940   */\n      mstore\n        /* \"#utility.yul\":17957:18088   */\n      tag_374\n        /* \"#utility.yul\":18083:18087   */\n      dup2\n        /* \"#utility.yul\":17957:18088   */\n      tag_214\n      jump\t// in\n    tag_374:\n        /* \"#utility.yul\":17949:18088   */\n      swap1\n      pop\n        /* \"#utility.yul\":17676:18095   */\n      swap2\n      swap1\n      pop\n      jump\t// out\n        /* \"#utility.yul\":18101:18543   */\n    tag_129:\n        /* \"#utility.yul\":18250:18254   */\n      0x00\n        /* \"#utility.yul\":18288:18290   */\n      0x60\n        /* \"#utility.yul\":18277:18286   */\n      dup3\n        /* \"#utility.yul\":18273:18291   */\n      add\n        /* \"#utility.yul\":18265:18291   */\n      swap1\n      pop\n        /* \"#utility.yul\":18301:18372   */\n      tag_376\n        /* \"#utility.yul\":18369:18370   */\n      0x00\n        /* \"#utility.yul\":18358:18367   */\n      dup4\n        /* \"#utility.yul\":18354:18371   */\n      add\n        /* \"#utility.yul\":18345:18351   */\n      dup7\n        /* \"#utility.yul\":18301:18372   */\n      tag_201\n      jump\t// in\n    tag_376:\n        /* \"#utility.yul\":18382:18454   */\n      tag_377\n        /* \"#utility.yul\":18450:18452   */\n      0x20\n        /* \"#utility.yul\":18439:18448   */\n      dup4\n        /* \"#utility.yul\":18435:18453   */\n      add\n        /* \"#utility.yul\":18426:18432   */\n      dup6\n        /* \"#utility.yul\":18382:18454   */\n      tag_201\n      jump\t// in\n    tag_377:\n        /* \"#utility.yul\":18464:18536   */\n      tag_378\n        /* \"#utility.yul\":18532:18534   */\n      0x40\n        /* \"#utility.yul\":18521:18530   */\n      dup4\n        /* \"#utility.yul\":18517:18535   */\n      add\n        /* \"#utility.yul\":18508:18514   */\n      dup5\n        /* \"#utility.yul\":18464:18536   */\n      tag_186\n      jump\t// in\n    tag_378:\n        /* \"#utility.yul\":18101:18543   */\n      swap5\n      swap4\n      pop\n      pop\n      pop\n      pop\n      jump\t// out\n        /* \"#utility.yul\":18549:18729   */\n    tag_215:\n        /* \"#utility.yul\":18597:18674   */\n      0x4e487b7100000000000000000000000000000000000000000000000000000000\n        /* \"#utility.yul\":18594:18595   */\n      0x00\n        /* \"#utility.yul\":18587:18675   */\n      mstore\n        /* \"#utility.yul\":18694:18698   */\n      0x11\n        /* \"#utility.yul\":18691:18692   */\n      0x04\n        /* \"#utility.yul\":18684:18699   */\n      mstore\n        /* \"#utility.yul\":18718:18722   */\n      0x24\n        /* \"#utility.yul\":18715:18716   */\n      0x00\n        /* \"#utility.yul\":18708:18723   */\n      revert\n        /* \"#utility.yul\":18735:18926   */\n    tag_135:\n        /* \"#utility.yul\":18775:18778   */\n      0x00\n        /* \"#utility.yul\":18794:18814   */\n      tag_381\n        /* \"#utility.yul\":18812:18813   */\n      dup3\n        /* \"#utility.yul\":18794:18814   */\n      tag_174\n      jump\t// in\n    tag_381:\n        /* \"#utility.yul\":18789:18814   */\n      swap2\n      pop\n        /* \"#utility.yul\":18828:18848   */\n      tag_382\n        /* \"#utility.yul\":18846:18847   */\n      dup4\n        /* \"#utility.yul\":18828:18848   */\n      tag_174\n      jump\t// in\n    tag_382:\n        /* \"#utility.yul\":18823:18848   */\n      swap3\n      pop\n        /* \"#utility.yul\":18871:18872   */\n      dup3\n        /* \"#utility.yul\":18868:18869   */\n      dup3\n        /* \"#utility.yul\":18864:18873   */\n      add\n        /* \"#utility.yul\":18857:18873   */\n      swap1\n      pop\n        /* \"#utility.yul\":18892:18895   */\n      dup1\n        /* \"#utility.yul\":18889:18890   */\n      dup3\n        /* \"#utility.yul\":18886:18896   */\n      gt\n        /* \"#utility.yul\":18883:18919   */\n      iszero\n      tag_383\n      jumpi\n        /* \"#utility.yul\":18899:18917   */\n      tag_384\n      tag_215\n      jump\t// in\n    tag_384:\n        /* \"#utility.yul\":18883:18919   */\n    tag_383:\n        /* \"#utility.yul\":18735:18926   */\n      swap3\n      swap2\n      pop\n      pop\n      jump\t// out\n        /* \"#utility.yul\":18932:19091   */\n    tag_216:\n        /* \"#utility.yul\":19072:19083   */\n      0x4e6f204163636573730000000000000000000000000000000000000000000000\n        /* \"#utility.yul\":19068:19069   */\n      0x00\n        /* \"#utility.yul\":19060:19066   */\n      dup3\n        /* \"#utility.yul\":19056:19070   */\n      add\n        /* \"#utility.yul\":19049:19084   */\n      mstore\n        /* \"#utility.yul\":18932:19091   */\n      pop\n      jump\t// out\n        /* \"#utility.yul\":19097:19462   */\n    tag_217:\n        /* \"#utility.yul\":19239:19242   */\n      0x00\n        /* \"#utility.yul\":19260:19326   */\n      tag_387\n        /* \"#utility.yul\":19324:19325   */\n      0x09\n        /* \"#utility.yul\":19319:19322   */\n      dup4\n        /* \"#utility.yul\":19260:19326   */\n      tag_190\n      jump\t// in\n    tag_387:\n        /* \"#utility.yul\":19253:19326   */\n      swap2\n      pop\n        /* \"#utility.yul\":19335:19428   */\n      tag_388\n        /* \"#utility.yul\":19424:19427   */\n      dup3\n        /* \"#utility.yul\":19335:19428   */\n      tag_216\n      jump\t// in\n    tag_388:\n        /* \"#utility.yul\":19453:19455   */\n      0x20\n        /* \"#utility.yul\":19448:19451   */\n      dup3\n        /* \"#utility.yul\":19444:19456   */\n      add\n        /* \"#utility.yul\":19437:19456   */\n      swap1\n      pop\n        /* \"#utility.yul\":19097:19462   */\n      swap2\n      swap1\n      pop\n      jump\t// out\n        /* \"#utility.yul\":19468:19887   */\n    tag_141:\n        /* \"#utility.yul\":19634:19638   */\n      0x00\n        /* \"#utility.yul\":19672:19674   */\n      0x20\n        /* \"#utility.yul\":19661:19670   */\n      dup3\n        /* \"#utility.yul\":19657:19675   */\n      add\n        /* \"#utility.yul\":19649:19675   */\n      swap1\n      pop\n        /* \"#utility.yul\":19721:19730   */\n      dup2\n        /* \"#utility.yul\":19715:19719   */\n      dup2\n        /* \"#utility.yul\":19711:19731   */\n      sub\n        /* \"#utility.yul\":19707:19708   */\n      0x00\n        /* \"#utility.yul\":19696:19705   */\n      dup4\n        /* \"#utility.yul\":19692:19709   */\n      add\n        /* \"#utility.yul\":19685:19732   */\n      mstore\n        /* \"#utility.yul\":19749:19880   */\n      tag_390\n        /* \"#utility.yul\":19875:19879   */\n      dup2\n        /* \"#utility.yul\":19749:19880   */\n      tag_217\n      jump\t// in\n    tag_390:\n        /* \"#utility.yul\":19741:19880   */\n      swap1\n      pop\n        /* \"#utility.yul\":19468:19887   */\n      swap2\n      swap1\n      pop\n      jump\t// out\n        /* \"#utility.yul\":19893:20087   */\n    tag_163:\n        /* \"#utility.yul\":19933:19937   */\n      0x00\n        /* \"#utility.yul\":19953:19973   */\n      tag_392\n        /* \"#utility.yul\":19971:19972   */\n      dup3\n        /* \"#utility.yul\":19953:19973   */\n      tag_174\n      jump\t// in\n    tag_392:\n        /* \"#utility.yul\":19948:19973   */\n      swap2\n      pop\n        /* \"#utility.yul\":19987:20007   */\n      tag_393\n        /* \"#utility.yul\":20005:20006   */\n      dup4\n        /* \"#utility.yul\":19987:20007   */\n      tag_174\n      jump\t// in\n    tag_393:\n        /* \"#utility.yul\":19982:20007   */\n      swap3\n      pop\n        /* \"#utility.yul\":20031:20032   */\n      dup3\n        /* \"#utility.yul\":20028:20029   */\n      dup3\n        /* \"#utility.yul\":20024:20033   */\n      sub\n        /* \"#utility.yul\":20016:20033   */\n      swap1\n      pop\n        /* \"#utility.yul\":20055:20056   */\n      dup2\n        /* \"#utility.yul\":20049:20053   */\n      dup2\n        /* \"#utility.yul\":20046:20057   */\n      gt\n        /* \"#utility.yul\":20043:20080   */\n      iszero\n      tag_394\n      jumpi\n        /* \"#utility.yul\":20060:20078   */\n      tag_395\n      tag_215\n      jump\t// in\n    tag_395:\n        /* \"#utility.yul\":20043:20080   */\n    tag_394:\n        /* \"#utility.yul\":19893:20087   */\n      swap3\n      swap2\n      pop\n      pop\n      jump\t// out\n        /* \"#utility.yul\":20093:20503   */\n    tag_165:\n        /* \"#utility.yul\":20133:20140   */\n      0x00\n        /* \"#utility.yul\":20156:20176   */\n      tag_397\n        /* \"#utility.yul\":20174:20175   */\n      dup3\n        /* \"#utility.yul\":20156:20176   */\n      tag_174\n      jump\t// in\n    tag_397:\n        /* \"#utility.yul\":20151:20176   */\n      swap2\n      pop\n        /* \"#utility.yul\":20190:20210   */\n      tag_398\n        /* \"#utility.yul\":20208:20209   */\n      dup4\n        /* \"#utility.yul\":20190:20210   */\n      tag_174\n      jump\t// in\n    tag_398:\n        /* \"#utility.yul\":20185:20210   */\n      swap3\n      pop\n        /* \"#utility.yul\":20245:20246   */\n      dup3\n        /* \"#utility.yul\":20242:20243   */\n      dup3\n        /* \"#utility.yul\":20238:20247   */\n      mul\n        /* \"#utility.yul\":20267:20297   */\n      tag_399\n        /* \"#utility.yul\":20285:20296   */\n      dup2\n        /* \"#utility.yul\":20267:20297   */\n      tag_174\n      jump\t// in\n    tag_399:\n        /* \"#utility.yul\":20256:20297   */\n      swap2\n      pop\n        /* \"#utility.yul\":20446:20447   */\n      dup3\n        /* \"#utility.yul\":20437:20444   */\n      dup3\n        /* \"#utility.yul\":20433:20448   */\n      div\n        /* \"#utility.yul\":20430:20431   */\n      dup5\n        /* \"#utility.yul\":20427:20449   */\n      eq\n        /* \"#utility.yul\":20407:20408   */\n      dup4\n        /* \"#utility.yul\":20400:20409   */\n      iszero\n        /* \"#utility.yul\":20380:20463   */\n      or\n        /* \"#utility.yul\":20357:20496   */\n      tag_400\n      jumpi\n        /* \"#utility.yul\":20476:20494   */\n      tag_401\n      tag_215\n      jump\t// in\n    tag_401:\n        /* \"#utility.yul\":20357:20496   */\n    tag_400:\n        /* \"#utility.yul\":20141:20503   */\n      pop\n        /* \"#utility.yul\":20093:20503   */\n      swap3\n      swap2\n      pop\n      pop\n      jump\t// out\n\n    auxdata: 0xa2646970667358221220d0d614425ab4ecff89f8d67384fdd6d7ab782e10f77098f9a04efd90bab6ab6964736f6c634300081c0033\n}\n",
				"bytecode": {
					"linkReferences": {},
					"object": "60c0604052683635c9adc5dea0000060809081525069152d02c7e14af680000060a090815250348015610030575f5ffd5b50604051611eef380380611eef83398181016040528101906100529190610176565b815f5f6101000a81548173ffffffffffffffffffffffffffffffffffffffff021916908373ffffffffffffffffffffffffffffffffffffffff1602179055508060015f6101000a81548173ffffffffffffffffffffffffffffffffffffffff021916908373ffffffffffffffffffffffffffffffffffffffff1602179055503360025f6101000a81548173ffffffffffffffffffffffffffffffffffffffff021916908373ffffffffffffffffffffffffffffffffffffffff16021790555050506101b4565b5f5ffd5b5f73ffffffffffffffffffffffffffffffffffffffff82169050919050565b5f6101458261011c565b9050919050565b6101558161013b565b811461015f575f5ffd5b50565b5f815190506101708161014c565b92915050565b5f5f6040838503121561018c5761018b610118565b5b5f61019985828601610162565b92505060206101aa85828601610162565b9150509250929050565b60805160a051611d1a6101d55f395f610b1301525f610ae80152611d1a5ff3fe608060405234801561000f575f5ffd5b5060043610610091575f3560e01c80637b0472f0116100645780637b0472f01461011d5780639be2f4ed14610139578063dede8ef614610157578063efbabd9114610175578063f2fde38b1461019357610091565b806321712697146100955780634e71e0c8146100c55780636d6e31f7146100cf57806374b28101146100ff575b5f5ffd5b6100af60048036038101906100aa91906113a2565b6101af565b6040516100bc91906113e7565b60405180910390f35b6100cd610606565b005b6100e960048036038101906100e491906113a2565b610842565b6040516100f6919061147a565b60405180910390f35b6101076109e9565b604051610114919061150d565b60405180910390f35b61013760048036038101906101329190611550565b610a0d565b005b610141610f4a565b60405161014e919061150d565b60405180910390f35b61015f610f6f565b60405161016c919061159d565b60405180910390f35b61017d6110a1565b60405161018a919061159d565b60405180910390f35b6101ad60048036038101906101a891906115f1565b6111d4565b005b5f600360149054906101000a900460ff1615610200576040517f08c379a00000000000000000000000000000000000000000000000000000000081526004016101f790611676565b60405180910390fd5b6001600360146101000a81548160ff0219169083151502179055505f73ffffffffffffffffffffffffffffffffffffffff163373ffffffffffffffffffffffffffffffffffffffff1603610289576040517f08c379a0000000000000000000000000000000000000000000000000000000008152600401610280906116de565b60405180910390fd5b60045f3373ffffffffffffffffffffffffffffffffffffffff1673ffffffffffffffffffffffffffffffffffffffff1681526020019081526020015f20805490508260ff161061030e576040517f08c379a000000000000000000000000000000000000000000000000000000000815260040161030590611746565b60405180910390fd5b5f60045f3373ffffffffffffffffffffffffffffffffffffffff1673ffffffffffffffffffffffffffffffffffffffff1681526020019081526020015f208360ff168154811061036157610360611764565b5b905f5260205f2090600402019050806002015442116103b5576040517f08c379a00000000000000000000000000000000000000000000000000000000081526004016103ac906117db565b60405180910390fd5b806003015f9054906101000a900460ff1615610406576040517f08c379a00000000000000000000000000000000000000000000000000000000081526004016103fd90611843565b60405180910390fd5b5f815f015490505f61042083600101548460020154611314565b90506001836003015f6101000a81548160ff0219169083151502179055505f835f01819055505f83600101819055505f83600201819055505f5f9054906101000a900473ffffffffffffffffffffffffffffffffffffffff1673ffffffffffffffffffffffffffffffffffffffff1663a9059cbb33846040518363ffffffff1660e01b81526004016104b3929190611870565b6020604051808303815f875af11580156104cf573d5f5f3e3d5ffd5b505050506040513d601f19601f820116820180604052508101906104f391906118c1565b5060015f9054906101000a900473ffffffffffffffffffffffffffffffffffffffff1673ffffffffffffffffffffffffffffffffffffffff1663a9059cbb33836040518363ffffffff1660e01b8152600401610550929190611870565b6020604051808303815f875af115801561056c573d5f5f3e3d5ffd5b505050506040513d601f19601f8201168201806040525081019061059091906118c1565b50803373ffffffffffffffffffffffffffffffffffffffff167ffb59733a8f0bd43414922fb86c6ffdd090e44935074086318980ca89221acc56846040516105d8919061159d565b60405180910390a3600193505050505f600360146101000a81548160ff021916908315150217905550919050565b5f73ffffffffffffffffffffffffffffffffffffffff163373ffffffffffffffffffffffffffffffffffffffff1603610674576040517f08c379a000000000000000000000000000000000000000000000000000000000815260040161066b906116de565b60405180910390fd5b60035f9054906101000a900473ffffffffffffffffffffffffffffffffffffffff1673ffffffffffffffffffffffffffffffffffffffff163373ffffffffffffffffffffffffffffffffffffffff1614610703576040517f08c379a00000000000000000000000000000000000000000000000000000000081526004016106fa90611936565b60405180910390fd5b60035f9054906101000a900473ffffffffffffffffffffffffffffffffffffffff1673ffffffffffffffffffffffffffffffffffffffff1660025f9054906101000a900473ffffffffffffffffffffffffffffffffffffffff1673ffffffffffffffffffffffffffffffffffffffff167f0d18b5fd22306e373229b9439188228edca81207d1667f604daf6cef8aa3ee6760405160405180910390a360035f9054906101000a900473ffffffffffffffffffffffffffffffffffffffff1660025f6101000a81548173ffffffffffffffffffffffffffffffffffffffff021916908373ffffffffffffffffffffffffffffffffffffffff1602179055505f60035f6101000a81548173ffffffffffffffffffffffffffffffffffffffff021916908373ffffffffffffffffffffffffffffffffffffffff160217905550565b61084a611342565b5f73ffffffffffffffffffffffffffffffffffffffff163373ffffffffffffffffffffffffffffffffffffffff16036108b8576040517f08c379a00000000000000000000000000000000000000000000000000000000081526004016108af906116de565b60405180910390fd5b60045f3373ffffffffffffffffffffffffffffffffffffffff1673ffffffffffffffffffffffffffffffffffffffff1681526020019081526020015f20805490508260ff161061093d576040517f08c379a000000000000000000000000000000000000000000000000000000000815260040161093490611746565b60405180910390fd5b5f60045f3373ffffffffffffffffffffffffffffffffffffffff1673ffffffffffffffffffffffffffffffffffffffff1681526020019081526020015f208360ff16815481106109905761098f611764565b5b905f5260205f2090600402016040518060800160405290815f82015481526020016001820154815260200160028201548152602001600382015f9054906101000a900460ff161515151581525050905080915050919050565b5f5f9054906101000a900473ffffffffffffffffffffffffffffffffffffffff1681565b600360149054906101000a900460ff1615610a5d576040517f08c379a0000000000000000000000000000000000000000000000000000000008152600401610a5490611676565b60405180910390fd5b6001600360146101000a81548160ff0219169083151502179055505f73ffffffffffffffffffffffffffffffffffffffff163373ffffffffffffffffffffffffffffffffffffffff1603610ae6576040517f08c379a0000000000000000000000000000000000000000000000000000000008152600401610add906116de565b60405180910390fd5b7f00000000000000000000000000000000000000000000000000000000000000008210158015610b3657507f00000000000000000000000000000000000000000000000000000000000000008211155b610b75576040517f08c379a0000000000000000000000000000000000000000000000000000000008152600401610b6c9061199e565b60405180910390fd5b5f8111610bb7576040517f08c379a0000000000000000000000000000000000000000000000000000000008152600401610bae90611a06565b60405180910390fd5b815f5f9054906101000a900473ffffffffffffffffffffffffffffffffffffffff1673ffffffffffffffffffffffffffffffffffffffff166370a08231336040518263ffffffff1660e01b8152600401610c119190611a24565b602060405180830381865afa158015610c2c573d5f5f3e3d5ffd5b505050506040513d601f19601f82011682018060405250810190610c509190611a51565b1015610c91576040517f08c379a0000000000000000000000000000000000000000000000000000000008152600401610c8890611ac6565b60405180910390fd5b815f5f9054906101000a900473ffffffffffffffffffffffffffffffffffffffff1673ffffffffffffffffffffffffffffffffffffffff1663dd62ed3e33306040518363ffffffff1660e01b8152600401610ced929190611ae4565b602060405180830381865afa158015610d08573d5f5f3e3d5ffd5b505050506040513d601f19601f82011682018060405250810190610d2c9190611a51565b1015610d6d576040517f08c379a0000000000000000000000000000000000000000000000000000000008152600401610d6490611b55565b60405180910390fd5b5f5f9054906101000a900473ffffffffffffffffffffffffffffffffffffffff1673ffffffffffffffffffffffffffffffffffffffff166323b872dd3330856040518463ffffffff1660e01b8152600401610dca93929190611b73565b6020604051808303815f875af1158015610de6573d5f5f3e3d5ffd5b505050506040513d601f19601f82011682018060405250810190610e0a91906118c1565b50610e13611342565b82815f0181815250508142610e289190611bd5565b8160400181815250504281602001818152505060045f3373ffffffffffffffffffffffffffffffffffffffff1673ffffffffffffffffffffffffffffffffffffffff1681526020019081526020015f2081908060018154018082558091505060019003905f5260205f2090600402015f909190919091505f820151815f015560208201518160010155604082015181600201556060820151816003015f6101000a81548160ff0219169083151502179055505050423373ffffffffffffffffffffffffffffffffffffffff167f61bb8b82654398e0bdd4e0d489b5e9104b6840211fd89f7264264c96589051fd85604051610f23919061159d565b60405180910390a3505f600360146101000a81548160ff0219169083151502179055505050565b60015f9054906101000a900473ffffffffffffffffffffffffffffffffffffffff1681565b5f60025f9054906101000a900473ffffffffffffffffffffffffffffffffffffffff1673ffffffffffffffffffffffffffffffffffffffff163373ffffffffffffffffffffffffffffffffffffffff1614610fff576040517f08c379a0000000000000000000000000000000000000000000000000000000008152600401610ff690611c52565b60405180910390fd5b5f5f5f9054906101000a900473ffffffffffffffffffffffffffffffffffffffff1673ffffffffffffffffffffffffffffffffffffffff166370a08231306040518263ffffffff1660e01b81526004016110599190611a24565b602060405180830381865afa158015611074573d5f5f3e3d5ffd5b505050506040513d601f19601f820116820180604052508101906110989190611a51565b90508091505090565b5f60025f9054906101000a900473ffffffffffffffffffffffffffffffffffffffff1673ffffffffffffffffffffffffffffffffffffffff163373ffffffffffffffffffffffffffffffffffffffff1614611131576040517f08c379a000000000000000000000000000000000000000000000000000000000815260040161112890611c52565b60405180910390fd5b5f60015f9054906101000a900473ffffffffffffffffffffffffffffffffffffffff1673ffffffffffffffffffffffffffffffffffffffff166370a08231306040518263ffffffff1660e01b815260040161118c9190611a24565b602060405180830381865afa1580156111a7573d5f5f3e3d5ffd5b505050506040513d601f19601f820116820180604052508101906111cb9190611a51565b90508091505090565b60025f9054906101000a900473ffffffffffffffffffffffffffffffffffffffff1673ffffffffffffffffffffffffffffffffffffffff163373ffffffffffffffffffffffffffffffffffffffff1614611263576040517f08c379a000000000000000000000000000000000000000000000000000000000815260040161125a90611c52565b60405180910390fd5b5f73ffffffffffffffffffffffffffffffffffffffff168173ffffffffffffffffffffffffffffffffffffffff16036112d1576040517f08c379a00000000000000000000000000000000000000000000000000000000081526004016112c8906116de565b60405180910390fd5b8060035f6101000a81548173ffffffffffffffffffffffffffffffffffffffff021916908373ffffffffffffffffffffffffffffffffffffffff16021790555050565b5f5f83836113229190611c70565b9050620f424063ffffffff16816113399190611ca3565b91505092915050565b60405180608001604052805f81526020015f81526020015f81526020015f151581525090565b5f5ffd5b5f60ff82169050919050565b6113818161136c565b811461138b575f5ffd5b50565b5f8135905061139c81611378565b92915050565b5f602082840312156113b7576113b6611368565b5b5f6113c48482850161138e565b91505092915050565b5f8115159050919050565b6113e1816113cd565b82525050565b5f6020820190506113fa5f8301846113d8565b92915050565b5f819050919050565b61141281611400565b82525050565b611421816113cd565b82525050565b608082015f82015161143b5f850182611409565b50602082015161144e6020850182611409565b5060408201516114616040850182611409565b5060608201516114746060850182611418565b50505050565b5f60808201905061148d5f830184611427565b92915050565b5f73ffffffffffffffffffffffffffffffffffffffff82169050919050565b5f819050919050565b5f6114d56114d06114cb84611493565b6114b2565b611493565b9050919050565b5f6114e6826114bb565b9050919050565b5f6114f7826114dc565b9050919050565b611507816114ed565b82525050565b5f6020820190506115205f8301846114fe565b92915050565b61152f81611400565b8114611539575f5ffd5b50565b5f8135905061154a81611526565b92915050565b5f5f6040838503121561156657611565611368565b5b5f6115738582860161153c565b92505060206115848582860161153c565b9150509250929050565b61159781611400565b82525050565b5f6020820190506115b05f83018461158e565b92915050565b5f6115c082611493565b9050919050565b6115d0816115b6565b81146115da575f5ffd5b50565b5f813590506115eb816115c7565b92915050565b5f6020828403121561160657611605611368565b5b5f611613848285016115dd565b91505092915050565b5f82825260208201905092915050565b7f4e6f7420616c6c6f77656420746f2072652d656e7465720000000000000000005f82015250565b5f61166060178361161c565b915061166b8261162c565b602082019050919050565b5f6020820190508181035f83015261168d81611654565b9050919050565b7f5a65726f2061646472657373206e6f7420616c6c6f77656400000000000000005f82015250565b5f6116c860188361161c565b91506116d382611694565b602082019050919050565b5f6020820190508181035f8301526116f5816116bc565b9050919050565b7f4f7574206f662072616e676500000000000000000000000000000000000000005f82015250565b5f611730600c8361161c565b915061173b826116fc565b602082019050919050565b5f6020820190508181035f83015261175d81611724565b9050919050565b7f4e487b71000000000000000000000000000000000000000000000000000000005f52603260045260245ffd5b7f4e6f74207965742074696d6500000000000000000000000000000000000000005f82015250565b5f6117c5600c8361161c565b91506117d082611791565b602082019050919050565b5f6020820190508181035f8301526117f2816117b9565b9050919050565b7f5374616b6520616c72656164792077697468647261776e0000000000000000005f82015250565b5f61182d60178361161c565b9150611838826117f9565b602082019050919050565b5f6020820190508181035f83015261185a81611821565b9050919050565b61186a816115b6565b82525050565b5f6040820190506118835f830185611861565b611890602083018461158e565b9392505050565b6118a0816113cd565b81146118aa575f5ffd5b50565b5f815190506118bb81611897565b92915050565b5f602082840312156118d6576118d5611368565b5b5f6118e3848285016118ad565b91505092915050565b7f4e6f7420796f7572207475726e000000000000000000000000000000000000005f82015250565b5f611920600d8361161c565b915061192b826118ec565b602082019050919050565b5f6020820190508181035f83015261194d81611914565b9050919050565b7f416d6f756e74206973206f7574206f662072616e6765000000000000000000005f82015250565b5f61198860168361161c565b915061199382611954565b602082019050919050565b5f6020820190508181035f8301526119b58161197c565b9050919050565b7f4475726174696f6e20697320746f6f2073686f727400000000000000000000005f82015250565b5f6119f060158361161c565b91506119fb826119bc565b602082019050919050565b5f6020820190508181035f830152611a1d816119e4565b9050919050565b5f602082019050611a375f830184611861565b92915050565b5f81519050611a4b81611526565b92915050565b5f60208284031215611a6657611a65611368565b5b5f611a7384828501611a3d565b91505092915050565b7f596f7520646f6e2774206861766520656e6f75676800000000000000000000005f82015250565b5f611ab060158361161c565b9150611abb82611a7c565b602082019050919050565b5f6020820190508181035f830152611add81611aa4565b9050919050565b5f604082019050611af75f830185611861565b611b046020830184611861565b9392505050565b7f416d6f756e7420616c6c6f776564206973206e6f7420656e6f756768000000005f82015250565b5f611b3f601c8361161c565b9150611b4a82611b0b565b602082019050919050565b5f6020820190508181035f830152611b6c81611b33565b9050919050565b5f606082019050611b865f830186611861565b611b936020830185611861565b611ba0604083018461158e565b949350505050565b7f4e487b71000000000000000000000000000000000000000000000000000000005f52601160045260245ffd5b5f611bdf82611400565b9150611bea83611400565b9250828201905080821115611c0257611c01611ba8565b5b92915050565b7f4e6f2041636365737300000000000000000000000000000000000000000000005f82015250565b5f611c3c60098361161c565b9150611c4782611c08565b602082019050919050565b5f6020820190508181035f830152611c6981611c30565b9050919050565b5f611c7a82611400565b9150611c8583611400565b9250828203905081811115611c9d57611c9c611ba8565b5b92915050565b5f611cad82611400565b9150611cb883611400565b9250828202611cc681611400565b91508282048414831517611cdd57611cdc611ba8565b5b509291505056fea2646970667358221220d0d614425ab4ecff89f8d67384fdd6d7ab782e10f77098f9a04efd90bab6ab6964736f6c634300081c0033",
					"opcodes": "PUSH1 0xC0 PUSH1 0x40 MSTORE PUSH9 0x3635C9ADC5DEA00000 PUSH1 0x80 SWAP1 DUP2 MSTORE POP PUSH10 0x152D02C7E14AF6800000 PUSH1 0xA0 SWAP1 DUP2 MSTORE POP CALLVALUE DUP1 ISZERO PUSH2 0x30 JUMPI PUSH0 PUSH0 REVERT JUMPDEST POP PUSH1 0x40 MLOAD PUSH2 0x1EEF CODESIZE SUB DUP1 PUSH2 0x1EEF DUP4 CODECOPY DUP2 DUP2 ADD PUSH1 0x40 MSTORE DUP2 ADD SWAP1 PUSH2 0x52 SWAP2 SWAP1 PUSH2 0x176 JUMP JUMPDEST DUP2 PUSH0 PUSH0 PUSH2 0x100 EXP DUP2 SLOAD DUP2 PUSH20 0xFFFFFFFFFFFFFFFFFFFFFFFFFFFFFFFFFFFFFFFF MUL NOT AND SWAP1 DUP4 PUSH20 0xFFFFFFFFFFFFFFFFFFFFFFFFFFFFFFFFFFFFFFFF AND MUL OR SWAP1 SSTORE POP DUP1 PUSH1 0x1 PUSH0 PUSH2 0x100 EXP DUP2 SLOAD DUP2 PUSH20 0xFFFFFFFFFFFFFFFFFFFFFFFFFFFFFFFFFFFFFFFF MUL NOT AND SWAP1 DUP4 PUSH20 0xFFFFFFFFFFFFFFFFFFFFFFFFFFFFFFFFFFFFFFFF AND MUL OR SWAP1 SSTORE POP CALLER PUSH1 0x2 PUSH0 PUSH2 0x100 EXP DUP2 SLOAD DUP2 PUSH20 0xFFFFFFFFFFFFFFFFFFFFFFFFFFFFFFFFFFFFFFFF MUL NOT AND SWAP1 DUP4 PUSH20 0xFFFFFFFFFFFFFFFFFFFFFFFFFFFFFFFFFFFFFFFF AND MUL OR SWAP1 SSTORE POP POP POP PUSH2 0x1B4 JUMP JUMPDEST PUSH0 PUSH0 REVERT JUMPDEST PUSH0 PUSH20 0xFFFFFFFFFFFFFFFFFFFFFFFFFFFFFFFFFFFFFFFF DUP3 AND SWAP1 POP SWAP2 SWAP1 POP JUMP JUMPDEST PUSH0 PUSH2 0x145 DUP3 PUSH2 0x11C JUMP JUMPDEST SWAP1 POP SWAP2 SWAP1 POP JUMP JUMPDEST PUSH2 0x155 DUP2 PUSH2 0x13B JUMP JUMPDEST DUP2 EQ PUSH2 0x15F JUMPI PUSH0 PUSH0 REVERT JUMPDEST POP JUMP JUMPDEST PUSH0 DUP2 MLOAD SWAP1 POP PUSH2 0x170 DUP2 PUSH2 0x14C JUMP JUMPDEST SWAP3 SWAP2 POP POP JUMP JUMPDEST PUSH0 PUSH0 PUSH1 0x40 DUP4 DUP6 SUB SLT ISZERO PUSH2 0x18C JUMPI PUSH2 0x18B PUSH2 0x118 JUMP JUMPDEST JUMPDEST PUSH0 PUSH2 0x199 DUP6 DUP3 DUP7 ADD PUSH2 0x162 JUMP JUMPDEST SWAP3 POP POP PUSH1 0x20 PUSH2 0x1AA DUP6 DUP3 DUP7 ADD PUSH2 0x162 JUMP JUMPDEST SWAP2 POP POP SWAP3 POP SWAP3 SWAP1 POP JUMP JUMPDEST PUSH1 0x80 MLOAD PUSH1 0xA0 MLOAD PUSH2 0x1D1A PUSH2 0x1D5 PUSH0 CODECOPY PUSH0 PUSH2 0xB13 ADD MSTORE PUSH0 PUSH2 0xAE8 ADD MSTORE PUSH2 0x1D1A PUSH0 RETURN INVALID PUSH1 0x80 PUSH1 0x40 MSTORE CALLVALUE DUP1 ISZERO PUSH2 0xF JUMPI PUSH0 PUSH0 REVERT JUMPDEST POP PUSH1 0x4 CALLDATASIZE LT PUSH2 0x91 JUMPI PUSH0 CALLDATALOAD PUSH1 0xE0 SHR DUP1 PUSH4 0x7B0472F0 GT PUSH2 0x64 JUMPI DUP1 PUSH4 0x7B0472F0 EQ PUSH2 0x11D JUMPI DUP1 PUSH4 0x9BE2F4ED EQ PUSH2 0x139 JUMPI DUP1 PUSH4 0xDEDE8EF6 EQ PUSH2 0x157 JUMPI DUP1 PUSH4 0xEFBABD91 EQ PUSH2 0x175 JUMPI DUP1 PUSH4 0xF2FDE38B EQ PUSH2 0x193 JUMPI PUSH2 0x91 JUMP JUMPDEST DUP1 PUSH4 0x21712697 EQ PUSH2 0x95 JUMPI DUP1 PUSH4 0x4E71E0C8 EQ PUSH2 0xC5 JUMPI DUP1 PUSH4 0x6D6E31F7 EQ PUSH2 0xCF JUMPI DUP1 PUSH4 0x74B28101 EQ PUSH2 0xFF JUMPI JUMPDEST PUSH0 PUSH0 REVERT JUMPDEST PUSH2 0xAF PUSH1 0x4 DUP1 CALLDATASIZE SUB DUP2 ADD SWAP1 PUSH2 0xAA SWAP2 SWAP1 PUSH2 0x13A2 JUMP JUMPDEST PUSH2 0x1AF JUMP JUMPDEST PUSH1 0x40 MLOAD PUSH2 0xBC SWAP2 SWAP1 PUSH2 0x13E7 JUMP JUMPDEST PUSH1 0x40 MLOAD DUP1 SWAP2 SUB SWAP1 RETURN JUMPDEST PUSH2 0xCD PUSH2 0x606 JUMP JUMPDEST STOP JUMPDEST PUSH2 0xE9 PUSH1 0x4 DUP1 CALLDATASIZE SUB DUP2 ADD SWAP1 PUSH2 0xE4 SWAP2 SWAP1 PUSH2 0x13A2 JUMP JUMPDEST PUSH2 0x842 JUMP JUMPDEST PUSH1 0x40 MLOAD PUSH2 0xF6 SWAP2 SWAP1 PUSH2 0x147A JUMP JUMPDEST PUSH1 0x40 MLOAD DUP1 SWAP2 SUB SWAP1 RETURN JUMPDEST PUSH2 0x107 PUSH2 0x9E9 JUMP JUMPDEST PUSH1 0x40 MLOAD PUSH2 0x114 SWAP2 SWAP1 PUSH2 0x150D JUMP JUMPDEST PUSH1 0x40 MLOAD DUP1 SWAP2 SUB SWAP1 RETURN JUMPDEST PUSH2 0x137 PUSH1 0x4 DUP1 CALLDATASIZE SUB DUP2 ADD SWAP1 PUSH2 0x132 SWAP2 SWAP1 PUSH2 0x1550 JUMP JUMPDEST PUSH2 0xA0D JUMP JUMPDEST STOP JUMPDEST PUSH2 0x141 PUSH2 0xF4A JUMP JUMPDEST PUSH1 0x40 MLOAD PUSH2 0x14E SWAP2 SWAP1 PUSH2 0x150D JUMP JUMPDEST PUSH1 0x40 MLOAD DUP1 SWAP2 SUB SWAP1 RETURN JUMPDEST PUSH2 0x15F PUSH2 0xF6F JUMP JUMPDEST PUSH1 0x40 MLOAD PUSH2 0x16C SWAP2 SWAP1 PUSH2 0x159D JUMP JUMPDEST PUSH1 0x40 MLOAD DUP1 SWAP2 SUB SWAP1 RETURN JUMPDEST PUSH2 0x17D PUSH2 0x10A1 JUMP JUMPDEST PUSH1 0x40 MLOAD PUSH2 0x18A SWAP2 SWAP1 PUSH2 0x159D JUMP JUMPDEST PUSH1 0x40 MLOAD DUP1 SWAP2 SUB SWAP1 RETURN JUMPDEST PUSH2 0x1AD PUSH1 0x4 DUP1 CALLDATASIZE SUB DUP2 ADD SWAP1 PUSH2 0x1A8 SWAP2 SWAP1 PUSH2 0x15F1 JUMP JUMPDEST PUSH2 0x11D4 JUMP JUMPDEST STOP JUMPDEST PUSH0 PUSH1 0x3 PUSH1 0x14 SWAP1 SLOAD SWAP1 PUSH2 0x100 EXP SWAP1 DIV PUSH1 0xFF AND ISZERO PUSH2 0x200 JUMPI PUSH1 0x40 MLOAD PUSH32 0x8C379A000000000000000000000000000000000000000000000000000000000 DUP2 MSTORE PUSH1 0x4 ADD PUSH2 0x1F7 SWAP1 PUSH2 0x1676 JUMP JUMPDEST PUSH1 0x40 MLOAD DUP1 SWAP2 SUB SWAP1 REVERT JUMPDEST PUSH1 0x1 PUSH1 0x3 PUSH1 0x14 PUSH2 0x100 EXP DUP2 SLOAD DUP2 PUSH1 0xFF MUL NOT AND SWAP1 DUP4 ISZERO ISZERO MUL OR SWAP1 SSTORE POP PUSH0 PUSH20 0xFFFFFFFFFFFFFFFFFFFFFFFFFFFFFFFFFFFFFFFF AND CALLER PUSH20 0xFFFFFFFFFFFFFFFFFFFFFFFFFFFFFFFFFFFFFFFF AND SUB PUSH2 0x289 JUMPI PUSH1 0x40 MLOAD PUSH32 0x8C379A000000000000000000000000000000000000000000000000000000000 DUP2 MSTORE PUSH1 0x4 ADD PUSH2 0x280 SWAP1 PUSH2 0x16DE JUMP JUMPDEST PUSH1 0x40 MLOAD DUP1 SWAP2 SUB SWAP1 REVERT JUMPDEST PUSH1 0x4 PUSH0 CALLER PUSH20 0xFFFFFFFFFFFFFFFFFFFFFFFFFFFFFFFFFFFFFFFF AND PUSH20 0xFFFFFFFFFFFFFFFFFFFFFFFFFFFFFFFFFFFFFFFF AND DUP2 MSTORE PUSH1 0x20 ADD SWAP1 DUP2 MSTORE PUSH1 0x20 ADD PUSH0 KECCAK256 DUP1 SLOAD SWAP1 POP DUP3 PUSH1 0xFF AND LT PUSH2 0x30E JUMPI PUSH1 0x40 MLOAD PUSH32 0x8C379A000000000000000000000000000000000000000000000000000000000 DUP2 MSTORE PUSH1 0x4 ADD PUSH2 0x305 SWAP1 PUSH2 0x1746 JUMP JUMPDEST PUSH1 0x40 MLOAD DUP1 SWAP2 SUB SWAP1 REVERT JUMPDEST PUSH0 PUSH1 0x4 PUSH0 CALLER PUSH20 0xFFFFFFFFFFFFFFFFFFFFFFFFFFFFFFFFFFFFFFFF AND PUSH20 0xFFFFFFFFFFFFFFFFFFFFFFFFFFFFFFFFFFFFFFFF AND DUP2 MSTORE PUSH1 0x20 ADD SWAP1 DUP2 MSTORE PUSH1 0x20 ADD PUSH0 KECCAK256 DUP4 PUSH1 0xFF AND DUP2 SLOAD DUP2 LT PUSH2 0x361 JUMPI PUSH2 0x360 PUSH2 0x1764 JUMP JUMPDEST JUMPDEST SWAP1 PUSH0 MSTORE PUSH1 0x20 PUSH0 KECCAK256 SWAP1 PUSH1 0x4 MUL ADD SWAP1 POP DUP1 PUSH1 0x2 ADD SLOAD TIMESTAMP GT PUSH2 0x3B5 JUMPI PUSH1 0x40 MLOAD PUSH32 0x8C379A000000000000000000000000000000000000000000000000000000000 DUP2 MSTORE PUSH1 0x4 ADD PUSH2 0x3AC SWAP1 PUSH2 0x17DB JUMP JUMPDEST PUSH1 0x40 MLOAD DUP1 SWAP2 SUB SWAP1 REVERT JUMPDEST DUP1 PUSH1 0x3 ADD PUSH0 SWAP1 SLOAD SWAP1 PUSH2 0x100 EXP SWAP1 DIV PUSH1 0xFF AND ISZERO PUSH2 0x406 JUMPI PUSH1 0x40 MLOAD PUSH32 0x8C379A000000000000000000000000000000000000000000000000000000000 DUP2 MSTORE PUSH1 0x4 ADD PUSH2 0x3FD SWAP1 PUSH2 0x1843 JUMP JUMPDEST PUSH1 0x40 MLOAD DUP1 SWAP2 SUB SWAP1 REVERT JUMPDEST PUSH0 DUP2 PUSH0 ADD SLOAD SWAP1 POP PUSH0 PUSH2 0x420 DUP4 PUSH1 0x1 ADD SLOAD DUP5 PUSH1 0x2 ADD SLOAD PUSH2 0x1314 JUMP JUMPDEST SWAP1 POP PUSH1 0x1 DUP4 PUSH1 0x3 ADD PUSH0 PUSH2 0x100 EXP DUP2 SLOAD DUP2 PUSH1 0xFF MUL NOT AND SWAP1 DUP4 ISZERO ISZERO MUL OR SWAP1 SSTORE POP PUSH0 DUP4 PUSH0 ADD DUP2 SWAP1 SSTORE POP PUSH0 DUP4 PUSH1 0x1 ADD DUP2 SWAP1 SSTORE POP PUSH0 DUP4 PUSH1 0x2 ADD DUP2 SWAP1 SSTORE POP PUSH0 PUSH0 SWAP1 SLOAD SWAP1 PUSH2 0x100 EXP SWAP1 DIV PUSH20 0xFFFFFFFFFFFFFFFFFFFFFFFFFFFFFFFFFFFFFFFF AND PUSH20 0xFFFFFFFFFFFFFFFFFFFFFFFFFFFFFFFFFFFFFFFF AND PUSH4 0xA9059CBB CALLER DUP5 PUSH1 0x40 MLOAD DUP4 PUSH4 0xFFFFFFFF AND PUSH1 0xE0 SHL DUP2 MSTORE PUSH1 0x4 ADD PUSH2 0x4B3 SWAP3 SWAP2 SWAP1 PUSH2 0x1870 JUMP JUMPDEST PUSH1 0x20 PUSH1 0x40 MLOAD DUP1 DUP4 SUB DUP2 PUSH0 DUP8 GAS CALL ISZERO DUP1 ISZERO PUSH2 0x4CF JUMPI RETURNDATASIZE PUSH0 PUSH0 RETURNDATACOPY RETURNDATASIZE PUSH0 REVERT JUMPDEST POP POP POP POP PUSH1 0x40 MLOAD RETURNDATASIZE PUSH1 0x1F NOT PUSH1 0x1F DUP3 ADD AND DUP3 ADD DUP1 PUSH1 0x40 MSTORE POP DUP2 ADD SWAP1 PUSH2 0x4F3 SWAP2 SWAP1 PUSH2 0x18C1 JUMP JUMPDEST POP PUSH1 0x1 PUSH0 SWAP1 SLOAD SWAP1 PUSH2 0x100 EXP SWAP1 DIV PUSH20 0xFFFFFFFFFFFFFFFFFFFFFFFFFFFFFFFFFFFFFFFF AND PUSH20 0xFFFFFFFFFFFFFFFFFFFFFFFFFFFFFFFFFFFFFFFF AND PUSH4 0xA9059CBB CALLER DUP4 PUSH1 0x40 MLOAD DUP4 PUSH4 0xFFFFFFFF AND PUSH1 0xE0 SHL DUP2 MSTORE PUSH1 0x4 ADD PUSH2 0x550 SWAP3 SWAP2 SWAP1 PUSH2 0x1870 JUMP JUMPDEST PUSH1 0x20 PUSH1 0x40 MLOAD DUP1 DUP4 SUB DUP2 PUSH0 DUP8 GAS CALL ISZERO DUP1 ISZERO PUSH2 0x56C JUMPI RETURNDATASIZE PUSH0 PUSH0 RETURNDATACOPY RETURNDATASIZE PUSH0 REVERT JUMPDEST POP POP POP POP PUSH1 0x40 MLOAD RETURNDATASIZE PUSH1 0x1F NOT PUSH1 0x1F DUP3 ADD AND DUP3 ADD DUP1 PUSH1 0x40 MSTORE POP DUP2 ADD SWAP1 PUSH2 0x590 SWAP2 SWAP1 PUSH2 0x18C1 JUMP JUMPDEST POP DUP1 CALLER PUSH20 0xFFFFFFFFFFFFFFFFFFFFFFFFFFFFFFFFFFFFFFFF AND PUSH32 0xFB59733A8F0BD43414922FB86C6FFDD090E44935074086318980CA89221ACC56 DUP5 PUSH1 0x40 MLOAD PUSH2 0x5D8 SWAP2 SWAP1 PUSH2 0x159D JUMP JUMPDEST PUSH1 0x40 MLOAD DUP1 SWAP2 SUB SWAP1 LOG3 PUSH1 0x1 SWAP4 POP POP POP POP PUSH0 PUSH1 0x3 PUSH1 0x14 PUSH2 0x100 EXP DUP2 SLOAD DUP2 PUSH1 0xFF MUL NOT AND SWAP1 DUP4 ISZERO ISZERO MUL OR SWAP1 SSTORE POP SWAP2 SWAP1 POP JUMP JUMPDEST PUSH0 PUSH20 0xFFFFFFFFFFFFFFFFFFFFFFFFFFFFFFFFFFFFFFFF AND CALLER PUSH20 0xFFFFFFFFFFFFFFFFFFFFFFFFFFFFFFFFFFFFFFFF AND SUB PUSH2 0x674 JUMPI PUSH1 0x40 MLOAD PUSH32 0x8C379A000000000000000000000000000000000000000000000000000000000 DUP2 MSTORE PUSH1 0x4 ADD PUSH2 0x66B SWAP1 PUSH2 0x16DE JUMP JUMPDEST PUSH1 0x40 MLOAD DUP1 SWAP2 SUB SWAP1 REVERT JUMPDEST PUSH1 0x3 PUSH0 SWAP1 SLOAD SWAP1 PUSH2 0x100 EXP SWAP1 DIV PUSH20 0xFFFFFFFFFFFFFFFFFFFFFFFFFFFFFFFFFFFFFFFF AND PUSH20 0xFFFFFFFFFFFFFFFFFFFFFFFFFFFFFFFFFFFFFFFF AND CALLER PUSH20 0xFFFFFFFFFFFFFFFFFFFFFFFFFFFFFFFFFFFFFFFF AND EQ PUSH2 0x703 JUMPI PUSH1 0x40 MLOAD PUSH32 0x8C379A000000000000000000000000000000000000000000000000000000000 DUP2 MSTORE PUSH1 0x4 ADD PUSH2 0x6FA SWAP1 PUSH2 0x1936 JUMP JUMPDEST PUSH1 0x40 MLOAD DUP1 SWAP2 SUB SWAP1 REVERT JUMPDEST PUSH1 0x3 PUSH0 SWAP1 SLOAD SWAP1 PUSH2 0x100 EXP SWAP1 DIV PUSH20 0xFFFFFFFFFFFFFFFFFFFFFFFFFFFFFFFFFFFFFFFF AND PUSH20 0xFFFFFFFFFFFFFFFFFFFFFFFFFFFFFFFFFFFFFFFF AND PUSH1 0x2 PUSH0 SWAP1 SLOAD SWAP1 PUSH2 0x100 EXP SWAP1 DIV PUSH20 0xFFFFFFFFFFFFFFFFFFFFFFFFFFFFFFFFFFFFFFFF AND PUSH20 0xFFFFFFFFFFFFFFFFFFFFFFFFFFFFFFFFFFFFFFFF AND PUSH32 0xD18B5FD22306E373229B9439188228EDCA81207D1667F604DAF6CEF8AA3EE67 PUSH1 0x40 MLOAD PUSH1 0x40 MLOAD DUP1 SWAP2 SUB SWAP1 LOG3 PUSH1 0x3 PUSH0 SWAP1 SLOAD SWAP1 PUSH2 0x100 EXP SWAP1 DIV PUSH20 0xFFFFFFFFFFFFFFFFFFFFFFFFFFFFFFFFFFFFFFFF AND PUSH1 0x2 PUSH0 PUSH2 0x100 EXP DUP2 SLOAD DUP2 PUSH20 0xFFFFFFFFFFFFFFFFFFFFFFFFFFFFFFFFFFFFFFFF MUL NOT AND SWAP1 DUP4 PUSH20 0xFFFFFFFFFFFFFFFFFFFFFFFFFFFFFFFFFFFFFFFF AND MUL OR SWAP1 SSTORE POP PUSH0 PUSH1 0x3 PUSH0 PUSH2 0x100 EXP DUP2 SLOAD DUP2 PUSH20 0xFFFFFFFFFFFFFFFFFFFFFFFFFFFFFFFFFFFFFFFF MUL NOT AND SWAP1 DUP4 PUSH20 0xFFFFFFFFFFFFFFFFFFFFFFFFFFFFFFFFFFFFFFFF AND MUL OR SWAP1 SSTORE POP JUMP JUMPDEST PUSH2 0x84A PUSH2 0x1342 JUMP JUMPDEST PUSH0 PUSH20 0xFFFFFFFFFFFFFFFFFFFFFFFFFFFFFFFFFFFFFFFF AND CALLER PUSH20 0xFFFFFFFFFFFFFFFFFFFFFFFFFFFFFFFFFFFFFFFF AND SUB PUSH2 0x8B8 JUMPI PUSH1 0x40 MLOAD PUSH32 0x8C379A000000000000000000000000000000000000000000000000000000000 DUP2 MSTORE PUSH1 0x4 ADD PUSH2 0x8AF SWAP1 PUSH2 0x16DE JUMP JUMPDEST PUSH1 0x40 MLOAD DUP1 SWAP2 SUB SWAP1 REVERT JUMPDEST PUSH1 0x4 PUSH0 CALLER PUSH20 0xFFFFFFFFFFFFFFFFFFFFFFFFFFFFFFFFFFFFFFFF AND PUSH20 0xFFFFFFFFFFFFFFFFFFFFFFFFFFFFFFFFFFFFFFFF AND DUP2 MSTORE PUSH1 0x20 ADD SWAP1 DUP2 MSTORE PUSH1 0x20 ADD PUSH0 KECCAK256 DUP1 SLOAD SWAP1 POP DUP3 PUSH1 0xFF AND LT PUSH2 0x93D JUMPI PUSH1 0x40 MLOAD PUSH32 0x8C379A000000000000000000000000000000000000000000000000000000000 DUP2 MSTORE PUSH1 0x4 ADD PUSH2 0x934 SWAP1 PUSH2 0x1746 JUMP JUMPDEST PUSH1 0x40 MLOAD DUP1 SWAP2 SUB SWAP1 REVERT JUMPDEST PUSH0 PUSH1 0x4 PUSH0 CALLER PUSH20 0xFFFFFFFFFFFFFFFFFFFFFFFFFFFFFFFFFFFFFFFF AND PUSH20 0xFFFFFFFFFFFFFFFFFFFFFFFFFFFFFFFFFFFFFFFF AND DUP2 MSTORE PUSH1 0x20 ADD SWAP1 DUP2 MSTORE PUSH1 0x20 ADD PUSH0 KECCAK256 DUP4 PUSH1 0xFF AND DUP2 SLOAD DUP2 LT PUSH2 0x990 JUMPI PUSH2 0x98F PUSH2 0x1764 JUMP JUMPDEST JUMPDEST SWAP1 PUSH0 MSTORE PUSH1 0x20 PUSH0 KECCAK256 SWAP1 PUSH1 0x4 MUL ADD PUSH1 0x40 MLOAD DUP1 PUSH1 0x80 ADD PUSH1 0x40 MSTORE SWAP1 DUP2 PUSH0 DUP3 ADD SLOAD DUP2 MSTORE PUSH1 0x20 ADD PUSH1 0x1 DUP3 ADD SLOAD DUP2 MSTORE PUSH1 0x20 ADD PUSH1 0x2 DUP3 ADD SLOAD DUP2 MSTORE PUSH1 0x20 ADD PUSH1 0x3 DUP3 ADD PUSH0 SWAP1 SLOAD SWAP1 PUSH2 0x100 EXP SWAP1 DIV PUSH1 0xFF AND ISZERO ISZERO ISZERO ISZERO DUP2 MSTORE POP POP SWAP1 POP DUP1 SWAP2 POP POP SWAP2 SWAP1 POP JUMP JUMPDEST PUSH0 PUSH0 SWAP1 SLOAD SWAP1 PUSH2 0x100 EXP SWAP1 DIV PUSH20 0xFFFFFFFFFFFFFFFFFFFFFFFFFFFFFFFFFFFFFFFF AND DUP2 JUMP JUMPDEST PUSH1 0x3 PUSH1 0x14 SWAP1 SLOAD SWAP1 PUSH2 0x100 EXP SWAP1 DIV PUSH1 0xFF AND ISZERO PUSH2 0xA5D JUMPI PUSH1 0x40 MLOAD PUSH32 0x8C379A000000000000000000000000000000000000000000000000000000000 DUP2 MSTORE PUSH1 0x4 ADD PUSH2 0xA54 SWAP1 PUSH2 0x1676 JUMP JUMPDEST PUSH1 0x40 MLOAD DUP1 SWAP2 SUB SWAP1 REVERT JUMPDEST PUSH1 0x1 PUSH1 0x3 PUSH1 0x14 PUSH2 0x100 EXP DUP2 SLOAD DUP2 PUSH1 0xFF MUL NOT AND SWAP1 DUP4 ISZERO ISZERO MUL OR SWAP1 SSTORE POP PUSH0 PUSH20 0xFFFFFFFFFFFFFFFFFFFFFFFFFFFFFFFFFFFFFFFF AND CALLER PUSH20 0xFFFFFFFFFFFFFFFFFFFFFFFFFFFFFFFFFFFFFFFF AND SUB PUSH2 0xAE6 JUMPI PUSH1 0x40 MLOAD PUSH32 0x8C379A000000000000000000000000000000000000000000000000000000000 DUP2 MSTORE PUSH1 0x4 ADD PUSH2 0xADD SWAP1 PUSH2 0x16DE JUMP JUMPDEST PUSH1 0x40 MLOAD DUP1 SWAP2 SUB SWAP1 REVERT JUMPDEST PUSH32 0x0 DUP3 LT ISZERO DUP1 ISZERO PUSH2 0xB36 JUMPI POP PUSH32 0x0 DUP3 GT ISZERO JUMPDEST PUSH2 0xB75 JUMPI PUSH1 0x40 MLOAD PUSH32 0x8C379A000000000000000000000000000000000000000000000000000000000 DUP2 MSTORE PUSH1 0x4 ADD PUSH2 0xB6C SWAP1 PUSH2 0x199E JUMP JUMPDEST PUSH1 0x40 MLOAD DUP1 SWAP2 SUB SWAP1 REVERT JUMPDEST PUSH0 DUP2 GT PUSH2 0xBB7 JUMPI PUSH1 0x40 MLOAD PUSH32 0x8C379A000000000000000000000000000000000000000000000000000000000 DUP2 MSTORE PUSH1 0x4 ADD PUSH2 0xBAE SWAP1 PUSH2 0x1A06 JUMP JUMPDEST PUSH1 0x40 MLOAD DUP1 SWAP2 SUB SWAP1 REVERT JUMPDEST DUP2 PUSH0 PUSH0 SWAP1 SLOAD SWAP1 PUSH2 0x100 EXP SWAP1 DIV PUSH20 0xFFFFFFFFFFFFFFFFFFFFFFFFFFFFFFFFFFFFFFFF AND PUSH20 0xFFFFFFFFFFFFFFFFFFFFFFFFFFFFFFFFFFFFFFFF AND PUSH4 0x70A08231 CALLER PUSH1 0x40 MLOAD DUP3 PUSH4 0xFFFFFFFF AND PUSH1 0xE0 SHL DUP2 MSTORE PUSH1 0x4 ADD PUSH2 0xC11 SWAP2 SWAP1 PUSH2 0x1A24 JUMP JUMPDEST PUSH1 0x20 PUSH1 0x40 MLOAD DUP1 DUP4 SUB DUP2 DUP7 GAS STATICCALL ISZERO DUP1 ISZERO PUSH2 0xC2C JUMPI RETURNDATASIZE PUSH0 PUSH0 RETURNDATACOPY RETURNDATASIZE PUSH0 REVERT JUMPDEST POP POP POP POP PUSH1 0x40 MLOAD RETURNDATASIZE PUSH1 0x1F NOT PUSH1 0x1F DUP3 ADD AND DUP3 ADD DUP1 PUSH1 0x40 MSTORE POP DUP2 ADD SWAP1 PUSH2 0xC50 SWAP2 SWAP1 PUSH2 0x1A51 JUMP JUMPDEST LT ISZERO PUSH2 0xC91 JUMPI PUSH1 0x40 MLOAD PUSH32 0x8C379A000000000000000000000000000000000000000000000000000000000 DUP2 MSTORE PUSH1 0x4 ADD PUSH2 0xC88 SWAP1 PUSH2 0x1AC6 JUMP JUMPDEST PUSH1 0x40 MLOAD DUP1 SWAP2 SUB SWAP1 REVERT JUMPDEST DUP2 PUSH0 PUSH0 SWAP1 SLOAD SWAP1 PUSH2 0x100 EXP SWAP1 DIV PUSH20 0xFFFFFFFFFFFFFFFFFFFFFFFFFFFFFFFFFFFFFFFF AND PUSH20 0xFFFFFFFFFFFFFFFFFFFFFFFFFFFFFFFFFFFFFFFF AND PUSH4 0xDD62ED3E CALLER ADDRESS PUSH1 0x40 MLOAD DUP4 PUSH4 0xFFFFFFFF AND PUSH1 0xE0 SHL DUP2 MSTORE PUSH1 0x4 ADD PUSH2 0xCED SWAP3 SWAP2 SWAP1 PUSH2 0x1AE4 JUMP JUMPDEST PUSH1 0x20 PUSH1 0x40 MLOAD DUP1 DUP4 SUB DUP2 DUP7 GAS STATICCALL ISZERO DUP1 ISZERO PUSH2 0xD08 JUMPI RETURNDATASIZE PUSH0 PUSH0 RETURNDATACOPY RETURNDATASIZE PUSH0 REVERT JUMPDEST POP POP POP POP PUSH1 0x40 MLOAD RETURNDATASIZE PUSH1 0x1F NOT PUSH1 0x1F DUP3 ADD AND DUP3 ADD DUP1 PUSH1 0x40 MSTORE POP DUP2 ADD SWAP1 PUSH2 0xD2C SWAP2 SWAP1 PUSH2 0x1A51 JUMP JUMPDEST LT ISZERO PUSH2 0xD6D JUMPI PUSH1 0x40 MLOAD PUSH32 0x8C379A000000000000000000000000000000000000000000000000000000000 DUP2 MSTORE PUSH1 0x4 ADD PUSH2 0xD64 SWAP1 PUSH2 0x1B55 JUMP JUMPDEST PUSH1 0x40 MLOAD DUP1 SWAP2 SUB SWAP1 REVERT JUMPDEST PUSH0 PUSH0 SWAP1 SLOAD SWAP1 PUSH2 0x100 EXP SWAP1 DIV PUSH20 0xFFFFFFFFFFFFFFFFFFFFFFFFFFFFFFFFFFFFFFFF AND PUSH20 0xFFFFFFFFFFFFFFFFFFFFFFFFFFFFFFFFFFFFFFFF AND PUSH4 0x23B872DD CALLER ADDRESS DUP6 PUSH1 0x40 MLOAD DUP5 PUSH4 0xFFFFFFFF AND PUSH1 0xE0 SHL DUP2 MSTORE PUSH1 0x4 ADD PUSH2 0xDCA SWAP4 SWAP3 SWAP2 SWAP1 PUSH2 0x1B73 JUMP JUMPDEST PUSH1 0x20 PUSH1 0x40 MLOAD DUP1 DUP4 SUB DUP2 PUSH0 DUP8 GAS CALL ISZERO DUP1 ISZERO PUSH2 0xDE6 JUMPI RETURNDATASIZE PUSH0 PUSH0 RETURNDATACOPY RETURNDATASIZE PUSH0 REVERT JUMPDEST POP POP POP POP PUSH1 0x40 MLOAD RETURNDATASIZE PUSH1 0x1F NOT PUSH1 0x1F DUP3 ADD AND DUP3 ADD DUP1 PUSH1 0x40 MSTORE POP DUP2 ADD SWAP1 PUSH2 0xE0A SWAP2 SWAP1 PUSH2 0x18C1 JUMP JUMPDEST POP PUSH2 0xE13 PUSH2 0x1342 JUMP JUMPDEST DUP3 DUP2 PUSH0 ADD DUP2 DUP2 MSTORE POP POP DUP2 TIMESTAMP PUSH2 0xE28 SWAP2 SWAP1 PUSH2 0x1BD5 JUMP JUMPDEST DUP2 PUSH1 0x40 ADD DUP2 DUP2 MSTORE POP POP TIMESTAMP DUP2 PUSH1 0x20 ADD DUP2 DUP2 MSTORE POP POP PUSH1 0x4 PUSH0 CALLER PUSH20 0xFFFFFFFFFFFFFFFFFFFFFFFFFFFFFFFFFFFFFFFF AND PUSH20 0xFFFFFFFFFFFFFFFFFFFFFFFFFFFFFFFFFFFFFFFF AND DUP2 MSTORE PUSH1 0x20 ADD SWAP1 DUP2 MSTORE PUSH1 0x20 ADD PUSH0 KECCAK256 DUP2 SWAP1 DUP1 PUSH1 0x1 DUP2 SLOAD ADD DUP1 DUP3 SSTORE DUP1 SWAP2 POP POP PUSH1 0x1 SWAP1 SUB SWAP1 PUSH0 MSTORE PUSH1 0x20 PUSH0 KECCAK256 SWAP1 PUSH1 0x4 MUL ADD PUSH0 SWAP1 SWAP2 SWAP1 SWAP2 SWAP1 SWAP2 POP PUSH0 DUP3 ADD MLOAD DUP2 PUSH0 ADD SSTORE PUSH1 0x20 DUP3 ADD MLOAD DUP2 PUSH1 0x1 ADD SSTORE PUSH1 0x40 DUP3 ADD MLOAD DUP2 PUSH1 0x2 ADD SSTORE PUSH1 0x60 DUP3 ADD MLOAD DUP2 PUSH1 0x3 ADD PUSH0 PUSH2 0x100 EXP DUP2 SLOAD DUP2 PUSH1 0xFF MUL NOT AND SWAP1 DUP4 ISZERO ISZERO MUL OR SWAP1 SSTORE POP POP POP TIMESTAMP CALLER PUSH20 0xFFFFFFFFFFFFFFFFFFFFFFFFFFFFFFFFFFFFFFFF AND PUSH32 0x61BB8B82654398E0BDD4E0D489B5E9104B6840211FD89F7264264C96589051FD DUP6 PUSH1 0x40 MLOAD PUSH2 0xF23 SWAP2 SWAP1 PUSH2 0x159D JUMP JUMPDEST PUSH1 0x40 MLOAD DUP1 SWAP2 SUB SWAP1 LOG3 POP PUSH0 PUSH1 0x3 PUSH1 0x14 PUSH2 0x100 EXP DUP2 SLOAD DUP2 PUSH1 0xFF MUL NOT AND SWAP1 DUP4 ISZERO ISZERO MUL OR SWAP1 SSTORE POP POP POP JUMP JUMPDEST PUSH1 0x1 PUSH0 SWAP1 SLOAD SWAP1 PUSH2 0x100 EXP SWAP1 DIV PUSH20 0xFFFFFFFFFFFFFFFFFFFFFFFFFFFFFFFFFFFFFFFF AND DUP2 JUMP JUMPDEST PUSH0 PUSH1 0x2 PUSH0 SWAP1 SLOAD SWAP1 PUSH2 0x100 EXP SWAP1 DIV PUSH20 0xFFFFFFFFFFFFFFFFFFFFFFFFFFFFFFFFFFFFFFFF AND PUSH20 0xFFFFFFFFFFFFFFFFFFFFFFFFFFFFFFFFFFFFFFFF AND CALLER PUSH20 0xFFFFFFFFFFFFFFFFFFFFFFFFFFFFFFFFFFFFFFFF AND EQ PUSH2 0xFFF JUMPI PUSH1 0x40 MLOAD PUSH32 0x8C379A000000000000000000000000000000000000000000000000000000000 DUP2 MSTORE PUSH1 0x4 ADD PUSH2 0xFF6 SWAP1 PUSH2 0x1C52 JUMP JUMPDEST PUSH1 0x40 MLOAD DUP1 SWAP2 SUB SWAP1 REVERT JUMPDEST PUSH0 PUSH0 PUSH0 SWAP1 SLOAD SWAP1 PUSH2 0x100 EXP SWAP1 DIV PUSH20 0xFFFFFFFFFFFFFFFFFFFFFFFFFFFFFFFFFFFFFFFF AND PUSH20 0xFFFFFFFFFFFFFFFFFFFFFFFFFFFFFFFFFFFFFFFF AND PUSH4 0x70A08231 ADDRESS PUSH1 0x40 MLOAD DUP3 PUSH4 0xFFFFFFFF AND PUSH1 0xE0 SHL DUP2 MSTORE PUSH1 0x4 ADD PUSH2 0x1059 SWAP2 SWAP1 PUSH2 0x1A24 JUMP JUMPDEST PUSH1 0x20 PUSH1 0x40 MLOAD DUP1 DUP4 SUB DUP2 DUP7 GAS STATICCALL ISZERO DUP1 ISZERO PUSH2 0x1074 JUMPI RETURNDATASIZE PUSH0 PUSH0 RETURNDATACOPY RETURNDATASIZE PUSH0 REVERT JUMPDEST POP POP POP POP PUSH1 0x40 MLOAD RETURNDATASIZE PUSH1 0x1F NOT PUSH1 0x1F DUP3 ADD AND DUP3 ADD DUP1 PUSH1 0x40 MSTORE POP DUP2 ADD SWAP1 PUSH2 0x1098 SWAP2 SWAP1 PUSH2 0x1A51 JUMP JUMPDEST SWAP1 POP DUP1 SWAP2 POP POP SWAP1 JUMP JUMPDEST PUSH0 PUSH1 0x2 PUSH0 SWAP1 SLOAD SWAP1 PUSH2 0x100 EXP SWAP1 DIV PUSH20 0xFFFFFFFFFFFFFFFFFFFFFFFFFFFFFFFFFFFFFFFF AND PUSH20 0xFFFFFFFFFFFFFFFFFFFFFFFFFFFFFFFFFFFFFFFF AND CALLER PUSH20 0xFFFFFFFFFFFFFFFFFFFFFFFFFFFFFFFFFFFFFFFF AND EQ PUSH2 0x1131 JUMPI PUSH1 0x40 MLOAD PUSH32 0x8C379A000000000000000000000000000000000000000000000000000000000 DUP2 MSTORE PUSH1 0x4 ADD PUSH2 0x1128 SWAP1 PUSH2 0x1C52 JUMP JUMPDEST PUSH1 0x40 MLOAD DUP1 SWAP2 SUB SWAP1 REVERT JUMPDEST PUSH0 PUSH1 0x1 PUSH0 SWAP1 SLOAD SWAP1 PUSH2 0x100 EXP SWAP1 DIV PUSH20 0xFFFFFFFFFFFFFFFFFFFFFFFFFFFFFFFFFFFFFFFF AND PUSH20 0xFFFFFFFFFFFFFFFFFFFFFFFFFFFFFFFFFFFFFFFF AND PUSH4 0x70A08231 ADDRESS PUSH1 0x40 MLOAD DUP3 PUSH4 0xFFFFFFFF AND PUSH1 0xE0 SHL DUP2 MSTORE PUSH1 0x4 ADD PUSH2 0x118C SWAP2 SWAP1 PUSH2 0x1A24 JUMP JUMPDEST PUSH1 0x20 PUSH1 0x40 MLOAD DUP1 DUP4 SUB DUP2 DUP7 GAS STATICCALL ISZERO DUP1 ISZERO PUSH2 0x11A7 JUMPI RETURNDATASIZE PUSH0 PUSH0 RETURNDATACOPY RETURNDATASIZE PUSH0 REVERT JUMPDEST POP POP POP POP PUSH1 0x40 MLOAD RETURNDATASIZE PUSH1 0x1F NOT PUSH1 0x1F DUP3 ADD AND DUP3 ADD DUP1 PUSH1 0x40 MSTORE POP DUP2 ADD SWAP1 PUSH2 0x11CB SWAP2 SWAP1 PUSH2 0x1A51 JUMP JUMPDEST SWAP1 POP DUP1 SWAP2 POP POP SWAP1 JUMP JUMPDEST PUSH1 0x2 PUSH0 SWAP1 SLOAD SWAP1 PUSH2 0x100 EXP SWAP1 DIV PUSH20 0xFFFFFFFFFFFFFFFFFFFFFFFFFFFFFFFFFFFFFFFF AND PUSH20 0xFFFFFFFFFFFFFFFFFFFFFFFFFFFFFFFFFFFFFFFF AND CALLER PUSH20 0xFFFFFFFFFFFFFFFFFFFFFFFFFFFFFFFFFFFFFFFF AND EQ PUSH2 0x1263 JUMPI PUSH1 0x40 MLOAD PUSH32 0x8C379A000000000000000000000000000000000000000000000000000000000 DUP2 MSTORE PUSH1 0x4 ADD PUSH2 0x125A SWAP1 PUSH2 0x1C52 JUMP JUMPDEST PUSH1 0x40 MLOAD DUP1 SWAP2 SUB SWAP1 REVERT JUMPDEST PUSH0 PUSH20 0xFFFFFFFFFFFFFFFFFFFFFFFFFFFFFFFFFFFFFFFF AND DUP2 PUSH20 0xFFFFFFFFFFFFFFFFFFFFFFFFFFFFFFFFFFFFFFFF AND SUB PUSH2 0x12D1 JUMPI PUSH1 0x40 MLOAD PUSH32 0x8C379A000000000000000000000000000000000000000000000000000000000 DUP2 MSTORE PUSH1 0x4 ADD PUSH2 0x12C8 SWAP1 PUSH2 0x16DE JUMP JUMPDEST PUSH1 0x40 MLOAD DUP1 SWAP2 SUB SWAP1 REVERT JUMPDEST DUP1 PUSH1 0x3 PUSH0 PUSH2 0x100 EXP DUP2 SLOAD DUP2 PUSH20 0xFFFFFFFFFFFFFFFFFFFFFFFFFFFFFFFFFFFFFFFF MUL NOT AND SWAP1 DUP4 PUSH20 0xFFFFFFFFFFFFFFFFFFFFFFFFFFFFFFFFFFFFFFFF AND MUL OR SWAP1 SSTORE POP POP JUMP JUMPDEST PUSH0 PUSH0 DUP4 DUP4 PUSH2 0x1322 SWAP2 SWAP1 PUSH2 0x1C70 JUMP JUMPDEST SWAP1 POP PUSH3 0xF4240 PUSH4 0xFFFFFFFF AND DUP2 PUSH2 0x1339 SWAP2 SWAP1 PUSH2 0x1CA3 JUMP JUMPDEST SWAP2 POP POP SWAP3 SWAP2 POP POP JUMP JUMPDEST PUSH1 0x40 MLOAD DUP1 PUSH1 0x80 ADD PUSH1 0x40 MSTORE DUP1 PUSH0 DUP2 MSTORE PUSH1 0x20 ADD PUSH0 DUP2 MSTORE PUSH1 0x20 ADD PUSH0 DUP2 MSTORE PUSH1 0x20 ADD PUSH0 ISZERO ISZERO DUP2 MSTORE POP SWAP1 JUMP JUMPDEST PUSH0 PUSH0 REVERT JUMPDEST PUSH0 PUSH1 0xFF DUP3 AND SWAP1 POP SWAP2 SWAP1 POP JUMP JUMPDEST PUSH2 0x1381 DUP2 PUSH2 0x136C JUMP JUMPDEST DUP2 EQ PUSH2 0x138B JUMPI PUSH0 PUSH0 REVERT JUMPDEST POP JUMP JUMPDEST PUSH0 DUP2 CALLDATALOAD SWAP1 POP PUSH2 0x139C DUP2 PUSH2 0x1378 JUMP JUMPDEST SWAP3 SWAP2 POP POP JUMP JUMPDEST PUSH0 PUSH1 0x20 DUP3 DUP5 SUB SLT ISZERO PUSH2 0x13B7 JUMPI PUSH2 0x13B6 PUSH2 0x1368 JUMP JUMPDEST JUMPDEST PUSH0 PUSH2 0x13C4 DUP5 DUP3 DUP6 ADD PUSH2 0x138E JUMP JUMPDEST SWAP2 POP POP SWAP3 SWAP2 POP POP JUMP JUMPDEST PUSH0 DUP2 ISZERO ISZERO SWAP1 POP SWAP2 SWAP1 POP JUMP JUMPDEST PUSH2 0x13E1 DUP2 PUSH2 0x13CD JUMP JUMPDEST DUP3 MSTORE POP POP JUMP JUMPDEST PUSH0 PUSH1 0x20 DUP3 ADD SWAP1 POP PUSH2 0x13FA PUSH0 DUP4 ADD DUP5 PUSH2 0x13D8 JUMP JUMPDEST SWAP3 SWAP2 POP POP JUMP JUMPDEST PUSH0 DUP2 SWAP1 POP SWAP2 SWAP1 POP JUMP JUMPDEST PUSH2 0x1412 DUP2 PUSH2 0x1400 JUMP JUMPDEST DUP3 MSTORE POP POP JUMP JUMPDEST PUSH2 0x1421 DUP2 PUSH2 0x13CD JUMP JUMPDEST DUP3 MSTORE POP POP JUMP JUMPDEST PUSH1 0x80 DUP3 ADD PUSH0 DUP3 ADD MLOAD PUSH2 0x143B PUSH0 DUP6 ADD DUP3 PUSH2 0x1409 JUMP JUMPDEST POP PUSH1 0x20 DUP3 ADD MLOAD PUSH2 0x144E PUSH1 0x20 DUP6 ADD DUP3 PUSH2 0x1409 JUMP JUMPDEST POP PUSH1 0x40 DUP3 ADD MLOAD PUSH2 0x1461 PUSH1 0x40 DUP6 ADD DUP3 PUSH2 0x1409 JUMP JUMPDEST POP PUSH1 0x60 DUP3 ADD MLOAD PUSH2 0x1474 PUSH1 0x60 DUP6 ADD DUP3 PUSH2 0x1418 JUMP JUMPDEST POP POP POP POP JUMP JUMPDEST PUSH0 PUSH1 0x80 DUP3 ADD SWAP1 POP PUSH2 0x148D PUSH0 DUP4 ADD DUP5 PUSH2 0x1427 JUMP JUMPDEST SWAP3 SWAP2 POP POP JUMP JUMPDEST PUSH0 PUSH20 0xFFFFFFFFFFFFFFFFFFFFFFFFFFFFFFFFFFFFFFFF DUP3 AND SWAP1 POP SWAP2 SWAP1 POP JUMP JUMPDEST PUSH0 DUP2 SWAP1 POP SWAP2 SWAP1 POP JUMP JUMPDEST PUSH0 PUSH2 0x14D5 PUSH2 0x14D0 PUSH2 0x14CB DUP5 PUSH2 0x1493 JUMP JUMPDEST PUSH2 0x14B2 JUMP JUMPDEST PUSH2 0x1493 JUMP JUMPDEST SWAP1 POP SWAP2 SWAP1 POP JUMP JUMPDEST PUSH0 PUSH2 0x14E6 DUP3 PUSH2 0x14BB JUMP JUMPDEST SWAP1 POP SWAP2 SWAP1 POP JUMP JUMPDEST PUSH0 PUSH2 0x14F7 DUP3 PUSH2 0x14DC JUMP JUMPDEST SWAP1 POP SWAP2 SWAP1 POP JUMP JUMPDEST PUSH2 0x1507 DUP2 PUSH2 0x14ED JUMP JUMPDEST DUP3 MSTORE POP POP JUMP JUMPDEST PUSH0 PUSH1 0x20 DUP3 ADD SWAP1 POP PUSH2 0x1520 PUSH0 DUP4 ADD DUP5 PUSH2 0x14FE JUMP JUMPDEST SWAP3 SWAP2 POP POP JUMP JUMPDEST PUSH2 0x152F DUP2 PUSH2 0x1400 JUMP JUMPDEST DUP2 EQ PUSH2 0x1539 JUMPI PUSH0 PUSH0 REVERT JUMPDEST POP JUMP JUMPDEST PUSH0 DUP2 CALLDATALOAD SWAP1 POP PUSH2 0x154A DUP2 PUSH2 0x1526 JUMP JUMPDEST SWAP3 SWAP2 POP POP JUMP JUMPDEST PUSH0 PUSH0 PUSH1 0x40 DUP4 DUP6 SUB SLT ISZERO PUSH2 0x1566 JUMPI PUSH2 0x1565 PUSH2 0x1368 JUMP JUMPDEST JUMPDEST PUSH0 PUSH2 0x1573 DUP6 DUP3 DUP7 ADD PUSH2 0x153C JUMP JUMPDEST SWAP3 POP POP PUSH1 0x20 PUSH2 0x1584 DUP6 DUP3 DUP7 ADD PUSH2 0x153C JUMP JUMPDEST SWAP2 POP POP SWAP3 POP SWAP3 SWAP1 POP JUMP JUMPDEST PUSH2 0x1597 DUP2 PUSH2 0x1400 JUMP JUMPDEST DUP3 MSTORE POP POP JUMP JUMPDEST PUSH0 PUSH1 0x20 DUP3 ADD SWAP1 POP PUSH2 0x15B0 PUSH0 DUP4 ADD DUP5 PUSH2 0x158E JUMP JUMPDEST SWAP3 SWAP2 POP POP JUMP JUMPDEST PUSH0 PUSH2 0x15C0 DUP3 PUSH2 0x1493 JUMP JUMPDEST SWAP1 POP SWAP2 SWAP1 POP JUMP JUMPDEST PUSH2 0x15D0 DUP2 PUSH2 0x15B6 JUMP JUMPDEST DUP2 EQ PUSH2 0x15DA JUMPI PUSH0 PUSH0 REVERT JUMPDEST POP JUMP JUMPDEST PUSH0 DUP2 CALLDATALOAD SWAP1 POP PUSH2 0x15EB DUP2 PUSH2 0x15C7 JUMP JUMPDEST SWAP3 SWAP2 POP POP JUMP JUMPDEST PUSH0 PUSH1 0x20 DUP3 DUP5 SUB SLT ISZERO PUSH2 0x1606 JUMPI PUSH2 0x1605 PUSH2 0x1368 JUMP JUMPDEST JUMPDEST PUSH0 PUSH2 0x1613 DUP5 DUP3 DUP6 ADD PUSH2 0x15DD JUMP JUMPDEST SWAP2 POP POP SWAP3 SWAP2 POP POP JUMP JUMPDEST PUSH0 DUP3 DUP3 MSTORE PUSH1 0x20 DUP3 ADD SWAP1 POP SWAP3 SWAP2 POP POP JUMP JUMPDEST PUSH32 0x4E6F7420616C6C6F77656420746F2072652D656E746572000000000000000000 PUSH0 DUP3 ADD MSTORE POP JUMP JUMPDEST PUSH0 PUSH2 0x1660 PUSH1 0x17 DUP4 PUSH2 0x161C JUMP JUMPDEST SWAP2 POP PUSH2 0x166B DUP3 PUSH2 0x162C JUMP JUMPDEST PUSH1 0x20 DUP3 ADD SWAP1 POP SWAP2 SWAP1 POP JUMP JUMPDEST PUSH0 PUSH1 0x20 DUP3 ADD SWAP1 POP DUP2 DUP2 SUB PUSH0 DUP4 ADD MSTORE PUSH2 0x168D DUP2 PUSH2 0x1654 JUMP JUMPDEST SWAP1 POP SWAP2 SWAP1 POP JUMP JUMPDEST PUSH32 0x5A65726F2061646472657373206E6F7420616C6C6F7765640000000000000000 PUSH0 DUP3 ADD MSTORE POP JUMP JUMPDEST PUSH0 PUSH2 0x16C8 PUSH1 0x18 DUP4 PUSH2 0x161C JUMP JUMPDEST SWAP2 POP PUSH2 0x16D3 DUP3 PUSH2 0x1694 JUMP JUMPDEST PUSH1 0x20 DUP3 ADD SWAP1 POP SWAP2 SWAP1 POP JUMP JUMPDEST PUSH0 PUSH1 0x20 DUP3 ADD SWAP1 POP DUP2 DUP2 SUB PUSH0 DUP4 ADD MSTORE PUSH2 0x16F5 DUP2 PUSH2 0x16BC JUMP JUMPDEST SWAP1 POP SWAP2 SWAP1 POP JUMP JUMPDEST PUSH32 0x4F7574206F662072616E67650000000000000000000000000000000000000000 PUSH0 DUP3 ADD MSTORE POP JUMP JUMPDEST PUSH0 PUSH2 0x1730 PUSH1 0xC DUP4 PUSH2 0x161C JUMP JUMPDEST SWAP2 POP PUSH2 0x173B DUP3 PUSH2 0x16FC JUMP JUMPDEST PUSH1 0x20 DUP3 ADD SWAP1 POP SWAP2 SWAP1 POP JUMP JUMPDEST PUSH0 PUSH1 0x20 DUP3 ADD SWAP1 POP DUP2 DUP2 SUB PUSH0 DUP4 ADD MSTORE PUSH2 0x175D DUP2 PUSH2 0x1724 JUMP JUMPDEST SWAP1 POP SWAP2 SWAP1 POP JUMP JUMPDEST PUSH32 0x4E487B7100000000000000000000000000000000000000000000000000000000 PUSH0 MSTORE PUSH1 0x32 PUSH1 0x4 MSTORE PUSH1 0x24 PUSH0 REVERT JUMPDEST PUSH32 0x4E6F74207965742074696D650000000000000000000000000000000000000000 PUSH0 DUP3 ADD MSTORE POP JUMP JUMPDEST PUSH0 PUSH2 0x17C5 PUSH1 0xC DUP4 PUSH2 0x161C JUMP JUMPDEST SWAP2 POP PUSH2 0x17D0 DUP3 PUSH2 0x1791 JUMP JUMPDEST PUSH1 0x20 DUP3 ADD SWAP1 POP SWAP2 SWAP1 POP JUMP JUMPDEST PUSH0 PUSH1 0x20 DUP3 ADD SWAP1 POP DUP2 DUP2 SUB PUSH0 DUP4 ADD MSTORE PUSH2 0x17F2 DUP2 PUSH2 0x17B9 JUMP JUMPDEST SWAP1 POP SWAP2 SWAP1 POP JUMP JUMPDEST PUSH32 0x5374616B6520616C72656164792077697468647261776E000000000000000000 PUSH0 DUP3 ADD MSTORE POP JUMP JUMPDEST PUSH0 PUSH2 0x182D PUSH1 0x17 DUP4 PUSH2 0x161C JUMP JUMPDEST SWAP2 POP PUSH2 0x1838 DUP3 PUSH2 0x17F9 JUMP JUMPDEST PUSH1 0x20 DUP3 ADD SWAP1 POP SWAP2 SWAP1 POP JUMP JUMPDEST PUSH0 PUSH1 0x20 DUP3 ADD SWAP1 POP DUP2 DUP2 SUB PUSH0 DUP4 ADD MSTORE PUSH2 0x185A DUP2 PUSH2 0x1821 JUMP JUMPDEST SWAP1 POP SWAP2 SWAP1 POP JUMP JUMPDEST PUSH2 0x186A DUP2 PUSH2 0x15B6 JUMP JUMPDEST DUP3 MSTORE POP POP JUMP JUMPDEST PUSH0 PUSH1 0x40 DUP3 ADD SWAP1 POP PUSH2 0x1883 PUSH0 DUP4 ADD DUP6 PUSH2 0x1861 JUMP JUMPDEST PUSH2 0x1890 PUSH1 0x20 DUP4 ADD DUP5 PUSH2 0x158E JUMP JUMPDEST SWAP4 SWAP3 POP POP POP JUMP JUMPDEST PUSH2 0x18A0 DUP2 PUSH2 0x13CD JUMP JUMPDEST DUP2 EQ PUSH2 0x18AA JUMPI PUSH0 PUSH0 REVERT JUMPDEST POP JUMP JUMPDEST PUSH0 DUP2 MLOAD SWAP1 POP PUSH2 0x18BB DUP2 PUSH2 0x1897 JUMP JUMPDEST SWAP3 SWAP2 POP POP JUMP JUMPDEST PUSH0 PUSH1 0x20 DUP3 DUP5 SUB SLT ISZERO PUSH2 0x18D6 JUMPI PUSH2 0x18D5 PUSH2 0x1368 JUMP JUMPDEST JUMPDEST PUSH0 PUSH2 0x18E3 DUP5 DUP3 DUP6 ADD PUSH2 0x18AD JUMP JUMPDEST SWAP2 POP POP SWAP3 SWAP2 POP POP JUMP JUMPDEST PUSH32 0x4E6F7420796F7572207475726E00000000000000000000000000000000000000 PUSH0 DUP3 ADD MSTORE POP JUMP JUMPDEST PUSH0 PUSH2 0x1920 PUSH1 0xD DUP4 PUSH2 0x161C JUMP JUMPDEST SWAP2 POP PUSH2 0x192B DUP3 PUSH2 0x18EC JUMP JUMPDEST PUSH1 0x20 DUP3 ADD SWAP1 POP SWAP2 SWAP1 POP JUMP JUMPDEST PUSH0 PUSH1 0x20 DUP3 ADD SWAP1 POP DUP2 DUP2 SUB PUSH0 DUP4 ADD MSTORE PUSH2 0x194D DUP2 PUSH2 0x1914 JUMP JUMPDEST SWAP1 POP SWAP2 SWAP1 POP JUMP JUMPDEST PUSH32 0x416D6F756E74206973206F7574206F662072616E676500000000000000000000 PUSH0 DUP3 ADD MSTORE POP JUMP JUMPDEST PUSH0 PUSH2 0x1988 PUSH1 0x16 DUP4 PUSH2 0x161C JUMP JUMPDEST SWAP2 POP PUSH2 0x1993 DUP3 PUSH2 0x1954 JUMP JUMPDEST PUSH1 0x20 DUP3 ADD SWAP1 POP SWAP2 SWAP1 POP JUMP JUMPDEST PUSH0 PUSH1 0x20 DUP3 ADD SWAP1 POP DUP2 DUP2 SUB PUSH0 DUP4 ADD MSTORE PUSH2 0x19B5 DUP2 PUSH2 0x197C JUMP JUMPDEST SWAP1 POP SWAP2 SWAP1 POP JUMP JUMPDEST PUSH32 0x4475726174696F6E20697320746F6F2073686F72740000000000000000000000 PUSH0 DUP3 ADD MSTORE POP JUMP JUMPDEST PUSH0 PUSH2 0x19F0 PUSH1 0x15 DUP4 PUSH2 0x161C JUMP JUMPDEST SWAP2 POP PUSH2 0x19FB DUP3 PUSH2 0x19BC JUMP JUMPDEST PUSH1 0x20 DUP3 ADD SWAP1 POP SWAP2 SWAP1 POP JUMP JUMPDEST PUSH0 PUSH1 0x20 DUP3 ADD SWAP1 POP DUP2 DUP2 SUB PUSH0 DUP4 ADD MSTORE PUSH2 0x1A1D DUP2 PUSH2 0x19E4 JUMP JUMPDEST SWAP1 POP SWAP2 SWAP1 POP JUMP JUMPDEST PUSH0 PUSH1 0x20 DUP3 ADD SWAP1 POP PUSH2 0x1A37 PUSH0 DUP4 ADD DUP5 PUSH2 0x1861 JUMP JUMPDEST SWAP3 SWAP2 POP POP JUMP JUMPDEST PUSH0 DUP2 MLOAD SWAP1 POP PUSH2 0x1A4B DUP2 PUSH2 0x1526 JUMP JUMPDEST SWAP3 SWAP2 POP POP JUMP JUMPDEST PUSH0 PUSH1 0x20 DUP3 DUP5 SUB SLT ISZERO PUSH2 0x1A66 JUMPI PUSH2 0x1A65 PUSH2 0x1368 JUMP JUMPDEST JUMPDEST PUSH0 PUSH2 0x1A73 DUP5 DUP3 DUP6 ADD PUSH2 0x1A3D JUMP JUMPDEST SWAP2 POP POP SWAP3 SWAP2 POP POP JUMP JUMPDEST PUSH32 0x596F7520646F6E2774206861766520656E6F7567680000000000000000000000 PUSH0 DUP3 ADD MSTORE POP JUMP JUMPDEST PUSH0 PUSH2 0x1AB0 PUSH1 0x15 DUP4 PUSH2 0x161C JUMP JUMPDEST SWAP2 POP PUSH2 0x1ABB DUP3 PUSH2 0x1A7C JUMP JUMPDEST PUSH1 0x20 DUP3 ADD SWAP1 POP SWAP2 SWAP1 POP JUMP JUMPDEST PUSH0 PUSH1 0x20 DUP3 ADD SWAP1 POP DUP2 DUP2 SUB PUSH0 DUP4 ADD MSTORE PUSH2 0x1ADD DUP2 PUSH2 0x1AA4 JUMP JUMPDEST SWAP1 POP SWAP2 SWAP1 POP JUMP JUMPDEST PUSH0 PUSH1 0x40 DUP3 ADD SWAP1 POP PUSH2 0x1AF7 PUSH0 DUP4 ADD DUP6 PUSH2 0x1861 JUMP JUMPDEST PUSH2 0x1B04 PUSH1 0x20 DUP4 ADD DUP5 PUSH2 0x1861 JUMP JUMPDEST SWAP4 SWAP3 POP POP POP JUMP JUMPDEST PUSH32 0x416D6F756E7420616C6C6F776564206973206E6F7420656E6F75676800000000 PUSH0 DUP3 ADD MSTORE POP JUMP JUMPDEST PUSH0 PUSH2 0x1B3F PUSH1 0x1C DUP4 PUSH2 0x161C JUMP JUMPDEST SWAP2 POP PUSH2 0x1B4A DUP3 PUSH2 0x1B0B JUMP JUMPDEST PUSH1 0x20 DUP3 ADD SWAP1 POP SWAP2 SWAP1 POP JUMP JUMPDEST PUSH0 PUSH1 0x20 DUP3 ADD SWAP1 POP DUP2 DUP2 SUB PUSH0 DUP4 ADD MSTORE PUSH2 0x1B6C DUP2 PUSH2 0x1B33 JUMP JUMPDEST SWAP1 POP SWAP2 SWAP1 POP JUMP JUMPDEST PUSH0 PUSH1 0x60 DUP3 ADD SWAP1 POP PUSH2 0x1B86 PUSH0 DUP4 ADD DUP7 PUSH2 0x1861 JUMP JUMPDEST PUSH2 0x1B93 PUSH1 0x20 DUP4 ADD DUP6 PUSH2 0x1861 JUMP JUMPDEST PUSH2 0x1BA0 PUSH1 0x40 DUP4 ADD DUP5 PUSH2 0x158E JUMP JUMPDEST SWAP5 SWAP4 POP POP POP POP JUMP JUMPDEST PUSH32 0x4E487B7100000000000000000000000000000000000000000000000000000000 PUSH0 MSTORE PUSH1 0x11 PUSH1 0x4 MSTORE PUSH1 0x24 PUSH0 REVERT JUMPDEST PUSH0 PUSH2 0x1BDF DUP3 PUSH2 0x1400 JUMP JUMPDEST SWAP2 POP PUSH2 0x1BEA DUP4 PUSH2 0x1400 JUMP JUMPDEST SWAP3 POP DUP3 DUP3 ADD SWAP1 POP DUP1 DUP3 GT ISZERO PUSH2 0x1C02 JUMPI PUSH2 0x1C01 PUSH2 0x1BA8 JUMP JUMPDEST JUMPDEST SWAP3 SWAP2 POP POP JUMP JUMPDEST PUSH32 0x4E6F204163636573730000000000000000000000000000000000000000000000 PUSH0 DUP3 ADD MSTORE POP JUMP JUMPDEST PUSH0 PUSH2 0x1C3C PUSH1 0x9 DUP4 PUSH2 0x161C JUMP JUMPDEST SWAP2 POP PUSH2 0x1C47 DUP3 PUSH2 0x1C08 JUMP JUMPDEST PUSH1 0x20 DUP3 ADD SWAP1 POP SWAP2 SWAP1 POP JUMP JUMPDEST PUSH0 PUSH1 0x20 DUP3 ADD SWAP1 POP DUP2 DUP2 SUB PUSH0 DUP4 ADD MSTORE PUSH2 0x1C69 DUP2 PUSH2 0x1C30 JUMP JUMPDEST SWAP1 POP SWAP2 SWAP1 POP JUMP JUMPDEST PUSH0 PUSH2 0x1C7A DUP3 PUSH2 0x1400 JUMP JUMPDEST SWAP2 POP PUSH2 0x1C85 DUP4 PUSH2 0x1400 JUMP JUMPDEST SWAP3 POP DUP3 DUP3 SUB SWAP1 POP DUP2 DUP2 GT ISZERO PUSH2 0x1C9D JUMPI PUSH2 0x1C9C PUSH2 0x1BA8 JUMP JUMPDEST JUMPDEST SWAP3 SWAP2 POP POP JUMP JUMPDEST PUSH0 PUSH2 0x1CAD DUP3 PUSH2 0x1400 JUMP JUMPDEST SWAP2 POP PUSH2 0x1CB8 DUP4 PUSH2 0x1400 JUMP JUMPDEST SWAP3 POP DUP3 DUP3 MUL PUSH2 0x1CC6 DUP2 PUSH2 0x1400 JUMP JUMPDEST SWAP2 POP DUP3 DUP3 DIV DUP5 EQ DUP4 ISZERO OR PUSH2 0x1CDD JUMPI PUSH2 0x1CDC PUSH2 0x1BA8 JUMP JUMPDEST JUMPDEST POP SWAP3 SWAP2 POP POP JUMP INVALID LOG2 PUSH5 0x6970667358 0x22 SLT KECCAK256 0xD0 0xD6 EQ TIMESTAMP GAS 0xB4 0xEC SELFDESTRUCT DUP10 0xF8 0xD6 PUSH20 0x84FDD6D7AB782E10F77098F9A04EFD90BAB6AB69 PUSH5 0x736F6C6343 STOP ADDMOD SHR STOP CALLER "
				},
				"gasEstimates": {
					"creation": {
						"codeDepositCost": "1490000",
						"executionCost": "infinite",
						"totalCost": "infinite"
					},
					"external": {
						"MPXContract()": "infinite",
						"XFIContract()": "infinite",
						"claimOwnership()": "58849",
						"getContractMPXBalance()": "infinite",
						"getContractXFIBalance()": "infinite",
						"getStakerInfo(uint8)": "infinite",
						"stake(uint256,uint256)": "infinite",
						"transferOwnership(address)": "27006",
						"withdrawStake(uint8)": "infinite"
					},
					"internal": {
						"calculateReward(uint256,uint256)": "infinite"
					}
				},
				"methodIdentifiers": {
					"MPXContract()": "9be2f4ed",
					"XFIContract()": "74b28101",
					"claimOwnership()": "4e71e0c8",
					"getContractMPXBalance()": "efbabd91",
					"getContractXFIBalance()": "dede8ef6",
					"getStakerInfo(uint8)": "6d6e31f7",
					"stake(uint256,uint256)": "7b0472f0",
					"transferOwnership(address)": "f2fde38b",
					"withdrawStake(uint8)": "21712697"
				}
			},
			"storageLayout": {
				"storage": [
					{
						"astId": 74,
						"contract": "contracts/StakeXFI.sol:StakeXFI",
						"label": "XFIContract",
						"offset": 0,
						"slot": "0",
						"type": "t_contract(IERC20)68"
					},
					{
						"astId": 77,
						"contract": "contracts/StakeXFI.sol:StakeXFI",
						"label": "MPXContract",
						"offset": 0,
						"slot": "1",
						"type": "t_contract(IERC20)68"
					},
					{
						"astId": 79,
						"contract": "contracts/StakeXFI.sol:StakeXFI",
						"label": "owner",
						"offset": 0,
						"slot": "2",
						"type": "t_address"
					},
					{
						"astId": 81,
						"contract": "contracts/StakeXFI.sol:StakeXFI",
						"label": "newOwner",
						"offset": 0,
						"slot": "3",
						"type": "t_address"
					},
					{
						"astId": 83,
						"contract": "contracts/StakeXFI.sol:StakeXFI",
						"label": "locked",
						"offset": 20,
						"slot": "3",
						"type": "t_bool"
					},
					{
						"astId": 117,
						"contract": "contracts/StakeXFI.sol:StakeXFI",
						"label": "stakers",
						"offset": 0,
						"slot": "4",
						"type": "t_mapping(t_address,t_array(t_struct(Staking)111_storage)dyn_storage)"
					}
				],
				"types": {
					"t_address": {
						"encoding": "inplace",
						"label": "address",
						"numberOfBytes": "20"
					},
					"t_array(t_struct(Staking)111_storage)dyn_storage": {
						"base": "t_struct(Staking)111_storage",
						"encoding": "dynamic_array",
						"label": "struct StakeXFI.Staking[]",
						"numberOfBytes": "32"
					},
					"t_bool": {
						"encoding": "inplace",
						"label": "bool",
						"numberOfBytes": "1"
					},
					"t_contract(IERC20)68": {
						"encoding": "inplace",
						"label": "contract IERC20",
						"numberOfBytes": "20"
					},
					"t_mapping(t_address,t_array(t_struct(Staking)111_storage)dyn_storage)": {
						"encoding": "mapping",
						"key": "t_address",
						"label": "mapping(address => struct StakeXFI.Staking[])",
						"numberOfBytes": "32",
						"value": "t_array(t_struct(Staking)111_storage)dyn_storage"
					},
					"t_struct(Staking)111_storage": {
						"encoding": "inplace",
						"label": "struct StakeXFI.Staking",
						"members": [
							{
								"astId": 104,
								"contract": "contracts/StakeXFI.sol:StakeXFI",
								"label": "amount",
								"offset": 0,
								"slot": "0",
								"type": "t_uint256"
							},
							{
								"astId": 106,
								"contract": "contracts/StakeXFI.sol:StakeXFI",
								"label": "startTime",
								"offset": 0,
								"slot": "1",
								"type": "t_uint256"
							},
							{
								"astId": 108,
								"contract": "contracts/StakeXFI.sol:StakeXFI",
								"label": "duration",
								"offset": 0,
								"slot": "2",
								"type": "t_uint256"
							},
							{
								"astId": 110,
								"contract": "contracts/StakeXFI.sol:StakeXFI",
								"label": "hasWithdrawn",
								"offset": 0,
								"slot": "3",
								"type": "t_bool"
							}
						],
						"numberOfBytes": "128"
					},
					"t_uint256": {
						"encoding": "inplace",
						"label": "uint256",
						"numberOfBytes": "32"
					}
				}
			},
			"userdoc": {
				"kind": "user",
				"methods": {},
				"version": 1
			}
		}
	}
}